:0614000055EF0AF0120096
:101408005182FACF17F0FBCF18F0E9CF19F0EACFE5
:101418001AF0E1CF1BF0E2CF1CF0D9CF1DF0DACFE4
:101428001EF0F3CF1FF0F4CF20F0F6CF21F0F7CF66
:1014380022F0F8CF23F0F5CF24F051C025F052C0A8
:1014480026F053C027F054C028F0F292F2B4F2AA62
:1014580002D0F2ECA2F028C054F027C053F026C006
:1014680052F025C051F024C0F5FF23C0F8FF22C078
:10147800F7FF21C0F6FF20C0F4FF1FC0F3FF1EC016
:10148800DAFF1DC0D9FF1CC0E2FF1BC0E1FF1AC074
:10149800EAFF19C0E9FF18C0FBFF17C0FAFF519215
:0614A8001100D4EF96F0E4
:10FCCC0000001180002C0100B1020035003600004C
:10FCDC00B202003500360000B302003500360002D7
:10FCEC00003500360000B4000000C0A20002008401
:10FCFC000000C1C50000C20D00000000C38D002A29
:10FD0C000000C48D00EE0000C50A000036C80000DB
:10FD1C00E012001C001000180033002C00250028F5
:10FD2C0000280027002F003C0000000300030010F7
:10FD3C00008000780000E112001C00100018002D5B
:10FD4C0000280023002800280026002F003B00007C
:10FD5C0000030003001000003A0500002A00000216
:10FD6C000000008100002B000003000000A2000036
:10FD7C0029002C0200040008001000200040008024
:10FD8C00000001000102000100010002020000035A
:10FD9C0003030001000A006400E8031027000103BC
:10FDAC00070F1F3F7FFF000201030104100000003A
:10FDBC00000000005F00000007000700147F147FA4
:10FDCC0014242A7F2A1223130864623649552250C0
:10FDDC000005030000001C2241000041221C000809
:10FDEC002A1C2A0808083E080800503000000808A1
:10FDFC00080808006060000020100804023E514909
:10FE0C00453E00427F400042615149462141454BED
:10FE1C00311814127F1027454545393C4A49493061
:10FE2C0001710905033649494936064949291E001D
:10FE3C003636000000563600000008142241141417
:10FE4C001414144122140800020151090632497994
:10FE5C00413E7E1111117E7F494949363E41414157
:10FE6C00227F4141221C7F494949417F09090101F7
:10FE7C003E414151327F0808087F00417F410020FC
:10FE8C0040413F017F081422417F404040407F02A7
:10FE9C0004027F7F0408107F3E4141413E7F0909E7
:10FEAC0009063E4151215E7F0919294646494949B7
:10FEBC003101017F01013F4040403F1F2040201F86
:10FECC007F2018207F6314081463030478040361F3
:10FEDC005149454300007F41410204081020414133
:10FEEC007F00000402010204404040404000010237
:10FEFC00040020545454787F4844443838444444D3
:10FF0C0020384444487F3854545418087E09010260
:10FF1C00081454543C7F0804047800447D400020AD
:10FF2C0040443D00007F10284400417F40007C0489
:10FF3C001804787C0804047838444444387C14143D
:10FF4C001408081414187C7C0804040848545454ED
:10FF5C0020043F4440203C4040207C1C2040201C7E
:10FF6C003C4030403C44281028440C5050503C44F9
:10FF7C0064544C44000836410000007F00000041EE
:10FF8C0036080008082A1C08081C2A080800FCFF70
:10FF9C000F0000FFFFF0FF00FFFF00546F74616C57
:10FFAC002044697374616E63653A25750A4C656605
:10FFBC00742042756D703A25750A52696768742011
:10FFCC0042756D703A25750A00546F74616C20444B
:10FFDC00697374616E63653A2025640A0A0A0A0A19
:10FFEC000A0A0052756E6E696E673A2025640A0023
:04FFFC002563000079
:020000040001F9
:100000000CD0680E0001E86F030E04D0730E0001DF
:10001000E86F030E0001E96F08D00001E651000A05
:10002000D8B4EFD7010AD8B4F1D7000120EE02F01E
:10003000E851D926E951DA22E6C0DFFFB1D0A30E9C
:100040000001DB6F000E0001DC6F020E0001DD6FAE
:10005000030E0001DE6F64EC8BF0A30E0001DB6F7A
:10006000000E0001DC6F030E0001DD6F030E0001C6
:10007000DE6F64EC8BF0A30E0001DB6F000E00015D
:10008000DC6F050E0001DD6F030E0001DE6F64EC16
:100090008BF0A30E0001DB6F000E0001DC6F040E7D
:1000A0000001DD6F000E0001DE6F64EC8BF00001DB
:1000B00020EE03F0E851D926E951DA22C70EDE6EB0
:1000C0000F0EDD6E000120EE06F0E851D926E95151
:1000D000DA22C60EDE6E0F0EDD6E000120EE09F094
:1000E000E851D926E951DA22C90E56D0990E0001FD
:1000F000DB6F000E0001DC6F070E0001DD6F030EE9
:100100000001DE6F64EC8BF0990E0001DB6F000ED6
:100110000001DC6F060E0001DD6F030E0001DE6FD3
:1001200064EC8BF0990E0001DB6F000E0001DC6FB8
:10013000040E0001DD6F030E0001DE6F64EC8BF036
:10014000990E0001DB6F000E0001DC6F050E00014F
:10015000DD6F000E0001DE6F64EC8BF0000120EE1D
:1001600003F0E851D926E951DA226D0EDE6E0F0E4A
:10017000DD6E000120EE06F0E851D926E951DA22C1
:100180006C0EDE6E0F0EDD6E000120EE09F0E85100
:10019000D926E951DA226F0EDE6E0F0EDD6E09D020
:1001A0000001E651000AD8B44AD7010AD8A41200C7
:1001B0009DD7000120EE06F0E851D926E951DA2258
:1001C000DECFB5F0DDCFB6F0050E0001B76F000E43
:1001D0000001B86F6CEC9EF09CD0000120EE06F0A0
:1001E000E851D926E951DA22DECFB5F0DDCFB6F0FD
:1001F000040E0001B76F000E0001B86F6CEC9EF0AA
:10020000000120EE03F0E851D926E951DA22DECFD1
:10021000B5F0DDCFB6F0060E0001B76F000E00019D
:10022000B86F6CEC9EF084D0000120EE06F0E8512F
:10023000D926E951DA22DECFB5F0DDCFB6F0040ED3
:100240000001B76F000E0001B86F6CEC9EF000016A
:1002500020EE03F0E851D926E951DA22DECFB5F0DD
:10026000DDCFB6F0060E0001B76F010E0001B86FCA
:100270006CEC9EF05DD0000120EE06F0E851D9262E
:10028000E951DA22DECFB5F0DDCFB6F0040E000181
:10029000B76F010E0001B86F6CEC9EF0000120EE0C
:1002A00003F0E851D926E951DA22DECFB5F0DDCFEF
:1002B000B6F0060E0001B76F000E0001B86F6CECCF
:1002C0009EF036D0000120EE06F0E851D926E95123
:1002D000DA22DECFB5F0DDCFB6F0040E0001B76F45
:1002E000010E0001B86F6CEC9EF0000120EE03F0EF
:1002F000E851D926E951DA22DECFB5F0DDCFB6F0EC
:10030000060E0001B76F010E0001B86F6CEC9EF095
:100310000FD00001E751000AD8B45FD7010AD8B462
:1003200083D7030AD8B4A7D7010AD8A41200CAD722
:10033000000120EE06F0E851D926E951DA22DECF9D
:10034000B5F0DDCFB6F0070E0001B76F000E00016B
:10035000B86F6CEC9EF0000120EE06F0E851D92653
:10036000E951DA22DECFB5F0DDCFB6F0060E00019E
:10037000B76F000E0001B86F6CEC9EF0E2C0C2F0E7
:10038000E3C0C3F0E4C0C4F0E5C0C5F0CBEC90F02E
:10039000E8C0B5F0E9C0B6F01EECA3F004D09F862B
:1003A0000BD0A58E09D00001E651000AD8B4F7D7CA
:1003B000010AD8A41200F5D7E8C0B5F0E9C0B6F03C
:1003C000ABECA2F0E8C0D9FFE9C0DAFF000EDF6EA7
:1003D000000120EE06F0E851D926E951DA22DECFFD
:1003E000C0F0DDCFC1F0000E0001C26F030E0001AE
:1003F000C36F43ECA3F0000120EE06F0E851D926CC
:10040000E951DA22DECFB5F0DDCFB6F0050E0001FE
:10041000B76F010E0001B86F6CEC9EF01200080E71
:100420000001C4250001C16F000E0001C5210001BB
:10043000C26F000E0001C36FE9ECA1F00001DB6F99
:100440000001DB510001C76FC86B0E0ED890000190
:10045000C737C837E82EFAD70001DB510001C96F52
:10046000CA6B0C0ED8900001C937CA37E82EFAD7EC
:100470000001DB510001CB6FCC6B0A0ED89000015C
:10048000CB37CC37E82EFAD70001DB510001CE6F15
:10049000CD6B0001DB510001CF6FD06B060ED89001
:1004A0000001CF37D037E82EFAD70001DB51000129
:1004B000D16FD26B0001D13BD23BF00ED217D1519C
:1004C0000F0BD213F00ED1170001DB510001D36FD7
:1004D000D46B0001D890D337D4370001D890D337EC
:1004E000D4370001DB510001D56FD66B0001D35129
:1004F0000001D5130001D4510001D6130001D151E0
:100500000001D5130001D2510001D6130001CF51D3
:100510000001D5130001D0510001D6130001CD51C7
:100520000001D5130001CE510001D6130001CB51BB
:100530000001D5130001CC510001D6130001C951AF
:100540000001D5130001CA510001D6130001C751A3
:100550000001D5110001D76F0001C8510001D6116B
:100560000001D86FDBC0D9F00001DA6B080E000182
:10057000C4250001C16F000E0001C5210001C26F3A
:10058000010E0001C36FE9ECA1F00001C76FC86B59
:100590000001D890C737C8370001D890C737C8378F
:1005A0000001C7510001D9130001C8510001DA133D
:1005B000080E0001C4250001C16F000E0001C52115
:1005C0000001C26F020E0001C36FE9ECA1F000014F
:1005D000C76FC86B0001C73BC83BF00EC817C751B7
:1005E0000F0BC813F00EC7170001C7510001D91334
:1005F0000001C8510001DA13080E0001C4250001F2
:10060000C16F000E0001C5210001C26F030E000181
:10061000C36FE9ECA1F00001C76FC86B060ED8905C
:100620000001C737C837E82EFAD70001C7510001CB
:10063000D9130001C8510001DA13080E0001C425C6
:100640000001C16F000E0001C5210001C26F040E40
:100650000001C36FE9ECA1F00001C76F0001C751B1
:100660000001C96FC86B0001C8510001D913000116
:10067000C9510001DA13080E0001C4250001C16F41
:10068000000E0001C5210001C26F050E0001C36FFD
:10069000E9ECA1F00001C76FC86B0A0ED890000109
:1006A000C737C837E82EFAD70001C7510001D91360
:1006B0000001C8510001DA13080E0001C425000131
:1006C000C16F000E0001C5210001C26F060E0001BE
:1006D000C36FE9ECA1F00001C76FC86B0C0ED89096
:1006E0000001C737C837E82EFAD70001C75100010B
:1006F000D9130001C8510001DA13080E0001C42506
:100700000001C16F000E0001C5210001C26F070E7C
:100710000001C36FE9ECA1F00001C76FC86B0E0EBA
:10072000D8900001C737C837E82EFAD70001C75163
:100730000001D9130001C8510001DA130001D95199
:100740000001D71948E10001DA510001D819D8A4F5
:10075000120032D0000120EE02F0C451D926C5515A
:10076000DA22DECFB5F0DDCFB6F0C6C0B7F0B4EC1C
:10077000A4F012000001C61F000120EE02F0C451D7
:10078000D926C551DA22DECFB5F0DDCFB6F0C6C02E
:10079000B7F0B4ECA4F01200000120EE04F0C45154
:1007A000D926C551DA22DECFB5F0DDCFB6F0C6C00E
:1007B000B7F0B4ECA4F012000001DB51000AD8B489
:1007C0001200010AD8B4C6D7030AD8B4D3D7010A95
:1007D000D8A41200E1D712000001B56F7ED03F0E01
:1007E0001200060E12005B0E12004F0E1200660E73
:1007F00012006D0E12007D0E1200070E12007F0E09
:1008000012006F0E12005F0E12007C0E1200580EC6
:1008100012005E0E12007B0E1200710E12006F0E9F
:100820001200740E1200040E12000E0E12007A0E48
:100830001200060E1200140E1200540E12005C0E6E
:100840001200730E1200670E1200500E12006D0E91
:100850001200780E12001C0E1200620E12002A0EF8
:100860001200640E12006E0E12005B0E1200770E64
:1008700012007F0E1200390E12003F0E1200790E88
:100880001200710E12003D0E1200760E1200060EBE
:1008900012001E0E1200570E1200380E1200760EB5
:1008A0001200760E12003F0E1200730E12003F0E61
:1008B0001200770E12006D0E1200310E12003E0E65
:1008C00012003E0E12007E0E1200760E1200660E10
:1008D00012005B0E1200800E12000001B5512E0AAC
:1008E000D8B4F9D71E0AD8B47AD7010AD8B479D7C0
:1008F000030AD8B478D7010AD8B477D7070AD8B48E
:1009000076D7010AD8B475D7030AD8B474D7010AC8
:10091000D8B473D70F0AD8B472D7010AD8B471D734
:10092000780AD8B4A4D7030AD8B4A3D7010AD8B494
:10093000A2D7070AD8B4A1D7010AD8B4A0D7030A0E
:10094000D8B49FD7010AD8B49ED70F0AD8B49DD780
:10095000010AD8B49CD7030AD8B49BD7010AD8B4EB
:100960009AD7070AD8B499D7010AD8B498D7030AF6
:10097000D8B497D7010AD8B496D71F0AD8B495D758
:10098000010AD8B494D7030AD8B493D7010AD8B4CB
:1009900092D7070AD8B491D7010AD8B490D7030ADE
:1009A000D8B48FD7010AD8B48ED70F0AD8B48DD750
:1009B000010AD8B48CD7030AD8B48BD73B0AD8B471
:1009C00022D7030AD8B421D7010AD8B420D7070AFE
:1009D000D8B41FD7010AD8B41ED7030AD8B41DD77C
:1009E000010AD8B41CD70F0AD8B41BD7010AD8B44F
:1009F0001AD7030AD8B419D7010AD8B418D7070AE6
:100A0000D8B417D7010AD8B416D7030AD8B415D763
:100A1000010AD8B414D71F0AD8B413D7010AD8B41E
:100A200012D7030AD8B411D7010AD8B410D7070ACD
:100A3000D8B40FD7010AD8B40ED7030AD8B40DD74B
:100A4000010AD8B40CD70F0AD8B40BD7010AD8B40E
:100A50000AD7030AD8B409D7000E1200050E000108
:100A6000EF6FC7D0000120EE02F0EB51D926EC5118
:100A7000DA22DECFC0F0DDCFC1F0EDC0C2F00F0E44
:100A80000001C36F43ECA3F0000120EE04F0EB5132
:100A9000D926EC51DA22DECFC0F0DDCFC1F0EDC0B7
:100AA000C2F0000E0001C36F43ECA3F0B0D0EBC066
:100AB000E4F0ECC0E5F0EDC0E6F0030E0001E76FF6
:100AC0002EEC9FF00001EF6F0001EF51D8A412004F
:100AD000000120EE02F0EB51D926EC51DA22DECFF4
:100AE000C0F0DDCFC1F0EDC0C2F0000E0001C36F59
:100AF00043ECA3F0000120EE04F0EB51D926EC51B9
:100B0000DA22DECFC0F0DDCFC1F0EDC0C2F0000EC2
:100B10000001C36F43ECA3F07AD0EBC0E4F0ECC06B
:100B2000E5F0EDC0E6F0030E0001E76F2EEC9FF05C
:100B30000001EF6F0001EF51D8A41200000120EE78
:100B400002F0EB51D926EC51DA22DECFC0F0DDCF36
:100B5000C1F0EDC0C2F00F0E0001C36F43ECA3F073
:100B6000000120EE04F0EB51D926EC51DA22DECF61
:100B7000C0F0DDCFC1F0EDC0C2F00F0E0001C36FB9
:100B800043ECA3F044D0EBC0E4F0ECC0E5F0EDC0E2
:100B9000E6F0030E0001E76F2EEC9FF00001EF6F0F
:100BA0000001EF51D8A41200000120EE02F0EB5139
:100BB000D926EC51DA22DECFC0F0DDCFC1F0EDC096
:100BC000C2F0000E0001C36F43ECA3F0000120EE61
:100BD00004F0EB51D926EC51DA22DECFC0F0DDCFA4
:100BE000C1F0EDC0C2F0000E0001C36F43ECA3F0F2
:100BF0000ED00001EE51000AD8B434D7010AD8B49F
:100C000056D7030AD8B489D7010AD8B4BCD7080E7E
:100C10000001EB250001C46F000E0001EC21000172
:100C2000C56F0001ED51040DF3CFC6F0EEC0C7F063
:100C300005ECA1F0080E0001EB250001C46F000EC9
:100C40000001EC210001C56F0001ED51040DF328F6
:100C50000001C66FEEC0C7F005ECA1F0080E000160
:100C6000EB250001C46F000E0001EC210001C56FEF
:100C70000001ED51040DF350020F0001C66FEEC0EC
:100C8000C7F005ECA1F0080E0001EB250001C46FD0
:100C9000000E0001EC210001C56F0001ED51040DB3
:100CA000F350030F0001C66FEEC0C7F005ECA1F0D2
:100CB0001200050E0001F46F7AD0000120EE02F060
:100CC000EF51D926F051DA22DECFF2F0DDCFF3F08A
:100CD000F2C0D9FFF3C0DAFFFF0E67D0EFC0EBF030
:100CE000F0C0ECF0010E0001ED6F77ECA0F0000118
:100CF000F46F0001F451D8A41200000120EE02F0BC
:100D0000EF51D926F051DA22DECFF2F0DDCFF3F049
:100D1000F2C0D9FFF3C0DAFF000EDF6E000120EE53
:100D200004F036D0EFC0EBF0F0C0ECF0020E0001A2
:100D3000ED6F77ECA0F00001F46F0001F451D8A43E
:100D40001200000120EE02F0EF51D926F051DA2214
:100D5000DECFF2F0DDCFF3F0F2C0D9FFF3C0DAFF5F
:100D6000FF0EDF6E000120EE04F0AAD7EFC0EBF01B
:100D7000F0C0ECF0000E0001ED6F77ECA0F0000188
:100D8000F46F0001F451D8A41200000120EE02F02B
:100D9000EF51D926F051DA22DECFF2F0DDCFF3F0B9
:100DA000F2C0D9FFF3C0DAFF000EDF6E0ED00001F3
:100DB000F151000AD8B481D7010AD8B48FD7030AF9
:100DC000D8B4B0D7010AD8B4D1D7080E0001EF25A6
:100DD0000001C46F000E0001F0210001C56F000E7C
:100DE0000001C66FF1C0C7F005ECA1F0080E0001CC
:100DF000EF250001C46F000E0001F0210001C56F56
:100E0000010E0001C66FF1C0C7F005ECA1F0080E9D
:100E10000001EF250001C46F000E0001F021000168
:100E2000C56F020E0001C66FF1C0C7F005ECA1F05E
:100E3000080E0001EF250001C46F000E0001F02133
:100E40000001C56F030E0001C66FF1C0C7F005ECCD
:100E5000A1F0080E0001EF250001C46F000E000193
:100E6000F0210001C56F040E0001C66FF1C0C7F08C
:100E700005ECA1F0080E0001EF250001C46F000E83
:100E80000001F0210001C56F050E0001C66FF1C021
:100E9000C7F005ECA1F0080E0001EF250001C46FBA
:100EA000000E0001F0210001C56F060E0001C66FA3
:100EB000F1C0C7F005ECA1F0080E0001EF2500011C
:100EC000C46F000E0001F0210001C56F070E000184
:100ED000C66FF1C0C7F005ECA1F012009FEC8EF0D8
:100EE000010ECAECA1F00009D8B40CD0E1EC9AF0E4
:100EF00086EC89F05FEC8FF0FBECA3F00009D8A43E
:100F0000ABECA1F084ECA3F0A6ECA4F00A0EEDEC9F
:100F1000A3F0030E0001B66FE80EB56F9CEC9DF0D8
:100F200009ECA4F065ECA3F0000E0001B66F140EFE
:100F3000B56F9CEC9DF0000E0001CF6FFA0ECE6FE6
:100F400023ECA4F0000E0301DF6F000EDE6F000E35
:100F50000301E16F000EE06F0301E04BE12BE0C302
:100F6000B5F0E1C3B6F0000E0001B86F0A0EB76F1E
:100F700007EC95F00001B5B104D0000EEDECA3F044
:100F800002D009ECA4F026ECA2F08DECA4F0000154
:100F900077510301DE27000178510301DF230001AF
:100FA0008751D8A404D000018851D8B406D0000ECF
:100FB00083ECA4F0000EBFECA0F015EC9CF0010E49
:100FC0004AECA1F00009D8B4C7D7FC0E0001CA6FE3
:100FD000FF0E0001CB6F000E0001CD6F230ECC6F12
:100FE00083EC8AF0A70E0001CA6FFF0E0001CB6FE1
:100FF000DEC3CCF0DFC3CDF087C0CEF00001CF6BF5
:1010000088C0D0F00001D16B83EC8AF0EF0E0001B4
:10101000CA6FFF0E0001CB6F23EE51F001D80AD04A
:101020000500FA6EDE50FD6EDE50FE6EDE50FF6E85
:10103000FA5012000301DD6F0301DD510001CC6F96
:10104000CD6B83EC8AF023EE51F001D80AD0050075
:10105000FA6EDE50FD6EDE50FE6EDE50FF6EFA5010
:1010600012000009D8B440D0000E0301E36F000E57
:10107000E26F2CD0010E0001CF6FF40ECE6F23EC87
:10108000A4F08DECA4F0000177510301E2270001E8
:1010900078510301E323FC0E0001CA6FFF0E00012B
:1010A000CB6F000E0001CD6F230ECC6F83EC8AF066
:1010B000D50E0001CA6FFF0E0001CB6FE2C3CCF06A
:1010C000E3C3CDF083EC8AF07EEC88F00301E3BF4C
:1010D000D1D7890E0301E25D130E0301E359D8A0B5
:1010E000C9D7000EBFECA0F07EEC88F0FBECA3F0BB
:1010F0000009D8B431D7ABECA1F02ED70001FF51D5
:10110000D8B41200D5C3DBF0D6C3DCF0D7C3DDF012
:10111000D8C3DEF000018E51D8B405D08CC0DAF00F
:101120000F0E00018C6F000E0001E06FDFD0000198
:10113000E051020D000EF324D96E030EF420DA6E96
:10114000DECFFDF0DDCFFEF0000E0001DF6F130EED
:101150000001DF6501D0BED00001E051140DAA0EE0
:101160000001D86F040E0001D96FF3500001D82799
:10117000F4500001D9230001DF51010DF3500001AB
:10118000D825D96EF4500001D921DA6EDFAE9AD09D
:101190000001E051140DAA0E0001D86F040E0001E9
:1011A000D96FF3500001D827F4500001D923000172
:1011B000DF51010DF3500001D825D96EF450000124
:1011C000D921DA6E7F0EDF160001E051140DAA0E50
:1011D0000001D86F040E0001D96FF3500001D82729
:1011E000F4500001D9230001DF51010DF35000013B
:1011F000D825D96EF4500001D921DA6EDF50D8B469
:101200004AD081C0BEF082C0BFF0DBC0C0F0DCC0FD
:10121000C1F0DDC0C2F0DEC0C3F0F9C0C4F0FAC056
:10122000C5F0FBC0C6F0FCC0C7F089EC9CF0000123
:10123000E051140DAA0E0001D86F040E0001D96F01
:10124000F3500001D827F4500001D9230001DF51E9
:10125000010DF3500001D825D96EF4500001D921B9
:10126000DA6EDF50DCEC93F0BAC0C7F0BBC0C8F058
:10127000DBC0C9F0DCC0CAF0DDC0CBF0DEC0CCF012
:10128000F9C0CDF0FAC0CEF0FBC0CFF0FCC0D0F07A
:10129000CEEC98F017D0000E0001BF6F000EBE6FAD
:1012A000DBC0C0F0DCC0C1F0DDC0C2F0DEC0C3F006
:1012B000F9C0C4F0FAC0C5F0FBC0C6F0FCC0C7F06E
:1012C00089EC9CF0060E0001DB27000EDC230001F8
:1012D000DF2B3DD7080E0001DD27000EDE23000EB8
:1012E0000001DC6F060EDB6F0001E02B0001E05116
:1012F00000018C5DD8B01BD700018E51D8B412000C
:10130000000E00018E6FDAC08CF012005E0E01013B
:10131000006F030E0101016F000E0101036F020E49
:10132000026FEA0E0101046F490E0101056F010E03
:101330000101066F760E0101076F480E0101086F6B
:10134000010E0101096F040E01010A6F140E010163
:101350000B6F000E01010C6F72EC93F0400E010157
:10136000006F030E0101016F000E0101036F020EF9
:10137000026FEA0E0101046F490E0101056F010EB3
:101380000101066FD60E0101076F480E0101086FBB
:10139000010E0101096F040E01010A6F140E010113
:1013A0000B6F000E01010C6F72EC93F0360E010111
:1013B000006F030E0101016F000E0101036F020EA9
:1013C000026FEA0E0101046F490E0101056F010E63
:1013D0000101066FBE0E0101076F480E0101086F83
:1013E000010E0101096F040E01010A6F140E0101C3
:1013F0000B6F000E01010C6F72EC93F04A0E0101AD
:10140000006F030E0101016F000E0101036F020E58
:10141000026FEA0E0101046F490E0101056F010E12
:101420000101066FA60E0101076F480E0101086F4A
:10143000010E0101096F040E01010A6F140E010172
:101440000B6F000E01010C6F72EC93F0540E010152
:10145000006F030E0101016F000E0101036F020E08
:10146000026FEA0E0101046F490E0101056F010EC2
:101470000101066F8E0E0101076F480E0101086F12
:10148000010E0101096F040E01010A6F140E010122
:101490000B6F000E01010C6F72EC93F0A00E0001B7
:1014A000E26F860EE36F010EE46F000EE56F000E33
:1014B0000001E66F020E0001E76F00EC80F0680E9D
:1014C0000001C46F030E0001C56F4FEC9CF0000ECD
:1014D0000001F16F000EF06F0001F15113E1080EF1
:1014E0000001F05DD8B012002E0E0001F025D96E7B
:1014F000030E0001F121DA6E000EDF6E0001F04BE9
:10150000F12BEAD71200CC0E0001D56F000E0001BE
:10151000D66FC9D0250E0001D919D8B405D0000165
:10152000D9519FECA4F0BFD0000E0001D46F14D0AD
:10153000D5C0D9FFD6C0DAFFDF500001D96F020E47
:101540000001D527000ED6230001D9519FECA4F04D
:10155000AAD00001D48D1ED0CAC0F6FFCBC0F7FFC1
:101560000001CA4BCB2B000EF86E0800F5CFD9F066
:101570000001D951000AD8B41200630AD8B4D8D7F0
:10158000070AD8B407D00D0AD8B404D01C0AD8B4BE
:10159000E0D7DAD70001D4BD19D0D5C0D9FFD6C065
:1015A000DAFFDECFD7F0DDCFD8F0020E0001D5276D
:1015B000000ED6230001D8AF16D0030E0001D413BD
:1015C0000001D76DD81FD8B0D82B0DD0D5C0D9FF0A
:1015D000D6C0DAFFDECFD7F0DDCFD8F0020E0001A3
:1015E000D527000ED623010E0001D96F050E00018C
:1015F000D919D8B419D00001D951020D9F0EF32486
:10160000F66EFD0EF420F76EF86A000EF82209005F
:10161000F5500001D75D0900F5500001D859D8A058
:1016200003D00001D92BE2D7D4C0D2F0030E0001C1
:10163000D217D8B403D02D0E9FECA4F0D9C0D3F0AC
:101640002CD00001D351020D9F0EF324F66EFD0E37
:10165000F420F76EF86A000EF8220900F5CFB7F013
:101660000A00F5CFB8F0D7C0B5F0D8C0B6F064EC3A
:101670009BF0B5C0BCF0B6C0BDF0000E0001BF6F5E
:101680000A0EBE6FCFEC9EF00001BC51300F00017E
:10169000D96F0001D9519FECA4F00001D3070001DC
:1016A000D329D8A4CED7CAC0F6FFCBC0F7FF00011C
:1016B000CA4BCB2B000EF86E0800F5CFD9F0000115
:1016C000D951D8B4120026D7DBC0D9FFDCC0DAFF6D
:1016D000DECFE0F0DDCFE1F0050E0001DF6FB5D029
:1016E000000120EE02F0DB51D926DC51DA22DECFF8
:1016F000B5F0DDCFB6F0DDC0B7F0010E0001B86F78
:101700006CEC9EF0B0D0E0C0C4F0E1C0C5F0010EBA
:101710000001C66FDDC0C7F026EC9BF00001DF6F53
:101720000001DF51D8A41200000120EE02F0DB51CD
:10173000D926DC51DA22DECFB5F0DDCFB6F0DDC040
:10174000B7F0000E0001B86F6CEC9EF0000120EEC7
:1017500004F0DB51D926DC51DA22DECFB5F0DDCF43
:10176000B6F0DDC0B7F0000E0001B86F6CEC9EF073
:101770007AD0E0C0C4F0E1C0C5F0020E0001C66F2F
:10178000DDC0C7F026EC9BF00001DF6F0001DF51E8
:10179000D8A41200000120EE02F0DB51D926DC5162
:1017A000DA22DECFB5F0DDCFB6F0DDC0B7F0010E46
:1017B0000001B86F6CEC9EF0000120EE04F0DB51EC
:1017C000D926DC51DA22DECFB5F0DDCFB6F0DDC0B0
:1017D000B7F0010E0001B86F6CEC9EF044D0E0C091
:1017E000C4F0E1C0C5F0000E0001C66FDDC0C7F057
:1017F00026EC9BF00001DF6F0001DF51D8A412003E
:10180000000120EE02F0DB51D926DC51DA22DECFD6
:10181000B5F0DDCFB6F0DDC0B7F0000E0001B86F57
:101820006CEC9EF0000120EE04F0DB51D926DC5177
:10183000DA22DECFB5F0DDCFB6F0DDC0B7F0000EB6
:101840000001B86F6CEC9EF00ED00001DE51000A72
:10185000D8B446D7010AD8B456D7030AD8B489D722
:10186000010AD8B4BCD7080E0001DB250001C46F03
:10187000000E0001DC210001C56FDDC0C6F0DEC036
:10188000C7F005ECA1F012000001C86FB1D020EC48
:1018900099F0120000EC9FF012009AEC9AF01200FE
:1018A000A6EC94F0120039EC9EF0120075ECA3F057
:1018B0001200C8C0C5F07F0E0001C51700018C5191
:1018C000140DAA0E0001C66F040E0001C76FF3507D
:1018D0000001C627F4500001C72300018D51010DFE
:1018E000F3500001C625D96EF4500001C721DA6E0D
:1018F000DF507F0B0001C519D8B42ED0010E0001B6
:10190000FF6F00018C51140DAA0E0001C56F040E6B
:101910000001C66FF3500001C527F4500001C62333
:1019200000018D51010DF3500001C525D96EF45011
:101930000001C621DA6E0001C8518009DF6E000186
:101940008C51020D000EF324D96E030EF420DA6ED2
:10195000FDC0DEFFFEC0DDFF39EC9EF00009D8B40B
:101960001200C8C0C5F07F0E0001C51700018C51E0
:10197000140DAA0E0001C66F040E0001C76FF350CC
:101980000001C627F4500001C72300018D51010D4D
:10199000F3500001C625D96EF4500001C721DA6E5C
:1019A000DF507F0B0001C519D8B41200010E0001F1
:1019B000FF6F00018C51140DAA0E0001C56F040EBB
:1019C0000001C66FF3500001C527F4500001C62383
:1019D00000018D51010DF3500001C525D96EF45061
:1019E0000001C621DA6E0001C8518009DF6E1200C5
:1019F0000001C851070AD8B456D70F0AD8B44AD73D
:101A0000010AD8B44DD7030AD8B441D7060AD8B4CE
:101A100044D7010AD8B43BD72D0AD8B44AD7030A11
:101A2000D8B444D746D70001F75128EC98F0F5C058
:101A3000D9FFF6C0DAFF0001B5C0DEFF0001B6C075
:101A4000DDFF0001F7517BEC98F0000120EE06F07D
:101A5000F551D926F651DA220001B5C0DEFF0001AA
:101A6000B6C0DDFF0001F7517BEC98F0000120EEDD
:101A700004F0F551D926F651DA220001B5C0DEFF97
:101A80000001B6C0DDFF0001F751D5EC97F0000171
:101A900020EE02F0F551D926F651DA220001B5C048
:101AA000DEFF0001B6C0DDFF000120EE04F0F551BD
:101AB000D926F651DA22DECF00F1DDCF01F100C1E7
:101AC000D9FF01C1DAFF000EDF6E000120EE02F047
:101AD000F551D926F651DA22DECF00F1DDCF01F142
:101AE00000C1D9FF01C1DAFFFF0EDF6EF5C0EFF0D4
:101AF000F6C0F0F0000E0001F16F59EC86F0000E18
:101B00000001F86F070E0001F86531D04BD0F5C029
:101B1000DBF0F6C0DCF0F8C0DDF0030E0001DE6F94
:101B200064EC8BF03CD0F5C0DBF0F6C0DCF0F8C024
:101B3000DDF0020E0001DE6F64EC8BF030D0F5C0FA
:101B4000DBF0F6C0DCF0F8C0DDF0010E0001DE6F66
:101B500064EC8BF024D0F5C0DBF0F6C0DCF0F8C00C
:101B6000DDF0000E0001DE6F64EC8BF018D0F5C0E4
:101B7000D9FFF6C0DAFFDECFC1F0DDCFC2F0F8C08A
:101B8000C3F0E9ECA1F0000AD8B4C1D7010AD8B477
:101B9000D6D7030AD8B4C7D7010AD8B4DCD7000116
:101BA000F82BB0D7F5C0C4F0F6C0C5F0000E0001A8
:101BB000C66F0FEC82F012000001CD6F000E000125
:101BC000CC6F000E0001D06FBB0E0001CA6F000E7B
:101BD0000001CB6F950EADECA4F00001CD51ADEC42
:101BE000A4F0000E0001D16F23D0CAC0D9FFCBC032
:101BF000DAFFDF500001CE6F020E0001CA27000E8F
:101C0000CB230001CE5106EC9EF00001CC27000151
:101C1000D151010D000EF324D96E020EF420DA6EBC
:101C2000CEC0DFFF0001CE51ADECA4F00001D12BFE
:101C30000001CD510001D15DD8A0D7D7000E000121
:101C4000D16F0ED00001D151010D000EF324D96ED9
:101C5000010EF420DA6EE3ECA4F0DF6E0001D12B6C
:101C60000001CC510001D15DD8A0ECD7000E0001DD
:101C7000D16F5ED0D0C0CFF021D00001CF51010D87
:101C8000000EF324D96E010EF420DA6EDF5000014D
:101C9000B66F0001D05100080001CF250001B76FD9
:101CA0000001D151010D000EF324D96E020EF42073
:101CB000DA6EDF508EEC92F00001CF2B0001D15193
:101CC000010D000EF324D96E020EF420DA6EDF50FF
:101CD00006EC9EF00001C56FC66B0001D0510001FB
:101CE000C527000EC6230001CF510001C76FC86B86
:101CF0000001C5510001C75D0001C851800A000103
:101D0000C96F0001C651800A0001C959D8A0B5D7D2
:101D10000001D151010D000EF324D96E020EF42002
:101D2000DA6EDF5006EC9EF00001D0270001D12BC7
:101D30000001CD510001D15DD8B012009BD7010E3A
:101D40004B6E000E00016F6F000E0001706F000EF1
:101D50000001716FA60E0001F56F030E0001F66F12
:101D6000000E0001F76F13EC8DF09C0E0001F56F73
:101D7000030E0001F66F010E0001F76F13EC8DF0FA
:101D8000A30E0001F56F000E0001F66F020E0001B8
:101D9000F76F13EC8DF0990E0001F56F000E000146
:101DA000F66F030E0001F76F13EC8DF08F0E00013C
:101DB000F56F000E0001F66F040E0001F76F13ECD3
:101DC0008DF0B00E0001F56F030E0001F66F050EE9
:101DD0000001F76F13EC8DF0920E0001F56F030E0A
:101DE0000001F66F060E0001F76F13EC8DF0B00ED8
:101DF0000001DB6F030E0001DC6F050E0001DD6FDB
:101E0000000E0001DE6F64EC8BF09C0E0001EB6FA6
:101E1000030E0001EC6F000E0001ED6F000E0001DB
:101E2000EE6F2EEC85F0B00E0001DB6F030E0001AB
:101E3000DC6F060E0001DD6F030E0001DE6F64EC47
:101E40008BF0920E0001EF6F030E0001F06F030E96
:101E50000001F16F59EC86F0920E0001C46F030E81
:101E60000001C56F040E0001C66F000E0001C76FB0
:101E700044EC94F0B00E0001C46F030E0001C56F76
:101E8000060E0001C66F010E0001C76F44EC94F00E
:101E9000000E9EEC9EF0010E9EEC9EF0000E9E6EDB
:101EA000000EA16E000EA46E9B8E9B8C000E000196
:101EB000B66F640EB56F9CEC9DF0D08E1200C3EC33
:101EC0009CF0000E0001ED6F000EEC6F0001ED5173
:101ED00006E1590E0001EC5DD8B08BD001D089D05D
:101EE000D8900001EC35F66E0001ED35F76ECD0EA1
:101EF000F626FC0EF722F86A000EF8220900800E82
:101F0000F5180900F510D8A422D00001ED511FE109
:101F1000580E0001EC5DD8B01AD00001EC4BED2B4F
:101F2000D8900001EC35F66E0001ED35F76ECD0E60
:101F3000F626FC0EF722F86A000EF8220900F5CF0B
:101F4000B5F00A00F5CFB6F09CEC9DF04BD0D890E0
:101F50000001EC35F66E0001ED35F76ECD0EF6267C
:101F6000FC0EF722F86A000EF8220900000EF55E5A
:101F70000900010EF55AD8A020D0000E0001B86F5C
:101F8000D8900001EC35F66E0001ED35F76ECD0E00
:101F9000F626FC0EF722F86A000EF8220900F5CFAB
:101FA000EAF00900F5CFEBF0EBC0EAF00001EB6BD3
:101FB0000001EA5154ECA3F015D0010E0001B86FF6
:101FC000D8900001EC35F66E0001ED35F76ECD0EC0
:101FD000F626FC0EF722F86A000EF8220800F550EB
:101FE00054ECA3F00001EC4BED2B0001ED5101E1AD
:101FF00070D7000E0001B66F640EB56F9CEC9DF0BB
:10200000000E0001B86F290E54ECA3F0010EBFECD6
:1020100099F0000E0001B66F640EB56F9CEC9DF058
:10202000000E0001BF6F000EBE6F87EC9FF0120024
:10203000000120EE07F0D051D926D151DA2201D883
:102040000AD00500FA6EDE50FD6EDE50FE6EDE50E8
:10205000FF6EFA5012000001D86FD0C0D9FFD1C076
:10206000DAFF0001D851DE18D8A421D0000120EEFB
:1020700001F0D051D926D151DA220001D251DE5CD3
:10208000D8B00AD0000120EE01F0D051D926D151AC
:10209000DA22000EDF6E1200000120EE01F0D051B6
:1020A000D926D151DA220001D251DF5E120000019F
:1020B00020EE01F0D051D926D151DA22DF500001B3
:1020C000D36FD46B0001D2510001D327000ED4236B
:1020D000000120EE01F0D051D926D151DA22DF5093
:1020E0000001D56FD66B0001D3510001D55D000111
:1020F000D651800A0001D76F0001D451800A000137
:10210000D759D8B01200000120EE01F0D051D926E5
:10211000D151DA220001D251DF26000120EE02F077
:10212000D051D926D151DA22000110EE01F0D05160
:10213000E126D151E222E7500001D56FD66BDE5087
:102140000001D55DDE500001D659D8A01200D0C0E4
:10215000D9FFD1C0DAFFD8C0DFFF000120EE01F0C7
:10216000D051D926D151DA22000EDF6E000120EEC7
:1021700004F0D051D926D151DA2201D8120005003D
:10218000FA6EDE50FD6EDE50FE6EDE50FF6EFA50CF
:102190000001D8511200000E0001CB6F6C0ECC6F05
:1021A000DC0ECD6F020ECE6F0001D890C237C33760
:1021B000C437C537020E0001C66FD8900001CE3378
:1021C000CD33CC33CB330001C62FF7D7CBC0B5F01E
:1021D000CCC0B6F0CDC0B7F0CEC0B8F0C2C0B9F038
:1021E000C3C0BAF0C4C0BBF0C5C0BCF066EC95F08B
:1021F000B5C0CFF0B6C0D0F0B7C0D1F0B8C0D2F003
:1022000010D0000E0001C76F000EC86F000EC96F1E
:10221000000ECA6F00018B2B020E00018B6501D0EE
:1022200026D0CFC0B5F0D0C0B6F0D1C0B7F0D2C084
:10223000B8F000018B51010DB60EF324F66EFD0EC1
:10224000F420F76EF86A000EF8220800F55000013D
:10225000B96FBA6BBB6BBC6B66EC95F00001B85103
:102260000001B711CEE10001B605D8B0CAD7CA50F7
:1022700000018B19FC0B8B19CA6ECA84E7ECA4F021
:1022800000018B51010DB60EF324F66EFD0EF42005
:10229000F76EF86A000EF8220800F5CF8AF0FF0EFC
:1022A0000001CF2503011E6FFF0E0001D0210301A5
:1022B0001F6FFF0E0001D1210301206FFF0E0001EF
:1022C000D2210301216F1EC3B5F01FC3B6F020C396
:1022D000B7F021C3B8F000018A510001B96FBA6BA1
:1022E000BB6BBC6B66EC95F00001B55100018B6FC8
:1022F0008BC0CBFF120051B20EEF92F0000120EE26
:1023000004F07D51D9267E51DA22DF504AECA1F04B
:102310000009D8B47AD07DC0D9FF7EC0DAFFDE5084
:10232000DE10D8B46DD07DC0D9FF7EC0DAFF010EBB
:10233000DBBE26D0010EDB5003E1DE04D8A020D0A6
:102340007DC0D9FF7EC0DAFFDE2804E17F0EDE18F3
:10235000D8B407D07DC0D9FF7EC0DAFFDE06000EFC
:10236000DD5A8F0E0001C46F000E0001C56F000E14
:102370000001C66F010E0001C76F44EC94F01FD03E
:102380007DC0D9FF7EC0DAFFDE0404E1800EDE18D6
:10239000D8B407D07DC0D9FF7EC0DAFFDE2A000E98
:1023A000DD228F0E0001C46F000E0001C56F000E0C
:1023B0000001C66F000E0001C76F44EC94F08F0E51
:1023C0000001C46F000E0001C56F010E0001C66F51
:1023D000010E0001C76F44EC94F08F0E0001C46F32
:1023E000000E0001C56F010E0001C66F000E000156
:1023F000C76F44EC94F0FBECA3F0C9ECA4F012001E
:10240000FBECA3F0EFECA4F0120072C0B5F073C0C7
:10241000B6F074C0B7F0BBECA4F01200000120EEDF
:1024200004F07D51D9267E51DA22DF505EECA2F015
:102430000009D8B46AD07DC0D9FF7EC0DAFFDE5073
:10244000DE10D8B45DD07DC0D9FF7EC0DAFF010EAA
:10245000DBBE22D0010EDB5003E1DE04D8A01CD08D
:102460007DC0D9FF7EC0DAFFDE2804E17F0EDE18D2
:10247000D8B407D07DC0D9FF7EC0DAFFDE06000EDB
:10248000DD5A8F0E106E000E116E000E126E010ED0
:10249000136E80EC97F01BD07DC0D9FF7EC0DAFFB1
:1024A000DE0404E1800EDE18D8B407D07DC0D9FF69
:1024B0007EC0DAFFDE2A000EDD228F0E106E000EC7
:1024C000116E000E126E000E136E80EC97F08F0EE0
:1024D000106E000E116E010E126E010E136E80EC66
:1024E00097F08F0E106E000E116E010E126E000E20
:1024F000136E80EC97F0FBECA4F0CFECA4F012008C
:10250000FBECA4F0F8ECA4F0120072C001F073C070
:1025100002F074C003F0C2ECA4F012000001BA6F24
:1025200057D0B6C034F053EC9AF01200B6C033F076
:102530001200B6C032F01200B6C031F01200B6C0C0
:1025400030F01200B6C02FF01200B6C02EF012000C
:102550000001B7510001D8A405D0B6C064F0000155
:10256000656B1200B6C066F00001676B0001645134
:102570000001B96FB86B000166510001B825000178
:10258000776F000167510001B9210001786F1200D7
:102590000001B7510001D8A405D0B6C060F0000119
:1025A000616B1200B6C062F00001636B0001605104
:1025B0000001B96FB86B000162510001B82500013C
:1025C000756F000163510001B9210001766F12009F
:1025D0000001BA51070AD8B4A4D70F0AD8B4A6D7B5
:1025E000010AD8B4A6D7030AD8B4A6D7010AD8B42A
:1025F000A6D7070AD8B4A6D7010AD8B4A6D71E0A08
:10260000D8B4A6D7070AD8A41200C2D7C1C0C9F04F
:10261000C2C0CAF0000E0001C86F000EC76FC3C071
:10262000C5F0C4C0C6F00001C9510001CA11D8A448
:1026300034D0C5C0D9FFC6C0DAFF300EDF6E000E41
:102640000001C86F010EC76F40D0C9C0BCF0CAC03E
:10265000BDF0000E0001BF6F0A0EBE6FCFEC9EF002
:102660000001BC51300FC5C0D9FFC6C0DAFFDF6E14
:10267000C9C0B5F0CAC0B6F0000E0001B86F0A0EAE
:10268000B76F64EC9BF0B5C0C9F0B6C0CAF00001EA
:10269000C74BC82B0001C54BC62B0001C951000117
:1026A000CA11D8B408D00001C85105E1060E0001D6
:1026B000C75DD8A0CAD7C3C0B5F0C4C0B6F0C7C004
:1026C000B7F0C8C0B8F0FBEC9CF00001C7510001A6
:1026D000C325D96E0001C8510001C421DA6E000E75
:1026E000DF6E12000101005101010111D8B4120086
:1026F000010104510101051101010611D8B41200B4
:10270000010107510101081101010911D8B412009A
:1027100001010A5101010B1101010C11D8B4120081
:102720000101025101010311D8A405D0000E0101DD
:10273000036F010E026F00C1D9FF01C1DAFF000E65
:10274000DF6E010120EE01F00051D9260151DA229D
:10275000000EDF6E010120EE02F00051D92601517A
:10276000DA2202C1DEFF03C1DDFF010120EE04F029
:102770000051D9260151DA220AC1DEFF0BC1DEFF6A
:102780000CC1DEFF010120EE07F00051D9260151F6
:10279000DA2207C1DEFF08C1DEFF09C1DEFF01D872
:1027A00012000500FA6E01010451FD6E0551FE6E26
:1027B0000651FF6EFA5012000001C06F200E00019A
:1027C000C05F0001C051050DF3CFBEF0F4CFBFF0E4
:1027D000B90E0001BE250001C16FFD0E0001BF2131
:1027E0000001C26F000E0001C56F040E0001C56537
:1027F00001D043D0000E0001C66F060E0001C66571
:1028000001D035D0C1C0B5F0C2C0B6F0C6C0B7F077
:1028100079ECA2F00009D8A405D081C0C3F082C031
:10282000C4F004D0FDC0C3F0FEC0C4F00001C65126
:102830000A0D640E0001BC6F040E0001BD6FF35061
:102840000001BC27F4500001BD230001C551020D59
:10285000F3500001BC25D96EF4500001BD21DA6EA1
:10286000C3C0DEFFC4C0DDFF0001C62BC6D7000118
:10287000C14BC22B0001C52BB8D7640E0001BA6F43
:10288000040E0001BB6F1200080E0001C4250001F8
:10289000C16F000E0001C5210001C26FC6C0C3F0A8
:1028A000E9ECA1F00001C86F42D0010E0001C7178A
:1028B000000120EE02F0C451D926C551DA22DECF44
:1028C000B5F0DDCFB6F0C6C0B7F0C7C0B8F06CEC5D
:1028D0009EF01200010E0001C717010E0001C71B78
:1028E000000120EE02F0C451D926C551DA22DECF14
:1028F000B5F0DDCFB6F0C6C0B7F0C7C0B8F06CEC2D
:102900009EF01200010E0001C717000120EE04F036
:10291000C451D926C551DA22DECFB5F0DDCFB6F0ED
:10292000C6C0B7F0C7C0B8F06CEC9EF01200000152
:10293000C851000AD8B41200010AD8B4B6D7030AA5
:10294000D8B4C8D7010AD8A41200DCD7000E000101
:10295000C36FFA0E47240001B56FFF0E4820000137
:10296000B66F000E0001B86F060EB76F07EC95F05A
:102970000001B5510001C46FC4C0B5F00001B66BD1
:10298000000E0001B86F040EB76F07EC95F0000160
:10299000B5510001C26F000E0001C36F06D06BEC91
:1029A000A1F039EC9EF00001C32B0001C251040DCF
:1029B000F31EF41EF34AF42A0001C4510001BD6F56
:1029C000BE6BF3500001BD27F4500001BE2300018F
:1029D000BD1FBE1FBD4BBE2B040E0001BD27000E48
:1029E000BE230001C3510001BF6FC06B0001BD5188
:1029F0000001BF5D0001C051800A0001C16F0001EC
:102A0000BE51800A0001C159D8B01200C8D7000ECB
:102A10000001BA6F0001B8AF08D00001B76DB81F50
:102A2000D8B0B82B010E0001BA6F0001B6AF08D0C4
:102A30000001B56DB61FD8B0B62B010E0001BA1B50
:102A4000000E0001BC6F000EBB6F0001B75100010A
:102A5000B811D8B42CD0010E0001B96F06D0000116
:102A6000D890B737B8370001B92B0001B8AFF7D706
:102A70000001D890BB37BC370001B7510001B55DEC
:102A80000001B8510001B659D8A00AD00001B751D1
:102A90000001B55F0001B8510001B65B0001BB81C8
:102AA0000001D890B833B7330001B92FE1D7000146
:102AB000BA510001D8B405D00001BB6DBC1FD8B01D
:102AC000BC2BBBC0B5F0BCC0B6F01200000E0001BC
:102AD000BD6F000EBE6F000EBF6F000EC06F000115
:102AE000B9510001BA110001BB110001BC11D8B4E9
:102AF00042D0010E0001C16F08D00001D890B93753
:102B0000BA37BB37BC370001C12B0001BCAFF5D7CA
:102B10000001D890BD37BE37BF37C0370001B9516B
:102B20000001B55D0001BA510001B6590001BB5169
:102B30000001B7590001BC510001B859D8A012D00A
:102B40000001B9510001B55F0001BA510001B65B47
:102B50000001BB510001B75B0001BC510001B85B33
:102B60000001BD810001D890BC33BB33BA33B93307
:102B70000001C12FCDD7BDC0B5F0BEC0B6F0BFC0FB
:102B8000B7F0C0C0B8F01200000E0001BA6F000E1E
:102B9000B96F38D02E0E0001B925D96E030E000191
:102BA000BA21DA6EB6C0E1FFB7C0E2FFE750ECEC45
:102BB00083F0DF6E2E0E0001B925D96E030E0001E1
:102BC000BA21DA6E800EDE18D8A40ED00001B90743
:102BD000D8A0BA072E0E0001B925D96E030E000148
:102BE000BA21DA6E000EDB8E0001B64BB72B000166
:102BF000B94BBA2B0001BA511AE1060E0001B95DBA
:102C0000D8B015D0B6C0D9FFB7C0DAFFDF50D8B4FE
:102C10000ED0C0D72E0E0001B925D96E030E0001CB
:102C2000BA21DA6E000EDF6E0001B94BBA2B00013B
:102C3000BA5106E1060E0001B95DD8B01200EAD71C
:102C400012000001B951010DA90EF324F66EFD0E1C
:102C5000F420F76EF86A000EF8220800F5CFBFF0F6
:102C6000000E0001BE6F06D00001B7510001B85F31
:102C70000001BE2B0001B7510001B85DD8B0F4D7F8
:102C80000001B9510001B803F350B86F0001BE5103
:102C90000001B8270001BF510001BA17B8C0BBF04E
:102CA000BFC0BCF00001BB2B03D00001D890BC37E3
:102CB0000001BB2FFAD70001BC51FF0A0001BD6F14
:102CC000B5C0D9FFB6C0DAFF0001BD51DF16B8C0EC
:102CD000BBF0BAC0BCF00001BB2B03D00001D89000
:102CE000BC370001BB2FFAD7B5C0D9FFB6C0DAFF99
:102CF0000001BC51DF1212000001CD6FC5C0B5F05C
:102D0000C6C0B6F028ECA1F0B5C0C5F0B6C0C6F09C
:102D1000C7C0B5F0C8C0B6F028ECA1F0B5C0C7F088
:102D2000B6C0C8F00001CD510001D8B429D0000EC2
:102D30000001B66F890EB56FC6C0C9F00001CA6B3D
:102D4000C9BFCA690001C9510001B76FB86B000162
:102D5000C5510001B96FBA6BC8C0CBF00001CC6B94
:102D6000CBBFCC690001CB510001BB6FBC6B000134
:102D7000C7510001BD6FBE6B050E67EC9DF01200E0
:102D8000890EADECA4F00001C651ADECA4F0000139
:102D9000C551ADECA4F00001C851ADECA4F00001A8
:102DA000C751ADECA4F01200BE0EF66E490EF76EE0
:102DB000010EF86E03EED5F010EE08F00900F5CF25
:102DC000EEFFE550E150FAE1D60EF66E490EF76ED1
:102DD000010EF86E00EEF9F010EE07F00900F5CFE5
:102DE000EEFFE550E150FAE1AA0EF66E490EF76EDD
:102DF000010EF86E00EE47F010EE0AF00900F5CF74
:102E0000EEFFE550E150FAE104EEAAF011EE2CF0ED
:102E1000EE6AE550E150FCE1E250FAE104EE00F028
:102E2000AA0EEE6AE806FDE103EE00F0D50EEE6AAA
:102E3000E806FDE100EE60F0550EEE6AE806FDE101
:102E400000EE29F01E0EEE6AE806FDE15190519267
:102E500000016EEF87F00001BD6F020E0001BA277E
:102E6000020E0001BC27030E0001BD27030E000166
:102E7000BB27000E0001B86F2A0E54ECA3F0010E20
:102E80000001B86F000E54ECA3F0010E0001B86F02
:102E90000001BD5154ECA3F0010E0001B86F000E0B
:102EA00054ECA3F0010E0001B86F0001BB5154ECCB
:102EB000A3F0000E0001B86F2B0E54ECA3F0010E2E
:102EC0000001B86F000E54ECA3F0010E0001B86FC2
:102ED0000001BA5154ECA3F0010E0001B86F000ECE
:102EE00054ECA3F0010E0001B86F0001BC5154EC8A
:102EF000A3F0000E0001B86F2C0E54ECA3F01200EA
:102F0000080E10240D6E000E11200E6E12C00FF070
:102F1000C3ECA2F0146E3BD0010E131620EE02F0AB
:102F20001050D9261150DA22DECF01F0DDCF02F0A9
:102F300012C003F013C004F02CECA0F01200010E3C
:102F40001316010E131A20EE02F01050D92611505C
:102F5000DA22DECF01F0DDCF02F012C003F013C0A1
:102F600004F02CECA0F01200010E131620EE04F079
:102F70001050D9261150DA22DECF01F0DDCF02F059
:102F800012C003F013C004F02CECA0F01200145097
:102F9000000AD8B41200010AD8B4BED7030AD8B4C4
:102FA000CED7010AD8A41200DFD70001B76F38D0FE
:102FB000920E0001B56F0F0E0001B66F1200930E56
:102FC0000001B56F0F0E0001B66F1200940E0001E4
:102FD000B56F0F0E0001B66F1200950E0001B56FB0
:102FE0000F0E0001B66F1200960E0001B56F0F0EA6
:102FF0000001B66F1200970E0001B56F0F0E0001B1
:10300000B66F1200980E0001B56F0F0E0001B66F7B
:103010001200000E0001B56F000E0001B66F120025
:103020000001B751000AD8B4C3D7010AD8B4C7D732
:10303000030AD8B4CBD7010AD8B4CFD7070AD8B47B
:10304000D3D7010AD8B4D7D7030AD8B4DBD7E1D78E
:103050000001B76F38D0A50E0001B56FFF0E00015B
:10306000B66F1200A30E0001B56FFF0E0001B66F20
:103070001200A10E0001B56FFF0E0001B66F120025
:103080009F0E0001B56FFF0E0001B66F12009D0E7E
:103090000001B56FFF0E0001B66F12009B0E00011C
:1030A000B56FFF0E0001B66F1200990E0001B56FEB
:1030B000FF0E0001B66F1200000E0001B56F000E8A
:1030C0000001B66F12000001B751000AD8B4C3D78F
:1030D000010AD8B4C7D7030AD8B4CBD7010AD8B4E9
:1030E000CFD7070AD8B4D3D7010AD8B4D7D7030AA1
:1030F000D8B4DBD7E1D70001B76F38D0800E00011C
:10310000B56F0F0E0001B66F1200810E0001B56F92
:103110000F0E0001B66F1200820E0001B56F0F0E88
:103120000001B66F1200830E0001B56F0F0E000193
:10313000B66F1200840E0001B56F0F0E0001B66F5E
:103140001200850E0001B56F0F0E0001B66F120060
:10315000860E0001B56F0F0E0001B66F1200000E53
:103160000001B56F000E0001B66F12000001B751EB
:10317000000AD8B4C3D7010AD8B4C7D7030AD8B451
:10318000CBD7010AD8B4CFD7070AD8B4D3D7010A0E
:10319000D8B4D7D7030AD8B4DBD7E1D7000E0001E3
:1031A000D76F0001C9510001CD250001D56F000185
:1031B000CB510001CF250001D66FCFC0B5F0D0C0F4
:1031C000B6F0CDC0B7F0CEC0B8F043ECA2F0B5C0B9
:1031D000D3F0B6C0D4F0CBC0BAF00001D5050001E1
:1031E000BB6F0001D6050001BC6F0001C9512BEC7B
:1031F00097F0000E0001D76F13D00001D751020DD8
:10320000F3500001C725D96EF4500001C821DA6ED1
:10321000DECFBAF0DDCFBBF0DEECA3F00001D72BA0
:103220000001D7510001D16FD26B0001D3510001D1
:10323000D15D0001D4510001D259D8B01200DDD7C0
:103240003ED000018C51140DAA0E0001B56F040E82
:103250000001B66FF3500001B527F4500001B6230A
:1032600000018D51010DF3500001B525D96EF450C8
:103270000001B621DA6EDF50D8B41FD0010E000174
:10328000FF6F00018C51140DAA0E0001B56F040EE2
:103290000001B66FF3500001B527F4500001B623CA
:1032A00000018D51010DF3500001B525D96EF45088
:1032B0000001B621DA6E800EDF6E00018D2B130E39
:1032C00000018D65BED7000E00018D6F00018C2BB3
:1032D000080E4926000E4A22000E486E060E476E62
:1032E0001200B5C0F6FFB6C0F7FF000EF86E0F0E65
:1032F000F76403D00800F55005D0F6CFE9FFF7CF0B
:10330000EAFFEF500001BD6F0001B951010DA90E98
:10331000F324F66EFD0EF420F76EF86A000EF82224
:103320000800F5CFBBF0000E0001BC6F06D0000115
:10333000B7510001B85F0001BC2B0001B75100017B
:10334000B85DD8B0F4D70001B9510001B803F3500B
:10335000B86F0001BC510001B8270001B829000175
:10336000BA6F03D00001D890BD330001BA2FFAD74D
:103370000001BB510001BD170001BD511200000149
:10338000BA6F000E0001BB6F000E0001B86F360E61
:1033900054ECA3F00001BA51030B0001BB6F2CD019
:1033A000010E0001B86FC80E54ECA3F0800E506EF1
:1033B000800E4F6E1200010E0001B86FA80E54EC83
:1033C000A3F0800E506E800E4F6E1200010E0001B1
:1033D000B86F080E54ECA3F0800E506E800E4F6E46
:1033E0001200010E0001B86F680E54ECA3F0800EBD
:1033F000506E800E4F6E12000001BB51000AD8B40F
:10340000CFD7010AD8B4D7D7030AD8B4DFD7010A77
:10341000D8A41200E6D70001BB6FB20EF66EFD0E07
:10342000F76E000EF86E0900F5CFB7F00900F5CF82
:10343000B8F00900F5CFB9F00A00F5CFBAF0110ED7
:103440000001BC6F030E0001BB170001BB51010D51
:10345000B70EF324D96E000EF420DA6EDF500001AF
:10346000B56FBCC0B6F00001B52B03D00001D890F9
:10347000B6370001B52FFAD70001B6510001BC6F75
:103480000001BC390F0B0001BC6F0001BC510F0BD8
:103490000001BC6F030134510001BC19F00BBC19D1
:1034A0000301346F120034A002D0010E01D0000ECF
:1034B0000001886F34C0B5F00001D890B533000129
:1034C000B5A102D0010E01D0000E0001876F34C0FB
:1034D000B5F00001D890B5330001D890B5330001A4
:1034E000B5A102D0010E01D0000E2D6E34C0B5F092
:1034F0000001D890B5330001D890B5330001D890C1
:10350000B5330001B5A102D0010E01D0000E0001BB
:10351000866F34C0B5F00001B53B0F0EB517000142
:10352000B5A104D0010E0001856F1200000E00014C
:10353000856F1200000E00018D6F000E00018C6F70
:10354000000E0001B86F0E0E0001B86501D02DD03D
:10355000000E0001B76F130E0001B76501D022D035
:10356000010E0001FF6F0001B851140DAA0E0001F9
:10357000B56F040E0001B66FF3500001B527F4508B
:103580000001B6230001B751010DF3500001B5252C
:10359000D96EF4500001B621DA6E800EDF6E0001A4
:1035A000B72BD9D70001B82BCED7010E00018E6FF3
:1035B000000E486E060E476E000E4A6E060E496EED
:1035C0001200000E00018D6F000E00018C6F000EC6
:1035D0000001B76F130E0001B76501D01200000E95
:1035E0000001B86F0E0E0001B86501D02CD00001AB
:1035F000B851140DAA0E0001B56F040E0001B66F8C
:10360000F3500001B527F4500001B6230001B75173
:10361000010DF3500001B525D96EF4500001B6211B
:10362000DA6E000EDF6E0001B851020D000EF324B9
:10363000D96E030EF420DA6EFF0EDE6EFF0EDD6E25
:103640000001B82BCFD70001B72BC4D78F0EF66E71
:10365000FD0EF76E000EF86E20EECAF00F0E090098
:10366000F5CFDEFFE806FBE2C4C0C1F0C5C0C2F082
:10367000C7C0C3F0E9ECA1F00001DA6F040E00014D
:10368000C66120D0040E0001DA611CD00001C651D1
:10369000040DCA0E0001C86F000E0001C96FF3507F
:1036A0000001C827F4500001C9230001DA51010DBF
:1036B000F3500001C825D96EF4500001C921DA6E1B
:1036C000DF501200050E1200000E0001BB6F000E4D
:1036D000BA6F0001B7510001B811D8B42CD0010E57
:1036E0000001B96F06D00001D890B737B837000194
:1036F000B92B0001B8AFF7D70001D890BA37BB3764
:103700000001B7510001B55D0001B8510001B65983
:10371000D8A00AD00001B7510001B55F0001B8512F
:103720000001B65B0001BA810001D890B833B7330D
:103730000001B92FE1D7BAC0B5F0BBC0B6F0120096
:1037400001C0F6FF02C0F7FF000EF86E0F0EF7641F
:1037500003D00800F55005D0F6CFE9FFF7CFEAFF18
:10376000EF50096E0550010DA90EF324F66EFD0E03
:10377000F420F76EF86A000EF8220800F5CF07F083
:10378000000E086E03D00350045E082A0350045C48
:10379000D8B0F9D705500402F350046E085004263F
:1037A0000428066E02D0D8900932062EFCD70750A6
:1037B000091609501200000120EE06F0C451D92666
:1037C000C551DA22DECFB5F0DDCFB6F0050E00012F
:1037D000B76F000E0001B86F6CEC9EF0000120EE98
:1037E00006F0C451D926C551DA22DECFC0F0DDCFB4
:1037F000C1F0000E0001C26F000E0001C36F43EC68
:10380000A3F0000120EE06F0C451D926C551DA22FA
:10381000DECFB5F0DDCFB6F0050E0001B76F010EBB
:103820000001B86F6CEC9EF01200FC0E966E5E0EFE
:103830000001D06F030E0001D16F010E0001D26FA5
:1038400018EC90F0400E0001D06F030E0001D16F14
:10385000010E0001D26F18EC90F0360E0001D06F0F
:10386000030E0001D16F010E0001D26F18EC90F031
:103870004A0E0001D06F030E0001D16F010E00014E
:10388000D26F18EC90F0540E0001D06F030E0001BF
:10389000D16F010E0001D26F18EC90F01200000100
:1038A00020EE06F0C451D926C551DA22DECFB5F09C
:1038B000DDCFB6F0050E0001B76F000E0001B86F46
:1038C0006CEC9EF0000120EE06F0C451D926C551E3
:1038D000DA22DECFC0F0DDCFC1F0000E0001C26FF2
:1038E000020E0001C36F43ECA3F0000120EE06F0CE
:1038F000C451D926C551DA22DECFB5F0DDCFB6F0FE
:10390000050E0001B76F010E0001B86F6CEC9EF060
:103910001200000E0001CA6F000E0001CB6FC2C082
:10392000BAF00001C0510001C4250001C86F0001B8
:10393000C8050001BB6F0001C2510001C62500018E
:10394000C96F0001C9050001BC6F0001C0512BEC1B
:1039500097F0C6C0CBF00001CB510001D8B41200E3
:10396000C4C0CAF00001CA510001D8B409D0BEC019
:10397000BAF0BFC0BBF0DEECA3F00001CA07F2D77B
:103980000001CB07E8D7B00E0001DB6F030E00018A
:10399000DC6F070E0001DD6F030E0001DE6F64ECCB
:1039A0008BF0B00E0001DB6F030E0001DC6F060E22
:1039B0000001DD6F030E0001DE6F64EC8BF004ECA0
:1039C000A0F0C00E0001E26FC60EE36F2D0EE46F93
:1039D000000EE56F010E0001E66F010E0001E76FBA
:1039E00000EC80F0730E0001C46F030E0001C56F80
:1039F000DBEC9BF012000001B7510001B52500017E
:103A0000BA6F0001B8510001B6210001BB6F1AD096
:103A1000B5C0D9FFB6C0DAFFDF500001B96FBAC038
:103A2000D9FFBBC0DAFFB5C0E1FFB6C0E2FFDFCF10
:103A3000E7FF0001B54BB62BBAC0D9FFBBC0DAFF18
:103A4000B9C0DFFF0001BA07D8A0BB070001BA5117
:103A50000001B55D0001BB510001B659D8B012009C
:103A6000D7D726D0A7C0D9FFA8C0DAFF0001DF94BE
:103A7000B7C0C9FFC7A0FED7C9CFB7F0A7C0D9FF4D
:103A8000A8C0DAFF0001DF8412009DC0D9FF9EC0EC
:103A9000DAFF0001DF9EB7C06FFF6DA0FED76FCFCA
:103AA000B7F09DC0D9FF9EC0DAFF0001DF8E120083
:103AB000000120EE02F0B551D926B651DA22DF50CE
:103AC000000AD8B4CFD7010AD8A41200DED700016B
:103AD000C36FB50E0001C16F000E0001C26F000E72
:103AE0000001C46F1FD0C1C0D9FFC2C0DAFF0001FE
:103AF000C45135C0BFF00001C06B0001BF27000EEC
:103B0000C023000E0001BF25E16E040E0001C0219C
:103B1000E26EDFCFE7FF020E0001C127000EC223D5
:103B20000001C42B0001C3510001C45DD8A0DBD744
:103B30000001C351352612001FD0000E0001B76FDF
:103B4000000EB86F000EB96F000EBA6F0001BA51C7
:103B50000001B91111E1B00E0001B75D040E0001C2
:103B6000B859D8B009D000F0010E0001B727000EF7
:103B7000B823B923BA23EAD70001B507D8A0B607FE
:103B80000001B529DAE10001B629D8A4D6D7080E7C
:103B90000001B76F800EB86F000EB96F000EBA6FDC
:103BA0001200050E0001E16FDBC0D9FFDCC0DAFFB7
:103BB000DECFE2F0DDCFE3F00001DD51020DF3CF07
:103BC000DFF00001DD51020DF3280001E06FE2C0DB
:103BD000C4F0E3C0C5F0DEC0C6F0DFC0C7F026EC1D
:103BE0009BF00001E16F0001E151D8A40CD0E2C0CC
:103BF000C4F0E3C0C5F0DEC0C6F0E0C0C7F026ECFC
:103C00009BF00001E16F0001E15112000001B56F6E
:103C100012D0010E1200010E1200010E1200010E50
:103C20001200010E1200010E1200010E1200020E0F
:103C30001200020E12000001B551070AD8B4E9D7EC
:103C40000F0AD8B4E8D7010AD8B4E7D7030AD8B422
:103C5000E6D7010AD8B4E5D7070AD8B4E4D7010AF1
:103C6000D8B4E3D71E0AD8B4E2D7070AD8A4120002
:103C7000E0D700018D2B060E4726000E4822060EC7
:103C800047240001B96F000E48200001BA6F0001FF
:103C9000BABF09D00001BA5104E1800E0001B95D3C
:103CA000D8B020EC99F0080E49240001B96F000E3D
:103CB0004A200001BA6F0001BABF0CD00001BA510E
:103CC00005E1800E0001B95DD8A004D09AEC9AF00D
:103CD000010E1200000E1200010E0001B817B7C04D
:103CE000B9F0010E0001BA6F0001B92B03D0000139
:103CF000D890BA370001B92FFAD70001BA51FF0A9C
:103D00000001BB6FB5C0D9FFB6C0DAFF0001BB51DF
:103D1000DF16B7C0B9F0B8C0BAF00001B92B03D0B4
:103D20000001D890BA370001B92FFAD7B5C0D9FF32
:103D3000B6C0DAFF0001BA51DF1212000001E26FD3
:103D40001ED0A30E0001DB6F000E0001DC6F000E21
:103D50000001DD6F030E0001DE6F64EC8BF017D005
:103D6000A30E0001DB6F000E0001DC6F010E0001ED
:103D7000DD6F030E0001DE6F64EC8BF008D00001F4
:103D8000E251000AD8B4DDD7010AD8B4E9D7000E51
:103D90000001C96F0001E251DCEC9FF0120000014C
:103DA000BE510001BF11D8B426D0010E0001C06F72
:103DB00006D00001D890BE37BF370001C02B0001EC
:103DC000BFAFF7D70001BE510001BC5D0001BF517C
:103DD0000001BD59D8A008D00001BE510001BC5F50
:103DE0000001BF510001BD5B0001D890BF33BE335D
:103DF0000001C02FE7D7BCC0BCF0BDC0BDF01200B1
:103E000000018D51D8B407D0FA0E4726FF0E482284
:103E100000018D0720D000018C51D8B40ED0000EC7
:103E2000486E720E476EF80E4926FF0E4A22130E98
:103E300000018D6F00018C070ED0000E486E060E3B
:103E4000476E000E4A6E060E496E000E00018D6F21
:103E5000000E00018C6F6BECA1F01200050E00014A
:103E6000EA6F0001E651020DF3CFE8F00001E651E0
:103E7000020DF3280001E96FE4C0DBF0E5C0DCF0DF
:103E8000E8C0DDF0E7C0DEF0D1EC9DF00001EA6FA4
:103E90000001EA51D8A40CD0E4C0DBF0E5C0DCF0AE
:103EA000E9C0DDF0E7C0DEF0D1EC9DF00001EA6F83
:103EB0000001EA5112000001C86F0001C851000161
:103EC000D8B415D0000E0001B66F8B0EB56FC5C00B
:103ED000B7F00001B86BC6C0B9F00001BA6BC7C03B
:103EE000BBF00001BC6B040E67EC9DF012008B0E62
:103EF000ADECA4F00001C551ADECA4F00001C65139
:103F0000ADECA4F00001C751ADECA4F01200000E1E
:103F10000001C06F000E0001C16F000E0001BA6FFA
:103F200050040001BB6F4F040001BC6F000E2BEC6E
:103F300097F04FC0C1F00001C1510001D8B4120088
:103F400050C0C0F00001C0510001D8B409D0BEC0BB
:103F5000BAF0BFC0BBF0DEECA3F00001C007F2D79F
:103F60000001C107E8D71CD0000E0001B76F000E9A
:103F7000B86F000EB96F000EBA6F0001B7510001A3
:103F8000B8110001B9110001BA11D8A409D000F08C
:103F9000010E0001B727000EB823B923BA23EDD7CD
:103FA0000001B507D8A0B6070001B529DDE1000181
:103FB000B629D8B41200D8D70001CA6F1CD0A30EFE
:103FC0000001C46F000E0001C56F000E0001C66F36
:103FD000C9C0C7F044EC94F01200A30E0001C46FF6
:103FE000000E0001C56F010E0001C66FC9C0C7F009
:103FF00044EC94F012000001CA51000AD8B4DFD793
:10400000010AD8A41200E9D7A2ECA3F0010E9BECA0
:10401000A0F0000E0001B66F800EB56F9CEC9DF015
:10402000010E9BECA0F093ECA3F0000E0001B66F24
:10403000800EB56F9CEC9DF0010E9BECA0F0A2EC05
:10404000A3F0000E0001B66F800EB56F9CEC9DF0E2
:10405000010E9BECA0F01200010E041603C005F047
:10406000010E066E052A02D0D8900636052EFCD722
:104070000650FF0A076E01C0D9FF02C0DAFF0750E1
:10408000DF1603C005F004C006F0052A02D0D89060
:104090000636052EFCD701C0D9FF02C0DAFF065054
:1040A000DF121200000120EE06F0B551D926B651FC
:1040B000DA22DECFB8F0DDCFB9F0B8C0D9FFB9C091
:1040C000DAFFDF500001BA6F0001B751040DF32889
:1040D0000001B86F03D00001D890BA330001B82FA7
:1040E000FAD70F0E0001BA170001BA511200050EDF
:1040F0000001EE6FEBC0E4F0ECC0E5F0000E000153
:10410000E66FEDC0E7F02EEC9FF00001EE6F0001CE
:10411000EE51D8A40DD0EBC0E4F0ECC0E5F0010EF8
:104120000001E66FEDC0E7F02EEC9FF00001EE6FAE
:104130000001EE5112000001CD6F18D0A30E000156
:10414000C96F000E0001CA6F000E0001CB6F93EC27
:10415000A2F01200A30E0001C96F000E0001CA6F89
:10416000010E0001CB6F93ECA2F012000001CD51C3
:10417000000AD8B4E3D7010AD8A41200EBD7000193
:10418000CE6F0001CE510001D8B40ED0000E000158
:10419000C66F000EC56F000E0001C86F000EC76F1E
:1041A000010E7CEC96F01200000E0001C66F000EAE
:1041B000C56F000E0001C86F000EC76F000E7CECCB
:1041C00096F01200000120EE06F0B551D926B65146
:1041D000DA22DECFB8F0DDCFB9F0B8C0D9FFB9C070
:1041E000DAFFDF500001BA6F0001B7290001B86F94
:1041F00003D00001D890BA330001B82FFAD7010ECE
:104200000001BA170001BA511200030E0001C66581
:1042100014D0010E0001C4250001C06F000E000182
:10422000C5210001C16F0001C651FC0F0001C26F22
:10423000C7C0C3F032ECA3F01200C4C0C0F0C5C0C8
:10424000C1F0C6C0C2F0C7C0C3F032ECA3F0120088
:104250000001B6AF1AD00001B6BF07D00001B651B9
:104260000AE10001B505D8B006D00001B56DB61F52
:10427000D8B0B62B04D0B5C0B5F0B6C0B6F00001CA
:10428000B51FB61F0001B54BB62BB5C0B5F0B6C013
:10429000B6F012000001BC6F86500F0B0001BB6F1F
:1042A0004B50D8A402D0000E1200000E4B6E00013D
:1042B000BC510001BB19D8B40CD0F00E8616000119
:1042C000BC518612000E0001B66F0A0EB56FB3EC3A
:1042D0009FF0010E1200010E0001FF6F00018C51D2
:1042E000140DAA0E0001B56F040E0001B66FF35055
:1042F0000001B527F4500001B62300018D51010DD6
:10430000F3500001B525D96EF4500001B621DA6EE4
:10431000800EDF6E120016D0000E036E000E046ECB
:10432000000E056E000E066E0350041005100610F8
:10433000D8A408D000F0010E0326000E04220522A6
:104340000622F2D70106D8A002060128E5E10228DC
:10435000D8B41200E1D700016F51000170110001C3
:104360007111D8B40DD001D80BD00500FA6E000140
:104370006F51FD6E7051FE6E7151FF6EFA5012005A
:10438000000E00016F6F000E0001706F000E000143
:10439000716F12000001BC6F86500F0B0001BB6FE4
:1043A0004B50D8B4FDD7000E4B6E0001BC5100013C
:1043B000BB19D8B40CD0F00E86160001BC51861281
:1043C000000E0001B66F0A0EB56FB3EC9FF0010E40
:1043D0001200030E0001C36512D0010E0001C125B9
:1043E0000001BE6F000E0001C2210001BF6F00017D
:1043F000C351FC0F0001C06FCFECA3F01200C1C08D
:10440000BEF0C2C0BFF0C3C0C0F0CFECA3F012003A
:104410000001CE6F0001CE510001D8A413D00001DD
:10442000892B0001895100017B27000E7C237BC072
:10443000CBF07CC0CCF009ECA3F000018951030B58
:104440000BEC9AF0000E9BECA0F01200000E0001A5
:10445000BC6F070EBB6F000E0001BE6F090EBD6F73
:10446000000E0001C06F0A0EBF6F000E0001C26F88
:104470000B0EC16F000E0001C46F0C0EC36F050E52
:10448000DCEC8DF012000001B5510001B703F3CF51
:10449000B9F0F4CFBAF00001B5510001B803F35000
:1044A0000001BA270001B6510001B703F350000123
:1044B000BA27B9C0B5F0BAC0B6F01200086E86507F
:1044C0000F0B076E4B50D8A402D0000E1200000E46
:1044D0004B6E08500718D8B40AD0F00E8616085054
:1044E0008612000E026E0A0E016E8BECA1F0010E18
:1044F0001200B5C0F6FFB6C0F7FF000EF86E080058
:10450000F5CFB9F00001B7290001B86F03D0000161
:10451000D890B9330001B82FFAD7010E0001B917AE
:104520000001B9511200C9C0B5F0CAC0B6F0CBC085
:10453000B7F0E2ECA0F00001CC6F010E0001CC1B43
:10454000C9C0C4F0CAC0C5F0CBC0C6F0CCC0C7F06B
:1045500044EC94F01200000120EE02F0B551D9268F
:10456000B651DA22DF50D8A407D0A7C0D9FFA8C01F
:10457000DAFF0001DF8412009DC0D9FF9EC0DAFF80
:104580000001DF8E1200030E0F640CD0010E0D240B
:104590000A6E000E0E200B6E0F50FC0F0C6E16EC08
:1045A000A4F012000DC00AF00EC00BF00FC00CF00A
:1045B00016ECA4F012000001CE6FF2ECA4F00001A2
:1045C000CF6F0F0E0001CF170001CE3BF00ECE17BC
:1045D0000001CE510001CF11DAECA4F0000E9BECEB
:1045E000A0F01200F8ECA4F000016C5100016D1174
:1045F00000016E11D8B4120001D812000500FA6E45
:1046000000016C51FD6E6D51FE6E6E51FF6EFA50E1
:104610001200CBC0C1F0CCC0C2F02E0E0001C36F9F
:10462000030E0001C46F06EC93F02E0E0001B66F6E
:10463000030E0001B76FC4EC95F0120004D09D96F4
:104640001200A39E1200000120EE02F0B551D926FF
:10465000B651DA22DF50000AD8B4F1D7010AD8A443
:104660001200EFD7C0C0B5F0C1C0B6F0040E000113
:10467000B76FC2C0B8F0020E0001B96FC3C0BAF084
:1046800021EC96F01200C0C0B5F0C1C0B6F0020E29
:104690000001B76FC2C0B8F0040E0001B96FC3C00B
:1046A000BAF021EC96F012000001B96F0001B85188
:1046B00096ECA4F0730E0001B56F030E0001B66F07
:1046C000B9C0B7F031EC9DF012008C0EADECA4F047
:1046D000000EADECA4F0010EADECA4F03C0EADEC80
:1046E000A4F0040EADECA4F01200000E486E060E0D
:1046F000476E000E4A6E060E496E000E00018D6F69
:10470000000E00018C6F1200949C948E240EAD6EEE
:10471000980EAC6E7E9A7E987E927E90AD847E9648
:10472000330EB06E1200B00E0001C46F030E000114
:10473000C56F060E0001C66F010E0001C76F44EC85
:1047400094F01200B00E0001C46F030E0001C56F9B
:10475000060E0001C66F000E0001C76F44EC94F016
:104760001200990E0001EB6F000E0001EC6F000EBD
:104770000001ED6F000E0001EE6F2EEC85F01200CF
:104780009C0E0001DB6F030E0001DC6F040E0001C4
:10479000DD6F000E0001DE6F64EC8BF01200BEC016
:1047A000B5F0BFC0B6F0040E0001B76FC0C0B8F0DE
:1047B000020E0001B96F71EC99F01200010E0001B8
:1047C000B86F0001BB5154ECA3F0010E0001B86FAB
:1047D0000001BA5154ECA3F012000001C96F000EA1
:1047E0000001C56FC9C0C6F0FF0E0001C76F000E03
:1047F0005BEC9FF01200010E4B6E00016F51000147
:10480000701100017111D8B402D0010E1200000E17
:104810001200000E0001C56F000E0001C66F000EF1
:104820000001C76F000E5BEC9FF012000AC001F0A0
:104830000BC002F0040E036E0CC004F0020E056EF5
:10484000A0EC9BF01200CEC0C5F0CFC0C6F07F0E2A
:104850000001C86FC769000E7CEC96F01200990E3B
:104860000001B56F000E0001B66F000E0001B76FBA
:1048700052ECA0F012008F0E0001B56F000E000187
:10488000B66F000E0001B76F52ECA0F012008F0E51
:104890000001B56F000E0001B66F060E0001B76F84
:1048A000E2ECA0F012008F0E0001B56F000E0001C7
:1048B000B66F070E0001B76FE2ECA0F012008F0E8A
:1048C0000001B56F000E0001B66F040E0001B76F56
:1048D000E2ECA0F012008F0E0001B56F000E000197
:1048E000B66F050E0001B76FE2ECA0F012009C0E4F
:1048F0000001B56F030E0001B66F040E0001B76F23
:10490000E2ECA0F012000001B66F8D0EADECA4F049
:104910000001B651ADECA4F01200000E0001BC6F16
:10492000130EBB6F010EDCEC8DF012000001B56FB1
:104930000001B5B102D0859E01D0858E1200000124
:10494000C96F0001C95144EC8CF01200800EADEC2F
:10495000A4F0840EADECA4F012000001B56FADA27E
:10496000FED7B5C0AEFF1200B5C0D9FFB6C0DAFFA2
:10497000B7C0DFFF1200B5C06FF0B6C070F0B7C0AF
:1049800071F0120001C06FF002C070F003C071F04E
:10499000120029C0D6FF2AC0D7FFF28A120029C010
:1049A000D6FF2AC0D7FFF28A120006000600014196
:1049B000613080800001B56FB5C035F3120006008C
:1049C0000600800007009EAAFED7AF5012009E92FC
:0D49D0009D929F92120005000700FFFF015D
:1049DE00F29AF2941200030135511200FC0E966EFB
:0E49EE001200F29AF2941200010E4B6E1200AB
:06FFF800AAF705FFF8F175
:00000001FF
