:0414000055EF0AF0AA
:101408005F82FACF42F0FBCF43F0E9CF44F0EACF56
:1014180045F0E1CF46F0E2CF47F0D9CF48F0DACF38
:1014280049F0F3CF4AF0F4CF4BF0F6CF4CF0F7CFBA
:101438004DF0F8CF4EF0F5CF4FF05FC050F060C0E0
:1014480051F061C052F062C053F0F292F2B4F2AAC5
:1014580002D0DFEC81F053C062F052C061F051C09D
:1014680060F050C05FF04FC0F5FF4EC0F8FF4DC0B0
:10147800F7FF4CC0F6FF4BC0F4FF4AC0F3FF49C06A
:10148800DAFF48C0D9FF47C0E2FF46C0E1FF45C0C8
:10149800EAFF44C0E9FF43C0FBFF42C0FAFF5F9286
:0614A80011007FEF80F04F
:10FD2E0000001180002C0100B102003500360000E9
:10FD3E00B202003500360000B30200350036000274
:10FD4E00003500360000B4000000C0A2000200849E
:10FD5E000000C1C50000C20D00000000C38D002AC6
:10FD6E000000C48D00EE0000C50A000036C8000079
:10FD7E00E012001C001000180033002C0025002893
:10FD8E0000280027002F003C000000030003001095
:10FD9E00008000780000E112001C00100018002DF9
:10FDAE0000280023002800280026002F003B00001A
:10FDBE0000030003001000003A0500002A000002B4
:10FDCE000000008100002B000003000000A20000D4
:10FDDE0029002C02000400080010002000400080C2
:10FDEE0000000100010200010001000202000003F8
:10FDFE00030300000103070F1F3F7FFF00020103F3
:10FE0E00010410000000000000005F000000070069
:10FE1E000700147F147F14242A7F2A1223130864E8
:10FE2E006236495522500005030000001C22410095
:10FE3E000041221C00082A1C2A0808083E08080057
:10FE4E00503000000808080808006060000020100C
:10FE5E000804023E5149453E00427F400042615136
:10FE6E0049462141454B311814127F10274545450F
:10FE7E00393C4A4949300171090503364949493629
:10FE8E00064949291E00363600000056360000008D
:10FE9E0008142241141414141441221408000201EF
:10FEAE00510906324979413E7E1111117E7F494931
:10FEBE0049363E414141227F4141221C7F494949F9
:10FECE00417F090901013E414151327F0808087FF7
:10FEDE0000417F41002040413F017F081422417FB5
:10FEEE00404040407F0204027F7F0408107F3E4165
:10FEFE0041413E7F090909063E4151215E7F0919A4
:10FF0E002946464949493101017F01013F404040A0
:10FF1E003F1F2040201F7F2018207F63140814638A
:10FF2E000304780403615149454300007F414102B7
:10FF3E000408102041417F000004020102044040E9
:10FF4E00404040000102040020545454787F48443D
:10FF5E0044383844444420384444487F3854545438
:10FF6E0018087E090102081454543C7F08040478D2
:10FF7E0000447D40002040443D00007F1028440096
:10FF8E00417F40007C041804787C080404783844CF
:10FF9E004444387C14141408081414187C7C080487
:10FFAE0004084854545420043F4440203C40402010
:10FFBE007C1C2040201C3C4030403C4428102844EF
:10FFCE000C5050503C4464544C44000836410000E0
:10FFDE00007F0000004136080008082A1C08081C93
:10FFEE002A080800FCFF0F0000FFFFF0FF00FFFFD4
:02FFFE00000001
:020000040001F9
:1000000020EE04F00A50D9260B50DA22DF50ACEC77
:1000100081F00009D8B46AD00AC0D9FF0BC0DAFF5A
:10002000DE50DE10D8B45DD00AC0D9FF0BC0DAFFB5
:10003000010EDBBE22D0010EDB5003E1DE04D8A0AE
:100040001CD00AC0D9FF0BC0DAFFDE2804E17F0E06
:10005000DE18D8B407D00AC0D9FF0BC0DAFFDE061D
:10006000000EDD5A9B0E3B6E000E3C6E000E3D6E88
:10007000010E3E6ED6EC80F01BD00AC0D9FF0BC03B
:10008000DAFFDE0404E1800EDE18D8B407D00AC01F
:10009000D9FF0BC0DAFFDE2A000EDD229B0E3B6E7D
:1000A000000E3C6E000E3D6E000E3E6ED6EC80F0F3
:1000B0009B0E3B6E000E3C6E010E3D6E010E3E6EC1
:1000C000D6EC80F09B0E3B6E000E3C6E010E3D6E3A
:1000D000000E3E6ED6EC80F02CEC82F01DEC82F02F
:1000E00012002CEC82F029EC82F0120073C02CF08C
:1000F00074C02DF075C02EF016EC82F01200060EC2
:10010000F66E040EF76E010EF86E01EED3F010EEEF
:1001100018F00900F5CFEEFFE550E150FAE11E0EB0
:10012000F66E040EF76E010EF86E00EEF0F010EEB3
:100130000EF00900F5CFEEFFE550E150FAE1460E72
:10014000F66E040EF76E010EF86E00EE54F010EE2F
:100150000BF00900F5CFEEFFE550E150FAE102EEB9
:1001600064F011EE2CF0EE6AE550E150FCE1E25053
:10017000FAE102EE00F0640EEE6AE806FDE101EE3F
:1001800000F0D30EEE6AE806FDE100EE60F0900E9E
:10019000EE6AE806FDE100EE01F02B0EEE6AE806DD
:1001A000FDE15F905F9200012FEF82F0080E3B248B
:1001B000386E000E3C20396E3DC03AF0C7EC81F03D
:1001C0003F6E3BD0010E3E1620EE02F03B50D9268A
:1001D0003C50DA22DECF2CF0DDCF2DF03DC02EF0EA
:1001E0003EC02FF066EC81F01200010E3E16010EAB
:1001F0003E1A20EE02F03B50D9263C50DA22DECFE8
:100200002CF0DDCF2DF03DC02EF03EC02FF066EC7F
:1002100081F01200010E3E1620EE04F03B50D9266C
:100220003C50DA22DECF2CF0DDCF2DF03DC02EF099
:100230003EC02FF066EC81F012003F50000AD8B4A7
:100240001200010AD8B4BED7030AD8B4CED7010A27
:10025000D8A41200DFD72CC0F6FF2DC0F7FF000E88
:10026000F86E0F0EF76403D00800F55005D0F6CFF6
:10027000E9FFF7CFEAFFEF50346E3050010D010E69
:10028000F324F66EFE0EF420F76EF86A000EF822E4
:100290000800F5CF32F0000E336E03D02E502F5EE3
:1002A000332A2E502F5CD8B0F9D730502F02F3509C
:1002B0002F6E33502F262F28316E02D0D890343233
:1002C000312EFCD73250341634501200010E2F1646
:1002D0002EC030F0010E316E302A02D0D890313667
:1002E000302EFCD73150FF0A326E2CC0D9FF2DC002
:1002F000DAFF3250DF162EC030F02FC031F0302A36
:1003000002D0D8903136302EFCD72CC0D9FF2DC06A
:10031000DAFF3150DF12120016D0000E2E6E000EE2
:100320002F6E000E306E000E316E2E502F103010DA
:100330003110D8A408D000F0010E2E26000E2F2276
:1003400030223122F2D72C06D8A02D062C28E5E148
:100350002D28D8B41200E1D7336E86500F0B326EC1
:100360005850D8A402D0000E1200000E586E335020
:100370003218D8B40AD0F00E861633508612000E0A
:100380002D6E0A0E2C6E8CEC81F0010E1200030E05
:100390003A640CD0010E3824356E000E3920366ECA
:1003A0003A50FC0F376EF6EC81F0120038C035F091
:1003B00039C036F03AC037F0F6EC81F0120029EC83
:1003C00082F0000170510001711100017211D8B466
:1003D000120001D812000500FA6E00017051FD6E86
:1003E0007151FE6E7251FF6EFA50120035C02CF042
:1003F00036C02DF0040E2E6E37C02FF0020E306E78
:100400002BEC81F012000000010002000300040048
:10041000050006000700080009000A000B0006009E
:1004200006008000070005000700FFFF2CC001F058
:100430002DC002F02EC003F0120008C0D6FF09C084
:10044000D7FFF28A120006000600010141613080E8
:01045000802B
:10045200F29AF2941200010E586E120055EF0AF051
:06FFF800EFF7C7FFF8F966
:00000001FF
