:0414000055EF0AF0AA
:101408005182FACF17F0FBCF18F0E9CF19F0EACFE5
:101418001AF0E1CF1BF0E2CF1CF0D9CF1DF0DACFE4
:101428001EF0F3CF1FF0F4CF20F0F6CF21F0F7CF66
:1014380022F0F8CF23F0F5CF24F051C025F052C0A8
:1014480026F053C027F054C028F0F292F2B4F2AA62
:1014580002D049ECA4F028C054F027C053F026C0AD
:1014680052F025C051F024C0F5FF23C0F8FF22C078
:10147800F7FF21C0F6FF20C0F4FF1FC0F3FF1EC016
:10148800DAFF1DC0D9FF1CC0E2FF1BC0E1FF1AC074
:10149800EAFF19C0E9FF18C0FBFF17C0FAFF519215
:0614A800110078EF96F040
:10FCF20000001180002C0100B10200350036000026
:10FD0200B202003500360000B302003500360002B0
:10FD1200003500360000B4000000C0A200020084DA
:10FD22000000C1C50000C20D00000000C38D002A02
:10FD32000000C48D00EE0000C50A000036C80000B5
:10FD4200E012001C001000180033002C00250028CF
:10FD520000280027002F003C0000000300030010D1
:10FD6200008000780000E112001C00100018002D35
:10FD720000280023002800280026002F003B000056
:10FD820000030003001000003A0500002A000002F0
:10FD92000000008100002B000003000000A2000010
:10FDA20029002C02000400080010002000400080FE
:10FDB2000000010001020001000100020200000334
:10FDC20003030001000A006400E803102700010396
:10FDD200070F1F3F7FFF0002010301041000000014
:10FDE200000000005F00000007000700147F147F7E
:10FDF20014242A7F2A12231308646236495522509A
:10FE02000005030000001C2241000041221C0008E2
:10FE12002A1C2A0808083E0808005030000008087A
:10FE2200080808006060000020100804023E5149E2
:10FE3200453E00427F400042615149462141454BC7
:10FE4200311814127F1027454545393C4A4949303B
:10FE520001710905033649494936064949291E00F7
:10FE620036360000005636000000081422411414F1
:10FE7200141414412214080002015109063249796E
:10FE8200413E7E1111117E7F494949363E41414131
:10FE9200227F4141221C7F494949417F09090101D1
:10FEA2003E414151327F0808087F00417F410020D6
:10FEB20040413F017F081422417F404040407F0281
:10FEC20004027F7F0408107F3E4141413E7F0909C1
:10FED20009063E4151215E7F091929464649494991
:10FEE2003101017F01013F4040403F1F2040201F60
:10FEF2007F2018207F6314081463030478040361CD
:10FF02005149454300007F4141020408102041410C
:10FF12007F00000402010204404040404000010210
:10FF2200040020545454787F4844443838444444AC
:10FF320020384444487F3854545418087E0901023A
:10FF4200081454543C7F0804047800447D40002087
:10FF520040443D00007F10284400417F40007C0463
:10FF62001804787C0804047838444444387C141417
:10FF72001408081414187C7C0804040848545454C7
:10FF820020043F4440203C4040207C1C2040201C58
:10FF92003C4030403C44281028440C5050503C44D3
:10FFA20064544C44000836410000007F00000041C8
:10FFB20036080008082A1C08081C2A0808ECF34A1C
:10FFC20048359595C717C1DC45FDDB6DC372B33368
:10FFD200402B3401487F9DB045E7FFD942000080A5
:10FFE2003F00FCFF0F0000FFFFF0FF00FFFF005685
:0DFFF2006172313A2025640A002563000089
:020000040001F9
:100000000001E851800B0001F56F0001E851E8257F
:100010000001F76F0001E7AF02D00001F781000196
:10002000F7510001D8B412D00001F729D8A409D0A3
:10003000000E0001E56F000EE66F000EE76F000E88
:10004000E86F0001E78F000E000108D0000E0001EC
:10005000E56F000EE66F000EE76F000EE86F00011F
:10006000EC51800B0001F66F0001F5510001F6190B
:10007000D8B402D00001F58D0001EC51EC2500014F
:10008000F66F0001EBAF02D00001F6810001F651DE
:100090000001D8B412D00001F629D8A409D0000E6E
:1000A0000001E96F000EEA6F000EEB6F000EEC6FBF
:1000B0000001EB8F000E000108D0000E0001E96F77
:1000C000000EEA6F000EEB6F000EEC6F0001F751AF
:1000D0000001F65DD8B024D00001F5AD03D0800E4C
:1000E0000001F51BF7C0F8F0F6C0F7F0F8C0F6F025
:1000F000E5C0F8F0E9C0E5F0F8C0E9F0E6C0F8F0D6
:10010000EAC0E6F0F8C0EAF0E7C0F8F0EBC0E7F0CC
:10011000F8C0EBF0E8C0F8F0ECC0E8F0F8C0ECF0A4
:10012000000E0001F86F0001F7510001ED6FEE6B5A
:100130000001ED1FEE1FED4BEE2B0001F65100010B
:10014000EF6FF06B0001ED510001EF270001EE5160
:100150000001F0230001F0BF3DD00001F05105E1A6
:100160001A0E0001EF5DD8A035D00001E551000165
:10017000E6110001E7110001E811D8B402D0010E28
:1001800001D0000E0001F86F000E0001E56F000EB7
:10019000E66F000EE76F000EE86FF6C0F7F020D0B4
:1001A0000001F8A107D00001D890F8310109000141
:1001B000F86F03D00001D890F8330001E5A102D018
:1001C0000001F88F0001E835E833E733E633E53323
:1001D0000001F72B0001F6510001F75DD8A0E0D730
:1001E0000001F5BD3FD00001F7510001D8A40AD0AD
:1001F000000E0001E56F000EE66F000EE76F000EC7
:10020000E86F12000001E9510001E5270001EA5101
:100210000001E6230001EB510001E7230001EC514E
:100220000001E8230001E8A1CCD00001F8A109D029
:100230000001D890F8330001F85101090001F86F6E
:1002400003D00001D890F8330001E5A102D00001ED
:10025000F88F0001E835E833E733E633E533000192
:10026000F72BAFD00001E9510001E55D0001EA5133
:100270000001E6590001EB510001E7590001E85186
:10028000800A0001ED6F0001EC51800A0001ED5978
:10029000D8B050D0E5C0EDF0E6C0EEF0E7C0EFF02A
:1002A000E8C0F0F00001ED1FEE1FEF1FF01FED2B77
:1002B000000EEE23EF23F0230001E9510001ED25AC
:1002C0000001F16F0001EA510001EE210001F26F1F
:1002D0000001EB510001EF210001F36F0001EC512F
:1002E0000001F0210001F46FFF0E0001F125000173
:1002F000E56FFF0E0001F2210001E66FFF0E000125
:10030000F3210001E76FFF0E0001F4210001E86F07
:10031000800E0001F51B0001F86D0001F85100018D
:10032000D8A418D0010E0001E527000EE623E7232C
:10033000E82310D00001E9510001E55F0001EA5116
:100340000001E65B0001EB510001E75B0001EC51AD
:100350000001E85B0001E5510001E6110001E71131
:100360000001E811D8A42AD00001F8510001D8A456
:1003700025D0000E0001E56F000EE66F000EE76F5E
:10038000000EE86F12000001D890E537E637E73736
:10039000E8370001F8AF02D00001E5810001F8A1C3
:1003A00003D0D880000102D00001D890F8370001B6
:1003B000F7510001D8B402D00001F7070001E7AF00
:1003C000E2D7000E0001F66F0001F8AF0DD0F8C0C3
:1003D000EDF07F0E0001ED17D8A403D00001E5A1D8
:1003E00003D0010E0001F66F0001F6510001D8B4F0
:1003F00026D0010E0001E527000EE623E723E823BF
:100400000001E8A11CD0E5C0EDF0E6C0EEF0E7C0C9
:10041000EFF0E8C0F0F00001F035F033EF33EE33E9
:10042000ED33EDC0E5F0EEC0E6F0EFC0E7F0F0C070
:10043000E8F00001F729D8B402D00001F72B000141
:10044000F729D8B405D00001F7510001D8A411D084
:10045000000E0001E56F000EE66F000EE76F000E64
:10046000E86F0001F7510001D8A403D0000E00018D
:10047000F56F0001F7A103D00001E78F02D0000162
:10048000E79F0001D890F7310001E86F0001F5AF58
:1004900002D00001E88FE5C0E5F0E6C0E6F0E7C075
:1004A000E7F0E8C0E8F012000001BD51800B000148
:1004B000C66F0001BD51BD250001C86F0001BCAF72
:1004C00002D00001C8810001C8510001D8B410D089
:1004D0000001C829D8A409D0000E0001BA6F000E8F
:1004E000BB6F000EBC6F000EBD6F0001BC8F09D04A
:1004F000000E0001BA6F000EBB6F000EBC6F000E45
:10050000BD6F0001C151800B0001C61B0001C1512C
:10051000C1250001C76F0001C0AF02D00001C78133
:100520000001C7510001D8B410D00001C729D8A4D8
:1005300009D0000E0001BE6F000EBF6F000EC06F2D
:10054000000EC16F0001C08F09D0000E0001BE6F08
:10055000000EBF6F000EC06F000EC16F0001C751CB
:100560000001D8B405D00001C8510001D8A40AD0B8
:10057000000E0001BA6F000EBB6F000EBC6F000EC4
:10058000BD6F12000001C0510001BA03F3CFD1F0DA
:10059000F4CFD2F00001D1510001C96FCA6BCB6B0F
:1005A000CC6B0001D2510001CD6FCE6BCF6BD06B05
:1005B0000001BF510001BB03F3CFD1F0F4CFD2F063
:1005C0000001D1510001C927000ECA23CB23CC233F
:1005D0000001D2510001CD27000ECE23CF23D0231E
:1005E0000001BE510001BC03F3CFD1F0F4CFD2F033
:1005F0000001D1510001C927000ECA23CB23CC230F
:100600000001D2510001CD27000ECE23CF23D023ED
:10061000CBC0CCF0CAC0CBF0C9C0CAF00001C96BD6
:100620000001BE510001BB03F3CFD1F0F4CFD2F0F3
:100630000001D1510001C9270001D2510001CA2394
:10064000000E0001CB23000E0001CC230001BF519E
:100650000001BA03F3CFD1F0F4CFD2F00001D151B1
:100660000001C9270001D2510001CA23000E000178
:10067000CB23000E0001CC23CBC0CCF0CAC0CBF002
:10068000C9C0CAF00001C96B0001BE510001BA0324
:10069000F3CFD1F0F4CFD2F00001D1510001C9273E
:1006A0000001D2510001CA23000E0001CB23000E2D
:1006B0000001CC230001C0510001BB03F3CFD1F0F6
:1006C000F4CFD2F00001D1510001CD270001D25169
:1006D0000001CE23000E0001CF23000E0001D02325
:1006E0000001BF510001BC03F3CFD1F0F4CFD2F031
:1006F0000001D1510001CD270001D2510001CE23CC
:10070000000E0001CF23000E0001D0230001C051D4
:100710000001BC03F3CFD1F0F4CFD2F00001D151EE
:100720000001C26F0001D2510001C36F0001C46B10
:100730000001C56BC4C0C5F0C3C0C4F0C2C0C3F0E3
:100740000001C26B0001C2510001CD270001C3515D
:100750000001CE230001C4510001CF230001C55187
:100760000001D023C9C0C2F0CAC0C3F0CBC0C4F0DE
:10077000CCC0C5F0190E06D00001D890C533C433E3
:10078000C333C233E82EF8D70001C2510001CD2790
:100790000001C3510001CE230001C4510001CF2349
:1007A0000001C5510001D023CBC0CCF0CAC0CBF0B2
:1007B000C9C0CAF00001C96B0001C751C8C0C2F06E
:1007C0000001C36B0001C227000EC323820E00018B
:1007D000C2250001D16FFF0E0001C3210001D26FBD
:1007E00015D00001D890CD37CE37CF37D0370001A4
:1007F000CCAF02D00001CD810001D890C937CA37F3
:10080000CB37CC370001D107D8A0D2070001CFAF3A
:10081000E8D7000E0001C76F0001CCAF24D0FF0E57
:100820000001C9150001C26FFF0E0001CA150001C9
:10083000C36FFF0E0001CB150001C46F7F0E0001D6
:10084000CC150001C56F0001C2510001C3110001A8
:10085000C4110001C511D8A403D00001CDA103D05B
:10086000010E0001C76F0001C7510001D8B423D0A9
:10087000010E0001CD27000ECE23CF23D02300018F
:10088000D0A119D0CDC0C2F0CEC0C3F0CFC0C4F04B
:10089000D0C0C5F00001C535C533C433C333C2333E
:1008A000C2C0CDF0C3C0CEF0C4C0CFF0C5C0D0F040
:1008B0000001D14BD22B0001D2BF10D00001D25188
:1008C00004E10001D129D8A009D0000E0001CD6FAC
:1008D000000ECE6F800ECF6F7F0E2BD00001D2BFE7
:1008E00007D00001D25111E10001D105D8B00DD0DF
:1008F000000E0001CD6F000ECE6F000ECF6F000E08
:10090000D06F000E0001C66F15D0D1C0C8F0FF0E29
:100910000001CD17FF0ECE177F0ECF17000ED01798
:100920000001C8A102D00001CF8F0001D890C831CA
:100930000001D06F0001C6510001D013CDC0BAF044
:10094000CEC0BBF0CFC0BCF0D0C0BDF012000CD008
:100950007A0E0001ED6F010E04D0850E0001ED6FDF
:10096000010E0001EE6F08D00001EB51000AD8B46F
:10097000EFD7010AD8B4F1D7000120EE02F0ED5113
:10098000D926EE51DA22EBC0DFFFB1D0A40E000170
:10099000E06F000E0001E16F020E0001E26F030E36
:1009A0000001E36FD9EC8FF0A40E0001E06F000EA0
:1009B0000001E16F030E0001E26F030E0001E36F1F
:1009C000D9EC8FF0A40E0001E06F000E0001E16F82
:1009D000050E0001E26F030E0001E36FD9EC8FF00A
:1009E000A40E0001E06F000E0001E16F040E000193
:1009F000E26F000E0001E36FD9EC8FF0000120EEF2
:100A000003F0ED51D926EE51DA22C70EDE6E0F0E3D
:100A1000DD6E000120EE06F0ED51D926EE51DA220E
:100A2000C60EDE6E0F0EDD6E000120EE09F0ED51F8
:100A3000D926EE51DA22C90E56D09A0E0001E06F87
:100A4000000E0001E16F070E0001E26F030E0001CE
:100A5000E36FD9EC8FF09A0E0001E06F000E0001F9
:100A6000E16F060E0001E26F030E0001E36FD9ECA7
:100A70008FF09A0E0001E06F000E0001E16F040E8E
:100A80000001E26F030E0001E36FD9EC8FF09A0EC4
:100A90000001E06F000E0001E16F050E0001E26F42
:100AA000000E0001E36FD9EC8FF0000120EE03F09F
:100AB000ED51D926EE51DA226D0EDE6E0F0EDD6E8F
:100AC000000120EE06F0ED51D926EE51DA226C0E2F
:100AD000DE6E0F0EDD6E000120EE09F0ED51D9261D
:100AE000EE51DA226F0EDE6E0F0EDD6E09D00001C0
:100AF000EB51000AD8B44AD7010AD8A412009DD7F6
:100B0000000120EE06F0ED51D926EE51DA22DECFBB
:100B1000BAF0DDCFBBF0050E0001BC6F000E000186
:100B2000BD6FD2ECA0F09CD0000120EE06F0ED519C
:100B3000D926EE51DA22DECFBAF0DDCFBBF0040EBB
:100B40000001BC6F000E0001BD6FD2ECA0F00001EF
:100B500020EE03F0ED51D926EE51DA22DECFBAF0C5
:100B6000DDCFBBF0060E0001BC6F000E0001BD6FB3
:100B7000D2ECA0F084D0000120EE06F0ED51D92691
:100B8000EE51DA22DECFBAF0DDCFBBF0040E000169
:100B9000BC6F000E0001BD6FD2ECA0F0000120EE92
:100BA00003F0ED51D926EE51DA22DECFBAF0DDCFD7
:100BB000BBF0060E0001BC6F010E0001BD6FD2EC50
:100BC000A0F05DD0000120EE06F0ED51D926EE51E7
:100BD000DA22DECFBAF0DDCFBBF0040E0001BC6F2D
:100BE000010E0001BD6FD2ECA0F0000120EE03F079
:100BF000ED51D926EE51DA22DECFBAF0DDCFBBF0CF
:100C0000060E0001BC6F000E0001BD6FD2ECA0F01B
:100C100036D0000120EE06F0ED51D926EE51DA2251
:100C2000DECFBAF0DDCFBBF0040E0001BC6F010EC9
:100C30000001BD6FD2ECA0F0000120EE03F0ED51F9
:100C4000D926EE51DA22DECFBAF0DDCFBBF0060EA8
:100C50000001BC6F010E0001BD6FD2ECA0F00FD0FF
:100C60000001EC51000AD8B45FD7010AD8B483D789
:100C7000030AD8B4A7D7010AD8A41200CAD7000122
:100C800020EE06F0ED51D926EE51DA22DECFBAF091
:100C9000DDCFBBF0070E0001BC6F000E0001BD6F81
:100CA000D2ECA0F0000120EE06F0ED51D926EE5175
:100CB000DA22DECFBAF0DDCFBBF0060E0001BC6F4A
:100CC000000E0001BD6FD2ECA0F0E7C0C7F0E8C095
:100CD000C8F0E9C0C9F0EAC0CAF0ADEC93F0EDC0CD
:100CE000BAF0EEC0BBF08BECA4F004D09F860BD022
:100CF000A58E09D00001EB51000AD8B4F7D7010A3C
:100D0000D8A41200F5D7EDC0BAF0EEC0BBF019ECD4
:100D1000A4F0EDC0D9FFEEC0DAFF000EDF6E0001D7
:100D200020EE06F0ED51D926EE51DA22DECFC5F0E5
:100D3000DDCFC6F0000E0001C76F030E0001C86FC3
:100D4000C1ECA4F0000120EE06F0ED51D926EE51E1
:100D5000DA22DECFBAF0DDCFBBF0050E0001BC6FAA
:100D6000010E0001BD6FD2ECA0F012000001BD51D8
:100D7000800B0001C66F0001BD51BD250001D16F80
:100D80000001BCAF02D00001D1810001D1510001AE
:100D9000D8B412D00001D129D8A409D0000E000186
:100DA000BA6F000EBB6F000EBC6F000EBD6F00016E
:100DB000BC8F000E000108D0000E0001BA6F000EBB
:100DC000BB6F000EBC6F000EBD6F0001C151800BE8
:100DD0000001C61B0001C151C1250001D26F0001F5
:100DE000C0AF02D00001D2810001D2510001D8B4BD
:100DF00012D00001D229D8A409D0000E0001BE6F84
:100E0000000EBF6F000EC06F000EC16F0001C08FDB
:100E1000000E000108D0000E0001BE6F000EBF6F73
:100E2000000EC06F000EC16F0001BE510001BF1166
:100E30000001C0110001C111D8A417D0000E00019B
:100E4000BA6F000EBB6F000EBC6F000EBD6F0001CD
:100E5000800EBC137F0EBD13BAC0BAF0BBC0BBF08E
:100E6000BCC0BCF0BDC0BDF012000001D1510001FA
:100E7000D8A412D0000E0001BA6F000EBB6F000E96
:100E8000BC6F000EBD6FBAC0BAF0BBC0BBF0BCC037
:100E9000BCF0BDC0BDF012000001D2510001C26F14
:100EA000C36B0001C21FC31FC24BC32B0001D15132
:100EB0000001C46FC56B0001C2510001C4270001CD
:100EC000C3510001C5237F0E0001C4250001CB6F73
:100ED000000E0001C5210001CC6FBAC0C7F0BBC035
:100EE000C8F0BCC0C9F0BDC0CAF0000E0001BA6FA6
:100EF000000EBB6F000EBC6F000EBD6F000E000138
:100F0000CD6F000ECE6F000ECF6F000ED06F000EB3
:100F10000001D26F42D00001D2510001D8B417D0E5
:100F20000001D890C737C837C937CA370001D890F1
:100F3000BA37BB37BC37BD370001D0AF02D0000194
:100F4000BA810001D890CD37CE37CF37D0370001E6
:100F5000BE510001C75D0001BF510001C859000129
:100F6000C0510001C9590001C1510001CA59D8A09E
:100F700012D00001D08D0001BE510001C75F0001F9
:100F8000BF510001C85B0001C0510001C95B0001F5
:100F9000C1510001CA5B0001D22B190E0001D265BC
:100FA000BAD70001C7510001C8110001C9110001E1
:100FB000CA11D8B418D00001CD8115D00001D89045
:100FC000BA37BB37BC37BD370001D0AF02D0000104
:100FD000BA810001D890CD37CE37CF37D037000156
:100FE000CB07D8A0CC070001BCAFE8D7000E0001AA
:100FF000D26F0001D0AF24D0FF0E0001CD1500014B
:10100000C26FFF0E0001CE150001C36FFF0E00017D
:10101000CF150001C46F7F0E0001D0150001C56F10
:101020000001C2510001C3110001C4110001C5112A
:10103000D8A403D00001BAA103D0010E0001D26FE1
:101040000001D2510001D8B423D0010E0001BA270B
:10105000000EBB23BC23BD230001BDA119D0BAC023
:10106000C2F0BBC0C3F0BCC0C4F0BDC0C5F000013D
:10107000C535C533C433C333C233C2C0BAF0C3C0ED
:10108000BBF0C4C0BCF0C5C0BDF00001CB4BCC2B45
:101090000001CCBF14D00001CC5104E10001CB29E8
:1010A000D8A00DD0000E0001CC6FCB69000E00015E
:1010B000BA6F000EBB6F000EBC6F000EBD6F00015B
:1010C000CCBF07D00001CC5115E10001CB05D8B051
:1010D00011D0000E0001CC6F000ECB6F000E00018E
:1010E000BA6F000EBB6F000EBC6F000EBD6F000E1E
:1010F0000001C66FCBC0D1F00001D1A103D0000127
:10110000BC8F02D00001BC9F0001D890D1310001FA
:10111000BD6F0001C6510001BD13BAC0BAF0BBC01B
:10112000BBF0BCC0BCF0BDC0BDF01200080E000199
:10113000C9250001C66F000E0001CA210001C76F5A
:10114000000E0001C86FAEECA3F00001E06F0001DB
:10115000E0510001CC6FCD6B0E0ED8900001CC3762
:10116000CD37E82EFAD70001E0510001CE6FCF6BEA
:101170000C0ED8900001CE37CF37E82EFAD70001F9
:10118000E0510001D06FD16B0A0ED8900001D0372A
:10119000D137E82EFAD70001E0510001D36FD26BAE
:1011A0000001E0510001D46FD56B060ED89000010C
:1011B000D437D537E82EFAD70001E0510001D66FB9
:1011C000D76B0001D63BD73BF00ED717D6510F0B8C
:1011D000D713F00ED6170001E0510001D86FD96B7C
:1011E0000001D890D837D9370001D890D837D937EF
:1011F0000001E0510001DA6FDB6B0001D851000102
:10120000DA130001D9510001DB130001D6510001AE
:10121000DA130001D7510001DB130001D4510001A2
:10122000DA130001D5510001DB130001D251000196
:10123000DA130001D3510001DB130001D05100018A
:10124000DA130001D1510001DB130001CE5100017E
:10125000DA130001CF510001DB130001CC51000172
:10126000DA110001DC6F0001CD510001DB1100013A
:10127000DD6FE0C0DEF00001DF6B080E0001C92564
:101280000001C66F000E0001CA210001C76F010EE8
:101290000001C86FAEECA3F00001CC6FCD6B000174
:1012A000D890CC37CD370001D890CC37CD3700015E
:1012B000CC510001DE130001CD510001DF13080EF7
:1012C0000001C9250001C66F000E0001CA210001FE
:1012D000C76F020E0001C86FAEECA3F00001CC6F27
:1012E000CD6B0001CC3BCD3BF00ECD17CC510F0B9D
:1012F000CD13F00ECC170001CC510001DE1300011C
:10130000CD510001DF13080E0001C9250001C66F91
:10131000000E0001CA210001C76F030E0001C86F53
:10132000AEECA3F00001CC6FCD6B060ED89000019F
:10133000CC37CD37E82EFAD70001CC510001DE13AF
:101340000001CD510001DF13080E0001C925000185
:10135000C66F000E0001CA210001C76F040E000114
:10136000C86FAEECA3F00001CC6F0001CC510001BE
:10137000CE6FCD6B0001CD510001DE130001CE51C7
:101380000001DF13080E0001C9250001C66F000E21
:101390000001CA210001C76F050E0001C86FAEEC45
:1013A000A3F00001CC6FCD6B0A0ED8900001CC37B2
:1013B000CD37E82EFAD70001CC510001DE13000131
:1013C000CD510001DF13080E0001C9250001C66FD1
:1013D000000E0001CA210001C76F060E0001C86F90
:1013E000AEECA3F00001CC6FCD6B0C0ED8900001D9
:1013F000CC37CD37E82EFAD70001CC510001DE13EF
:101400000001CD510001DF13080E0001C9250001C4
:10141000C66F000E0001CA210001C76F070E000150
:10142000C86FAEECA3F00001CC6FCD6B0E0ED89060
:101430000001CC37CD37E82EFAD70001CC5100019E
:10144000DE130001CD510001DF130001DE51000168
:10145000DC1948E10001DF510001DD19D8A41200B8
:1014600032D0000120EE02F0C951D926CA51DA2249
:10147000DECFBAF0DDCFBBF0CBC0BCF0A8ECA5F05E
:1014800012000001CB1F000120EE02F0C951D92645
:10149000CA51DA22DECFBAF0DDCFBBF0CBC0BCF050
:1014A000A8ECA5F01200000120EE04F0C951D926E5
:1014B000CA51DA22DECFBAF0DDCFBBF0CBC0BCF030
:1014C000A8ECA5F012000001E051000AD8B4120007
:1014D000010AD8B4C6D7030AD8B4D3D7010AD8A40E
:1014E0001200E1D712000001BA6F7ED03F0E120049
:1014F000060E12005B0E12004F0E1200660E120056
:101500006D0E12007D0E1200070E12007F0E1200EB
:101510006F0E12005F0E12007C0E1200580E1200A9
:101520005E0E12007B0E1200710E12006F0E120082
:10153000740E1200040E12000E0E12007A0E12002B
:10154000060E1200140E1200540E12005C0E120051
:10155000730E1200670E1200500E12006D0E120074
:10156000780E12001C0E1200620E12002A0E1200DB
:10157000640E12006E0E12005B0E1200770E120047
:101580007F0E1200390E12003F0E1200790E12006B
:10159000710E12003D0E1200760E1200060E1200A1
:1015A0001E0E1200570E1200380E1200760E120098
:1015B000760E12003F0E1200730E12003F0E120044
:1015C000770E12006D0E1200310E12003E0E120048
:1015D0003E0E12007E0E1200760E1200660E1200F3
:1015E0005B0E1200800E12000001BA512E0AD8B410
:1015F000F9D71E0AD8B47AD7010AD8B479D7030A22
:10160000D8B478D7010AD8B477D7070AD8B476D730
:10161000010AD8B475D7030AD8B474D7010AD8B46C
:1016200073D70F0AD8B472D7010AD8B471D7780A21
:10163000D8B4A4D7030AD8B4A3D7010AD8B4A2D780
:10164000070AD8B4A1D7010AD8B4A0D7030AD8B4DE
:101650009FD7010AD8B49ED70F0AD8B49DD7010AE4
:10166000D8B49CD7030AD8B49BD7010AD8B49AD768
:10167000070AD8B499D7010AD8B498D7030AD8B4BE
:1016800097D7010AD8B496D71F0AD8B495D7010ABC
:10169000D8B494D7030AD8B493D7010AD8B492D750
:1016A000070AD8B491D7010AD8B490D7030AD8B49E
:1016B0008FD7010AD8B48ED70F0AD8B48DD7010AB4
:1016C000D8B48CD7030AD8B48BD73B0AD8B422D766
:1016D000030AD8B421D7010AD8B420D7070AD8B44E
:1016E0001FD7010AD8B41ED7030AD8B41DD7010AE0
:1016F000D8B41CD70F0AD8B41BD7010AD8B41AD74C
:10170000030AD8B419D7010AD8B418D7070AD8B42D
:1017100017D7010AD8B416D7030AD8B415D7010AC7
:10172000D8B414D71F0AD8B413D7010AD8B412D723
:10173000030AD8B411D7010AD8B410D7070AD8B40D
:101740000FD7010AD8B40ED7030AD8B40DD7010AAF
:10175000D8B40CD70F0AD8B40BD7010AD8B40AD71B
:10176000030AD8B409D7000E1200050E0001F46F69
:10177000C7D0000120EE02F0F051D926F151DA2253
:10178000DECFC5F0DDCFC6F0F2C0C7F00F0E00010E
:10179000C86FC1ECA4F0000120EE04F0F051D9268E
:1017A000F151DA22DECFC5F0DDCFC6F0F2C0C7F0CE
:1017B000000E0001C86FC1ECA4F0B0D0F0C0E9F099
:1017C000F1C0EAF0F2C0EBF0030E0001EC6F66EC42
:1017D000A1F00001F46F0001F451D8A4120000013F
:1017E00020EE02F0F051D926F151DA22DECFC5F019
:1017F000DDCFC6F0F2C0C7F0000E0001C86FC1EC2B
:10180000A4F0000120EE04F0F051D926F151DA22C3
:10181000DECFC5F0DDCFC6F0F2C0C7F0000E00018C
:10182000C86FC1ECA4F07AD0F0C0E9F0F1C0EAF0E2
:10183000F2C0EBF0030E0001EC6F66ECA1F00001CA
:10184000F46F0001F451D8A41200000120EE02F060
:10185000F051D926F151DA22DECFC5F0DDCFC6F046
:10186000F2C0C7F00F0E0001C86FC1ECA4F0000178
:1018700020EE04F0F051D926F151DA22DECFC5F086
:10188000DDCFC6F0F2C0C7F00F0E0001C86FC1EC8B
:10189000A4F044D0F0C0E9F0F1C0EAF0F2C0EBF0FF
:1018A000030E0001EC6F66ECA1F00001F46F000183
:1018B000F451D8A41200000120EE02F0F051D92614
:1018C000F151DA22DECFC5F0DDCFC6F0F2C0C7F0AD
:1018D000000E0001C86FC1ECA4F0000120EE04F07E
:1018E000F051D926F151DA22DECFC5F0DDCFC6F0B6
:1018F000F2C0C7F0000E0001C86FC1ECA4F00ED01A
:101900000001F351000AD8B434D7010AD8B456D72D
:10191000030AD8B489D7010AD8B4BCD7080E00018D
:10192000F0250001C96F000E0001F1210001CA6F0E
:101930000001F251040DF3CFCBF0F3C0CCF0EDEC8D
:10194000A2F0080E0001F0250001C96F000E000191
:10195000F1210001CA6F0001F251040DF3280001CA
:10196000CB6FF3C0CCF0EDECA2F0080E0001F02537
:101970000001C96F000E0001F1210001CA6F0001D2
:10198000F251040DF350020F0001CB6FF3C0CCF005
:10199000EDECA2F0080E0001F0250001C96F000E69
:1019A0000001F1210001CA6F0001F251040DF35052
:1019B000030F0001CB6FF3C0CCF0EDECA2F01200EE
:1019C000050E0001F96F7AD0000120EE02F0F4510B
:1019D000D926F551DA22DECFF7F0DDCFF8F0F7C0E7
:1019E000D9FFF8C0DAFFFF0E67D0F4C0F0F0F5C001
:1019F000F1F0010E0001F26F5EECA2F00001F96F50
:101A00000001F951D8A41200000120EE02F0F451B7
:101A1000D926F551DA22DECFF7F0DDCFF8F0F7C0A6
:101A2000D9FFF8C0DAFF000EDF6E000120EE04F0EF
:101A300036D0F4C0F0F0F5C0F1F0020E0001F26F04
:101A40005EECA2F00001F96F0001F951D8A4120078
:101A5000000120EE02F0F451D926F551DA22DECF52
:101A6000F7F0DDCFF8F0F7C0D9FFF8C0DAFFFF0ECE
:101A7000DF6E000120EE04F0AAD7F4C0F0F0F5C04C
:101A8000F1F0000E0001F26F5EECA2F00001F96FC0
:101A90000001F951D8A41200000120EE02F0F45127
:101AA000D926F551DA22DECFF7F0DDCFF8F0F7C016
:101AB000D9FFF8C0DAFF000EDF6E0ED00001F6513C
:101AC000000AD8B481D7010AD8B48FD7030AD8B492
:101AD000B0D7010AD8B4D1D7080E0001F42500010F
:101AE000C96F000E0001F5210001CA6F000E000150
:101AF000CB6FF6C0CCF0EDECA2F0080E0001F4259F
:101B00000001C96F000E0001F5210001CA6F010E2E
:101B10000001CB6FF6C0CCF0EDECA2F0080E000196
:101B2000F4250001C96F000E0001F5210001CA6F04
:101B3000020E0001CB6FF6C0CCF0EDECA2F0080E67
:101B40000001F4250001C96F000E0001F52100011C
:101B5000CA6F030E0001CB6FF6C0CCF0EDECA2F023
:101B6000080E0001F4250001C96F000E0001F521E7
:101B70000001CA6F040E0001CB6FF6C0CCF0EDEC93
:101B8000A2F0080E0001F4250001C96F000E00014B
:101B9000F5210001CA6F050E0001CB6FF6C0CCF035
:101BA000EDECA2F0080E0001F4250001C96F000E53
:101BB0000001F5210001CA6F060E0001CB6FF6C0CF
:101BC000CCF0EDECA2F0080E0001F4250001C96F85
:101BD000000E0001F5210001CA6F070E0001CB6F56
:101BE000F6C0CCF0EDECA2F01200700E0201AA6F6C
:101BF000010E0201AB6F000E0201AD6F020EAC6F61
:101C0000D00E0201AE6F4B0E0201AF6F010E02014A
:101C1000B06F000E0201B16F000E0201B26F000E34
:101C20000201B36F000E0201B46F000E0201B56F26
:101C3000000E0201B66F28EC98F0520E0201AA6F56
:101C4000010E0201AB6F000E0201AD6F020EAC6F10
:101C5000D00E0201AE6F4B0E0201AF6F010E0201FA
:101C6000B06F000E0201B16F000E0201B26F000EE4
:101C70000201B36F000E0201B46F000E0201B56FD6
:101C8000000E0201B66F28EC98F0480E0201AA6F10
:101C9000010E0201AB6F000E0201AD6F020EAC6FC0
:101CA000D00E0201AE6F4B0E0201AF6F010E0201AA
:101CB000B06F000E0201B16F000E0201B26F000E94
:101CC0000201B36F000E0201B46F000E0201B56F86
:101CD000000E0201B66F28EC98F05C0E0201AA6FAC
:101CE000010E0201AB6F000E0201AD6F020EAC6F70
:101CF000D00E0201AE6F4B0E0201AF6F010E02015A
:101D0000B06F000E0201B16F000E0201B26F000E43
:101D10000201B36F000E0201B46F000E0201B56F35
:101D2000000E0201B66F28EC98F0660E0201AA6F51
:101D3000010E0201AB6F000E0201AD6F020EAC6F1F
:101D4000D00E0201AE6F4B0E0201AF6F010E020109
:101D5000B06F000E0201B16F000E0201B26F000EF3
:101D60000201B36F000E0201B46F000E0201B56FE5
:101D7000000E0201B66F28EC98F0A00E0001E76F8C
:101D8000860EE86F010EE96F000EEA6F000E00018B
:101D9000EB6F020E0001EC6FA7EC84F07A0E0001ED
:101DA000C96F010E0001CA6F8AEC9FF0000E00019E
:101DB000F66F000EF56F0001F65113E1080E0001F9
:101DC000F55DD8B01200400E0001F525D96E010E68
:101DD0000001F621DA6E000EDF6E0001F54BF62BE6
:101DE000EAD712000001C26F0001C2510001D8B44D
:101DF0001ED00001BDAF1BD0BAC0BEF0BBC0BFF04B
:101E0000BCC0C0F0BDC0C1F00001BE1FBF1FC01FDD
:101E1000C11FBE2B000EBF23C023C123BEC0C4F010
:101E2000BFC0C5F0C0C0C6F0C1C0C7F008D0BAC0BE
:101E3000C4F0BBC0C5F0BCC0C6F0BDC0C7F0000157
:101E4000BA510001BB110001BC110001BD11D8A4A1
:101E50000AD0000E0001BA6F000EBB6F000EBC6FFF
:101E6000000EBD6F1200960E0001C36F08D0000176
:101E7000C32B0001D890C733C633C533C433000E1B
:101E80000001C4150001BE6F000E0001C515000160
:101E9000BF6F000E0001C6150001C06FFE0E0001ED
:101EA000C7150001C16F0001BE510001BF11000143
:101EB000C0110001C111D8B410D0D9D70001C32B73
:101EC000010E0001C427000EC523C623C72300014D
:101ED000D890C733C633C533C433000E0001C415D0
:101EE0000001BE6F000E0001C5150001BF6F000E9E
:101EF0000001C6150001C06FFF0E0001C7150001EB
:101F0000C16F0001BE510001BF110001C0110001ED
:101F1000C111D8B409D0D2D70001C3070001D890AD
:101F2000C437C537C637C7370001C6BF04D0020E55
:101F30000001C361F1D70001C3B109D0FF0E000158
:101F4000C417FF0EC5177F0EC617FF0EC717000177
:101F5000D890C333C3C0BEF00001BF6BC06BC16B70
:101F6000BEC0C1F00001C06BBF6BBE6B0001BE51B3
:101F70000001C4130001BF510001C5130001C0518D
:101F80000001C6130001C1510001C7130001C25175
:101F90000001D8B405D00001BDAF02D00001C78F49
:101FA000C4C0BAF0C5C0BBF0C6C0BCF0C7C0BDF06D
:101FB0001200E0C0D9FFE1C0DAFFDECFE5F0DDCFEF
:101FC000E6F0050E0001E46FB5D0000120EE02F04E
:101FD000E051D926E151DA22DECFBAF0DDCFBBF0F5
:101FE000E2C0BCF0010E0001BD6FD2ECA0F0B0D099
:101FF000E5C0C9F0E6C0CAF0010E0001CB6FE2C037
:10200000CCF05DEC9EF00001E46F0001E451D8A437
:102010001200000120EE02F0E051D926E151DA224F
:10202000DECFBAF0DDCFBBF0E2C0BCF0000E0001A5
:10203000BD6FD2ECA0F0000120EE04F0E051D926F3
:10204000E151DA22DECFBAF0DDCFBBF0E2C0BCF066
:10205000000E0001BD6FD2ECA0F07AD0E5C0C9F04F
:10206000E6C0CAF0020E0001CB6FE2C0CCF05DEC1E
:102070009EF00001E46F0001E451D8A412000001B9
:1020800020EE02F0E051D926E151DA22DECFBAF09B
:10209000DDCFBBF0E2C0BCF0010E0001BD6FD2ECA1
:1020A000A0F0000120EE04F0E051D926E151DA223F
:1020B000DECFBAF0DDCFBBF0E2C0BCF0010E000114
:1020C000BD6FD2ECA0F044D0E5C0C9F0E6C0CAF0C4
:1020D000000E0001CB6FE2C0CCF05DEC9EF0000181
:1020E000E46F0001E451D8A41200000120EE02F0D8
:1020F000E051D926E151DA22DECFBAF0DDCFBBF0D4
:10210000E2C0BCF0000E0001BD6FD2ECA0F00001F7
:1021100020EE04F0E051D926E151DA22DECFBAF008
:10212000DDCFBBF0E2C0BCF0000E0001BD6FD2EC11
:10213000A0F00ED00001E351000AD8B446D7010A3E
:10214000D8B456D7030AD8B489D7010AD8B4BCD7B3
:10215000080E0001E0250001C96F000E0001E12119
:102160000001CA6FE2C0CBF0E3C0CCF0EDECA2F00E
:1021700012000101FE51C9EC9BF0FCC1D9FFFDC169
:10218000DAFF0001BAC0DEFF0001BBC0DDFF0101C4
:10219000FE511CEC9CF0010120EE06F0FC51D9260A
:1021A000FD51DA220001BAC0DEFF0001BBC0DDFF35
:1021B0000101FE511CEC9CF0010120EE04F0FC51E9
:1021C000D926FD51DA220001BAC0DEFF0001BBC0F2
:1021D000DDFF0101FE5176EC9BF0010120EE02F0E3
:1021E000FC51D926FD51DA220001BAC0DEFF000100
:1021F000BBC0DDFF010120EE04F0FC51D926FD51EA
:10220000DA22DECFAAF2DDCFABF2AAC2D9FFABC28F
:10221000DAFF000EDF6E010120EE02F0FC51D9263C
:10222000FD51DA22DECFAAF2DDCFABF2AAC2D9FF8E
:10223000ABC2DAFFFF0EDF6EFCC1F4F0FDC1F5F0BA
:10224000000E0001F66FE0EC8CF0000E0101FF6F54
:10225000070E0101FF6531D04BD0FCC1E0F0FDC19C
:10226000E1F0FFC1E2F0030E0001E36FD9EC8FF063
:102270003CD0FCC1E0F0FDC1E1F0FFC1E2F0020E94
:102280000001E36FD9EC8FF030D0FCC1E0F0FDC16C
:10229000E1F0FFC1E2F0010E0001E36FD9EC8FF035
:1022A00024D0FCC1E0F0FDC1E1F0FFC1E2F0000E7E
:1022B0000001E36FD9EC8FF018D0FCC1D9FFFDC14C
:1022C000DAFFDECFC6F0DDCFC7F0FFC1C8F0AEEC5D
:1022D000A3F0000AD8B4C1D7010AD8B4D6D7030AEC
:1022E000D8B4C7D7010AD8B4DCD70101FF2BB0D7C7
:1022F000FCC1C9F0FDC1CAF0000E0001CB6F96EC25
:1023000088F01200010E4C6E000E0001636F000E8B
:102310000001646F000E0001656FB80E0101FC6FD3
:10232000010E0101FD6F000E0101FE6FB9EC90F08E
:10233000AE0E0101FC6F010E0101FD6F010E0101E6
:10234000FE6FB9EC90F0A40E0101FC6F000E0101CC
:10235000FD6F020E0101FE6FB9EC90F09A0E0101C3
:10236000FC6F000E0101FD6F030E0101FE6FB9EC61
:1023700090F0900E0101FC6F000E0101FD6F040E44
:102380000101FE6FB9EC90F0C20E0101FC6F010E6D
:102390000101FD6F050E0101FE6FB9EC90F0A40E76
:1023A0000101FC6F010E0101FD6F060E0101FE6FC0
:1023B000B9EC90F0C20E0001E06F010E0001E16F78
:1023C000050E0001E26F000E0001E36FD9EC8FF003
:1023D000AE0E0001F06F010E0001F16F000E000162
:1023E000F26F000E0001F36FB5EC8BF0C20E00012E
:1023F000E06F010E0001E16F060E0001E26F030EB7
:102400000001E36FD9EC8FF0A40E0001F46F010E10
:102410000001F56F030E0001F66FE0EC8CF0A40EE6
:102420000001C96F010E0001CA6F040E0001CB6FDD
:10243000000E0001CC6FF5EC98F0C20E0001C96FE0
:10244000010E0001CA6F060E0001CB6F010E0001E4
:10245000CC6FF5EC98F0000E35ECA1F0010E35ECE8
:10246000A1F0000E9E6E000EA16E000EA46E9B8E5B
:102470009B8C000E0001BB6F640EBA6F68ECA0F07D
:10248000D08E1200C4EC9FF0000E0001F26F000E1F
:10249000F16F0001F25106E1590E0001F15DD8B073
:1024A0008BD001D089D0D8900001F135F66E0001B3
:1024B000F235F76EF30EF626FC0EF722F86A000EE0
:1024C000F8220900800EF5180900F510D8A422D0D2
:1024D0000001F2511FE1580E0001F15DD8B01AD091
:1024E0000001F14BF22BD8900001F135F66E00019E
:1024F000F235F76EF30EF626FC0EF722F86A000EA0
:10250000F8220900F5CFBAF00A00F5CFBBF068EC6D
:10251000A0F04BD0D8900001F135F66E0001F235F5
:10252000F76EF30EF626FC0EF722F86A000EF8227C
:102530000900000EF55E0900010EF55AD8A020D062
:10254000000E0001BD6FD8900001F135F66E00015C
:10255000F235F76EF30EF626FC0EF722F86A000E3F
:10256000F8220900F5CFEFF00900F5CFF0F0F0C048
:10257000EFF00001F06B0001EF519FECA4F015D0DB
:10258000010E0001BD6FD8900001F135F66E00011B
:10259000F235F76EF30EF626FC0EF722F86A000EFF
:1025A000F8220800F5509FECA4F00001F14BF22B4B
:1025B0000001F25101E170D7000E0001BB6F640E03
:1025C000BA6F68ECA0F0000E0001BD6F290E9FEC01
:1025D000A4F0010EBDEC9CF0000E0001BB6F640E78
:1025E000BA6F68ECA0F0000E0001C46F000EC36F5C
:1025F00093ECA1F01200800E0001CD6F8D0ECE6F16
:102600005B0ECF6F000ED06FD59E0001C751000149
:10261000C8110001C9110001CA11D8B41200D59621
:10262000D59CD59AD598CDC0BAF0CEC0BBF0CFC05E
:10263000BCF0D0C0BDF0C7C0BEF0C8C0BFF0C9C0BC
:10264000C0F0CAC0C1F0B6EC99F0BAC0D1F0BBC0BE
:10265000D2F0BCC0D3F0BDC0D4F00CD000018E2BA2
:10266000020E00018E6501D02FD0070E00018E658D
:1026700001D01200D1C0BAF0D2C0BBF0D3C0BCF0C0
:10268000D4C0BDF000018E51020DA50EF324F66EEC
:10269000FD0EF420F76EF86A000EF8220900F5CF5F
:1026A000CBF00900F5CFCCF0CBC0BEF0CCC0BFF072
:1026B0000001C06BC16BB6EC99F00001BD51CEE1D9
:1026C0000001BC05D8B0CAD700018E51020DA50E7D
:1026D000F324F66EFD0EF420F76EF86A000EF82271
:1026E0000800F5CF8DF0FF0E0001D12501012A6F02
:1026F000FF0E0001D22101012B6FFF0E0001D3213B
:1027000001012C6FFF0E0001D42101012D6F2AC1A0
:10271000BAF02BC1BBF02CC1BCF02DC1BDF0000143
:102720008D510001BE6FBF6BC06BC16BB6EC99F0F1
:102730000001BA1F0001BB1F0001BA4BBB2BFF0EEB
:102740000001BA250001756FFF0E0001BB210001D9
:10275000766FC3ECA5F0D58E1200000E0001D06F8D
:102760006C0ED16FDC0ED26F020ED36F0001D890C9
:10277000C737C837C937CA37020E0001CB6FD890A8
:102780000001D333D233D133D0330001CB2FF7D76D
:10279000D0C0BAF0D1C0BBF0D2C0BCF0D3C0BDF045
:1027A000C7C0BEF0C8C0BFF0C9C0C0F0CAC0C1F049
:1027B000B6EC99F0BAC0D4F0BBC0D5F0BCC0D6F02E
:1027C000BDC0D7F010D0000E0001CC6F000ECD6F51
:1027D000000ECE6F000ECF6F00018C2B020E000199
:1027E0008C6501D026D0D4C0BAF0D5C0BBF0D6C01D
:1027F000BCF0D7C0BDF000018C51010DDC0EF324FC
:10280000F66EFD0EF420F76EF86A000EF82208004E
:10281000F5500001BE6FBF6BC06BC16BB6EC99F099
:102820000001BD510001BC11CEE10001BB05D8B0D3
:10283000CAD7CA5000018C19FC0B8C19CA6ECA8405
:10284000DAECA5F000018C51010DDC0EF324F66EDC
:10285000FD0EF420F76EF86A000EF8220800F5CF9E
:102860008BF0FF0E0001D4250101266FFF0E000141
:10287000D5210101276FFF0E0001D6210101286F2C
:10288000FF0E0001D7210101296F26C1BAF027C12F
:10289000BBF028C1BCF029C1BDF000018B51000183
:1028A000BE6FBF6BC06BC16BB6EC99F00001BA5143
:1028B00000018C6F8CC0CBFF120051B2F8EF95F085
:1028C000000120EE04F07751D9267851DA22DF504A
:1028D00010ECA3F00009D8B47AD077C0D9FF78C043
:1028E000DAFFDE50DE10D8B46DD077C0D9FF78C0E3
:1028F000DAFF010EDBBE26D0010EDB5003E1DE0461
:10290000D8A020D077C0D9FF78C0DAFFDE2804E154
:102910007F0EDE18D8B407D077C0D9FF78C0DAFFB1
:10292000DE06000EDD5A900E0001C96F000E000198
:10293000CA6F000E0001CB6F010E0001CC6FF5ECE9
:1029400098F01FD077C0D9FF78C0DAFFDE0404E129
:10295000800EDE18D8B407D077C0D9FF78C0DAFF70
:10296000DE2A000EDD22900E0001C96F000E00016C
:10297000CA6F000E0001CB6F000E0001CC6FF5ECAA
:1029800098F0900E0001C96F000E0001CA6F010E91
:102990000001CB6F010E0001CC6FF5EC98F0900EAA
:1029A0000001C96F000E0001CA6F010E0001CB6F5C
:1029B000000E0001CC6FF5EC98F04BECA5F0C9ECE3
:1029C000A5F012004BECA5F0E5ECA5F0120066C0F6
:1029D000BAF067C0BBF068C0BCF0AFECA5F0120065
:1029E0000001BC35BD350001C36F0001C351D8A43F
:1029F0000AD0000E0001BA6F000EBB6F000EBC6F54
:102A0000000EBD6F1200BAC0BEF0BBC0BFF0BCC0AC
:102A1000C0F0BDC0C1F0200E06D00001D890C13377
:102A2000C033BF33BE33E82EF8D70001BE510001DA
:102A3000C26F0001BC8FFF0E0001BA17FF0EBB175B
:102A4000FF0EBC17000EBD17960E0001C35F0001FC
:102A5000C3AF1AD00001C351800A970FD8B00AD073
:102A6000000E0001BA6F000EBB6F000EBC6F000EAF
:102A7000BD6F12000001D890BD33BC33BB33BA33F5
:102A80000001C33FF7D71BD01F0E0001C36512D052
:102A9000000E0001BA6F000EBB6F000EBC6F000E7F
:102AA000BD6F12000001D890BA37BB37BC37BD37B5
:102AB0000001C3070001C3510001D8A4F3D70001EE
:102AC000C2510001D8B409D00001BD1FBC1FBB1FFB
:102AD000BA6D000EBB23BC23BD23BAC0BAF0BBC085
:102AE000BBF0BCC0BCF0BDC0BDF01200000E0201C6
:102AF000B16F000EB26F000EB36F000EB46F140E04
:102B00000201B06F000E0201AF6F000EAE6F48D031
:102B1000B50E0001BC6F000E0001BD6FDAEC9DF038
:102B2000B50E0001D36F000E0001D46F51EC97F089
:102B3000D3C0AAF2D4C0ABF2D5C0ACF2D6C0ADF2CD
:102B4000B1C2E5F0B2C2E6F0B3C2E7F0B4C2E8F059
:102B5000AAC2BEF0ABC2BFF0ACC2C0F0ADC2C1F001
:102B6000000E0001BA6F800EBB6F130EBC6F440ED7
:102B7000BD6FB6EC86F0BAC0E9F0BBC0EAF0BCC0ED
:102B8000EBF0BDC0ECF000EC80F0E5C0B1F2E6C0C7
:102B9000B2F2E7C0B3F2E8C0B4F20201AE4BAF2B21
:102BA0000201B0510101FC6FFD6B0201AE51010148
:102BB000FC5D0201AF510101FD59D8B0A9D7B1C2E6
:102BC000BAF0B2C2BBF0B3C2BCF0B4C2BDF0F0EC1C
:102BD00094F0BAC0C4F0BBC0C5F0B0C2C6F00001EA
:102BE000C76B57EC99F0C4C06DF0C5C06EF0120011
:102BF000000120EE04F07751D9267851DA22DF5017
:102C0000CDECA3F00009D8B46AD077C0D9FF78C062
:102C1000DAFFDE50DE10D8B45DD077C0D9FF78C0BF
:102C2000DAFF010EDBBE22D0010EDB5003E1DE0431
:102C3000D8A01CD077C0D9FF78C0DAFFDE2804E125
:102C40007F0EDE18D8B407D077C0D9FF78C0DAFF7E
:102C5000DE06000EDD5A900E106E000E116E000E94
:102C6000126E010E136E21EC9BF01BD077C0D9FFC2
:102C700078C0DAFFDE0404E1800EDE18D8B407D095
:102C800077C0D9FF78C0DAFFDE2A000EDD22900E71
:102C9000106E000E116E000E126E000E136E21ECFF
:102CA0009BF0900E106E000E116E010E126E010E52
:102CB000136E21EC9BF0900E106E000E116E010E43
:102CC000126E000E136E21EC9BF0F1ECA5F0CFEC30
:102CD000A5F01200F1ECA5F0EEECA5F0120066C034
:102CE00001F067C002F068C003F0B6ECA5F0120076
:102CF000240EF66E310EF76E010EF86E03EE00F044
:102D000010EEC6F00900F5CFEEFFE550E150FAE114
:102D10007A0EF66E4B0EF76E010EF86E01EEF0F0C5
:102D200010EE0CF00900F5CFEEFFE550E150FAE1AE
:102D3000C40EF66E4B0EF76E010EF86E00EEFAF052
:102D400010EE06F00900F5CFEEFFE550E150FAE194
:102D5000240EF66E4B0EF76E010EF86E00EE42F08A
:102D600010EE0FF00900F5CFEEFFE550E150FAE16B
:102D700004EE63F011EE2CF0EE6AE550E150FCE158
:102D8000E250FAE104EE00F0630EEE6AE806FDE1BF
:102D900002EE00F0AA0EEE6AE806FDE101EE00F098
:102DA000F00EEE6AE806FDE100EE60F05A0EEE6A03
:102DB000E806FDE100EE29F0190EEE6AE806FDE1F5
:102DC00051905192000174EFA5F0C1C0C9F0C2C08A
:102DD000CAF0000E0001C86F000EC76FC3C0C5F077
:102DE000C4C0C6F00001C9510001CA11D8A434D032
:102DF000C5C0D9FFC6C0DAFF300EDF6E000E00017D
:102E0000C86F010EC76F40D0C9C0BAF0CAC0BBF0CE
:102E1000000E0001BD6F0A0EBC6F04ECA1F00001B2
:102E2000BA51300FC5C0D9FFC6C0DAFFDF6EC9C0C6
:102E3000BAF0CAC0BBF0000E0001BD6F0A0EBC6F35
:102E4000D9EC9EF0BAC0C9F0BBC0CAF00001C74BB4
:102E5000C82B0001C54BC62B0001C9510001CA1186
:102E6000D8B408D00001C85105E1060E0001C75DC5
:102E7000D8A0CAD7C3C0BAF0C4C0BBF0C7C0BCF0AA
:102E8000C8C0BDF0FCEC9FF00001C7510001C32594
:102E9000D96E0001C8510001C421DA6E000EDF6E48
:102EA0001200000E0001D96F000EDA6F800EDB6F8A
:102EB000440EDC6F330E0001DD6F330EDE6F530EF8
:102EC000DF6F400EE06F000120EE01F0D351D926F4
:102ED000D451DA22DECFD7F0DDCFD8F0D7C0BAF0A8
:102EE000D8C0BBF00001BC6BBD6B000EF2EC8EF0E5
:102EF000BAC0E1F0BBC0E2F0BCC0E3F0BDC0E4F09A
:102F0000E1C0BAF0E2C0BBF0E3C0BCF0E4C0BDF089
:102F1000D9C0BEF0DAC0BFF0DBC0C0F0DCC0C1F089
:102F2000B6EC86F0BAC0E1F0BBC0E2F0BCC0E3F0A2
:102F3000BDC0E4F0E1C0BAF0E2C0BBF0E3C0BCF059
:102F4000E4C0BDF0DDC0BEF0DEC0BFF0DFC0C0F049
:102F5000E0C0C1F054EC82F0BAC0E1F0BBC0E2F0D6
:102F6000BCC0E3F0BDC0E4F0E1C0D3F0E2C0D4F0F7
:102F7000E3C0D5F0E4C0D6F01200E7C0D9FFE8C046
:102F8000DAFF000EDE6E000EDD6E000120EE02F0B4
:102F9000E751D926E851DA22000EDE6E000EDD6E12
:102FA000000120EE04F0E751D926E851DA22E9C009
:102FB000DEFFEAC0DDFF900E0001E06F000E0001B1
:102FC000E16F000E0001E26F030E0001E36FD9EC28
:102FD0008FF0900E0001E06F000E0001E16F010E16
:102FE0000001E26F030E0001E36FD9EC8FF0900E49
:102FF0000001C96F000E0001CA6F000E0001CB6F07
:10300000000E0001CC6FF5EC98F0900E0001C96F36
:10301000000E0001CA6F010E0001CB6F000E00010F
:10302000CC6FF5EC98F0BA0E0001666F280E000127
:10303000676F010E0001686FE80E0001C76F030E95
:10304000C86F000EC96F000ECA6FFBEC92F0120041
:103050000201AA510201AB11D8B412000201AE5113
:103060000201AF110201B011D8B412000201B15136
:103070000201B2110201B311D8B412000201B4511D
:103080000201B5110201B611D8B412000201AC510F
:103090000201AD11D8A405D0000E0201AD6F010EE2
:1030A000AC6FAAC2D9FFABC2DAFF000EDF6E02011D
:1030B00020EE01F0AA51D926AB51DA22000EDF6EC4
:1030C000020120EE02F0AA51D926AB51DA22ACC29D
:1030D000DEFFADC2DDFF020120EE04F0AA51D926C9
:1030E000AB51DA22B4C2DEFFB5C2DEFFB6C2DEFFEC
:1030F000020120EE07F0AA51D926AB51DA22B1C263
:10310000DEFFB2C2DEFFB3C2DEFF01D8120005004F
:10311000FA6E0201AE51FD6EAF51FE6EB051FF6E00
:10312000FA5012009B009B009B009B009B009B00A1
:103130009B009B009B009B009B009B009A009A00B9
:103140009A009B009A009B0000009A009A009B0046
:103150009B009A009B009B009B009A009B009B0099
:103160009B009A009B009B009A009A009A009A008C
:103170009A009A009A009A009A009B009B009B007C
:103180009B009B009B009A009B009B009B009A0069
:103190009B009B009A009A009A009B009A009B005B
:1031A0009A009A009A009B009B009A009B009A004C
:1031B0009B009A009B009B009B009A009B009B0039
:1031C0009A009B009A009A009A009A009A009A002E
:1031D0009A009B009B009B009B009B009B009B0018
:1031E0009B009B009B009B009B00080E0001C925D3
:1031F0000001C66F000E0001CA210001C76FCBC0DD
:10320000C8F0AEECA3F00001CD6F42D0010E00017A
:10321000CC17000120EE02F0C951D926CA51DA229A
:10322000DECFBAF0DDCFBBF0CBC0BCF0CCC0BDF080
:10323000D2ECA0F01200010E0001CC17010E00012B
:10324000CC1B000120EE02F0C951D926CA51DA2266
:10325000DECFBAF0DDCFBBF0CBC0BCF0CCC0BDF050
:10326000D2ECA0F01200010E0001CC17000120EEFC
:1032700004F0C951D926CA51DA22DECFBAF0DDCF27
:10328000BBF0CBC0BCF0CCC0BDF0D2ECA0F01200C3
:103290000001CD51000AD8B41200010AD8B4B6D743
:1032A000030AD8B4C8D7010AD8A41200DCD7000E8C
:1032B0000001C96F0001C7AF08D00001C66DC71F6C
:1032C000D8B0C72B010E0001C96F0001C5AF08D0EF
:1032D0000001C46DC51FD8B0C52B010E0001C91B6C
:1032E000000E0001CB6F000ECA6F0001C651000135
:1032F000C711D8B42CD0010E0001C86F06D0000150
:10330000D890C637C7370001C82B0001C7AFF7D721
:103310000001D890CA37CB370001C6510001C45D07
:103320000001C7510001C559D8A00AD00001C651FB
:103330000001C45F0001C7510001C55B0001CA81E3
:103340000001D890C733C6330001C82FE1D7000170
:10335000C9510001D8B405D00001CA6DCB1FD8B047
:10336000CB2BCAC0C4F0CBC0C5F01200000E0001C8
:10337000C26F000EC36F000EC46F000EC56F000158
:10338000BE510001BF110001C0110001C111D8B42C
:1033900042D0010E0001C66F08D00001D890BE37A0
:1033A000BF37C037C1370001C62B0001C1AFF5D709
:1033B0000001D890C237C337C437C5370001BE51AA
:1033C0000001BA5D0001BF510001BB590001C051AD
:1033D0000001BC590001C1510001BD59D8A012D053
:1033E0000001BE510001BA5F0001BF510001BB5B8B
:1033F0000001C0510001BC5B0001C1510001BD5B77
:103400000001C2810001D890C133C033BF33BE3345
:103410000001C62FCDD7C2C0BAF0C3C0BBF0C4C034
:10342000BCF0C5C0BDF01200000E0001BF6F000E61
:10343000BE6F38D0400E0001BE25D96E010E0001CE
:10344000BF21DA6EBBC0E1FFBCC0E2FFE75073EC06
:103450008AF0DF6E400E0001BE25D96E010E00011C
:10346000BF21DA6E800EDE18D8A40ED00001BE0790
:10347000D8A0BF07400E0001BE25D96E010E000185
:10348000BF21DA6E000EDB8E0001BB4BBC2B0001AE
:10349000BE4BBF2B0001BF511AE1060E0001BE5DFD
:1034A000D8B015D0BBC0D9FFBCC0DAFFDF50D8B44C
:1034B0000ED0C0D7400E0001BE25D96E010E00010E
:1034C000BF21DA6E000EDF6E0001BE4BBF2B000184
:1034D000BF5106E1060E0001BE5DD8B01200EAD76A
:1034E00012000001BE51010DCF0EF324F66EFD0E49
:1034F000F420F76EF86A000EF8220800F5CFC4F049
:10350000000E0001C36F06D00001BC510001BD5F79
:103510000001C32B0001BC510001BD5DD8B0F4D740
:103520000001BE510001BD03F350BD6F0001C35146
:103530000001BD270001C4510001BF17BDC0C0F08C
:10354000C4C0C1F00001C02B03D00001D890C13726
:103550000001C02FFAD70001C151FF0A0001C26F5C
:10356000BAC0D9FFBBC0DAFF0001C251DF16BDC02F
:10357000C0F0BFC0C1F00001C02B03D00001D89043
:10358000C1370001C02FFAD7BAC0D9FFBBC0DAFFDC
:103590000001C151DF1212000001C26F020E0001D2
:1035A000BF27020E0001C127030E0001C227030E30
:1035B0000001C027000E0001BD6F2A0E9FECA4F091
:1035C000010E0001BD6F000E9FECA4F0010E000182
:1035D000BD6F0001C2519FECA4F0010E0001BD6F50
:1035E000000E9FECA4F0010E0001BD6F0001C05160
:1035F0009FECA4F0000E0001BD6F2B0E9FECA4F019
:10360000010E0001BD6F000E9FECA4F0010E000141
:10361000BD6F0001BF519FECA4F0010E0001BD6F12
:10362000000E9FECA4F0010E0001BD6F0001C1511E
:103630009FECA4F0000E0001BD6F2C0E9FECA4F0D7
:103640001200080E10240D6E000E11200E6E12C016
:103650000FF031ECA4F0146E3BD0010E131620EEE7
:1036600002F01050D9261150DA22DECF01F0DDCF62
:1036700002F012C003F013C004F038ECA2F0120004
:10368000010E1316010E131A20EE02F01050D92667
:103690001150DA22DECF01F0DDCF02F012C003F0CC
:1036A00013C004F038ECA2F01200010E131620EE45
:1036B00004F01050D9261150DA22DECF01F0DDCF10
:1036C00002F012C003F013C004F038ECA2F01200B4
:1036D0001450000AD8B41200010AD8B4BED7030AA5
:1036E000D8B4CED7010AD8A41200DFD70001BC6F2E
:1036F00038D0920E0001BA6F0F0E0001BB6F12009E
:10370000930E0001BA6F0F0E0001BB6F1200940EF2
:103710000001BA6F0F0E0001BB6F1200950E000181
:10372000BA6F0F0E0001BB6F1200960E0001BA6F48
:103730000F0E0001BB6F1200970E0001BA6F0F0E43
:103740000001BB6F1200980E0001BA6F0F0E00014E
:10375000BB6F1200000E0001BA6F000E0001BB6FBC
:1037600012000001BC51000AD8B4C3D7010AD8B472
:10377000C7D7030AD8B4CBD7010AD8B4CFD7070A22
:10378000D8B4D3D7010AD8B4D7D7030AD8B4DBD773
:10379000E1D70001BC6F38D0EF0E0001BA6FFF0E09
:1037A0000001BB6F1200ED0E0001BA6FFF0E0001A9
:1037B000BB6F1200EB0E0001BA6FFF0E0001BB6F72
:1037C0001200E90E0001BA6FFF0E0001BB6F12007C
:1037D000E70E0001BA6FFF0E0001BB6F1200E50E8D
:1037E0000001BA6FFF0E0001BB6F1200E30E000173
:1037F000BA6FFF0E0001BB6F1200000E0001BA6F1E
:10380000000E0001BB6F12000001BC51000AD8B4C9
:10381000C3D7010AD8B4C7D7030AD8B4CBD7010A93
:10382000D8B4CFD7070AD8B4D3D7010AD8B4D7D7DA
:10383000030AD8B4DBD7E1D70001BC6F38D0800EC3
:103840000001BA6F0F0E0001BB6F1200810E000164
:10385000BA6F0F0E0001BB6F1200820E0001BA6F2B
:103860000F0E0001BB6F1200830E0001BA6F0F0E26
:103870000001BB6F1200840E0001BA6F0F0E000131
:10388000BB6F1200850E0001BA6F0F0E0001BB6FF7
:103890001200860E0001BA6F0F0E0001BB6F1200FE
:1038A000000E0001BA6F000E0001BB6F1200000194
:1038B000BC51000AD8B4C3D7010AD8B4C7D7030A89
:1038C000D8B4CBD7010AD8B4CFD7070AD8B4D3D746
:1038D000010AD8B4D7D7030AD8B4DBD7E1D7BAC026
:1038E000F6FFBBC0F7FF000EF86E0F0EF76403D0B3
:1038F0000800F55005D0F6CFE9FFF7CFEAFFEF500B
:103900000001C26F0001BE51010DCF0EF324F66E0F
:10391000FD0EF420F76EF86A000EF8220800F5CFCD
:10392000C0F0000E0001C16F06D00001BC510001C3
:10393000BD5F0001C12B0001BC510001BD5DD8B0CD
:10394000F4D70001BE510001BD03F350BD6F00016B
:10395000C1510001BD270001BD290001BF6F03D087
:103960000001D890C2330001BF2FFAD70001C05127
:103970000001C2170001C25112000001BF6F000E0A
:103980000001C06F000E0001BD6F360E9FECA4F069
:103990000001BF51030B0001C06F2CD0010E0001CC
:1039A000BD6FC80E9FECA4F0800E506E800E4F6E5F
:1039B0001200010E0001BD6FA80E9FECA4F0800E56
:1039C000506E800E4F6E1200010E0001BD6F080E8A
:1039D0009FECA4F0800E506E800E4F6E1200010E10
:1039E0000001BD6F680E9FECA4F0800E506E800E3B
:1039F0004F6E12000001C051000AD8B4CFD7010A9F
:103A0000D8B4D7D7030AD8B4DFD7010AD8A4120094
:103A1000E6D782EC91F0D5ECA5F0010E8FECA3F087
:103A20000009D8B40CD097EC9DF0F5EC8DF042EC89
:103A300092F04BECA5F00009D8A470ECA3F0080EAE
:103A40008FECA3F00009D8B413D0D30E0001E76FB8
:103A5000010E0001E86F000E0001EA6F080EE96F29
:103A6000BDEC97F04BECA5F00009D8A470ECA3F0E6
:103A7000B50E0001BE6F000E0001BF6F000E000109
:103A8000C06F9BEC9EF0B50E0001BC6F000E0001F4
:103A9000BD6FDAEC9DF0E2ECA4F09AECA5F0D2EC6C
:103AA000A4F012000001BA6F000E0001BB6F010EFE
:103AB00002D0000E0CD00001BC6F2DD0040E07D038
:103AC000010E05D0050E03D0020E01D0060E000136
:103AD000BB6F000EF0D7020E0001BA6503D00001E3
:103AE000BA0719D0020E0001BA6F15D00001BA5101
:103AF000020AD8B4DED7060AD8B4E0D70C0AD8B484
:103B0000DFD7180AD8B4DED7300AD8B4DDD7600AB8
:103B1000D8B4DCD7E0D70001BC510001D8A4E6D767
:103B2000C1500001BB19F80BBB19C16E1200000E89
:103B3000406E000E3F6E000E0001BC6F130E0001C0
:103B4000BC6501D01200000E0001BD6F0E0E000119
:103B5000BD6501D02CD00001BD51140D630E0001D4
:103B6000BA6F040E0001BB6FF3500001BA27F45086
:103B70000001BB230001BC51010DF3500001BA2527
:103B8000D96EF4500001BB21DA6E000EDF6E000129
:103B9000BD51020D000EF324D96E010EF420DA6E31
:103BA000FF0EDE6EFF0EDD6E0001BD2BCFD70001D4
:103BB000BC2BC4D7C2B21200DEECA5F0BCC0D9FF4A
:103BC000BDC0DAFFDF5059ECA5F0EBECA5F0C282E6
:103BD000C2B2FED7C350C4CFBEF00001BF6BBEC09F
:103BE000BFF00001BE6B0001BE13000EBF13000149
:103BF00020EE01F0BC51D926BD51DA22BEC0DEFF55
:103C0000BFC0DDFF000120EE03F0BC51D926BD513D
:103C1000DA22DE50DE10D8B40CD0000120EE03F022
:103C2000BC51D926BD51DA22DECFBCF0DDCFBDF0CC
:103C3000C3D7DEECA5F012000001C06F090E000131
:103C4000BD611200C0C03EF0000E3C6E070E3C6429
:103C500001D027D03EC0BEF0010E0001BE17060EF7
:103C60000001BF6F0001D890BE370001BF2FFAD707
:103C70000001BE513D6E0001BD39E842F80B3C1019
:103C80003D100001C16FD8903E327A0E0001BA6F2C
:103C9000010E0001BB6FC1C0BCF032ECA0F03C2AA9
:103CA000D5D77A0E0001BA6F010E0001BB6F000E6E
:103CB0000001BC6F32ECA0F01200B50EF66EFD0EE6
:103CC000F76E000EF86E20EECFF00F0E0900F5CF64
:103CD000DEFFE806FBE2C9C0C6F0CAC0C7F0CCC030
:103CE000C8F0AEECA3F00001DF6F040E0001CB6161
:103CF00020D0040E0001DF611CD00001CB51040D67
:103D0000CF0E0001CD6F000E0001CE6FF350000109
:103D1000CD27F4500001CE230001DF51010DF350F7
:103D20000001CD25D96EF4500001CE21DA6EDF50AE
:103D30001200050E12000001BE510001BF11D8B4DF
:103D40001200BEC079F0BFC07AF0BEC0D9FFBFC0BC
:103D5000DAFFC0C0DFFF000120EE03F0BE51D9261C
:103D6000BF51DA22000EDE6E000EDD6E000120EE85
:103D700001F0BE51D926BF51DA22000EDE6E000ED0
:103D8000DD6E0001C05159ECA5F0C29EC29CC18EEF
:103D9000C18C0C0EA6ECA2F0100E52EC9DF00001AE
:103DA000C051E8ECA3F0010E00018F6F7FECA5F08D
:103DB0001200000E0001C06F000EBF6F0001BC5169
:103DC0000001BD11D8B42CD0010E0001BE6F06D089
:103DD0000001D890BC37BD370001BE2B0001BDAF3C
:103DE000F7D70001D890BF37C0370001BC510001A0
:103DF000BA5D0001BD510001BB59D8A00AD0000135
:103E0000BC510001BA5F0001BD510001BB5B000164
:103E1000BF810001D890BD33BC330001BE2FE1D774
:103E2000BFC0BAF0C0C0BBF0120001C0F6FF02C0B4
:103E3000F7FF000EF86E0F0EF76403D00800F55080
:103E400005D0F6CFE9FFF7CFEAFFEF50096E055036
:103E5000010DCF0EF324F66EFD0EF420F76EF86A16
:103E6000000EF8220800F5CF07F0000E086E03D010
:103E70000350045E082A0350045CD8B0F9D70550FB
:103E80000402F350046E085004260428066E02D083
:103E9000D8900932062EFCD7075009160950120097
:103EA000000120EE06F0C951D926CA51DA22DECF30
:103EB000BAF0DDCFBBF0050E0001BC6F000E0001B3
:103EC000BD6FD2ECA0F0000120EE06F0C951D9265A
:103ED000CA51DA22DECFC5F0DDCFC6F0000E0001F8
:103EE000C76F000E0001C86FC1ECA4F0000120EE06
:103EF00006F0C951D926CA51DA22DECFBAF0DDCF99
:103F0000BBF0050E0001BC6F010E0001BD6FD2ECCD
:103F1000A0F01200000120EE06F0C951D926CA51C6
:103F2000DA22DECFBAF0DDCFBBF0050E0001BC6FA8
:103F3000000E0001BD6FD2ECA0F0000120EE06F0F3
:103F4000C951D926CA51DA22DECFC5F0DDCFC6F07D
:103F5000000E0001C76F020E0001C86FC1ECA4F093
:103F6000000120EE06F0C951D926CA51DA22DECF6F
:103F7000BAF0DDCFBBF0050E0001BC6F010E0001F1
:103F8000BD6FD2ECA0F01200C20E0001E06F010E76
:103F90000001E16F070E0001E26F030E0001E36F05
:103FA000D9EC8FF0C20E0001E06F010E0001E16F4D
:103FB000060E0001E26F030E0001E36FD9EC8FF0F3
:103FC00010ECA2F0C00E0001E76FC60EE86F2D0ED8
:103FD000E96F000EEA6F010E0001EB6F010E0001A8
:103FE000EC6FA7EC84F0850E0001C96F010E000193
:103FF000CA6F50EC9FF012000001BC510001BA25BD
:104000000001BF6F0001BD510001BB210001C06F65
:104010001AD0BAC0D9FFBBC0DAFFDF500001BE6FB3
:10402000BFC0D9FFC0C0DAFFBAC0E1FFBBC0E2FF2A
:10403000DFCFE7FF0001BA4BBB2BBFC0D9FFC0C029
:10404000DAFFBEC0DFFF0001BF07D8A0C007000134
:10405000BF510001BA5D0001C0510001BB59D8B089
:104060001200D7D726D0A8C0D9FFA9C0DAFF000117
:10407000DF94BCC0C9FFC7A0FED7C9CFBCF0A8C0A1
:10408000D9FFA9C0DAFF0001DF8412009EC0D9FF6A
:104090009FC0DAFF0001DF9EBCC06FFF6DA0FED79E
:1040A0006FCFBCF09EC0D9FF9FC0DAFF0001DF8E4A
:1040B0001200000120EE02F0BA51D926BB51DA22DB
:1040C000DF50000AD8B4CFD7010AD8A41200DED737
:1040D0001FD0000E0001BC6F000EBD6F000EBE6F42
:1040E000000EBF6F0001BF510001BE1111E1B00E03
:1040F0000001BC5D040E0001BD59D8B009D000F02C
:10410000010E0001BC27000EBD23BE23BF23EAD74A
:104110000001BA07D8A0BB070001BA29DAE1000103
:10412000BB29D8A4D6D7080E0001BC6F800EBD6F86
:10413000000EBE6F000EBF6F1200050E0001E66F8D
:10414000E0C0D9FFE1C0DAFFDECFE7F0DDCFE8F075
:104150000001E251020DF3CFE4F00001E251020D43
:10416000F3280001E56FE7C0C9F0E8C0CAF0E3C07A
:10417000CBF0E4C0CCF05DEC9EF00001E66F0001F6
:10418000E651D8A40CD0E7C0C9F0E8C0CAF0E3C03B
:10419000CBF0E5C0CCF05DEC9EF00001E66F0001D5
:1041A000E6511200010E0001BD17BCC0BEF0010EA9
:1041B0000001BF6F0001BE2B03D00001D890BF37B4
:1041C0000001BE2FFAD70001BF51FF0A0001C06FE6
:1041D000BAC0D9FFBBC0DAFF0001C051DF16BCC0B6
:1041E000BEF0BDC0BFF00001BE2B03D00001D890CF
:1041F000BF370001BE2FFAD7BAC0D9FFBBC0DAFF64
:104200000001BF51DF1212000001BC510001BD11BD
:10421000D8B426D0010E0001BE6F06D00001D890A0
:10422000BC37BD370001BE2B0001BDAFF7D7000181
:10423000BC510001BA5D0001BD510001BB59D8A0BD
:1042400008D00001BC510001BA5F0001BD5100015E
:10425000BB5B0001D890BD33BC330001BE2FE7D754
:10426000BAC0BAF0BBC0BBF012000001E76F1ED0AD
:10427000A40E0001E06F000E0001E16F000E0001CE
:10428000E26F030E0001E36FD9EC8FF017D0A40E9C
:104290000001E06F000E0001E16F010E0001E26F0E
:1042A000030E0001E36FD9EC8FF008D00001E75155
:1042B000000AD8B4DDD7010AD8B4E9D7000E00014E
:1042C000CE6F0001E751E8ECA1F01200050E0001ED
:1042D000EF6F0001EB51020DF3CFEDF00001EB5158
:1042E000020DF3280001EE6FE9C0E0F0EAC0E1F052
:1042F000EDC0E2F0ECC0E3F09DECA0F00001EF6F48
:104300000001EF51D8A40CD0E9C0E0F0EAC0E1F020
:10431000EEC0E2F0ECC0E3F09DECA0F00001EF6F26
:104320000001EF511200000E0001C56F000E0001E8
:10433000C66F000E0001BF6F50040001C06F4F0434
:104340000001C16F000ECCEC9AF04FC0C6F0000126
:10435000C6510001D8B4120050C0C5F00001C551CB
:104360000001D8B409D0C3C0BFF0C4C0C0F0F1ECA4
:10437000A4F00001C507F2D70001C607E8D71CD09A
:10438000000E0001BC6F000EBD6F000EBE6F000E70
:10439000BF6F0001BC510001BD110001BE11000141
:1043A000BF11D8A409D000F0010E0001BC27000EF7
:1043B000BD23BE23BF23EDD70001BA07D8A0BB079A
:1043C0000001BA29DDE10001BB29D8B41200D8D719
:1043D0000001CF6F1CD0A40E0001C96F000E0001B8
:1043E000CA6F000E0001CB6FCEC0CCF0F5EC98F098
:1043F0001200A40E0001C96F000E0001CA6F010E69
:104400000001CB6FCEC0CCF0F5EC98F012000001AB
:10441000CF51000AD8B4DFD7010AD8A41200E9D7D7
:104420000FECA5F0010E82ECA2F0000E0001BB6FB4
:10443000800EBA6F68ECA0F0010E82ECA2F000ECE6
:10444000A5F0000E0001BB6F800EBA6F68ECA0F003
:10445000010E82ECA2F00FECA5F0000E0001BB6F84
:10446000800EBA6F68ECA0F0010E82ECA2F0120090
:10447000010E041603C005F0010E066E052A02D0D7
:10448000D8900636052EFCD70650FF0A076E01C0ED
:10449000D9FF02C0DAFF0750DF1603C005F004C0E1
:1044A00006F0052A02D0D8900636052EFCD701C0AA
:1044B000D9FF02C0DAFF0650DF121200050E00011C
:1044C000F36FF0C0E9F0F1C0EAF0000E0001EB6F0D
:1044D000F2C0ECF066ECA1F00001F36F0001F351C3
:1044E000D8A40DD0F0C0E9F0F1C0EAF0010E00014F
:1044F000EB6FF2C0ECF066ECA1F00001F36F00018D
:10450000F35112000001D26F18D0A40E0001CE6F3B
:10451000000E0001CF6F000E0001D06F01ECA4F07F
:104520001200A40E0001CE6F000E0001CF6F010E2D
:104530000001D06F01ECA4F012000001D251000A7A
:10454000D8B4E3D7010AD8A41200EBD70001BB6F9F
:104550000A0E0001BB19D8B40AD00E0E0001BB1917
:10456000D8B405D0120E0001BB19D8A403D0020E96
:104570000001BB5F0001D890BB37BBC0BAF000019F
:10458000BA47BA47BA47C1500001BA19C70BBA199E
:10459000C16E1200000120EE06F0BA51D926BB51BF
:1045A000DA22DECFBDF0DDCFBEF0BDC0D9FFBEC088
:1045B000DAFFDF500001BF6F0001BC290001BD6FB1
:1045C00003D00001D890BF330001BD2FFAD7010EF0
:1045D0000001BF170001BF511200030E0001CB659F
:1045E00014D0010E0001C9250001C56F000E0001A5
:1045F000CA210001C66F0001CB51FC0F0001C76F3B
:10460000CCC0C8F0B0ECA4F01200C9C0C5F0CAC05C
:10461000C6F0CBC0C7F0CCC0C8F0B0ECA4F012001C
:104620000001C16F86500F0B0001C06F4C50D8A421
:1046300002D0000E1200000E4C6E0001C1510001AC
:10464000C019D8B40CD0F00E86160001C1518612E4
:10465000000E0001BB6F0A0EBA6FBFECA1F0010E95
:10466000120016D0000E036E000E046E000E056ED2
:10467000000E066E0350041005100610D8A408D0D2
:1046800000F0010E0326000E042205220622F2D7B6
:104690000106D8A002060128E5E10228D8B41200DC
:1046A000E1D7000E0001C36F000EC26F0001C351BD
:1046B00016E1080E0001C25DD8B01200C2C0BDF004
:1046C000400E0001C225D96E010E0001C321DA6E31
:1046D000DF501CEC9EF00001C24BC32BE7D7120049
:1046E000000163510001641100016511D8B40DD0BF
:1046F00001D80BD00500FA6E00016351FD6E6451C4
:10470000FE6E6551FF6EFA501200000E0001636FDD
:10471000000E0001646F000E0001656F12000001C1
:10472000C16F86500F0B0001C06F4C50D8B4FDD73D
:10473000000E4C6E0001C1510001C019D8B40CD05C
:10474000F00E86160001C1518612000E0001BB6FEB
:104750000A0EBA6FBFECA1F0010E1200030E0001A9
:10476000C86512D0010E0001C6250001C36F000EFE
:104770000001C7210001C46F0001C851FC0F0001F6
:10478000C56F3CECA5F01200C6C0C3F0C7C0C4F0B2
:10479000C8C0C5F03CECA5F01200086E86500F0BA7
:1047A000076E4C50D8A402D0000E1200000E4C6EC2
:1047B00008500718D8B40AD0F00E86160850861292
:1047C000000E026E0A0E016E31ECA3F0010E120013
:1047D0000001BC6FBCC0BAF0010E0001BB6F00014C
:1047E000BA2B03D00001D890BB370001BA2FFAD7FB
:1047F0000001BB51FF0A0001BD6F0001BD51C11690
:104800001200CEC0BAF0CFC0BBF0D0C0BCF0CAEC32
:10481000A2F00001D16F010E0001D11BCEC0C9F082
:10482000CFC0CAF0D0C0CBF0D1C0CCF0F5EC98F03E
:104830001200000120EE02F0BA51D926BB51DA2253
:10484000DF50D8A407D0A8C0D9FFA9C0DAFF000163
:10485000DF8412009EC0D9FF9FC0DAFF0001DF8E07
:104860001200030E0F640CD0010E0D240A6E000E10
:104870000E200B6E0F50FC0F0C6E67ECA5F01200B3
:104880000DC00AF00EC00BF00FC00CF067ECA5F0E5
:104890001200EEECA5F00001605100016111000171
:1048A0006211D8B4120001D812000500FA6E00019E
:1048B0006051FD6E6151FE6E6251FF6EFA50120042
:1048C000010E10ECA3F00009D8B41200D0C0CBF058
:1048D000D1C0CCF076ECA4F051ECA3F04BECA5F0F9
:1048E0000009D8B4120070ECA3F01200CBC0C1F0E4
:1048F000CCC0C2F0400E0001C36F010E0001C46FB6
:10490000E5EC96F0400E0001BB6F010E0001BC6F9C
:1049100014EC9AF0120004D09D961200A39E12008F
:10492000000120EE02F0BA51D926BB51DA22DF5045
:10493000000AD8B4F1D7010AD8A41200EFD70001B9
:10494000BE6F0001BD5189ECA5F0850E0001BA6F64
:10495000010E0001BB6FBEC0BCF032ECA0F0120033
:10496000C5C0BAF0C6C0BBF0040E0001BC6FC7C022
:10497000BDF0020E0001BE6FC8C0BFF071EC9AF02E
:104980001200C5C0BAF0C6C0BBF0020E0001BC6F79
:10499000C7C0BDF0040E0001BE6FC8C0BFF071EC0F
:1049A0009AF012008C0EA1ECA5F0000EA1ECA5F07F
:1049B000010EA1ECA5F0460EA1ECA5F0400EA1EC75
:1049C000A5F01200949C948E240EAD6E980EAC6EE1
:1049D0007E9A7E987E927E90AD847E96330EB06EE7
:1049E0001200010E0001BD6F0001C0519FECA4F048
:1049F000010E0001BD6F0001BF519FECA4F0120039
:104A0000C20E0001C96F010E0001CA6F060E00013F
:104A1000CB6F010E0001CC6FF5EC98F01200C20EC6
:104A20000001C96F010E0001CA6F060E0001CB6FB5
:104A3000000E0001CC6FF5EC98F012009A0E000108
:104A4000F06F000E0001F16F000E0001F26F000E1A
:104A50000001F36FB5EC8BF01200AE0E0001E06FB9
:104A6000010E0001E16F040E0001E26F000E000173
:104A7000E36FD9EC8FF01200C3C0BAF0C4C0BBF032
:104A8000040E0001BC6FC5C0BDF0020E0001BE6F78
:104A90006FEC9CF01200010E4C6E0001635100019E
:104AA000641100016511D8B402D0010E1200000E8D
:104AB00012000001BB6FBBC0BAF00001BA47BA4791
:104AC000C2500001BA19C30BBA19C26E12000AC053
:104AD00001F00BC002F0040E036E0CC004F0020ED5
:104AE000056E15EC9FF0120009EC9DF076EC95F048
:104AF0006DC0D0F06EC0D1F060ECA4F0F7D7EBEC55
:104B0000A5F0C18CC282C2B2FED7C19CDEECA5F07A
:104B100012000001BA6F0001BAB102D0859E01D027
:104B2000858E120006000600020009000200010145
:034B300030808052
:104B3400800EA1ECA5F0840EA1ECA5F012000001FA
:104B4400BA6FADA2FED7BAC0AEFF1200BAC0D9FF89
:104B5400BBC0DAFFBCC0DFFF1200BAC063F0BBC049
:104B640064F0BCC065F0120001C063F002C064F0E0
:104B740003C065F01200060006008000070005006F
:104B8400070075C0D6FF76C0D7FFF294120075C037
:104B9400D6FF76C0D7FFF28A120075C0D6FF76C062
:104BA400D7FFF28A1200F28CF28EF288F29212008F
:104BB4009E929D929F921200C2909E9C9D9C120078
:104BC4006400FFFF4161F29AF2941200FC0E966EAB
:104BD4001200C2809E9C1200F29AF2941200010EFE
:044BE4004C6E120001
:06FFF800AAF705FFF8F175
:00000001FF
