:100000000DEF04F026EF00F004EF0AF0D1EC04F05D
:10001000FF0000F000F012000CEF0AF018EF00F003
:10003000F26AFC6A9BEC04F004009EEC09F0D8EC38
:1000400003F0F3EC03F05EEC08F0F6D701501F0B61
:10005000E80601E01200055001E01200060E021849
:1000600014E01AD0020E3D6E4A0E3FD8306A090ED7
:100070000AD0020E3D6E450402E1870E36D84504D3
:100080000AE1306A1D0E2F6E06D00450210AEAE004
:10009000030AEFE0010A42820138E832030BE80666
:1000A00014E01200020E3D6E440E206E24D0020EAB
:1000B0003D6E04C044F0020C020E3D6E430EF5D7B7
:1000C000020E3D6E03C043F0020C0250010AD8B488
:1000D0001200030AE7E0010AEFE00A0AD8B41200AE
:1000E000030AE5E0010AECE01200206E2050D8A4DB
:1000F000100E216E1200216A4292010E2F6E010C29
:100100004F6A140E506E516A296A2A6A4FC0F6FF70
:1001100050C0F7FF51C0F8FF42D80800F5CFDFFF0D
:100120004F2A000E50225122294A2A2A040E2A5C04
:10013000EDE30D0EE8CFB2F4600EE8CFB3F4000E9D
:10014000496E050E486E0AEC03F04F68170E506EAC
:10015000516A030E2A6E296851C0F8FF50C0F7FF9C
:100160004FC0F6FF1CD8DF50F56E0C0029C04EF0D2
:100170003F0E4E1607E1FEEC09F0040EA66EB50E1A
:1001800067EC04F04F06000E505A515A0A002950ED
:100190002A1001E112002906D8A02A06DDD7AC0EEC
:1001A0002924D96E040E2A20DA6E120003040BE112
:1001B00001501F0B08E1010E3D6E030E021802E113
:1001C000428001D042900350D8A4120001501F0B6E
:1001D000020AD8A4120005500F0BD8B4120028D878
:1001E000476A040E486E4726000E4822F350472601
:1001F000F450482223D847241D6EF45048201E6E28
:10020000030E021805E10FD8040EDF6E0CD81CD0C7
:1002100005AE04D008D8400EDF6E400C04D8080E9E
:10022000DF6E01D811D01DC0D9FF1EC0DAFF120049
:10023000010E3D6E05500F0B080D1200010E05AEAC
:10024000000E040DF3501200000EDB8E000C3D502A
:1002500010E193EC03F0196E3A0405E1010E32EC63
:1002600003F03A6A1200000E32EC03F0010E3A6E0F
:10027000010C01AE1BD0010E3E6E2F50075C3050BA
:10028000085804E207C02FF008C030F076EC01F007
:10029000480E196E010E32EC03F0000E32EC03F042
:1002A000240E04010A6F040E0B6F1CD0020E3E6E6A
:1002B000040E196E0750081002E1480E196E3A0438
:1002C00005E1010E32EC03F03A6A05D0000E32EC83
:1002D00003F0010E3A6E07500810D8A41200040172
:1002E000096B00D0480E086F088F480C080E326E5C
:1002F00030500DE1080E2F5C0AE22FC032F0405062
:1003000002E1010E03D0400402E1020E406E32C051
:1003100009F432502F5E000E305A240E1D6E040E6A
:100320001E6E42A21AD00BD01BD813EC01F00F0E98
:10033000F76403D00800F55001D019D81ED8325008
:10034000F3E112000DD813EC01F00F0EF76403D0A7
:100350000800F55001D00BD810D83250F3E112004C
:1003600020C0F6FF21C0F7FF000EF86E1200F6CF96
:10037000E1FFF7CFE2FFE7501200DF6E1D4A1E2AB1
:10038000204A212A320612000138E832030B18E015
:100390001200010E3D6E040E416E040C010E3D6E06
:1003A000450E206E7BEF00F02CD8496E49C020F03E
:1003B0007BEF00F026D8D96EDA6A03C0DFFF1200A7
:1003C000025002E179EF02F0010A02E1D6EF00F0FB
:1003D000020A02E1D6EF00F0060ADBE0030A02E1BE
:1003E00006EF02F0010AD8B412000F0AD7E0010AA2
:1003F00002E155EF03F0030AD7E0010ADBE0070A48
:100400001200010E3D6E0550460F1200800E0118BD
:1004100030E01200010E3D6EA40E75EC00F0120EDD
:1004200009D003502DE1010E3D6E380E75EC00F041
:10043000306A290E2F6E24D0010E3D6E0350010F3D
:10044000476E47C0F6FF100EF76E000EF86E0900FB
:10045000F5CF20F0100E216EB0EC01F00F0EF76416
:1004600003D00800F55002D0B7EC01F02F6E306ACF
:1004700007D00450010ACEE0030AD3E0010ADCE011
:1004800042821200366A27D03850486E000E48BEAD
:10049000FF0E496E4A6E4B6E4850155C0D6E49500A
:1004A00016580E6E4A5017580F6E4B501858106E53
:1004B0000FC0F8FF0EC0F7FF0DC0F6FF11D80D00FA
:1004C000362A0ED80C00362A240EA66EB50E67EC1E
:1004D00004F0FE0E38263850800A7F0FD5E2120055
:1004E000AC0E3624D96EDA6A040EDA22DF50F56ECD
:1004F0001200246B256B22D0010E3D6E42B0248386
:1005000024D0010E3D6E21D018EC01F0476A040E94
:10051000486E4726000E4822F3504726F4504822E2
:100520001EEC01F047241D6EF45048201E6E13ECA3
:1005300001F0DFA40AD0010E246F07D001501F0B79
:10054000DBE0010ADEE0030ADFE03D04D8A412008C
:10055000240E206E040E216E4292020E2F6E020CAB
:10056000400E486401D0486E4A6A0DD047504A2474
:10057000D96EDA6A6C0E4A24E16EE26A040EE22257
:10058000DFCFE7FF4A2A48504A5CF0E348C011F445
:10059000400E0401101710BD03D0496A492A01D04A
:1005A000496A493A49464946040110514918BF0B66
:1005B0004918106F1087108F12003F6A0CBF12008D
:1005C00048500D5D02E20DC448F03F6A0BD02C0E7E
:1005D0003F24D96EDA6A040EDA2247503F24F9EC40
:1005E00009F03F2A48503F5CF2E3400E0D6F0C17B4
:1005F0000CBD03D0496A492A01D0496A493A4946A3
:10060000494604010C514918BF0B49180C6F0C875F
:100610000C8F1200495006E1050E485C03E2496A5E
:10062000050E486E48504A6E49504B6E4C6A4D6AF2
:100630000A0ED8904A364B364C364D36E82EF9D74E
:100640004AC009F04BC00AF04CC00BF04DC00CF092
:100650000BC0F8FF0AC0F7FFF66A140EA66EB50EBF
:1006600067EF04F0476E080E1A6E1C0E1B6E040E28
:100670001C6E475006E1140E1B6E040E1C6E256A9C
:1006800002D0040E256E266E0BD819C0DEFF1AC0EC
:10069000DEFF1BC0DEFF1CC0DEFF02D8DF8E1200B3
:1006A00025C0D9FF26C0DAFF1200010E3D6E0F01F2
:1006B00016D8346A3450460FD96EDA6ADF6A342AA3
:1006C0003450F8E003C045F04550C9EC04F0035045
:1006D00003E1050E416E050C060E416E060C4D6BD6
:1006E0004E6B4F6B506B516B526B536B1200040E81
:1006F000411808E103C05EFF0F015E51050ED8B43A
:10070000030E416E3E04D8A4120076EC01F0020EF6
:10071000401802E108D8040C0401480E08BD080E78
:10072000086F088F1200040E0401086F088F040C74
:10073000030E416E0F015D6B626A7B0E5C6F5E6B38
:100740006FEC03F0160E4C6F658C03D06296FEECD6
:1007500009F062B6FBD7659C6598040E196E000E11
:1007600032EC03F0010E3A6E426A456A000EC9EFA0
:1007700004F081B818EC00F0060EF66E14D80D0ED9
:10078000F5180DE10900600EF51809E1F66A0BD8BD
:10079000F52803E10900F52802E000EF0AF018EC63
:1007A00000F000EF00F0140EF76EF86A0900140C68
:1007B0002306D8A0240623502410D8A412004E0EDD
:1007C000246E236A060E416002D08B80060C8BB02B
:1007D00003D0476A472A01D0476A8B504718FE0B5F
:1007E00047188B6E1200C0BC1200030ED36E6592C8
:1007F0006596F26A0ED808D0C0AC04D02D06D8A0F9
:100800002E0601D006D804002D502E10F5E1FF0071
:100810001200040E2E6E2D6A040C04EEACF014EEE1
:1008200000F0EE6AE550E150FCE1E250FAE100EE42
:1008300060F0820EEE6AE806FDE100EE01F0460E81
:10084000EE6AE806FDE10001B9EF03F00401086B70
:10085000406A00AF02D0006B3A6A04AF03D0046B69
:10086000010E3A6E3E6A3D6A2F6A306A6598C4ECA2
:1008700001F002EC00F027EF01F005D80AD8376A42
:100880000CD8386A12007E0E3B6E116AFC0E126E96
:10089000FC0C010E136E146A000C156816681768BC
:1008A000186812003F6A1E0E0F014D6F400E0401C2
:1008B0000D6F2C0E0E6F040E0F6F080E0C6F0C8F49
:1008C0006C0E126F040E136F400E106F400C476ECB
:1008D000F29EF3EC03F0B50E471804E0030ED36E5E
:1008E0000300FED7550EA76EAA0EA76EA682A6B26B
:1008F000FED7A69412005CCF35F0040E0F015C6F9A
:1009000062986582A198A088AAEC04F0A09835505E
:100910000F015C131200390402E1D1EC04F0656AA6
:10092000150E0F015F6F5C6B658698EC03F0010E8E
:10093000416E396A1200600ED36E9B8CDCEC04F0C1
:10094000BFEC04F0C16AC26A3DEC04F08B90949055
:10095000E7EF04F08B90D3CF31F00300A1B802D0C1
:10096000D0A6FBD731C0D3FF1200D9EC04F06592BA
:100970000F015C9501D0629462A41200FCD705D0EF
:10098000FEEC09F04706D8A0480647504810F8E1A9
:100990001200476E4704D8A4120052EC04F03DEF59
:1009A00004F06592656A48684768BFEC04F0416AE4
:1009B000120002D8BFEF04F0030E486E476A030C22
:1009C000390401E1120065A68BEC04F0120065B653
:0E09D000D1EC04F0396AE0EF04F012001200DE
:1010000000B6046134034D006900630072006F0094
:1010100063006800690070002000540065006300F0
:1010200068006E006F006C006F00670079002000A0
:1010300049006E0063002E000902290001010080B2
:10104000320904000002030000000921110100011F
:10105000221D000705810340000107050103400030
:101060000126034800490044002000550053004277
:1010700000200042006F006F0074006C006F006180
:10108000006400650072000600FF0901A10119015A
:101090002940150026FF0075089540810019012997
:1010A000409100C01201000200000008D8043C007A
:0B10B00001010102000104030904001B
:1010BC00060E4118D8B465B21200375001E017D1B2
:1010CC0004010CBF1200600E476E400E486EDDEC42
:1010DC0002F0010E376E276A286A2750A10FD96ECD
:1010EC00DA6A000EDF6E274A282A285005E1400EE6
:1010FC00275CD8B01200F1D71200020EA16F3A0E85
:10110C00A26F010EA36FA46FA56B140EA66FA76B35
:10111C00A86B000E1124A96FEC0E1220AA6FFF0E03
:10112C001320AB6FFF0E1420AC6F030EAD6FF80ED7
:10113C00AE6FAF69010EB06FB16B080EB26FB36BCF
:10114C00B46BB56BB669A50EDA6F040110BFA50CB4
:10115C00A10E476E400E486EB0EC02F0376A1200DA
:10116C00615106E17F0E3B6EF80E116E126802D0D3
:10117C0043EC04F049EC04F0F1D7286A050E276E15
:10118C000CD0FEEC09F027C048F028C049F00AEC5E
:10119C0003F09EEC09F0274A282A3B50526E536A02
:1011AC00522A000E53225250275C53502858D6E234
:1011BC00E8D715280EE116280CE117280AE11828A3
:1011CC0008E161C015F062C016F063C017F064C08E
:1011DC0018F015506119C2E116506219BFE1175091
:1011EC006319BCE118506419B9E1276A286A1AD04E
:1011FC006551A0082724D96EDA6AAC0E3824E16E4A
:10120C00E26A040EE222DFCFE7FF382A152A000E2D
:10121C001622172218223A0E381802E142EC02F07C
:10122C00274A282A00017CD899E2E2D742EC02F046
:10123C004DEC04F093D7070EA16F61C0A2F062C011
:10124C00A3F063C0A4F064C0A5F065C0A6F063C0B1
:10125C00F8FF62C0F7FF61C0F6FF276A286A0BD05F
:10126C00090000016551E1082724D96EDA6AF5CF2F
:10127C00DFFF274A282A54D8F3E3040110BF1200D9
:10128C0067D780EC00F06AD70C0EA16F010EA36F2C
:10129C00020EA26F160EF66ED3EC03F0F5CFA4F08F
:1012AC000A00F5CFA5F0060EA66F140EA76FA86B5B
:1012BC00A96B600EAB6F0D0EAA6FAC6B040EAD6F0D
:1012CC00000EAE6BAF6BB069B169B269B369B4694A
:1012DC00B569B669B769B86BB96BBA6BBB6BBC6BEC
:1012EC00BD6BBE6BBF6BC9D706EC00F037D70001E6
:1012FC006051020A01E101D7010A01E131D7070A65
:10130C0001E13BD7010A01E154D7030A8FE0010A3E
:10131C0092E00F0AE9E0010AB4E0050AB5E01ED735
:10132C006551526E536A5250275C53502858120024
:10133C00E0EC04F0415001E1120062B4B5EC04F0B1
:10134C0065B2120062B098EC03F062B87BEC04F06A
:10135C00030E416001D0030C3C6A62A6120064507B
:10136C0064CF4AF07C0E4A162AE164B203D02B6A91
:10137C00040E02D0040E2B6E2C6E62962BC0D9FF7D
:10138C002CC0DAFFDF30E8320F0B0D0A20E1336A94
:10139C0023D8DECF4AF0DDCF4BF04AC0D9FF4BC08B
:1013AC00DAFF3350010F1FD817D8DE2A000EDD22CA
:1013BC00332A070E3364ECD726EC04F008D0040E65
:1013CC00641804E1629677EC03F001D062963C2A33
:1013DC00030E3C64C2D7030C20EE02F02B50D9262E
:1013EC002C50DA221200E16EE26ADFCFE7FF120026
:0413FC0004001200D7
:1014000055EF0AF012000D605182FACF17F0FBCFB2
:1014100018F0E9CF19F0EACF1AF0E1CF1BF0E2CFD4
:101420001CF0D9CF1DF0DACF1EF0F3CF1FF0F4CFB0
:1014300020F0F6CF21F0F7CF22F0F8CF23F0F5CF50
:1014400024F051C025F052C026F053C027F054C0FC
:1014500028F0F292F2B4F2AA02D04EECB4F028C016
:1014600054F027C053F026C052F025C051F024C0DC
:10147000F5FF23C0F8FF22C0F7FF21C0F6FF20C010
:10148000F4FF1FC0F3FF1EC0DAFF1DC0D9FF1CC050
:10149000E2FF1BC0E1FF1AC0EAFF19C0E9FF18C054
:0E14A000FBFF17C0FAFF51921100CBEFA5F031
:10FC7E0000001180002C0100B1020035003600009A
:10FC8E00B202003500360000B30200350036000225
:10FC9E00003500360000B4000000C0A2000200844F
:10FCAE000000C1C50000C20D00000000C38D002A77
:10FCBE000000C48D00EE0000C50A000036C800002A
:10FCCE00E012001C001000180033002C0025002844
:10FCDE0000280027002F003C000000030003001046
:10FCEE00008000780000E112001C00100018002DAA
:10FCFE0000280023002800280026002F003B0000CB
:10FD0E0000030003001000003A0500002A00000264
:10FD1E000000008100002B000003000000A2000084
:10FD2E0029002C0200040008001000200040008072
:10FD3E0000000100010200010001000202000003A8
:10FD4E0003030001000A006400E80310270001030A
:10FD5E00070F1F3F7FFF0002010301041000000088
:10FD6E00000000005F00000007000700147F147FF2
:10FD7E0014242A7F2A12231308646236495522500E
:10FD8E000005030000001C2241000041221C000857
:10FD9E002A1C2A0808083E080800503000000808EF
:10FDAE00080808006060000020100804023E514957
:10FDBE00453E00427F400042615149462141454B3C
:10FDCE00311814127F1027454545393C4A494930B0
:10FDDE0001710905033649494936064949291E006C
:10FDEE003636000000563600000008142241141466
:10FDFE0014141441221408000201510906324979E3
:10FE0E00413E7E1111117E7F494949363E414141A5
:10FE1E00227F4141221C7F494949417F0909010145
:10FE2E003E414151327F0808087F00417F4100204A
:10FE3E0040413F017F081422417F404040407F02F5
:10FE4E0004027F7F0408107F3E4141413E7F090935
:10FE5E0009063E4151215E7F091929464649494905
:10FE6E003101017F01013F4040403F1F2040201FD4
:10FE7E007F2018207F631408146303047804036141
:10FE8E005149454300007F41410204081020414181
:10FE9E007F00000402010204404040404000010285
:10FEAE00040020545454787F484444383844444421
:10FEBE0020384444487F3854545418087E090102AF
:10FECE00081454543C7F0804047800447D400020FC
:10FEDE0040443D00007F10284400417F40007C04D8
:10FEEE001804787C0804047838444444387C14148C
:10FEFE001408081414187C7C08040408485454543C
:10FF0E0020043F4440203C4040207C1C2040201CCC
:10FF1E003C4030403C44281028440C5050503C4447
:10FF2E0064544C44000836410000007F000000413C
:10FF3E0036080008082A1C08081C2A080800FCFFBE
:10FF4E000F0000FFFFF0FF00FFFF00436C6F7365B3
:10FF5E0073742057616C6C3A25750A436C6F736528
:10FF6E00737420416E676C653A25640A4C6566743D
:10FF7E002042756D703A25750A526967687442752C
:10FF8E006D703A25750A00546F74616C2044697364
:10FF9E0074616E63653A25750A4C65667420427508
:10FFAE006D703A25750A52696768742042756D70D6
:10FFBE003A25750A002020202020202020202020F5
:10FFCE0020202020202020200A00506C65617365BF
:10FFDE002073656C656374206D6F64652E0A004432
:10FFEE00697374616E63653A2025640A00256300A7
:01FFFE000002
:020000040001F9
:10000000000E0001896F010E0001746F900E736F76
:10001000030E0001FC6FE80EFB6F000E0001726F13
:10002000000E716F030E00016E6FE80E6D6F000E13
:100030000001706F000E6F6F000E0001FA6F080E66
:10004000F96F000E03013D6F000E3C6F5AD10001A5
:100050007307D8A07407B00E0001B76F000E00013F
:10006000B86F03ECABF0B00E0001DC6F000E0001C6
:10007000DD6F5DECA0F0DCC0ACF4DDC0ADF4DEC043
:10008000AEF4DFC0AFF4ACC4B9F0ADC4BAF0AEC4E6
:10009000BBF0AFC4BCF0000E0001B56F000EB66F30
:1000A0006C0EB76F420EB86FBCEC88F0B5C0EEF0C6
:1000B000B6C0EFF0B7C0F0F0B8C0F1F0FFEC9CF0C4
:1000C000EEC06FF0EFC070F0010E51ECB2F000091D
:1000D000D8B40ED06FC0CBF070C0CCF07AECB4F0D6
:1000E000B2ECB2F07FECB5F00009D8A4D1ECB2F0DC
:1000F0000001FB5100016F5D00017051800A040195
:10010000AA6F0001FC51800A0401AA59D8B036D068
:100110006FC0FBF070C0FCF073C071F074C072F07F
:10012000CD0E0001C76FCC0EC86F2C0EC96F3F0EED
:10013000CA6F71C0B5F072C0B6F00001000EB6BF54
:10014000FF0EB76FB86F010E57EC93F0B5C0C3F058
:10015000B6C0C4F0B7C0C5F0B8C0C6F05AEC84F061
:10016000C3C0EEF0C4C0EFF0C5C0F0F0C6C0F1F0FF
:10017000FFEC9CF0EEC06DF0EFC06EF0080E51EC9D
:10018000B2F00009D8B41FD0AA0E0001D06F000E43
:100190000001D16F000E0001D36F640ED26F65ECC9
:1001A000B4F0AA0E0001B86F000E0001B96FFF0E87
:1001B0000001BB6FBA6969ECB3F07FECB5F00009E0
:1001C000D8A4D1ECB2F0000E0001FA6F0A0EF96F5C
:1001D0000001FABF63D00001FA5156E10001F905B0
:1001E000D8B052D05BD0B00E0001B76F000E000146
:1001F000B86F03ECABF0010E51ECB2F00009D8B4CB
:100200000ED06FC0CBF070C0CCF07AECB4F0B2EC92
:10021000B2F07FECB5F00009D8A4D1ECB2F0B00E8A
:100220000001DC6F000E0001DD6F5DECA0F0DCC0B2
:10023000ACF4DDC0ADF4DEC0AEF4DFC0AFF4ACC4EE
:10024000B9F0ADC4BAF0AEC4BBF0AFC4BCF0000EA0
:100250000001B56F000EB66F6C0EB76F420EB86F2F
:10026000BCEC88F0B5C0EEF0B6C0EFF0B7C0F0F06F
:10027000B8C0F1F0FFEC9CF0EEC06FF0EFC070F092
:100280000001F907D8A0FA070001FABF07D0000162
:10029000FA51A9E10001F905D8B0A5D7010E51EC3A
:1002A000B2F00009D8B42DD0FB0E0001CA6FFF0ECA
:1002B0000001CB6F000E0001CD6F230ECC6F3EEC22
:1002C00094F0590E0001CA6FFF0E0001CB6FFBC006
:1002D000CCF0FCC0CDF06DC0CEF06EC0CFF08CC0C5
:1002E000D0F00001D16B8DC0D2F00001D36B3EEC99
:1002F00094F052EC91F07FECB5F00009D8A4D1EC69
:10030000B2F0000174BF07D00001745103E1000195
:100310007305D8B09CD6AA0E0001D06F000E000164
:10032000D16F010E0001D36F900ED26F65ECB4F067
:10033000AA0E0001B86F000E0001B96F010E000196
:10034000BB6F900EBA6F69ECB3F0430E00016D25E0
:1003500000016D6F000E00016E2100016E6F000143
:100360006EBF12D00F0E00016D5D010E00016E59BF
:10037000D8A00AD0F20E00016D2500016D6FFE0EAF
:1003800000016E2100016E6F6DC0AAF46EC0ABF467
:100390000401AA1FAB1FAA4BAB2B0E0E0401AA250A
:1003A00000016D6F010E0401AB2100016E6F0001B1
:1003B0006EBF08D000016E5112E1870E00016D5D25
:1003C000D8B00DD06DC0D2F06EC0D3F0000E0001D9
:1003D000D56FC80ED46F000E79EC9CF01BD06DC0A9
:1003E000AAF46EC0ABF40401AA1FAB1FAA4BAB2B3F
:1003F0000E0E0401AA250001D26F010E0401AB21EB
:100400000001D36FFF0E0001D56F380ED46F000EC0
:1004100079EC9CF0000E0001B66FC80EB56F39EC98
:10042000AEF028D2010E0001746F900E736F030EB0
:100430000001FC6FE80EFB6F000E0001726F000EF2
:10044000716F030E00016E6FE80E6D6F000E0001FC
:10045000706F000E6F6F000E0001FA6F080EF96FDB
:10046000000E03013D6F000E3C6F5AD1000173076F
:10047000D8A07407B00E0001B76F000E0001B86F6E
:1004800003ECABF0B00E0001DC6F000E0001DD6F7D
:100490005DECA0F0DCC0ACF4DDC0ADF4DEC0AEF4C9
:1004A000DFC0AFF4ACC4B9F0ADC4BAF0AEC4BBF0B9
:1004B000AFC4BCF0000E0001B56F000EB66F6C0E3D
:1004C000B76F420EB86FBCEC88F0B5C0EEF0B6C0A6
:1004D000EFF0B7C0F0F0B8C0F1F0FFEC9CF0EEC068
:1004E0006FF0EFC070F0010E51ECB2F00009D8B41B
:1004F0000ED06FC0CBF070C0CCF07AECB4F0B2ECA0
:10050000B2F07FECB5F00009D8A4D1ECB2F0000154
:10051000FB5100016F5D00017051800A0401AA6F58
:100520000001FC51800A0401AA59D8B036D06FC02E
:10053000FBF070C0FCF073C071F074C072F0CD0EAF
:100540000001C76FCC0EC86F2C0EC96F3F0ECA6F6B
:1005500071C0B5F072C0B6F00001000EB6BFFF0E5C
:10056000B76FB86F010E57EC93F0B5C0C3F0B6C0CB
:10057000C4F0B7C0C5F0B8C0C6F05AEC84F0C3C030
:10058000EEF0C4C0EFF0C5C0F0F0C6C0F1F0FFEC73
:100590009CF0EEC06DF0EFC06EF0080E51ECB2F0C2
:1005A0000009D8B41FD0AA0E0001D06F000E0001C0
:1005B000D16F000E0001D36F640ED26F65ECB4F002
:1005C000AA0E0001B86F000E0001B96FFF0E000106
:1005D000BB6FBA6969ECB3F07FECB5F00009D8A441
:1005E000D1ECB2F0000E0001FA6F0A0EF96F0001B3
:1005F000FABF63D00001FA5156E10001F905D8B005
:1006000052D05BD0B00E0001B76F000E0001B86F82
:1006100003ECABF0010E51ECB2F00009D8B40ED0EF
:100620006FC0CBF070C0CCF07AECB4F0B2ECB2F0AA
:100630007FECB5F00009D8A4D1ECB2F0B00E000107
:10064000DC6F000E0001DD6F5DECA0F0DCC0ACF4EF
:10065000DDC0ADF4DEC0AEF4DFC0AFF4ACC4B9F0C1
:10066000ADC4BAF0AEC4BBF0AFC4BCF0000E000124
:10067000B56F000EB66F6C0EB76F420EB86FBCEC64
:1006800088F0B5C0EEF0B6C0EFF0B7C0F0F0B8C07B
:10069000F1F0FFEC9CF0EEC06FF0EFC070F00001E5
:1006A000F907D8A0FA070001FABF07D00001FA51F4
:1006B000A9E10001F905D8B0A5D7010E51ECB2F0BF
:1006C0000009D8B42DD0FB0E0001CA6FFF0E000147
:1006D000CB6F000E0001CD6F230ECC6F3EEC94F07B
:1006E000590E0001CA6FFF0E0001CB6FFBC0CCF0AA
:1006F000FCC0CDF06DC0CEF06EC0CFF08CC0D0F09D
:100700000001D16B8DC0D2F00001D36B3EEC94F0B0
:1007100052EC91F07FECB5F00009D8A4D1ECB2F026
:10072000000174BF07D00001745103E1000173059B
:10073000D8B09CD6AA0E0001D06F000E0001D16F78
:10074000010E0001D36F900ED26F65ECB4F0AA0ECB
:100750000001B86F000E0001B96F010E0001BB6F00
:10076000900EBA6F69ECB3F000016EBF17D00001B4
:100770006E5105E1C20E00016D5DD8A00FD00001E1
:100780006EBF08D000016E5109E1D40E00016D5D0D
:10079000D8B004D0010E0001896F65D0430E00016E
:1007A0006D2500016D6F000E00016E2100016E6F5E
:1007B00000016EBF12D00F0E00016D5D010E000131
:1007C0006E59D8A00AD0F20E00016D2500016D6FA0
:1007D000FE0E00016E2100016E6F6DC0AAF46EC0A6
:1007E000ABF40401AA1FAB1FAA4BAB2B0E0E0401E6
:1007F000AA2500016D6F010E0401AB2100016E6F8F
:1008000000016EBF08D000016E5112E1870E000199
:100810006D5DD8B00DD06DC0D2F06EC0D3F0000EBB
:100820000001D56FC80ED46F000E79EC9CF01BD080
:100830006DC0AAF46EC0ABF40401AA1FAB1FAA4B93
:10084000AB2B0E0E0401AA250001D26F010E04018C
:10085000AB210001D36FFF0E0001D56F380ED46FAE
:10086000000E79EC9CF0000E0001B66FC80EB56F5B
:1008700039ECAEF0000189510001D8B4D3D5AA0EED
:100880000001D06F000E0001D16F010E0001D36F87
:10089000900ED26F65ECB4F0AA0E0001B86F000E96
:1008A0000001B96FFF0E0001BB6F9C0EBA6F69ECBF
:1008B000B3F012000001C651800B0001CF6F0001A0
:1008C000C651C6250001D56F0001C5AF02D0000199
:1008D000D5810001D5510001D8B410D00001D5292F
:1008E000D8A409D0000E0001C36F000EC46F000E23
:1008F000C56F000EC66F0001C58F09D0000E000144
:10090000C36F000EC46F000EC56F000EC66F0001EE
:10091000CA51800B0001CF1B0001CA51CA2500013A
:10092000D06F0001C9AF02D00001D0810001D051C9
:100930000001D8B410D00001D029D8A409D0000EED
:100940000001C76F000EC86F000EC96F000ECA6F9E
:100950000001C98F09D0000E0001C76F000EC86FDB
:10096000000EC96F000ECA6F0001D0510001D8B44B
:1009700005D00001D5510001D8A40AD0000E000115
:10098000C36F000EC46F000EC56F000EC66F12005D
:100990000001C9510001C303F3CFDAF0F4CFDBF05B
:1009A0000001DA510001D16FD26BD36BD46B00011F
:1009B000DB510001D66FD76BD86BD96B0001C851E2
:1009C0000001C403F3CFDAF0F4CFDBF00001DA5119
:1009D0000001D127000ED223D323D4230001DB5101
:1009E0000001D627000ED723D823D9230001C751F1
:1009F0000001C503F3CFDAF0F4CFDBF00001DA51E8
:100A00000001D127000ED223D323D4230001DB51D0
:100A10000001D627000ED723D823D923D3C0D4F082
:100A2000D2C0D3F0D1C0D2F00001D16B0001C751C8
:100A30000001C403F3CFDAF0F4CFDBF00001DA51A8
:100A40000001D1270001DB510001D223000E00017B
:100A5000D323000E0001D4230001C8510001C303B9
:100A6000F3CFDAF0F4CFDBF00001DA510001D12747
:100A70000001DB510001D223000E0001D323000E40
:100A80000001D423D3C0D4F0D2C0D3F0D1C0D2F06F
:100A90000001D16B0001C7510001C303F3CFDAF0AD
:100AA000F4CFDBF00001DA510001D1270001DB5166
:100AB0000001D223000E0001D323000E0001D42335
:100AC0000001C9510001C403F3CFDAF0F4CFDBF029
:100AD0000001DA510001D6270001DB510001D723C4
:100AE000000E0001D823000E0001D9230001C851D7
:100AF0000001C503F3CFDAF0F4CFDBF00001DA51E7
:100B00000001D6270001DB510001D723000E0001B0
:100B1000D823000E0001D9230001C9510001C503EB
:100B2000F3CFDAF0F4CFDBF00001DA510001CB6F44
:100B30000001DB510001CC6F0001CD6B0001CE6BD9
:100B4000CDC0CEF0CCC0CDF0CBC0CCF00001CB6B93
:100B50000001CB510001D6270001CC510001D72361
:100B60000001CD510001D8230001CE510001D9234D
:100B7000D1C0CBF0D2C0CCF0D3C0CDF0D4C0CEF039
:100B8000190E06D00001D890CE33CD33CC33CB3301
:100B9000E82EF8D70001CB510001D6270001CC5137
:100BA0000001D7230001CD510001D8230001CE510F
:100BB0000001D923D3C0D4F0D2C0D3F0D1C0D2F039
:100BC0000001D16B0001D051D5C0CBF00001CC6B3E
:100BD0000001CB27000ECC23820E0001CB250001A3
:100BE000DA6FFF0E0001CC210001DB6F15D0000190
:100BF000D890D637D737D837D9370001D4AF02D0FD
:100C00000001D6810001D890D137D237D337D437FD
:100C10000001DA07D8A0DB070001D8AFE8D7000E43
:100C20000001D06F0001D4AF24D0FF0E0001D11518
:100C30000001CB6FFF0E0001D2150001CC6FFF0E3B
:100C40000001D3150001CD6F7F0E0001D415000106
:100C5000CE6F0001CB510001CC110001CD1100017C
:100C6000CE11D8A403D00001D6A103D0010E0001FB
:100C7000D06F0001D0510001D8B423D0010E000183
:100C8000D627000ED723D823D9230001D9A119D004
:100C9000D6C0CBF0D7C0CCF0D8C0CDF0D9C0CEF004
:100CA0000001CE35CE33CD33CC33CB33CBC0D6F0F1
:100CB000CCC0D7F0CDC0D8F0CEC0D9F00001DA4B0F
:100CC000DB2B0001DBBF10D00001DB5104E1000190
:100CD000DA29D8A009D0000E0001D66F000ED76F18
:100CE000800ED86F7F0E2BD00001DBBF07D0000134
:100CF000DB5111E10001DA05D8B00DD0000E000182
:100D0000D66F000ED76F000ED86F000ED96F000E91
:100D10000001CF6F15D0DAC0D5F0FF0E0001D61755
:100D2000FF0ED7177F0ED817000ED9170001D5A1D7
:100D300002D00001D88F0001D890D5310001D96FC1
:100D40000001CF510001D913D6C0C3F0D7C0C4F001
:100D5000D8C0C5F0D9C0C6F012000CD0780E000182
:100D6000E86F030E04D0830E0001E86F030E00014C
:100D7000E96F08D00001E651000AD8B4EFD7010AA4
:100D8000D8B4F1D7000120EE02F0E851D926E9519C
:100D9000DA22E6C0DFFFB1D0A00E0001DB6F000E4B
:100DA0000001DC6F020E0001DD6F030E0001DE6F3B
:100DB0001FEC95F0A00E0001DB6F000E0001DC6F50
:100DC000030E0001DD6F030E0001DE6F1FEC95F0D6
:100DD000A00E0001DB6F000E0001DC6F050E0001AC
:100DE000DD6F030E0001DE6F1FEC95F0A00E000119
:100DF000DB6F000E0001DC6F040E0001DD6F000EE2
:100E00000001DE6F1FEC95F0000120EE03F0E851C9
:100E1000D926E951DA22C70EDE6E0F0EDD6E000113
:100E200020EE06F0E851D926E951DA22C60EDE6E30
:100E30000F0EDD6E000120EE09F0E851D926E951D0
:100E4000DA22C90E56D0960E0001DB6F000E0001AB
:100E5000DC6F070E0001DD6F030E0001DE6F1FEC7B
:100E600095F0960E0001DB6F000E0001DC6F060EA0
:100E70000001DD6F030E0001DE6F1FEC95F0960E92
:100E80000001DB6F000E0001DC6F040E0001DD6F5E
:100E9000030E0001DE6F1FEC95F0960E0001DB6F74
:100EA000000E0001DC6F050E0001DD6F000E000179
:100EB000DE6F1FEC95F0000120EE03F0E851D9261B
:100EC000E951DA226D0EDE6E0F0EDD6E000120EEAE
:100ED00006F0E851D926E951DA226C0EDE6E0F0ECB
:100EE000DD6E000120EE09F0E851D926E951DA2241
:100EF0006F0EDE6E0F0EDD6E09D00001E651000AA6
:100F0000D8B44AD7010AD8A412009DD7000120EE18
:100F100006F0E851D926E951DA22DECFB5F0DDCF6F
:100F2000B6F0050E0001B76F000E0001B86F09ECB6
:100F3000AFF09CD0000120EE06F0E851D926E9512F
:100F4000DA22DECFB5F0DDCFB6F0040E0001B76FC8
:100F5000000E0001B86F09ECAFF0000120EE03F0C5
:100F6000E851D926E951DA22DECFB5F0DDCFB6F06F
:100F7000060E0001B76F000E0001B86F09ECAFF06C
:100F800084D0000120EE06F0E851D926E951DA229A
:100F9000DECFB5F0DDCFB6F0040E0001B76F000E66
:100FA0000001B86F09ECAFF0000120EE03F0E8514A
:100FB000D926E951DA22DECFB5F0DDCFB6F0060E44
:100FC0000001B76F010E0001B86F09ECAFF05DD002
:100FD000000120EE06F0E851D926E951DA22DECFF1
:100FE000B5F0DDCFB6F0040E0001B76F010E0001C1
:100FF000B86F09ECAFF0000120EE03F0E851D926FC
:10100000E951DA22DECFB5F0DDCFB6F0060E0001F1
:10101000B76F000E0001B86F09ECAFF036D00001D9
:1010200020EE06F0E851D926E951DA22DECFB5F0FC
:10103000DDCFB6F0040E0001B76F010E0001B86FEE
:1010400009ECAFF0000120EE03F0E851D926E95198
:10105000DA22DECFB5F0DDCFB6F0060E0001B76FB5
:10106000010E0001B86F09ECAFF00FD00001E7519D
:10107000000AD8B45FD7010AD8B483D7030AD8B41A
:10108000A7D7010AD8A41200CAD7000120EE06F0A3
:10109000E851D926E951DA22DECFB5F0DDCFB6F03E
:1010A000070E0001B76F000E0001B86F09ECAFF03A
:1010B000000120EE06F0E851D926E951DA22DECF10
:1010C000B5F0DDCFB6F0060E0001B76F000E0001DF
:1010D000B86F09ECAFF0E2C0C2F0E3C0C3F0E4C007
:1010E000C4F0E5C0C5F036EC9BF0E8C0B5F0E9C04F
:1010F000B6F08FECB4F004D09F860BD0A58E09D04B
:101100000001E651000AD8B4F7D7010AD8A41200AA
:10111000F5D7E8C0B5F0E9C0B6F0EFECB3F0E8C041
:10112000D9FFE9C0DAFF000EDF6E000120EE06F005
:10113000E851D926E951DA22DECFC0F0DDCFC1F087
:10114000000E0001C26F030E0001C36FD8ECB4F0B3
:10115000000120EE06F0E851D926E951DA22DECF6F
:10116000B5F0DDCFB6F0050E0001B76F010E00013E
:10117000B86F09ECAFF012000001B851800B00010C
:10118000C16F0001B851B8250001CC6F0001B7AFA5
:1011900002D00001CC810001CC510001D8B412D0A2
:1011A0000001CC29D8A409D0000E0001B56F000EB3
:1011B000B66F000EB76F000EB86F0001B78F000E4C
:1011C000000108D0000E0001B56F000EB66F000ED2
:1011D000B76F000EB86F0001BC51800B0001C11B3E
:1011E0000001BC51BC250001CD6F0001BBAF02D096
:1011F0000001CD810001CD510001D8B412D0000111
:10120000CD29D8A409D0000E0001B96F000EBA6F25
:10121000000EBB6F000EBC6F0001BB8F000E000103
:1012200008D0000E0001B96F000EBA6F000EBB6F40
:10123000000EBC6F0001B9510001BA110001BB11D1
:101240000001BC11D8A417D0000E0001B56F000E2C
:10125000B66F000EB76F000EB86F0001800EB713A7
:101260007F0EB813B5C0B5F0B6C0B6F0B7C0B7F0D2
:10127000B8C0B8F012000001CC510001D8A412D0BF
:10128000000E0001B56F000EB66F000EB76F000EB6
:10129000B86FB5C0B5F0B6C0B6F0B7C0B7F0B8C05B
:1012A000B8F012000001CD510001BD6FBE6B00010E
:1012B000BD1FBE1FBD4BBE2B0001CC510001BF6F37
:1012C000C06B0001BD510001BF270001BE510001EC
:1012D000C0237F0E0001BF250001C66F000E000174
:1012E000C0210001C76FB5C0C2F0B6C0C3F0B7C01F
:1012F000C4F0B8C0C5F0000E0001B56F000EB66FA7
:10130000000EB76F000EB86F000E0001C86F000E20
:10131000C96F000ECA6F000ECB6F000E0001CD6FBB
:1013200042D00001CD510001D8B417D00001D890AF
:10133000C237C337C437C5370001D890B537B63781
:10134000B737B8370001CBAF02D00001B58100013B
:10135000D890C837C937CA37CB370001B951000117
:10136000C25D0001BA510001C3590001BB51000127
:10137000C4590001BC510001C559D8A012D00001C8
:10138000CB8D0001B9510001C25F0001BA510001CB
:10139000C35B0001BB510001C45B0001BC510001F3
:1013A000C55B0001CD2B190E0001CD65BAD7000138
:1013B000C2510001C3110001C4110001C511D8B40C
:1013C00018D00001C88115D00001D890B537B637C4
:1013D000B737B8370001CBAF02D00001B5810001AB
:1013E000D890C837C937CA37CB370001C607D8A04D
:1013F000C7070001B7AFE8D7000E0001CD6F0001AD
:10140000CBAF24D0FF0E0001C8150001BD6FFF0E49
:101410000001C9150001BE6FFF0E0001CA150001D1
:10142000BF6F7F0E0001CB150001C06F0001BD51E1
:101430000001BE110001BF110001C011D8A403D0EA
:101440000001B5A103D0010E0001CD6F0001CD5107
:101450000001D8B423D0010E0001B527000EB62339
:10146000B723B8230001B8A119D0B5C0BDF0B6C0EC
:10147000BEF0B7C0BFF0B8C0C0F00001C035C03387
:10148000BF33BE33BD33BDC0B5F0BEC0B6F0BFC0C4
:10149000B7F0C0C0B8F00001C64BC72B0001C7BFF2
:1014A00014D00001C75104E10001C629D8A00DD015
:1014B000000E0001C76FC669000E0001B56F000E77
:1014C000B66F000EB76F000EB86F0001C7BF07D030
:1014D0000001C75115E10001C605D8B011D0000EBA
:1014E0000001C76F000EC66F000E0001B56F000E41
:1014F000B66F000EB76F000EB86F000E0001C16F1F
:10150000C6C0CCF00001CCA103D00001B78F02D03F
:101510000001B79F0001D890CC310001B86F0001E5
:10152000C1510001B813B5C0B5F0B6C0B6F0B7C030
:10153000B7F0B8C0B8F01200080E0001C4250001D1
:10154000C16F000E0001C5210001C26F000E000135
:10155000C36F0FECB3F00001DB6F0001DB51000142
:10156000C76FC86B0E0ED8900001C737C837E82E7A
:10157000FAD70001DB510001C96FCA6B0C0ED8907D
:101580000001C937CA37E82EFAD70001DB51000144
:10159000CB6FCC6B0A0ED8900001CB37CC37E82E3E
:1015A000FAD70001DB510001CE6FCD6B0001DB519A
:1015B0000001CF6FD06B060ED8900001CF37D03727
:1015C000E82EFAD70001DB510001D16FD26B000188
:1015D000D13BD23BF00ED217D1510F0BD213F00EEC
:1015E000D1170001DB510001D36FD46B0001D890FB
:1015F000D337D4370001D890D337D4370001DB512B
:101600000001D56FD66B0001D3510001D513000145
:10161000D4510001D6130001D1510001D5130001AE
:10162000D2510001D6130001CF510001D5130001A2
:10163000D0510001D6130001CD510001D513000196
:10164000CE510001D6130001CB510001D51300018A
:10165000CC510001D6130001C9510001D51300017E
:10166000CA510001D6130001C7510001D511000174
:10167000D76F0001C8510001D6110001D86FDBC03F
:10168000D9F00001DA6B080E0001C4250001C16F1A
:10169000000E0001C5210001C26F010E0001C36FE1
:1016A0000FECB3F00001C76FC86B0001D890C737CB
:1016B000C8370001D890C737C8370001C7510001AB
:1016C000D9130001C8510001DA13080E0001C42526
:1016D0000001C16F000E0001C5210001C26F020EA2
:1016E0000001C36F0FECB3F00001C76FC86B0001BE
:1016F000C73BC83BF00EC817C7510F0BC813F00EFD
:10170000C7170001C7510001D9130001C8510001DA
:10171000DA13080E0001C4250001C16F000E00019C
:10172000C5210001C26F030E0001C36F0FECB3F0BF
:101730000001C76FC86B060ED8900001C737C837C5
:10174000E82EFAD70001C7510001D9130001C85192
:101750000001DA13080E0001C4250001C16F000E5C
:101760000001C5210001C26F040E0001C36F0FEC20
:10177000B3F00001C76F0001C7510001C96FC86B0A
:101780000001C8510001D9130001C9510001DA1349
:10179000080E0001C4250001C16F000E0001C52123
:1017A0000001C26F050E0001C36F0FECB3F0000122
:1017B000C76FC86B0A0ED8900001C737C837E82E2C
:1017C000FAD70001C7510001D9130001C851000127
:1017D000DA13080E0001C4250001C16F000E0001DC
:1017E000C5210001C26F060E0001C36F0FECB3F0FC
:1017F0000001C76FC86B0C0ED8900001C737C837FF
:10180000E82EFAD70001C7510001D9130001C851D1
:101810000001DA13080E0001C4250001C16F000E9B
:101820000001C5210001C26F070E0001C36F0FEC5C
:10183000B3F00001C76FC86B0E0ED8900001C73718
:10184000C837E82EFAD70001C7510001D9130001AB
:10185000C8510001DA130001D9510001D71948E13C
:101860000001DA510001D819D8A4120032D00001C9
:1018700020EE02F0C451D926C551DA22DECFB5F0F0
:10188000DDCFB6F0C6C0B7F053ECB6F012000001E1
:10189000C61F000120EE02F0C451D926C551DA223C
:1018A000DECFB5F0DDCFB6F0C6C0B7F053ECB6F082
:1018B0001200000120EE04F0C451D926C551DA22ED
:1018C000DECFB5F0DDCFB6F0C6C0B7F053ECB6F062
:1018D00012000001DB51000AD8B41200010AD8B48A
:1018E000C6D7030AD8B4D3D7010AD8A41200E1D7C7
:1018F0001200EFECB0F0010E51ECB2F00009D8B4D8
:1019000029D0FB0E0001CA6FFF0E0001CB6F000E45
:101910000001CD6F230ECC6F3EEC94F0950E0001CC
:10192000CA6FFF0E0001CB6F79C0CCF07AC0CDF04A
:101930008CC0CEF00001CF6B8DC0D0F00001D16B18
:101940003EEC94F052EC91F07FECB5F00009D8A495
:10195000D1ECB2F0000E0001746F000E736F030E35
:101960000001FC6FE80EFB6F000E0001726F000EAD
:10197000716F000E0001706F000E6F6F000E00019E
:10198000FA6F080EF96FAED00001734B742BBBECED
:10199000A8F00001FB5100016F5D00017051800A49
:1019A0000401AA6F0001FC51800A0401AA59D8B0B1
:1019B00008D06FC0FBF070C0FCF073C071F074C051
:1019C00072F0080E51ECB2F00009D8B420D0AA0E83
:1019D0000001D06F000E0001D16F000E0001D36F27
:1019E000320ED26F65ECB4F0AA0E0001B86F000E93
:1019F0000001B96F000E0001BB6F010EBA6F69ECF8
:101A0000B3F07FECB5F00009D8A4D1ECB2F0000E31
:101A10000001FA6F0A0EF96F0001FABF63D00001EE
:101A2000FA5156E10001F905D8B052D05BD0B00EA2
:101A30000001B76F000E0001B86F03ECABF0010EB0
:101A400051ECB2F00009D8B40ED06FC0CBF070C02A
:101A5000CCF07AECB4F0B2ECB2F07FECB5F0000967
:101A6000D8A4D1ECB2F0B00E0001DC6F000E000182
:101A7000DD6F5DECA0F0DCC0ACF4DDC0ADF4DEC029
:101A8000AEF4DFC0AFF4ACC4B9F0ADC4BAF0AEC4CC
:101A9000BBF0AFC4BCF0000E0001B56F000EB66F16
:101AA0006C0EB76F420EB86FBCEC88F0B5C0EEF0AC
:101AB000B6C0EFF0B7C0F0F0B8C0F1F0FFEC9CF0AA
:101AC000EEC06FF0EFC070F00001F907D8A0FA0780
:101AD0000001FABF07D00001FA51A9E10001F905A0
:101AE000D8B0A5D7000174BF4FD7900E0001735D29
:101AF000010E00017459D8A047D7080E51ECB2F07E
:101B00000009D8B43FD0AA0E0001D06F000E00012A
:101B1000D16F000E0001D36F320ED26F65ECB4F0BE
:101B200071C0AAF472C0ABF40401AA1FAB1FAA4B88
:101B3000AB2B900E0401AA250401B06F010E040125
:101B4000AB210401B16FAA0E0001B86F000E0001B5
:101B5000B96FB0C4AAF4B1C4ABF40401AA1FAB1F9F
:101B6000AA4BAB2BAAC4BAF0ABC4BBF069ECB3F080
:101B70007FECB5F00009D8B405D0D1ECB2F002D0BA
:101B8000BBECA8F00001ABBF07D00001AB51F8E1FE
:101B90000001AA05D8B0F4D7000E08ECB6F0120088
:101BA0000001B56F7ED03F0E1200060E12005B0ED4
:101BB00012004F0E1200660E12006D0E12007D0E06
:101BC0001200070E12007F0E12006F0E12005F0E41
:101BD00012007C0E1200580E12005E0E12007B0ED8
:101BE0001200710E12006F0E1200740E1200040E1D
:101BF00012000E0E12007A0E1200060E1200140EC3
:101C00001200540E12005C0E1200730E1200670ECA
:101C10001200500E12006D0E1200780E12001C0EF3
:101C20001200620E12002A0E1200640E12006E0ED6
:101C300012005B0E1200770E12007F0E1200390E9A
:101C400012003F0E1200790E1200710E12003D0EAE
:101C50001200760E1200060E12001E0E1200570E13
:101C60001200380E1200760E1200760E12003F0E91
:101C70001200730E12003F0E1200770E12006D0E4E
:101C80001200310E12003E0E12003E0E12007E0EA9
:101C90001200760E1200660E12005B0E1200800E0D
:101CA00012000001B5512E0AD8B4F9D71E0AD8B4D3
:101CB0007AD7010AD8B479D7030AD8B478D7010AF9
:101CC000D8B477D7070AD8B476D7010AD8B475D76D
:101CD000030AD8B474D7010AD8B473D70F0AD8B49A
:101CE00072D7010AD8B471D7780AD8B4A4D7030A36
:101CF000D8B4A3D7010AD8B4A2D7070AD8B4A1D7B9
:101D0000010AD8B4A0D7030AD8B49FD7010AD8B41F
:101D10009ED70F0AD8B49DD7010AD8B49CD7030A1E
:101D2000D8B49BD7010AD8B49AD7070AD8B499D7A0
:101D3000010AD8B498D7030AD8B497D7010AD8B4FF
:101D400096D71F0AD8B495D7010AD8B494D7030AF6
:101D5000D8B493D7010AD8B492D7070AD8B491D788
:101D6000010AD8B490D7030AD8B48FD7010AD8B4DF
:101D70008ED70F0AD8B48DD7010AD8B48CD7030AEE
:101D8000D8B48BD73B0AD8B422D7030AD8B421D70A
:101D9000010AD8B420D7070AD8B41FD7010AD8B48B
:101DA0001ED7030AD8B41DD7010AD8B41CD70F0A0E
:101DB000D8B41BD7010AD8B41AD7030AD8B419D794
:101DC000010AD8B418D7070AD8B417D7010AD8B46B
:101DD00016D7030AD8B415D7010AD8B414D71F0AE6
:101DE000D8B413D7010AD8B412D7030AD8B411D77C
:101DF000010AD8B410D7070AD8B40FD7010AD8B44B
:101E00000ED7030AD8B40DD7010AD8B40CD70F0ADD
:101E1000D8B40BD7010AD8B40AD7030AD8B409D763
:101E2000000E1200050E0001EF6FC7D0000120EE7A
:101E300002F0EB51D926EC51DA22DECFC0F0DDCF33
:101E4000C1F0EDC0C2F00F0E0001C36FD8ECB4F0CA
:101E5000000120EE04F0EB51D926EC51DA22DECF5E
:101E6000C0F0DDCFC1F0EDC0C2F0000E0001C36FC5
:101E7000D8ECB4F0B0D0EBC0E4F0ECC0E5F0EDC0CD
:101E8000E6F0030E0001E76FCBECAFF00001EF6F5F
:101E90000001EF51D8A41200000120EE02F0EB5136
:101EA000D926EC51DA22DECFC0F0DDCFC1F0EDC093
:101EB000C2F0000E0001C36FD8ECB4F0000120EEB8
:101EC00004F0EB51D926EC51DA22DECFC0F0DDCFA1
:101ED000C1F0EDC0C2F0000E0001C36FD8ECB4F049
:101EE0007AD0EBC0E4F0ECC0E5F0EDC0E6F0030E14
:101EF0000001E76FCBECAFF00001EF6F0001EF5195
:101F0000D8A41200000120EE02F0EB51D926EC51CA
:101F1000DA22DECFC0F0DDCFC1F0EDC0C2F00F0E8F
:101F20000001C36FD8ECB4F0000120EE04F0EB51D7
:101F3000D926EC51DA22DECFC0F0DDCFC1F0EDC002
:101F4000C2F00F0E0001C36FD8ECB4F044D0EBC068
:101F5000E4F0ECC0E5F0EDC0E6F0030E0001E76F41
:101F6000CBECAFF00001EF6F0001EF51D8A41200ED
:101F7000000120EE02F0EB51D926EC51DA22DECF3F
:101F8000C0F0DDCFC1F0EDC0C2F0000E0001C36FA4
:101F9000D8ECB4F0000120EE04F0EB51D926EC515E
:101FA000DA22DECFC0F0DDCFC1F0EDC0C2F0000E0E
:101FB0000001C36FD8ECB4F00ED00001EE51000A5E
:101FC000D8B434D7010AD8B456D7030AD8B489D7BD
:101FD000010AD8B4BCD7080E0001EB250001C46F7C
:101FE000000E0001EC210001C56F0001ED51040D50
:101FF000F3CFC6F0EEC0C7F0C8ECB1F0080E000198
:10200000EB250001C46F000E0001EC210001C56F3B
:102010000001ED51040DF3280001C66FEEC0C7F0BA
:10202000C8ECB1F0080E0001EB250001C46F000EF2
:102030000001EC210001C56F0001ED51040DF350CA
:10204000020F0001C66FEEC0C7F0C8ECB1F0080E79
:102050000001EB250001C46F000E0001EC2100011E
:10206000C56F0001ED51040DF350030F0001C66F61
:10207000EEC0C7F0C8ECB1F01200050E0001F46F1D
:102080007AD0000120EE02F0EF51D926F051DA2289
:10209000DECFF2F0DDCFF3F0F2C0D9FFF3C0DAFF0C
:1020A000FF0E67D0EFC0EBF0F0C0ECF0010E0001C6
:1020B000ED6F39ECB1F00001F46F0001F451D8A4D8
:1020C0001200000120EE02F0EF51D926F051DA2281
:1020D000DECFF2F0DDCFF3F0F2C0D9FFF3C0DAFFCC
:1020E000000EDF6E000120EE04F036D0EFC0EBF002
:1020F000F0C0ECF0020E0001ED6F39ECB1F0000120
:10210000F46F0001F451D8A41200000120EE02F097
:10211000EF51D926F051DA22DECFF2F0DDCFF3F025
:10212000F2C0D9FFF3C0DAFFFF0EDF6E000120EE30
:1021300004F0AAD7EFC0EBF0F0C0ECF0000E000105
:10214000ED6F39ECB1F00001F46F0001F451D8A447
:102150001200000120EE02F0EF51D926F051DA22F0
:10216000DECFF2F0DDCFF3F0F2C0D9FFF3C0DAFF3B
:10217000000EDF6E0ED00001F151000AD8B481D7F5
:10218000010AD8B48FD7030AD8B4B0D7010AD8B49B
:10219000D1D7080E0001EF250001C46F000E000129
:1021A000F0210001C56F000E0001C66FF1C0C7F03D
:1021B000C8ECB1F0080E0001EF250001C46F000E5D
:1021C0000001F0210001C56F010E0001C66FF1C0D2
:1021D000C7F0C8ECB1F0080E0001EF250001C46F94
:1021E000000E0001F0210001C56F020E0001C66F54
:1021F000F1C0C7F0C8ECB1F0080E0001EF250001F6
:10220000C46F000E0001F0210001C56F030E000134
:10221000C66FF1C0C7F0C8ECB1F0080E0001EF25A1
:102220000001C46F000E0001F0210001C56F040E13
:102230000001C66FF1C0C7F0C8ECB1F0080E000194
:10224000EF250001C46F000E0001F0210001C56FF1
:10225000050E0001C66FF1C0C7F0C8ECB1F0080E62
:102260000001EF250001C46F000E0001F021000104
:10227000C56F060E0001C66FF1C0C7F0C8ECB1F023
:10228000080E0001EF250001C46F000E0001F021CF
:102290000001C56F070E0001C66FF1C0C7F0C8ECA2
:1022A000B1F012000001FF51D8B41200F2C3DBF00C
:1022B000F3C3DCF0F4C3DDF0F5C3DEF000019551AB
:1022C000D8B405D093C0DAF00F0E0001936F000E62
:1022D0000001E06FDFD00001E051020D000EF32499
:1022E000D96E030EF420DA6EDECFFDF0DDCFFEF006
:1022F000000E0001DF6F130E0001DF6501D0BED0BC
:102300000001E051140DB40E0001D86F040E00015D
:10231000D96FF3500001D827F4500001D9230001F0
:10232000DF51010DF3500001D825D96EF4500001A2
:10233000D921DA6EDFAE9AD00001E051140DB40E4F
:102340000001D86F040E0001D96FF3500001D827A7
:10235000F4500001D9230001DF51010DF3500001B9
:10236000D825D96EF4500001D921DA6E7F0EDF1620
:102370000001E051140DB40E0001D86F040E0001ED
:10238000D96FF3500001D827F4500001D923000180
:10239000DF51010DF3500001D825D96EF450000132
:1023A000D921DA6EDF50D8B44AD087C0BEF088C0D9
:1023B000BFF0DBC0C0F0DCC0C1F0DDC0C2F0DEC0E9
:1023C000C3F0FAC3C4F0FBC3C5F0FCC3C6F0FDC341
:1023D000C7F078ECACF00001E051140DB40E000130
:1023E000D86F040E0001D96FF3500001D827F450C4
:1023F0000001D9230001DF51010DF3500001D82560
:10240000D96EF4500001D921DA6EDF5073ECA2F0DE
:10241000BAC0C7F0BBC0C8F0DBC0C9F0DCC0CAF0AE
:10242000DDC0CBF0DEC0CCF0FAC3CDF0FBC3CEF004
:10243000FCC3CFF0FDC3D0F018ECA8F017D0000E0D
:102440000001BF6F000EBE6FDBC0C0F0DCC0C1F08A
:10245000DDC0C2F0DEC0C3F0FAC3C4F0FBC3C5F0F8
:10246000FCC3C6F0FDC3C7F078ECACF0060E00016B
:10247000DB27000EDC230001DF2B3DD7080E000117
:10248000DD27000EDE23000E0001DC6F060EDB6F81
:102490000001E02B0001E0510001935DD8B01BD793
:1024A00000019551D8B41200000E0001956FDAC0FA
:1024B00093F012006E0E0101006F030E0101016F17
:1024C000000E0101036F020E026F380E0101046F4E
:1024D0006D0E0101056F010E0101066F800E0101F5
:1024E000076F6B0E0101086F010E0101096F040EE9
:1024F00001010A6F140E01010B6F000E01010C6F38
:10250000A0ECA1F0500E0101006F030E0101016F5C
:10251000000E0101036F020E026F380E0101046FFD
:102520006D0E0101056F010E0101066FE00E010144
:10253000076F6B0E0101086F010E0101096F040E98
:1025400001010A6F140E01010B6F000E01010C6FE7
:10255000A0ECA1F0460E0101006F030E0101016F16
:10256000000E0101036F020E026F380E0101046FAD
:102570006D0E0101056F010E0101066FC80E01010C
:10258000076F6B0E0101086F010E0101096F040E48
:1025900001010A6F140E01010B6F000E01010C6F97
:1025A000A0ECA1F05A0E0101006F030E0101016FB2
:1025B000000E0101036F020E026F380E0101046F5D
:1025C0006D0E0101056F010E0101066FB00E0101D4
:1025D000076F6B0E0101086F010E0101096F040EF8
:1025E00001010A6F140E01010B6F000E01010C6F47
:1025F000A0ECA1F0640E0101006F030E0101016F58
:10260000000E0101036F020E026F380E0101046F0C
:102610006D0E0101056F010E0101066F980E01019B
:10262000076F6B0E0101086F010E0101096F040EA7
:1026300001010A6F140E01010B6F000E01010C6FF6
:10264000A0ECA1F0A00E0001E26F860EE36F010E78
:10265000E46F000EE56F000E0001E66F020E000150
:10266000E76FADEC86F0780E0001C46F030E000139
:10267000C56FECECACF0000E0001F16F000EF06FD6
:102680000001F15113E1080E0001F05DD8B0120015
:102690003E0E0001F025D96E030E0001F121DA6E25
:1026A000000EDF6E0001F04BF12BEAD712000001A3
:1026B000BD6F0001BD510001D8B41ED00001B8AFFC
:1026C0001BD0B5C0B9F0B6C0BAF0B7C0BBF0B8C047
:1026D000BCF00001B91FBA1FBB1FBC1FB92B000EF5
:1026E000BA23BB23BC23B9C0BFF0BAC0C0F0BBC083
:1026F000C1F0BCC0C2F008D0B5C0BFF0B6C0C0F0D9
:10270000B7C0C1F0B8C0C2F00001B5510001B611A8
:102710000001B7110001B811D8A40AD0000E0001C1
:10272000B56F000EB66F000EB76F000EB86F1200D7
:10273000960E0001BE6F08D00001BE2B0001D8909C
:10274000C233C133C033BF33000E0001BF150001D7
:10275000B96F000E0001C0150001BA6F000E000134
:10276000C1150001BB6FFE0E0001C2150001BC6F58
:102770000001B9510001BA110001BB110001BC11E7
:10278000D8B410D0D9D70001BE2B010E0001BF274D
:10279000000EC023C123C2230001D890C233C1332D
:1027A000C033BF33000E0001BF150001B96F000E2A
:1027B0000001C0150001BA6F000E0001C115000133
:1027C000BB6FFF0E0001C2150001BC6F0001B951C3
:1027D0000001BA110001BB110001BC11D8B409D02D
:1027E000D2D70001BE070001D890BF37C037C1372C
:1027F000C2370001C1BF04D0020E0001BE61F1D793
:102800000001BEB109D0FF0E0001BF17FF0EC017B7
:102810007F0EC117FF0EC2170001D890BE33BEC095
:10282000B9F00001BA6BBB6BBC6BB9C0BCF0000166
:10283000BB6BBA6BB96B0001B9510001BF1300014A
:10284000BA510001C0130001BB510001C1130001C6
:10285000BC510001C2130001BD510001D8B405D024
:102860000001B8AF02D00001C28FBFC0B5F0C0C038
:10287000B6F0C1C0B7F0C2C0B8F01200CC0E000173
:10288000D76F000E0001D86FC9D0250E0001DB19EB
:10289000D8B405D00001DB513EECB6F0BFD0000E3D
:1028A0000001D66F14D0D7C0D9FFD8C0DAFFDF50EF
:1028B0000001DB6F020E0001D727000ED8230001B4
:1028C000DB513EECB6F0AAD00001D68D1ED0CAC0B6
:1028D000F6FFCBC0F7FF0001CA4BCB2B000EF86E02
:1028E0000800F5CFDBF00001DB51000AD8B412007C
:1028F000630AD8B4D8D7070AD8B407D00D0AD8B419
:1029000004D01C0AD8B4E0D7DAD70001D6BD19D05C
:10291000D7C0D9FFD8C0DAFFDECFD9F0DDCFDAF0EB
:10292000020E0001D727000ED8230001DAAF16D01F
:10293000030E0001D6130001D96DDA1FD8B0DA2BCF
:102940000DD0D7C0D9FFD8C0DAFFDECFD9F0DDCFA8
:10295000DAF0020E0001D727000ED823010E000185
:10296000DB6F050E0001DB19D8B419D00001DB5173
:10297000020D510EF324F66EFD0EF420F76EF86A88
:10298000000EF8220900F5500001D95D0900F5504C
:102990000001DA59D8A003D00001DB2BE2D7D6C062
:1029A000D4F0030E0001D417D8B403D02D0E3EECA2
:1029B000B6F0DBC0D5F02CD00001D551020D510E80
:1029C000F324F66EFD0EF420F76EF86A000EF8227E
:1029D0000900F5CFB7F00A00F5CFB8F0D9C0B5F0CF
:1029E000DAC0B6F001ECACF0B5C0BCF0B6C0BDF0DA
:1029F000000E0001BF6F0A0EBE6F6CECAFF000015D
:102A0000BC51300F0001DB6F0001DB513EECB6F032
:102A10000001D5070001D529D8A4CED7CAC0F6FF3A
:102A2000CBC0F7FF0001CA4BCB2B000EF86E08009D
:102A3000F5CFDBF00001DB51D8B4120026D7DBC0A4
:102A4000D9FFDCC0DAFFDECFE0F0DDCFE1F0050E2C
:102A50000001DF6FB5D0000120EE02F0DB51D92676
:102A6000DC51DA22DECFB5F0DDCFB6F0DDC0B7F055
:102A7000010E0001B86F09ECAFF0B0D0E0C0C4F0B7
:102A8000E1C0C5F0010E0001C66FDDC0C7F086ECE5
:102A9000ABF00001DF6F0001DF51D8A4120000018C
:102AA00020EE02F0DB51D926DC51DA22DECFB5F080
:102AB000DDCFB6F0DDC0B7F0000E0001B86F09EC55
:102AC000AFF0000120EE04F0DB51D926DC51DA2210
:102AD000DECFB5F0DDCFB6F0DDC0B7F0000E0001FF
:102AE000B86F09ECAFF07AD0E0C0C4F0E1C0C5F037
:102AF000020E0001C66FDDC0C7F086ECABF000012E
:102B0000DF6F0001DF51D8A41200000120EE02F0B7
:102B1000DB51D926DC51DA22DECFB5F0DDCFB6F0BD
:102B2000DDC0B7F0010E0001B86F09ECAFF0000195
:102B300020EE04F0DB51D926DC51DA22DECFB5F0ED
:102B4000DDCFB6F0DDC0B7F0010E0001B86F09ECC3
:102B5000AFF044D0E0C0C4F0E1C0C5F0000E000109
:102B6000C66FDDC0C7F086ECABF00001DF6F00017F
:102B7000DF51D8A41200000120EE02F0DB51D9266B
:102B8000DC51DA22DECFB5F0DDCFB6F0DDC0B7F034
:102B9000000E0001B86F09ECAFF0000120EE04F068
:102BA000DB51D926DC51DA22DECFB5F0DDCFB6F02D
:102BB000DDC0B7F0000E0001B86F09ECAFF00ED029
:102BC0000001DE51000AD8B446D7010AD8B456D75E
:102BD000030AD8B489D7010AD8B4BCD7080E0001BB
:102BE000DB250001C46F000E0001DC210001C56F70
:102BF000DDC0C6F0DEC0C7F0C8ECB1F012000001C5
:102C0000C86FB1D06AECA8F012009DECAFF01200D2
:102C1000ECECA9F012003DECA3F01200D6ECAEF003
:102C20001200F9ECB4F01200C8C0C5F07F0E00012C
:102C3000C51700019351140DB40E0001C66F040EA8
:102C40000001C76FF3500001C627F4500001C723ED
:102C500000019451010DF3500001C625D96EF450C6
:102C60000001C721DA6EDF507F0B0001C519D8B40F
:102C70002ED0010E0001FF6F00019351140DB40E10
:102C80000001C56F040E0001C66FF3500001C52797
:102C9000F4500001C62300019451010DF3500001CE
:102CA000C525D96EF4500001C621DA6E0001C85165
:102CB0008009DF6E00019351020D000EF324D96EDE
:102CC000030EF420DA6EFDC0DEFFFEC0DDFFD6ECA1
:102CD000AEF00009D8B41200C8C0C5F07F0E0001E4
:102CE000C51700019351140DB40E0001C66F040EF8
:102CF0000001C76FF3500001C627F4500001C7233D
:102D000000019451010DF3500001C625D96EF45015
:102D10000001C721DA6EDF507F0B0001C519D8B45E
:102D20001200010E0001FF6F00019351140DB40E4B
:102D30000001C56F040E0001C66FF3500001C527E6
:102D4000F4500001C62300019451010DF35000011D
:102D5000C525D96EF4500001C621DA6E0001C851B4
:102D60008009DF6E12000001C851070AD8B456D797
:102D70000F0AD8B44AD7010AD8B44DD7030AD8B439
:102D800041D7060AD8B444D7010AD8B43BD72D0A94
:102D9000D8B44AD7030AD8B444D746D70001F7516C
:102DA00072ECA7F0F5C0D9FFF6C0DAFF0001B5C09C
:102DB000DEFF0001B6C0DDFF0001F751C5ECA7F052
:102DC000000120EE06F0F551D926F651DA22000175
:102DD000B5C0DEFF0001B6C0DDFF0001F751C5EC54
:102DE000A7F0000120EE04F0F551D926F651DA22C1
:102DF0000001B5C0DEFF0001B6C0DDFF0001F751E4
:102E00001FECA7F0000120EE02F0F551D926F65193
:102E1000DA220001B5C0DEFF0001B6C0DDFF00010F
:102E200020EE04F0F551D926F651DA22DECF00F17A
:102E3000DDCF01F100C1D9FF01C1DAFF000EDF6E65
:102E4000000120EE02F0F551D926F651DA22DECF4C
:102E500000F1DDCF01F100C1D9FF01C1DAFFFF0EA2
:102E6000DF6EF5C0EFF0F6C0F0F0000E0001F16F7C
:102E70003DEC90F0000E0001F86F070E0001F865C0
:102E800031D04BD0F5C0DBF0F6C0DCF0F8C0DDF09F
:102E9000030E0001DE6F1FEC95F03CD0F5C0DBF0B7
:102EA000F6C0DCF0F8C0DDF0020E0001DE6F1FECB2
:102EB00095F030D0F5C0DBF0F6C0DCF0F8C0DDF006
:102EC000010E0001DE6F1FEC95F024D0F5C0DBF0A1
:102ED000F6C0DCF0F8C0DDF0000E0001DE6F1FEC84
:102EE00095F018D0F5C0D9FFF6C0DAFFDECFC1F0FB
:102EF000DDCFC2F0F8C0C3F00FECB3F0000AD8B4D5
:102F0000C1D7010AD8B4D6D7030AD8B4C7D7010AA3
:102F1000D8B4DCD70001F82BB0D7F5C0C4F0F6C0A8
:102F2000C5F0000E0001C66F9CEC8AF01200000193
:102F3000CD6F000E0001CC6F000E0001D06FBB0EF4
:102F40000001CA6F000E0001CB6F950E4CECB6F07D
:102F50000001CD514CECB6F0000E0001D16F23D032
:102F6000CAC0D9FFCBC0DAFFDF500001CE6F020E1E
:102F70000001CA27000ECB230001CE51A3ECAEF016
:102F80000001CC270001D151010D000EF324D96EB0
:102F9000020EF420DA6ECEC0DFFF0001CE514CEC01
:102FA000B6F00001D12B0001CD510001D15DD8A0B8
:102FB000D7D7000E0001D16F0ED00001D151010D05
:102FC000000EF324D96E010EF420DA6E89ECB6F00F
:102FD000DF6E0001D12B0001CC510001D15DD8A0E2
:102FE000ECD7000E0001D16F5ED0D0C0CFF021D061
:102FF0000001CF51010D000EF324D96E010EF42013
:10300000DA6EDF500001B66F0001D05100080001F8
:10301000CF250001B76F0001D151010D000EF3243F
:10302000D96E020EF420DA6EDF5085EC9EF00001BE
:10303000CF2B0001D151010D000EF324D96E020EE9
:10304000F420DA6EDF50A3ECAEF00001C56FC66B62
:103050000001D0510001C527000EC6230001CF5149
:103060000001C76FC86B0001C5510001C75D0001B9
:10307000C851800A0001C96F0001C651800A0001D1
:10308000C959D8A0B5D70001D151010D000EF324C4
:10309000D96E020EF420DA6EDF50A3ECAEF0000120
:1030A000D0270001D12B0001CD510001D15DD8B056
:1030B00012009BD7010E4B6E000E0001636F000ED5
:1030C0000001646F000E0001656FC00E0001F56F16
:1030D000030E0001F66F000E0001F76FCEEC96F0C4
:1030E000B60E0001F56F030E0001F66F010E000130
:1030F000F76FCEEC96F0A00E0001F56F000E000108
:10310000F66F020E0001F76FCEEC96F0960E0001FE
:10311000F56F000E0001F66F030E0001F76FCEECA5
:1031200096F0AC0E0001F56F030E0001F66F040E71
:103130000001F76FCEEC96F0CA0E0001F56F030E9A
:103140000001F66F050E0001F76FCEEC96F0A20EAF
:103150000001F56F030E0001F66F060E0001F76F18
:10316000CEEC96F0CA0E0001DB6F030E0001DC6F9F
:10317000050E0001DD6F000E0001DE6F1FEC95F003
:10318000B60E0001EB6F030E0001EC6F000E0001A4
:10319000ED6F000E0001EE6F12EC8FF0CA0E000111
:1031A000DB6F030E0001DC6F060E0001DD6F030E06
:1031B0000001DE6F1FEC95F0A20E0001EF6F030E11
:1031C0000001F06F030E0001F16F3DEC90F0A20ED4
:1031D0000001C46F030E0001C56F040E0001C66F2D
:1031E000000E0001C76FDBECA2F0CA0E0001C46F35
:1031F000030E0001C56F060E0001C66F010E00012F
:10320000C76FDBECA2F0000E3BECAFF0010E3BEC25
:10321000AFF0000E9E6E000EA16E000EA46E9B8E8F
:103220009B8C000E0001B66F640EB56F39ECAEF0EA
:10323000D08E120060ECADF0000E0001ED6F000EBC
:10324000EC6F0001ED5106E1590E0001EC5DD8B0C4
:103250008BD001D089D0D8900001EC35F66E0001FA
:10326000ED35F76E7F0EF626FC0EF722F86A000E9B
:10327000F8220900800EF5180900F510D8A422D014
:103280000001ED511FE1580E0001EC5DD8B01AD0DD
:103290000001EC4BED2BD8900001EC35F66E0001EF
:1032A000ED35F76E7F0EF626FC0EF722F86A000E5B
:1032B000F8220900F5CFB5F00A00F5CFB6F039ECE9
:1032C000AEF04BD0D8900001EC35F66E0001ED3534
:1032D000F76E7F0EF626FC0EF722F86A000EF82233
:1032E0000900000EF55E0900010EF55AD8A020D0A5
:1032F000000E0001B86FD8900001EC35F66E0001A9
:10330000ED35F76E7F0EF626FC0EF722F86A000EFA
:10331000F8220900F5CFEAF00900F5CFEBF0EBC099
:10332000EAF00001EB6B0001EA51B6ECB4F015D005
:10333000010E0001B86FD8900001EC35F66E000167
:10334000ED35F76E7F0EF626FC0EF722F86A000EBA
:10335000F8220800F550B6ECB4F00001EC4BED2B70
:103360000001ED5101E170D7000E0001B66F640E4F
:10337000B56F39ECAEF0000E0001B86F290EB6EC57
:10338000B4F0010E58ECA9F0000E0001B66F640E07
:10339000B56F39ECAEF0000E0001BF6F000EBE6FCE
:1033A00024ECB0F01200000120EE07F0D051D92635
:1033B000D151DA2201D80AD00500FA6EDE50FD6E36
:1033C000DE50FE6EDE50FF6EFA5012000001D86F24
:1033D000D0C0D9FFD1C0DAFF0001D851DE18D8A47F
:1033E00021D0000120EE01F0D051D926D151DA22AE
:1033F0000001D251DE5CD8B00AD0000120EE01F00D
:10340000D051D926D151DA22000EDF6E1200000110
:1034100020EE01F0D051D926D151DA220001D2514B
:10342000DF5E1200000120EE01F0D051D926D1510B
:10343000DA22DF500001D36FD46B0001D2510001BA
:10344000D327000ED423000120EE01F0D051D9265D
:10345000D151DA22DF500001D56FD66B0001D35174
:103460000001D55D0001D651800A0001D76F00012F
:10347000D451800A0001D759D8B01200000120EEC3
:1034800001F0D051D926D151DA220001D251DF26E4
:10349000000120EE02F0D051D926D151DA220001EC
:1034A00010EE01F0D051E126D151E222E7500001A7
:1034B000D56FD66BDE500001D55DDE500001D659C8
:1034C000D8A01200D0C0D9FFD1C0DAFFD8C0DFFF2A
:1034D000000120EE01F0D051D926D151DA22000EA0
:1034E000DF6E000120EE04F0D051D926D151DA224E
:1034F00001D812000500FA6EDE50FD6EDE50FE6E41
:10350000DE50FF6EFA500001D8511200800E00010B
:10351000C86F8D0EC96F5B0ECA6F000ECB6FD59E44
:103520000001C2510001C3110001C4110001C51105
:10353000D8B41200D596D59CD59AD598C8C0B5F008
:10354000C9C0B6F0CAC0B7F0CBC0B8F0C2C0B9F0BD
:10355000C3C0BAF0C4C0BBF0C5C0BCF05DECA4F001
:10356000B5C0CCF0B6C0CDF0B7C0CEF0B8C0CFF08B
:103570000CD00001922B020E0001926501D02FD0D9
:10358000070E0001926501D01200CCC0B5F0CDC08D
:10359000B6F0CEC0B7F0CFC0B8F000019251020D26
:1035A000310EF324F66EFD0EF420F76EF86A000E6D
:1035B000F8220900F5CFC6F00900F5CFC7F0C6C064
:1035C000B9F0C7C0BAF00001BB6BBC6B5DECA4F0F6
:1035D0000001B851CEE10001B705D8B0CAD700014B
:1035E0009251020D310EF324F66EFD0EF420F76EAB
:1035F000F86A000EF8220800F5CF91F0FF0E0001E6
:10360000CC2503012A6FFF0E0001CD2103012B6F92
:10361000FF0E0001CE2103012C6FFF0E0001CF2110
:1036200003012D6F2AC3B5F02BC3B6F02CC3B7F03E
:103630002DC3B8F0000191510001B96FBA6BBB6B9B
:10364000BC6B5DECA4F00001B51F0001B61F0001CA
:10365000B54BB62BFF0E0001B525296EFF0E0001FC
:10366000B6212A6E68ECB6F0D58E1200000E00016D
:10367000CB6F6C0ECC6FDC0ECD6F020ECE6F0001E7
:10368000D890C237C337C437C537020E0001C66FA2
:10369000D8900001CE33CD33CC33CB330001C62FCD
:1036A000F7D7CBC0B5F0CCC0B6F0CDC0B7F0CEC028
:1036B000B8F0C2C0B9F0C3C0BAF0C4C0BBF0C5C056
:1036C000BCF05DECA4F0B5C0CFF0B6C0D0F0B7C090
:1036D000D1F0B8C0D2F010D0000E0001C76F000EBC
:1036E000C86F000EC96F000ECA6F0001902B020E4A
:1036F0000001906501D026D0CFC0B5F0D0C0B6F0A3
:10370000D1C0B7F0D2C0B8F000019051010D680EE1
:10371000F324F66EFD0EF420F76EF86A000EF82220
:103720000800F5500001B96FBA6BBB6BBC6B5DEC68
:10373000A4F00001B8510001B711CEE10001B605B7
:10374000D8B0CAD7CA5000019019FC0B9019CA6EA4
:10375000CA848DECB6F000019051010D680EF3247F
:10376000F66EFD0EF420F76EF86A000EF8220800DF
:10377000F5CF8FF0FF0E0001CF250301266FFF0E5E
:103780000001D0210301276FFF0E0001D1210301A9
:10379000286FFF0E0001D2210301296F26C3B5F067
:1037A00027C3B6F028C3B7F029C3B8F000018F5182
:1037B0000001B96FBA6BBB6BBC6B5DECA4F0000190
:1037C000B5510001906F90C0CBFF120051B205EFD0
:1037D0009EF0000120EE04F08351D9268451DA22B4
:1037E000DF5051ECB2F00009D8B47AD083C0D9FFD1
:1037F00084C0DAFFDE50DE10D8B46DD083C0D9FFAC
:1038000084C0DAFF010EDBBE26D0010EDB5003E1DF
:10381000DE04D8A020D083C0D9FF84C0DAFFDE2820
:1038200004E17F0EDE18D8B407D083C0D9FF84C06E
:10383000DAFFDE06000EDD5AAC0E0001C46F030E87
:103840000001C56F000E0001C66F010E0001C76FB9
:10385000DBECA2F01FD083C0D9FF84C0DAFFDE0406
:1038600004E1800EDE18D8B407D083C0D9FF84C02D
:10387000DAFFDE2A000EDD22AC0E0001C46F030E5B
:103880000001C56F000E0001C66F000E0001C76F7A
:10389000DBECA2F0AC0E0001C46F030E0001C56F9B
:1038A000010E0001C66F010E0001C76FDBECA2F034
:1038B000AC0E0001C46F030E0001C56F010E0001C4
:1038C000C66F000E0001C76FDBECA2F07FECB5F015
:1038D0006EECB6F012007FECB5F099ECB6F0120089
:1038E00066C0B5F067C0B6F068C0B7F05AECB6F085
:1038F00012000001D86F000E0001DC6F000EDB6FBC
:103900000001D3BF0DD00001D35104E10001D20565
:10391000D8A006D0000E0001DA6F010ED96F03D0D7
:103920000001D269D3690001D8510001D8B40CD08C
:10393000D4C0C5F0D5C0C6F0D9C0C7F0DAC0C8F051
:10394000010E73ECA5F01200D4C0C5F0D5C0C6F0CE
:10395000D9C0C7F0DAC0C8F0000E73ECA5F00001C2
:10396000D5BF22D00001D5510FE10001D405D8B058
:103970000BD01AD025ECB6F000017B510001DB27FB
:1039800000017C510001DC230001D2510001DB5D0C
:103990000001DC51800A0001D66F0001D351800A7A
:1039A0000001D659D8A0E6D70001D5BF14D023D046
:1039B00025ECB6F07BC0D6F07CC0D7F00001D61F56
:1039C000D71FD64BD72B0001D6510001DB270001B2
:1039D000D7510001DC230001D2510001DB5D000161
:1039E000DC51800A0001D66F0001D351800A00012A
:1039F000D659D8A0DDD7000EA5ECB1F01200000119
:103A0000F035F1350001F76F0001F751D8A40AD065
:103A1000000E0001EE6F000EEF6F000EF06F000E53
:103A2000F16F1200EEC0F2F0EFC0F3F0F0C0F4F06E
:103A3000F1C0F5F0200E06D00001D890F533F43334
:103A4000F333F233E82EF8D70001F2510001F66F9C
:103A50000001F08FFF0E0001EE17FF0EEF17FF0EB3
:103A6000F017000EF117960E0001F75F0001F7AF97
:103A70001AD00001F751800A970FD8B00AD0000E73
:103A80000001EE6F000EEF6F000EF06F000EF16F91
:103A900012000001D890F133F033EF33EE33000120
:103AA000F73FF7D71BD01F0E0001F76512D0000EAD
:103AB0000001EE6F000EEF6F000EF06F000EF16F61
:103AC00012000001D890EE37EF37F037F1370001E0
:103AD000F7070001F7510001D8A4F3D70001F65110
:103AE0000001D8B409D00001F11FF01FEF1FEE6DE7
:103AF000000EEF23F023F123EEC0EEF0EFC0EFF065
:103B0000F0C0F0F0F1C0F1F01200EFECB0F000EC1A
:103B100080F0000E0001B66F640EB56F39ECAEF0A8
:103B2000080E51ECB2F00009D8B420D0AA0E000162
:103B3000D06F000E0001D16F000E0001D36F640E34
:103B4000D26F65ECB4F0AA0E0001B86F000E000150
:103B5000B96FFF0E0001BB6FCE0EBA6F69ECB3F008
:103B60007FECB5F00009D8A4D1ECB2F0000E000152
:103B7000B66F640EB56F39ECAEF0BBECA8F06FC059
:103B800069F070C06AF004D074EC9FF04CECB3F0B4
:103B900000018C51D8A40CD000018D51D8A408D0BC
:103BA00000018B51D8A404D000018A51D8B4ECD7BD
:103BB000000EA5ECB1F0080E51ECB2F00009D8B43B
:103BC00020D0AA0E0001D06F000E0001D16F000EB0
:103BD0000001D36F640ED26F65ECB4F0AA0E000141
:103BE000B86F000E0001B96F000E0001BB6F320EFE
:103BF000BA6F69ECB3F07FECB5F00009D8A4D1EC52
:103C0000B2F0000E08ECB6F01200000120EE04F055
:103C10008351D9268451DA22DF50A1ECB3F0000998
:103C2000D8B46AD083C0D9FF84C0DAFFDE50DE107A
:103C3000D8B45DD083C0D9FF84C0DAFF010EDBBEEB
:103C400022D0010EDB5003E1DE04D8A01CD083C0DB
:103C5000D9FF84C0DAFFDE2804E17F0EDE18D8B475
:103C600007D083C0D9FF84C0DAFFDE06000EDD5A1C
:103C7000AC0E106E030E116E000E126E010E136E5E
:103C800077ECA6F01BD083C0D9FF84C0DAFFDE0436
:103C900004E1800EDE18D8B407D083C0D9FF84C0F9
:103CA000DAFFDE2A000EDD22AC0E106E030E116E5E
:103CB000000E126E000E136E77ECA6F0AC0E106EB6
:103CC000030E116E010E126E010E136E77ECA6F04C
:103CD000AC0E106E030E116E010E126E000E136EFE
:103CE00077ECA6F0A8ECB6F074ECB6F01200A8ECF5
:103CF000B6F0A5ECB6F0120066C001F067C002F0A5
:103D000068C003F061ECB6F012000001BA6F57D042
:103D1000B6C036F033ECAAF01200B6C035F012008F
:103D2000B6C034F01200B6C033F01200B6C032F0A4
:103D30001200B6C031F01200B6C030F0120000011F
:103D4000B7510001D8A405D0B6C022F30301236BFC
:103D50001200B6C024F30301256B030122510001B8
:103D6000B96FB86B030124510001B82500017D6FC4
:103D7000030125510001B92100017E6F12000001ED
:103D8000B7510001D8A405D0B6C01EF303011F6BC4
:103D90001200B6C020F30301216B03011E51000184
:103DA000B96FB86B030120510001B82500017B6F8A
:103DB000030121510001B92100017C6F12000001B3
:103DC000BA51070AD8B4A4D70F0AD8B4A6D7010AA3
:103DD000D8B4A6D7030AD8B4A6D7010AD8B4A6D7B0
:103DE000070AD8B4A6D7010AD8B4A6D71E0AD8B4F1
:103DF000A6D7070AD8A41200C2D7EFECB0F0010E84
:103E000051ECB2F00009D8B46BD0FB0E0001CA6FC0
:103E1000FF0E0001CB6F000E0001CD6F230ECC6FA3
:103E20003EEC94F0950E0001CA6FFF0E0001CB6FBF
:103E300079C0CCF07AC0CDF08CC0CEF00001CF6B51
:103E40008DC0D0F00001D16B3EEC94F052EC91F0BB
:103E5000000E00016C6F000E6B6F000E0001CF6F43
:103E6000C80ECE6FA8ECB5F027D01CECB6F0000160
:103E70007D5100016B2700017E5100016C23FB0E78
:103E80000001CA6FFF0E0001CB6F000E0001CD6F65
:103E9000230ECC6F3EEC94F0ED0E0001CA6FFF0EC6
:103EA0000001CB6F6BC0CCF06CC0CDF03EEC94F059
:103EB00052EC91F0BBECA8F000016CBFD6D7880E95
:103EC00000016B5D130E00016C59D8A0CED7000E17
:103ED000A5ECB1F07FECB5F00009D8A4D1ECB2F0BC
:103EE000000E08ECB6F01200F80E00016925010181
:103EF000046FFF0E00016A210101056FFD0E000134
:103F000069250101066FFF0E00016A210101076F9B
:103F1000030E000169250101086F000E00016A21EE
:103F20000101096FBBECA8F00101045100016F5DB4
:103F30000101055100017059D8B00ED0000E0001EA
:103F4000C66FC80EC56FFE0E0001C86F0C0EC76F9E
:103F5000000E73ECA5F012000101065100016F5D27
:103F60000101075100017059D8B00ED0000E0001B8
:103F7000C66FC80EC56FFC0E0001C86F180EC76F64
:103F8000000E73ECA5F0120000016F510101085DF5
:103F90000001705101010959D8B00ED0000E000186
:103FA000C66FC80EC56F020E0001C86FEE0EC76F58
:103FB000000E73ECA5F01200000E0001C66FC80ED3
:103FC000C56F030E0001C86FE80EC76F000E73ECDB
:103FD000A5F01200CCECA6F09EECA3F053D079EC47
:103FE0008CF068D0FDEC9EF065D030ECB2F062D081
:103FF00085EC9DF05FD0010E51ECB2F00009D8B411
:1040000059D0FB0E0001CA6FFF0E0001CB6F000EEE
:104010000001CD6F230ECC6F3EEC94F0D80E000162
:10402000CA6FFF0E0001CB6F3EEC94F0C30E00018F
:10403000CA6FFF0E0001CB6F3EEC94F0C30E00017F
:10404000CA6FFF0E0001CB6F3EEC94F0C30E00016F
:10405000CA6FFF0E0001CB6F3EEC94F0C30E00015F
:10406000CA6FFF0E0001CB6F3EEC94F052EC91F062
:1040700026ECADF07FECB5F00009D8B41BD0D1EC44
:10408000B2F018D075C0B2F476C0B3F40401B351E5
:10409000000AD8A4B0D70401B251010AD8B49FD7FE
:1040A000030AD8B49FD7010AD8B49FD7070AD8B457
:1040B0009FD7A1D7BBECA8F08FD7000E0001E26F0D
:1040C000000EE36F800EE46F440EE56F330E0001C7
:1040D000E66F330EE76F530EE86F400EE96F000195
:1040E00020EE01F0DC51D926DD51DA22DECFE0F0FE
:1040F000DDCFE1F0E0C0B5F0E1C0B6F00001B76B94
:10410000B86B000E57EC93F0B5C0EAF0B6C0EBF018
:10411000B7C0ECF0B8C0EDF0EAC0B5F0EBC0B6F057
:10412000ECC0B7F0EDC0B8F0E2C0B9F0E3C0BAF04F
:10413000E4C0BBF0E5C0BCF0BCEC88F0B5C0EAF070
:10414000B6C0EBF0B7C0ECF0B8C0EDF0EAC0C3F019
:10415000EBC0C4F0ECC0C5F0EDC0C6F0E6C0C7F0DF
:10416000E7C0C8F0E8C0C9F0E9C0CAF05AEC84F072
:10417000C3C0EAF0C4C0EBF0C5C0ECF0C6C0EDF0BF
:10418000EAC0DCF0EBC0DDF0ECC0DEF0EDC0DFF04B
:104190001200C1C0C9F0C2C0CAF0000E0001C86F51
:1041A000000EC76FC3C0C5F0C4C0C6F00001C9513E
:1041B0000001CA11D8A434D0C5C0D9FFC6C0DAFFE7
:1041C000300EDF6E000E0001C86F010EC76F40D0C9
:1041D000C9C0BCF0CAC0BDF0000E0001BF6F0A0E1E
:1041E000BE6F6CECAFF00001BC51300FC5C0D9FF01
:1041F000C6C0DAFFDF6EC9C0B5F0CAC0B6F0000EA7
:104200000001B86F0A0EB76F01ECACF0B5C0C9F091
:10421000B6C0CAF00001C74BC82B0001C54BC62B66
:104220000001C9510001CA11D8B408D00001C85119
:1042300005E1060E0001C75DD8A0CAD7C3C0B5F01E
:10424000C4C0B6F0C7C0B7F0C8C0B8F0CEECADF08F
:104250000001C7510001C325D96E0001C8510001FA
:10426000C421DA6E000EDF6E1200E2C0D9FFE3C097
:10427000DAFF000EDE6E000EDD6E000120EE02F0B1
:10428000E251D926E351DA22000EDE6E000EDD6E19
:10429000000120EE04F0E251D926E351DA22E4C015
:1042A000DEFFE5C0DDFFAC0E0001DB6F030E000199
:1042B000DC6F000E0001DD6F030E0001DE6F1FECEE
:1042C00095F0AC0E0001DB6F030E0001DC6F010EF8
:1042D0000001DD6F030E0001DE6F1FEC95F0AC0EE8
:1042E0000001C46F030E0001C56F000E0001C66F10
:1042F000000E0001C76FDBECA2F0AC0E0001C46F32
:10430000030E0001C56F010E0001C66F000E000113
:10431000C76FDBECA2F0CC0E0001666F370E000118
:10432000676F010E0001686FE80E0001C26F030E97
:10433000C36F000EC46F000EC56F86EC9AF01200BA
:104340000101005101010111D8B412000101045111
:104350000101051101010611D8B412000101075134
:104360000101081101010911D8B4120001010A511B
:1043700001010B1101010C11D8B41200010102510D
:1043800001010311D8A405D0000E0101036F010E35
:10439000026F00C1D9FF01C1DAFF000EDF6E01011B
:1043A00020EE01F00051D9260151DA22000EDF6E15
:1043B000010120EE02F00051D9260151DA2202C19A
:1043C000DEFF03C1DDFF010120EE04F00051D9261C
:1043D0000151DA220AC1DEFF0BC1DEFF0CC1DEFF94
:1043E000010120EE07F00051D9260151DA2207C160
:1043F000DEFF08C1DEFF09C1DEFF01D812000500A3
:10440000FA6E01010451FD6E0551FE6E0651FF6EFC
:10441000FA501200000E0001CF6F640ECE6FA8ECB0
:10442000B5F027D01CECB6F000017D5100016B27E0
:1044300000017E5100016C23FB0E0001CA6FFF0ECC
:104440000001CB6F000E0001CD6F230ECC6F3EEC50
:1044500094F0ED0E0001CA6FFF0E0001CB6F6BC030
:10446000CCF06CC0CDF03EEC94F052EC91F0BBEC93
:10447000A8F0FEC3B5F0FFC3B6F0030E0001B86F9D
:10448000E80EB76F86ECB3F00001B55100016B5D2B
:1044900000016C51800A0001F86F0001B651800ADA
:1044A0000001F859D8A0BED7000EA5ECB1F0000E5F
:1044B0000001B66F640EB56F39ECAEF0000E00016E
:1044C000D36F440ED26F000E0001D56FC80ED46FAB
:1044D000000E79EC9CF0000E0001B66F640EB56F13
:1044E00039ECAEF012000001C06F200E0001C05F79
:1044F0000001C051050DF3CFBEF0F4CFBFF06B0E3D
:104500000001BE250001C16FFD0E0001BF210001A9
:10451000C26F000E0001C56F040E0001C56501D019
:1045200043D0000E0001C66F060E0001C66501D023
:1045300035D0C1C0B5F0C2C0B6F0C6C0B7F0BCEC53
:10454000B3F00009D8A405D087C0C3F088C0C4F078
:1045500004D0FDC0C3F0FEC0C4F00001C6510A0D76
:10456000640E0001BC6F040E0001BD6FF35000012A
:10457000BC27F4500001BD230001C551020DF350CA
:104580000001BC25D96EF4500001BD21DA6EC3C014
:10459000DEFFC4C0DDFF0001C62BC6D70001C14B42
:1045A000C22B0001C52BB8D7640E0001BA6F040EF0
:1045B0000001BB6F1200080E0001C4250001C16F8D
:1045C000000E0001C5210001C26FC6C0C3F00FEC90
:1045D000B3F00001C86F42D0010E0001C7170001FF
:1045E00020EE02F0C451D926C551DA22DECFB5F053
:1045F000DDCFB6F0C6C0B7F0C7C0B8F009ECAFF079
:104600001200010E0001C717010E0001C71B0001B7
:1046100020EE02F0C451D926C551DA22DECFB5F022
:10462000DDCFB6F0C6C0B7F0C7C0B8F009ECAFF048
:104630001200010E0001C717000120EE04F0C45162
:10464000D926C551DA22DECFB5F0DDCFB6F0C6C02F
:10465000B7F0C7C0B8F009ECAFF012000001C851C4
:10466000000AD8B41200010AD8B4B6D7030AD8B4E5
:10467000C8D7010AD8A41200DCD7000E0001C36F0E
:10468000FA0E47240001B56FFF0E48200001B66FF7
:10469000000E0001B86F060EB76FFEECA3F000012C
:1046A000B5510001C46FC4C0B5F00001B66B000E77
:1046B0000001B86F040EB76FFEECA3F00001B55116
:1046C0000001C26F000E0001C36F06D072ECB2F0A1
:1046D000D6ECAEF00001C32B0001C251040DF31E55
:1046E000F41EF34AF42A0001C4510001BD6FBE6BF1
:1046F000F3500001BD27F4500001BE230001BD1F8F
:10470000BE1FBD4BBE2B040E0001BD27000EBE23F5
:104710000001C3510001BF6FC06B0001BD5100011A
:10472000BF5D0001C051800A0001C16F0001BE5190
:10473000800A0001C159D8B01200C8D726ECADF0EC
:10474000000E0001766F000E756F23EE61F001D848
:104750000AD00500FA6EDE50FD6EDE50FE6EDE50B1
:10476000FF6EFA5012000009D8B405D0000E000107
:10477000766F010E756F23EE4DF001D80AD005005B
:10478000FA6EDE50FD6EDE50FE6EDE50FF6EFA50A9
:1047900012000009D8B405D0000E0001766F020E99
:1047A000756F23EE6BF001D80AD00500FA6EDE506B
:1047B000FD6EDE50FE6EDE50FF6EFA5012000009F4
:1047C000D8B405D0000E0001766F030E756F23EE8E
:1047D00057F001D80AD00500FA6EDE50FD6EDE50AB
:1047E000FE6EDE50FF6EFA5012000009D8B41200BF
:1047F000000E0001766F040E756F1200000E0001AE
:10480000BA6F0001B8AF08D00001B76DB81FD8B0BB
:10481000B82B010E0001BA6F0001B6AF08D000013D
:10482000B56DB61FD8B0B62B010E0001BA1B000E35
:104830000001BC6F000EBB6F0001B7510001B81141
:10484000D8B42CD0010E0001B96F06D00001D89069
:10485000B737B8370001B92B0001B8AFF7D700015F
:10486000D890BB37BC370001B7510001B55D0001DE
:10487000B8510001B659D8A00AD00001B7510001C3
:10488000B55F0001B8510001B65B0001BB810001BA
:10489000D890B833B7330001B92FE1D70001BA512E
:1048A0000001D8B405D00001BB6DBC1FD8B0BC2B33
:1048B000BBC0B5F0BCC0B6F01200000E0001BD6F69
:1048C000000EBE6F000EBF6F000EC06F0001B95129
