:0614000055EF0AF0120096
:101408005182FACF17F0FBCF18F0E9CF19F0EACFE5
:101418001AF0E1CF1BF0E2CF1CF0D9CF1DF0DACFE4
:101428001EF0F3CF1FF0F4CF20F0F6CF21F0F7CF66
:1014380022F0F8CF23F0F5CF24F051C025F052C0A8
:1014480026F053C027F054C028F0F292F2B4F2AA62
:1014580002D024ECA3F028C054F027C053F026C0D3
:1014680052F025C051F024C0F5FF23C0F8FF22C078
:10147800F7FF21C0F6FF20C0F4FF1FC0F3FF1EC016
:10148800DAFF1DC0D9FF1CC0E2FF1BC0E1FF1AC074
:10149800EAFF19C0E9FF18C0FBFF17C0FAFF519215
:0614A800110072EF96F046
:10FCE40000001180002C0100B10200350036000034
:10FCF400B202003500360000B302003500360002BF
:10FD0400003500360000B4000000C0A200020084E8
:10FD14000000C1C50000C20D00000000C38D002A10
:10FD24000000C48D00EE0000C50A000036C80000C3
:10FD3400E012001C001000180033002C00250028DD
:10FD440000280027002F003C0000000300030010DF
:10FD5400008000780000E112001C00100018002D43
:10FD640000280023002800280026002F003B000064
:10FD740000030003001000003A0500002A000002FE
:10FD84000000008100002B000003000000A200001E
:10FD940029002C020004000800100020004000800C
:10FDA4000000010001020001000100020200000342
:10FDB40003030001000A006400E8031027000103A4
:10FDC400070F1F3F7FFF0002010301041000000022
:10FDD400000000005F00000007000700147F147F8C
:10FDE40014242A7F2A1223130864623649552250A8
:10FDF4000005030000001C2241000041221C0008F1
:10FE04002A1C2A0808083E08080050300000080888
:10FE1400080808006060000020100804023E5149F0
:10FE2400453E00427F400042615149462141454BD5
:10FE3400311814127F1027454545393C4A49493049
:10FE440001710905033649494936064949291E0005
:10FE540036360000005636000000081422411414FF
:10FE6400141414412214080002015109063249797C
:10FE7400413E7E1111117E7F494949363E4141413F
:10FE8400227F4141221C7F494949417F09090101DF
:10FE94003E414151327F0808087F00417F410020E4
:10FEA40040413F017F081422417F404040407F028F
:10FEB40004027F7F0408107F3E4141413E7F0909CF
:10FEC40009063E4151215E7F09192946464949499F
:10FED4003101017F01013F4040403F1F2040201F6E
:10FEE4007F2018207F6314081463030478040361DB
:10FEF4005149454300007F4141020408102041411B
:10FF04007F0000040201020440404040400001021E
:10FF1400040020545454787F4844443838444444BA
:10FF240020384444487F3854545418087E09010248
:10FF3400081454543C7F0804047800447D40002095
:10FF440040443D00007F10284400417F40007C0471
:10FF54001804787C0804047838444444387C141425
:10FF64001408081414187C7C0804040848545454D5
:10FF740020043F4440203C4040207C1C2040201C66
:10FF84003C4030403C44281028440C5050503C44E1
:10FF940064544C44000836410000007F00000041D6
:10FFA40036080008082A1C08081C2A080800FCFF58
:10FFB4000F0000FFFFF0FF00FFFF00546F74616C3F
:10FFC4002044697374616E63653A25750A4C6566ED
:10FFD400742042756D703A25750A526967687420F9
:10FFE40042756D703A25750A0044697374616E63D5
:0BFFF400653A2025640A002563000028
:020000040001F9
:100000000CD0720E0001EE6F030E04D07D0E0001C5
:10001000EE6F030E0001EF6F08D00001EC51000AF3
:10002000D8B4EFD7010AD8B4F1D7000120EE02F01E
:10003000EE51D926EF51DA22ECC0DFFFB1D0A90E84
:100040000001E16F000E0001E26F020E0001E36F9C
:10005000030E0001E46F54EC8AF0A90E0001E16F79
:10006000000E0001E26F030E0001E36F030E0001BA
:10007000E46F54EC8AF0A90E0001E16F000E00015C
:10008000E26F050E0001E36F030E0001E46F54EC14
:100090008AF0A90E0001E16F000E0001E26F040E6C
:1000A0000001E36F000E0001E46F54EC8AF00001E0
:1000B00020EE03F0EE51D926EF51DA22C70EDE6EA4
:1000C0000F0EDD6E000120EE06F0EE51D926EF5145
:1000D000DA22C60EDE6E0F0EDD6E000120EE09F094
:1000E000EE51D926EF51DA22C90E56D09F0E0001EB
:1000F000E16F000E0001E26F070E0001E36F030ED7
:100100000001E46F54EC8AF09F0E0001E16F000ED5
:100110000001E26F060E0001E36F030E0001E46FC1
:1001200054EC8AF09F0E0001E16F000E0001E26FB7
:10013000040E0001E36F030E0001E46F54EC8AF03B
:100140009F0E0001E16F000E0001E26F050E00013D
:10015000E36F000E0001E46F54EC8AF0000120EE22
:1001600003F0EE51D926EF51DA226D0EDE6E0F0E3E
:10017000DD6E000120EE06F0EE51D926EF51DA22B5
:100180006C0EDE6E0F0EDD6E000120EE09F0EE51FA
:10019000D926EF51DA226F0EDE6E0F0EDD6E09D01A
:1001A0000001EC51000AD8B44AD7010AD8A41200C1
:1001B0009DD7000120EE06F0EE51D926EF51DA224C
:1001C000DECFBBF0DDCFBCF0050E0001BD6F000E31
:1001D0000001BE6F78EC9EF09CD0000120EE06F08E
:1001E000EE51D926EF51DA22DECFBBF0DDCFBCF0E5
:1001F000040E0001BD6F000E0001BE6F78EC9EF092
:10020000000120EE03F0EE51D926EF51DA22DECFC5
:10021000BBF0DDCFBCF0060E0001BD6F000E00018B
:10022000BE6F78EC9EF084D0000120EE06F0EE5117
:10023000D926EF51DA22DECFBBF0DDCFBCF0040EC1
:100240000001BD6F000E0001BE6F78EC9EF0000152
:1002500020EE03F0EE51D926EF51DA22DECFBBF0CB
:10026000DDCFBCF0060E0001BD6F010E0001BE6FB8
:1002700078EC9EF05DD0000120EE06F0EE51D9261C
:10028000EF51DA22DECFBBF0DDCFBCF0040E00016F
:10029000BD6F010E0001BE6F78EC9EF0000120EEF4
:1002A00003F0EE51D926EF51DA22DECFBBF0DDCFDD
:1002B000BCF0060E0001BD6F000E0001BE6F78ECB1
:1002C0009EF036D0000120EE06F0EE51D926EF5117
:1002D000DA22DECFBBF0DDCFBCF0040E0001BD6F33
:1002E000010E0001BE6F78EC9EF0000120EE03F0DD
:1002F000EE51D926EF51DA22DECFBBF0DDCFBCF0D4
:10030000060E0001BD6F010E0001BE6F78EC9EF07D
:100310000FD00001ED51000AD8B45FD7010AD8B45C
:1003200083D7030AD8B4A7D7010AD8A41200CAD722
:10033000000120EE06F0EE51D926EF51DA22DECF91
:10034000BBF0DDCFBCF0070E0001BD6F000E000159
:10035000BE6F78EC9EF0000120EE06F0EE51D9263B
:10036000EF51DA22DECFBBF0DDCFBCF0060E00018C
:10037000BD6F000E0001BE6F78EC9EF0E8C0C8F0C3
:10038000E9C0C9F0EAC0CAF0EBC0CBF0BBEC8FF01B
:10039000EEC0BBF0EFC0BCF050ECA3F004D09F86E1
:1003A0000BD0A58E09D00001EC51000AD8B4F7D7C4
:1003B000010AD8A41200F5D7EEC0BBF0EFC0BCF024
:1003C000DDECA2F0EEC0D9FFEFC0DAFF000EDF6E69
:1003D000000120EE06F0EE51D926EF51DA22DECFF1
:1003E000C6F0DDCFC7F0000E0001C86F030E00019C
:1003F000C96F86ECA3F0000120EE06F0EE51D9267D
:10040000EF51DA22DECFBBF0DDCFBCF0050E0001EC
:10041000BD6F010E0001BE6F78EC9EF01200080E59
:100420000001CA250001C76F000E0001CB210001A9
:10043000C86F000E0001C96F1BECA2F00001E16F54
:100440000001E1510001CD6FCE6B0E0ED89000017E
:10045000CD37CE37E82EFAD70001E1510001CF6F3A
:10046000D06B0C0ED8900001CF37D037E82EFAD7DA
:100470000001E1510001D16FD26B0A0ED89000014A
:10048000D137D237E82EFAD70001E1510001D46FFD
:10049000D36B0001E1510001D56FD66B060ED890E9
:1004A0000001D537D637E82EFAD70001E151000117
:1004B000D76FD86B0001D73BD83BF00ED817D75178
:1004C0000F0BD813F00ED7170001E1510001D96FBF
:1004D000DA6B0001D890D937DA370001D890D937D4
:1004E000DA370001E1510001DB6FDC6B0001D9510B
:1004F0000001DB130001DA510001DC130001D751C8
:100500000001DB130001D8510001DC130001D551BB
:100510000001DB130001D6510001DC130001D351AF
:100520000001DB130001D4510001DC130001D151A3
:100530000001DB130001D2510001DC130001CF5197
:100540000001DB130001D0510001DC130001CD518B
:100550000001DB110001DD6F0001CE510001DC1153
:100560000001DE6FE1C0DFF00001E06B080E00016A
:10057000CA250001C76F000E0001CB210001C86F22
:10058000010E0001C96F1BECA2F00001CD6FCE6B14
:100590000001D890CD37CE370001D890CD37CE3777
:1005A0000001CD510001DF130001CE510001E01325
:1005B000080E0001CA250001C76F000E0001CB2103
:1005C0000001C86F020E0001C96F1BECA2F0000110
:1005D000CD6FCE6B0001CD3BCE3BF00ECE17CD5193
:1005E0000F0BCE13F00ECD170001CD510001DF131C
:1005F0000001CE510001E013080E0001CA250001E0
:10060000C76F000E0001CB210001C86F030E00016F
:10061000C96F1BECA2F00001CD6FCE6B060ED89017
:100620000001CD37CE37E82EFAD70001CD510001B9
:10063000DF130001CE510001E013080E0001CA25AE
:100640000001C76F000E0001CB210001C86F040E2E
:100650000001C96F1BECA2F00001CD6F0001CD516C
:100660000001CF6FCE6B0001CE510001DF130001FE
:10067000CF510001E013080E0001CA250001C76F29
:10068000000E0001CB210001C86F050E0001C96FEB
:100690001BECA2F00001CD6FCE6B0A0ED8900001CA
:1006A000CD37CE37E82EFAD70001CD510001DF1348
:1006B0000001CE510001E013080E0001CA2500011F
:1006C000C76F000E0001CB210001C86F060E0001AC
:1006D000C96F1BECA2F00001CD6FCE6B0C0ED89051
:1006E0000001CD37CE37E82EFAD70001CD510001F9
:1006F000DF130001CE510001E013080E0001CA25EE
:100700000001C76F000E0001CB210001C86F070E6A
:100710000001C96F1BECA2F00001CD6FCE6B0E0E75
:10072000D8900001CD37CE37E82EFAD70001CD5151
:100730000001DF130001CE510001E0130001DF5181
:100740000001DD1948E10001E0510001DE19D8A4E3
:10075000120032D0000120EE02F0CA51D926CB514E
:10076000DA22DECFBBF0DDCFBCF0CCC0BDF0E2ECD6
:10077000A4F012000001CC1F000120EE02F0CA51CB
:10078000D926CB51DA22DECFBBF0DDCFBCF0CCC016
:10079000BDF0E2ECA4F01200000120EE04F0CA511A
:1007A000D926CB51DA22DECFBBF0DDCFBCF0CCC0F6
:1007B000BDF0E2ECA4F012000001E151000AD8B44F
:1007C0001200010AD8B4C6D7030AD8B4D3D7010A95
:1007D000D8A41200E1D712000001BB6F7ED03F0EFB
:1007E0001200060E12005B0E12004F0E1200660E73
:1007F00012006D0E12007D0E1200070E12007F0E09
:1008000012006F0E12005F0E12007C0E1200580EC6
:1008100012005E0E12007B0E1200710E12006F0E9F
:100820001200740E1200040E12000E0E12007A0E48
:100830001200060E1200140E1200540E12005C0E6E
:100840001200730E1200670E1200500E12006D0E91
:100850001200780E12001C0E1200620E12002A0EF8
:100860001200640E12006E0E12005B0E1200770E64
:1008700012007F0E1200390E12003F0E1200790E88
:100880001200710E12003D0E1200760E1200060EBE
:1008900012001E0E1200570E1200380E1200760EB5
:1008A0001200760E12003F0E1200730E12003F0E61
:1008B0001200770E12006D0E1200310E12003E0E65
:1008C00012003E0E12007E0E1200760E1200660E10
:1008D00012005B0E1200800E12000001BB512E0AA6
:1008E000D8B4F9D71E0AD8B47AD7010AD8B479D7C0
:1008F000030AD8B478D7010AD8B477D7070AD8B48E
:1009000076D7010AD8B475D7030AD8B474D7010AC8
:10091000D8B473D70F0AD8B472D7010AD8B471D734
:10092000780AD8B4A4D7030AD8B4A3D7010AD8B494
:10093000A2D7070AD8B4A1D7010AD8B4A0D7030A0E
:10094000D8B49FD7010AD8B49ED70F0AD8B49DD780
:10095000010AD8B49CD7030AD8B49BD7010AD8B4EB
:100960009AD7070AD8B499D7010AD8B498D7030AF6
:10097000D8B497D7010AD8B496D71F0AD8B495D758
:10098000010AD8B494D7030AD8B493D7010AD8B4CB
:1009900092D7070AD8B491D7010AD8B490D7030ADE
:1009A000D8B48FD7010AD8B48ED70F0AD8B48DD750
:1009B000010AD8B48CD7030AD8B48BD73B0AD8B471
:1009C00022D7030AD8B421D7010AD8B420D7070AFE
:1009D000D8B41FD7010AD8B41ED7030AD8B41DD77C
:1009E000010AD8B41CD70F0AD8B41BD7010AD8B44F
:1009F0001AD7030AD8B419D7010AD8B418D7070AE6
:100A0000D8B417D7010AD8B416D7030AD8B415D763
:100A1000010AD8B414D71F0AD8B413D7010AD8B41E
:100A200012D7030AD8B411D7010AD8B410D7070ACD
:100A3000D8B40FD7010AD8B40ED7030AD8B40DD74B
:100A4000010AD8B40CD70F0AD8B40BD7010AD8B40E
:100A50000AD7030AD8B409D7000E1200050E000108
:100A6000F56FC7D0000120EE02F0F151D926F25106
:100A7000DA22DECFC6F0DDCFC7F0F3C0C8F00F0E2C
:100A80000001C96F86ECA3F0000120EE04F0F151E3
:100A9000D926F251DA22DECFC6F0DDCFC7F0F3C09F
:100AA000C8F0000E0001C96F86ECA3F0B0D0F1C011
:100AB000EAF0F2C0EBF0F3C0ECF0030E0001ED6FD2
:100AC0003AEC9FF00001F56F0001F551D8A4120037
:100AD000000120EE02F0F151D926F251DA22DECFE8
:100AE000C6F0DDCFC7F0F3C0C8F0000E0001C96F3B
:100AF00086ECA3F0000120EE04F0F151D926F2516A
:100B0000DA22DECFC6F0DDCFC7F0F3C0C8F0000EAA
:100B10000001C96F86ECA3F07AD0F1C0EAF0F2C010
:100B2000EBF0F3C0ECF0030E0001ED6F3AEC9FF038
:100B30000001F56F0001F551D8A41200000120EE6C
:100B400002F0F151D926F251DA22DECFC6F0DDCF24
:100B5000C7F0F3C0C8F00F0E0001C96F86ECA3F018
:100B6000000120EE04F0F151D926F251DA22DECF55
:100B7000C6F0DDCFC7F0F3C0C8F00F0E0001C96F9B
:100B800086ECA3F044D0F1C0EAF0F2C0EBF0F3C081
:100B9000ECF0030E0001ED6F3AEC9FF00001F56FF1
:100BA0000001F551D8A41200000120EE02F0F1512D
:100BB000D926F251DA22DECFC6F0DDCFC7F0F3C07E
:100BC000C8F0000E0001C96F86ECA3F0000120EE12
:100BD00004F0F151D926F251DA22DECFC6F0DDCF92
:100BE000C7F0F3C0C8F0000E0001C96F86ECA3F097
:100BF0000ED00001F451000AD8B434D7010AD8B499
:100C000056D7030AD8B489D7010AD8B4BCD7080E7E
:100C10000001F1250001CA6F000E0001F221000160
:100C2000CB6F0001F351040DF3CFCCF0F4C0CDF045
:100C300037ECA1F0080E0001F1250001CA6F000E8B
:100C40000001F2210001CB6F0001F351040DF328E4
:100C50000001CC6FF4C0CDF037ECA1F0080E00011C
:100C6000F1250001CA6F000E0001F2210001CB6FD7
:100C70000001F351040DF350020F0001CC6FF4C0DA
:100C8000CDF037ECA1F0080E0001F1250001CA6F8C
:100C9000000E0001F2210001CB6F0001F351040DA1
:100CA000F350030F0001CC6FF4C0CDF037ECA1F08E
:100CB0001200050E0001F86F7AD0000120EE02F05C
:100CC000F551D926F651DA22DECF00F1DDCF01F160
:100CD00000C1D9FF01C1DAFFFF0E67D0F5C0F1F006
:100CE000F6C0F2F0010E0001F36FA9ECA0F00001D4
:100CF000F86F0001F851D8A41200000120EE02F0B4
:100D0000F551D926F651DA22DECF00F1DDCF01F11F
:100D100000C1D9FF01C1DAFF000EDF6E000120EE35
:100D200004F036D0F5C0F1F0F6C0F2F0020E00018A
:100D3000F36FA9ECA0F00001F86F0001F851D8A4FE
:100D40001200000120EE02F0F551D926F651DA2208
:100D5000DECF00F1DDCF01F100C1D9FF01C1DAFF23
:100D6000FF0EDF6E000120EE04F0AAD7F5C0F1F00F
:100D7000F6C0F2F0000E0001F36FA9ECA0F0000144
:100D8000F86F0001F851D8A41200000120EE02F023
:100D9000F551D926F651DA22DECF00F1DDCF01F18F
:100DA00000C1D9FF01C1DAFF000EDF6E0ED00001D5
:100DB000F751000AD8B481D7010AD8B48FD7030AF3
:100DC000D8B4B0D7010AD8B4D1D7080E0001F525A0
:100DD0000001CA6F000E0001F6210001CB6F000E6A
:100DE0000001CC6FF7C0CDF037ECA1F0080E000188
:100DF000F5250001CA6F000E0001F6210001CB6F3E
:100E0000010E0001CC6FF7C0CDF037ECA1F0080E59
:100E10000001F5250001CA6F000E0001F621000156
:100E2000CB6F020E0001CC6FF7C0CDF037ECA1F014
:100E3000080E0001F5250001CA6F000E0001F62121
:100E40000001CB6F030E0001CC6FF7C0CDF037EC83
:100E5000A1F0080E0001F5250001CA6F000E000187
:100E6000F6210001CB6F040E0001CC6FF7C0CDF06E
:100E700037ECA1F0080E0001F5250001CA6F000E45
:100E80000001F6210001CB6F050E0001CC6FF7C009
:100E9000CDF037ECA1F0080E0001F5250001CA6F76
:100EA000000E0001F6210001CB6F060E0001CC6F91
:100EB000F7C0CDF037ECA1F0080E0001F5250001D8
:100EC000CA6F000E0001F6210001CB6F070E000172
:100ED000CC6FF7C0CDF037ECA1F012000001FF514C
:100EE000D8B41200DFC3E1F0E0C3E2F0E1C3E3F005
:100EF000E2C3E4F000019451D8B405D092C0E0F010
:100F00000F0E0001926F000E0001E66FDFD00001AE
:100F1000E651020D000EF324D96E030EF420DA6EB2
:100F2000DECFFDF0DDCFFEF0000E0001E56F130E09
:100F30000001E56501D0BED00001E651140DAA0EF6
:100F40000001DE6F040E0001DF6FF3500001DE27A9
:100F5000F4500001DF230001E551010DF3500001C1
:100F6000DE25D96EF4500001DF21DA6EDFAE9AD0B3
:100F70000001E651140DAA0E0001DE6F040E0001FF
:100F8000DF6FF3500001DE27F4500001DF23000182
:100F9000E551010DF3500001DE25D96EF45000013A
:100FA000DF21DA6E7F0EDF160001E651140DAA0E66
:100FB0000001DE6F040E0001DF6FF3500001DE2739
:100FC000F4500001DF230001E551010DF350000151
:100FD000DE25D96EF4500001DF21DA6EDF50D8B47F
:100FE0004AD087C0C4F088C0C5F0E1C0C6F0E2C0F6
:100FF000C7F0E3C0C8F0E4C0C9F0F9C0CAF0FAC055
:10100000CBF0FBC0CCF0FCC0CDF0EFEC9BF00001CE
:10101000E651140DAA0E0001DE6F040E0001DF6F11
:10102000F3500001DE27F4500001DF230001E551F9
:10103000010DF3500001DE25D96EF4500001DF21CF
:10104000DA6EDF507AEC93F0C0C0CDF0C1C0CEF0C4
:10105000E1C0CFF0E2C0D0F0E3C0D1F0E4C0D2F004
:10106000F9C0D3F0FAC0D4F0FBC0D5F0FCC0D6F084
:101070006CEC98F017D0000E0001C56F000EC46F25
:10108000E1C0C6F0E2C0C7F0E3C0C8F0E4C0C9F0F8
:10109000F9C0CAF0FAC0CBF0FBC0CCF0FCC0CDF078
:1010A000EFEC9BF0060E0001E127000EE2230001A9
:1010B000E52B3DD7080E0001E327000EE423000EC8
:1010C0000001E26F060EE16F0001E62B0001E65120
:1010D0000001925DD8B01BD700019451D8B4120022
:1010E000000E0001946FE0C092F01200680E010142
:1010F000006F030E0101016F000E0101036F020E6C
:10110000026F460E0101046F4A0E0101056F010EC8
:101110000101066FC00E0101076F480E0101086F43
:10112000010E0101096F5A0E01010A6F4A0E0101F9
:101130000B6F010E01010C6F10EC93F04A0E0101D0
:10114000006F030E0101016F000E0101036F020E1B
:10115000026F460E0101046F4A0E0101056F010E78
:101160000101066F200E0101076F490E0101086F92
:10117000010E0101096F5A0E01010A6F4A0E0101A9
:101180000B6F010E01010C6F10EC93F0400E01018A
:10119000006F030E0101016F000E0101036F020ECB
:1011A000026F460E0101046F4A0E0101056F010E28
:1011B0000101066F080E0101076F490E0101086F5A
:1011C000010E0101096F5A0E01010A6F4A0E010159
:1011D0000B6F010E01010C6F10EC93F0540E010126
:1011E000006F030E0101016F000E0101036F020E7B
:1011F000026F460E0101046F4A0E0101056F010ED8
:101200000101066FF00E0101076F480E0101086F22
:10121000010E0101096F5A0E01010A6F4A0E010108
:101220000B6F010E01010C6F10EC93F05E0E0101CB
:10123000006F030E0101016F000E0101036F020E2A
:10124000026F460E0101046F4A0E0101056F010E87
:101250000101066FD80E0101076F480E0101086FEA
:10126000010E0101096F5A0E01010A6F4A0E0101B8
:101270000B6F010E01010C6F10EC93F0A00E00013A
:10128000E86F860EE96F010EEA6F000EEB6F000E3D
:101290000001EC6F020E0001ED6F00EC80F0720EA9
:1012A0000001CA6F030E0001CB6F63EC9CF0000ECF
:1012B0000001F76F000EF66F0001F75113E1080E01
:1012C0000001F65DD8B01200380E0001F625D96E87
:1012D000030E0001F721DA6E000EDF6E0001F64BFF
:1012E000F72BEAD71200D20E0001DB6F000E0001CF
:1012F000DC6FC9D0250E0001DF19D8B405D000017C
:10130000DF51CDECA4F0BFD0000E0001DA6F14D095
:10131000DBC0D9FFDCC0DAFFDF500001DF6F020E57
:101320000001DB27000EDC230001DF51CDECA4F02F
:10133000AAD00001DA8D1ED0D0C0F6FFD1C0F7FFD1
:101340000001D04BD12B000EF86E0800F5CFDFF076
:101350000001DF51000AD8B41200630AD8B4D8D70C
:10136000070AD8B407D00D0AD8B404D01C0AD8B4E0
:10137000E0D7DAD70001DABD19D0DBC0D9FFDCC075
:10138000DAFFDECFDDF0DDCFDEF0020E0001DB277D
:10139000000EDC230001DEAF16D0030E0001DA13CD
:1013A0000001DD6DDE1FD8B0DE2B0DD0DBC0D9FF14
:1013B000DCC0DAFFDECFDDF0DDCFDEF0020E0001B3
:1013C000DB27000EDC23010E0001DF6F050E00019C
:1013D000DF19D8B419D00001DF51020DB70EF32484
:1013E000F66EFD0EF420F76EF86A000EF822090082
:1013F000F5500001DD5D0900F5500001DE59D8A06F
:1014000003D00001DF2BE2D7DAC0D8F0030E0001D1
:10141000D817D8B403D02D0ECDECA4F0DFC0D9F08E
:101420002CD00001D951020DB70EF324F66EFD0E3B
:10143000F420F76EF86A000EF8220900F5CFBDF02F
:101440000A00F5CFBEF0DDC0BBF0DEC0BCF002ECA0
:101450009BF0BBC0C2F0BCC0C3F0000E0001C56F62
:101460000A0EC46FAAEC9EF00001C251300F0001B9
:10147000DF6F0001DF51CDECA4F00001D9070001BE
:10148000D929D8A4CED7D0C0F6FFD1C0F7FF00012C
:10149000D04BD12B000EF86E0800F5CFDFF0000125
:1014A000DF51D8B4120026D7E1C0D9FFE2C0DAFF7D
:1014B000DECFE6F0DDCFE7F0050E0001E56FB5D039
:1014C000000120EE02F0E151D926E251DA22DECF0E
:1014D000BBF0DDCFBCF0E3C0BDF0010E0001BE6F7C
:1014E00078EC9EF0B0D0E6C0CAF0E7C0CBF0010EB9
:1014F0000001CC6FE3C0CDF0C4EC9AF00001E56FC1
:101500000001E551D8A41200000120EE02F0E151E3
:10151000D926E251DA22DECFBBF0DDCFBCF0E3C04A
:10152000BDF0000E0001BE6F78EC9EF0000120EED1
:1015300004F0E151D926E251DA22DECFBBF0DDCF53
:10154000BCF0E3C0BDF0000E0001BE6F78EC9EF071
:101550007AD0E6C0CAF0E7C0CBF0020E0001CC6F33
:10156000E3C0CDF0C4EC9AF00001E56F0001E55155
:10157000D8A41200000120EE02F0E151D926E25178
:10158000DA22DECFBBF0DDCFBCF0E3C0BDF0010E50
:101590000001BE6F78EC9EF0000120EE04F0E151F6
:1015A000D926E251DA22DECFBBF0DDCFBCF0E3C0BA
:1015B000BDF0010E0001BE6F78EC9EF044D0E6C095
:1015C000CAF0E7C0CBF0000E0001CC6FE3C0CDF055
:1015D000C4EC9AF00001E56F0001E551D8A41200B7
:1015E000000120EE02F0E151D926E251DA22DECFED
:1015F000BBF0DDCFBCF0E3C0BDF0000E0001BE6F5C
:1016000078EC9EF0000120EE04F0E151D926E25181
:10161000DA22DECFBBF0DDCFBCF0E3C0BDF0000EC0
:101620000001BE6F78EC9EF00ED00001E451000A7C
:10163000D8B446D7010AD8B456D7030AD8B489D744
:10164000010AD8B4BCD7080E0001E1250001CA6F19
:10165000000E0001E2210001CB6FE3C0CCF0E4C03A
:10166000CDF037ECA1F012000001CE6FB1D0BEEC8E
:1016700098F012000CEC9FF0120038EC9AF0120077
:1016800044EC94F0120013EC9EF01200A7ECA3F0CF
:101690001200CEC0CBF07F0E0001CB17000192519B
:1016A000140DAA0E0001CC6F040E0001CD6FF35093
:1016B0000001CC27F4500001CD2300019351010D0E
:1016C000F3500001CC25D96EF4500001CD21DA6E23
:1016D000DF507F0B0001CB19D8B42ED0010E0001D2
:1016E000FF6F00019251140DAA0E0001CB6F040E82
:1016F0000001CC6FF3500001CB27F4500001CC2344
:1017000000019351010DF3500001CB25D96EF45027
:101710000001CC21DA6E0001CE518009DF6E00019C
:101720009251020D000EF324D96E030EF420DA6EEE
:10173000FDC0DEFFFEC0DDFF13EC9EF00009D8B453
:101740001200CEC0CBF07F0E0001CB1700019251EA
:10175000140DAA0E0001CC6F040E0001CD6FF350E2
:101760000001CC27F4500001CD2300019351010D5D
:10177000F3500001CC25D96EF4500001CD21DA6E72
:10178000DF507F0B0001CB19D8B41200010E00010D
:10179000FF6F00019251140DAA0E0001CB6F040ED1
:1017A0000001CC6FF3500001CB27F4500001CC2393
:1017B00000019351010DF3500001CB25D96EF45077
:1017C0000001CC21DA6E0001CE518009DF6E1200DB
:1017D0000001CE51070AD8B456D70F0AD8B44AD759
:1017E000010AD8B44DD7030AD8B441D7060AD8B4F1
:1017F00044D7010AD8B43BD72D0AD8B44AD7030A34
:10180000D8B444D746D701010451C6EC97F002C1C1
:10181000D9FF03C1DAFF0001BBC0DEFF0001BCC07D
:10182000DDFF0101045119EC98F0010120EE06F0F2
:101830000251D9260351DA220001BBC0DEFF0001AC
:10184000BCC0DDFF0101045119EC98F0010120EE4C
:1018500004F00251D9260351DA220001BBC0DEFF99
:101860000001BCC0DDFF0101045173EC97F00101E0
:1018700020EE02F00251D9260351DA220001BBC04A
:10188000DEFF0001BCC0DDFF010120EE04F00251CB
:10189000D9260351DA22DECF05F1DDCF06F105C1ED
:1018A000D9FF06C1DAFF000EDF6E010120EE02F063
:1018B0000251D9260351DA22DECF05F1DDCF06F140
:1018C00005C1D9FF06C1DAFFFF0EDF6E02C1F5F0D8
:1018D00003C1F6F0000E0001F76F59EC86F0000E20
:1018E0000101076F070E0101076531D04BD002C11E
:1018F000E1F003C1E2F007C1E3F0030E0001E46F81
:1019000054EC8AF03CD002C1E1F003C1E2F007C11F
:10191000E3F0020E0001E46F54EC8AF030D002C113
:10192000E1F003C1E2F007C1E3F0010E0001E46F52
:1019300054EC8AF024D002C1E1F003C1E2F007C107
:10194000E3F0000E0001E46F54EC8AF018D002C1FD
:10195000D9FF03C1DAFFDECFC7F0DDCFC8F007C182
:10196000C9F01BECA2F0000AD8B4C1D7010AD8B460
:10197000D6D7030AD8B4C7D7010AD8B4DCD7010137
:10198000072BB0D702C1CAF003C1CBF0000E000193
:10199000CC6F0FEC82F012000001D36F000E00013B
:1019A000D26F000E0001D66FC10E0001D06F000E85
:1019B0000001D16F950EDBECA4F00001D351DBECFC
:1019C000A4F0000E0001D76F23D0D0C0D9FFD1C042
:1019D000DAFFDF500001D46F020E0001D027000EA5
:1019E000D1230001D451E0EC9DF00001D227000189
:1019F000D751010D000EF324D96E020EF420DA6ED9
:101A0000D4C0DFFF0001D451DBECA4F00001D72BE0
:101A10000001D3510001D75DD8A0D7D7000E000137
:101A2000D76F0ED00001D751010D000EF324D96EEF
:101A3000010EF420DA6E11ECA5F0DF6E0001D72B59
:101A40000001D2510001D75DD8A0ECD7000E0001F3
:101A5000D76F5ED0D6C0D5F021D00001D551010D91
:101A6000000EF324D96E010EF420DA6EDF5000016F
:101A7000BC6F0001D65100080001D5250001BD6FE3
:101A80000001D751010D000EF324D96E020EF4208F
:101A9000DA6EDF502CEC92F00001D52B0001D7510B
:101AA000010D000EF324D96E020EF420DA6EDF5021
:101AB000E0EC9DF00001CB6FCC6B0001D651000132
:101AC000CB27000ECC230001D5510001CD6FCE6B8A
:101AD0000001CB510001CD5D0001CE51800A000113
:101AE000CF6F0001CC51800A0001CF59D8A0B5D7E3
:101AF0000001D751010D000EF324D96E020EF4201F
:101B0000DA6EDF50E0EC9DF00001D6270001D72B04
:101B10000001D3510001D75DD8B012009BD7010E50
:101B20004B6E000E0001676F000E0001686F000E23
:101B30000001696FB00E0101026F030E0101036F16
:101B4000000E0101046F03EC8CF0A60E0101026F80
:101B5000030E0101036F010E0101046F03EC8CF011
:101B6000A90E0101026F000E0101036F020E0101B7
:101B7000046F03EC8CF09F0E0101026F000E010157
:101B8000036F030E0101046F03EC8CF0950E01014D
:101B9000026F000E0101036F040E0101046F03ECDC
:101BA0008CF0BA0E0101026F030E0101036F050EE6
:101BB0000101046F03EC8CF09C0E0101026F030E17
:101BC0000101036F060E0101046F03EC8CF0BA0EE5
:101BD0000001E16F030E0001E26F050E0001E36FEB
:101BE000000E0001E46F54EC8AF0A60E0001F16FC4
:101BF000030E0001F26F000E0001F36F000E0001F2
:101C0000F46F2EEC85F0BA0E0001E16F030E0001B7
:101C1000E26F060E0001E36F030E0001E46F54EC67
:101C20008AF09C0E0001F56F030E0001F66F030EA3
:101C30000001F76F59EC86F09C0E0001CA6F030E8D
:101C40000001CB6F040E0001CC6F000E0001CD6FC0
:101C5000E2EC93F0BA0E0001CA6F030E0001CB6FE5
:101C6000060E0001CC6F010E0001CD6FE2EC93F087
:101C7000000EDBEC9EF0010EDBEC9EF0000E9E6E83
:101C8000000EA16E000EA46E9B8E9B8C000E0001B8
:101C9000BC6F640EBB6F76EC9DF0D08E12009DEC95
:101CA0009CF0000E0001F36F000EF26F0001F35183
:101CB00006E1590E0001F25DD8B08BD001D089D079
:101CC000D8900001F235F66E0001F335F76EE50E9F
:101CD000F626FC0EF722F86A000EF8220900800EA4
:101CE000F5180900F510D8A422D00001F3511FE126
:101CF000580E0001F25DD8B01AD00001F24BF32B60
:101D0000D8900001F235F66E0001F335F76EE50E5E
:101D1000F626FC0EF722F86A000EF8220900F5CF2D
:101D2000BBF00A00F5CFBCF076EC9DF04BD0D8901C
:101D30000001F235F66E0001F335F76EE50EF6267A
:101D4000FC0EF722F86A000EF8220900000EF55E7C
:101D50000900010EF55AD8A020D0000E0001BE6F78
:101D6000D8900001F235F66E0001F335F76EE50EFE
:101D7000F626FC0EF722F86A000EF8220900F5CFCD
:101D8000F0F00900F5CFF1F0F1C0F0F00001F16BD7
:101D90000001F05164ECA3F015D0010E0001BE6FFC
:101DA000D8900001F235F66E0001F335F76EE50EBE
:101DB000F626FC0EF722F86A000EF8220800F5500D
:101DC00064ECA3F00001F24BF32B0001F35101E1AD
:101DD00070D7000E0001BC6F640EBB6F76EC9DF0F7
:101DE000000E0001BE6F290E64ECA3F0010E5DEC45
:101DF00099F0000E0001BC6F640EBB6F76EC9DF095
:101E0000000E0001C56F000EC46F93EC9FF012002E
:101E1000000120EE07F0D651D926D751DA2201D899
:101E20000AD00500FA6EDE50FD6EDE50FE6EDE500A
:101E3000FF6EFA5012000001DE6FD6C0D9FFD7C086
:101E4000DAFF0001DE51DE18D8A421D0000120EE17
:101E500001F0D651D926D751DA220001D851DE5CE3
:101E6000D8B00AD0000120EE01F0D651D926D751C2
:101E7000DA22000EDF6E1200000120EE01F0D651D2
:101E8000D926D751DA220001D851DF5E12000001B5
:101E900020EE01F0D651D926D751DA22DF500001C9
:101EA000D96FDA6B0001D8510001D927000EDA236F
:101EB000000120EE01F0D651D926D751DA22DF50A9
:101EC0000001DB6FDC6B0001D9510001DB5D00011B
:101ED000DC51800A0001DD6F0001DA51800A000147
:101EE000DD59D8B01200000120EE01F0D651D926FC
:101EF000D751DA220001D851DF26000120EE02F08E
:101F0000D651D926D751DA22000110EE01F0D65170
:101F1000E126D751E222E7500001DB6FDC6BDE5097
:101F20000001DB5DDE500001DC59D8A01200D6C0F4
:101F3000D9FFD7C0DAFFDEC0DFFF000120EE01F0DD
:101F4000D651D926D751DA22000EDF6E000120EEDD
:101F500004F0D651D926D751DA2201D81200050053
:101F6000FA6EDE50FD6EDE50FE6EDE50FF6EFA50F1
:101F70000001DE511200000E0001D16F6C0ED26F15
:101F8000DC0ED36F020ED46F0001D890C837C9376A
:101F9000CA37CB37020E0001CC6FD8900001D43382
:101FA000D333D233D1330001CC2FF7D7D1C0BBF01C
:101FB000D2C0BCF0D3C0BDF0D4C0BEF0C8C0BFF02A
:101FC000C9C0C0F0CAC0C1F0CBC0C2F004EC95F0EB
:101FD000BBC0D5F0BCC0D6F0BDC0D7F0BEC0D8F0F5
:101FE00010D0000E0001CD6F000ECE6F000ECF6F2F
:101FF000000ED06F0001912B020E0001916501D0FF
:1020000026D0D5C0BBF0D6C0BCF0D7C0BDF0D8C07C
:10201000BEF000019151010DCE0EF324F66EFD0EBF
:10202000F420F76EF86A000EF8220800F55000015F
:10203000BF6FC06BC16BC26B04EC95F00001BE5169
:102040000001BD11CEE10001BC05D8B0CAD7CA500D
:1020500000019119FC0B9119CA6ECA8415ECA5F008
:1020600000019151010DCE0EF324F66EFD0EF42009
:10207000F76EF86A000EF8220800F5CF90F0FF0E18
:102080000001D5250301226FFF0E0001D6210301B7
:10209000236FFF0E0001D7210301246FFF0E000103
:1020A000D8210301256F22C3BBF023C3BCF024C396
:1020B000BDF025C3BEF0000190510001BF6FC06BA1
:1020C000C16BC26B04EC95F00001BB510001916F34
:1020D00091C0CBFF120058ECA2F0B2ECA4F0BBEC24
:1020E000A4F000017B510001772700017C51000121
:1020F000782300018D51D8A404D000018E51D8B4AA
:1021000006D0000EA8ECA4F0000EF1ECA0F0000147
:1021100078BF0BD00001785105E15B0E0001775DBF
:10212000D8A003D0000EF1ECA0F0B5EC9BF0010EAE
:102130007CECA1F00009D8B41200FB0E0001D06FB6
:10214000FF0E0001D16F000E0001D36F230ED26F7E
:1021500073EC89F0BF0E0001D06FFF0E0001D16F4C
:1021600079C0D2F07AC0D3F08DC0D4F00001D56B25
:102170008EC0D6F00001D76B73EC89F06EEC87F05F
:1021800023EE5BF001D80AD00500FA6EDE50FD6E3A
:10219000DE50FE6EDE50FF6EFA5012000009D8B419
:1021A00040D0000E0001E86F000EE76F000E000146
:1021B000D56FC80ED46F48ECA4F025D0B2ECA4F0D3
:1021C00000017D510001E72700017E510001E82355
:1021D000FB0E0001D06FFF0E0001D16F000E000159
:1021E000D36F230ED26F73EC89F0ED0E0001D06F28
:1021F000FF0E0001D16FE7C0D2F0E8C0D3F073EC5E
:1022000089F06EEC87F00001E8BFD8D7880E000196
:10221000E75D130E0001E859D8A0D0D7000EF1EC0D
:10222000A0F02DECA4F00009D8B41200DDECA1F070
:10223000120051B2ACEF91F0000120EE04F0835196
:10224000D9268451DA22DF507CECA1F00009D8B401
:102250007AD083C0D9FF84C0DAFFDE50DE10D8B454
:102260006DD083C0D9FF84C0DAFF010EDBBE26D05B
:10227000010EDB5003E1DE04D8A020D083C0D9FFDB
:1022800084C0DAFFDE2804E17F0EDE18D8B407D060
:1022900083C0D9FF84C0DAFFDE06000EDD5A950E3A
:1022A0000001CA6F000E0001CB6F000E0001CC6F61
:1022B000010E0001CD6FE2EC93F01FD083C0D9FF77
:1022C00084C0DAFFDE0404E1800EDE18D8B407D043
:1022D00083C0D9FF84C0DAFFDE2A000EDD22950E0E
:1022E0000001CA6F000E0001CB6F000E0001CC6F21
:1022F000000E0001CD6FE2EC93F0950E0001CA6F65
:10230000000E0001CB6F010E0001CC6F010E000129
:10231000CD6FE2EC93F0950E0001CA6F000E000144
:10232000CB6F010E0001CC6F000E0001CD6FE2EC0F
:1023300093F02DECA4F0F7ECA4F012002DECA4F037
:1023400020ECA5F012006AC0BBF06BC0BCF06CC002
:10235000BDF0E9ECA4F01200000120EE04F083517E
:10236000D9268451DA22DF5090ECA2F00009D8B4CB
:102370006AD083C0D9FF84C0DAFFDE50DE10D8B443
:102380005DD083C0D9FF84C0DAFF010EDBBE22D04E
:10239000010EDB5003E1DE04D8A01CD083C0D9FFBE
:1023A00084C0DAFFDE2804E17F0EDE18D8B407D03F
:1023B00083C0D9FF84C0DAFFDE06000EDD5A950E19
:1023C000106E000E116E000E126E010E136E1EECDA
:1023D00097F01BD083C0D9FF84C0DAFFDE0404E18C
:1023E000800EDE18D8B407D083C0D9FF84C0DAFFCE
:1023F000DE2A000EDD22950E106E000E116E000E0C
:10240000126E000E136E1EEC97F0950E106E000EFD
:10241000116E010E126E010E136E1EEC97F0950EEA
:10242000106E000E116E010E126E000E136E1EEC79
:1024300097F029ECA5F0FDECA4F0120029ECA5F032
:1024400026ECA5F012006AC001F06BC002F06CC06F
:1024500003F0F0ECA4F012000001C06F57D0BCC034
:1024600034F0F1EC99F01200BCC033F01200BCC0A3
:1024700032F01200BCC031F01200BCC030F01200CB
:10248000BCC02FF01200BCC02EF012000001BD51E4
:102490000001D8A405D0BCC060F00001616B12003F
:1024A000BCC062F00001636B000160510001BF6FAE
:1024B000BE6B000162510001BE2500017D6F00016D
:1024C00063510001BF2100017E6F12000001BD5168
:1024D0000001D8A405D0BCC01EF303011F6B12007D
:1024E000BCC020F30301216B03011E510001BF6F2B
:1024F000BE6B030120510001BE2500017B6F03016B
:1025000021510001BF2100017C6F12000001C05168
:10251000070AD8B4A4D70F0AD8B4A6D7010AD8B4EA
:10252000A6D7030AD8B4A6D7010AD8B4A6D7070AF3
:10253000D8B4A6D7010AD8B4A6D71E0AD8B4A6D74D
:10254000070AD8A41200C2D7C7C0CFF0C8C0D0F0C5
:10255000000E0001CE6F000ECD6FC9C0CBF0CAC017
:10256000CCF00001CF510001D011D8A434D0CBC0A1
:10257000D9FFCCC0DAFF300EDF6E000E0001CE6F47
:10258000010ECD6F40D0CFC0C2F0D0C0C3F0000E5E
:102590000001C56F0A0EC46FAAEC9EF00001C25183
:1025A000300FCBC0D9FFCCC0DAFFDF6ECFC0BBF09D
:1025B000D0C0BCF0000E0001BE6F0A0EBD6F02EC71
:1025C0009BF0BBC0CFF0BCC0D0F00001CD4BCE2BF8
:1025D0000001CB4BCC2B0001CF510001D011D8B45E
:1025E00008D00001CE5105E1060E0001CD5DD8A056
:1025F000CAD7C9C0BBF0CAC0BCF0CDC0BDF0CEC008
:10260000BEF0D5EC9CF00001CD510001C925D96E7A
:102610000001CE510001CA21DA6E000EDF6E1200F9
:102620000101005101010111D8B41200010104514E
:102630000101051101010611D8B412000101075171
:102640000101081101010911D8B4120001010A5158
:1026500001010B1101010C11D8B41200010102514A
:1026600001010311D8A405D0000E0101036F010E72
:10267000026F00C1D9FF01C1DAFF000EDF6E010158
:1026800020EE01F00051D9260151DA22000EDF6E52
:10269000010120EE02F00051D9260151DA2202C1D7
:1026A000DEFF03C1DDFF010120EE04F00051D92659
:1026B0000151DA220AC1DEFF0BC1DEFF0CC1DEFFD1
:1026C000010120EE07F00051D9260151DA2207C19D
:1026D000DEFF08C1DEFF09C1DEFF01D812000500E0
:1026E000FA6E01010451FD6E0551FE6E0651FF6E3A
:1026F000FA5012000001C66F200E0001C65F0001F3
:10270000C651050DF3CFC4F0F4CFC5F0D10E0001D2
:10271000C4250001C76FFD0E0001C5210001C86F6F
:10272000000E0001CB6F040E0001CB6501D043D039
:10273000000E0001CC6F060E0001CC6501D035D033
:10274000C7C0BBF0C8C0BCF0CCC0BDF0ABECA2F0C1
:102750000009D8A405D087C0C9F088C0CAF004D049
:10276000FDC0C9F0FEC0CAF00001CC510A0D640ED4
:102770000001C26F040E0001C36FF3500001C227B5
:10278000F4500001C3230001CB51020DF3500001AE
:10279000C225D96EF4500001C321DA6EC9C0DEFF34
:1027A000CAC0DDFF0001CC2BC6D70001C74BC82B28
:1027B0000001CB2BB8D7640E0001C06F040E0001DE
:1027C000C16F1200080E0001CA250001C76F000E7C
:1027D0000001CB210001C86FCCC0C9F01BECA2F0F6
:1027E0000001CE6F42D0010E0001CD17000120EE96
:1027F00002F0CA51D926CB51DA22DECFBBF0DDCFB1
:10280000BCF0CCC0BDF0CDC0BEF078EC9EF01200A4
:10281000010E0001CD17010E0001CD1B000120EEBD
:1028200002F0CA51D926CB51DA22DECFBBF0DDCF80
:10283000BCF0CCC0BDF0CDC0BEF078EC9EF0120074
:10284000010E0001CD17000120EE04F0CA51D92677
:10285000CB51DA22DECFBBF0DDCFBCF0CCC0BDF077
:10286000CDC0BEF078EC9EF012000001CE51000AFF
:10287000D8B41200010AD8B4B6D7030AD8B4C8D75E
:10288000010AD8A41200DCD7000E0001C96FFA0EAD
:1028900047240001BB6FFF0E48200001BC6F000EF3
:1028A0000001BE6F060EBD6FA5EC94F00001BB5198
:1028B0000001CA6FCAC0BBF00001BC6B000E000172
:1028C000BE6F040EBD6FA5EC94F00001BB5100017A
:1028D000C86F000E0001C96F06D09DECA1F013EC8B
:1028E0009EF00001C92B0001C851040DF31EF41E17
:1028F000F34AF42A0001CA510001C36FC46BF350BC
:102900000001C327F4500001C4230001C31FC41FEA
:10291000C34BC42B040E0001C327000EC4230001C7
:10292000C9510001C56FC66B0001C3510001C55DEF
:102930000001C651800A0001C76F0001C451800A1E
:102940000001C759D8B01200C8D7000E0001C06FEF
:102950000001BEAF08D00001BD6DBE1FD8B0BE2BB8
:10296000010E0001C06F0001BCAF08D00001BB6DBB
:10297000BC1FD8B0BC2B010E0001C01B000E000113
:10298000C26F000EC16F0001BD510001BE11D8B46D
:102990002CD0010E0001BF6F06D00001D890BD37CA
:1029A000BE370001BF2B0001BEAFF7D70001D890A2
:1029B000C137C2370001BD510001BB5D0001BE51EE
:1029C0000001BC59D8A00AD00001BD510001BB5F75
:1029D0000001BE510001BC5B0001C1810001D89023
:1029E000BE33BD330001BF2FE1D70001C05100014C
:1029F000D8B405D00001C16DC21FD8B0C22BC1C070
:102A0000BBF0C2C0BCF01200000E0001C36F000E8C
:102A1000C46F000EC56F000EC66F0001BF510001EC
:102A2000C0110001C1110001C211D8B442D0010E81
:102A30000001C76F08D00001D890BF37C037C13739
:102A4000C2370001C72B0001C2AFF5D70001D890F3
:102A5000C337C437C537C6370001BF510001BB5D5E
:102A60000001C0510001BC590001C1510001BD5914
:102A70000001C2510001BE59D8A012D00001BF51BF
:102A80000001BB5F0001C0510001BC5B0001C151EE
:102A90000001BD5B0001C2510001BE5B0001C381AA
:102AA0000001D890C233C133C033BF330001C72FF8
:102AB000CDD7C3C0BBF0C4C0BCF0C5C0BDF0C6C05C
:102AC000BEF01200000E0001C06F000EBF6F38D0C4
:102AD000380E0001BF25D96E030E0001C021DA6E49
:102AE000BCC0E1FFBDC0E2FFE750ECEC83F0DF6E5D
:102AF000380E0001BF25D96E030E0001C021DA6E29
:102B0000800EDE18D8A40ED00001BF07D8A0C007E1
:102B1000380E0001BF25D96E030E0001C021DA6E08
:102B2000000EDB8E0001BC4BBD2B0001BF4BC02B48
:102B30000001C0511AE1060E0001BF5DD8B015D0EA
:102B4000BCC0D9FFBDC0DAFFDF50D8B40ED0C0D7AB
:102B5000380E0001BF25D96E030E0001C021DA6EC8
:102B6000000EDF6E0001BF4BC02B0001C05106E11B
:102B7000060E0001BF5DD8B01200EAD712000001B6
:102B8000BF51010DC10EF324F66EFD0EF420F76E59
:102B9000F86A000EF8220800F5CFC5F0000E00011B
:102BA000C46F06D00001BD510001BE5F0001C42BFF
:102BB0000001BD510001BE5DD8B0F4D70001BF5186
:102BC0000001BE03F350BE6F0001C4510001BE27D7
:102BD0000001C5510001C017BEC0C1F0C5C0C2F0A0
:102BE0000001C12B03D00001D890C2370001C12FD2
:102BF000FAD70001C251FF0A0001C36FBBC0D9FF61
:102C0000BCC0DAFF0001C351DF16BEC0C1F0C0C0B6
:102C1000C2F00001C12B03D00001D890C2370001DF
:102C2000C12FFAD7BBC0D9FFBCC0DAFF0001C25127
:102C3000DF1212000001D36FCBC0BBF0CCC0BCF0E0
:102C40005AECA1F0BBC0CBF0BCC0CCF0CDC0BBF007
:102C5000CEC0BCF05AECA1F0BBC0CDF0BCC0CEF0F1
:102C60000001D3510001D8B429D0000E0001BC6F7F
:102C7000890EBB6FCCC0CFF00001D06BCFBFD06945
:102C80000001CF510001BD6FBE6B0001CB510001AF
:102C9000BF6FC06BCEC0D1F00001D26BD1BFD26983
:102CA0000001D1510001C16FC26B0001CD51000183
:102CB000C36FC46B050E41EC9DF01200890EDBEC76
:102CC000A4F00001CC51DBECA4F00001CB51DBEC13
:102CD000A4F00001CE51DBECA4F00001CD51DBECFF
:102CE000A4F012001A0EF66E4A0EF76E010EF86E80
:102CF00003EEDFF010EE08F00900F5CFEEFFE5502F
:102D0000E150FAE1320EF66E4A0EF76E010EF86EE1
:102D100000EEF9F010EE07F00900F5CFEEFFE550F8
:102D2000E150FAE1060EF66E4A0EF76E010EF86EED
:102D300000EE47F010EE0AF00900F5CFEEFFE55087
:102D4000E150FAE104EEAAF011EE2CF0EE6AE55043
:102D5000E150FCE1E250FAE104EE00F0AA0EEE6A66
:102D6000E806FDE103EE00F0DF0EEE6AE806FDE1A5
:102D700000EE60F05B0EEE6AE806FDE100EE29F081
:102D80001E0EEE6AE806FDE151905192000138EF07
:102D9000A0F00001C36F020E0001C027020E000167
:102DA000C227030E0001C327030E0001C127000E36
:102DB0000001BE6F2A0E64ECA3F0010E0001BE6F8D
:102DC000000E64ECA3F0010E0001BE6F0001C351C0
:102DD00064ECA3F0010E0001BE6F000E64ECA3F0E2
:102DE000010E0001BE6F0001C15164ECA3F0000EA2
:102DF0000001BE6F2B0E64ECA3F0010E0001BE6F4C
:102E0000000E64ECA3F0010E0001BE6F0001C05182
:102E100064ECA3F0010E0001BE6F000E64ECA3F0A1
:102E2000010E0001BE6F0001C25164ECA3F0000E60
:102E30000001BE6F2C0E64ECA3F01200080E1024EB
:102E40000D6E000E11200E6E12C00FF0F5ECA2F008
:102E5000146E3BD0010E131620EE02F01050D9264E
:102E60001150DA22DECF01F0DDCF02F012C003F004
:102E700013C004F05EECA0F01200010E1316010E58
:102E8000131A20EE02F01050D9261150DA22DECFAC
:102E900001F0DDCF02F012C003F013C004F05EECCD
:102EA000A0F01200010E131620EE04F01050D926E7
:102EB0001150DA22DECF01F0DDCF02F012C003F0B4
:102EC00013C004F05EECA0F012001450000AD8B455
:102ED0001200010AD8B4BED7030AD8B4CED7010A6B
:102EE000D8A41200DFD70001BD6F38D0920E0001C8
:102EF000BB6F0F0E0001BC6F1200930E0001BB6F81
:102F00000F0E0001BC6F1200940E0001BB6F0F0E7C
:102F10000001BC6F1200950E0001BB6F0F0E000187
:102F2000BC6F1200960E0001BB6F0F0E0001BC6F4C
:102F30001200970E0001BB6F0F0E0001BC6F120054
:102F4000980E0001BB6F0F0E0001BC6F1200000E47
:102F50000001BB6F000E0001BC6F12000001BD51EB
:102F6000000AD8B4C3D7010AD8B4C7D7030AD8B463
:102F7000CBD7010AD8B4CFD7070AD8B4D3D7010A20
:102F8000D8B4D7D7030AD8B4DBD7E1D70001BD6FD7
:102F900038D0BD0E0001BB6FFF0E0001BC6F1200E8
:102FA000BB0E0001BB6FFF0E0001BC6F1200B90E1B
:102FB0000001BB6FFF0E0001BC6F1200B70E0001D5
:102FC000BB6FFF0E0001BC6F1200B50E0001BB6F9E
:102FD000FF0E0001BC6F1200B30E0001BB6FFF0EAD
:102FE0000001BC6F1200B10E0001BB6FFF0E0001AB
:102FF000BC6F1200000E0001BB6F000E0001BC6F21
:1030000012000001BD51000AD8B4C3D7010AD8B4D8
:10301000C7D7030AD8B4CBD7010AD8B4CFD7070A89
:10302000D8B4D3D7010AD8B4D7D7030AD8B4DBD7DA
:10303000E1D70001BD6F38D0800E0001BB6F0F0ECD
:103040000001BC6F1200810E0001BB6F0F0E00016A
:10305000BC6F1200820E0001BB6F0F0E0001BC6F2F
:103060001200830E0001BB6F0F0E0001BC6F120037
:10307000840E0001BB6F0F0E0001BC6F1200850EA5
:103080000001BB6F0F0E0001BC6F1200860E000125
:10309000BB6F0F0E0001BC6F1200000E0001BB6F72
:1030A000000E0001BC6F12000001BD51000AD8B42F
:1030B000C3D7010AD8B4C7D7030AD8B4CBD7010AFB
:1030C000D8B4CFD7070AD8B4D3D7010AD8B4D7D742
:1030D000030AD8B4DBD7E1D7000E0001DD6F000191
:1030E000CF510001D3250001DB6F0001D151000158
:1030F000D5250001DC6FD5C0BBF0D6C0BCF0D3C075
:10310000BDF0D4C0BEF075ECA2F0BBC0D9F0BCC01D
:10311000DAF0D1C0C0F00001DB050001C16F000191
:10312000DC050001C26F0001CF51C9EC96F0000E22
:103130000001DD6F13D00001DD51020DF3500001DD
:10314000CD25D96EF4500001CE21DA6EDECFC0F06D
:10315000DDCFC1F0C5ECA3F00001DD2B0001DD5196
:103160000001D76FD86B0001D9510001D75D000174
:10317000DA510001D859D8B01200DDD73ED0000195
:103180009251140DAA0E0001BB6F040E0001BC6F1A
:10319000F3500001BB27F4500001BC230001935100
:1031A000010DF3500001BB25D96EF4500001BC2184
:1031B000DA6EDF50D8B41FD0010E0001FF6F00019E
:1031C0009251140DAA0E0001BB6F040E0001BC6FDA
:1031D000F3500001BB27F4500001BC2300019351C0
:1031E000010DF3500001BB25D96EF4500001BC2144
:1031F000DA6E800EDF6E0001932B130E00019365D3
:10320000BED7000E0001936F0001922B080E4926D5
:10321000000E4A22000E486E060E476E1200BBC01A
:10322000F6FFBCC0F7FF000EF86E0F0EF76403D078
:103230000800F55005D0F6CFE9FFF7CFEAFFEF50D1
:103240000001C36F0001BF51010DC10EF324F66EE2
:10325000FD0EF420F76EF86A000EF8220800F5CF94
:10326000C1F0000E0001C26F06D00001BD51000187
:10327000BE5F0001C22B0001BD510001BE5DD8B090
:10328000F4D70001BF510001BE03F350BE6F00012F
:10329000C2510001BE270001BE290001C06F03D04A
:1032A0000001D890C3330001C02FFAD70001C151EB
:1032B0000001C3170001C35112000001C06F000ECE
:1032C0000001C16F000E0001BE6F360E64ECA3F06A
:1032D0000001C051030B0001C16F2CD0010E000191
:1032E000BE6FC80E64ECA3F0800E506E800E4F6E61
:1032F0001200010E0001BE6FA80E64ECA3F0800E58
:10330000506E800E4F6E1200010E0001BE6F080E4F
:1033100064ECA3F0800E506E800E4F6E1200010E12
:103320000001BE6F680E64ECA3F0800E506E800E3C
:103330004F6E12000001C151000AD8B4CFD7010A64
:10334000D8B4D7D7030AD8B4DFD7010AD8A412005B
:10335000E6D70001C16FCA0EF66EFD0EF76E000EC5
:10336000F86E0900F5CFBDF00900F5CFBEF00900F9
:10337000F5CFBFF00A00F5CFC0F0110E0001C26F0B
:10338000030E0001C1170001C151010DBD0EF32450
:10339000D96E000EF420DA6EDF500001BB6FC2C0A0
:1033A000BCF00001BB2B03D00001D890BC3700015A
:1033B000BB2FFAD70001BC510001C26F0001C23916
:1033C0000F0B0001C26F0001C2510F0B0001C26F51
:1033D00003013E510001C219F00BC21903013E6FF7
:1033E000120034A002D0010E01D0000E00018E6F39
:1033F00034C0BBF00001D890BB330001BBA102D0A8
:10340000010E01D0000E00018D6F34C0BBF0000131
:10341000D890BB330001D890BB330001BBA102D0D0
:10342000010E01D0000E2D6E34C0BBF00001D8900B
:10343000BB330001D890BB330001D890BB330001EF
:10344000BBA102D0010E01D0000E00018C6F34C070
:10345000BBF00001BB3B0F0EBB170001BBA104D0AA
:10346000010E00018B6F1200000E00018B6F120025
:10347000000E0001936F000E0001926F000E00011C
:10348000BE6F0E0E0001BE6501D02DD0000E0001F2
:10349000BD6F130E0001BD6501D022D0010E0001E9
:1034A000FF6F0001BE51140DAA0E0001BB6F040E88
:1034B0000001BC6FF3500001BB27F4500001BC2396
:1034C0000001BD51010DF3500001BB25D96EF45030
:1034D0000001BC21DA6E800EDF6E0001BD2BD9D752
:1034E0000001BE2BCED7010E0001946F000E486E76
:1034F000060E476E000E4A6E060E496E1200000E52
:103500000001936F000E0001926F000E0001BD6F6D
:10351000130E0001BD6501D01200000E0001BE6F48
:103520000E0E0001BE6501D02CD00001BE51140D5D
:10353000AA0E0001BB6F040E0001BC6FF350000126
:10354000BB27F4500001BC230001BD51010DF35015
:103550000001BB25D96EF4500001BC21DA6E000ECB
:10356000DF6E0001BE51020D000EF324D96E030E72
:10357000F420DA6EFF0EDE6EFF0EDD6E0001BE2B54
:10358000CFD70001BD2BC4D7A70EF66EFD0EF76E88
:10359000000EF86E20EED0F00F0E0900F5CFDEFF22
:1035A000E806FBE2CAC0C7F0CBC0C8F0CDC0C9F086
:1035B0001BECA2F00001E06F040E0001CC6120D0F2
:1035C000040E0001E0611CD00001CC51040DD00EAE
:1035D0000001CE6F000E0001CF6FF3500001CE2727
:1035E000F4500001CF230001E051010DF350000120
:1035F000CE25D96EF4500001CF21DA6EDF501200D3
:10360000050E1200000E0001C16F000EC06F000118
:10361000BD510001BE11D8B42CD0010E0001BF6F06
:1036200006D00001D890BD37BE370001BF2B000186
:10363000BEAFF7D70001D890C037C1370001BD51E8
:103640000001BB5D0001BE510001BC59D8A00AD0E9
:103650000001BD510001BB5F0001BE510001BC5B18
:103660000001C0810001D890BE33BD330001BF2FDF
:10367000E1D7C0C0BBF0C1C0BCF012008FEC8DF030
:10368000010EFCECA1F00009D8B40CD07FEC9AF04C
:1036900076EC88F04FEC8EF02DECA4F00009D8A465
:1036A000DDECA1F0B6ECA3F0D4ECA4F00A0E1FEC14
:1036B000A4F097ECA3F0000E0001BC6F140EBB6FDA
:1036C00076EC9DF0000E0001D56F5A0ED46F000EFF
:1036D0000001D76FC80ED66F000E46EC9EF0000EAC
:1036E00000017A6F000E796F000E0001786F000EF6
:1036F000776F120001C0F6FF02C0F7FF000EF86EF0
:103700000F0EF76403D00800F55005D0F6CFE9FF9F
:10371000F7CFEAFFEF50096E0550010DC10EF324FB
:10372000F66EFD0EF420F76EF86A000EF82208001F
:10373000F5CF07F0000E086E03D00350045E082A90
:103740000350045CD8B0F9D705500402F350046E5E
:10375000085004260428066E02D0D8900932062E9E
:10376000FCD70750091609501200FC0E966E680E21
:103770000001D66F030E0001D76F010E0001D86F54
:1037800008EC8FF04A0E0001D66F030E0001D76FD0
:10379000010E0001D86F08EC8FF0400E0001D66FCB
:1037A000030E0001D76F010E0001D86F08EC8FF0F7
:1037B000540E0001D66F030E0001D76F010E0001F9
:1037C000D86F08EC8FF05E0E0001D66F030E00017B
:1037D000D76F010E0001D86F08EC8FF01200000EB9
:1037E0000001D06F000E0001D16FC8C0C0F0000111
:1037F000C6510001CA250001CE6F0001CE050001AF
:10380000C16F0001C8510001CC250001CF6F00013C
:10381000CF050001C26F0001C651C9EC96F0CCC0C3
:10382000D1F00001D1510001D8B41200CAC0D0F0CB
:103830000001D0510001D8B409D0C4C0C0F0C5C047
:10384000C1F0C5ECA3F00001D007F2D70001D10709
:10385000E8D7000120EE06F0CA51D926CB51DA2272
:10386000DECFBBF0DDCFBCF0050E0001BD6F000E5A
:103870000001BE6F78EC9EF0000120EE06F0CA5108
:10388000D926CB51DA22DECFC6F0DDCFC7F0000E4D
:103890000001C86F000E0001C96F86ECA3F00001A3
:1038A00020EE06F0CA51D926CB51DA22DECFBBF08A
:1038B000DDCFBCF0050E0001BD6F010E0001BE6F33
:1038C00078EC9EF01200000120EE06F0CA51D926D5
:1038D000CB51DA22DECFBBF0DDCFBCF0050E00010C
:1038E000BD6F000E0001BE6F78EC9EF0000120EE6F
:1038F00006F0CA51D926CB51DA22DECFC6F0DDCF91
:10390000C7F0000E0001C86F020E0001C96F86ECFF
:10391000A3F0000120EE06F0CA51D926CB51DA22DD
:10392000DECFBBF0DDCFBCF0050E0001BD6F010E98
:103930000001BE6F78EC9EF01200BA0E0001E16F3C
:10394000030E0001E26F070E0001E36F030E00019A
:10395000E46F54EC8AF0BA0E0001E16F030E00012F
:10396000E26F060E0001E36F030E0001E46F54ECFA
:103970008AF010ECA0F0C00E0001E86FC60EE96FEF
:103980002D0EEA6F000EEB6F010E0001EC6F010EC1
:103990000001ED6F00EC80F07D0E0001CA6F030E98
:1039A0000001CB6F29EC9CF012000001BD51000119
:1039B000BB250001C06F0001BE510001BC21000108
:1039C000C16F1AD0BBC0D9FFBCC0DAFFDF50000105
:1039D000BF6FC0C0D9FFC1C0DAFFBBC0E1FFBCC030
:1039E000E2FFDFCFE7FF0001BB4BBC2BC0C0D9FF1C
:1039F000C1C0DAFFBFC0DFFF0001C007D8A0C10708
:103A00000001C0510001BB5D0001C1510001BC5962
:103A1000D8B01200D7D726D0ADC0D9FFAEC0DAFFDC
:103A20000001DF94BDC0C9FFC7A0FED7C9CFBDF05C
:103A3000ADC0D9FFAEC0DAFF0001DF841200A3C021
:103A4000D9FFA4C0DAFF0001DF9EBDC06FFF6DA0EB
:103A5000FED76FCFBDF0A3C0D9FFA4C0DAFF00012D
:103A6000DF8E1200000120EE02F0BB51D926BC51BE
:103A7000DA22DF50000AD8B4CFD7010AD8A4120046
:103A8000DED70001C96FBB0E0001C76F000E000139
:103A9000C86F000E0001CA6F1FD0C7C0D9FFC8C0D1
:103AA000DAFF0001CA5135C0C5F00001C66B000144
:103AB000C527000EC623000E0001C525E16E040EC9
:103AC0000001C621E26EDFCFE7FF020E0001C7272B
:103AD000000EC8230001CA2B0001C9510001CA5DB4
:103AE000D8A0DBD70001C951352612001FD0000E27
:103AF0000001BD6F000EBE6F000EBF6F000EC06FE5
:103B00000001C0510001BF1111E1B00E0001BD5D07
:103B1000040E0001BE59D8B009D000F0010E00011A
:103B2000BD27000EBE23BF23C023EAD70001BB0779
:103B3000D8A0BC070001BB29DAE10001BC29D8A448
:103B4000D6D7080E0001BD6F800EBE6F000EBF6F8E
:103B5000000EC06F1200050E0001E76FE1C0D9FF33
:103B6000E2C0DAFFDECFE8F0DDCFE9F00001E3519B
:103B7000020DF3CFE5F00001E351020DF32800013F
:103B8000E66FE8C0CAF0E9C0CBF0E4C0CCF0E5C015
:103B9000CDF0C4EC9AF00001E76F0001E751D8A422
:103BA0000CD0E8C0CAF0E9C0CBF0E4C0CCF0E6C06D
:103BB000CDF0C4EC9AF00001E76F0001E75112006C
:103BC0000001BB6F12D0010E1200010E1200010E97
:103BD0001200010E1200010E1200010E1200010E61
:103BE0001200020E1200020E12000001BB51070A61
:103BF000D8B4E9D70F0AD8B4E8D7010AD8B4E7D7C0
:103C0000030AD8B4E6D7010AD8B4E5D7070AD8B46E
:103C1000E4D7010AD8B4E3D71E0AD8B4E2D7070A1A
:103C2000D8A41200E0D70001932B060E4726000E01
:103C30004822060E47240001BF6F000E48200001F5
:103C4000C06F0001C0BF09D00001C05104E1800E67
:103C50000001BF5DD8B0BEEC98F0080E4924000109
:103C6000BF6F000E4A200001C06F0001C0BF0CD022
:103C70000001C05105E1800E0001BF5DD8A004D055
:103C800038EC9AF0010E1200000E12000001D86FFD
:103C90000001D5BF0DD00001D55104E10001D405CC
:103CA000D8A006D0000E0001D56F010ED46F03D04E
:103CB0000001D469D5690001D8510001D8B40CD0F5
:103CC000D6C0CBF0D7C0CCF0D4C0CDF0D5C0CEF0AC
:103CD000010E1AEC96F01200D6C0CBF0D7C0CCF093
:103CE000D4C0CDF0D5C0CEF0000E1AEC96F0120084
:103CF000010E0001BE17BDC0BFF0010E0001C06F74
:103D00000001BF2B03D00001D890C0370001BF2FA6
:103D1000FAD70001C051FF0A0001C16FBBC0D9FF33
:103D2000BCC0DAFF0001C151DF16BDC0BFF0BEC08C
:103D3000C0F00001BF2B03D00001D890C0370001B4
:103D4000BF2FFAD7BBC0D9FFBCC0DAFF0001C051FA
:103D5000DF1212000001C4510001C511D8B426D0F1
:103D6000010E0001C66F06D00001D890C437C537D8
:103D70000001C62B0001C5AFF7D70001C4510001F7
:103D8000C25D0001C5510001C359D8A008D000018F
:103D9000C4510001C25F0001C5510001C35B0001B5
:103DA000D890C533C4330001C62FE7D7C2C0C2F0D4
:103DB000C3C0C3F012000001E86F1ED0A90E0001BD
:103DC000E16F000E0001E26F000E0001E36F030ED1
:103DD0000001E46F54EC8AF017D0A90E0001E16FE6
:103DE000000E0001E26F010E0001E36F030E0001FF
:103DF000E46F54EC8AF008D00001E851000AD8B40E
:103E0000DDD7010AD8B4E9D7000E0001CF6F000159
:103E1000E851E8EC9FF0120000019351D8B407D0AC
:103E2000FA0E4726FF0E48220001930720D000011A
:103E30009251D8B40ED0000E486E720E476EF80E36
:103E40004926FF0E4A22130E0001936F00019207CC
:103E50000ED0000E486E060E476E000E4A6E060E1D
:103E6000496E000E0001936F000E0001926F9DECF1
:103E7000A1F01200050E0001F06F0001EC51020DDF
:103E8000F3CFEEF00001EC51020DF3280001EF6FCB
:103E9000EAC0E1F0EBC0E2F0EEC0E3F0EDC0E4F028
:103EA000ABEC9DF00001F06F0001F051D8A40CD0F4
:103EB000EAC0E1F0EBC0E2F0EFC0E3F0EDC0E4F007
:103EC000ABEC9DF00001F06F0001F0511200000119
:103ED000CE6F0001CE510001D8B415D0000E000104
:103EE000BC6F8B0EBB6FCBC0BDF00001BE6BCCC0F6
:103EF000BFF00001C06BCDC0C1F00001C26B040E69
:103F000041EC9DF012008B0EDBECA4F00001CB51D4
:103F1000DBECA4F00001CC51DBECA4F00001CD51AE
:103F2000DBECA4F01200000E0001C66F000E0001D1
:103F3000C76F000E0001C06F50040001C16F4F0435
:103F40000001C26F000EC9EC96F04FC0C7F000012F
:103F5000C7510001D8B4120050C0C6F00001C651CC
:103F60000001D8B409D0C4C0C0F0C5C0C1F0C5ECD0
:103F7000A3F00001C607F2D70001C707E8D71CD09D
:103F8000000E0001BD6F000EBE6F000EBF6F000E71
:103F9000C06F0001BD510001BE110001BF11000141
:103FA000C011D8A409D000F0010E0001BD27000EF9
:103FB000BE23BF23C023EDD70001BB07D8A0BC0799
:103FC0000001BB29DDE10001BC29D8B41200D8D71B
:103FD0000001D06F1CD0A90E0001CA6F000E0001B5
:103FE000CB6F000E0001CC6FCFC0CDF0E2EC93F0B0
:103FF0001200A90E0001CA6F000E0001CB6F010E66
:104000000001CC6FCFC0CDF0E2EC93F012000001C4
:10401000D051000AD8B4DFD7010AD8A41200E9D7DA
:10402000E3ECA3F0010ECDECA0F0000E0001BC6F9C
:10403000800EBB6F76EC9DF0010ECDECA0F0D4ECC1
:10404000A3F0000E0001BC6F800EBB6F76EC9DF0FC
:10405000010ECDECA0F0E3ECA3F0000E0001BC6F6C
:10406000800EBB6F76EC9DF0010ECDECA0F012003F
:104070003EEC9BF00BD02EECA5F008D06BEC90F052
:1040800005D02CECA5F002D002EC0AF075C0E7F3E5
:1040900076C0E8F30301E851000AD8A4F7D703017A
:1040A000E751010AD8B4E7D7030AD8B4E7D7010A21
:1040B000D8B4E7D7070AD8B4E7D7E8D7010E041673
:1040C00003C005F0010E066E052A02D0D890063610
:1040D000052EFCD70650FF0A076E01C0D9FF02C0AB
:1040E000DAFF0750DF1603C005F004C006F0052A0A
:1040F00002D0D8900636052EFCD701C0D9FF02C0E9
:10410000DAFF0650DF121200000120EE06F0BB516C
:10411000D926BC51DA22DECFBEF0DDCFBFF0BEC063
:10412000D9FFBFC0DAFFDF500001C06F0001BD51F1
:10413000040DF3280001BE6F03D00001D890C033F6
:104140000001BE2FFAD70F0E0001C0170001C051A9
:104150001200050E0001F46FF1C0EAF0F2C0EBF0BE
:10416000000E0001EC6FF3C0EDF03AEC9FF000019F
:10417000F46F0001F451D8A40DD0F1C0EAF0F2C000
:10418000EBF0010E0001EC6FF3C0EDF03AEC9FF0A4
:104190000001F46F0001F45112000001D36F18D038
:1041A000A90E0001CF6F000E0001D06F000E0001BC
:1041B000D16FC5ECA2F01200A90E0001CF6F000E66
:1041C0000001D06F010E0001D16FC5ECA2F012000A
:1041D0000001D351000AD8B4E3D7010AD8A41200D1
:1041E000EBD70001D46F0001D4510001D8B40ED038
:1041F000000E0001CC6F000ECB6F000E0001CE6FE1
:10420000000ECD6F010E1AEC96F01200000E0001A8
:10421000CC6F000ECB6F000E0001CE6F000ECD6F85
:10422000000E1AEC96F01200000120EE06F0BB51D1
:10423000D926BC51DA22DECFBEF0DDCFBFF0BEC042
:10424000D9FFBFC0DAFFDF500001C06F0001BD29F8
:104250000001BE6F03D00001D890C0330001BE2F13
:10426000FAD7010E0001C0170001C0511200030E61
:104270000001CC6514D0010E0001CA250001C66FF3
:10428000000E0001CB210001C76F0001CC51FC0FD3
:104290000001C86FCDC0C9F075ECA3F01200CAC010
:1042A000C6F0CBC0C7F0CCC0C8F0CDC0C9F075EC2B
:1042B000A3F012000001BCAF1AD00001BCBF07D0B0
:1042C0000001BC510AE10001BB05D8B006D00001D5
:1042D000BB6DBC1FD8B0BC2B04D0BBC0BBF0BCC0F6
:1042E000BCF00001BB1FBC1F0001BB4BBC2BBBC003
:1042F000BBF0BCC0BCF012000001C26F86500F0BB7
:104300000001C16F4B50D8A402D0000E1200000E65
:104310004B6E0001C2510001C119D8B40CD0F00E8F
:1043200086160001C2518612000E0001BC6F0A0EF3
:10433000BB6FBFEC9FF0010E1200010E0001FF6F7A
:1043400000019251140DAA0E0001BB6F040E000172
:10435000BC6FF3500001BB27F4500001BC230001E7
:104360009351010DF3500001BB25D96EF4500001AB
:10437000BC21DA6E800EDF6E120016D0000E036EC6
:10438000000E046E000E056E000E066E0350041043
:1043900005100610D8A408D000F0010E0326000E68
:1043A000042205220622F2D70106D8A0020601281F
:1043B000E5E10228D8B41200E1D7000167510001FD
:1043C000681100016911D8B40DD001D80BD00500D7
:1043D000FA6E00016751FD6E6851FE6E6951FF6E05
:1043E000FA501200000E0001676F000E0001686FA6
:1043F000000E0001696F12000001C26F86500F0BA2
:104400000001C16F4B50D8B4FDD7000E4B6E0001B8
:10441000C2510001C119D8B40CD0F00E86160001AB
:10442000C2518612000E0001BC6F0A0EBB6FBFECBA
:104430009FF0010E1200030E0001C96512D0010E9B
:104440000001C7250001C46F000E0001C821000152
:10445000C56F0001C951FC0F0001C66F10ECA4F03C
:104460001200C7C0C4F0C8C0C5F0C9C0C6F010EC87
:10447000A4F012000001D46F0001D4510001D8A4AF
:1044800013D000018F2B00018F5100018127000EF6
:10449000822381C0D1F082C0D2F03BECA3F00001B6
:1044A0008F51030BA9EC99F0000ECDECA0F0120097
:1044B000000E0001C26F070EC16F000E0001C46F35
:1044C000090EC36F000E0001C66F0A0EC56F000E05
:1044D0000001C86F0B0EC76F000E0001CA6F0C0EF3
:1044E000C96F050ECCEC8CF012000001BB5100012D
:1044F000BD03F3CFBFF0F4CFC0F00001BB5100010A
:10450000BE03F3500001C0270001BC510001BD03F0
:10451000F3500001C027BFC0BBF0C0C0BCF0120008
:10452000086E86500F0B076E4B50D8A402D0000EB9
:104530001200000E4B6E08500718D8B40AD0F00EC7
:10454000861608508612000E026E0A0E016EBDEC31
:10455000A1F0010E1200BBC0F6FFBCC0F7FF000EB9
:10456000F86E0800F5CFBFF00001BD290001BE6F55
:1045700003D00001D890BF330001BE2FFAD7010E3F
:104580000001BF170001BF511200CFC0BBF0D0C067
:10459000BCF0D1C0BDF014ECA1F00001D26F010E4F
:1045A0000001D21BCFC0CAF0D0C0CBF0D1C0CCF03C
:1045B000D2C0CDF0E2EC93F01200000120EE02F048
:1045C000BB51D926BC51DA22DF50D8A407D0ADC0E8
:1045D000D9FFAEC0DAFF0001DF841200A3C0D9FF0B
:1045E000A4C0DAFF0001DF8E1200030E0F640CD0AE
:1045F000010E0D240A6E000E0E200B6E0F50FC0FE4
:104600000C6E3BECA4F012000DC00AF00EC00BF0D3
:104610000FC00CF03BECA4F012000001D46F1DECB5
:10462000A5F00001D56F0F0E0001D5170001D43B96
:10463000F00ED4170001D4510001D51108ECA5F0FB
:10464000000ECDECA0F0120026ECA5F000016451A4
:104650000001651100016611D8B4120001D81200E2
:104660000500FA6E00016451FD6E6551FE6E6651E3
:10467000FF6EFA501200D1C0C7F0D2C0C8F0380E99
:104680000001C96F030E0001CA6FA4EC92F0380E4E
:104690000001BC6F030E0001BD6F62EC95F01200CB
:1046A00004D09D961200A39E1200000120EE02F09D
:1046B000BB51D926BC51DA22DF50000AD8B4F1D759
:1046C000010AD8A41200EFD70001BF6F0001BE514C
:1046D000C4ECA4F07D0E0001BB6F030E0001BC6FA3
:1046E000BFC0BDF00BEC9DF01200C6C0BBF0C7C050
:1046F000BCF0040E0001BD6FC8C0BEF0020E000188
:10470000BF6FC9C0C0F0BFEC95F01200C6C0BBF0CF
:10471000C7C0BCF0020E0001BD6FC8C0BEF0040EE1
:104720000001BF6FC9C0C0F0BFEC95F012008C0E45
:10473000DBECA4F0000EDBECA4F0010EDBECA4F04B
:104740003C0EDBECA4F0040EDBECA4F01200000E37
:10475000486E060E476E000E4A6E060E496E000E3B
:104760000001936F000E0001926F1200949C948ED2
:10477000240EAD6E980EAC6E7E9A7E987E927E90E0
:10478000AD847E96330EB06E1200010E0001BE6F36
:104790000001C15164ECA3F0010E0001BE6F0001E5
:1047A000C05164ECA3F01200BA0E0001CA6F030EF0
:1047B0000001CB6F060E0001CC6F010E0001CD6F22
:1047C000E2EC93F01200BA0E0001CA6F030E000172
:1047D000CB6F060E0001CC6F000E0001CD6FE2EC36
:1047E00093F012009F0E0001F16F000E0001F26FB6
:1047F000000E0001F36F000E0001F46F2EEC85F047
:104800001200A60E0001E16F030E0001E26F040E1C
:104810000001E36F000E0001E46F54EC8AF0120017
:10482000C4C0BBF0C5C0BCF0040E0001BD6FC6C063
:10483000BEF0020E0001BF6F0FEC99F012000001F4
:10484000CF6F000E0001CB6FCFC0CCF0FF0E000188
:10485000CD6F000E67EC9FF01200010E4B6E000151
:1048600067510001681100016911D8B402D0010E2E
:104870001200000E12000AC001F00BC002F0040E7C
:10488000036E0CC004F0020E056E7AEC9BF0120071
:10489000D4C0CBF0D5C0CCF07F0E0001CE6FCD6977
:1048A000000E1AEC96F012009F0E0001BB6F000E76
:1048B0000001BC6F000E0001BD6F84ECA0F012007F
:1048C000950E0001BB6F000E0001BC6F000E0001D1
:1048D000BD6F84ECA0F01200950E0001BB6F000EBE
:1048E0000001BC6F060E0001BD6F14ECA1F01200B8
:1048F000950E0001BB6F000E0001BC6F070E00019A
:10490000BD6F14ECA1F01200950E0001BB6F000EFC
:104910000001BC6F040E0001BD6F14ECA1F0120089
:10492000950E0001BB6F000E0001BC6F050E00016B
:10493000BD6F14ECA1F01200A60E0001BB6F030EB8
:104940000001BC6F040E0001BD6F14ECA1F0120059
:104950000001BC6F8D0EDBECA4F00001BC51DBEC60
:10496000A4F01200000E0001C26F130EC16F010E01
:10497000CCEC8CF01200000E0001C26F140EC16F5F
:10498000010ECCEC8CF012000001BB6F0001BBB13A
:1049900002D0859E01D0858E12000001CF6F0001EC
:1049A000CF5134EC8BF01200800EDBECA4F0840EBF
:1049B000DBECA4F012000001BB6FADA2FED7BBC0C0
:1049C000AEFF1200BBC0D9FFBCC0DAFFBDC0DFFF25
:1049D0001200BBC067F0BCC068F0BDC069F0120037
:1049E00001C067F002C068F003C069F0120029C07E
:1049F000D6FF2AC0D7FFF28A120029C0D6FF2AC0EC
:104A0000D7FFF28A12000600060001416130808063
:104A10000001BB6FBBC03FF3120006000600800020
:104A200007009EAAFED7AF5012009E929D929F92C1
:094A3000120005000700FFFF0160
:104A3A0003013F511200F29AF2941200FC0E966E94
:104A4A001200F29AF2941200010E4B6E120012003A
:044A5A001200120034
:06FFF800AAF705FFF8F175
:00000001FF
