:0614000055EF0AF0120096
:101408005182FACF17F0FBCF18F0E9CF19F0EACFE5
:101418001AF0E1CF1BF0E2CF1CF0D9CF1DF0DACFE4
:101428001EF0F3CF1FF0F4CF20F0F6CF21F0F7CF66
:1014380022F0F8CF23F0F5CF24F051C025F052C0A8
:1014480026F053C027F054C028F0F292F2B4F2AA62
:1014580002D04BECB0F028C054F027C053F026C09F
:1014680052F025C051F024C0F5FF23C0F8FF22C078
:10147800F7FF21C0F6FF20C0F4FF1FC0F3FF1EC016
:10148800DAFF1DC0D9FF1CC0E2FF1BC0E1FF1AC074
:10149800EAFF19C0E9FF18C0FBFF17C0FAFF519215
:0614A8001100D7EFA1F0D6
:10FCC20000001180002C0100B10200350036000056
:10FCD200B202003500360000B302003500360002E1
:10FCE200003500360000B4000000C0A2000200840B
:10FCF2000000C1C50000C20D00000000C38D002A33
:10FD02000000C48D00EE0000C50A000036C80000E5
:10FD1200E012001C001000180033002C00250028FF
:10FD220000280027002F003C000000030003001001
:10FD3200008000780000E112001C00100018002D65
:10FD420000280023002800280026002F003B000086
:10FD520000030003001000003A0500002A00000220
:10FD62000000008100002B000003000000A2000040
:10FD720029002C020004000800100020004000802E
:10FD82000000010001020001000100020200000364
:10FD920003030001000A006400E8031027000103C6
:10FDA200070F1F3F7FFF0002010301041000000044
:10FDB200000000005F00000007000700147F147FAE
:10FDC20014242A7F2A1223130864623649552250CA
:10FDD2000005030000001C2241000041221C000813
:10FDE2002A1C2A0808083E080800503000000808AB
:10FDF200080808006060000020100804023E514913
:10FE0200453E00427F400042615149462141454BF7
:10FE1200311814127F1027454545393C4A4949306B
:10FE220001710905033649494936064949291E0027
:10FE32003636000000563600000008142241141421
:10FE4200141414412214080002015109063249799E
:10FE5200413E7E1111117E7F494949363E41414161
:10FE6200227F4141221C7F494949417F0909010101
:10FE72003E414151327F0808087F00417F41002006
:10FE820040413F017F081422417F404040407F02B1
:10FE920004027F7F0408107F3E4141413E7F0909F1
:10FEA20009063E4151215E7F0919294646494949C1
:10FEB2003101017F01013F4040403F1F2040201F90
:10FEC2007F2018207F6314081463030478040361FD
:10FED2005149454300007F4141020408102041413D
:10FEE2007F00000402010204404040404000010241
:10FEF200040020545454787F4844443838444444DD
:10FF020020384444487F3854545418087E0901026A
:10FF1200081454543C7F0804047800447D400020B7
:10FF220040443D00007F10284400417F40007C0493
:10FF32001804787C0804047838444444387C141447
:10FF42001408081414187C7C0804040848545454F7
:10FF520020043F4440203C4040207C1C2040201C88
:10FF62003C4030403C44281028440C5050503C4403
:10FF720064544C44000836410000007F00000041F8
:10FF820036080008082A1C08081C2A080800FCFF7A
:10FF92000F0000FFFFF0FF00FFFF00546F74616C61
:10FFA2002044697374616E63653A25750A4C65660F
:10FFB200742042756D703A25750A5269676874201B
:10FFC20042756D703A25750A00436C6F73657374E0
:10FFD2002057616C6C3A25750A436C6F73657374B4
:10FFE20020416E676C653A25750A00446973746135
:0DFFF2006E63653A2025640A002563000057
:020000040001F9
:1000000000018A51800B0001936F00018A518A25FB
:100010000001996F000189AF02D0000199810001B0
:1000200099510001D8B410D000019929D8A409D061
:10003000000E0001876F000E886F000E896F000EA2
:100040008A6F0001898F09D0000E0001876F000EB2
:10005000886F000E896F000E8A6F00018E51800B31
:100060000001931B00018E518E250001946F000149
:100070008DAF02D000019481000194510001D8B4E9
:1000800010D000019429D8A409D0000E00018B6F74
:10009000000E8C6F000E8D6F000E8E6F00018D8F25
:1000A00009D0000E00018B6F000E8C6F000E8D6F5B
:1000B000000E8E6F000194510001D8B405D00001EC
:1000C00099510001D8A40AD0000E0001876F000EDC
:1000D000886F000E896F000E8A6F120000018D512B
:1000E00000018703F3CF9EF0F4CF9FF000019E51F3
:1000F0000001956F966B976B986B00019F51000103
:100100009A6F9B6B9C6B9D6B00018C510001880367
:10011000F3CF9EF0F4CF9FF000019E510001952790
:10012000000E96239723982300019F5100019A27E0
:10013000000E9B239C239D2300018B51000189030A
:10014000F3CF9EF0F4CF9FF000019E510001952760
:10015000000E96239723982300019F5100019A27B0
:10016000000E9B239C239D2397C098F096C097F088
:1001700095C096F00001956B00018B51000188033A
:10018000F3CF9EF0F4CF9FF000019E510001952720
:1001900000019F5100019623000E00019723000EDD
:1001A0000001982300018C5100018703F3CF9EF0DA
:1001B000F4CF9FF000019E510001952700019F514F
:1001C00000019623000E00019723000E00019823E2
:1001D00097C098F096C097F095C096F00001956B87
:1001E00000018B5100018703F3CF9EF0F4CF9FF005
:1001F00000019E510001952700019F5100019623A7
:10020000000E00019723000E0001982300018D517C
:1002100000018803F3CF9EF0F4CF9FF000019E51C0
:1002200000019A2700019F5100019B23000E00014D
:100230009C23000E00019D2300018C5100018903C5
:10024000F3CF9EF0F4CF9FF000019E5100019A275A
:1002500000019F5100019B23000E00019C23000E12
:1002600000019D2300018D5100018903F3CF9EF011
:10027000F4CF9FF000019E5100018F6F00019F514C
:100280000001906F0001916B0001926B91C092F0A0
:1002900090C091F08FC090F000018F6B00018F51E2
:1002A00000019A270001905100019B230001915108
:1002B00000019C230001925100019D2395C08FF005
:1002C00096C090F097C091F098C092F0190E06D0A9
:1002D0000001D8909233913390338F33E82EF8D7C2
:1002E00000018F5100019A270001905100019B23CA
:1002F0000001915100019C230001925100019D23B6
:1003000097C098F096C097F095C096F00001956B55
:100310000001945199C08FF00001906B00018F276C
:10032000000E9023820E00018F2500019E6FFF0EAC
:100330000001902100019F6F15D00001D8909A37DD
:100340009B379C379D37000198AF02D000019A81FE
:100350000001D890953796379737983700019E0758
:10036000D8A09F0700019CAFE8D7000E0001946F52
:10037000000198AF24D0FF0E0001951500018F6F8A
:10038000FF0E000196150001906FFF0E00019715FA
:100390000001916F7F0E000198150001926F00011E
:1003A0008F51000190110001911100019211D8A408
:1003B00003D000019AA103D0010E0001946F000147
:1003C00094510001D8B423D0010E00019A27000EE9
:1003D0009B239C239D2300019DA119D09AC08FF0DF
:1003E0009BC090F09CC091F09DC092F000019235AE
:1003F0009233913390338F338FC09AF090C09BF03B
:1004000091C09CF092C09DF000019E4B9F2B00017B
:100410009FBF10D000019F5104E100019E29D8A088
:1004200009D0000E00019A6F000E9B6F800E9C6F2A
:100430007F0E2BD000019FBF07D000019F5111E11B
:1004400000019E05D8B00DD0000E00019A6F000E7D
:100450009B6F000E9C6F000E9D6F000E0001936F4E
:1004600015D09EC099F0FF0E00019A17FF0E9B1742
:100470007F0E9C17000E9D17000199A102D000016C
:100480009C8F0001D890993100019D6F000193511C
:1004900000019D139AC087F09BC088F09CC089F032
:1004A0009DC08AF012000CD0650E0001936F030E00
:1004B00004D0700E0001936F030E0001946F08D0FA
:1004C00000019151000AD8B4EFD7010AD8B4F1D78E
:1004D000000120EE02F09351D9269451DA2291C006
:1004E000DFFFB1D0EA0E0001866F000E0001876FBA
:1004F000020E0001886F030E0001896F5FEC93F01C
:10050000EA0E0001866F000E0001876F030E0001E6
:10051000886F030E0001896F5FEC93F0EA0E000113
:10052000866F000E0001876F050E0001886F030EB5
:100530000001896F5FEC93F0EA0E0001866F000EF8
:100540000001876F040E0001886F000E0001896FA3
:100550005FEC93F0000120EE03F09351D926945103
:10056000DA22C70EDE6E0F0EDD6E000120EE06F001
:100570009351D9269451DA22C60EDE6E0F0EDD6E2F
:10058000000120EE09F09351D9269451DA22C90EC8
:1005900056D0E00E0001866F000E0001876F070E37
:1005A0000001886F030E0001896F5FEC93F0E00E8D
:1005B0000001866F000E0001876F060E0001886F34
:1005C000030E0001896F5FEC93F0E00E0001866F6F
:1005D000000E0001876F040E0001886F030E0001FA
:1005E000896F5FEC93F0E00E0001866F000E000152
:1005F000876F050E0001886F000E0001896F5FECA8
:1006000093F0000120EE03F09351D9269451DA22A1
:100610006D0EDE6E0F0EDD6E000120EE06F09351C2
:10062000D9269451DA226C0EDE6E0F0EDD6E0001BB
:1006300020EE09F09351D9269451DA226F0EDE6E26
:100640000F0EDD6E09D000019151000AD8B44AD7CF
:10065000010AD8A412009DD7000120EE06F09351A4
:10066000D9269451DA22DECF60F0DDCF61F0050E9D
:100670000001626F000E0001636FF8ECAAF09CD0DD
:10068000000120EE06F09351D9269451DA22DECFF4
:1006900060F0DDCF61F0040E0001626F000E00011A
:1006A000636FF8ECAAF0000120EE03F09351D92615
:1006B0009451DA22DECF60F0DDCF61F0060E00014A
:1006C000626F000E0001636FF8ECAAF084D00001A5
:1006D00020EE06F09351D9269451DA22DECF60F055
:1006E000DDCF61F0040E0001626F000E0001636F48
:1006F000F8ECAAF0000120EE03F09351D9269451B2
:10070000DA22DECF60F0DDCF61F0060E0001626F0D
:10071000010E0001636FF8ECAAF05DD0000120EE3D
:1007200006F09351D9269451DA22DECF60F0DDCF66
:1007300061F0040E0001626F010E0001636FF8ECBE
:10074000AAF0000120EE03F09351D9269451DA2249
:10075000DECF60F0DDCF61F0060E0001626F000EAB
:100760000001636FF8ECAAF036D0000120EE06F02D
:100770009351D9269451DA22DECF60F0DDCF61F0BB
:10078000040E0001626F010E0001636FF8ECAAF025
:10079000000120EE03F09351D9269451DA22DECFE6
:1007A00060F0DDCF61F0060E0001626F010E000106
:1007B000636FF8ECAAF00FD000019251000AD8B490
:1007C0005FD7010AD8B483D7030AD8B4A7D7010AE0
:1007D000D8A41200CAD7000120EE06F09351D92602
:1007E0009451DA22DECF60F0DDCF61F0070E000118
:1007F000626F000E0001636FF8ECAAF0000120EEBA
:1008000006F09351D9269451DA22DECF60F0DDCF85
:1008100061F0060E0001626F000E0001636FF8ECDC
:10082000AAF08DC06DF08EC06EF08FC06FF090C0DA
:1008300070F076EC99F093C060F094C061F0A1EC98
:10084000B0F004D09F860BD0A58E09D00001915145
:10085000000AD8B4F7D7010AD8A41200F5D793C07C
:1008600060F094C061F004ECB0F093C0D9FF94C084
:10087000DAFF000EDF6E000120EE06F09351D9265C
:100880009451DA22DECF6BF0DDCF6CF0000E000168
:100890006D6F030E00016E6FEAECB0F0000120EE08
:1008A00006F09351D9269451DA22DECF60F0DDCFE5
:1008B00061F0050E0001626F010E0001636FF8EC3C
:1008C000AAF0120049ECAFF02EECB2F037ECB2F027
:1008D0000001D651D8A404D00001D751D8B406D015
:1008E000000E1AECB2F0000EC3ECADF00001C7BF71
:1008F0000BD00001C75105E1540E0001C65DD8A020
:1009000003D0000EC3ECADF0010E4EECAEF00009CA
:10091000D8B429D0FB0E0001756FFF0E0001766F71
:10092000000E0001786F230E776F7EEC92F09D0E23
:100930000001756FFF0E0001766FC8C077F0C9C067
:1009400078F0D6C079F000017A6BD7C07BF0000157
:100950007C6B7EEC92F092EC8FF091ECB1F00009A0
:10096000D8A4CEECAEF035ECA8F0000E0001C56FB7
:10097000000EC46F030E0001FC6FE80EFB6F000E4B
:100980000001C36F000EC26F000E0001C16F000EA8
:10099000C06F000E0001FA6F080EF96FF9D0000168
:1009A000C44BC52BF40E0001626F000E0001636F93
:1009B000C0ECA6F0F40E0001A06F000E0001A16FC4
:1009C00040EC9DF0A0C0F5F3A1C0F6F3A2C0F7F390
:1009D000A3C0F8F3F5C372F0F6C373F0F7C374F075
:1009E000F8C375F0000E00016E6F000E6F6F6C0E95
:1009F000706F420E716F53EC88F06EC0B2F06FC032
:100A0000B3F070C0B4F071C0B5F056EC9BF0B2C05A
:100A1000C0F0B3C0C1F0010E4EECAEF00009D8B486
:100A20000ED0C0C076F0C1C077F08CECB0F0AFEC67
:100A3000AEF091ECB1F00009D8A4CEECAEF000011C
:100A4000FB510001C05D0001C151800A0301F16F3B
:100A50000001FC51800A0301F159D8B008D0C0C090
:100A6000FBF0C1C0FCF0C4C0C2F0C5C0C3F0080EAA
:100A70004EECAEF00009D8B420D0C80E00017B6F58
:100A8000030E00017C6F000E00017E6F320E7D6F41
:100A900077ECB0F0C80E0001636F030E0001646FC5
:100AA000000E0001666F010E656F66ECAFF091EC11
:100AB000B1F00009D8A4CEECAEF0000E0001FA6F40
:100AC0000A0EF96F0001FABF63D00001FA5156E136
:100AD0000001F905D8B052D05BD0F40E0001626F6E
:100AE000000E0001636FC0ECA6F0010E4EECAEF0FC
:100AF0000009D8B40ED0C0C076F0C1C077F08CEC3D
:100B0000B0F0AFECAEF091ECB1F00009D8A4CEECAF
:100B1000AEF0F40E0001A06F000E0001A16F40ECDA
:100B20009DF0A0C0F5F3A1C0F6F3A2C0F7F3A3C0F7
:100B3000F8F3F5C372F0F6C373F0F7C374F0F8C3BB
:100B400075F0000E00016E6F000E6F6F6C0E706F0F
:100B5000420E716F53EC88F06EC0B2F06FC0B3F00C
:100B600070C0B4F071C0B5F056EC9BF0B2C0C0F0EC
:100B7000B3C0C1F00001F907D8A0FA070001FABF1D
:100B800007D00001FA51A9E10001F905D8B0A5D7B5
:100B90000001C5BF04D7900E0001C45D010E000125
:100BA000C559D8A0FCD6080E4EECAEF00009D8B45A
:100BB0008AD0C80E00017B6F030E00017C6F000E0F
:100BC00000017E6F320E7D6F77ECB0F0C2C0F1F3A2
:100BD000C3C0F2F30301F11FF21FF14BF22B900E91
:100BE0000301F1250301F36F010E0301F22103015B
:100BF000F46FC80E0001636F030E0001646FF3C34E
:100C0000F1F3F4C3F2F30301F11FF21FF14BF22BE6
:100C1000F1C365F0F2C366F066ECAFF091ECB1F0B1
:100C20000009D8B450D0CEECAEF04DD0F40E000197
:100C3000626F000E0001636FC0ECA6F0010E4EEC77
:100C4000AEF00009D8B40ED0C0C076F0C1C077F0C5
:100C50008CECB0F0AFECAEF091ECB1F00009D8A4A0
:100C6000CEECAEF0F40E0001A06F000E0001A16FFB
:100C700040EC9DF0A0C0F5F3A1C0F6F3A2C0F7F3DD
:100C8000A3C0F8F3F5C372F0F6C373F0F7C374F0C2
:100C9000F8C375F0000E00016E6F000E6F6F6C0EE2
:100CA000706F420E716F53EC88F06EC0B2F06FC07F
:100CB000B3F070C0B4F071C0B5F056EC9BF0B2C0A8
:100CC000C0F0B3C0C1F00301C9BF12000301C95194
:100CD000ADE10301C805D8A01200A8D749ECAFF0D8
:100CE0002EECB2F037ECB2F00001D651D8A404D00B
:100CF0000001D751D8B406D0000E1AECB2F0000EA5
:100D0000C3ECADF00001C7BF0BD00001C75105E136
:100D1000540E0001C65DD8A003D0000EC3ECADF0A8
:100D2000010E4EECAEF00009D8B429D0FB0E000144
:100D3000756FFF0E0001766F000E0001786F230EB5
:100D4000776F7EEC92F0CB0E0001756FFF0E000105
:100D5000766FFBC077F0FCC078F000C379F001C378
:100D60007AF002C37BF003C37CF07EEC92F092EC4D
:100D70008FF091ECB1F00009D8A4CEECAEF035ECD8
:100D8000A8F0000E0001C56F000EC46F030E000135
:100D9000FC6FE80EFB6F000E0001C36F000EC26F08
:100DA000000E0001726F000E736FC80E746F430E59
:100DB000756FC2C060F0C3C061F00001000E61BF7A
:100DC000FF0E626F636F010E97EC91F060C06EF0E2
:100DD00061C06FF062C070F063C071F053EC88F0D6
:100DE0006EC087F06FC088F070C089F071C08AF063
:100DF000000E00018B6F000E8C6FB40E8D6F430ED2
:100E00008E6F00EC80F087C000F388C001F389C0CA
:100E100002F38AC003F3000E0001C16F000EC06F21
:100E2000000E0001FA6F080EF96FF8D00001C44BF4
:100E3000C52BF40E0001626F000E0001636FC0EC61
:100E4000A6F0F40E0001A06F000E0001A16F40ECAF
:100E50009DF0A0C0F2F3A1C0F3F3A2C0F4F3A3C0CD
:100E6000F5F3F2C372F0F3C373F0F4C374F0F5C397
:100E700075F0000E00016E6F000E6F6F6C0E706FDC
:100E8000420E716F53EC88F06EC0B2F06FC0B3F0D9
:100E900070C0B4F071C0B5F056EC9BF0B2C0C0F0B9
:100EA000B3C0C1F0010E4EECAEF00009D8B40ED0C4
:100EB000C0C076F0C1C077F08CECB0F0AFECAEF013
:100EC00091ECB1F00009D8A4CEECAEF00001FB51DA
:100ED0000001C05D0001C151800A0301F16F0001F2
:100EE000FC51800A0301F159D8B008D0C0C0FBF012
:100EF000C1C0FCF0C4C0C2F0C5C0C3F0080E4EECC7
:100F0000AEF00009D8B41FD0C80E00017B6F030EED
:100F100000017C6F000E00017E6F320E7D6F77EC5A
:100F2000B0F0C80E0001636F030E0001646FFF0E86
:100F30000001666F656966ECAFF091ECB1F00009F5
:100F4000D8A4CEECAEF0000E0001FA6F0A0EF96FD5
:100F50000001FABF63D00001FA5156E10001F90522
:100F6000D8B052D05BD0F40E0001626F000E0001C9
:100F7000636FC0ECA6F0010E4EECAEF00009D8B4E1
:100F80000ED0C0C076F0C1C077F08CECB0F0AFEC02
:100F9000AEF091ECB1F00009D8A4CEECAEF0F40EB6
:100FA0000001A06F000E0001A16F40EC9DF0A0C0F9
:100FB000F2F3A1C0F3F3A2C0F4F3A3C0F5F3F2C3BC
:100FC00072F0F3C373F0F4C374F0F5C375F0000E60
:100FD00000016E6F000E6F6F6C0E706F420E716FBE
:100FE00053EC88F06EC0B2F06FC0B3F070C0B4F0D4
:100FF00071C0B5F056EC9BF0B2C0C0F0B3C0C1F008
:101000000001F907D8A0FA070001FABF07D00001D4
:10101000FA51A9E10001F905D8B0A5D70001C5BF73
:1010200005D7900E0001C45D010E0001C559D8A07E
:10103000FDD600C3B2F001C3B3F002C3B4F003C3E2
:10104000B5F056EC9BF0A60E0001B2250101026F2F
:10105000FF0E0001B3210101036F000E0101056FB6
:10106000C80E046F62ECB0F007D0000E00017A6F7A
:10107000050E796FBAECB1F00001D651D8A40CD0AE
:101080000001D751D8A408D00001D551D8A404D06C
:101090000001D451D8B4E9D7000E1AECB2F0000E1A
:1010A000C3ECADF0120000017151800B00017A6FAA
:1010B0000001715171250001856F000170AF02D0F0
:1010C00000018581000185510001D8B412D00001D2
:1010D0008529D8A409D0000E00016E6F000E6F6F35
:1010E000000E706F000E716F0001708F000E000116
:1010F00008D0000E00016E6F000E6F6F000E706F53
:10110000000E716F00017551800B00017A1B000108
:10111000755175250001866F000174AF02D0000182
:101120008681000186510001D8B412D000018629C1
:10113000D8A409D0000E0001726F000E736F000E6C
:10114000746F000E756F0001748F000E000108D0DF
:10115000000E0001726F000E736F000E746F000EB0
:10116000756F0001725100017311000174110001CB
:101170007511D8A417D0000E00016E6F000E6F6FAE
:10118000000E706F000E716F0001800E70137F0EE5
:1011900071136EC06EF06FC06FF070C070F071C0F0
:1011A00071F01200000185510001D8A412D0000E88
:1011B00000016E6F000E6F6F000E706F000E716F8A
:1011C0006EC06EF06FC06FF070C070F071C071F0E3
:1011D0001200000186510001766F776B0001761FC7
:1011E000771F764B772B000185510001786F796B63
:1011F0000001765100017827000177510001792321
:101200007F0E0001782500017F6F000E000179211B
:101210000001806F6EC07BF06FC07CF070C07DF00D
:1012200071C07EF0000E00016E6F000E6F6F000E39
:10123000706F000E716F000E0001816F000E826FE3
:10124000000E836F000E846F000E0001866F42D087
:10125000000186510001D8B417D00001D8907B3727
:101260007C377D377E370001D8906E376F37703707
:101270007137000184AF02D000016E810001D89067
:1012800081378237833784370001725100017B5DDB
:101290000001735100017C590001745100017D5916
:1012A0000001755100017E59D8A012D00001848D33
:1012B0000001725100017B5F0001735100017C5BF2
:1012C0000001745100017D5B0001755100017E5BDE
:1012D0000001862B190E00018665BAD700017B51EB
:1012E00000017C1100017D1100017E11D8B418D0DD
:1012F0000001818115D00001D8906E376F377037AB
:101300007137000184AF02D000016E810001D890D6
:10131000813782378337843700017F07D8A0800761
:10132000000170AFE8D7000E0001866F000184AFA6
:1013300024D0FF0E000181150001766FFF0E000121
:1013400082150001776FFF0E000183150001786F91
:101350007F0E000184150001796F000176510001B4
:1013600077110001781100017911D8A403D0000190
:101370006EA103D0010E0001866F000186510001AD
:10138000D8B423D0010E00016E27000E6F23702306
:101390007123000171A119D06EC076F06FC077F093
:1013A00070C078F071C079F0000179357933783305
:1013B0007733763376C06EF077C06FF078C070F018
:1013C00079C071F000017F4B802B000180BF14D0E9
:1013D0000001805104E100017F29D8A00DD0000E4A
:1013E0000001806F7F69000E00016E6F000E6F6F4D
:1013F000000E706F000E716F000180BF07D00001FA
:10140000805115E100017F05D8B011D0000E000118
:10141000806F000E7F6F000E00016E6F000E6F6F09
:10142000000E706F000E716F000E00017A6F7FC0AA
:1014300085F0000185A103D00001708F02D000016A
:10144000709F0001D89085310001716F00017A51C1
:10145000000171136EC06EF06FC06FF070C070F05D
:1014600071C071F01200080E00016F2500016C6F51
:10147000000E0001702100016D6F000E00016E6F03
:101480000CECAFF00001866F000186510001726F15
:10149000736B0E0ED890000172377337E82EFAD7AF
:1014A000000186510001746F756B0C0ED89000011D
:1014B00074377537E82EFAD7000186510001766F30
:1014C000776B0A0ED890000176377737E82EFAD777
:1014D000000186510001796F786B0001865100018F
:1014E0007A6F7B6B060ED89000017A377B37E82E37
:1014F000FAD70001865100017C6F7D6B00017C3BB7
:101500007D3BF00E7D177C510F0B7D13F00E7C1789
:101510000001865100017E6F7F6B0001D8907E37FD
:101520007F370001D8907E377F3700018651000158
:10153000806F816B00017E510001801300017F519B
:101540000001811300017C510001801300017D51D5
:101550000001811300017A510001801300017B51C9
:1015600000018113000178510001801300017951BD
:1015700000018113000176510001801300017751B1
:1015800000018113000174510001801300017551A5
:101590000001811300017251000180110001826F6E
:1015A00000017351000181110001836F86C084F036
:1015B0000001856B080E00016F2500016C6F000EA5
:1015C0000001702100016D6F010E00016E6F0CECC7
:1015D000AFF00001726F736B0001D89072377337F0
:1015E0000001D890723773370001725100018413E3
:1015F0000001735100018513080E00016F250001E1
:101600006C6F000E0001702100016D6F020E000171
:101610006E6F0CECAFF00001726F736B0001723BE8
:10162000733BF00E731772510F0B7313F00E72179A
:1016300000017251000184130001735100018513F0
:10164000080E00016F2500016C6F000E0001702173
:1016500000016D6F030E00016E6F0CECAFF0000126
:10166000726F736B060ED890000172377337E82ED5
:10167000FAD7000172510001841300017351000177
:101680008513080E00016F2500016C6F000E00012C
:10169000702100016D6F040E00016E6F0CECAFF055
:1016A0000001726F000172510001746F736B0001D1
:1016B0007351000184130001745100018513080E59
:1016C00000016F2500016C6F000E00017021000108
:1016D0006D6F050E00016E6F0CECAFF00001726FC4
:1016E000736B0A0ED890000172377337E82EFAD761
:1016F0000001725100018413000173510001851330
:10170000080E00016F2500016C6F000E00017021B2
:1017100000016D6F060E00016E6F0CECAFF0000162
:10172000726F736B0C0ED890000172377337E82E0E
:10173000FAD70001725100018413000173510001B6
:101740008513080E00016F2500016C6F000E00016B
:10175000702100016D6F070E00016E6F0CECAFF091
:101760000001726F736B0E0ED890000172377337E1
:10177000E82EFAD700017251000184130001735161
:1017800000018513000184510001821948E1000124
:10179000855100018319D8A4120032D0000120EE37
:1017A00002F06F51D9267051DA22DECF60F0DDCF22
:1017B00061F071C062F05EECB2F012000001711FC6
:1017C000000120EE02F06F51D9267051DA22DECFEF
:1017D00060F0DDCF61F071C062F05EECB2F012003B
:1017E000000120EE04F06F51D9267051DA22DECFCD
:1017F00060F0DDCF61F071C062F05EECB2F012001B
:1018000000018651000AD8B41200010AD8B4C6D724
:10181000030AD8B4D3D7010AD8A41200E1D7120022
:101820000001606F7ED03F0E1200060E12005B0EAC
:1018300012004F0E1200660E12006D0E12007D0E89
:101840001200070E12007F0E12006F0E12005F0EC4
:1018500012007C0E1200580E12005E0E12007B0E5B
:101860001200710E12006F0E1200740E1200040EA0
:1018700012000E0E12007A0E1200060E1200140E46
:101880001200540E12005C0E1200730E1200670E4E
:101890001200500E12006D0E1200780E12001C0E77
:1018A0001200620E12002A0E1200640E12006E0E5A
:1018B00012005B0E1200770E12007F0E1200390E1E
:1018C00012003F0E1200790E1200710E12003D0E32
:1018D0001200760E1200060E12001E0E1200570E97
:1018E0001200380E1200760E1200760E12003F0E15
:1018F0001200730E12003F0E1200770E12006D0ED2
:101900001200310E12003E0E12003E0E12007E0E2C
:101910001200760E1200660E12005B0E1200800E90
:101920001200000160512E0AD8B4F9D71E0AD8B4AB
:101930007AD7010AD8B479D7030AD8B478D7010A7C
:10194000D8B477D7070AD8B476D7010AD8B475D7F0
:10195000030AD8B474D7010AD8B473D70F0AD8B41D
:1019600072D7010AD8B471D7780AD8B4A4D7030AB9
:10197000D8B4A3D7010AD8B4A2D7070AD8B4A1D73C
:10198000010AD8B4A0D7030AD8B49FD7010AD8B4A3
:101990009ED70F0AD8B49DD7010AD8B49CD7030AA2
:1019A000D8B49BD7010AD8B49AD7070AD8B499D724
:1019B000010AD8B498D7030AD8B497D7010AD8B483
:1019C00096D71F0AD8B495D7010AD8B494D7030A7A
:1019D000D8B493D7010AD8B492D7070AD8B491D70C
:1019E000010AD8B490D7030AD8B48FD7010AD8B463
:1019F0008ED70F0AD8B48DD7010AD8B48CD7030A72
:101A0000D8B48BD73B0AD8B422D7030AD8B421D78D
:101A1000010AD8B420D7070AD8B41FD7010AD8B40E
:101A20001ED7030AD8B41DD7010AD8B41CD70F0A91
:101A3000D8B41BD7010AD8B41AD7030AD8B419D717
:101A4000010AD8B418D7070AD8B417D7010AD8B4EE
:101A500016D7030AD8B415D7010AD8B414D71F0A69
:101A6000D8B413D7010AD8B412D7030AD8B411D7FF
:101A7000010AD8B410D7070AD8B40FD7010AD8B4CE
:101A80000ED7030AD8B40DD7010AD8B40CD70F0A61
:101A9000D8B40BD7010AD8B40AD7030AD8B409D7E7
:101AA000000E1200050E00019A6FC7D0000120EE53
:101AB00002F09651D9269751DA22DECF6BF0DDCFB6
:101AC0006CF098C06DF00F0E00016E6FEAECB0F094
:101AD000000120EE04F09651D9269751DA22DECF8C
:101AE0006BF0DDCF6CF098C06DF0000E00016E6FF2
:101AF000EAECB0F0B0D096C08FF097C090F098C0EC
:101B000091F0030E0001926FEBECABF000019A6FC5
:101B100000019A51D8A41200000120EE02F0965163
:101B2000D9269751DA22DECF6BF0DDCF6CF098C06A
:101B30006DF0000E00016E6FEAECB0F0000120EED7
:101B400004F09651D9269751DA22DECF6BF0DDCF23
:101B50006CF098C06DF0000E00016E6FEAECB0F012
:101B60007AD096C08FF097C090F098C091F0030E95
:101B70000001926FEBECABF000019A6F00019A51FB
:101B8000D8A41200000120EE02F09651D9269751F8
:101B9000DA22DECF6BF0DDCF6CF098C06DF00F0E67
:101BA00000016E6FEAECB0F0000120EE04F09651F7
:101BB000D9269751DA22DECF6BF0DDCF6CF098C0DA
:101BC0006DF00F0E00016E6FEAECB0F044D096C0DD
:101BD0008FF097C090F098C091F0030E0001926FC3
:101BE000EBECABF000019A6F00019A51D8A41200FF
:101BF000000120EE02F09651D9269751DA22DECF6D
:101C00006BF0DDCF6CF098C06DF0000E00016E6FD0
:101C1000EAECB0F0000120EE04F09651D92697517D
:101C2000DA22DECF6BF0DDCF6CF098C06DF0000EE5
:101C300000016E6FEAECB0F00ED000019951000A7D
:101C4000D8B434D7010AD8B456D7030AD8B489D740
:101C5000010AD8B4BCD7080E0001962500016F6FA9
:101C6000000E000197210001706F00019851040DD2
:101C7000F3CF71F099C072F0E6ECADF0080E000100
:101C8000962500016F6F000E000197210001706F13
:101C900000019851040DF3280001716F99C072F092
:101CA000E6ECADF0080E0001962500016F6F000E06
:101CB000000197210001706F00019851040DF3504D
:101CC000020F0001716F99C072F0E6ECADF0080EE2
:101CD0000001962500016F6F000E000197210001A1
:101CE000706F00019851040DF350030F0001716FE4
:101CF00099C072F0E6ECADF01200050E00019F6F86
:101D00007AD0000120EE02F09A51D9269B51DA22B6
:101D1000DECF9DF0DDCF9EF09DC0D9FF9EC0DAFFE3
:101D2000FF0E67D09AC096F09BC097F0010E00019D
:101D3000986F34ECADF000019F6F00019F51D8A463
:101D40001200000120EE02F09A51D9269B51DA22AE
:101D5000DECF9DF0DDCF9EF09DC0D9FF9EC0DAFFA3
:101D6000000EDF6E000120EE04F036D09AC096F02F
:101D70009BC097F0020E0001986F34ECADF00001AB
:101D80009F6F00019F51D8A41200000120EE02F0C5
:101D90009A51D9269B51DA22DECF9DF0DDCF9EF0FD
:101DA0009DC0D9FF9EC0DAFFFF0EDF6E000120EE5E
:101DB00004F0AAD79AC096F09BC097F0000E0001DD
:101DC000986F34ECADF000019F6F00019F51D8A4D3
:101DD0001200000120EE02F09A51D9269B51DA221E
:101DE000DECF9DF0DDCF9EF09DC0D9FF9EC0DAFF13
:101DF000000EDF6E0ED000019C51000AD8B481D7CE
:101E0000010AD8B48FD7030AD8B4B0D7010AD8B41E
:101E1000D1D7080E00019A2500016F6F000E000156
:101E20009B210001706F000E0001716F9CC072F069
:101E3000E6ECADF0080E00019A2500016F6F000E70
:101E400000019B210001706F010E0001716F9CC0A9
:101E500072F0E6ECADF0080E00019A2500016F6FFC
:101E6000000E00019B210001706F020E0001716FD6
:101E70009CC072F0E6ECADF0080E00019A2500015E
:101E80006F6F000E00019B210001706F030E0001B7
:101E9000716F9CC072F0E6ECADF0080E00019A255F
:101EA00000016F6F000E00019B210001706F040E96
:101EB0000001716F9CC072F0E6ECADF0080E0001FD
:101EC0009A2500016F6F000E00019B210001706FC9
:101ED000050E0001716F9CC072F0E6ECADF0080ECB
:101EE00000019A2500016F6F000E00019B21000187
:101EF000706F060E0001716F9CC072F0E6ECADF0E1
:101F0000080E00019A2500016F6F000E00019B2151
:101F10000001706F070E0001716F9CC072F0E6EC5B
:101F2000ADF012000001FF51D8B41200E5C386F0F5
:101F3000E6C387F0E7C388F0E8C389F00001DF510A
:101F4000D8B405D0DDC085F00F0E0001DD6F000EA6
:101F500000018B6FDFD000018B51020D000EF324C6
:101F6000D96E040EF420DA6EDECFFDF0DDCFFEF088
:101F7000000E00018A6F130E00018A6501D0BED0E9
:101F800000018B51140DC80E0001836F040E000177
:101F9000846FF35000018327F45000018423000173
:101FA0008A51010DF35000018325D96EF4500001D0
:101FB0008421DA6EDFAE9AD000018B51140DC80E69
:101FC0000001836F040E0001846FF350000183272A
:101FD000F4500001842300018A51010DF3500001E7
:101FE0008325D96EF45000018421DA6E7F0EDF164E
:101FF00000018B51140DC80E0001836F040E000107
:10200000846FF35000018327F45000018423000102
:102010008A51010DF35000018325D96EF45000015F
:102020008421DA6EDF50D8B44AD0D2C069F0D3C070
:102030006AF086C06BF087C06CF088C06DF089C014
:102040006EF0EDC36FF0EEC370F0EFC371F0F0C34C
:1020500072F06FECA8F000018B51140DC80E000156
:10206000836F040E0001846FF35000018327F45046
:102070000001842300018A51010DF35000018325E2
:10208000D96EF45000018421DA6EDF5081EC9EF0AD
:1020900065C072F066C073F086C074F087C075F0DA
:1020A00088C076F089C077F0EDC378F0EEC379F0A0
:1020B000EFC37AF0F0C37BF024ECA4F017D0000E4D
:1020C00000016A6F000E696F86C06BF087C06CF00C
:1020D00088C06DF089C06EF0EDC36FF0EEC370F094
:1020E000EFC371F0F0C372F06FECA8F0060E0001C0
:1020F0008627000E872300018A2B3DD7080E00019A
:102100008827000E8923000E0001876F060E866F58
:1021100000018B2B00018B510001DD5DD8B01BD776
:102120000001DF51D8B41200000E0001DF6F85C03E
:10213000DDF012005B0E00019B6F030E00019C6F2F
:10214000000E00019E6F020E9D6F600E00019F6FDA
:10215000650E0001A06F010E0001A16FA40E000129
:10216000A26F630E0001A36F010E0001A46F780E31
:102170000001A56F650E0001A66F010E0001A76F9B
:1021800017EC9EF03D0E00019B6F030E00019C6F4B
:10219000000E00019E6F020E9D6F600E00019F6F8A
:1021A000650E0001A06F010E0001A16F040E000179
:1021B000A26F640E0001A36F010E0001A46F780EE0
:1021C0000001A56F650E0001A66F010E0001A76F4B
:1021D00017EC9EF0330E00019B6F030E00019C6F05
:1021E000000E00019E6F020E9D6F600E00019F6F3A
:1021F000650E0001A06F010E0001A16FEC0E000141
:10220000A26F630E0001A36F010E0001A46F780E90
:102210000001A56F650E0001A66F010E0001A76FFA
:1022200017EC9EF0470E00019B6F030E00019C6FA0
:10223000000E00019E6F020E9D6F600E00019F6FE9
:10224000650E0001A06F010E0001A16FD40E000108
:10225000A26F630E0001A36F010E0001A46F780E40
:102260000001A56F650E0001A66F010E0001A76FAA
:1022700017EC9EF0510E00019B6F030E00019C6F46
:10228000000E00019E6F020E9D6F600E00019F6F99
:10229000650E0001A06F010E0001A16FBC0E0001D0
:1022A000A26F630E0001A36F010E0001A46F780EF0
:1022B0000001A56F650E0001A66F010E0001A76F5A
:1022C00017EC9EF0A00E00018D6F860E8E6F010E32
:1022D0008F6F000E906F000E0001916F020E0001D3
:1022E000926F53EC82F0650E00016F6F030E0001D8
:1022F000706FE3ECA8F0000E0001A96F000EA86F4C
:102300000001A95113E1080E0001A85DD8B0120028
:102310002B0E0001A825D96E030E0001A921DA6E4B
:10232000000EDF6E0001A84BA92BEAD712000001B6
:10233000686F000168510001D8B41ED0000163AF7E
:102340001BD060C064F061C065F062C066F063C01D
:1023500067F00001641F651F661F671F642B000E76
:1023600065236623672364C06AF065C06BF066C0AE
:102370006CF067C06DF008D060C06AF061C06BF0AF
:1023800062C06CF063C06DF000016051000161112A
:102390000001621100016311D8A40AD0000E0001EF
:1023A000606F000E616F000E626F000E636F1200AF
:1023B000960E0001696F08D00001692B0001D890CA
:1023C0006D336C336B336A33000E00016A15000104
:1023D000646F000E00016B150001656F000E0001B7
:1023E0006C150001666FFE0E00016D150001676F30
:1023F00000016451000165110001661100016711BF
:10240000D8B410D0D9D70001692B010E00016A277A
:10241000000E6B236C236D230001D8906D336C3359
:102420006B336A33000E00016A150001646F000E01
:1024300000016B150001656F000E00016C150001B5
:10244000666FFF0E00016D150001676F000164519A
:10245000000165110001661100016711D8B409D0AF
:10246000D2D7000169070001D8906A376B376C3703
:102470006D3700016CBF04D0020E00016961F1D715
:10248000000169B109D0FF0E00016A17FF0E6B173A
:102490007F0E6C17FF0E6D170001D890693369C06D
:1024A00064F00001656B666B676B64C067F00001E8
:1024B000666B656B646B0001645100016A13000177
:1024C000655100016B130001665100016C1300019E
:1024D000675100016D13000168510001D8B405D0A7
:1024E000000163AF02D000016D8F6AC060F06BC065
:1024F00061F06CC062F06DC063F01200770E0001F5
:10250000806F000E0001816FC9D0250E0001841973
:10251000D8B405D00001845149ECB2F0BFD0000E10
:1025200000017F6F14D080C0D9FF81C0DAFFDF5077
:102530000001846F020E00018027000E812300013C
:10254000845149ECB2F0AAD000017F8D1ED075C035
:10255000F6FF76C0F7FF0001754B762B000EF86E84
:102560000800F5CF84F000018451000AD8B41200AD
:10257000630AD8B4D8D7070AD8B407D00D0AD8B49C
:1025800004D01C0AD8B4E0D7DAD700017FBD19D037
:1025900080C0D9FF81C0DAFFDECF82F0DDCF83F0CB
:1025A000020E00018027000E8123000183AF16D0A8
:1025B000030E00017F130001826D831FD8B0832BAF
:1025C0000DD080C0D9FF81C0DAFFDECF82F0DDCF31
:1025D00083F0020E00018027000E8123010E00010E
:1025E000846F050E00018419D8B419D000018451FC
:1025F000020D950EF324F66EFD0EF420F76EF86AC8
:10260000000EF8220900F5500001825D0900F55026
:1026100000018359D8A003D00001842BE2D77FC0EA
:102620007DF0030E00017D17D8B403D02D0E49ECC8
:10263000B2F084C07EF02CD000017E51020D950EC8
:10264000F324F66EFD0EF420F76EF86A000EF82201
:102650000900F5CF62F00A00F5CF63F082C060F0A8
:1026600083C061F0BEECA7F060C067F061C068F0A5
:10267000000E00016A6F0A0E696F5BECABF000019F
:102680006751300F0001846F0001845149ECB2F0B2
:1026900000017E0700017E29D8A4CED775C0F6FFC1
:1026A00076C0F7FF0001754B762B000EF86E080020
:1026B000F5CF84F000018451D8B4120026D786C02B
:1026C000D9FF87C0DAFFDECF8BF0DDCF8CF0050EAF
:1026D00000018A6FB5D0000120EE02F08651D926A4
:1026E0008751DA22DECF60F0DDCF61F088C062F082
:1026F000010E0001636FF8ECAAF0B0D08BC06FF050
:102700008CC070F0010E0001716F88C072F043EC54
:10271000A7F000018A6F00018A51D8A412000001BD
:1027200020EE02F08651D9268751DA22DECF60F002
:10273000DDCF61F088C062F0000E0001636FF8EC3D
:10274000AAF0000120EE04F08651D9268751DA2242
:10275000DECF60F0DDCF61F088C062F0000E0001D6
:10276000636FF8ECAAF07AD08BC06FF08CC070F079
:10277000020E0001716F88C072F043ECA7F00001F7
:102780008A6F00018A51D8A41200000120EE02F0E5
:102790008651D9268751DA22DECF60F0DDCF61F095
:1027A00088C062F0010E0001636FF8ECAAF000012E
:1027B00020EE04F08651D9268751DA22DECF60F070
:1027C000DDCF61F088C062F0010E0001636FF8ECAC
:1027D000AAF044D08BC06FF08CC070F0000E0001E6
:1027E000716F88C072F043ECA7F000018A6F00019E
:1027F0008A51D8A41200000120EE02F08651D92699
:102800008751DA22DECF60F0DDCF61F088C062F060
:10281000000E0001636FF8ECAAF0000120EE04F056
:102820008651D9268751DA22DECF60F0DDCF61F004
:1028300088C062F0000E0001636FF8ECAAF00ED0C1
:1028400000018951000AD8B446D7010AD8B456D736
:10285000030AD8B489D7010AD8B4BCD7080E00013E
:10286000862500016F6F000E000187210001706F47
:1028700088C071F089C072F0E6ECADF01200000182
:10288000736FB1D076ECA4F01200BDECABF0120087
:10289000A9ECA5F012004BEC9FF0120093ECAAF00B
:1028A00012000BECB1F0120073C070F07F0E00014B
:1028B00070170001DD51140DC80E0001716F040E78
:1028C0000001726FF35000017127F4500001722370
:1028D0000001DE51010DF35000017125D96EF45055
:1028E00000017221DA6EDF507F0B00017019D8B43D
:1028F0002ED0010E0001FF6F0001DD51140DC80E36
:102900000001706F040E0001716FF3500001702719
:10291000F450000171230001DE51010DF35000015C
:102920007025D96EF45000017121DA6E00017351E7
:102930008009DF6E0001DD51020D000EF324D96E17
:10294000040EF420DA6EFDC0DEFFFEC0DDFF93EC66
:10295000AAF00009D8B4120073C070F07F0E000115
:1029600070170001DD51140DC80E0001716F040EC7
:102970000001726FF35000017127F45000017223BF
:102980000001DE51010DF35000017125D96EF450A4
:1029900000017221DA6EDF507F0B00017019D8B48C
:1029A0001200010E0001FF6F0001DD51140DC80E71
:1029B0000001706F040E0001716FF3500001702769
:1029C000F450000171230001DE51010DF3500001AC
:1029D0007025D96EF45000017121DA6E0001735137
:1029E0008009DF6E120000017351070AD8B456D770
:1029F0000F0AD8B44AD7010AD8B44DD7030AD8B4BD
:102A000041D7060AD8B444D7010AD8B43BD72D0A17
:102A1000D8B44AD7030AD8B444D746D70001A25144
:102A20007EECA3F0A0C0D9FFA1C0DAFF000160C016
:102A3000DEFF000161C0DDFF0001A251D1ECA3F077
:102A4000000120EE06F0A051D926A151DA220001A2
:102A500060C0DEFF000161C0DDFF0001A251D1ECCA
:102A6000A3F0000120EE04F0A051D926A151DA22F2
:102A7000000160C0DEFF000161C0DDFF0001A25166
:102A80002BECA3F0000120EE02F0A051D926A151B9
:102A9000DA22000160C0DEFF000161C0DDFF00013D
:102AA00020EE04F0A051D926A151DA22DECFA3F006
:102AB000DDCFA4F0A3C0D9FFA4C0DAFF000EDF6E03
:102AC000000120EE02F0A051D926A151DA22DECF7A
:102AD000A3F0DDCFA4F0A3C0D9FFA4C0DAFFFF0E9E
:102AE000DF6EA0C09AF0A1C09BF0000E00019C6FA9
:102AF0007DEC8EF0000E0001A56F070E0001A565AC
:102B000031D04BD0A0C086F0A1C087F0A5C088F01E
:102B1000030E0001896F5FEC93F03CD0A0C086F0FB
:102B2000A1C087F0A5C088F0020E0001896F5FEC9C
:102B300093F030D0A0C086F0A1C087F0A5C088F087
:102B4000010E0001896F5FEC93F024D0A0C086F0E5
:102B5000A1C087F0A5C088F0000E0001896F5FEC6E
:102B600093F018D0A0C0D9FFA1C0DAFFDECF6CF07F
:102B7000DDCF6DF0A5C06EF00CECAFF0000AD8B45C
:102B8000C1D7010AD8B4D6D7030AD8B4C7D7010A27
:102B9000D8B4DCD70001A52BB0D7A0C06FF0A1C07E
:102BA00070F0000E0001716F33EC8AF0120000012A
:102BB000786F000E0001776F000E00017B6F660ECC
:102BC0000001756F000E0001766F950E57ECB2F0A4
:102BD0000001785157ECB2F0000E00017C6F23D059
:102BE00075C0D9FF76C0DAFFDF500001796F020EA1
:102BF00000017527000E76230001795160ECAAF0E0
:102C00000001772700017C51010D000EF324D96EDD
:102C1000020EF420DA6E79C0DFFF0001795157EC23
:102C2000B2F000017C2B0001785100017C5DD8A03E
:102C3000D7D7000E00017C6F0ED000017C51010D32
:102C4000000EF324D96E010EF420DA6E9AECB2F085
:102C5000DF6E00017C2B0001775100017C5DD8A064
:102C6000ECD7000E00017C6F5ED07BC07AF021D0E3
:102C700000017A51010D000EF324D96E010EF420EB
:102C8000DA6EDF500001616F00017B510008000126
:102C90007A250001626F00017C51010D000EF324C2
:102CA000D96E020EF420DA6EDF505CEC9CF000016D
:102CB0007A2B00017C51010D000EF324D96E020E17
:102CC000F420DA6EDF5060ECAAF00001706F716BD7
:102CD00000017B5100017027000E712300017A5121
:102CE0000001726F736B000170510001725D000191
:102CF0007351800A0001746F00017151800A000154
:102D00007459D8A0B5D700017C51010D000EF324F1
:102D1000D96E020EF420DA6EDF5060ECAAF00001EA
:102D20007B2700017C2B0001785100017C5DD8B02D
:102D300012009BD7010E4B6E000E0001BA6F000E01
:102D40000001BB6F000E0001BC6FAD0E0001A06F53
:102D5000030E0001A16F000E0001A26F0EEC95F0B2
:102D6000A30E0001A06F030E0001A16F010E000170
:102D7000A26F0EEC95F0EA0E0001A06F000E0001AC
:102D8000A16F020E0001A26F0EEC95F0E00E0001A3
:102D9000A06F000E0001A16F030E0001A26F0EECE8
:102DA00095F0990E0001A06F030E0001A16F040EB3
:102DB0000001A26F0EEC95F0B70E0001A06F030E9C
:102DC0000001A16F050E0001A26F0EEC95F08F0EB1
:102DD0000001A06F030E0001A16F060E0001A26F9B
:102DE0000EEC95F0B70E0001866F030E0001876FA1
:102DF000050E0001886F000E0001896F5FEC93F0F3
:102E0000A30E0001966F030E0001976F000E0001E4
:102E1000986F000E0001996F52EC8DF0B70E000113
:102E2000866F030E0001876F060E0001886F030E88
:102E30000001896F5FEC93F08F0E00019A6F030E13
:102E400000019B6F030E00019C6F7DEC8EF08F0ED6
:102E500000016F6F030E0001706F040E0001716FAF
:102E6000000E0001726FE9EC9EF0B70E00016F6F6B
:102E7000030E0001706F060E0001716F010E00015C
:102E8000726FE9EC9EF0000E8CECABF0010E8CEC56
:102E9000ABF0000E9E6E000EA16E000EA46E9B8E17
:102EA0009B8C000E0001616F640E606FF6ECA9F060
:102EB000D08E12001DECA9F0000E0001986F000EDC
:102EC000976F0001985106E1590E0001975DD8B047
:102ED0008BD001D089D0D89000019735F66E0001D3
:102EE0009835F76EC30EF626FC0EF722F86A000E30
:102EF000F8220900800EF5180900F510D8A422D098
:102F0000000198511FE1580E0001975DD8B01AD00A
:102F10000001974B982BD89000019735F66E000171
:102F20009835F76EC30EF626FC0EF722F86A000EEF
:102F3000F8220900F5CF60F00A00F5CF61F0F6EC59
:102F4000A9F04BD0D89000019735F66E0001983566
:102F5000F76EC30EF626FC0EF722F86A000EF82272
:102F60000900000EF55E0900010EF55AD8A020D028
:102F7000000E0001636FD89000019735F66E0001D6
:102F80009835F76EC30EF626FC0EF722F86A000E8F
:102F9000F8220900F5CF95F00900F5CF96F096C01C
:102FA00095F00001966B00019551C8ECB0F015D07A
:102FB000010E0001636FD89000019735F66E000195
:102FC0009835F76EC30EF626FC0EF722F86A000E4F
:102FD000F8220800F550C8ECB0F00001974B982B90
:102FE0000001985101E170D7000E0001616F640E7D
:102FF000606FF6ECA9F0000E0001636F290EC8ECBB
:10300000B0F0010E15ECA5F0000E0001616F640E2A
:10301000606FF6ECA9F0000E00016A6F000E696F98
:1030200044ECACF01200000120EE07F07B51D926F1
:103030007C51DA2201D80AD00500FA6EDE50FD6E0E
:10304000DE50FE6EDE50FF6EFA5012000001836FFC
:103050007BC0D9FF7CC0DAFF00018351DE18D8A401
:1030600021D0000120EE01F07B51D9267C51DA22DB
:1030700000017D51DE5CD8B00AD0000120EE01F0E5
:103080007B51D9267C51DA22000EDF6E120000013E
:1030900020EE01F07B51D9267C51DA2200017D51CE
:1030A000DF5E1200000120EE01F07B51D9267C5139
:1030B000DA22DF5000017E6F7F6B00017D5100013D
:1030C0007E27000E7F23000120EE01F07B51D926E0
:1030D0007C51DA22DF500001806F816B00017E514C
:1030E0000001805D00018151800A0001826F0001B2
:1030F0007F51800A00018259D8B01200000120EEF1
:1031000001F07B51D9267C51DA2200017D51DF2666
:10311000000120EE02F07B51D9267C51DA22000119
:1031200010EE01F07B51E1267C51E222E7500001D4
:10313000806F816BDE500001805DDE50000181599F
:10314000D8A012007BC0D9FF7CC0DAFF83C0DFFFAC
:10315000000120EE01F07B51D9267C51DA22000ECD
:10316000DF6E000120EE04F07B51D9267C51DA227B
:1031700001D812000500FA6EDE50FD6EDE50FE6EC4
:10318000DE50FF6EFA50000183511200800E0001E4
:10319000736F8D0E746F5B0E756F000E766FD59E1C
:1031A00000016D5100016E1100016F1100017011DD
:1031B000D8B41200D596D59CD59AD59873C060F036
:1031C00074C061F075C062F076C063F06DC064F0E9
:1031D0006EC065F06FC066F070C067F00BECA0F0D9
:1031E00060C077F061C078F062C079F063C07AF0B7
:1031F0000CD00001DC2B020E0001DC6501D02FD0C9
:10320000070E0001DC6501D0120077C060F078C0C5
:1032100061F079C062F07AC063F00001DC51020D08
:10322000750EF324F66EFD0EF420F76EF86A000EAC
:10323000F8220900F5CF71F00900F5CF72F071C0E6
:1032400064F072C065F00001666B676B0BECA0F078
:1032500000016351CEE100016205D8B0CAD7000178
:10326000DC51020D750EF324F66EFD0EF420F76EA0
:10327000F86A000EF8220800F5CFDBF0FF0E00011F
:1032800077250301106FFF0E000178210301116FF4
:10329000FF0E000179210301126FFF0E00017A2158
:1032A0000301136F10C360F011C361F012C362F029
:1032B00013C363F00001DB510001646F656B666B43
:1032C000676B0BECA0F00001601F0001611F0001A3
:1032D000604B612BFF0E00016025296EFF0E00017F
:1032E00061212A6E79ECB2F0D58E1200000E000139
:1032F000766F6C0E776FDC0E786F020E796F0001BF
:10330000D8906D376E376F377037020E0001716FCE
:10331000D890000179337833773376330001712FF9
:10332000F7D776C060F077C061F078C062F079C0FE
:1033300063F06DC064F06EC065F06FC066F070C081
:1033400067F00BECA0F060C07AF061C07BF062C067
:103350007CF063C07DF010D0000E0001726F000E93
:10336000736F000E746F000E756F0001DA2B020E82
:103370000001DA6501D026D07AC060F07BC061F030
:103380007CC062F07DC063F00001DA51010DAC0E2B
:10339000F324F66EFD0EF420F76EF86A000EF822A4
:1033A0000800F5500001646F656B666B676B0BEC92
:1033B000A0F00001635100016211CEE1000161053E
:1033C000D8B0CAD7CA500001DA19FC0BDA19CA6E94
:1033D000CA849EECB2F00001DA51010DAC0EF32468
:1033E000F66EFD0EF420F76EF86A000EF822080063
:1033F000F5CFD9F0FF0E00017A2503010C6FFF0E07
:1034000000017B2103010D6FFF0E00017C210301F0
:103410000E6FFF0E00017D2103010F6F0CC360F0E2
:103420000DC361F00EC362F00FC363F00001D95108
:103430000001646F656B666B676B0BECA0F00001BD
:1034400060510001DA6FDAC0CBFF120049ECAFF037
:103450002EECB2F037ECB2F0030127510001C62781
:10346000030128510001C7230001D651D8A404D07C
:103470000001D751D8B406D0000E1AECB2F0000EFD
:10348000C3ECADF00001C7BF0BD00001C75105E18F
:103490005B0E0001C65DD8A003D0000EC3ECADF0FA
:1034A00035ECA8F0010E4EECAEF00009D8B41200D5
:1034B000FB0E0001756FFF0E0001766F000E00011C
:1034C000786F230E776F7EEC92F09D0E0001756F82
:1034D000FF0E0001766FC8C077F0C9C078F0D6C083
:1034E00079F000017A6BD7C07BF000017C6B7EEC39
:1034F00092F092EC8FF0000E00018D6F000E8C6F39
:10350000000E00017A6FC80E796FBAECB1F025D0C9
:103510002EECB2F00301295100018C2703012A513E
:1035200000018D23FB0E0001756FFF0E0001766F09
:10353000000E0001786F230E776F7EEC92F0ED0E97
:103540000001756FFF0E0001766F8CC077F08DC0A3
:1035500078F07EEC92F092EC8FF000018DBFD8D71E
:10356000880E00018C5D130E00018D59D8A0D0D7B4
:10357000000EC3ECADF091ECB1F00009D8B412002C
:10358000CEECAEF0120051B2DCEF9BF0000120EE69
:1035900004F0CE51D926CF51DA22DF504EECAEF0F6
:1035A0000009D8B47AD0CEC0D9FFCFC0DAFFDE5040
:1035B000DE10D8B46DD0CEC0D9FFCFC0DAFF010E77
:1035C000DBBE26D0010EDB5003E1DE04D8A020D004
:1035D000CEC0D9FFCFC0DAFFDE2804E17F0EDE18AF
:1035E000D8B407D0CEC0D9FFCFC0DAFFDE06000EB8
:1035F000DD5A990E00016F6F030E0001706F000E0F
:103600000001716F010E0001726FE9EC9EF01FD096
:10361000CEC0D9FFCFC0DAFFDE0404E1800EDE1891
:10362000D8B407D0CEC0D9FFCFC0DAFFDE2A000E53
:10363000DD22990E00016F6F030E0001706F000E06
:103640000001716F000E0001726FE9EC9EF0990E9F
:1036500000016F6F030E0001706F010E0001716FAA
:10366000010E0001726FE9EC9EF0990E00016F6F80
:10367000030E0001706F010E0001716F000E00015A
:10368000726FE9EC9EF091ECB1F07FECB2F01200B9
:1036900091ECB1F0ADECB2F01200BDC060F0BEC074
:1036A00061F0BFC062F065ECB2F012000001B43509
:1036B000B5350101016F01010151D8A40AD0000EF6
:1036C0000001B26F000EB36F000EB46F000EB56F45
:1036D0001200B2C0B6F0B3C0B7F0B4C0B8F0B5C015
:1036E000B9F0200E06D00001D890B933B833B73303
:1036F000B633E82EF8D70001B6510101006F000182
:10370000B48FFF0E0001B217FF0EB317FF0EB417F0
:10371000000EB517960E0101015F010101AF1AD02D
:1037200001010151800A970FD8B00AD0000E0001A4
:10373000B26F000EB36F000EB46F000EB56F1200C3
:103740000001D890B533B433B333B2330101013F34
:10375000F7D71BD01F0E0101016512D0000E00012A
:10376000B26F000EB36F000EB46F000EB56F120093
:103770000001D890B237B337B437B537010101072C
:10378000010101510101D8A4F3D701010051010148
:10379000D8B409D00001B51FB41FB31FB26D000E1D
:1037A000B323B423B523B2C0B2F0B3C0B3F0B4C0F6
:1037B000B4F0B5C0B5F01200000120EE04F0CE5117
:1037C000D926CF51DA22DF509EECAFF00009D8B4F1
:1037D0006AD0CEC0D9FFCFC0DAFFDE50DE10D8B439
:1037E0005DD0CEC0D9FFCFC0DAFF010EDBBE22D044
:1037F000010EDB5003E1DE04D8A01CD0CEC0D9FFFF
:10380000CFC0DAFFDE2804E17F0EDE18D8B407D07F
:10381000CEC0D9FFCFC0DAFFDE06000EDD5A990E0A
:10382000106E030E116E000E126E010E136E83ECFD
:10383000A2F01BD0CEC0D9FFCFC0DAFFDE0404E176
:10384000800EDE18D8B407D0CEC0D9FFCFC0DAFFC3
:10385000DE2A000EDD22990E106E030E116E000E90
:10386000126E000E136E83ECA2F0990E106E030E12
:10387000116E010E126E010E136E83ECA2F0990E02
:10388000106E030E116E010E126E000E136E83EC9D
:10389000A2F0B9ECB2F085ECB2F01200B9ECB2F0E3
:1038A000B6ECB2F01200BDC001F0BEC002F0BFC065
:1038B00003F06CECB2F012000001656F57D061C0EC
:1038C00036F0F0ECA5F0120061C035F0120061C0D6
:1038D00034F0120061C033F0120061C032F0120007
:1038E00061C031F0120061C030F01200000162517D
:1038F0000001D8A405D061C008F30301096B1200D0
:1039000061C00AF303010B6B030108510001646FEE
:10391000636B03010A51000163250301296F030151
:103920000B510001642103012A6F12000001625152
:103930000001D8A405D061C004F30301056B120097
:1039400061C006F30301076B030104510001646FBA
:10395000636B03010651000163250301276F030117
:103960000751000164210301286F12000001655115
:10397000070AD8B4A4D70F0AD8B4A6D7010AD8B476
:10398000A6D7030AD8B4A6D7010AD8B4A6D7070A7F
:10399000D8B4A6D7010AD8B4A6D71E0AD8B4A6D7D9
:1039A000070AD8A41200C2D76CC074F06DC075F0BD
:1039B000000E0001736F000E726F6EC070F06FC06A
:1039C00071F00001745100017511D8A434D070C099
:1039D000D9FF71C0DAFF300EDF6E000E0001736F89
:1039E000010E726F40D074C067F075C068F0000EB1
:1039F00000016A6F0A0E696F5BECABF00001675162
:103A0000300F70C0D9FF71C0DAFFDF6E74C060F094
:103A100075C061F0000E0001636F0A0E626FBEECAC
:103A2000A7F060C074F061C075F00001724B732B99
:103A30000001704B712B0001745100017511D8B455
:103A400008D00001735105E1060E0001725DD8A097
:103A5000CAD76EC060F06FC061F072C062F073C010
:103A600063F055ECA9F00001725100016E25D96E8A
:103A70000001735100016F21DA6E000EDF6E12003B
:103A8000000E0001A66F000EA76F800EA86F440EF7
:103A9000A96F330E0001AA6F330EAB6F530EAC6FDC
:103AA000400EAD6F000120EE01F0A051D926A151CA
:103AB000DA22DECFA4F0DDCFA5F0A4C060F0A5C06F
:103AC00061F00001626B636B000E97EC91F060C0D7
:103AD000AEF061C0AFF062C0B0F063C0B1F0AEC094
:103AE0006EF0AFC06FF0B0C070F0B1C071F0A6C0A2
:103AF00072F0A7C073F0A8C074F0A9C075F053ECC1
:103B000088F06EC0AEF06FC0AFF070C0B0F071C0A2
:103B1000B1F0AEC087F0AFC088F0B0C089F0B1C0DE
:103B20008AF0AAC08BF0ABC08CF0ACC08DF0ADC0F9
:103B30008EF000EC80F087C0AEF088C0AFF089C096
:103B4000B0F08AC0B1F0AEC0A0F0AFC0A1F0B0C07C
:103B5000A2F0B1C0A3F012008DC0D9FF8EC0DAFF71
:103B6000000EDE6E000EDD6E000120EE02F08D51C3
:103B7000D9268E51DA22000EDE6E000EDD6E0001B7
:103B800020EE04F08D51D9268E51DA228FC0DEFF4F
:103B900090C0DDFF990E0001866F030E0001876F54
:103BA000000E0001886F030E0001896F5FEC93F037
:103BB000990E0001866F030E0001876F010E000150
:103BC000886F030E0001896F5FEC93F0990E00017E
:103BD0006F6F030E0001706F000E0001716F000E19
:103BE0000001726FE9EC9EF0990E00016F6F030EF9
:103BF0000001706F010E0001716F000E0001726F05
:103C0000E9EC9EF0860E0001BD6F350E0001BE6F1F
:103C1000010E0001BF6FE80E00016D6F030E6E6FA5
:103C2000000E6F6F000E706FC6EC98F0120000016E
:103C30009B5100019C11D8B4120000019F5100015A
:103C4000A0110001A111D8B412000001A25100017D
:103C5000A3110001A411D8B412000001A551000164
:103C6000A6110001A711D8B4120000019D51000156
:103C70009E11D8A405D0000E00019E6F010E9D6F0D
:103C80009BC0D9FF9CC0DAFF000EDF6E000120EE62
:103C900001F09B51D9269C51DA22000EDF6E000103
:103CA00020EE02F09B51D9269C51DA229DC0DEFF06
:103CB0009EC0DDFF000120EE04F09B51D9269C51EF
:103CC000DA22A5C0DEFFA6C0DEFFA7C0DEFF00012E
:103CD00020EE07F09B51D9269C51DA22A2C0DEFFCC
:103CE000A3C0DEFFA4C0DEFF01D812000500FA6EFB
:103CF00000019F51FD6EA051FE6EA151FF6EFA5062
:103D0000120000016B6F200E00016B5F00016B5110
:103D1000050DF3CF69F0F4CF6AF0AF0E000169250D
:103D200000016C6FFD0E00016A2100016D6F000E35
:103D30000001706F040E0001706501D043D0000EC9
:103D40000001716F060E0001716501D035D06CC0A5
:103D500060F06DC061F071C062F0B9ECAFF00009C5
:103D6000D8A405D0D2C06EF0D3C06FF004D0FDC08F
:103D70006EF0FEC06FF0000171510A0D820E00015D
:103D8000676F040E0001686FF35000016727F4505D
:103D90000001682300017051020DF35000016725F6
:103DA000D96EF45000016821DA6E6EC0DEFF6FC07C
:103DB000DDFF0001712BC6D700016C4B6D2B00019C
:103DC000702BB8D7820E0001656F040E0001666F7C
:103DD0001200080E00016F2500016C6F000E00013B
:103DE000702100016D6F71C06EF00CECAFF000013E
:103DF000736F42D0010E00017217000120EE02F035
:103E00006F51D9267051DA22DECF60F0DDCF61F03C
:103E100071C062F072C063F0F8ECAAF01200010EFB
:103E200000017217010E0001721B000120EE02F06A
:103E30006F51D9267051DA22DECF60F0DDCF61F00C
:103E400071C062F072C063F0F8ECAAF01200010ECB
:103E500000017217000120EE04F06F51D926705155
:103E6000DA22DECF60F0DDCF61F071C062F072C0A7
:103E700063F0F8ECAAF0120000017351000AD8B404
:103E80001200010AD8B4B6D7030AD8B4C8D7010AB9
:103E9000D8A41200DCD7000E00016E6FFA0E472482
:103EA0000001606FFF0E48200001616F000E0001ED
:103EB000636F060E626FACEC9FF000016051000171
:103EC0006F6F6FC060F00001616B000E0001636FE7
:103ED000040E626FACEC9FF00001605100016D6F49
:103EE000000E00016E6F06D06FECAEF093ECAAF0FE
:103EF00000016E2B00016D51040DF31EF41EF34AF8
:103F0000F42A00016F510001686F696BF3500001E2
:103F10006827F450000169230001681F691F684B7E
:103F2000692B040E00016827000E692300016E5101
:103F300000016A6F6B6B0001685100016A5D00014E
:103F40006B51800A00016C6F00016951800A000109
:103F50006C59D8B01200C8D7000E0001656F00017F
:103F600063AF08D00001626D631FD8B0632B010EF0
:103F70000001656F000161AF08D00001606D611F35
:103F8000D8B0612B010E0001651B000E0001676FA8
:103F9000000E666F0001625100016311D8B42CD08D
:103FA000010E0001646F06D00001D89062376337BC
:103FB0000001642B000163AFF7D70001D89066378A
:103FC0006737000162510001605D0001635100012B
:103FD0006159D8A00AD0000162510001605F000160
:103FE00063510001615B000166810001D890633379
:103FF00062330001642FE1D7000165510001D8B49C
:1040000005D00001666D671FD8B0672B66C060F0F1
:1040100067C061F01200000E0001686F000E696F4A
:10402000000E6A6F000E6B6F000164510001651194
:104030000001661100016711D8B442D0010E0001E1
:104040006C6F08D00001D8906437653766376737E2
:1040500000016C2B000167AFF5D70001D8906837DD
:1040600069376A376B37000164510001605D0001F8
:10407000655100016159000166510001625900015A
:10408000675100016359D8A012D0000164510001AA
:10409000605F000165510001615B00016651000134
:1040A000625B000167510001635B000168810001F0
:1040B000D890673366336533643300016C2FCDD7F6
:1040C00068C060F069C061F06AC062F06BC063F004
:1040D0001200000E0301246F000E236F23EE4EF03A
:1040E00001D80AD00500FA6EDE50FD6EDE50FE6E7D
:1040F000DE50FF6EFA5012000009D8B405D0000E51
:104100000301246F010E236F23EE3AF001D80AD089
:104110000500FA6EDE50FD6EDE50FE6EDE50FF6E64
:10412000FA5012000009D8B405D0000E0301246F24
:10413000020E236F23EE58F001D80AD00500FA6E64
:10414000DE50FD6EDE50FE6EDE50FF6EFA50120045
:104150000009D8B405D0000E0301246F030E236FAD
:1041600023EE44F001D80AD00500FA6EDE50FD6E51
:10417000DE50FE6EDE50FF6EFA5012000009D8B419
:104180001200000E0301246F040E236F1200000EB4
:104190000001656F000E646F38D02B0E000164259E
:1041A000D96E030E00016521DA6E61C0E1FF62C0C5
:1041B000E2FFE75010EC8CF0DF6E2B0E000164255F
:1041C000D96E030E00016521DA6E800EDE18D8A4C8
:1041D0000ED000016407D8A065072B0E00016425EE
:1041E000D96E030E00016521DA6E000EDB8E000130
:1041F000614B622B0001644B652B000165511AE194
:10420000060E0001645DD8B015D061C0D9FF62C050
:10421000DAFFDF50D8B40ED0C0D72B0E00016425D2
:10422000D96E030E00016521DA6E000EDF6E00010B
:10423000644B652B0001655106E1060E0001645DCB
:10424000D8B01200EAD7120000016451010D9F0E90
:10425000F324F66EFD0EF420F76EF86A000EF822D5
:104260000800F5CF6AF0000E0001696F06D000016A
:1042700062510001635F0001692B0001625100017E
:10428000635DD8B0F4D70001645100016303F350BB
:10429000636F000169510001632700016A51000149
:1042A000651763C066F06AC067F00001662B03D033
:1042B0000001D89067370001662FFAD700016751D7
:1042C000FF0A0001686F60C0D9FF61C0DAFF00011A
:1042D0006851DF1663C066F065C067F00001662BA9
:1042E00003D00001D89067370001662FFAD760C06D
:1042F000D9FF61C0DAFF00016751DF12120000012F
:10430000786F70C060F071C061F02CECAEF060C0EE
:1043100070F061C071F072C060F073C061F02CEC9D
:10432000AEF060C072F061C073F00001785100011E
:10433000D8B429D0000E0001616F890E606F71C082
:1043400074F00001756B74BF756900017451000150
:10435000626F636B000170510001646F656B73C025
:1043600076F00001776B76BF776900017651000126
:10437000666F676B000172510001686F696B050E13
:10438000C1ECA9F01200890E57ECB2F00001715196
:1043900057ECB2F00001705157ECB2F000017351CC
:1043A00057ECB2F00001725157ECB2F01200E60E79
:1043B000F66E640EF76E010EF86E03EEE5F010EE89
:1043C0000CF00900F5CFEEFFE550E150FAE14C0E9C
:1043D000F66E650EF76E010EF86E00EEF9F010EE57
:1043E00007F00900F5CFEEFFE550E150FAE1160EB7
:1043F000F66E650EF76E010EF86E00EE47F010EEE9
:104400000AF00900F5CFEEFFE550E150FAE104EEC5
:10441000C8F011EE2CF0EE6AE550E150FCE1E250FC
:10442000FAE104EE00F0C80EEE6AE806FDE103EEE4
:1044300000F0E50EEE6AE806FDE100EEBAF03F0E90
:10444000EE6AE806FDE100EE29F01E0EEE6AE806CF
:10445000FDE15190519200012AEFABF00001686F2D
:10446000020E00016527020E00016727030E0001FE
:104470006827030E00016627000E0001636F2A0EF5
:10448000C8ECB0F0010E0001636F000EC8ECB0F094
:10449000010E0001636F00016851C8ECB0F0010E1D
:1044A0000001636F000EC8ECB0F0010E0001636FF5
:1044B00000016651C8ECB0F0000E0001636F2B0ED6
:1044C000C8ECB0F0010E0001636F000EC8ECB0F054
:1044D000010E0001636F00016551C8ECB0F0010EE0
:1044E0000001636F000EC8ECB0F0010E0001636FB5
:1044F00000016751C8ECB0F0000E0001636F2C0E94
:10450000C8ECB0F01200080E10240D6E000E112041
:104510000E6E12C00FF01CECB0F0146E3BD0010E0A
:10452000131620EE02F01050D9261150DA22DECFF9
:1045300001F0DDCF02F012C003F013C004F0E9EC8B
:10454000ACF01200010E1316010E131A20EE02F049
:104550001050D9261150DA22DECF01F0DDCF02F063
:1045600012C003F013C004F0E9ECACF01200010E2D
:10457000131620EE04F01050D9261150DA22DECFA7
:1045800001F0DDCF02F012C003F013C004F0E9EC3B
:10459000ACF012001450000AD8B41200010AD8B4CA
:1045A000BED7030AD8B4CED7010AD8A41200DFD7E9
:1045B0009AEC96F095ECB2F0010EEDECAEF000093D
:1045C000D8B40CD036ECA6F09AEC90F05AEC97F0F8
:1045D00091ECB1F00009D8A4CEECAEF0080EEDECF1
:1045E000AEF00009D8B413D0C80E00018D6F030ED1
:1045F00000018E6F000E0001906F080E8F6FACEC03
:104600009DF091ECB1F00009D8A4CEECAEF0F40E20
:104610000001646F000E0001656F000E0001666FFF
:1046200081ECA7F0F40E0001626F000E0001636FD1
:10463000C0ECA6F01AECB1F050ECB2F00A0E83EC2C
:10464000B1F0FBECB0F0000E0001616F140E606F72
:10465000F6ECA9F012000001626F38D0920E000152
:10466000606F0F0E0001616F1200930E0001606F0A
:104670000F0E0001616F1200940E0001606F0F0EAB
:104680000001616F1200950E0001606F0F0E0001B6
:10469000616F1200960E0001606F0F0E0001616FD6
:1046A0001200970E0001606F0F0E0001616F120083
:1046B000980E0001606F0F0E0001616F1200000E76
:1046C0000001606F000E0001616F12000001625175
:1046D000000AD8B4C3D7010AD8B4C7D7030AD8B4DC
:1046E000CBD7010AD8B4CFD7070AD8B4D3D7010A99
:1046F000D8B4D7D7030AD8B4DBD7E1D70001626FAB
:1047000038D09B0E0001606FFF0E0001616F120038
:10471000990E0001606FFF0E0001616F1200970E8D
:104720000001606FFF0E0001616F1200950E000125
:10473000606FFF0E0001616F1200930E0001606F49
:10474000FF0E0001616F1200910E0001606FFF0EFD
:104750000001616F12008F0E0001606FFF0E0001FB
:10476000616F1200000E0001606F000E0001616FAA
:10477000120000016251000AD8B4C3D7010AD8B4AC
:10478000C7D7030AD8B4CBD7010AD8B4CFD7070A02
:10479000D8B4D3D7010AD8B4D7D7030AD8B4DBD753
:1047A000E1D70001626F38D0800E0001606F0F0EFC
:1047B0000001616F1200810E0001606F0F0E000199
:1047C000616F1200820E0001606F0F0E0001616FB9
:1047D0001200830E0001606F0F0E0001616F120066
:1047E000840E0001606F0F0E0001616F1200850ED4
:1047F0000001606F0F0E0001616F1200860E000154
:10480000606F0F0E0001616F1200000E0001606FFB
:10481000000E0001616F120000016251000AD8B45D
:10482000C3D7010AD8B4C7D7030AD8B4CBD7010A73
:10483000D8B4CFD7070AD8B4D3D7010AD8B4D7D7BA
:10484000030AD8B4DBD7E1D7000E0001826F000164
:104850007451000178250001806F0001765100013C
:104860007A250001816F7AC060F07BC061F078C06A
:1048700062F079C063F083ECAFF060C07EF061C09D
:104880007FF076C065F0000180050001666F0001D1
:1048900081050001676F000174512EECA2F0000E3B
:1048A0000001826F13D000018251020DF35000010C
:1048B0007225D96EF45000017321DA6EDECF65F0F7
:1048C000DDCF66F029ECB1F00001822B00018251AE
:1048D00000017C6F7D6B00017E5100017C5D000159
:1048E0007F5100017D59D8B01200DDD73ED00001C4
:1048F000DD51140DC80E0001606F040E0001616FE0
:10490000F35000016027F450000161230001DE51E3
:10491000010DF35000016025D96EF45000016121B2
:10492000DA6EDF50D8B41FD0010E0001FF6F000116
:10493000DD51140DC80E0001606F040E0001616F9F
:10494000F35000016027F450000161230001DE51A3
:10495000010DF35000016025D96EF4500001612172
:10496000DA6E800EDF6E0001DE2B130E0001DE65B5
:10497000BED7000E0001DE6F0001DD2B080E4926B8
:10498000000E4A22000E486E060E476E120060C0EE
:10499000F6FF61C0F7FF000EF86E0F0EF76403D04C
:1049A0000800F55005D0F6CFE9FFF7CFEAFFEF504A
:1049B0000001686F00016451010D9F0EF324F66E33
:1049C000FD0EF420F76EF86A000EF8220800F5CF0D
:1049D00066F0000E0001676F06D000016251000111
:1049E000635F0001672B000162510001635DD8B075
:1049F000F4D70001645100016303F350636F0001B9
:104A0000675100016327000163290001656F03D02E
:104A10000001D89068330001652FFAD70001665174
:104A2000000168170001685112000001656F000E57
:104A30000001666F000E0001636F360EC8ECB0F027
:104A400000016551030B0001666F2CD0010E0001BF
:104A5000636FC80EC8ECB0F0800E506E800E4F6EC3
:104A60001200010E0001636FA80EC8ECB0F0800EBA
:104A7000506E800E4F6E1200010E0001636F080E23
:104A8000C8ECB0F0800E506E800E4F6E1200010E1A
:104A90000001636F680EC8ECB0F0800E506E800E9F
:104AA0004F6E120000016651000AD8B4CFD7010A38
:104AB000D8B4D7D7030AD8B4DFD7010AD8A41200D4
:104AC000E6D70001666FA80EF66EFD0EF76E000EBB
:104AD000F86E0900F5CF62F00900F5CF63F0090028
:104AE000F5CF64F00A00F5CF65F0110E0001676F95
:104AF000030E0001661700016651010D620EF324DA
:104B0000D96E000EF420DA6EDF500001606F67C0CE
:104B100061F00001602B03D00001D89061370001E3
:104B2000602FFAD7000161510001676F00016739FA
:104B30000F0B0001676F000167510F0B0001676FDA
:104B40000301315100016719F00B67190301316F3F
:104B50001200000E0001DE6F000E0001DD6F000E7E
:104B60000001636F0E0E0001636501D02DD0000EB1
:104B70000001626F130E0001626501D022D0010EA8
:104B80000001FF6F00016351140DC80E0001606F3A
:104B9000040E0001616FF35000016027F450000122
:104BA000612300016251010DF35000016025D96EAF
:104BB000F45000016121DA6E800EDF6E0001622B7D
:104BC000D9D70001632BCED7010E0001DF6F000E95
:104BD000486E060E476E000E4A6E060E496E1200B3
:104BE00036A002D0010E01D0000E0001D76F36C0F2
:104BF00060F00001D8906033000160A102D0010E86
:104C000001D0000E0001D66F36C060F00001D890D0
:104C100060330001D8906033000160A102D0010E22
:104C200001D0000E0001D56F36C060F00001D890B1
:104C300060330001D89060330001D89060330001E8
:104C400060A102D0010E01D0000E0001D46F36C069
:104C500060F00001603B0F0E6017000160A103D0FF
:104C6000010E2F6E1200000E2F6E1200000E0001BA
:104C7000DE6F000E0001DD6F000E0001626F130E8B
:104C80000001626501D01200000E0001636F0E0E7C
:104C90000001636501D02CD000016351140DC80ED2
:104CA0000001606F040E0001616FF3500001602786
:104CB000F4500001612300016251010DF350000125
:104CC0006025D96EF45000016121DA6E000EDF6EAE
:104CD00000016351020D000EF324D96E040EF4207E
:104CE000DA6EFF0EDE6EFF0EDD6E0001632BCFD796
:104CF0000001622BC4D70001606F000E0001616FDC
:104D0000010E02D0000E0CD00001626F2DD0040EF7
:104D100007D0010E05D0050E03D0020E01D0060EFD
:104D20000001616F000EF0D7020E0001606503D034
:104D30000001600719D0020E0001606F15D000015C
:104D40006051020AD8B4DED7060AD8B4E0D70C0AFC
:104D5000D8B4DFD7180AD8B4DED7300AD8B4DDD734
:104D6000600AD8B4DCD7E0D7000162510001D8A4B2
:104D7000E6D7C15000016119F80B6119C16E12002C
:104D8000C2B21200A2ECB2F062C0D9FF63C0DAFF77
:104D9000DF509FECB1F0B3ECB2F0C282C2B2FED7EA
:104DA000C350C4CF64F00001656B64C065F00001BE
:104DB000646B00016413000E6513000120EE01F026
:104DC0006251D9266351DA2264C0DEFF65C0DDFF7F
:104DD000000120EE03F06251D9266351DA22DE5041
:104DE000DE10D8B40CD0000120EE03F06251D926B9
:104DF0006351DA22DECF62F0DDCF63F0C3D7A2ECDD
:104E0000B2F012000001666F090E0001636112002A
:104E100066C03FF0000E3D6E070E3D6401D027D006
:104E20003FC064F0010E00016417060E0001656FBB
:104E30000001D89064370001652FFAD70001645152
:104E40003E6E00016339E842F80B3D103E10000150
:104E5000676FD8903F32650E0001606F030E00014E
:104E6000616F67C062F08BECA9F03D2AD5D7650E63
:104E70000001606F030E0001616F000E0001626FA0
:104E80008BECA9F01200850EF66EFD0EF76E000E8B
:104E9000F86E20EE75F00F0E0900F5CFDEFFE80684
:104EA000FBE26FC06CF070C06DF072C06EF00CEC85
:104EB000AFF00001856F040E0001716120D0040E77
:104EC000000185611CD000017151040D750E0001B7
:104ED000736F000E0001746FF35000017327F450DC
:104EE0000001742300018551010DF3500001732569
:104EF000D96EF45000017421DA6EDF501200050EF5
:104F000012000001645100016511D8B4120064C0A0
:104F1000D0F065C0D1F064C0D9FF65C0DAFF66C0CB
:104F2000DFFF000120EE03F06451D9266551DA223B
:104F3000000EDE6E000EDD6E000120EE01F0645109
:104F4000D9266551DA22000EDE6E000EDD6E0001FC
:104F500066519FECB1F0C29EC29CC18EC18C0C0EFA
:104F60007CECADF0100E7BECA6F000016651D3ECAA
:104F7000AFF0010E3C6E24ECB2F01200000E000106
:104F8000666F000E656F0001625100016311D8B4B5
:104F90002CD0010E0001646F06D00001D89062375A
:104FA00063370001642B000163AFF7D70001D8908D
:104FB00065376637000162510001605D0001635191
:104FC00000016159D8A00AD0000162510001605F60
:104FD000000163510001615B000165810001D8900F
:104FE000633362330001642FE1D765C060F066C0AF
:104FF00061F0120001C0F6FF02C0F7FF000EF86E6C
:105000000F0EF76403D00800F55005D0F6CFE9FF86
:10501000F7CFEAFFEF50096E0550010D9F0EF32404
:10502000F66EFD0EF420F76EF86A000EF822080006
:10503000F5CF07F0000E086E03D00350045E082A77
:105040000350045CD8B0F9D705500402F350046E45
:10505000085004260428066E02D0D8900932062E85
:10506000FCD70750091609501200FC0E966E5B0E15
:1050700000017B6F030E00017C6F010E00017D6F4C
:1050800013EC98F03D0E00017B6F030E00017C6F66
:10509000010E00017D6F13EC98F0330E00017B6F61
:1050A000030E00017C6F010E00017D6F13EC98F080
:1050B000470E00017B6F030E00017C6F010E0001A3
:1050C0007D6F13EC98F0510E00017B6F030E000111
:1050D0007C6F010E00017D6F13EC98F01200000E42
:1050E0000001756F000E0001766F6DC065F0000164
:1050F0006B5100016F250001736F00017305000102
:10510000666F00016D51000171250001746F00018F
:1051100074050001676F00016B512EECA2F071C0A5
:1051200076F0000176510001D8B412006FC075F01E
:10513000000175510001D8B409D069C065F06AC09A
:1051400066F029ECB1F000017507F2D7000176078F
:10515000E8D7000120EE06F06F51D9267051DA220F
:10516000DECF60F0DDCF61F0050E0001626F000E52
:105170000001636FF8ECAAF0000120EE06F06F5119
:10518000D9267051DA22DECF6BF0DDCF6CF0000E45
:1051900000016D6F000E00016E6FEAECB0F00001CF
:1051A00020EE06F06F51D9267051DA22DECF60F082
:1051B000DDCF61F0050E0001626F010E0001636F2B
:1051C000F8ECAAF01200000120EE06F06F51D9268B
:1051D0007051DA22DECF60F0DDCF61F0050E000104
:1051E000626F000E0001636FF8ECAAF0000120EE80
:1051F00006F06F51D9267051DA22DECF6BF0DDCF89
:105200006CF0000E00016D6F020E00016E6FEAEC93
:10521000B0F0000120EE06F06F51D9267051DA226D
:10522000DECF60F0DDCF61F0050E0001626F010E90
:105230000001636FF8ECAAF01200B70E0001866F50
:10524000030E0001876F070E0001886F030E000137
:10525000896F5FEC93F0B70E0001866F030E0001BB
:10526000876F060E0001886F030E0001896F5FECE7
:1052700093F0C1ECACF0C00E00018D6FC60E8E6FC6
:105280002D0E8F6F000E906F010E0001916F010EB9
:105290000001926F53EC82F0700E00016F6F030EED
:1052A0000001706FA9ECA8F012000001625100012A
:1052B00060250001656F000163510001612100015B
:1052C000666F1AD060C0D9FF61C0DAFFDF500001FD
:1052D000646F65C0D9FF66C0DAFF60C0E1FF61C0DE
:1052E000E2FFDFCFE7FF0001604B612B65C0D9FF14
:1052F00066C0DAFF64C0DFFF00016507D8A066075B
:10530000000165510001605D0001665100016159B5
:10531000D8B01200D7D726D0EEC0D9FFEFC0DAFF41
:105320000001DF9462C0C9FFC7A0FED7C9CF62F0F9
:10533000EEC0D9FFEFC0DAFF0001DF841200E4C045
:10534000D9FFE5C0DAFF0001DF9E62C06FFF6DA0EC
:10535000FED76FCF62F0E4C0D9FFE5C0DAFF0001ED
:10536000DF8E1200000120EE02F06051D92661515B
:10537000DA22DF50000AD8B4CFD7010AD8A412002D
:10538000DED700016E6F600E00016C6F000E000131
:105390006D6F000E00016F6F1FD06CC0D9FF6DC024
:1053A000DAFF00016F5137C06AF000016B6B00013A
:1053B0006A27000E6B231E0E00016A25E16E040EA3
:1053C00000016B21E26EDFCFE7FF020E00016C27C8
:1053D000000E6D2300016F2B00016E5100016F5D07
:1053E000D8A0DBD700016E51372612001FD0000E67
:1053F0000001626F000E636F000E646F000E656F38
:10540000000165510001641111E1B00E0001625DFF
:10541000040E00016359D8B009D000F0010E00015C
:105420006227000E632364236523EAD70001600727
:10543000D8A0610700016029DAE100016129D8A440
:10544000D6D7080E0001626F800E636F000E646F86
:10545000000E656F1200050E00018C6F86C0D9FF2B
:1054600087C0DAFFDECF8DF0DDCF8EF000018851EE
:10547000020DF3CF8AF000018851020DF3280001DC
:105480008B6F8DC06FF08EC070F089C071F08AC0D4
:1054900072F043ECA7F000018C6F00018C51D8A48E
:1054A0000CD08DC06FF08EC070F089C071F08BC0D1
:1054B00072F043ECA7F000018C6F00018C511200D8
:1054C0000001606F12D0010E1200010E1200010ED9
:1054D0001200010E1200010E1200010E1200010E48
:1054E0001200020E1200020E120000016051070AA3
:1054F000D8B4E9D70F0AD8B4E8D7010AD8B4E7D7A7
:10550000030AD8B4E6D7010AD8B4E5D7070AD8B455
:10551000E4D7010AD8B4E3D71E0AD8B4E2D7070A01
:10552000D8A41200E0D70001DE2B060E4726000E9D
:105530004822060E47240001646F000E4820000137
:10554000656F000165BF09D00001655104E1800E5F
:105550000001645DD8B076ECA4F0080E4924000187
:10556000646F000E4A200001656F000165BF0CD01A
:105570000001655105E1800E0001645DD8A004D0F2
:10558000A9ECA5F0010E1200000E120000017D6FC3
:1055900000017ABF0DD000017A5104E100017905C4
:1055A000D8A006D0000E00017A6F010E796F03D0EB
:1055B000000179697A6900017D510001D8B40CD0ED
:1055C0007BC070F07CC071F079C072F07AC073F06B
:1055D000010E7FECA1F012007BC070F07CC071F076
:1055E00079C072F07AC073F0000E7FECA1F0120067
:1055F000010E0001631762C064F0010E0001656FC7
:105600000001642B03D00001D89065370001642F9E
:10561000FAD700016551FF0A0001666F60C0D9FF2B
:1056200061C0DAFF00016651DF1662C064F063C03A
:1056300065F00001642B03D00001D89065370001AC
:10564000642FFAD760C0D9FF61C0DAFF000165514D
:10565000DF121200D8ECA2F069ECA0F014D062ECDA
:1056600084F0FAD726EC9AF0F7D702EC0AF0F4D7D8
:105670006EEC86F0F1D7000E0001616F140E606FC2
:10568000F6ECA9F0E9D723C3F9F324C3FAF3030135
:10569000FA51000AD8A4EFD70301F951010AD8B48E
:1056A000DED7030AD8B4DED7010AD8B4DED7070A9A
:1056B000D8B4DED7E0D70001695100016A11D8B42F
:1056C00026D0010E00016B6F06D00001D89069371B
:1056D0006A3700016B2B00016AAFF7D700016951EF
:1056E0000001675D00016A5100016859D8A008D027
