:100000000DEF04F026EF00F004EF0AF0D1EC04F05D
:10001000FF0000F000F012000CEF0AF018EF00F003
:10003000F26AFC6A9BEC04F004009EEC09F0D8EC38
:1000400003F0F3EC03F05EEC08F0F6D701501F0B61
:10005000E80601E01200055001E01200060E021849
:1000600014E01AD0020E3D6E4A0E3FD8306A090ED7
:100070000AD0020E3D6E450402E1870E36D84504D3
:100080000AE1306A1D0E2F6E06D00450210AEAE004
:10009000030AEFE0010A42820138E832030BE80666
:1000A00014E01200020E3D6E440E206E24D0020EAB
:1000B0003D6E04C044F0020C020E3D6E430EF5D7B7
:1000C000020E3D6E03C043F0020C0250010AD8B488
:1000D0001200030AE7E0010AEFE00A0AD8B41200AE
:1000E000030AE5E0010AECE01200206E2050D8A4DB
:1000F000100E216E1200216A4292010E2F6E010C29
:100100004F6A140E506E516A296A2A6A4FC0F6FF70
:1001100050C0F7FF51C0F8FF42D80800F5CFDFFF0D
:100120004F2A000E50225122294A2A2A040E2A5C04
:10013000EDE30D0EE8CFB2F4600EE8CFB3F4000E9D
:10014000496E050E486E0AEC03F04F68170E506EAC
:10015000516A030E2A6E296851C0F8FF50C0F7FF9C
:100160004FC0F6FF1CD8DF50F56E0C0029C04EF0D2
:100170003F0E4E1607E1FEEC09F0040EA66EB50E1A
:1001800067EC04F04F06000E505A515A0A002950ED
:100190002A1001E112002906D8A02A06DDD7AC0EEC
:1001A0002924D96E040E2A20DA6E120003040BE112
:1001B00001501F0B08E1010E3D6E030E021802E113
:1001C000428001D042900350D8A4120001501F0B6E
:1001D000020AD8A4120005500F0BD8B4120028D878
:1001E000476A040E486E4726000E4822F350472601
:1001F000F450482223D847241D6EF45048201E6E28
:10020000030E021805E10FD8040EDF6E0CD81CD0C7
:1002100005AE04D008D8400EDF6E400C04D8080E9E
:10022000DF6E01D811D01DC0D9FF1EC0DAFF120049
:10023000010E3D6E05500F0B080D1200010E05AEAC
:10024000000E040DF3501200000EDB8E000C3D502A
:1002500010E193EC03F0196E3A0405E1010E32EC63
:1002600003F03A6A1200000E32EC03F0010E3A6E0F
:10027000010C01AE1BD0010E3E6E2F50075C3050BA
:10028000085804E207C02FF008C030F076EC01F007
:10029000480E196E010E32EC03F0000E32EC03F042
:1002A000240E04010A6F040E0B6F1CD0020E3E6E6A
:1002B000040E196E0750081002E1480E196E3A0438
:1002C00005E1010E32EC03F03A6A05D0000E32EC83
:1002D00003F0010E3A6E07500810D8A41200040172
:1002E000096B00D0480E086F088F480C080E326E5C
:1002F00030500DE1080E2F5C0AE22FC032F0405062
:1003000002E1010E03D0400402E1020E406E32C051
:1003100009F432502F5E000E305A240E1D6E040E6A
:100320001E6E42A21AD00BD01BD813EC01F00F0E98
:10033000F76403D00800F55001D019D81ED8325008
:10034000F3E112000DD813EC01F00F0EF76403D0A7
:100350000800F55001D00BD810D83250F3E112004C
:1003600020C0F6FF21C0F7FF000EF86E1200F6CF96
:10037000E1FFF7CFE2FFE7501200DF6E1D4A1E2AB1
:10038000204A212A320612000138E832030B18E015
:100390001200010E3D6E040E416E040C010E3D6E06
:1003A000450E206E7BEF00F02CD8496E49C020F03E
:1003B0007BEF00F026D8D96EDA6A03C0DFFF1200A7
:1003C000025002E179EF02F0010A02E1D6EF00F0FB
:1003D000020A02E1D6EF00F0060ADBE0030A02E1BE
:1003E00006EF02F0010AD8B412000F0AD7E0010AA2
:1003F00002E155EF03F0030AD7E0010ADBE0070A48
:100400001200010E3D6E0550460F1200800E0118BD
:1004100030E01200010E3D6EA40E75EC00F0120EDD
:1004200009D003502DE1010E3D6E380E75EC00F041
:10043000306A290E2F6E24D0010E3D6E0350010F3D
:10044000476E47C0F6FF100EF76E000EF86E0900FB
:10045000F5CF20F0100E216EB0EC01F00F0EF76416
:1004600003D00800F55002D0B7EC01F02F6E306ACF
:1004700007D00450010ACEE0030AD3E0010ADCE011
:1004800042821200366A27D03850486E000E48BEAD
:10049000FF0E496E4A6E4B6E4850155C0D6E49500A
:1004A00016580E6E4A5017580F6E4B501858106E53
:1004B0000FC0F8FF0EC0F7FF0DC0F6FF11D80D00FA
:1004C000362A0ED80C00362A240EA66EB50E67EC1E
:1004D00004F0FE0E38263850800A7F0FD5E2120055
:1004E000AC0E3624D96EDA6A040EDA22DF50F56ECD
:1004F0001200246B256B22D0010E3D6E42B0248386
:1005000024D0010E3D6E21D018EC01F0476A040E94
:10051000486E4726000E4822F3504726F4504822E2
:100520001EEC01F047241D6EF45048201E6E13ECA3
:1005300001F0DFA40AD0010E246F07D001501F0B79
:10054000DBE0010ADEE0030ADFE03D04D8A412008C
:10055000240E206E040E216E4292020E2F6E020CAB
:10056000400E486401D0486E4A6A0DD047504A2474
:10057000D96EDA6A6C0E4A24E16EE26A040EE22257
:10058000DFCFE7FF4A2A48504A5CF0E348C011F445
:10059000400E0401101710BD03D0496A492A01D04A
:1005A000496A493A49464946040110514918BF0B66
:1005B0004918106F1087108F12003F6A0CBF12008D
:1005C00048500D5D02E20DC448F03F6A0BD02C0E7E
:1005D0003F24D96EDA6A040EDA2247503F24F9EC40
:1005E00009F03F2A48503F5CF2E3400E0D6F0C17B4
:1005F0000CBD03D0496A492A01D0496A493A4946A3
:10060000494604010C514918BF0B49180C6F0C875F
:100610000C8F1200495006E1050E485C03E2496A5E
:10062000050E486E48504A6E49504B6E4C6A4D6AF2
:100630000A0ED8904A364B364C364D36E82EF9D74E
:100640004AC009F04BC00AF04CC00BF04DC00CF092
:100650000BC0F8FF0AC0F7FFF66A140EA66EB50EBF
:1006600067EF04F0476E080E1A6E1C0E1B6E040E28
:100670001C6E475006E1140E1B6E040E1C6E256A9C
:1006800002D0040E256E266E0BD819C0DEFF1AC0EC
:10069000DEFF1BC0DEFF1CC0DEFF02D8DF8E1200B3
:1006A00025C0D9FF26C0DAFF1200010E3D6E0F01F2
:1006B00016D8346A3450460FD96EDA6ADF6A342AA3
:1006C0003450F8E003C045F04550C9EC04F0035045
:1006D00003E1050E416E050C060E416E060C4D6BD6
:1006E0004E6B4F6B506B516B526B536B1200040E81
:1006F000411808E103C05EFF0F015E51050ED8B43A
:10070000030E416E3E04D8A4120076EC01F0020EF6
:10071000401802E108D8040C0401480E08BD080E78
:10072000086F088F1200040E0401086F088F040C74
:10073000030E416E0F015D6B626A7B0E5C6F5E6B38
:100740006FEC03F0160E4C6F658C03D06296FEECD6
:1007500009F062B6FBD7659C6598040E196E000E11
:1007600032EC03F0010E3A6E426A456A000EC9EFA0
:1007700004F081B818EC00F0060EF66E14D80D0ED9
:10078000F5180DE10900600EF51809E1F66A0BD8BD
:10079000F52803E10900F52802E000EF0AF018EC63
:1007A00000F000EF00F0140EF76EF86A0900140C68
:1007B0002306D8A0240623502410D8A412004E0EDD
:1007C000246E236A060E416002D08B80060C8BB02B
:1007D00003D0476A472A01D0476A8B504718FE0B5F
:1007E00047188B6E1200C0BC1200030ED36E6592C8
:1007F0006596F26A0ED808D0C0AC04D02D06D8A0F9
:100800002E0601D006D804002D502E10F5E1FF0071
:100810001200040E2E6E2D6A040C04EEACF014EEE1
:1008200000F0EE6AE550E150FCE1E250FAE100EE42
:1008300060F0820EEE6AE806FDE100EE01F0460E81
:10084000EE6AE806FDE10001B9EF03F00401086B70
:10085000406A00AF02D0006B3A6A04AF03D0046B69
:10086000010E3A6E3E6A3D6A2F6A306A6598C4ECA2
:1008700001F002EC00F027EF01F005D80AD8376A42
:100880000CD8386A12007E0E3B6E116AFC0E126E96
:10089000FC0C010E136E146A000C156816681768BC
:1008A000186812003F6A1E0E0F014D6F400E0401C2
:1008B0000D6F2C0E0E6F040E0F6F080E0C6F0C8F49
:1008C0006C0E126F040E136F400E106F400C476ECB
:1008D000F29EF3EC03F0B50E471804E0030ED36E5E
:1008E0000300FED7550EA76EAA0EA76EA682A6B26B
:1008F000FED7A69412005CCF35F0040E0F015C6F9A
:1009000062986582A198A088AAEC04F0A09835505E
:100910000F015C131200390402E1D1EC04F0656AA6
:10092000150E0F015F6F5C6B658698EC03F0010E8E
:10093000416E396A1200600ED36E9B8CDCEC04F0C1
:10094000BFEC04F0C16AC26A3DEC04F08B90949055
:10095000E7EF04F08B90D3CF31F00300A1B802D0C1
:10096000D0A6FBD731C0D3FF1200D9EC04F06592BA
:100970000F015C9501D0629462A41200FCD705D0EF
:10098000FEEC09F04706D8A0480647504810F8E1A9
:100990001200476E4704D8A4120052EC04F03DEF59
:1009A00004F06592656A48684768BFEC04F0416AE4
:1009B000120002D8BFEF04F0030E486E476A030C22
:1009C000390401E1120065A68BEC04F0120065B653
:0E09D000D1EC04F0396AE0EF04F012001200DE
:1010000000B6046134034D006900630072006F0094
:1010100063006800690070002000540065006300F0
:1010200068006E006F006C006F00670079002000A0
:1010300049006E0063002E000902290001010080B2
:10104000320904000002030000000921110100011F
:10105000221D000705810340000107050103400030
:101060000126034800490044002000550053004277
:1010700000200042006F006F0074006C006F006180
:10108000006400650072000600FF0901A10119015A
:101090002940150026FF0075089540810019012997
:1010A000409100C01201000200000008D8043C007A
:0B10B00001010102000104030904001B
:1010BC00060E4118D8B465B21200375001E017D1B2
:1010CC0004010CBF1200600E476E400E486EDDEC42
:1010DC0002F0010E376E276A286A2750A10FD96ECD
:1010EC00DA6A000EDF6E274A282A285005E1400EE6
:1010FC00275CD8B01200F1D71200020EA16F3A0E85
:10110C00A26F010EA36FA46FA56B140EA66FA76B35
:10111C00A86B000E1124A96FEC0E1220AA6FFF0E03
:10112C001320AB6FFF0E1420AC6F030EAD6FF80ED7
:10113C00AE6FAF69010EB06FB16B080EB26FB36BCF
:10114C00B46BB56BB669A50EDA6F040110BFA50CB4
:10115C00A10E476E400E486EB0EC02F0376A1200DA
:10116C00615106E17F0E3B6EF80E116E126802D0D3
:10117C0043EC04F049EC04F0F1D7286A050E276E15
:10118C000CD0FEEC09F027C048F028C049F00AEC5E
:10119C0003F09EEC09F0274A282A3B50526E536A02
:1011AC00522A000E53225250275C53502858D6E234
:1011BC00E8D715280EE116280CE117280AE11828A3
:1011CC0008E161C015F062C016F063C017F064C08E
:1011DC0018F015506119C2E116506219BFE1175091
:1011EC006319BCE118506419B9E1276A286A1AD04E
:1011FC006551A0082724D96EDA6AAC0E3824E16E4A
:10120C00E26A040EE222DFCFE7FF382A152A000E2D
:10121C001622172218223A0E381802E142EC02F07C
:10122C00274A282A00017CD899E2E2D742EC02F046
:10123C004DEC04F093D7070EA16F61C0A2F062C011
:10124C00A3F063C0A4F064C0A5F065C0A6F063C0B1
:10125C00F8FF62C0F7FF61C0F6FF276A286A0BD05F
:10126C00090000016551E1082724D96EDA6AF5CF2F
:10127C00DFFF274A282A54D8F3E3040110BF1200D9
:10128C0067D780EC00F06AD70C0EA16F010EA36F2C
:10129C00020EA26F160EF66ED3EC03F0F5CFA4F08F
:1012AC000A00F5CFA5F0060EA66F140EA76FA86B5B
:1012BC00A96B600EAB6F0D0EAA6FAC6B040EAD6F0D
:1012CC00000EAE6BAF6BB069B169B269B369B4694A
:1012DC00B569B669B769B86BB96BBA6BBB6BBC6BEC
:1012EC00BD6BBE6BBF6BC9D706EC00F037D70001E6
:1012FC006051020A01E101D7010A01E131D7070A65
:10130C0001E13BD7010A01E154D7030A8FE0010A3E
:10131C0092E00F0AE9E0010AB4E0050AB5E01ED735
:10132C006551526E536A5250275C53502858120024
:10133C00E0EC04F0415001E1120062B4B5EC04F0B1
:10134C0065B2120062B098EC03F062B87BEC04F06A
:10135C00030E416001D0030C3C6A62A6120064507B
:10136C0064CF4AF07C0E4A162AE164B203D02B6A91
:10137C00040E02D0040E2B6E2C6E62962BC0D9FF7D
:10138C002CC0DAFFDF30E8320F0B0D0A20E1336A94
:10139C0023D8DECF4AF0DDCF4BF04AC0D9FF4BC08B
:1013AC00DAFF3350010F1FD817D8DE2A000EDD22CA
:1013BC00332A070E3364ECD726EC04F008D0040E65
:1013CC00641804E1629677EC03F001D062963C2A33
:1013DC00030E3C64C2D7030C20EE02F02B50D9262E
:1013EC002C50DA221200E16EE26ADFCFE7FF120026
:0413FC0004001200D7
:0414000055EF0AF0AA
:101406000D605182FACF17F0FBCF18F0E9CF19F033
:10141600EACF1AF0E1CF1BF0E2CF1CF0D9CF1DF0D6
:10142600DACF1EF0F3CF1FF0F4CF20F0F6CF21F085
:10143600F7CF22F0F8CF23F0F5CF24F051C025F0F6
:1014460052C026F053C027F054C028F0F292F2B4EE
:10145600F2AA02D0AFEC9EF028C054F027C053F099
:1014660026C052F025C051F024C0F5FF23C0F8FF76
:1014760022C0F7FF21C0F6FF20C0F4FF1FC0F3FF14
:101486001EC0DAFF1DC0D9FF1CC0E2FF1BC0E1FF72
:101496001AC0EAFF19C0E9FF18C0FBFF17C0FAFF20
:0814A6005192110071EF93F067
:10FCF20000001180002C0100B10200350036000026
:10FD0200B202003500360000B302003500360002B0
:10FD1200003500360000B4000000C0A200020084DA
:10FD22000000C1C50000C20D00000000C38D002A02
:10FD32000000C48D00EE0000C50A000036C80000B5
:10FD4200E012001C001000180033002C00250028CF
:10FD520000280027002F003C0000000300030010D1
:10FD6200008000780000E112001C00100018002D35
:10FD720000280023002800280026002F003B000056
:10FD820000030003001000003A0500002A000002F0
:10FD92000000008100002B000003000000A2000010
:10FDA20029002C02000400080010002000400080FE
:10FDB2000000010001020001000100020200000334
:10FDC20003030001000A006400E803102700010396
:10FDD200070F1F3F7FFF0002010301041000000014
:10FDE200000000005F00000007000700147F147F7E
:10FDF20014242A7F2A12231308646236495522509A
:10FE02000005030000001C2241000041221C0008E2
:10FE12002A1C2A0808083E0808005030000008087A
:10FE2200080808006060000020100804023E5149E2
:10FE3200453E00427F400042615149462141454BC7
:10FE4200311814127F1027454545393C4A4949303B
:10FE520001710905033649494936064949291E00F7
:10FE620036360000005636000000081422411414F1
:10FE7200141414412214080002015109063249796E
:10FE8200413E7E1111117E7F494949363E41414131
:10FE9200227F4141221C7F494949417F09090101D1
:10FEA2003E414151327F0808087F00417F410020D6
:10FEB20040413F017F081422417F404040407F0281
:10FEC20004027F7F0408107F3E4141413E7F0909C1
:10FED20009063E4151215E7F091929464649494991
:10FEE2003101017F01013F4040403F1F2040201F60
:10FEF2007F2018207F6314081463030478040361CD
:10FF02005149454300007F4141020408102041410C
:10FF12007F00000402010204404040404000010210
:10FF2200040020545454787F4844443838444444AC
:10FF320020384444487F3854545418087E0901023A
:10FF4200081454543C7F0804047800447D40002087
:10FF520040443D00007F10284400417F40007C0463
:10FF62001804787C0804047838444444387C141417
:10FF72001408081414187C7C0804040848545454C7
:10FF820020043F4440203C4040207C1C2040201C58
:10FF92003C4030403C44281028440C5050503C44D3
:10FFA20064544C44000836410000007F00000041C8
:10FFB20036080008082A1C08081C2A080800FCFF4A
:10FFC2000F0000FFFFF0FF00FFFF00546F74616C31
:10FFD2002044697374616E63653A25750A4C6566DF
:10FFE200742042756D703A25750A526967687420EB
:0DFFF20042756D703A25750A002563000008
:020000040001F9
:100000000CD0680E0001E86F030E04D0730E0001DF
:10001000E86F030E0001E96F08D00001E651000A05
:10002000D8B4EFD7010AD8B4F1D7000120EE02F01E
:10003000E851D926E951DA22E6C0DFFFB1D0A30E9C
:100040000001DB6F000E0001DC6F020E0001DD6FAE
:10005000030E0001DE6F31EC88F0A30E0001DB6FB0
:10006000000E0001DC6F030E0001DD6F030E0001C6
:10007000DE6F31EC88F0A30E0001DB6F000E000193
:10008000DC6F050E0001DD6F030E0001DE6F31EC49
:1000900088F0A30E0001DB6F000E0001DC6F040E80
:1000A0000001DD6F000E0001DE6F31EC88F0000111
:1000B00020EE03F0E851D926E951DA22C70EDE6EB0
:1000C0000F0EDD6E000120EE06F0E851D926E95151
:1000D000DA22C60EDE6E0F0EDD6E000120EE09F094
:1000E000E851D926E951DA22C90E56D0990E0001FD
:1000F000DB6F000E0001DC6F070E0001DD6F030EE9
:100100000001DE6F31EC88F0990E0001DB6F000E0C
:100110000001DC6F060E0001DD6F030E0001DE6FD3
:1001200031EC88F0990E0001DB6F000E0001DC6FEE
:10013000040E0001DD6F030E0001DE6F31EC88F06C
:10014000990E0001DB6F000E0001DC6F050E00014F
:10015000DD6F000E0001DE6F31EC88F0000120EE53
:1001600003F0E851D926E951DA226D0EDE6E0F0E4A
:10017000DD6E000120EE06F0E851D926E951DA22C1
:100180006C0EDE6E0F0EDD6E000120EE09F0E85100
:10019000D926E951DA226F0EDE6E0F0EDD6E09D020
:1001A0000001E651000AD8B44AD7010AD8A41200C7
:1001B0009DD7000120EE06F0E851D926E951DA2258
:1001C000DECFB5F0DDCFB6F0050E0001B76F000E43
:1001D0000001B86F83EC9AF09CD0000120EE06F08D
:1001E000E851D926E951DA22DECFB5F0DDCFB6F0FD
:1001F000040E0001B76F000E0001B86F83EC9AF097
:10020000000120EE03F0E851D926E951DA22DECFD1
:10021000B5F0DDCFB6F0060E0001B76F000E00019D
:10022000B86F83EC9AF084D0000120EE06F0E8511C
:10023000D926E951DA22DECFB5F0DDCFB6F0040ED3
:100240000001B76F000E0001B86F83EC9AF0000157
:1002500020EE03F0E851D926E951DA22DECFB5F0DD
:10026000DDCFB6F0060E0001B76F010E0001B86FCA
:1002700083EC9AF05DD0000120EE06F0E851D9261B
:10028000E951DA22DECFB5F0DDCFB6F0040E000181
:10029000B76F010E0001B86F83EC9AF0000120EEF9
:1002A00003F0E851D926E951DA22DECFB5F0DDCFEF
:1002B000B6F0060E0001B76F000E0001B86F83ECB8
:1002C0009AF036D0000120EE06F0E851D926E95127
:1002D000DA22DECFB5F0DDCFB6F0040E0001B76F45
:1002E000010E0001B86F83EC9AF0000120EE03F0DC
:1002F000E851D926E951DA22DECFB5F0DDCFB6F0EC
:10030000060E0001B76F010E0001B86F83EC9AF082
:100310000FD00001E751000AD8B45FD7010AD8B462
:1003200083D7030AD8B4A7D7010AD8A41200CAD722
:10033000000120EE06F0E851D926E951DA22DECF9D
:10034000B5F0DDCFB6F0070E0001B76F000E00016B
:10035000B86F83EC9AF0000120EE06F0E851D92640
:10036000E951DA22DECFB5F0DDCFB6F0060E00019E
:10037000B76F000E0001B86F83EC9AF0E2C0C2F0D4
:10038000E3C0C3F0E4C0C4F0E5C0C5F09BEC8DF061
:10039000E8C0B5F0E9C0B6F0C6EC9EF004D09F8688
:1003A0000BD0A58E09D00001E651000AD8B4F7D7CA
:1003B000010AD8A41200F5D7E8C0B5F0E9C0B6F03C
:1003C0007FEC9EF0E8C0D9FFE9C0DAFF000EDF6ED7
:1003D000000120EE06F0E851D926E951DA22DECFFD
:1003E000C0F0DDCFC1F0000E0001C26F030E0001AE
:1003F000C36FEBEC9EF0000120EE06F0E851D92629
:10040000E951DA22DECFB5F0DDCFB6F0050E0001FE
:10041000B76F010E0001B86F83EC9AF01200080E5E
:100420000001C4250001C16F000E0001C5210001BB
:10043000C26F000E0001C36FDBEC9DF00001DB6FAB
:100440000001DB510001C76FC86B0E0ED890000190
:10045000C737C837E82EFAD70001DB510001C96F52
:10046000CA6B0C0ED8900001C937CA37E82EFAD7EC
:100470000001DB510001CB6FCC6B0A0ED89000015C
:10048000CB37CC37E82EFAD70001DB510001CE6F15
:10049000CD6B0001DB510001CF6FD06B060ED89001
:1004A0000001CF37D037E82EFAD70001DB51000129
:1004B000D16FD26B0001D13BD23BF00ED217D1519C
:1004C0000F0BD213F00ED1170001DB510001D36FD7
:1004D000D46B0001D890D337D4370001D890D337EC
:1004E000D4370001DB510001D56FD66B0001D35129
:1004F0000001D5130001D4510001D6130001D151E0
:100500000001D5130001D2510001D6130001CF51D3
:100510000001D5130001D0510001D6130001CD51C7
:100520000001D5130001CE510001D6130001CB51BB
:100530000001D5130001CC510001D6130001C951AF
:100540000001D5130001CA510001D6130001C751A3
:100550000001D5110001D76F0001C8510001D6116B
:100560000001D86FDBC0D9F00001DA6B080E000182
:10057000C4250001C16F000E0001C5210001C26F3A
:10058000010E0001C36FDBEC9DF00001C76FC86B6B
:100590000001D890C737C8370001D890C737C8378F
:1005A0000001C7510001D9130001C8510001DA133D
:1005B000080E0001C4250001C16F000E0001C52115
:1005C0000001C26F020E0001C36FDBEC9DF0000161
:1005D000C76FC86B0001C73BC83BF00EC817C751B7
:1005E0000F0BC813F00EC7170001C7510001D91334
:1005F0000001C8510001DA13080E0001C4250001F2
:10060000C16F000E0001C5210001C26F030E000181
:10061000C36FDBEC9DF00001C76FC86B060ED8906E
:100620000001C737C837E82EFAD70001C7510001CB
:10063000D9130001C8510001DA13080E0001C425C6
:100640000001C16F000E0001C5210001C26F040E40
:100650000001C36FDBEC9DF00001C76F0001C751C3
:100660000001C96FC86B0001C8510001D913000116
:10067000C9510001DA13080E0001C4250001C16F41
:10068000000E0001C5210001C26F050E0001C36FFD
:10069000DBEC9DF00001C76FC86B0A0ED89000011B
:1006A000C737C837E82EFAD70001C7510001D91360
:1006B0000001C8510001DA13080E0001C425000131
:1006C000C16F000E0001C5210001C26F060E0001BE
:1006D000C36FDBEC9DF00001C76FC86B0C0ED890A8
:1006E0000001C737C837E82EFAD70001C75100010B
:1006F000D9130001C8510001DA13080E0001C42506
:100700000001C16F000E0001C5210001C26F070E7C
:100710000001C36FDBEC9DF00001C76FC86B0E0ECC
:10072000D8900001C737C837E82EFAD70001C75163
:100730000001D9130001C8510001DA130001D95199
:100740000001D71948E10001DA510001D819D8A4F5
:10075000120032D0000120EE02F0C451D926C5515A
:10076000DA22DECFB5F0DDCFB6F0C6C0B7F0F8ECD8
:100770009FF012000001C61F000120EE02F0C451DC
:10078000D926C551DA22DECFB5F0DDCFB6F0C6C02E
:10079000B7F0F8EC9FF01200000120EE04F0C45115
:1007A000D926C551DA22DECFB5F0DDCFB6F0C6C00E
:1007B000B7F0F8EC9FF012000001DB51000AD8B44A
:1007C0001200010AD8B4C6D7030AD8B4D3D7010A95
:1007D000D8A41200E1D71200050E0001EF6FC7D0B8
:1007E000000120EE02F0EB51D926EC51DA22DECFE7
:1007F000C0F0DDCFC1F0EDC0C2F00F0E0001C36F3D
:10080000EBEC9EF0000120EE04F0EB51D926EC5108
:10081000DA22DECFC0F0DDCFC1F0EDC0C2F0000EB5
:100820000001C36FEBEC9EF0B0D0EBC0E4F0ECC085
:10083000E5F0EDC0E6F0030E0001E76F45EC9BF03C
:100840000001EF6F0001EF51D8A41200000120EE6B
:1008500002F0EB51D926EC51DA22DECFC0F0DDCF29
:10086000C1F0EDC0C2F0000E0001C36FEBEC9EF0D2
:10087000000120EE04F0EB51D926EC51DA22DECF54
:10088000C0F0DDCFC1F0EDC0C2F0000E0001C36FBB
:10089000EBEC9EF07AD0EBC0E4F0ECC0E5F0EDC0FC
:1008A000E6F0030E0001E76F45EC9BF00001EF6FEF
:1008B0000001EF51D8A41200000120EE02F0EB512C
:1008C000D926EC51DA22DECFC0F0DDCFC1F0EDC089
:1008D000C2F00F0E0001C36FEBEC9EF0000120EEA2
:1008E00004F0EB51D926EC51DA22DECFC0F0DDCF97
:1008F000C1F0EDC0C2F00F0E0001C36FEBEC9EF033
:1009000044D0EBC0E4F0ECC0E5F0EDC0E6F0030E3F
:100910000001E76F45EC9BF00001EF6F0001EF5124
:10092000D8A41200000120EE02F0EB51D926EC51C0
:10093000DA22DECFC0F0DDCFC1F0EDC0C2F0000E94
:100940000001C36FEBEC9EF0000120EE04F0EB51D0
:10095000D926EC51DA22DECFC0F0DDCFC1F0EDC0F8
:10096000C2F0000E0001C36FEBEC9EF00ED0000150
:10097000EE51000AD8B434D7010AD8B456D7030AC6
:10098000D8B489D7010AD8B4BCD7080E0001EB252A
:100990000001C46F000E0001EC210001C56F0001D1
:1009A000ED51040DF3CFC6F0EEC0C7F0F7EC9CF0AC
:1009B000080E0001EB250001C46F000E0001EC21C0
:1009C0000001C56F0001ED51040DF3280001C66F51
:1009D000EEC0C7F0F7EC9CF0080E0001EB2500011B
:1009E000C46F000E0001EC210001C56F0001ED5144
:1009F000040DF350020F0001C66FEEC0C7F0F7EC14
:100A00009CF0080E0001EB250001C46F000E0001F0
:100A1000EC210001C56F0001ED51040DF350030FEF
:100A20000001C66FEEC0C7F0F7EC9CF01200050E97
:100A30000001F46F7AD0000120EE02F0EF51D926C8
:100A4000F051DA22DECFF2F0DDCFF3F0F2C0D9FFC1
:100A5000F3C0DAFFFF0E67D0EFC0EBF0F0C0ECF0B0
:100A6000010E0001ED6F69EC9CF00001F46F0001D4
:100A7000F451D8A41200000120EE02F0EF51D92663
:100A8000F051DA22DECFF2F0DDCFF3F0F2C0D9FF81
:100A9000F3C0DAFF000EDF6E000120EE04F036D066
:100AA000EFC0EBF0F0C0ECF0020E0001ED6F69EC6E
:100AB0009CF00001F46F0001F451D8A41200000171
:100AC00020EE02F0EF51D926F051DA22DECFF2F01B
:100AD000DDCFF3F0F2C0D9FFF3C0DAFFFF0EDF6E17
:100AE000000120EE04F0AAD7EFC0EBF0F0C0ECF06C
:100AF000000E0001ED6F69EC9CF00001F46F000145
:100B0000F451D8A41200000120EE02F0EF51D926D2
:100B1000F051DA22DECFF2F0DDCFF3F0F2C0D9FFF0
:100B2000F3C0DAFF000EDF6E0ED00001F151000AB3
:100B3000D8B481D7010AD8B48FD7030AD8B4B0D7B4
:100B4000010AD8B4D1D7080E0001EF250001C46F07
:100B5000000E0001F0210001C56F000E0001C66FFC
:100B6000F1C0C7F0F7EC9CF0080E0001EF25000182
:100B7000C46F000E0001F0210001C56F010E0001DD
:100B8000C66FF1C0C7F0F7EC9CF0080E0001EF252E
:100B90000001C46F000E0001F0210001C56F020EBC
:100BA0000001C66FF1C0C7F0F7EC9CF0080E000121
:100BB000EF250001C46F000E0001F0210001C56F98
:100BC000030E0001C66FF1C0C7F0F7EC9CF0080EF1
:100BD0000001EF250001C46F000E0001F0210001AB
:100BE000C56F040E0001C66FF1C0C7F0F7EC9CF0B2
:100BF000080E0001EF250001C46F000E0001F02176
:100C00000001C56F050E0001C66FF1C0C7F0F7EC1B
:100C10009CF0080E0001EF250001C46F000E0001DA
:100C2000F0210001C56F060E0001C66FF1C0C7F0CC
:100C3000F7EC9CF0080E0001EF250001C46F000ED8
:100C40000001F0210001C56F070E0001C66FF1C061
:100C5000C7F0F7EC9CF012000001FF51D8B412006D
:100C6000D5C3DBF0D6C3DCF0D7C3DDF0D8C3DEF0EC
:100C700000018E51D8B405D08CC0DAF00F0E0001FF
:100C80008C6F000E0001E06FDFD00001E051020D1B
:100C9000000EF324D96E030EF420DA6EDECFFDF0E1
:100CA000DDCFFEF0000E0001DF6F130E0001DF65E7
:100CB00001D0BED00001E051140DAA0E0001D86F82
:100CC000040E0001D96FF3500001D827F450000141
:100CD000D9230001DF51010DF3500001D825D96E51
:100CE000F4500001D921DA6EDFAE9AD00001E05154
:100CF000140DAA0E0001D86F040E0001D96FF35035
:100D00000001D827F4500001D9230001DF51010D63
:100D1000F3500001D825D96EF4500001D921DA6EC4
:100D20007F0EDF160001E051140DAA0E0001D86FEE
:100D3000040E0001D96FF3500001D827F4500001D0
:100D4000D9230001DF51010DF3500001D825D96EE0
:100D5000F4500001D921DA6EDF50D8B44AD081C0F6
:100D6000BEF082C0BFF0DBC0C0F0DCC0C1F0DDC0AF
:100D7000C2F0DEC0C3F0F9C0C4F0FAC0C5F0FBC0D9
:100D8000C6F0FCC0C7F0A4EC98F00001E051140DCF
:100D9000AA0E0001D86F040E0001D96FF3500001B4
:100DA000D827F4500001D9230001DF51010DF35081
:100DB0000001D825D96EF4500001D921DA6EDF5038
:100DC000D6EC90F0BAC0C7F0BBC0C8F0DBC0C9F029
:100DD000DCC0CAF0DDC0CBF0DEC0CCF0F9C0CDF095
:100DE000FAC0CEF0FBC0CFF0FCC0D0F06BEC95F0B9
:100DF00017D0000E0001BF6F000EBE6FDBC0C0F049
:100E0000DCC0C1F0DDC0C2F0DEC0C3F0F9C0C4F088
:100E1000FAC0C5F0FBC0C6F0FCC0C7F0A4EC98F067
:100E2000060E0001DB27000EDC230001DF2B3DD77F
:100E3000080E0001DD27000EDE23000E0001DC6F2E
:100E4000060EDB6F0001E02B0001E05100018C5D1C
:100E5000D8B01BD700018E51D8B41200000E00018B
:100E60008E6FDAC08CF012005E0E0101006F030E6F
:100E70000101016F000E0101036F020E026F620E8D
:100E80000101046F400E0101056F010E0101066FA3
:100E9000000E0101076F000E0101086F000E010135
:100EA000096F000E01010A6F000E01010B6F000EA9
:100EB00001010C6F6CEC90F0400E0101006F030E0D
:100EC0000101016F000E0101036F020E026F620E3D
:100ED0000101046F400E0101056F010E0101066F53
:100EE000000E0101076F000E0101086F000E0101E5
:100EF000096F000E01010A6F000E01010B6F000E59
:100F000001010C6F6CEC90F0360E0101006F030EC6
:100F10000101016F000E0101036F020E026F620EEC
:100F20000101046F400E0101056F010E0101066F02
:100F3000000E0101076F000E0101086F000E010194
:100F4000096F000E01010A6F000E01010B6F000E08
:100F500001010C6F6CEC90F04A0E0101006F030E62
:100F60000101016F000E0101036F020E026F620E9C
:100F70000101046F400E0101056F010E0101066FB2
:100F8000000E0101076F000E0101086F000E010144
:100F9000096F000E01010A6F000E01010B6F000EB8
:100FA00001010C6F6CEC90F0540E0101006F030E08
:100FB0000101016F000E0101036F020E026F620E4C
:100FC0000101046F400E0101056F010E0101066F62
:100FD000000E0101076F000E0101086F000E0101F4
:100FE000096F000E01010A6F000E01010B6F000E68
:100FF00001010C6F6CEC90F0A00E0001E26F860E08
:10100000E36F010EE46F000EE56F000E0001E66F66
:10101000020E0001E76F00EC80F0680E0001C46F63
:10102000030E0001C56F6AEC98F0000E0001F16F2D
:10103000000EF06F0001F15113E1080E0001F05DA8
:10104000D8B012002E0E0001F025D96E030E00015B
:10105000F121DA6E000EDF6E0001F04BF12BEAD7C2
:101060001200DBC0D9FFDCC0DAFFDECFE0F0DDCF5D
:10107000E1F0050E0001DF6FB5D0000120EE02F0B7
:10108000DB51D926DC51DA22DECFB5F0DDCFB6F068
:10109000DDC0B7F0010E0001B86F83EC9AF0B0D05C
:1010A000E0C0C4F0E1C0C5F0010E0001C66FDDC0B4
:1010B000C7F07BEC97F00001DF6F0001DF51D8A48F
:1010C0001200000120EE02F0DB51D926DC51DA22B9
:1010D000DECFB5F0DDCFB6F0DDC0B7F0000E000119
:1010E000B86F83EC9AF0000120EE04F0DB51D926B2
:1010F000DC51DA22DECFB5F0DDCFB6F0DDC0B7F0DF
:10110000000E0001B86F83EC9AF07AD0E0C0C4F012
:10111000E1C0C5F0020E0001C66FDDC0C7F07BEC78
:1011200097F00001DF6F0001DF51D8A41200000129
:1011300020EE02F0DB51D926DC51DA22DECFB5F009
:10114000DDCFB6F0DDC0B7F0010E0001B86F83EC63
:101150009AF0000120EE04F0DB51D926DC51DA22AE
:10116000DECFB5F0DDCFB6F0DDC0B7F0010E000187
:10117000B86F83EC9AF044D0E0C0C4F0E1C0C5F091
:10118000000E0001C66FDDC0C7F07BEC97F00001D8
:10119000DF6F0001DF51D8A41200000120EE02F041
:1011A000DB51D926DC51DA22DECFB5F0DDCFB6F047
:1011B000DDC0B7F0000E0001B86F83EC9AF00001BB
:1011C00020EE04F0DB51D926DC51DA22DECFB5F077
:1011D000DDCFB6F0DDC0B7F0000E0001B86F83ECD4
:1011E0009AF00ED00001DE51000AD8B446D7010AA9
:1011F000D8B456D7030AD8B489D7010AD8B4BCD713
:10120000080E0001DB250001C46F000E0001DC2187
:101210000001C56FDDC0C6F0DEC0C7F0F7EC9CF082
:1012200012000001C86FB1D0BDEC95F0120017ECB0
:101230009BF01200EFEC96F01200A0EC91F012007F
:101240001EEC9AF012001DEC9FF01200C8C0C5F011
:101250007F0E0001C51700018C51140DAA0E00016C
:10126000C66F040E0001C76FF3500001C627F4508B
:101270000001C72300018D51010DF3500001C62567
:10128000D96EF4500001C721DA6EDF507F0B0001E8
:10129000C519D8B42ED0010E0001FF6F00018C518A
:1012A000140DAA0E0001C56F040E0001C66FF350A5
:1012B0000001C527F4500001C62300018D51010D26
:1012C000F3500001C525D96EF4500001C621DA6E35
:1012D0000001C8518009DF6E00018C51020D000E23
:1012E000F324D96E030EF420DA6EFDC0DEFFFEC0DB
:1012F000DDFF1EEC9AF00009D8B41200C8C0C5F09A
:101300007F0E0001C51700018C51140DAA0E0001BB
:10131000C66F040E0001C76FF3500001C627F450DA
:101320000001C72300018D51010DF3500001C625B6
:10133000D96EF4500001C721DA6EDF507F0B000137
:10134000C519D8B41200010E0001FF6F00018C51C5
:10135000140DAA0E0001C56F040E0001C66FF350F4
:101360000001C527F4500001C62300018D51010D75
:10137000F3500001C525D96EF4500001C621DA6E84
:101380000001C8518009DF6E12000001C851070A30
:10139000D8B456D70F0AD8B44AD7010AD8B44DD713
:1013A000030AD8B441D7060AD8B444D7010AD8B43E
:1013B0003BD72D0AD8B44AD7030AD8B444D746D766
:1013C0000001F751C5EC94F0F5C0D9FFF6C0DAFF83
:1013D0000001B5C0DEFF0001B6C0DDFF0001F7511E
:1013E00018EC95F0000120EE06F0F551D926F651E3
:1013F000DA220001B5C0DEFF0001B6C0DDFF00014A
:10140000F75118EC95F0000120EE04F0F551D926C3
:10141000F651DA220001B5C0DEFF0001B6C0DDFFE3
:101420000001F75172EC94F0000120EE02F0F5514A
:10143000D926F651DA220001B5C0DEFF0001B6C0A0
:10144000DDFF000120EE04F0F551D926F651DA2235
:10145000DECF00F1DDCF01F100C1D9FF01C1DAFF1C
:10146000000EDF6E000120EE02F0F551D926F65194
:10147000DA22DECF00F1DDCF01F100C1D9FF01C1D9
:10148000DAFFFF0EDF6EF5C0EFF0F6C0F0F0000EF1
:101490000001F16F17EC85F0000E0001F86F070EE8
:1014A0000001F86531D04BD0F5C0DBF0F6C0DCF0C0
:1014B000F8C0DDF0030E0001DE6F31EC88F03CD0A7
:1014C000F5C0DBF0F6C0DCF0F8C0DDF0020E000184
:1014D000DE6F31EC88F030D0F5C0DBF0F6C0DCF028
:1014E000F8C0DDF0010E0001DE6F31EC88F024D091
:1014F000F5C0DBF0F6C0DCF0F8C0DDF0000E000156
:10150000DE6F31EC88F018D0F5C0D9FFF6C0DAFFF5
:10151000DECFC1F0DDCFC2F0F8C0C3F0DBEC9DF050
:10152000000AD8B4C1D7010AD8B4D6D7030AD8B4B0
:10153000C7D7010AD8B4DCD70001F82BB0D7F5C063
:10154000C4F0F6C0C5F0000E0001C66F0FEC82F0CB
:1015500012000001CD6F000E0001CC6F000E0001E3
:10156000D06FBB0E0001CA6F000E0001CB6F950E4D
:10157000F1EC9FF00001CD51F1EC9FF0000E000165
:10158000D16F23D0CAC0D9FFCBC0DAFFDF50000132
:10159000CE6F020E0001CA27000ECB230001CE51F0
:1015A000EBEC99F00001CC270001D151010D000EA8
:1015B000F324D96E020EF420DA6ECEC0DFFF0001F4
:1015C000CE51F1EC9FF00001D12B0001CD51000173
:1015D000D15DD8A0D7D7000E0001D16F0ED0000189
:1015E000D151010D000EF324D96E010EF420DA6EF4
:1015F00022ECA0F0DF6E0001D12B0001CC510001E4
:10160000D15DD8A0ECD7000E0001D16F5ED0D0C064
:10161000CFF021D00001CF51010D000EF324D96E7F
:10162000010EF420DA6EDF500001B66F0001D051D8
:1016300000080001CF250001B76F0001D151010D55
:10164000000EF324D96E020EF420DA6EDF50F4ECB3
:101650008FF00001CF2B0001D151010D000EF324BA
:10166000D96E020EF420DA6EDF50EBEC99F0000137
:10167000C56FC66B0001D0510001C527000EC623FF
:101680000001CF510001C76FC86B0001C5510001B7
:10169000C75D0001C851800A0001C96F0001C65131
:1016A000800A0001C959D8A0B5D70001D151010D58
:1016B000000EF324D96E020EF420DA6EDF50EBEC4C
:1016C00099F00001D0270001D12B0001CD5100017C
:1016D000D15DD8B012009BD7010E4B6E000E0001F9
:1016E0006F6F000E0001706F000E0001716FA60E8B
:1016F0000001F56F030E0001F66F000E0001F76F99
:10170000E0EC89F09C0E0001F56F030E0001F66F0E
:10171000010E0001F76FE0EC89F0A30E0001F56FF8
:10172000000E0001F66F020E0001F76FE0EC89F089
:10173000990E0001F56F000E0001F66F030E000117
:10174000F76FE0EC89F08F0E0001F56F000E0001DD
:10175000F66F040E0001F76FE0EC89F0B00E0001A7
:10176000F56F030E0001F66F050E0001F76FE0EC58
:1017700089F0920E0001F56F030E0001F66F060E60
:101780000001F76FE0EC89F0B00E0001DB6F030E93
:101790000001DC6F050E0001DD6F000E0001DE6F41
:1017A00031EC88F09C0E0001EB6F030E0001EC6F32
:1017B000000E0001ED6F000E0001EE6FECEC83F007
:1017C000B00E0001DB6F030E0001DC6F060E00019E
:1017D000DD6F030E0001DE6F31EC88F0920E000128
:1017E000EF6F030E0001F06F030E0001F16F17ECB5
:1017F00085F0920E0001C46F030E0001C56F040E48
:101800000001C66F000E0001C76F3EEC91F0B00EF4
:101810000001C46F030E0001C56F060E0001C66F04
:10182000010E0001C76F3EEC91F0000EE6EC9AF05D
:10183000010EE6EC9AF0000E9E6E000EA16E000EF8
:10184000A46E9B8E9B8C000E0001B66F640EB56F6C
:1018500081EC99F0D08E1200DEEC98F0000E0001C1
:10186000ED6F000EEC6F0001ED5106E1590E000125
:10187000EC5DD8B08BD001D089D0D8900001EC3588
:10188000F66E0001ED35F76EF30EF626FC0EF7222C
:10189000F86A000EF8220900800EF5180900F5100C
:1018A000D8A422D00001ED511FE1580E0001EC5DDB
:1018B000D8B01AD00001EC4BED2BD8900001EC35DC
:1018C000F66E0001ED35F76EF30EF626FC0EF722EC
:1018D000F86A000EF8220900F5CFB5F00A00F5CF3E
:1018E000B6F081EC99F04BD0D8900001EC35F66E53
:1018F0000001ED35F76EF30EF626FC0EF722F86ABE
:10190000000EF8220900000EF55E0900010EF55ADE
:10191000D8A020D0000E0001B86FD8900001EC359F
:10192000F66E0001ED35F76EF30EF626FC0EF7228B
:10193000F86A000EF8220900F5CFEAF00900F5CFA9
:10194000EBF0EBC0EAF00001EB6B0001EA51FCECBC
:101950009EF015D0010E0001B86FD8900001EC3553
:10196000F66E0001ED35F76EF30EF626FC0EF7224B
:10197000F86A000EF8220800F550FCEC9EF0000119
:10198000EC4BED2B0001ED5101E170D7000E000191
:10199000B66F640EB56F81EC99F0000E0001B86F60
:1019A000290EFCEC9EF0010E5CEC96F0000E00019E
:1019B000B66F640EB56F81EC99F0000E0001BF6F39
:1019C000000EBE6F9EEC9BF01200CC0E0001D66F95
:1019D000000E0001D76F9ED0250E0001D819D8B493
:1019E00005D00001D851E3EC9FF094D0000E000127
:1019F000D26F15D0D6C0D9FFD7C0DAFFDF500001B3
:101A0000D86F020E0001D627000ED7230001D8514F
:101A1000E3EC9FF07FD0C00E0001D21318D0CAC0F3
:101A2000F6FFCBC0F7FF0001CA4BCB2B000EF86EC0
:101A30000800F5CFD8F00001D851000AD8B4120040
:101A4000630AD8B4D7D7160AD8B4E5D7DFD7D6C03B
:101A5000D9FFD7C0DAFFDECFD3F0DDCFD4F0020E4E
:101A60000001D627000ED723010E0001D86F18D031
:101A70000001D851020DC50EF324F66EFD0EF420C0
:101A8000F76EF86A000EF8220900F5500001D35DE8
:101A90000900F5500001D459D8A007D00001D82B77
:101AA000050E0001D819D8A4E3D7D8C0D5F02CD0A2
:101AB0000001D551020DC50EF324F66EFD0EF42083
:101AC000F76EF86A000EF8220900F5CFB7F00A00A9
:101AD000F5CFB8F0D3C0B5F0D4C0B6F0B9EC97F0FC
:101AE000B5C0BCF0B6C0BDF0000E0001BF6F0A0E5D
:101AF000BE6FB5EC9AF00001BC51300F0001D86FF9
:101B00000001D851E3EC9FF00001D5070001D52971
:101B1000D8A4CED7CAC0F6FFCBC0F7FF0001CA4B8E
:101B2000CB2B000EF86E0800F5CFD8F00001D8518D
:101B3000D8B4120051D7000E0001CB6F6C0ECC6FE1
:101B4000DC0ECD6F020ECE6F0001D890C237C337C6
:101B5000C437C537020E0001C66FD8900001CE33DE
:101B6000CD33CC33CB330001C62FF7D7CBC0B5F084
:101B7000CCC0B6F0CDC0B7F0CEC0B8F0C2C0B9F09E
:101B8000C3C0BAF0C4C0BBF0C5C0BCF060EC92F0FA
:101B9000B5C0CFF0B6C0D0F0B7C0D1F0B8C0D2F069
:101BA00010D0000E0001C76F000EC86F000EC96F85
:101BB000000ECA6F00018B2B020E00018B6501D055
:101BC00026D0CFC0B5F0D0C0B6F0D1C0B7F0D2C0EB
:101BD000B8F000018B51010DDC0EF324F66EFD0E02
:101BE000F420F76EF86A000EF8220800F5500001A4
:101BF000B96FBA6BBB6BBC6B60EC92F00001B85173
:101C00000001B711CEE10001B605D8B0CAD7CA505D
:101C100000018B19FC0B8B19CA6ECA8426ECA0F04C
:101C200000018B51010DDC0EF324F66EFD0EF42045
:101C3000F76EF86A000EF8220800F5CF8AF0FF0E62
:101C40000001CF2503011E6FFF0E0001D02103010B
:101C50001F6FFF0E0001D1210301206FFF0E000155
:101C6000D2210301216F1EC3B5F01FC3B6F020C3FC
:101C7000B7F021C3B8F000018A510001B96FBA6B07
:101C8000BB6BBC6B60EC92F00001B55100018B6F37
:101C90008BC0CBFF12006CEC8BF0010EBCEC9DF006
:101CA0000009D8B40CD036EC97F034EC87F02CEC6B
:101CB0008CF0A3EC9FF00009D8A49DEC9DF02CECD7
:101CC0009FF0EAEC9FF00A0E95EC9FF00DEC9FF070
:101CD000000E0001B66F140EB56F81EC99F0000E86
:101CE0000001CF6F5A0ECE6F000E0001D16FC80EEB
:101CF000D06F000E51EC9AF0000E0301DE6F000E63
:101D0000DD6F000E0301E06F000EDF6FFAEC9DF057
:101D1000C8EC9FF0D1EC9FF0000177510301DF2761
:101D2000000178510301E02300018851D8A404D0B8
:101D300000018751D8B406D0000EBEEC9FF0000E13
:101D4000B1EC9CF00301E0BF0BD00301E05105E1D1
:101D50005B0E0301DF5DD8A003D0000EB1EC9CF058
:101D6000010E3CEC9DF00009D8B4D0D7FB0E000169
:101D7000CA6FFF0E0001CB6F000E0001CD6F230E66
:101D8000CC6FE5EC8CF0CD0E0001CA6FFF0E0001A8
:101D9000CB6FDDC3CCF0DEC3CDF088C0CEF0000148
:101DA000CF6B87C0D0F00001D16BE5EC8CF02CEC50
:101DB00086F0A3EC9FF00009D8B4A8D79DEC9DF065
:101DC000A5D751B274EF8FF0000120EE04F07D51E1
:101DD000D9267E51DA22DF503CEC9DF00009D8B4C0
:101DE0007AD07DC0D9FF7EC0DAFFDE50DE10D8B4D5
:101DF0006DD07DC0D9FF7EC0DAFF010EDBBE26D0DC
:101E0000010EDB5003E1DE04D8A020D07DC0D9FF55
:101E10007EC0DAFFDE2804E17F0EDE18D8B407D0DA
:101E20007DC0D9FF7EC0DAFFDE06000EDD5A8F0EC0
:101E30000001C46F000E0001C56F000E0001C66FE7
:101E4000010E0001C76F3EEC91F01FD07DC0D9FF9D
:101E50007EC0DAFFDE0404E1800EDE18D8B407D0BD
:101E60007DC0D9FF7EC0DAFFDE2A000EDD228F0E94
:101E70000001C46F000E0001C56F000E0001C66FA7
:101E8000000E0001C76F3EEC91F08F0E0001C46F91
:101E9000000E0001C56F010E0001C66F010E0001AA
:101EA000C76F3EEC91F08F0E0001C46F000E000171
:101EB000C56F010E0001C66F000E0001C76F3EEC3A
:101EC00091F0A3EC9FF00DECA0F01200A3EC9FF0BA
:101ED0002EECA0F0120072C0B5F073C0B6F074C062
:101EE000B7F0FFEC9FF01200000120EE04F07D51EE
:101EF000D9267E51DA22DF5032EC9EF00009D8B4A8
:101F00006AD07DC0D9FF7EC0DAFFDE50DE10D8B4C3
:101F10005DD07DC0D9FF7EC0DAFF010EDBBE22D0CE
:101F2000010EDB5003E1DE04D8A01CD07DC0D9FF38
:101F30007EC0DAFFDE2804E17F0EDE18D8B407D0B9
:101F40007DC0D9FF7EC0DAFFDE06000EDD5A8F0E9F
:101F5000106E000E116E000E126E010E136E1DEC4F
:101F600094F01BD07DC0D9FF7EC0DAFFDE0404E10F
:101F7000800EDE18D8B407D07DC0D9FF7EC0DAFF4E
:101F8000DE2A000EDD228F0E106E000E116E000E86
:101F9000126E000E136E1DEC94F08F0E106E000E7C
:101FA000116E010E126E010E136E1DEC94F08F0E69
:101FB000106E000E116E010E126E000E136E1DECEF
:101FC00094F037ECA0F013ECA0F0120037ECA0F086
:101FD00034ECA0F0120072C001F073C002F074C0C3
:101FE00003F006ECA0F012000001BA6F57D0B6C0A3
:101FF00034F0A8EC96F01200B6C033F01200B6C070
:1020000032F01200B6C031F01200B6C030F012004B
:10201000B6C02FF01200B6C02EF012000001B7516A
:102020000001D8A405D0B6C064F00001656B1200B1
:10203000B6C066F00001676B000164510001B96F22
:10204000B86B000166510001B8250001756F0001F1
:1020500067510001B9210001766F12000001B751EC
:102060000001D8A405D0B6C060F00001616B120079
:10207000B6C062F00001636B000160510001B96FEE
:10208000B86B000162510001B8250001776F0001B3
:1020900063510001B9210001786F12000001BA51AB
:1020A000070AD8B4A4D70F0AD8B4A6D7010AD8B45F
:1020B000A6D7030AD8B4A6D7010AD8B4A6D7070A68
:1020C000D8B4A6D7010AD8B4A6D71E0AD8B4A6D7C2
:1020D000070AD8A41200C2D7010100510101011161
:1020E000D8B41200010104510101051101010611CA
:1020F000D8B41200010107510101081101010911B1
:10210000D8B4120001010A5101010B1101010C1197
:10211000D8B412000101025101010311D8A405D065
:10212000000E0101036F010E026F00C1D9FF01C152
:10213000DAFF000EDF6E010120EE01F00051D9261A
:102140000151DA22000EDF6E010120EE02F0005193
:10215000D9260151DA2202C1DEFF03C1DDFF0101F0
:1021600020EE04F00051D9260151DA220AC1DEFF27
:102170000BC1DEFF0CC1DEFF010120EE07F00051B4
:10218000D9260151DA2207C1DEFF08C1DEFF09C1ED
:10219000DEFF01D812000500FA6E01010451FD6E48
:1021A0000551FE6E0651FF6EFA5012000001C06F1D
:1021B000200E0001C05F0001C051050DF3CFBEF03D
:1021C000F4CFBFF0DF0E0001BE250001C16FFD0E90
:1021D0000001BF210001C26F000E0001C56F040E97
:1021E0000001C56501D043D0000E0001C66F060E88
:1021F0000001C66501D035D0C1C0B5F0C2C0B6F08F
:10220000C6C0B7F04DEC9EF00009D8A405D081C03F
:10221000C3F082C0C4F004D0FDC0C3F0FEC0C4F05F
:102220000001C6510A0D640E0001BC6F040E0001CE
:10223000BD6FF3500001BC27F4500001BD23000125
:10224000C551020DF3500001BC25D96EF4500001B8
:10225000BD21DA6EC3C0DEFFC4C0DDFF0001C62BA6
:10226000C6D70001C14BC22B0001C52BB8D7640EE5
:102270000001BA6F040E0001BB6F1200080E0001CE
:10228000C4250001C16F000E0001C5210001C26F0D
:10229000C6C0C3F0DBEC9DF00001C86F42D0010E58
:1022A0000001C717000120EE02F0C451D926C55124
:1022B000DA22DECFB5F0DDCFB6F0C6C0B7F0C7C0CA
:1022C000B8F083EC9AF01200010E0001C717010E5E
:1022D0000001C71B000120EE02F0C451D926C551F0
:1022E000DA22DECFB5F0DDCFB6F0C6C0B7F0C7C09A
:1022F000B8F083EC9AF01200010E0001C71700013C
:1023000020EE04F0C451D926C551DA22DECFB5F053
:10231000DDCFB6F0C6C0B7F0C7C0B8F083EC9AF016
:1023200012000001C851000AD8B41200010AD8B442
:10233000B6D7030AD8B4C8D7010AD8A41200DCD78C
:10234000000E0001C36FFA0E47240001B56FFF0EA7
:1023500048200001B66F000E0001B86F060EB76F7F
:1023600001EC92F00001B5510001C46FC4C0B5F09A
:102370000001B66B000E0001B86F040EB76F01ECE0
:1023800092F00001B5510001C26F000E0001C36F51
:1023900006D05DEC9DF01EEC9AF00001C32B00010D
:1023A000C251040DF31EF41EF34AF42A0001C45175
:1023B0000001BD6FBE6BF3500001BD27F45000015A
:1023C000BE230001BD1FBE1FBD4BBE2B040E00016E
:1023D000BD27000EBE230001C3510001BF6FC06BBB
:1023E0000001BD510001BF5D0001C051800A000124
:1023F000C16F0001BE51800A0001C159D8B012005E
:10240000C8D7000E0001BA6F0001B8AF08D00001B4
:10241000B76DB81FD8B0B82B010E0001BA6F00011C
:10242000B6AF08D00001B56DB61FD8B0B62B010EFF
:102430000001BA1B000E0001BC6F000EBB6F000153
:10244000B7510001B811D8B42CD0010E0001B96FFA
:1024500006D00001D890B737B8370001B92B00017A
:10246000B8AFF7D70001D890BB37BC370001B751E0
:102470000001B55D0001B8510001B659D8A00AD0DD
:102480000001B7510001B55F0001B8510001B65B12
:102490000001BB810001D890B833B7330001B92FD8
:1024A000E1D70001BA510001D8B405D00001BB6DDD
:1024B000BC1FD8B0BC2BBBC0B5F0BCC0B6F012007E
:1024C000000E0001BD6F000EBE6F000EBF6F000E4C
:1024D000C06F0001B9510001BA110001BB11000128
:1024E000BC11D8B442D0010E0001C16F08D0000168
:1024F000D890B937BA37BB37BC370001C12B0001C0
:10250000BCAFF5D70001D890BD37BE37BF37C03755
:102510000001B9510001B55D0001BA510001B65981
:102520000001BB510001B7590001BC510001B8596D
:10253000D8A012D00001B9510001B55F0001BA5115
:102540000001B65B0001BB510001B75B0001BC514B
:102550000001B85B0001BD810001D890BC33BB33E2
:10256000BA33B9330001C12FCDD7BDC0B5F0BEC05D
:10257000B6F0BFC0B7F0C0C0B8F012000001B9514A
:10258000010DCF0EF324F66EFD0EF420F76EF86AFF
:10259000000EF8220800F5CFBFF0000E0001BE6F5C
:1025A00006D00001B7510001B85F0001BE2B000149
:1025B000B7510001B85DD8B0F4D70001B95100019E
:1025C000B803F350B86F0001BE510001B8270001F5
:1025D000BF510001BA17B8C0BBF0BFC0BCF00001CA
:1025E000BB2B03D00001D890BC370001BB2FFAD71A
:1025F0000001BC51FF0A0001BD6FB5C0D9FFB6C0D4
:10260000DAFF0001BD51DF16B8C0BBF0BAC0BCF0A4
:102610000001BB2B03D00001D890BC370001BB2FB9
:10262000FAD7B5C0D9FFB6C0DAFF0001BC51DF123E
:1026300012000001CD6FC5C0B5F0C6C0B6F01AECEF
:102640009DF0B5C0C5F0B6C0C6F0C7C0B5F0C8C0F3
:10265000B6F01AEC9DF0B5C0C7F0B6C0C8F00001E6
:10266000CD510001D8B429D0000E0001B66F890EFB
:10267000B56FC6C0C9F00001CA6BC9BFCA69000105
:10268000C9510001B76FB86B0001C5510001B96FA6
:10269000BA6BC8C0CBF00001CC6BCBBFCC690001DA
:1026A000CB510001BB6FBC6B0001C7510001BD6F76
:1026B000BE6B050E4CEC99F01200890EF1EC9FF008
:1026C0000001C651F1EC9FF00001C551F1EC9FF003
:1026D0000001C851F1EC9FF00001C751F1EC9FF0EF
:1026E00012003C0EF66E400EF76E010EF86E03EE11
:1026F000D5F010EE08F00900F5CFEEFFE550E150FF
:10270000FAE1540EF66E400EF76E010EF86E00EE12
:10271000F9F010EE07F00900F5CFEEFFE550E150BB
:10272000FAE1320EF66E400EF76E010EF86E00EE14
:1027300047F010EE0AF00900F5CFEEFFE550E1504A
:10274000FAE104EEAAF011EE2CF0EE6AE550E15049
:10275000FCE1E250FAE104EE00F0AA0EEE6AE806AF
:10276000FDE103EE00F0D50EEE6AE806FDE100EEB5
:1027700060F0550EEE6AE806FDE100EE29F01E0E4F
:10278000EE6AE806FDE15190519200014BEF8EF0A8
:102790000001BD6F020E0001BA27020E0001BC2726
:1027A000030E0001BD27030E0001BB27000E000130
:1027B000B86F2A0EFCEC9EF0010E0001B86F000EFF
:1027C000FCEC9EF0010E0001B86F0001BD51FCEC65
:1027D0009EF0010E0001B86F000EFCEC9EF0010EA1
:1027E0000001B86F0001BB51FCEC9EF0000E00012F
:1027F000B86F2B0EFCEC9EF0010E0001B86F000EBE
:10280000FCEC9EF0010E0001B86F0001BA51FCEC27
:102810009EF0010E0001B86F000EFCEC9EF0010E60
:102820000001B86F0001BC51FCEC9EF0000E0001ED
:10283000B86F2C0EFCEC9EF01200080E10240D6EEA
:10284000000E11200E6E12C00FF097EC9EF0146E69
:102850003BD0010E131620EE02F01050D926115075
:10286000DA22DECF01F0DDCF02F012C003F013C098
:1028700004F043EC9CF01200010E1316010E131A23
:1028800020EE02F01050D9261150DA22DECF01F0EE
:10289000DDCF02F012C003F013C004F043EC9CF053
:1028A0001200010E131620EE04F01050D92611501C
:1028B000DA22DECF01F0DDCF02F012C003F013C048
:1028C00004F043EC9CF012001450000AD8B412003B
:1028D000010AD8B4BED7030AD8B4CED7010AD8A407
:1028E0001200DFD70001B76F38D0920E0001B56F2C
:1028F0000F0E0001B66F1200930E0001B56F0F0EA0
:102900000001B66F1200940E0001B56F0F0E0001AA
:10291000B66F1200950E0001B56F0F0E0001B66F75
:102920001200960E0001B56F0F0E0001B66F120077
:10293000970E0001B56F0F0E0001B66F1200980ED2
:102940000001B56F0F0E0001B66F1200000E0001FE
:10295000B56F000E0001B66F12000001B751000AFA
:10296000D8B4C3D7010AD8B4C7D7030AD8B4CBD7D1
:10297000010AD8B4CFD7070AD8B4D3D7010AD8B43C
:10298000D7D7030AD8B4DBD7E1D70001B76F38D067
:10299000CB0E0001B56FFF0E0001B66F1200C90E1D
:1029A0000001B56FFF0E0001B66F1200C70E0001E7
:1029B000B56FFF0E0001B66F1200C50E0001B56FB6
:1029C000FF0E0001B66F1200C30E0001B56FFF0EBF
:1029D0000001B66F1200C10E0001B56FFF0E0001BD
:1029E000B66F1200BF0E0001B56FFF0E0001B66F8B
:1029F0001200000E0001B56F000E0001B66F12004C
:102A00000001B751000AD8B4C3D7010AD8B4C7D758
:102A1000030AD8B4CBD7010AD8B4CFD7070AD8B4A1
:102A2000D3D7010AD8B4D7D7030AD8B4DBD7E1D7B4
:102A30000001B76F38D0800E0001B56F0F0E000196
:102A4000B66F1200810E0001B56F0F0E0001B66F58
:102A50001200820E0001B56F0F0E0001B66F12005A
:102A6000830E0001B56F0F0E0001B66F1200840EC9
:102A70000001B56F0F0E0001B66F1200850E000148
:102A8000B56F0F0E0001B66F1200860E0001B56F14
:102A90000F0E0001B66F1200000E0001B56F000EA0
:102AA0000001B66F12000001B751000AD8B4C3D7B5
:102AB000010AD8B4C7D7030AD8B4CBD7010AD8B40F
:102AC000CFD7070AD8B4D3D7010AD8B4D7D7030AC7
:102AD000D8B4DBD7E1D7000E0001D76F0001C95190
:102AE0000001CD250001D56F0001CB510001CF259C
:102AF0000001D66FCFC0B5F0D0C0B6F0CDC0B7F0F2
:102B0000CEC0B8F017EC9EF0B5C0D3F0B6C0D4F08C
:102B1000CBC0BAF00001D5050001BB6F0001D6059E
:102B20000001BC6F0001C951C8EC93F0000E000118
:102B3000D76F13D00001D751020DF3500001C72504
:102B4000D96EF4500001C821DA6EDECFBAF0DDCFC5
:102B5000BBF086EC9FF00001D72B0001D75100019C
:102B6000D16FD26B0001D3510001D15D0001D4516E
:102B70000001D259D8B01200DDD73ED000018C51EF
:102B8000140DAA0E0001B56F040E0001B66FF350CC
:102B90000001B527F4500001B62300018D51010D4D
:102BA000F3500001B525D96EF4500001B621DA6E5C
:102BB000DF50D8B41FD0010E0001FF6F00018C510F
:102BC000140DAA0E0001B56F040E0001B66FF3508C
:102BD0000001B527F4500001B62300018D51010D0D
:102BE000F3500001B525D96EF4500001B621DA6E1C
:102BF000800EDF6E00018D2B130E00018D65BED798
:102C0000000E00018D6F00018C2B080E4926000E6E
:102C10004A22000E486E060E476E1200B5C0F6FF3F
:102C2000B6C0F7FF000EF86E0F0EF76403D0080071
:102C3000F55005D0F6CFE9FFF7CFEAFFEF500001DE
:102C4000BD6F0001B951010DCF0EF324F66EFD0EDC
:102C5000F420F76EF86A000EF8220800F5CFBBF0FA
:102C6000000E0001BC6F06D00001B7510001B85F33
:102C70000001BC2B0001B7510001B85DD8B0F4D7FA
:102C80000001B9510001B803F350B86F0001BC5105
:102C90000001B8270001B8290001BA6F03D0000174
:102CA000D890BD330001BA2FFAD70001BB51000103
:102CB000BD170001BD5112000001BA6F000E0001E6
:102CC000BB6F000E0001B86F360EFCEC9EF00001E9
:102CD000BA51030B0001BB6F2CD0010E0001B86F7D
:102CE000C80EFCEC9EF0800E506E800E4F6E1200EF
:102CF000010E0001B86FA80EFCEC9EF0800E506E25
:102D0000800E4F6E1200010E0001B86F080EFCEC31
:102D10009EF0800E506E800E4F6E1200010E00016C
:102D2000B86F680EFCEC9EF0800E506E800E4F6EF9
:102D300012000001BB51000AD8B4CFD7010AD8B4A1
:102D4000D7D7030AD8B4DFD7010AD8A41200E6D730
:102D500034A002D0010E01D0000E0001876F34C0F4
:102D6000B5F00001D890B5330001B5A102D0010E35
:102D700001D0000E0001886F34C0B5F00001D8907A
:102D8000B5330001D890B5330001B5A102D0010ED2
:102D900001D0000E2D6E34C0B5F00001D890B533CF
:102DA0000001D890B5330001D890B5330001B5A12A
:102DB00002D0010E01D0000E0001866F34C0B5F0C4
:102DC0000001B53B0F0EB5170001B5A104D0010EEF
:102DD0000001856F1200000E0001856F1200000EC9
:102DE00000018D6F000E00018C6F000E0001B86FA6
:102DF0000E0E0001B86501D02DD0000E0001B76F96
:102E0000130E0001B76501D022D0010E0001FF6F43
:102E10000001B851140DAA0E0001B56F040E000197
:102E2000B66FF3500001B527F4500001B62300013E
:102E3000B751010DF3500001B525D96EF4500001D2
:102E4000B621DA6E800EDF6E0001B72BD9D70001F4
:102E5000B82BCED7010E00018E6F000E486E060E05
:102E6000476E000E4A6E060E496E1200000E0001FB
:102E70008D6F000E00018C6F000E0001B76F130EF6
:102E80000001B76501D01200000E0001B86F0E0EF0
:102E90000001B86501D02CD00001B851140DAA0E64
:102EA0000001B56F040E0001B66FF3500001B527A5
:102EB000F4500001B6230001B751010DF350000199
:102EC000B525D96EF4500001B621DA6E000EDF6E22
:102ED0000001B851020D000EF324D96E030EF42048
:102EE000DA6EFF0EDE6EFF0EDD6E0001B82BCFD75F
:102EF0000001B72BC4D7B50EF66EFD0EF76E000EAF
:102F0000F86E20EECAF00F0E0900F5CFDEFFE806DE
:102F1000FBE2C4C0C1F0C5C0C2F0C7C0C3F0DBEC67
:102F20009DF00001DA6F040E0001C66120D0040E8E
:102F30000001DA611CD00001C651040DCA0E000167
:102F4000C86F000E0001C96FF3500001C827F4508C
:102F50000001C9230001DA51010DF3500001C82519
:102F6000D96EF4500001C921DA6EDF501200050E4F
:102F70001200000E0001BB6F000EBA6F0001B751C6
:102F80000001B811D8B42CD0010E0001B96F06D0E1
:102F90000001D890B737B8370001B92B0001B8AF9E
:102FA000F7D70001D890BA37BB370001B7510001FD
:102FB000B55D0001B8510001B659D8A00AD0000192
:102FC000B7510001B55F0001B8510001B65B0001C7
:102FD000BA810001D890B833B7330001B92FE1D7D7
:102FE000BAC0B5F0BBC0B6F0120001C0F6FF02C017
:102FF000F7FF000EF86E0F0EF76403D00800F550CF
:1030000005D0F6CFE9FFF7CFEAFFEF50096E055084
:10301000010DCF0EF324F66EFD0EF420F76EF86A64
:10302000000EF8220800F5CF07F0000E086E03D05E
:103030000350045E082A0350045CD8B0F9D7055049
:103040000402F350046E085004260428066E02D0D1
:10305000D8900932062EFCD70750091609501200E5
:10306000000120EE06F0C451D926C551DA22DECF88
:10307000B5F0DDCFB6F0050E0001B76F000E000110
:10308000B86F83EC9AF0000120EE06F0C451D92607
:10309000C551DA22DECFC0F0DDCFC1F0000E000155
:1030A000C26F000E0001C36FEBEC9EF0000120EE3A
:1030B00006F0C451D926C551DA22DECFB5F0DDCFF6
:1030C000B6F0050E0001B76F010E0001B86F83EC7A
:1030D0009AF01200000120EE06F0C451D926C55125
:1030E000DA22DECFB5F0DDCFB6F0050E0001B76F06
:1030F000000E0001B86F83EC9AF0000120EE06F09C
:10310000C451D926C551DA22DECFC0F0DDCFC1F0DF
:10311000000E0001C26F020E0001C36FEBEC9EF0C7
:10312000000120EE06F0C451D926C551DA22DECFC7
:10313000B5F0DDCFB6F0050E0001B76F010E00014E
:10314000B86F83EC9AF01200000E0001CA6F000EF7
:103150000001CB6FC2C0BAF00001C0510001C4250C
:103160000001C86F0001C8050001BB6F0001C2511A
:103170000001C6250001C96F0001C9050001BC6F2F
:103180000001C051C8EC93F0C6C0CBF00001CB5198
:103190000001D8B41200C4C0CAF00001CA51000135
:1031A000D8B409D0BEC0BAF0BFC0BBF086EC9FF067
:1031B0000001CA07F2D70001CB07E8D7B00E000123
:1031C000DB6F030E0001DC6F070E0001DD6F030EE5
:1031D0000001DE6F31EC88F0B00E0001DB6F030EF2
:1031E0000001DC6F060E0001DD6F030E0001DE6FD3
:1031F00031EC88F01BEC9CF0C00E0001E26FC60EB3
:10320000E36F2D0EE46F000EE56F010E0001E66F17
:10321000010E0001E76F00EC80F0730E0001C46F37
:10322000030E0001C56F30EC98F0120026D0A7C045
:10323000D9FFA8C0DAFF0001DF94B7C0C9FFC7A05B
:10324000FED7C9CFB7F0A7C0D9FFA8C0DAFF0001E9
:10325000DF8412009DC0D9FF9EC0DAFF0001DF9E0F
:10326000B7C06FFF6DA0FED76FCFB7F09DC0D9FF7D
:103270009EC0DAFF0001DF8E1200000120EE02F096
:10328000B551D926B651DA22DF50000AD8B4CFD7CB
:10329000010AD8A41200DED70001C36FB50E0001E9
:1032A000C16F000E0001C26F000E0001C46F1FD07D
:1032B000C1C0D9FFC2C0DAFF0001C45135C0BFF0A0
:1032C0000001C06B0001BF27000EC023000E0001EB
:1032D000BF25E16E040E0001C021E26EDFCFE7FFE3
:1032E000020E0001C127000EC2230001C42B000101
:1032F000C3510001C45DD8A0DBD70001C3513526FE
:1033000012001FD0000E0001B76F000EB86F000E44
:10331000B96F000EBA6F0001BA510001B91111E185
:10332000B00E0001B75D040E0001B859D8B009D045
:1033300000F0010E0001B727000EB823B923BA230D
:10334000EAD70001B507D8A0B6070001B529DAE130
:103350000001B629D8A4D6D7080E0001B76F800E99
:10336000B86F000EB96F000EBA6F1200050E0001A3
:10337000E16FDBC0D9FFDCC0DAFFDECFE2F0DDCFEA
:10338000E3F00001DD51020DF3CFDFF00001DD516C
:10339000020DF3280001E06FE2C0C4F0E3C0C5F005
:1033A000DEC0C6F0DFC0C7F07BEC97F00001E16F34
:1033B0000001E151D8A40CD0E2C0C4F0E3C0C5F0D4
:1033C000DEC0C6F0E0C0C7F07BEC97F00001E16F13
:1033D0000001E15112000001B56F12D0010E120080
:1033E000010E1200010E1200010E1200010E120059
:1033F000010E1200010E1200020E1200020E120047
:103400000001B551070AD8B4E9D70F0AD8B4E8D7F4
:10341000010AD8B4E7D7030AD8B4E6D7010AD8B46A
:10342000E5D7070AD8B4E4D7010AD8B4E3D71E0A0F
:10343000D8B4E2D7070AD8A41200E0D700018D2B38
:10344000060E4726000E4822060E47240001B96FDB
:10345000000E48200001BA6F0001BABF09D0000178
:10346000BA5104E1800E0001B95DD8B0BDEC95F011
:10347000080E49240001B96F000E4A200001BA6FFE
:103480000001BABF0CD00001BA5105E1800E000165
:10349000B95DD8A004D0EFEC96F0010E1200000E3A
:1034A00012000001D26F0001CFBF0DD00001CF513B
:1034B00004E10001CE05D8A006D0000E0001CF6FB8
:1034C000010ECE6F03D00001CE69CF690001D25149
:1034D0000001D8B40CD0D0C0C5F0D1C0C6F0CEC069
:1034E000C7F0CFC0C8F0010E19EC93F01200D0C0A5
:1034F000C5F0D1C0C6F0CEC0C7F0CFC0C8F0000E36
:1035000019EC93F01200010E0001B817B7C0B9F022
:10351000010E0001BA6F0001B92B03D00001D89051
:10352000BA370001B92FFAD70001BA51FF0A0001DA
:10353000BB6FB5C0D9FFB6C0DAFF0001BB51DF16C3
:10354000B7C0B9F0B8C0BAF00001B92B03D0000180
:10355000D890BA370001B92FFAD7B5C0D9FFB6C095
:10356000DAFF0001BA51DF1212000001BE51000162
:10357000BF11D8B426D0010E0001C06F06D00001E3
:10358000D890BE37BF370001C02B0001BFAFF7D7BF
:103590000001BE510001BC5D0001BF510001BD59D9
:1035A000D8A008D00001BE510001BC5F0001BF518E
:1035B0000001BD5B0001D890BF33BE330001C02FB6
:1035C000E7D7BCC0BCF0BDC0BDF012000001E26F87
:1035D0001ED0A30E0001DB6F000E0001DC6F000E99
:1035E0000001DD6F030E0001DE6F31EC88F017D0B3
:1035F000A30E0001DB6F000E0001DC6F010E000165
:10360000DD6F030E0001DE6F31EC88F008D00001A1
:10361000E251000AD8B4DDD7010AD8B4E9D7000EC8
:103620000001C96F0001E251F3EC9BF012000001B0
:103630008D51D8B407D0FA0E4726FF0E482200015C
:103640008D0720D000018C51D8B40ED0000E486EEA
:10365000720E476EF80E4926FF0E4A22130E000125
:103660008D6F00018C070ED0000E486E060E476E5F
:10367000000E4A6E060E496E000E00018D6F000EA0
:1036800000018C6F5DEC9DF01200050E0001EA6FE9
:103690000001E651020DF3CFE8F00001E651020D02
:1036A000F3280001E96FE4C0DBF0E5C0DCF0E8C01E
:1036B000DDF0E7C0DEF0B6EC99F00001EA6F000142
:1036C000EA51D8A40CD0E4C0DBF0E5C0DCF0E9C0DE
:1036D000DDF0E7C0DEF0B6EC99F00001EA6F000122
:1036E000EA5112000001C86F0001C8510001D8B4AE
:1036F00015D0000E0001B66F8B0EB56FC5C0B7F0C8
:103700000001B86BC6C0B9F00001BA6BC7C0BBF00E
:103710000001BC6B040E4CEC99F012008B0EF1EC26
:103720009FF00001C551F1EC9FF00001C651F1EC92
:103730009FF00001C751F1EC9FF01200000E000154
:10374000C06F000E0001C16F000E0001BA6F50047F
:103750000001BB6F4F040001BC6F000EC8EC93F07A
:103760004FC0C1F00001C1510001D8B4120050C0D7
:10377000C0F00001C0510001D8B409D0BEC0BAF0F9
:10378000BFC0BBF086EC9FF00001C007F2D700017C
:10379000C107E8D71CD0000E0001B76F000EB86F4C
:1037A000000EB96F000EBA6F0001B7510001B811D9
:1037B0000001B9110001BA11D8A409D000F0010E1E
:1037C0000001B727000EB823B923BA23EDD70001B3
:1037D000B507D8A0B6070001B529DDE10001B6297B
:1037E000D8B41200D8D70001CA6F1CD0A30E0001B4
:1037F000C46F000E0001C56F000E0001C66FC9C086
:10380000C7F03EEC91F01200A30E0001C46F000E51
:103810000001C56F010E0001C66FC9C0C7F03EECC4
:1038200091F012000001CA51000AD8B4DFD7010A92
:10383000D8A41200E9D74AEC9FF0010E8DEC9CF061
:10384000000E0001B66F800EB56F81EC99F0010E8D
:103850008DEC9CF03BEC9FF0000E0001B66F800EEB
:10386000B56F81EC99F0010E8DEC9CF04AEC9FF065
:10387000000E0001B66F800EB56F81EC99F0010E5D
:103880008DEC9CF01200010E041603C005F0010E31
:10389000066E052A02D0D8900636052EFCD70650B3
:1038A000FF0A076E01C0D9FF02C0DAFF0750DF161A
:1038B00003C005F004C006F0052A02D0D8900636F1
:1038C000052EFCD701C0D9FF02C0DAFF0650DF1277
:1038D0001200050E0001EE6FEBC0E4F0ECC0E5F065
:1038E000000E0001E66FEDC0E7F045EC9BF0000133
:1038F000EE6F0001EE51D8A40DD0EBC0E4F0ECC0A7
:10390000E5F0010E0001E66FEDC0E7F045EC9BF03D
:103910000001EE6F0001EE5112000001CD6F18D0D2
:10392000A30E0001C96F000E0001CA6F000E000156
:10393000CB6F67EC9EF01200A30E0001C96F000E62
:103940000001CA6F010E0001CB6F67EC9EF0120000
:103950000001CD51000AD8B4E3D7010AD8A412005F
:10396000EBD70001CE6F0001CE510001D8B40ED0CC
:10397000000E0001C66F000EC56F000E0001C86F7B
:10398000000EC76F010E19EC93F01200000E00013B
:10399000C66F000EC56F000E0001C86F000EC76F26
:1039A000000E19EC93F01200000120EE06F0B55164
:1039B000D926B651DA22DECFB8F0DDCFB9F0B8C0E3
:1039C000D9FFB9C0DAFFDF500001BA6F0001B72993
:1039D0000001B86F03D00001D890BA330001B82FAE
:1039E000FAD7010E0001BA170001BA511200030EF6
:1039F0000001C66514D0010E0001C4250001C06F8E
:103A0000000E0001C5210001C16F0001C651FC0F6D
:103A10000001C26FC7C0C3F0DAEC9EF01200C4C050
:103A2000C0F0C5C0C1F0C6C0C2F0C7C0C3F0DAEC78
:103A30009EF012000001B6AF1AD00001B6BF07D049
:103A40000001B6510AE10001B505D8B006D0000169
:103A5000B56DB61FD8B0B62B04D0B5C0B5F0B6C0A2
:103A6000B6F00001B51FB61F0001B54BB62BB5C0AF
:103A7000B5F0B6C0B6F012000001BC6F86500F0B57
:103A80000001BB6F4B50D8A402D0000E1200000EF4
:103A90004B6E0001BC510001BB19D8B40CD0F00E24
:103AA00086160001BC518612000E0001B66F0A0E88
:103AB000B56FCAEC9BF0010E1200010E0001FF6F02
:103AC00000018C51140DAA0E0001B56F040E000107
:103AD000B66FF3500001B527F4500001B623000182
:103AE0008D51010DF3500001B525D96EF450000140
:103AF000B621DA6E800EDF6E120016D0000E036E55
:103B0000000E046E000E056E000E066E03500410CB
:103B100005100610D8A408D000F0010E0326000EF0
:103B2000042205220622F2D70106D8A002060128A7
:103B3000E5E10228D8B41200E1D700016F5100017D
:103B4000701100017111D8B40DD001D80BD005004F
:103B5000FA6E00016F51FD6E7051FE6E7151FF6E75
:103B6000FA501200000E00016F6F000E0001706F1E
:103B7000000E0001716F12000001BC6F86500F0B28
:103B80000001BB6F4B50D8B4FDD7000E4B6E000147
:103B9000BC510001BB19D8B40CD0F00E8616000140
:103BA000BC518612000E0001B66F0A0EB56FCAEC4A
:103BB0009BF0010E1200030E0001C36512D0010E2E
:103BC0000001C1250001BE6F000E0001C2210001ED
:103BD000BF6F0001C351FC0F0001C06F77EC9FF075
:103BE0001200C1C0BEF0C2C0BFF0C3C0C0F077ECCD
:103BF0009FF01200000E0001BC6F070EBB6F000E9D
:103C00000001BE6F090EBD6F000E0001C06F0A0EED
:103C1000BF6F000E0001C26F0B0EC16F000E0001DE
:103C2000C46F0C0EC36F050EA9EC8AF012000001E0
:103C3000B5510001B703F3CFB9F0F4CFBAF00001EA
:103C4000B5510001B803F3500001BA270001B65185
:103C50000001B703F3500001BA27B9C0B5F0BAC0EC
:103C6000B6F01200086E86500F0B076E4B50D8A4AA
:103C700002D0000E1200000E4B6E08500718D8B488
:103C80000AD0F00E861608508612000E026E0A0E3A
:103C9000016E7DEC9DF0010E1200B5C0F6FFB6C0BE
:103CA000F7FF000EF86E0800F5CFB9F00001B72954
:103CB0000001B86F03D00001D890B9330001B82FCC
:103CC000FAD7010E0001B9170001B9511200C9C09D
:103CD000B5F0CAC0B6F0CBC0B7F0D4EC9CF0000190
:103CE000CC6F010E0001CC1BC9C0C4F0CAC0C5F026
:103CF000CBC0C6F0CCC0C7F03EEC91F01200000182
:103D000020EE02F0B551D926B651DA22DF50D8A400
:103D100007D0A7C0D9FFA8C0DAFF0001DF841200D6
:103D20009DC0D9FF9EC0DAFF0001DF8E1200030E96
:103D30000F640CD0010E0D240A6E000E0E200B6EC7
:103D40000F50FC0F0C6EB1EC9FF012000DC00AF08A
:103D50000EC00BF00FC00CF0B1EC9FF0120034EC71
:103D6000A0F000016C5100016D1100016E11D8B47A
:103D7000120001D812000500FA6E00016C51FD6EB0
:103D80006D51FE6E6E51FF6EFA50120004D09D967A
:103D90001200A39E1200000120EE02F0B551D926B8
:103DA000B651DA22DF50000AD8B4F1D7010AD8A4FC
:103DB0001200EFD7C0C0B5F0C1C0B6F0040E0001CC
:103DC000B76FC2C0B8F0020E0001B96FC3C0BAF03D
:103DD000BEEC92F01200C0C0B5F0C1C0B6F0020E49
:103DE0000001B76FC2C0B8F0040E0001B96FC3C0C4
:103DF000BAF0BEEC92F012000001B96F0001B851A8
:103E0000DAEC9FF0730E0001B56F030E0001B66F80
:103E1000B9C0B7F016EC99F012008C0EF1EC9FF0DF
:103E2000000EF1EC9FF0010EF1EC9FF03C0EF1EC76
:103E30009FF0040EF1EC9FF01200000E486E060E8B
:103E4000476E000E4A6E060E496E000E00018D6F21
:103E5000000E00018C6F1200949C948E240EAD6EA7
:103E6000980EAC6E7E9A7E987E927E90AD847E9601
:103E7000330EB06E1200B00E0001C46F030E0001CD
:103E8000C56F060E0001C66F010E0001C76F3EEC44
:103E900091F01200B00E0001C46F030E0001C56F57
:103EA000060E0001C66F000E0001C76F3EEC91F0D8
:103EB0001200990E0001EB6F000E0001EC6F000E76
:103EC0000001ED6F000E0001EE6FECEC83F01200CC
:103ED0009C0E0001DB6F030E0001DC6F040E00017D
:103EE000DD6F000E0001DE6F31EC88F01200BEC005
:103EF000B5F0BFC0B6F0040E0001B76FC0C0B8F097
:103F0000020E0001B96F0EEC96F01200010E0001D6
:103F1000B86F0001BB51FCEC9EF0010E0001B86FC0
:103F20000001BA51FCEC9EF012000001C96F000EB6
:103F30000001C56FC9C0C6F0FF0E0001C76F000EBB
:103F400072EC9BF01200010E4B6E00016F510001EC
:103F5000701100017111D8B402D0010E1200000ED0
:103F600012000AC001F00BC002F0040E036E0CC078
:103F700004F0020E056EF5EC97F012000001B66F2A
:103F80008D0EF1EC9FF00001B651F1EC9FF01200A4
:103F9000000E0001BC6F130EBB6F010EA9EC8AF07E
:103FA0001200000E0001BC6F140EBB6F010EA9ECD5
:103FB0008AF012000001B56F0001B5B102D0859EF4
:103FC00001D0858E12000001C96F0001C95111ECAA
:103FD00089F01200800EF1EC9FF0840EF1EC9FF05E
:103FE00012000001B56FADA2FED7B5C0AEFF120042
:103FF000B5C0D9FFB6C0DAFFB7C0DFFF1200B5C049
:104000006FF0B6C070F0B7C071F0120001C06FF071
:1040100002C070F003C071F0120029C0D6FF2AC0A0
:10402000D7FFF28A120029C0D6FF2AC0D7FFF28A32
:104030001200060006000141613080800600060083
:10404000800007009EAAFED7AF5012009E929D925C
:0B4050009F92120005000700FFFF0117
:10405C00F29AF2941200FC0E966E1200F29AF294FE
:08406C001200010E4B6E120060
:06FFF800AAF705FFF8F175
:00000001FF
