:100000000DEF04F026EF00F004EF0AF0D1EC04F05D
:10001000FF0000F000F012000CEF0AF018EF00F003
:10003000F26AFC6A9BEC04F004009EEC09F0D8EC38
:1000400003F0F3EC03F05EEC08F0F6D701501F0B61
:10005000E80601E01200055001E01200060E021849
:1000600014E01AD0020E3D6E4A0E3FD8306A090ED7
:100070000AD0020E3D6E450402E1870E36D84504D3
:100080000AE1306A1D0E2F6E06D00450210AEAE004
:10009000030AEFE0010A42820138E832030BE80666
:1000A00014E01200020E3D6E440E206E24D0020EAB
:1000B0003D6E04C044F0020C020E3D6E430EF5D7B7
:1000C000020E3D6E03C043F0020C0250010AD8B488
:1000D0001200030AE7E0010AEFE00A0AD8B41200AE
:1000E000030AE5E0010AECE01200206E2050D8A4DB
:1000F000100E216E1200216A4292010E2F6E010C29
:100100004F6A140E506E516A296A2A6A4FC0F6FF70
:1001100050C0F7FF51C0F8FF42D80800F5CFDFFF0D
:100120004F2A000E50225122294A2A2A040E2A5C04
:10013000EDE30D0EE8CFB2F4600EE8CFB3F4000E9D
:10014000496E050E486E0AEC03F04F68170E506EAC
:10015000516A030E2A6E296851C0F8FF50C0F7FF9C
:100160004FC0F6FF1CD8DF50F56E0C0029C04EF0D2
:100170003F0E4E1607E1FEEC09F0040EA66EB50E1A
:1001800067EC04F04F06000E505A515A0A002950ED
:100190002A1001E112002906D8A02A06DDD7AC0EEC
:1001A0002924D96E040E2A20DA6E120003040BE112
:1001B00001501F0B08E1010E3D6E030E021802E113
:1001C000428001D042900350D8A4120001501F0B6E
:1001D000020AD8A4120005500F0BD8B4120028D878
:1001E000476A040E486E4726000E4822F350472601
:1001F000F450482223D847241D6EF45048201E6E28
:10020000030E021805E10FD8040EDF6E0CD81CD0C7
:1002100005AE04D008D8400EDF6E400C04D8080E9E
:10022000DF6E01D811D01DC0D9FF1EC0DAFF120049
:10023000010E3D6E05500F0B080D1200010E05AEAC
:10024000000E040DF3501200000EDB8E000C3D502A
:1002500010E193EC03F0196E3A0405E1010E32EC63
:1002600003F03A6A1200000E32EC03F0010E3A6E0F
:10027000010C01AE1BD0010E3E6E2F50075C3050BA
:10028000085804E207C02FF008C030F076EC01F007
:10029000480E196E010E32EC03F0000E32EC03F042
:1002A000240E04010A6F040E0B6F1CD0020E3E6E6A
:1002B000040E196E0750081002E1480E196E3A0438
:1002C00005E1010E32EC03F03A6A05D0000E32EC83
:1002D00003F0010E3A6E07500810D8A41200040172
:1002E000096B00D0480E086F088F480C080E326E5C
:1002F00030500DE1080E2F5C0AE22FC032F0405062
:1003000002E1010E03D0400402E1020E406E32C051
:1003100009F432502F5E000E305A240E1D6E040E6A
:100320001E6E42A21AD00BD01BD813EC01F00F0E98
:10033000F76403D00800F55001D019D81ED8325008
:10034000F3E112000DD813EC01F00F0EF76403D0A7
:100350000800F55001D00BD810D83250F3E112004C
:1003600020C0F6FF21C0F7FF000EF86E1200F6CF96
:10037000E1FFF7CFE2FFE7501200DF6E1D4A1E2AB1
:10038000204A212A320612000138E832030B18E015
:100390001200010E3D6E040E416E040C010E3D6E06
:1003A000450E206E7BEF00F02CD8496E49C020F03E
:1003B0007BEF00F026D8D96EDA6A03C0DFFF1200A7
:1003C000025002E179EF02F0010A02E1D6EF00F0FB
:1003D000020A02E1D6EF00F0060ADBE0030A02E1BE
:1003E00006EF02F0010AD8B412000F0AD7E0010AA2
:1003F00002E155EF03F0030AD7E0010ADBE0070A48
:100400001200010E3D6E0550460F1200800E0118BD
:1004100030E01200010E3D6EA40E75EC00F0120EDD
:1004200009D003502DE1010E3D6E380E75EC00F041
:10043000306A290E2F6E24D0010E3D6E0350010F3D
:10044000476E47C0F6FF100EF76E000EF86E0900FB
:10045000F5CF20F0100E216EB0EC01F00F0EF76416
:1004600003D00800F55002D0B7EC01F02F6E306ACF
:1004700007D00450010ACEE0030AD3E0010ADCE011
:1004800042821200366A27D03850486E000E48BEAD
:10049000FF0E496E4A6E4B6E4850155C0D6E49500A
:1004A00016580E6E4A5017580F6E4B501858106E53
:1004B0000FC0F8FF0EC0F7FF0DC0F6FF11D80D00FA
:1004C000362A0ED80C00362A240EA66EB50E67EC1E
:1004D00004F0FE0E38263850800A7F0FD5E2120055
:1004E000AC0E3624D96EDA6A040EDA22DF50F56ECD
:1004F0001200246B256B22D0010E3D6E42B0248386
:1005000024D0010E3D6E21D018EC01F0476A040E94
:10051000486E4726000E4822F3504726F4504822E2
:100520001EEC01F047241D6EF45048201E6E13ECA3
:1005300001F0DFA40AD0010E246F07D001501F0B79
:10054000DBE0010ADEE0030ADFE03D04D8A412008C
:10055000240E206E040E216E4292020E2F6E020CAB
:10056000400E486401D0486E4A6A0DD047504A2474
:10057000D96EDA6A6C0E4A24E16EE26A040EE22257
:10058000DFCFE7FF4A2A48504A5CF0E348C011F445
:10059000400E0401101710BD03D0496A492A01D04A
:1005A000496A493A49464946040110514918BF0B66
:1005B0004918106F1087108F12003F6A0CBF12008D
:1005C00048500D5D02E20DC448F03F6A0BD02C0E7E
:1005D0003F24D96EDA6A040EDA2247503F24F9EC40
:1005E00009F03F2A48503F5CF2E3400E0D6F0C17B4
:1005F0000CBD03D0496A492A01D0496A493A4946A3
:10060000494604010C514918BF0B49180C6F0C875F
:100610000C8F1200495006E1050E485C03E2496A5E
:10062000050E486E48504A6E49504B6E4C6A4D6AF2
:100630000A0ED8904A364B364C364D36E82EF9D74E
:100640004AC009F04BC00AF04CC00BF04DC00CF092
:100650000BC0F8FF0AC0F7FFF66A140EA66EB50EBF
:1006600067EF04F0476E080E1A6E1C0E1B6E040E28
:100670001C6E475006E1140E1B6E040E1C6E256A9C
:1006800002D0040E256E266E0BD819C0DEFF1AC0EC
:10069000DEFF1BC0DEFF1CC0DEFF02D8DF8E1200B3
:1006A00025C0D9FF26C0DAFF1200010E3D6E0F01F2
:1006B00016D8346A3450460FD96EDA6ADF6A342AA3
:1006C0003450F8E003C045F04550C9EC04F0035045
:1006D00003E1050E416E050C060E416E060C4D6BD6
:1006E0004E6B4F6B506B516B526B536B1200040E81
:1006F000411808E103C05EFF0F015E51050ED8B43A
:10070000030E416E3E04D8A4120076EC01F0020EF6
:10071000401802E108D8040C0401480E08BD080E78
:10072000086F088F1200040E0401086F088F040C74
:10073000030E416E0F015D6B626A7B0E5C6F5E6B38
:100740006FEC03F0160E4C6F658C03D06296FEECD6
:1007500009F062B6FBD7659C6598040E196E000E11
:1007600032EC03F0010E3A6E426A456A000EC9EFA0
:1007700004F081B818EC00F0060EF66E14D80D0ED9
:10078000F5180DE10900600EF51809E1F66A0BD8BD
:10079000F52803E10900F52802E000EF0AF018EC63
:1007A00000F000EF00F0140EF76EF86A0900140C68
:1007B0002306D8A0240623502410D8A412004E0EDD
:1007C000246E236A060E416002D08B80060C8BB02B
:1007D00003D0476A472A01D0476A8B504718FE0B5F
:1007E00047188B6E1200C0BC1200030ED36E6592C8
:1007F0006596F26A0ED808D0C0AC04D02D06D8A0F9
:100800002E0601D006D804002D502E10F5E1FF0071
:100810001200040E2E6E2D6A040C04EEACF014EEE1
:1008200000F0EE6AE550E150FCE1E250FAE100EE42
:1008300060F0820EEE6AE806FDE100EE01F0460E81
:10084000EE6AE806FDE10001B9EF03F00401086B70
:10085000406A00AF02D0006B3A6A04AF03D0046B69
:10086000010E3A6E3E6A3D6A2F6A306A6598C4ECA2
:1008700001F002EC00F027EF01F005D80AD8376A42
:100880000CD8386A12007E0E3B6E116AFC0E126E96
:10089000FC0C010E136E146A000C156816681768BC
:1008A000186812003F6A1E0E0F014D6F400E0401C2
:1008B0000D6F2C0E0E6F040E0F6F080E0C6F0C8F49
:1008C0006C0E126F040E136F400E106F400C476ECB
:1008D000F29EF3EC03F0B50E471804E0030ED36E5E
:1008E0000300FED7550EA76EAA0EA76EA682A6B26B
:1008F000FED7A69412005CCF35F0040E0F015C6F9A
:1009000062986582A198A088AAEC04F0A09835505E
:100910000F015C131200390402E1D1EC04F0656AA6
:10092000150E0F015F6F5C6B658698EC03F0010E8E
:10093000416E396A1200600ED36E9B8CDCEC04F0C1
:10094000BFEC04F0C16AC26A3DEC04F08B90949055
:10095000E7EF04F08B90D3CF31F00300A1B802D0C1
:10096000D0A6FBD731C0D3FF1200D9EC04F06592BA
:100970000F015C9501D0629462A41200FCD705D0EF
:10098000FEEC09F04706D8A0480647504810F8E1A9
:100990001200476E4704D8A4120052EC04F03DEF59
:1009A00004F06592656A48684768BFEC04F0416AE4
:1009B000120002D8BFEF04F0030E486E476A030C22
:1009C000390401E1120065A68BEC04F0120065B653
:0E09D000D1EC04F0396AE0EF04F012001200DE
:1010000000B6046134034D006900630072006F0094
:1010100063006800690070002000540065006300F0
:1010200068006E006F006C006F00670079002000A0
:1010300049006E0063002E000902290001010080B2
:10104000320904000002030000000921110100011F
:10105000221D000705810340000107050103400030
:101060000126034800490044002000550053004277
:1010700000200042006F006F0074006C006F006180
:10108000006400650072000600FF0901A10119015A
:101090002940150026FF0075089540810019012997
:1010A000409100C01201000200000008D8043C007A
:0B10B00001010102000104030904001B
:1010BC00060E4118D8B465B21200375001E017D1B2
:1010CC0004010CBF1200600E476E400E486EDDEC42
:1010DC0002F0010E376E276A286A2750A10FD96ECD
:1010EC00DA6A000EDF6E274A282A285005E1400EE6
:1010FC00275CD8B01200F1D71200020EA16F3A0E85
:10110C00A26F010EA36FA46FA56B140EA66FA76B35
:10111C00A86B000E1124A96FEC0E1220AA6FFF0E03
:10112C001320AB6FFF0E1420AC6F030EAD6FF80ED7
:10113C00AE6FAF69010EB06FB16B080EB26FB36BCF
:10114C00B46BB56BB669A50EDA6F040110BFA50CB4
:10115C00A10E476E400E486EB0EC02F0376A1200DA
:10116C00615106E17F0E3B6EF80E116E126802D0D3
:10117C0043EC04F049EC04F0F1D7286A050E276E15
:10118C000CD0FEEC09F027C048F028C049F00AEC5E
:10119C0003F09EEC09F0274A282A3B50526E536A02
:1011AC00522A000E53225250275C53502858D6E234
:1011BC00E8D715280EE116280CE117280AE11828A3
:1011CC0008E161C015F062C016F063C017F064C08E
:1011DC0018F015506119C2E116506219BFE1175091
:1011EC006319BCE118506419B9E1276A286A1AD04E
:1011FC006551A0082724D96EDA6AAC0E3824E16E4A
:10120C00E26A040EE222DFCFE7FF382A152A000E2D
:10121C001622172218223A0E381802E142EC02F07C
:10122C00274A282A00017CD899E2E2D742EC02F046
:10123C004DEC04F093D7070EA16F61C0A2F062C011
:10124C00A3F063C0A4F064C0A5F065C0A6F063C0B1
:10125C00F8FF62C0F7FF61C0F6FF276A286A0BD05F
:10126C00090000016551E1082724D96EDA6AF5CF2F
:10127C00DFFF274A282A54D8F3E3040110BF1200D9
:10128C0067D780EC00F06AD70C0EA16F010EA36F2C
:10129C00020EA26F160EF66ED3EC03F0F5CFA4F08F
:1012AC000A00F5CFA5F0060EA66F140EA76FA86B5B
:1012BC00A96B600EAB6F0D0EAA6FAC6B040EAD6F0D
:1012CC00000EAE6BAF6BB069B169B269B369B4694A
:1012DC00B569B669B769B86BB96BBA6BBB6BBC6BEC
:1012EC00BD6BBE6BBF6BC9D706EC00F037D70001E6
:1012FC006051020A01E101D7010A01E131D7070A65
:10130C0001E13BD7010A01E154D7030A8FE0010A3E
:10131C0092E00F0AE9E0010AB4E0050AB5E01ED735
:10132C006551526E536A5250275C53502858120024
:10133C00E0EC04F0415001E1120062B4B5EC04F0B1
:10134C0065B2120062B098EC03F062B87BEC04F06A
:10135C00030E416001D0030C3C6A62A6120064507B
:10136C0064CF4AF07C0E4A162AE164B203D02B6A91
:10137C00040E02D0040E2B6E2C6E62962BC0D9FF7D
:10138C002CC0DAFFDF30E8320F0B0D0A20E1336A94
:10139C0023D8DECF4AF0DDCF4BF04AC0D9FF4BC08B
:1013AC00DAFF3350010F1FD817D8DE2A000EDD22CA
:1013BC00332A070E3364ECD726EC04F008D0040E65
:1013CC00641804E1629677EC03F001D062963C2A33
:1013DC00030E3C64C2D7030C20EE02F02B50D9262E
:1013EC002C50DA221200E16EE26ADFCFE7FF120026
:0413FC0004001200D7
:1014000055EF0AF012000D605182FACF17F0FBCFB2
:1014100018F0E9CF19F0EACF1AF0E1CF1BF0E2CFD4
:101420001CF0D9CF1DF0DACF1EF0F3CF1FF0F4CFB0
:1014300020F0F6CF21F0F7CF22F0F8CF23F0F5CF50
:1014400024F051C025F052C026F053C027F054C0FC
:1014500028F0F292F2B4F2AA02D028ECB1F028C03F
:1014600054F027C053F026C052F025C051F024C0DC
:10147000F5FF23C0F8FF22C0F7FF21C0F6FF20C010
:10148000F4FF1FC0F3FF1EC0DAFF1DC0D9FF1CC050
:10149000E2FF1BC0E1FF1AC0EAFF19C0E9FF18C054
:0E14A000FBFF17C0FAFF519211007FEFA2F080
:10FC320000001180002C0100B102003500360000E6
:10FC4200B202003500360000B30200350036000271
:10FC5200003500360000B4000000C0A2000200849B
:10FC62000000C1C50000C20D00000000C38D002AC3
:10FC72000000C48D00EE0000C50A000036C8000076
:10FC8200E012001C001000180033002C0025002890
:10FC920000280027002F003C000000030003001092
:10FCA200008000780000E112001C00100018002DF6
:10FCB20000280023002800280026002F003B000017
:10FCC20000030003001000003A0500002A000002B1
:10FCD2000000008100002B000003000000A20000D1
:10FCE20029002C02000400080010002000400080BF
:10FCF20000000100010200010001000202000003F5
:10FD020003030001000A006400E803102700010356
:10FD1200070F1F3F7FFF00020103010410000000D4
:10FD2200000000005F00000007000700147F147F3E
:10FD320014242A7F2A12231308646236495522505A
:10FD42000005030000001C2241000041221C0008A3
:10FD52002A1C2A0808083E0808005030000008083B
:10FD6200080808006060000020100804023E5149A3
:10FD7200453E00427F400042615149462141454B88
:10FD8200311814127F1027454545393C4A494930FC
:10FD920001710905033649494936064949291E00B8
:10FDA20036360000005636000000081422411414B2
:10FDB200141414412214080002015109063249792F
:10FDC200413E7E1111117E7F494949363E414141F2
:10FDD200227F4141221C7F494949417F0909010192
:10FDE2003E414151327F0808087F00417F41002097
:10FDF20040413F017F081422417F404040407F0242
:10FE020004027F7F0408107F3E4141413E7F090981
:10FE120009063E4151215E7F091929464649494951
:10FE22003101017F01013F4040403F1F2040201F20
:10FE32007F2018207F63140814630304780403618D
:10FE42005149454300007F414102040810204141CD
:10FE52007F000004020102044040404040000102D1
:10FE6200040020545454787F48444438384444446D
:10FE720020384444487F3854545418087E090102FB
:10FE8200081454543C7F0804047800447D40002048
:10FE920040443D00007F10284400417F40007C0424
:10FEA2001804787C0804047838444444387C1414D8
:10FEB2001408081414187C7C080404084854545488
:10FEC20020043F4440203C4040207C1C2040201C19
:10FED2003C4030403C44281028440C5050503C4494
:10FEE20064544C44000836410000007F0000004189
:10FEF20036080008082A1C08081C2A080800FCFF0B
:10FF02000F0000FFFFF0FF00FFFF00436C6F7365FF
:10FF120073742057616C6C3A25750A436C6F736574
:10FF2200737420416E676C653A25640A4C65667489
:10FF32002042756D703A25750A5269676874427578
:10FF42006D703A25750A416E676C65546F5475720F
:10FF52006E3A2025640A00436C6F736573742057F0
:10FF6200616C6C3A25750A436C6F7365737420413A
:10FF72006E676C653A25640A4C6566742042756D3D
:10FF8200703A25750A526967687442756D703A2530
:10FF9200750A00546F74616C2044697374616E63F6
:10FFA200653A25750A4C6566742042756D703A256E
:10FFB200750A52696768742042756D703A25750A30
:10FFC200002020202020202020202020202020204F
:10FFD200202020200A00506C656173652073656CD7
:10FFE200656374206D6F64652E0A004469737461E1
:0DFFF2006E63653A2025640A002563000057
:020000040001F9
:100000000001CB51800B0001D46F0001CB51CB25F7
:100010000001DA6F0001CAAF02D00001DA810001ED
:10002000DA510001D8B410D00001DA29D8A409D0DF
:10003000000E0001C86F000EC96F000ECA6F000EDF
:10004000CB6F0001CA8F09D0000E0001C86F000EEF
:10005000C96F000ECA6F000ECB6F0001CF51800B2D
:100060000001D41B0001CF51CF250001D56F000145
:10007000CEAF02D00001D5810001D5510001D8B426
:1000800010D00001D529D8A409D0000E0001CC6FF2
:10009000000ECD6F000ECE6F000ECF6F0001CE8F21
:1000A00009D0000E0001CC6F000ECD6F000ECE6F98
:1000B000000ECF6F0001D5510001D8B405D000016A
:1000C000DA510001D8A40AD0000E0001C86F000E5A
:1000D000C96F000ECA6F000ECB6F12000001CE5127
:1000E0000001C803F3CFDFF0F4CFE0F00001DF51EF
:1000F0000001D66FD76BD86BD96B0001E0510001BE
:10010000DB6FDC6BDD6BDE6B0001CD510001C903E1
:10011000F3CFDFF0F4CFE0F00001DF510001D6278C
:10012000000ED723D823D9230001E0510001DB279B
:10013000000EDC23DD23DE230001CC510001CA03C5
:10014000F3CFDFF0F4CFE0F00001DF510001D6275C
:10015000000ED723D823D9230001E0510001DB276B
:10016000000EDC23DD23DE23D8C0D9F0D7C0D8F0C1
:10017000D6C0D7F00001D66B0001CC510001C903F5
:10018000F3CFDFF0F4CFE0F00001DF510001D6271C
:100190000001E0510001D723000E0001D823000E1A
:1001A0000001D9230001CD510001C803F3CFDFF0D6
:1001B000F4CFE0F00001DF510001D6270001E0514B
:1001C0000001D723000E0001D823000E0001D9231F
:1001D000D8C0D9F0D7C0D8F0D6C0D7F00001D66BC0
:1001E0000001CC510001C803F3CFDFF0F4CFE0F001
:1001F0000001DF510001D6270001E0510001D723A3
:10020000000E0001D823000E0001D9230001CE51B9
:100210000001C903F3CFDFF0F4CFE0F00001DF51BC
:100220000001DB270001E0510001DC23000E00018A
:10023000DD23000E0001DE230001CD510001CA03C1
:10024000F3CFDFF0F4CFE0F00001DF510001DB2756
:100250000001E0510001DC23000E0001DD23000E4F
:100260000001DE230001CE510001CA03F3CFDFF00D
:10027000F4CFE0F00001DF510001D06F0001E05148
:100280000001D16F0001D26B0001D36BD2C0D3F05B
:10029000D1C0D2F0D0C0D1F00001D06B0001D0515C
:1002A0000001DB270001D1510001DC230001D25104
:1002B0000001DD230001D3510001DE23D6C0D0F0C0
:1002C000D7C0D1F0D8C0D2F0D9C0D3F0190E06D023
:1002D0000001D890D333D233D133D033E82EF8D7BE
:1002E0000001D0510001DB270001D1510001DC23C6
:1002F0000001D2510001DD230001D3510001DE23B2
:10030000D8C0D9F0D7C0D8F0D6C0D7F00001D66B8E
:100310000001D551DAC0D0F00001D16B0001D02727
:10032000000ED123820E0001D0250001DF6FFF0EE9
:100330000001D1210001E06F15D00001D890DB371A
:10034000DC37DD37DE370001D9AF02D00001DB81B9
:100350000001D890D637D737D837D9370001DF0713
:10036000D8A0E0070001DDAFE8D7000E0001D56F8F
:100370000001D9AF24D0FF0E0001D6150001D06FC7
:10038000FF0E0001D7150001D16FFF0E0001D81537
:100390000001D26F7F0E0001D9150001D36F00015B
:1003A000D0510001D1110001D2110001D311D8A404
:1003B00003D00001DBA103D0010E0001D56F0001C5
:1003C000D5510001D8B423D0010E0001DB27000E67
:1003D000DC23DD23DE230001DEA119D0DBC0D0F059
:1003E000DCC0D1F0DDC0D2F0DEC0D3F00001D335E7
:1003F000D333D233D133D033D0C0DBF0D1C0DCF033
:10040000D2C0DDF0D3C0DEF00001DF4BE02B0001F5
:10041000E0BF10D00001E05104E10001DF29D8A0C5
:1004200009D0000E0001DB6F000EDC6F800EDD6F67
:100430007F0E2BD00001E0BF07D00001E05111E199
:100440000001DF05D8B00DD0000E0001DB6F000EFB
:10045000DC6F000EDD6F000EDE6F000E0001D46F4A
:1004600015D0DFC0DAF0FF0E0001DB17FF0EDC173E
:100470007F0EDD17000EDE170001DAA102D00001A9
:10048000DD8F0001D890DA310001DE6F0001D45118
:100490000001DE13DBC0C8F0DCC0C9F0DDC0CAF06B
:1004A000DEC0CBF012000CD07A0E0001ED6F030E0F
:1004B00004D0850E0001ED6F030E0001EE6F08D031
:1004C0000001EB51000AD8B4EFD7010AD8B4F1D734
:1004D000000120EE02F0ED51D926EE51DA22EBC0F8
:1004E000DFFFB1D0A50E0001E06F000E0001E16F4B
:1004F000020E0001E26F030E0001E36F39EC93F08E
:10050000A50E0001E06F000E0001E16F030E000177
:10051000E26F030E0001E36F39EC93F0A50E0001CA
:10052000E06F000E0001E16F050E0001E26F030EA7
:100530000001E36F39EC93F0A50E0001E06F000EAF
:100540000001E16F040E0001E26F000E0001E36F95
:1005500039EC93F0000120EE03F0ED51D926EE5175
:10056000DA22C70EDE6E0F0EDD6E000120EE06F001
:10057000ED51D926EE51DA22C60EDE6E0F0EDD6E7B
:10058000000120EE09F0ED51D926EE51DA22C90E14
:1005900056D09B0E0001E06F000E0001E16F070EC8
:1005A0000001E26F030E0001E36F39EC93F09B0E44
:1005B0000001E06F000E0001E16F060E0001E26F26
:1005C000030E0001E36F39EC93F09B0E0001E06F26
:1005D000000E0001E16F040E0001E26F030E000146
:1005E000E36F39EC93F09B0E0001E06F000E000109
:1005F000E16F050E0001E26F000E0001E36F39ECC0
:1006000093F0000120EE03F0ED51D926EE51DA22ED
:100610006D0EDE6E0F0EDD6E000120EE06F0ED5168
:10062000D926EE51DA226C0EDE6E0F0EDD6E000161
:1006300020EE09F0ED51D926EE51DA226F0EDE6E72
:100640000F0EDD6E09D00001EB51000AD8B44AD775
:10065000010AD8A412009DD7000120EE06F0ED514A
:10066000D926EE51DA22DECFBAF0DDCFBBF0050E8F
:100670000001BC6F000E0001BD6F04ECACF09CD01B
:10068000000120EE06F0ED51D926EE51DA22DECF40
:10069000BAF0DDCFBBF0040E0001BC6F000E00010C
:1006A000BD6F04ECACF0000120EE03F0ED51D92653
:1006B000EE51DA22DECFBAF0DDCFBBF0060E00013C
:1006C000BC6F000E0001BD6F04ECACF084D00001E3
:1006D00020EE06F0ED51D926EE51DA22DECFBAF047
:1006E000DDCFBBF0040E0001BC6F000E0001BD6F3A
:1006F00004ECACF0000120EE03F0ED51D926EE51F0
:10070000DA22DECFBAF0DDCFBBF0060E0001BC6FFF
:10071000010E0001BD6F04ECACF05DD0000120EED5
:1007200006F0ED51D926EE51DA22DECFBAF0DDCF58
:10073000BBF0040E0001BC6F010E0001BD6F04ECA4
:10074000ACF0000120EE03F0ED51D926EE51DA2293
:10075000DECFBAF0DDCFBBF0060E0001BC6F000E9D
:100760000001BD6F04ECACF036D0000120EE06F0C5
:10077000ED51D926EE51DA22DECFBAF0DDCFBBF053
:10078000040E0001BC6F010E0001BD6F04ECACF063
:10079000000120EE03F0ED51D926EE51DA22DECF32
:1007A000BAF0DDCFBBF0060E0001BC6F010E0001F8
:1007B000BD6F04ECACF00FD00001EC51000AD8B4CE
:1007C0005FD7010AD8B483D7030AD8B4A7D7010AE0
:1007D000D8A41200CAD7000120EE06F0ED51D926A8
:1007E000EE51DA22DECFBAF0DDCFBBF0070E00010A
:1007F000BC6F000E0001BD6F04ECACF0000120EEF8
:1008000006F0ED51D926EE51DA22DECFBAF0DDCF77
:10081000BBF0060E0001BC6F000E0001BD6F04ECC2
:10082000ACF0E7C0C7F0E8C0C8F0E9C0C9F0EAC062
:10083000CAF050EC99F0EDC0BAF0EEC0BBF069EC34
:10084000B1F004D09F860BD0A58E09D00001EB51EA
:10085000000AD8B4F7D7010AD8A41200F5D7EDC022
:10086000BAF0EEC0BBF0C9ECB0F0EDC0D9FFEEC0FD
:10087000DAFF000EDF6E000120EE06F0ED51D92602
:10088000EE51DA22DECFC5F0DDCFC6F0000E00015A
:10089000C76F030E0001C86FB2ECB1F0000120EE8B
:1008A00006F0ED51D926EE51DA22DECFBAF0DDCFD7
:1008B000BBF0050E0001BC6F010E0001BD6F04EC22
:1008C000ACF01200EAECADF0010E2BECAFF0000939
:1008D000D8B429D0FB0E0001CF6FFF0E0001D06FFE
:1008E000000E0001D26F230ED16F58EC92F0950EDE
:1008F0000001CF6FFF0E0001D06F75C0D1F076C040
:10090000D2F087C0D3F00001D46B88C0D5F00001CD
:10091000D66B58EC92F06CEC8FF059ECB2F0000909
:10092000D8A4ABECAFF0000E0001726F000E716F37
:10093000030E0001FC6FE80EFB6F000E0001706FEC
:10094000000E6F6F000E00016E6F000E6D6F000ED7
:100950000001FA6F080EF96FF9D00001714B722B8C
:10096000B50E0001BC6F000E0001BD6FBDECA7F01D
:10097000B50E0001E16F000E0001E26F7AEC9DF010
:10098000E1C0FAF3E2C0FBF3E3C0FCF3E4C0FDF323
:10099000FAC3BEF0FBC3BFF0FCC3C0F0FDC3C1F09F
:1009A000000E0001BA6F000EBB6F6C0EBC6F420EE2
:1009B000BD6F2DEC88F0BAC0F3F0BBC0F4F0BCC042
:1009C000F5F0BDC0F6F019EC9BF0F3C06DF0F4C08B
:1009D0006EF0010E2BECAFF00009D8B40ED06DC054
:1009E000D0F06EC0D1F054ECB1F08CECAFF059EC1B
:1009F000B2F00009D8A4ABECAFF00001FB5100014C
:100A00006D5D00016E51800A0301F66F0001FC511B
:100A1000800A0301F659D8B008D06DC0FBF06EC053
:100A2000FCF071C06FF072C070F0080E2BECAFF0EC
:100A30000009D8B420D0AF0E0001D56F000E000120
:100A4000D66F000E0001D86F320ED76F3FECB1F0B9
:100A5000AF0E0001BD6F000E0001BE6F000E000161
:100A6000C06F010EBF6F43ECB0F059ECB2F000095B
:100A7000D8A4ABECAFF0000E0001FA6F0A0EF96FCC
:100A80000001FABF63D00001FA5156E10001F905F7
:100A9000D8B052D05BD0B50E0001BC6F000E000183
:100AA000BD6FBDECA7F0010E2BECAFF00009D8B480
:100AB0000ED06DC0D0F06EC0D1F054ECB1F08CEC23
:100AC000AFF059ECB2F00009D8A4ABECAFF0B50E22
:100AD0000001E16F000E0001E26F7AEC9DF0E1C0D1
:100AE000FAF3E2C0FBF3E3C0FCF3E4C0FDF3FAC3A6
:100AF000BEF0FBC3BFF0FCC3C0F0FDC3C1F0000EED
:100B00000001BA6F000EBB6F6C0EBC6F420EBD6F62
:100B10002DEC88F0BAC0F3F0BBC0F4F0BCC0F5F027
:100B2000BDC0F6F019EC9BF0F3C06DF0F4C06EF0B0
:100B30000001F907D8A0FA070001FABF07D00001A9
:100B4000FA51A9E10001F905D8B0A5D7000172BF9B
:100B500004D7900E0001715D010E00017259D8A0FA
:100B6000FCD6080E2BECAFF00009D8B48AD0AF0E3B
:100B70000001D56F000E0001D66F000E0001D86F86
:100B8000320ED76F3FECB1F06FC0F6F370C0F7F3E1
:100B90000301F61FF71FF64BF72B900E0301F62506
:100BA0000301F86F010E0301F7210301F96FAF0E86
:100BB0000001BD6F000E0001BE6FF8C3F6F3F9C36C
:100BC000F7F30301F61FF71FF64BF72BF6C3BFF041
:100BD000F7C3C0F043ECB0F059ECB2F00009D8B460
:100BE00050D0ABECAFF04DD0B50E0001BC6F000E95
:100BF0000001BD6FBDECA7F0010E2BECAFF00009BA
:100C0000D8B40ED06DC0D0F06EC0D1F054ECB1F0BD
:100C10008CECAFF059ECB2F00009D8A4ABECAFF01B
:100C2000B50E0001E16F000E0001E26F7AEC9DF05D
:100C3000E1C0FAF3E2C0FBF3E3C0FCF3E4C0FDF370
:100C4000FAC3BEF0FBC3BFF0FCC3C0F0FDC3C1F0EC
:100C5000000E0001BA6F000EBB6F6C0EBC6F420E2F
:100C6000BD6F2DEC88F0BAC0F3F0BBC0F4F0BCC08F
:100C7000F5F0BDC0F6F019EC9BF0F3C06DF0F4C0D8
:100C80006EF00001B0BF12000001B051ADE10001F3
:100C9000AF05D8A01200A8D7010E0001726F900E08
:100CA000716F030E0001FC6FE80EFB6F000E000178
:100CB000706F000E6F6F030E00016C6FE80E6B6FAC
:100CC000000E00016E6F000E6D6F000E0001FA6FD6
:100CD000080EF96F000E03013B6F000E3A6F5AD1F8
:100CE00000017107D8A07207B50E0001BC6F000E9D
:100CF0000001BD6FBDECA7F0B50E0001E16F000E65
:100D00000001E26F7AEC9DF0E1C0F8F3E2C0F9F384
:100D1000E3C0FAF3E4C0FBF3F8C3BEF0F9C3BFF0DD
:100D2000FAC3C0F0FBC3C1F0000E0001BA6F000EA1
:100D3000BB6F6C0EBC6F420EBD6F2DEC88F0BAC05D
:100D4000F3F0BBC0F4F0BCC0F5F0BDC0F6F019EC98
:100D50009BF0F3C06DF0F4C06EF0010E2BECAFF021
:100D60000009D8B40ED06DC0D0F06EC0D1F054ECF4
:100D7000B1F08CECAFF059ECB2F00009D8A4ABECB8
:100D8000AFF00001FB5100016D5D00016E51800A62
:100D90000301F66F0001FC51800A0301F659D8B037
:100DA00036D06DC0FBF06EC0FCF071C06FF072C049
:100DB00070F0CD0E0001CC6FCC0ECD6F2C0ECE6F2F
:100DC0003F0ECF6F6FC0BAF070C0BBF00001000ED5
:100DD000BBBFFF0EBC6FBD6F010E71EC91F0BAC0CE
:100DE000C8F0BBC0C9F0BCC0CAF0BDC0CBF000ECBD
:100DF00080F0C8C0F3F0C9C0F4F0CAC0F5F0CBC0B1
:100E0000F6F019EC9BF0F3C06BF0F4C06CF0080E38
:100E10002BECAFF00009D8B41FD0AF0E0001D56F96
:100E2000000E0001D66F000E0001D86F640ED76F60
:100E30003FECB1F0AF0E0001BD6F000E0001BE6FC0
:100E4000FF0E0001C06FBF6943ECB0F059ECB2F087
:100E50000009D8A4ABECAFF0000E0001FA6F0A0E47
:100E6000F96F0001FABF63D00001FA5156E10001A9
:100E7000F905D8B052D05BD0B50E0001BC6F000EA2
:100E80000001BD6FBDECA7F0010E2BECAFF0000927
:100E9000D8B40ED06DC0D0F06EC0D1F054ECB1F02B
:100EA0008CECAFF059ECB2F00009D8A4ABECAFF089
:100EB000B50E0001E16F000E0001E26F7AEC9DF0CB
:100EC000E1C0F8F3E2C0F9F3E3C0FAF3E4C0FBF3E6
:100ED000F8C3BEF0F9C3BFF0FAC3C0F0FBC3C1F062
:100EE000000E0001BA6F000EBB6F6C0EBC6F420E9D
:100EF000BD6F2DEC88F0BAC0F3F0BBC0F4F0BCC0FD
:100F0000F5F0BDC0F6F019EC9BF0F3C06DF0F4C045
:100F10006EF00001F907D8A0FA070001FABF07D068
:100F20000001FA51A9E10001F905D8B0A5D7010ED9
:100F30002BECAFF00009D8B42DD0FB0E0001CF6F21
:100F4000FF0E0001D06F000E0001D26F230ED16F93
:100F500058EC92F0590E0001CF6FFF0E0001D06FD8
:100F6000FBC0D1F0FCC0D2F06BC0D3F06CC0D4F0A9
:100F700087C0D5F00001D66B88C0D7F00001D86BD0
:100F800058EC92F06CEC8FF059ECB2F00009D8A458
:100F9000ABECAFF0000172BF07D00001725103E16A
:100FA00000017105D8B09CD6AF0E0001D56F000EC0
:100FB0000001D66F010E0001D86F900ED76F3FEC85
:100FC000B1F0AF0E0001BD6F000E0001BE6F010E4B
:100FD0000001C06F2C0EBF6F43ECB0F0430E000158
:100FE0006B2500016B6F000E00016C2100016C6F1E
:100FF00000016CBF12D00F0E00016B5D010E0001ED
:101000006C59D8A00AD0F20E00016B2500016B6F5D
:10101000FE0E00016C2100016C6F6BC0F6F36CC01A
:10102000F7F30301F61FF71FF64BF72B0E0E030124
:10103000F62500016B6F010E0301F72100016C6FB3
:101040006BC0D7F06CC0D8F0000E0001DA6FC80E8C
:10105000D96F000ED6ECA2F012000001BD51800B3A
:101060000001C66F0001BD51BD250001D16F000117
:10107000BCAF02D00001D1810001D1510001D8B430
:1010800012D00001D129D8A409D0000E0001BA6FF6
:10109000000EBB6F000EBC6F000EBD6F0001BC8F59
:1010A000000E000108D0000E0001BA6F000EBB6FE9
:1010B000000EBC6F000EBD6F0001C151800B00011E
:1010C000C61B0001C151C1250001D26F0001C0AF94
:1010D00002D00001D2810001D2510001D8B412D057
:1010E0000001D229D8A409D0000E0001BE6F000E65
:1010F000BF6F000EC06F000EC16F0001C08F000EE9
:10110000000108D0000E0001BE6F000EBF6F000E80
:10111000C06F000EC16F0001BE510001BF11000180
:10112000C0110001C111D8A417D0000E0001BA6F80
:10113000000EBB6F000EBC6F000EBD6F0001800E75
:10114000BC137F0EBD13BAC0BAF0BBC0BBF0BCC0AD
:10115000BCF0BDC0BDF012000001D1510001D8A407
:1011600012D0000E0001BA6F000EBB6F000EBC6FF4
:10117000000EBD6FBAC0BAF0BBC0BBF0BCC0BCF0C3
:10118000BDC0BDF012000001D2510001C26FC36B9F
:101190000001C21FC31FC24BC32B0001D15100016C
:1011A000C46FC56B0001C2510001C4270001C351C7
:1011B0000001C5237F0E0001C4250001CB6F000E86
:1011C0000001C5210001CC6FBAC0C7F0BBC0C8F098
:1011D000BCC0C9F0BDC0CAF0000E0001BA6F000E5D
:1011E000BB6F000EBC6F000EBD6F000E0001CD6F17
:1011F000000ECE6F000ECF6F000ED06F000E0001FC
:10120000D26F42D00001D2510001D8B417D00001F2
:10121000D890C737C837C937CA370001D890BA370E
:10122000BB37BC37BD370001D0AF02D00001BA8157
:101230000001D890CD37CE37CF37D0370001BE511F
:101240000001C75D0001BF510001C8590001C05134
:101250000001C9590001C1510001CA59D8A012D0DA
:101260000001D08D0001BE510001C75F0001BF51D8
:101270000001C85B0001C0510001C95B0001C15100
:101280000001CA5B0001D22B190E0001D265BAD74A
:101290000001C7510001C8110001C9110001CA11A4
:1012A000D8B418D00001CD8115D00001D890BA373C
:1012B000BB37BC37BD370001D0AF02D00001BA81C7
:1012C0000001D890CD37CE37CF37D0370001CB07CC
:1012D000D8A0CC070001BCAFE8D7000E0001D26F48
:1012E0000001D0AF24D0FF0E0001CD150001C26F68
:1012F000FF0E0001CE150001C36FFF0E0001CF15D8
:101300000001C46F7F0E0001D0150001C56F000100
:10131000C2510001C3110001C4110001C511D8A4BC
:1013200003D00001BAA103D0010E0001D26F000169
:10133000D2510001D8B423D0010E0001BA27000E0B
:10134000BB23BC23BD230001BDA119D0BAC0C2F08C
:10135000BBC0C3F0BCC0C4F0BDC0C5F00001C53502
:10136000C533C433C333C233C2C0BAF0C3C0BBF049
:10137000C4C0BCF0C5C0BDF00001CB4BCC2B0001FC
:10138000CCBF14D00001CC5104E10001CB29D8A07E
:101390000DD0000E0001CC6FCB69000E0001BA6FBA
:1013A000000EBB6F000EBC6F000EBD6F0001CCBF06
:1013B00007D00001CC5115E10001CB05D8B011D008
:1013C000000E0001CC6F000ECB6F000E0001BA6F53
:1013D000000EBB6F000EBC6F000EBD6F000E000153
:1013E000C66FCBC0D1F00001D1A103D00001BC8FEA
:1013F00002D00001BC9F0001D890D1310001BD6F27
:101400000001C6510001BD13BAC0BAF0BBC0BBF0A9
:10141000BCC0BCF0BDC0BDF01200080E0001C92563
:101420000001C66F000E0001CA210001C76F000E47
:101430000001C86FE9ECAFF00001E06F0001E0517E
:101440000001CC6FCD6B0E0ED8900001CC37CD379C
:10145000E82EFAD70001E0510001CE6FCF6B0C0EE1
:10146000D8900001CE37CF37E82EFAD70001E051EF
:101470000001D06FD16B0A0ED8900001D037D13760
:10148000E82EFAD70001E0510001D36FD26B0001C2
:10149000E0510001D46FD56B060ED8900001D4370F
:1014A000D537E82EFAD70001E0510001D66FD76B8F
:1014B0000001D63BD73BF00ED717D6510F0BD713F1
:1014C000F00ED6170001E0510001D86FD96B000172
:1014D000D890D837D9370001D890D837D9370001FC
:1014E000E0510001DA6FDB6B0001D8510001DA1323
:1014F0000001D9510001DB130001D6510001DA13BC
:101500000001D7510001DB130001D4510001DA13AF
:101510000001D5510001DB130001D2510001DA13A3
:101520000001D3510001DB130001D0510001DA1397
:101530000001D1510001DB130001CE510001DA138B
:101540000001CF510001DB130001CC510001DA1181
:101550000001DC6F0001CD510001DB110001DD6FE6
:10156000E0C0DEF00001DF6B080E0001C9250001BC
:10157000C66F000E0001CA210001C76F010E0001F5
:10158000C86FE9ECAFF00001CC6FCD6B0001D890D3
:10159000CC37CD370001D890CC37CD370001CC51B6
:1015A0000001DE130001CD510001DF13080E000120
:1015B000C9250001C66F000E0001CA210001C76FD6
:1015C000020E0001C86FE9ECAFF00001CC6FCD6BEB
:1015D0000001CC3BCD3BF00ECD17CC510F0BCD1302
:1015E000F00ECC170001CC510001DE130001CD51EB
:1015F0000001DF13080E0001C9250001C66F000EAF
:101600000001CA210001C76F030E0001C86FE9EC99
:10161000AFF00001CC6FCD6B060ED8900001CC3737
:10162000CD37E82EFAD70001CC510001DE130001BE
:10163000CD510001DF13080E0001C9250001C66F5E
:10164000000E0001CA210001C76F040E0001C86F1F
:10165000E9ECAFF00001CC6F0001CC510001CE6F7E
:10166000CD6B0001CD510001DE130001CE51000110
:10167000DF13080E0001C9250001C66F000E00012E
:10168000CA210001C76F050E0001C86FE9ECAFF079
:101690000001CC6FCD6B0A0ED8900001CC37CD374E
:1016A000E82EFAD70001CC510001DE130001CD5124
:1016B0000001DF13080E0001C9250001C66F000EEE
:1016C0000001CA210001C76F060E0001C86FE9ECD6
:1016D000AFF00001CC6FCD6B0C0ED8900001CC3771
:1016E000CD37E82EFAD70001CC510001DE130001FE
:1016F000CD510001DF13080E0001C9250001C66F9E
:10170000000E0001CA210001C76F070E0001C86F5B
:10171000E9ECAFF00001CC6FCD6B0E0ED89000015C
:10172000CC37CD37E82EFAD70001CC510001DE13BB
:101730000001CD510001DF130001DE510001DC1971
:1017400048E10001DF510001DD19D8A4120032D0B8
:10175000000120EE02F0C951D926CA51DA22DECFAB
:10176000BAF0DDCFBBF0CBC0BCF031ECB3F012006F
:101770000001CB1F000120EE02F0C951D926CA5149
:10178000DA22DECFBAF0DDCFBBF0CBC0BCF031EC5B
:10179000B3F01200000120EE04F0C951D926CA515D
:1017A000DA22DECFBAF0DDCFBBF0CBC0BCF031EC3B
:1017B000B3F012000001E051000AD8B41200010A8F
:1017C000D8B4C6D7030AD8B4D3D7010AD8A4120014
:1017D000E1D712000001BA6F7ED03F0E1200060E54
:1017E00012005B0E12004F0E1200660E12006D0EFC
:1017F00012007D0E1200070E12007F0E12006F0EF7
:1018000012005F0E12007C0E1200580E12005E0EC7
:1018100012007B0E1200710E12006F0E1200740E79
:101820001200040E12000E0E12007A0E1200060EA6
:101830001200140E1200540E12005C0E1200730EF1
:101840001200670E1200500E12006D0E1200780E7C
:1018500012001C0E1200620E12002A0E1200640EFC
:1018600012006E0E12005B0E1200770E12007F0E39
:101870001200390E12003F0E1200790E1200710E86
:1018800012003D0E1200760E1200060E12001E0E01
:101890001200570E1200380E1200760E1200760E4D
:1018A00012003F0E1200730E12003F0E1200770E50
:1018B00012006D0E1200310E12003E0E12003E0E8E
:1018C00012007E0E1200760E1200660E12005B0EE3
:1018D0001200800E12000001BA512E0AD8B4F9D7B6
:1018E0001E0AD8B47AD7010AD8B479D7030AD8B473
:1018F00078D7010AD8B477D7070AD8B476D7010ABF
:10190000D8B475D7030AD8B474D7010AD8B473D73A
:101910000F0AD8B472D7010AD8B471D7780AD8B4EC
:10192000A4D7030AD8B4A3D7010AD8B4A2D7070A08
:10193000D8B4A1D7010AD8B4A0D7030AD8B49FD786
:10194000010AD8B49ED70F0AD8B49DD7010AD8B4DB
:101950009CD7030AD8B49BD7010AD8B49AD7070AF0
:10196000D8B499D7010AD8B498D7030AD8B497D76E
:10197000010AD8B496D71F0AD8B495D7010AD8B4AB
:1019800094D7030AD8B493D7010AD8B492D7070AD8
:10199000D8B491D7010AD8B490D7030AD8B48FD756
:1019A000010AD8B48ED70F0AD8B48DD7010AD8B49B
:1019B0008CD7030AD8B48BD73B0AD8B422D7030AF2
:1019C000D8B421D7010AD8B420D7070AD8B41FD772
:1019D000010AD8B41ED7030AD8B41DD7010AD8B457
:1019E0001CD70F0AD8B41BD7010AD8B41AD7030AD8
:1019F000D8B419D7010AD8B418D7070AD8B417D75A
:101A0000010AD8B416D7030AD8B415D7010AD8B436
:101A100014D71F0AD8B413D7010AD8B412D7030AAF
:101A2000D8B411D7010AD8B410D7070AD8B40FD741
:101A3000010AD8B40ED7030AD8B40DD7010AD8B416
:101A40000CD70F0AD8B40BD7010AD8B40AD7030AA7
:101A5000D8B409D7000E1200050E0001F46FC7D0EC
:101A6000000120EE02F0F051D926F151DA22DECF4A
:101A7000C5F0DDCFC6F0F2C0C7F00F0E0001C86F91
:101A8000B2ECB1F0000120EE04F0F051D926F15192
:101A9000DA22DECFC5F0DDCFC6F0F2C0C7F0000E0F
:101AA0000001C86FB2ECB1F0B0D0F0C0E9F0F1C005
:101AB000EAF0F2C0EBF0030E0001EC6FC6ECACF004
:101AC0000001F46F0001F451D8A41200000120EECF
:101AD00002F0F051D926F151DA22DECFC5F0DDCF88
:101AE000C6F0F2C0C7F0000E0001C86FB2ECB1F052
:101AF000000120EE04F0F051D926F151DA22DECFB8
:101B0000C5F0DDCFC6F0F2C0C7F0000E0001C86F0F
:101B1000B2ECB1F07AD0F0C0E9F0F1C0EAF0F2C076
:101B2000EBF0030E0001EC6FC6ECACF00001F46FBB
:101B30000001F451D8A41200000120EE02F0F0518F
:101B4000D926F151DA22DECFC5F0DDCFC6F0F2C0E2
:101B5000C7F00F0E0001C86FB2ECB1F0000120EE2B
:101B600004F0F051D926F151DA22DECFC5F0DDCFF5
:101B7000C6F0F2C0C7F00F0E0001C86FB2ECB1F0B2
:101B800044D0F0C0E9F0F1C0EAF0F2C0EBF0030E8F
:101B90000001EC6FC6ECACF00001F46F0001F451F1
:101BA000D8A41200000120EE02F0F051D926F15124
:101BB000DA22DECFC5F0DDCFC6F0F2C0C7F0000EEE
:101BC0000001C86FB2ECB1F0000120EE04F0F0515A
:101BD000D926F151DA22DECFC5F0DDCFC6F0F2C052
:101BE000C7F0000E0001C86FB2ECB1F00ED00001DA
:101BF000F351000AD8B434D7010AD8B456D7030A2F
:101C0000D8B489D7010AD8B4BCD7080E0001F02592
:101C10000001C96F000E0001F1210001CA6F00012F
:101C2000F251040DF3CFCBF0F3C0CCF0C3ECAEF027
:101C3000080E0001F0250001C96F000E0001F1211E
:101C40000001CA6F0001F251040DF3280001CB6FAF
:101C5000F3C0CCF0C3ECAEF0080E0001F02500019B
:101C6000C96F000E0001F1210001CA6F0001F2519D
:101C7000040DF350020F0001CB6FF3C0CCF0C3ECA6
:101C8000AEF0080E0001F0250001C96F000E000142
:101C9000F1210001CA6F0001F251040DF350030F4E
:101CA0000001CB6FF3C0CCF0C3ECAEF01200050E18
:101CB0000101006F7AD0000120EE02F0F451D92624
:101CC000F551DA22DECFF7F0DDCFF8F0F7C0D9FF1B
:101CD000F8C0DAFFFF0E67D0F4C0F0F0F5C0F1F005
:101CE000010E0001F26F34ECAEF00101006F010152
:101CF0000051D8A41200000120EE02F0F451D926C0
:101D0000F551DA22DECFF7F0DDCFF8F0F7C0D9FFDA
:101D1000F8C0DAFF000EDF6E000120EE04F036D0CE
:101D2000F4C0F0F0F5C0F1F0020E0001F26F34ECF7
:101D3000AEF00101006F01010051D8A412000001B2
:101D400020EE02F0F451D926F551DA22DECFF7F079
:101D5000DDCFF8F0F7C0D9FFF8C0DAFFFF0EDF6E75
:101D6000000120EE04F0AAD7F4C0F0F0F5C0F1F0C5
:101D7000000E0001F26F34ECAEF00101006F0101C2
:101D80000051D8A41200000120EE02F0F451D9262F
:101D9000F551DA22DECFF7F0DDCFF8F0F7C0D9FF4A
:101DA000F8C0DAFF000EDF6E0ED00001F651000A17
:101DB000D8B481D7010AD8B48FD7030AD8B4B0D722
:101DC000010AD8B4D1D7080E0001F4250001C96F6B
:101DD000000E0001F5210001CA6F000E0001CB6F5B
:101DE000F6C0CCF0C3ECAEF0080E0001F425000103
:101DF000C96F000E0001F5210001CA6F010E00013C
:101E0000CB6FF6C0CCF0C3ECAEF0080E0001F425A9
:101E10000001C96F000E0001F5210001CA6F020E1A
:101E20000001CB6FF6C0CCF0C3ECAEF0080E0001A1
:101E3000F4250001C96F000E0001F5210001CA6FF1
:101E4000030E0001CB6FF6C0CCF0C3ECAEF0080E71
:101E50000001F4250001C96F000E0001F521000109
:101E6000CA6F040E0001CB6FF6C0CCF0C3ECAEF02D
:101E7000080E0001F4250001C96F000E0001F521D4
:101E80000001CA6F050E0001CB6FF6C0CCF0C3ECA9
:101E9000AEF0080E0001F4250001C96F000E00012C
:101EA000F5210001CA6F060E0001CB6FF6C0CCF021
:101EB000C3ECAEF0080E0001F4250001C96F000E5E
:101EC0000001F5210001CA6F070E0001CB6FF6C0BB
:101ED000CCF0C3ECAEF012000001FF51D8B41200F8
:101EE000EAC3E0F0EBC3E1F0ECC3E2F0EDC3E3F0F2
:101EF00000019051D8B405D08EC0DFF00F0E000164
:101F00008E6F000E0001E56FDFD00001E551020D7C
:101F1000000EF324D96E030EF420DA6EDECFFDF04E
:101F2000DDCFFEF0000E0001E46F130E0001E4654A
:101F300001D0BED00001E551140DAA0E0001DD6FE5
:101F4000040E0001DE6FF3500001DD27F4500001A4
:101F5000DE230001E451010DF3500001DD25D96EAF
:101F6000F4500001DE21DA6EDFAE9AD00001E551B7
:101F7000140DAA0E0001DD6F040E0001DE6FF35098
:101F80000001DD27F4500001DE230001E451010DC2
:101F9000F3500001DD25D96EF4500001DE21DA6E28
:101FA0007F0EDF160001E551140DAA0E0001DD6F52
:101FB000040E0001DE6FF3500001DD27F450000134
:101FC000DE230001E451010DF3500001DD25D96E3F
:101FD000F4500001DE21DA6EDF50D8B44AD083C05D
:101FE000C3F084C0C4F0E0C0C5F0E1C0C6F0E2C0F8
:101FF000C7F0E3C0C8F0F2C3C9F0F3C3CAF0F4C33A
:10200000CBF0F5C3CCF073ECA9F00001E551140D51
:10201000AA0E0001DD6F040E0001DE6FF350000117
:10202000DD27F4500001DE230001E451010DF350DF
:102030000001DD25D96EF4500001DE21DA6EDF509B
:1020400027EC9FF0BFC0CCF0C0C0CDF0E0C0CEF018
:10205000E1C0CFF0E2C0D0F0E3C0D1F0F2C3D2F0E3
:10206000F3C3D3F0F4C3D4F0F5C3D5F021ECA5F05D
:1020700017D0000E0001C46F000EC36FE0C0C5F0A2
:10208000E1C0C6F0E2C0C7F0E3C0C8F0F2C3C9F0D7
:10209000F3C3CAF0F4C3CBF0F5C3CCF073ECA9F0F2
:1020A000060E0001E027000EE1230001E42B3DD7DE
:1020B000080E0001E227000EE323000E0001E16F8D
:1020C000060EE06F0001E52B0001E55100018E5D79
:1020D000D8B01BD700019051D8B41200000E0001F7
:1020E000906FDFC08EF01200700E0101006F030EC2
:1020F0000101016F000E0101036F020E026F000E5D
:102100000101046F670E0101056F010E0101066FE9
:10211000340E0101076F650E0101086F010E010108
:10212000096F040E01010A6F140E01010B6F000EFE
:1021300001010C6FBDEC9EF0520E0101006F030E09
:102140000101016F000E0101036F020E026F000E0C
:102150000101046F670E0101056F010E0101066F99
:10216000940E0101076F650E0101086F010E010158
:10217000096F040E01010A6F140E01010B6F000EAE
:1021800001010C6FBDEC9EF0480E0101006F030EC3
:102190000101016F000E0101036F020E026F000EBC
:1021A0000101046F670E0101056F010E0101066F49
:1021B0007C0E0101076F650E0101086F010E010120
:1021C000096F040E01010A6F140E01010B6F000E5E
:1021D00001010C6FBDEC9EF05C0E0101006F030E5F
:1021E0000101016F000E0101036F020E026F000E6C
:1021F0000101046F670E0101056F010E0101066FF9
:10220000640E0101076F650E0101086F010E0101E7
:10221000096F040E01010A6F140E01010B6F000E0D
:1022200001010C6FBDEC9EF0660E0101006F030E04
:102230000101016F000E0101036F020E026F000E1B
:102240000101046F670E0101056F010E0101066FA8
:102250004C0E0101076F650E0101086F010E0101AF
:10226000096F040E01010A6F140E01010B6F000EBD
:1022700001010C6FBDEC9EF0A00E0001E76F860E11
:10228000E86F010EE96F000EEA6F000E0001EB6FC0
:10229000020E0001EC6F53EC82F07A0E0001C96F60
:1022A000030E0001CA6FE7ECA9F0000E0001F66F03
:1022B000000EF56F0001F65113E1080E0001F55D07
:1022C000D8B01200400E0001F525D96E030E0001B2
:1022D000F621DA6E000EDF6E0001F54BF62BEAD721
:1022E00012000001C26F0001C2510001D8B41ED01B
:1022F0000001BDAF1BD0BAC0BEF0BBC0BFF0BCC0B8
:10230000C0F0BDC0C1F00001BE1FBF1FC01FC11F74
:10231000BE2B000EBF23C023C123BEC0C4F0BFC06C
:10232000C5F0C0C0C6F0C1C0C7F008D0BAC0C4F084
:10233000BBC0C5F0BCC0C6F0BDC0C7F00001BA51FB
:102340000001BB110001BC110001BD11D8A40AD0CD
:10235000000E0001BA6F000EBB6F000EBC6F000EC6
:10236000BD6F1200960E0001C36F08D00001C32B91
:102370000001D890C733C633C533C433000E000103
:10238000C4150001BE6F000E0001C5150001BF6F2E
:10239000000E0001C6150001C06FFE0E0001C7153A
:1023A0000001C16F0001BE510001BF110001C01149
:1023B0000001C111D8B410D0D9D70001C32B010E30
:1023C0000001C427000EC523C623C7230001D890EF
:1023D000C733C633C533C433000E0001C415000132
:1023E000BE6F000E0001C5150001BF6F000E000199
:1023F000C6150001C06FFF0E0001C7150001C16FB7
:102400000001BE510001BF110001C0110001C11146
:10241000D8B409D0D2D70001C3070001D890C4377F
:10242000C537C637C7370001C6BF04D0020E00014A
:10243000C361F1D70001C3B109D0FF0E0001C41779
:10244000FF0EC5177F0EC617FF0EC7170001D890E5
:10245000C333C3C0BEF00001BF6BC06BC16BBEC055
:10246000C1F00001C06BBF6BBE6B0001BE5100012B
:10247000C4130001BF510001C5130001C051000188
:10248000C6130001C1510001C7130001C251000170
:10249000D8B405D00001BDAF02D00001C78FC4C0C1
:1024A000BAF0C5C0BBF0C6C0BCF0C7C0BDF01200DA
:1024B000D10E0001DE6F000E0001DF6FC9D0250EC6
:1024C0000001E219D8B405D00001E2511CECB3F0D0
:1024D000BFD0000E0001DD6F14D0DEC0D9FFDFC019
:1024E000DAFFDF500001E26F020E0001DE27000E6E
:1024F000DF230001E2511CECB3F0AAD00001DD8D16
:102500001ED0CFC0F6FFD0C0F7FF0001CF4BD02BBD
:10251000000EF86E0800F5CFE2F00001E251000A6B
:10252000D8B41200630AD8B4D8D7070AD8B407D0F1
:102530000D0AD8B404D01C0AD8B4E0D7DAD7000109
:10254000DDBD19D0DEC0D9FFDFC0DAFFDECFE0F09D
:10255000DDCFE1F0020E0001DE27000EDF230001D7
:10256000E1AF16D0030E0001DD130001E06DE11FA5
:10257000D8B0E12B0DD0DEC0D9FFDFC0DAFFDECF4F
:10258000E0F0DDCFE1F0020E0001DE27000EDF23D8
:10259000010E0001E26F050E0001E219D8B419D056
:1025A0000001E251020D050EF324F66EFD0EF4203B
:1025B000F76EF86A000EF8220900F5500001E05DA0
:1025C0000900F5500001E159D8A003D00001E22B29
:1025D000E2D7DDC0DBF0030E0001DB17D8B403D077
:1025E0002D0E1CECB3F0E2C0DCF02CD00001DC516D
:1025F000020D050EF324F66EFD0EF420F76EF86A58
:10260000000EF8220900F5CFBCF00A00F5CFBDF0AE
:10261000E0C0BAF0E1C0BBF0FCECA8F0BAC0C1F079
:10262000BBC0C2F0000E0001C46F0A0EC36F67EC9E
:10263000ACF00001C151300F0001E26F0001E25126
:102640001CECB3F00001DC070001DC29D8A4CED7D4
:10265000CFC0F6FFD0C0F7FF0001CF4BD02B000E4C
:10266000F86E0800F5CFE2F00001E251D8B4120094
:1026700026D7E0C0D9FFE1C0DAFFDECFE5F0DDCF3D
:10268000E6F0050E0001E46FB5D0000120EE02F087
:10269000E051D926E151DA22DECFBAF0DDCFBBF02E
:1026A000E2C0BCF0010E0001BD6F04ECACF0B0D094
:1026B000E5C0C9F0E6C0CAF0010E0001CB6FE2C070
:1026C000CCF081ECA8F00001E46F0001E451D8A443
:1026D0001200000120EE02F0E051D926E151DA2289
:1026E000DECFBAF0DDCFBBF0E2C0BCF0000E0001DF
:1026F000BD6F04ECACF0000120EE04F0E051D926EF
:10270000E151DA22DECFBAF0DDCFBBF0E2C0BCF09F
:10271000000E0001BD6F04ECACF07AD0E5C0C9F04A
:10272000E6C0CAF0020E0001CB6FE2C0CCF081EC33
:10273000A8F00001E46F0001E451D8A412000001E8
:1027400020EE02F0E051D926E151DA22DECFBAF0D4
:10275000DDCFBBF0E2C0BCF0010E0001BD6F04ECA8
:10276000ACF0000120EE04F0E051D926E151DA226C
:10277000DECFBAF0DDCFBBF0E2C0BCF0010E00014D
:10278000BD6F04ECACF044D0E5C0C9F0E6C0CAF0BF
:10279000000E0001CB6FE2C0CCF081ECA8F000018C
:1027A000E46F0001E451D8A41200000120EE02F011
:1027B000E051D926E151DA22DECFBAF0DDCFBBF00D
:1027C000E2C0BCF0000E0001BD6F04ECACF00001F3
:1027D00020EE04F0E051D926E151DA22DECFBAF042
:1027E000DDCFBBF0E2C0BCF0000E0001BD6F04EC19
:1027F000ACF00ED00001E351000AD8B446D7010A6C
:10280000D8B456D7030AD8B489D7010AD8B4BCD7EC
:10281000080E0001E0250001C96F000E0001E12152
:102820000001CA6FE2C0CBF0E3C0CCF0C3ECAEF065
:1028300012000001CD6FB1D073ECA5F0120098EC3E
:10284000ACF01200A6ECA6F01200F1EC9FF0120022
:10285000D1ECABF01200D3ECB1F01200CDC0CAF055
:102860007F0E0001CA1700018E51140DAA0E00013F
:10287000CB6F040E0001CC6FF3500001CB27F45056
:102880000001CC2300018F51010DF3500001CB2535
:10289000D96EF4500001CC21DA6EDF507F0B0001BD
:1028A000CA19D8B42ED0010E0001FF6F00018E515D
:1028B000140DAA0E0001CA6F040E0001CB6FF35075
:1028C0000001CA27F4500001CB2300018F51010DF4
:1028D000F3500001CA25D96EF4500001CB21DA6E05
:1028E0000001CD518009DF6E00018E51020D000EF6
:1028F000F324D96E030EF420DA6EFDC0DEFFFEC0B5
:10290000DDFFD1ECABF00009D8B41200CDC0CAF0A5
:102910007F0E0001CA1700018E51140DAA0E00018E
:10292000CB6F040E0001CC6FF3500001CB27F450A5
:102930000001CC2300018F51010DF3500001CB2584
:10294000D96EF4500001CC21DA6EDF507F0B00010C
:10295000CA19D8B41200010E0001FF6F00018E5198
:10296000140DAA0E0001CA6F040E0001CB6FF350C4
:102970000001CA27F4500001CB2300018F51010D43
:10298000F3500001CA25D96EF4500001CB21DA6E54
:102990000001CD518009DF6E12000001CD51070A00
:1029A000D8B456D70F0AD8B44AD7010AD8B44DD7ED
:1029B000030AD8B441D7060AD8B444D7010AD8B418
:1029C0003BD72D0AD8B44AD7030AD8B444D746D740
:1029D000010103517BECA4F001C1D9FF02C1DAFF70
:1029E0000001BAC0DEFF0001BBC0DDFF01010351E1
:1029F000CEECA4F0010120EE06F00151D9260251DF
:102A0000DA220001BAC0DEFF0001BBC0DDFF010118
:102A10000351CEECA4F0010120EE04F00151D926BF
:102A20000251DA220001BAC0DEFF0001BBC0DDFFA7
:102A30000101035128ECA4F0010120EE02F0015144
:102A4000D9260251DA220001BAC0DEFF0001BBC064
:102A5000DDFF010120EE04F00151D9260251DA22F6
:102A6000DECF04F1DDCF05F104C1D9FF05C1DAFFE6
:102A7000000EDF6E010120EE02F00151D926025155
:102A8000DA22DECF04F1DDCF05F104C1D9FF05C1A3
:102A9000DAFFFF0EDF6E01C1F4F002C1F5F0000EA7
:102AA0000001F66F57EC8EF0000E0101066F070E65
:102AB0000101066531D04BD001C1E0F002C1E1F067
:102AC00006C1E2F0030E0001E36F39EC93F03CD055
:102AD00001C1E0F002C1E1F006C1E2F0020E000126
:102AE000E36F39EC93F030D001C1E0F002C1E1F0C6
:102AF00006C1E2F0010E0001E36F39EC93F024D03F
:102B000001C1E0F002C1E1F006C1E2F0000E0001F7
:102B1000E36F39EC93F018D001C1D9FF02C1DAFF9D
:102B2000DECFC6F0DDCFC7F006C1C8F0E9ECAFF0EC
:102B3000000AD8B4C1D7010AD8B4D6D7030AD8B48A
:102B4000C7D7010AD8B4DCD70101062BB0D701C121
:102B5000C9F002C1CAF0000E0001CB6F0DEC8AF083
:102B600012000001D26F000E0001D16F000E0001B3
:102B7000D56FC00E0001CF6F000E0001D06F950E13
:102B80002AECB3F00001D2512AECB3F0000E0001A0
:102B9000D66F23D0CFC0D9FFD0C0DAFFDF500001FD
:102BA000D36F020E0001CF27000ED0230001D351B6
:102BB0009EECABF00001D1270001D651010D000EB3
:102BC000F324D96E020EF420DA6ED3C0DFFF0001C9
:102BD000D3512AECB3F00001D62B0001D2510001F1
:102BE000D65DD8A0D7D7000E0001D66F0ED0000159
:102BF000D651010D000EF324D96E010EF420DA6EC9
:102C00006DECB3F0DF6E0001D62B0001D151000155
:102C1000D65DD8A0ECD7000E0001D66F5ED0D5C02F
:102C2000D4F021D00001D451010D000EF324D96E4F
:102C3000010EF420DA6EDF500001BB6F0001D551A8
:102C400000080001D4250001BC6F0001D651010D20
:102C5000000EF324D96E020EF420DA6EDF501FEC62
:102C60009CF00001D42B0001D651010D000EF3247D
:102C7000D96E020EF420DA6EDF509EECABF000014C
:102C8000CA6FCB6B0001D5510001CA27000ECB23C0
:102C90000001D4510001CC6FCD6B0001CA5100017D
:102CA000CC5D0001CD51800A0001CE6F0001CB51F7
:102CB000800A0001CE59D8A0B5D70001D651010D28
:102CC000000EF324D96E020EF420DA6EDF509EEC73
:102CD000ABF00001D5270001D62B0001D251000135
:102CE000D65DD8B012009BD7010E4B6E000E0001CE
:102CF000636F000E0001646F000E0001656FB80E77
:102D00000101016F030E0101026F000E0101036F4B
:102D1000E8EC94F0AE0E0101016F030E0101026FA9
:102D2000010E0101036FE8EC94F0A50E0101016FA3
:102D3000000E0101026F020E0101036FE8EC94F036
:102D40009B0E0101016F000E0101026F030E0101D4
:102D5000036FE8EC94F0910E0101016F000E010188
:102D6000026F040E0101036FE8EC94F0C20E010142
:102D7000016F030E0101026F050E0101036FE8EC04
:102D800094F0A40E0101016F030E0101026F060E03
:102D90000101036FE8EC94F0C20E0001E06F030E36
:102DA0000001E16F050E0001E26F000E0001E36F0C
:102DB00039EC93F0AE0E0001F06F030E0001F16FDD
:102DC000000E0001F26F000E0001F36F2CEC8DF08D
:102DD000C20E0001E06F030E0001E16F060E00015C
:102DE000E26F030E0001E36F39EC93F0A40E0001D3
:102DF000F46F030E0001F56F030E0001F66F57EC40
:102E00008EF0A40E0001C96F030E0001CA6F040EFC
:102E10000001CB6F000E0001CC6F8FEC9FF0C20E53
:102E20000001C96F030E0001CA6F060E0001CB6FCF
:102E3000010E0001CC6F8FEC9FF0000E36ECACF071
:102E4000010E36ECACF0000E9E6E000EA16E000E70
:102E5000A46E9B8E9B8C000E0001BB6F640EBA6F3C
:102E600034ECABF0D08E12005BECAAF0000E000147
:102E7000F26F000EF16F0001F25106E1590E0001F0
:102E8000F15DD8B08BD001D089D0D8900001F13558
:102E9000F66E0001F235F76E330EF626FC0EF722C1
:102EA000F86A000EF8220900800EF5180900F510E6
:102EB000D8A422D00001F2511FE1580E0001F15DAB
:102EC000D8B01AD00001F14BF22BD8900001F135A7
:102ED000F66E0001F235F76E330EF626FC0EF72281
:102EE000F86A000EF8220900F5CFBAF00A00F5CF13
:102EF000BBF034ECABF04BD0D8900001F135F66E5E
:102F00000001F235F76E330EF626FC0EF722F86A52
:102F1000000EF8220900000EF55E0900010EF55AB8
:102F2000D8A020D0000E0001BD6FD8900001F1356F
:102F3000F66E0001F235F76E330EF626FC0EF72220
:102F4000F86A000EF8220900F5CFEFF00900F5CF7E
:102F5000F0F0F0C0EFF00001F06B0001EF5190ECE9
:102F6000B1F015D0010E0001BD6FD8900001F13510
:102F7000F66E0001F235F76E330EF626FC0EF722E0
:102F8000F86A000EF8220800F55090ECB1F000014C
:102F9000F14BF22B0001F25101E170D7000E00015C
:102FA000BB6F640EBA6F34ECABF0000E0001BD6F66
:102FB000290E90ECB1F0010E12ECA6F0000E00010B
:102FC000BB6F640EBA6F34ECABF0000E0001C46F3F
:102FD000000EC36F1FECADF01200000120EE07F0F1
:102FE000D551D926D651DA2201D80AD00500FA6E79
:102FF000DE50FD6EDE50FE6EDE50FF6EFA501200A7
:103000000001DD6FD5C0D9FFD6C0DAFF0001DD5168
:10301000DE18D8A421D0000120EE01F0D551D92628
:10302000D651DA220001D751DE5CD8B00AD00001B7
:1030300020EE01F0D551D926D651DA22000EDF6EEE
:103040001200000120EE01F0D551D926D651DA2226
:103050000001D751DF5E1200000120EE01F0D551D2
:10306000D926D651DA22DF500001D86FD96B000182
:10307000D7510001D827000ED923000120EE01F01E
:10308000D551D926D651DA22DF500001DA6FDB6B39
:103090000001D8510001DA5D0001DB51800A000116
:1030A000DC6F0001D951800A0001DC59D8B0120050
:1030B000000120EE01F0D551D926D651DA220001C7
:1030C000D751DF26000120EE02F0D551D926D65186
:1030D000DA22000110EE01F0D551E126D651E222AC
:1030E000E7500001DA6FDB6BDE500001DA5DDE5085
:1030F0000001DB59D8A01200D5C0D9FFD6C0DAFF35
:10310000DDC0DFFF000120EE01F0D551D926D651F8
:10311000DA22000EDF6E000120EE04F0D551D92630
:10312000D651DA2201D812000500FA6EDE50FD6E8B
:10313000DE50FE6EDE50FF6EFA500001DD511200CF
:10314000800E0001CD6F8D0ECE6F5B0ECF6F000E27
:10315000D06FD59E0001C7510001C8110001C911EF
:103160000001CA11D8B41200D596D59CD59AD5982D
:10317000CDC0BAF0CEC0BBF0CFC0BCF0D0C0BDF067
:10318000C7C0BEF0C8C0BFF0C9C0C0F0CAC0C1F05F
:1031900011ECA1F0BAC0D1F0BBC0D2F0BCC0D3F0EA
:1031A000BDC0D4F00CD000018D2B020E00018D6546
:1031B00001D02FD0070E00018D6501D01200D1C0C3
:1031C000BAF0D2C0BBF0D3C0BCF0D4C0BDF0000197
:1031D0008D51020DE50EF324F66EFC0EF420F76E11
:1031E000F86A000EF8220900F5CFCBF00900F5CF00
:1031F000CCF0CBC0BEF0CCC0BFF00001C06BC16B47
:1032000011ECA1F00001BD51CEE10001BC05D8B028
:10321000CAD700018D51020DE50EF324F66EFC0EA7
:10322000F420F76EF86A000EF8220800F5CF8CF053
:10323000FF0E0001D12503012A6FFF0E0001D221EC
:1032400003012B6FFF0E0001D32103012C6FFF0E32
:103250000001D42103012D6F2AC3BAF02BC3BBF0A8
:103260002CC3BCF02DC3BDF000018C510001BE6F1A
:10327000BF6BC06BC16B11ECA1F00001BA1F000164
:10328000BB1F0001BA4BBB2BFF0E0001BA25296EF4
:10329000FF0E0001BB212A6E4CECB3F0D58E12005C
:1032A000000E0001D06F6C0ED16FDC0ED26F020EDB
:1032B000D36F0001D890C737C837C937CA37020E55
:1032C0000001CB6FD8900001D333D233D133D03348
:1032D0000001CB2FF7D7D0C0BAF0D1C0BBF0D2C01D
:1032E000BCF0D3C0BDF0C7C0BEF0C8C0BFF0C9C0FD
:1032F000C0F0CAC0C1F011ECA1F0BAC0D4F0BBC09C
:10330000D5F0BCC0D6F0BDC0D7F010D0000E000183
:10331000CC6F000ECD6F000ECE6F000ECF6F000190
:103320008B2B020E00018B6501D026D0D4C0BAF0E1
:10333000D5C0BBF0D6C0BCF0D7C0BDF000018B51EA
:10334000010D1C0EF324F66EFD0EF420F76EF86AE4
:10335000000EF8220800F5500001BE6FBF6BC06B75
:10336000C16B11ECA1F00001BD510001BC11CEE117
:103370000001BB05D8B0CAD7CA5000018B19FC0B9D
:103380008B19CA6ECA8471ECB3F000018B51010D28
:103390001C0EF324F66EFD0EF420F76EF86A000E94
:1033A000F8220800F5CF8AF0FF0E0001D4250301B2
:1033B000266FFF0E0001D5210301276FFF0E0001CC
:1033C000D6210301286FFF0E0001D7210301296FC9
:1033D00026C3BAF027C3BBF028C3BCF029C3BDF095
:1033E00000018A510001BE6FBF6BC06BC16B11EC55
:1033F000A1F00001BA5100018B6F8BC0CBFF12000E
:1034000051B29FEF9BF0000120EE04F07F51D926CE
:103410008051DA22DF502BECAFF00009D8B47AD01B
:103420007FC0D9FF80C0DAFFDE50DE10D8B46DD087
:103430007FC0D9FF80C0DAFF010EDBBE26D0010EAF
:10344000DB5003E1DE04D8A020D07FC0D9FF80C0CC
:10345000DAFFDE2804E17F0EDE18D8B407D07FC083
:10346000D9FF80C0DAFFDE06000EDD5A910E0001A2
:10347000C96F000E0001CA6F000E0001CB6F010E74
:103480000001CC6F8FEC9FF01FD07FC0D9FF80C0B0
:10349000DAFFDE0404E1800EDE18D8B407D07FC066
:1034A000D9FF80C0DAFFDE2A000EDD22910E000176
:1034B000C96F000E0001CA6F000E0001CB6F000E35
:1034C0000001CC6F8FEC9FF0910E0001C96F000ED0
:1034D0000001CA6F010E0001CB6F010E0001CC6F1D
:1034E0008FEC9FF0910E0001C96F000E0001CA6FB2
:1034F000010E0001CB6F000E0001CC6F8FEC9FF02E
:1035000059ECB2F052ECB3F0120059ECB2F07DEC91
:10351000B3F0120066C0BAF067C0BBF068C0BCF080
:1035200038ECB3F01200EAECADF04CEC86F0000E93
:103530000001BB6F640EBA6F34ECABF0000E0001FB
:10354000D46FC80ED36F82ECB2F0000E00016A6F28
:10355000000E696F0CD001ECB3F00001795100014D
:10356000692700017A5100016A2326ECB0F00001BE
:103570006ABF08D02C0E0001695D010E00016A5976
:10358000D8B010D000018751D8A40CD000018851C8
:10359000D8A408D000018651D8A404D000018551D8
:1035A000D8B4D9D7000EA0ECAEF0010E2BECAFF0E2
:1035B0000009D8B437D0FB0E0001CF6FFF0E000119
:1035C000D06F000E0001D26F230ED16F58EC92F035
:1035D0000D0E0001CF6FFF0E0001D06FFBC0D1F0C8
:1035E000FCC0D2F06BC0D3F06CC0D4F087C0D5F073
:1035F0000001D66B88C0D7F00001D86BBD0E00016A
:103600006B250001D96FFF0E00016C210001DA6FFC
:1036100058EC92F06CEC8FF059ECB2F00009D8A4A1
:10362000ABECAFF0000EEDECB2F0000EA0ECAEF0A3
:1036300012000001F535F6350001F86F0001F85170
:10364000D8A40AD0000E0001F36F000EF46F000E34
:10365000F56F000EF66F1200F3C000F1F4C001F137
:10366000F5C002F1F6C003F1200E06D00101D8909A
:103670000333023301330033E82EF8D70101005140
:103680000001F76F0001F58FFF0E0001F317FF0E29
:10369000F417FF0EF517000EF617960E0001F85FEF
:1036A0000001F8AF1AD00001F851800A970FD8B086
:1036B0000AD0000E0001F36F000EF46F000EF56FDC
:1036C000000EF66F12000001D890F633F533F43394
:1036D000F3330001F83FF7D71BD01F0E0001F86548
:1036E00012D0000E0001F36F000EF46F000EF56FA4
:1036F000000EF66F12000001D890F337F437F5375B
:10370000F6370001F8070001F8510001D8A4F3D7FB
:103710000001F7510001D8B409D00001F61FF51FD0
:10372000F41FF36D000EF423F523F623F3C0F3F03A
:10373000F4C0F4F0F5C0F5F0F6C0F6F012000001A8
:1037400020EE04F07F51D9268051DA22DF507BEC45
:10375000B0F00009D8B46AD07FC0D9FF80C0DAFFCA
:10376000DE50DE10D8B45DD07FC0D9FF80C0DAFF54
:10377000010EDBBE22D0010EDB5003E1DE04D8A037
:103780001CD07FC0D9FF80C0DAFFDE2804E17F0EA5
:10379000DE18D8B407D07FC0D9FF80C0DAFFDE06BC
:1037A000000EDD5A910E106E000E116E000E126E9C
:1037B000010E136E80ECA3F01BD07FC0D9FF80C038
:1037C000DAFFDE0404E1800EDE18D8B407D07FC033
:1037D000D9FF80C0DAFFDE2A000EDD22910E106EC6
:1037E000000E116E000E126E000E136E80ECA3F030
:1037F000910E106E000E116E010E126E010E136E00
:1038000080ECA3F0910E106E000E116E010E126E80
:10381000000E136E80ECA3F08CECB3F058ECB3F018
:1038200012008CECB3F089ECB3F0120066C001F02A
:1038300067C002F068C003F03FECB3F01200000173
:10384000BF6F57D0BBC036F0EDECA6F01200BBC086
:1038500035F01200BBC034F01200BBC033F01200D0
:10386000BBC032F01200BBC031F01200BBC030F060
:1038700012000001BC510001D8A405D0BBC022F346
:103880000301236B1200BBC024F30301256B03016A
:1038900022510001BE6FBD6B030124510001BD2503
:1038A0000001796F030125510001BE2100017A6FEB
:1038B00012000001BC510001D8A405D0BBC01EF30A
:1038C00003011F6B1200BBC020F30301216B030136
:1038D0001E510001BE6FBD6B030120510001BD25CB
:1038E0000001776F030121510001BE210001786FB3
:1038F00012000001BF51070AD8B4A4D70F0AD8B4E8
:10390000A6D7010AD8B4A6D7030AD8B4A6D7010A05
:10391000D8B4A6D7070AD8B4A6D7010AD8B4A6D770
:103920001E0AD8B4A6D7070AD8A41200C2D7EAEC58
:10393000ADF0010E2BECAFF00009D8B41200FB0E75
:103940000001CF6FFF0E0001D06F000E0001D26F9B
:10395000230ED16F58EC92F0950E0001CF6FFF0E41
:103960000001D06F75C0D1F076C0D2F087C0D3F01F
:103970000001D46B88C0D5F00001D66B58EC92F0F2
:103980006CEC8FF0000E0001E76F000EE66F000E8A
:103990000001D46FC80ED36F82ECB2F025D001ECD9
:1039A000B3F0000179510001E62700017A510001CE
:1039B000E723FB0E0001CF6FFF0E0001D06F000E5A
:1039C0000001D26F230ED16F58EC92F0ED0E000182
:1039D000CF6FFF0E0001D06FE6C0D1F0E7C0D2F08C
:1039E00058EC92F06CEC8FF00001E7BFD8D7880E4E
:1039F0000001E65D130E0001E759D8A0D0D7000EF4
:103A0000A0ECAEF059ECB2F00009D8B41200ABEC67
:103A1000AFF01200D5ECA3F052ECA0F053D062EC62
:103A200084F0FAD797EC9CF0F7D7E2ECB2F0F4D739
:103A300093EC9AF0F1D7010E2BECAFF00009D8B45B
:103A4000EBD7FB0E0001CF6FFF0E0001D06F000E11
:103A50000001D26F230ED16F58EC92F0D80E000106
:103A6000CF6FFF0E0001D06F58EC92F0C30E000133
:103A7000CF6FFF0E0001D06F58EC92F0C30E000123
:103A8000CF6FFF0E0001D06F58EC92F0C30E000113
:103A9000CF6FFF0E0001D06F58EC92F0C30E000103
:103AA000CF6FFF0E0001D06F58EC92F06CEC8FF0EE
:103AB00021ECAAF059ECB2F00009D8B4ADD7ABECC8
:103AC000AFF0AAD73CC3FEF33DC3FFF30301FF51A0
:103AD000000AD8A4B0D70301FE51010AD8B49FD779
:103AE000030AD8B49FD7010AD8B49FD7070AD8B41D
:103AF0009FD7A1D7000E0001E76F000EE86F800E80
:103B0000E96F440EEA6F330E0001EB6F330EEC6F7A
:103B1000530EED6F400EEE6F000120EE01F0E1510B
:103B2000D926E251DA22DECFE5F0DDCFE6F0E5C0BE
:103B3000BAF0E6C0BBF00001BC6BBD6B000E71ECCF
:103B400091F0BAC0EFF0BBC0F0F0BCC0F1F0BDC066
:103B5000F2F0EFC0BAF0F0C0BBF0F1C0BCF0F2C0C0
:103B6000BDF0E7C0BEF0E8C0BFF0E9C0C0F0EAC0F9
:103B7000C1F02DEC88F0BAC0EFF0BBC0F0F0BCC0D3
:103B8000F1F0BDC0F2F0EFC0C8F0F0C0C9F0F1C074
:103B9000CAF0F2C0CBF0EBC0CCF0ECC0CDF0EDC081
:103BA000CEF0EEC0CFF000EC80F0C8C0EFF0C9C09E
:103BB000F0F0CAC0F1F0CBC0F2F0EFC0E1F0F0C01D
:103BC000E2F0F1C0E3F0F2C0E4F01200C6C0CEF0C3
:103BD000C7C0CFF0000E0001CD6F000ECC6FC8C083
:103BE000CAF0C9C0CBF00001CE510001CF11D8A45A
:103BF00034D0CAC0D9FFCBC0DAFF300EDF6E000E62
:103C00000001CD6F010ECC6F40D0CEC0C1F0CFC04F
:103C1000C2F0000E0001C46F0A0EC36F67ECACF077
:103C20000001C151300FCAC0D9FFCBC0DAFFDF6E2F
:103C3000CEC0BAF0CFC0BBF0000E0001BD6F0A0EBF
:103C4000BC6FFCECA8F0BAC0CEF0BBC0CFF0000156
:103C5000CC4BCD2B0001CA4BCB2B0001CE51000128
:103C6000CF11D8B408D00001CD5105E1060E0001F6
:103C7000CC5DD8A0CAD7C8C0BAF0C9C0BBF0CCC010
:103C8000BCF0CDC0BDF0C9ECAAF00001CC510001E0
:103C9000C825D96E0001CD510001C921DA6E000E90
:103CA000DF6E1200E7C0D9FFE8C0DAFF000EDE6E5B
:103CB000000EDD6E000120EE02F0E751D926E8513A
:103CC000DA22000EDE6E000EDD6E000120EE04F042
:103CD000E751D926E851DA22E9C0DEFFEAC0DDFF6C
:103CE000910E0001E06F000E0001E16F000E000177
:103CF000E26F030E0001E36F39EC93F0910E0001C7
:103D0000E06F000E0001E16F010E0001E26F030E93
:103D10000001E36F39EC93F0910E0001C96F000EC2
:103D20000001CA6F000E0001CB6F000E0001CC6FC6
:103D30008FEC9FF0910E0001C96F000E0001CA6F59
:103D4000010E0001CB6F000E0001CC6F8FEC9FF0D5
:103D5000000E0001666F340E0001676F010E000156
:103D6000686FE80E0001C76F030EC86F000EC96FC1
:103D7000000ECA6FA0EC98F0120001010051010181
:103D80000111D8B412000101045101010511010112
:103D90000611D8B4120001010751010108110101F7
:103DA0000911D8B4120001010A5101010B110101DE
:103DB0000C11D8B412000101025101010311D8A461
:103DC00005D0000E0101036F010E026F00C1D9FF83
:103DD00001C1DAFF000EDF6E010120EE01F000519B
:103DE000D9260151DA22000EDF6E010120EE02F029
:103DF0000051D9260151DA2202C1DEFF03C1DDFFE5
:103E0000010120EE04F00051D9260151DA220AC145
:103E1000DEFF0BC1DEFF0CC1DEFF010120EE07F06B
:103E20000051D9260151DA2207C1DEFF08C1DEFFA9
:103E300009C1DEFF01D812000500FA6E010104512C
:103E4000FD6E0551FE6E0651FF6EFA501200000124
:103E5000C56F200E0001C55F0001C551050DF3CFF0
:103E6000C3F0F4CFC4F01F0E0001C3250001C66FDC
:103E7000FD0E0001C4210001C76F000E0001CA6FD2
:103E8000040E0001CA6501D043D0000E0001CB6FC3
:103E9000060E0001CB6501D035D0C6C0BAF0C7C050
:103EA000BBF0CBC0BCF096ECB0F00009D8A405D0B4
:103EB00083C0C8F084C0C9F004D0FDC0C8F0FEC003
:103EC000C9F00001CB510A0D640E0001C16F040E50
:103ED0000001C26FF3500001C127F4500001C2235A
:103EE0000001CA51020DF3500001C125D96EF450F2
:103EF0000001C221DA6EC8C0DEFFC9C0DDFF0001CB
:103F0000CB2BC6D70001C64BC72B0001CA2BB8D795
:103F1000640E0001BF6F040E0001C06F1200080E96
:103F20000001C9250001C66F000E0001CA21000171
:103F3000C76FCBC0C8F0E9ECAFF00001CD6F42D045
:103F4000010E0001CC17000120EE02F0C951D92664
:103F5000CA51DA22DECFBAF0DDCFBBF0CBC0BCF065
:103F6000CCC0BDF004ECACF01200010E0001CC1787
:103F7000010E0001CC1B000120EE02F0C951D92630
:103F8000CA51DA22DECFBAF0DDCFBBF0CBC0BCF035
:103F9000CCC0BDF004ECACF01200010E0001CC1757
:103FA000000120EE04F0C951D926CA51DA22DECF31
:103FB000BAF0DDCFBBF0CBC0BCF0CCC0BDF004ECA0
:103FC000ACF012000001CD51000AD8B41200010A71
:103FD000D8B4B6D7030AD8B4C8D7010AD8A41200F7
:103FE000DCD7000E0001C86FFA0E47240001BA6F3B
:103FF000FF0E48200001BB6F000E0001BD6F060ED2
:10400000BC6FB2ECA0F00001BA510001C96FC9C089
:10401000BAF00001BB6B000E0001BD6F040EBC6F57
:10402000B2ECA0F00001BA510001C76F000E000110
:10403000C86F06D04CECAFF0D1ECABF00001C82B50
:104040000001C751040DF31EF41EF34AF42A0001C7
:10405000C9510001C26FC36BF3500001C227F45075
:104060000001C3230001C21FC31FC24BC32B040E98
:104070000001C227000EC3230001C8510001C46F14
:10408000C56B0001C2510001C45D0001C551800A29
:104090000001C66F0001C351800A0001C659D8B0A3
:1040A0001200C8D721ECAAF0000E03013D6F000EEC
:1040B0003C6F23EE63F001D80AD00500FA6EDE50A3
:1040C000FD6EDE50FE6EDE50FF6EFA5012000009EB
:1040D000D8B405D0000E03013D6F010E3C6F23EEF6
:1040E0004FF001D80AD00500FA6EDE50FD6EDE50AA
:1040F000FE6EDE50FF6EFA5012000009D8B405D0F3
:10410000000E03013D6F020E3C6F23EE6DF001D8EF
:104110000AD00500FA6EDE50FD6EDE50FE6EDE50F7
:10412000FF6EFA5012000009D8B405D0000E03014A
:104130003D6F030E3C6F23EE59F001D80AD0050005
:10414000FA6EDE50FD6EDE50FE6EDE50FF6EFA50EF
:1041500012000009D8B41200000E03013D6F040ED6
:104160003C6F1200000E0001BF6F0001BDAF08D010
:104170000001BC6DBD1FD8B0BD2B010E0001BF6F8B
:104180000001BBAF08D00001BA6DBB1FD8B0BB2B7C
:10419000010E0001BF1B000E0001C16F000EC06FB9
:1041A0000001BC510001BD11D8B42CD0010E00019A
:1041B000BE6F06D00001D890BC37BD370001BE2BC2
:1041C0000001BDAFF7D70001D890C037C13700015B
:1041D000BC510001BA5D0001BD510001BB59D8A01E
:1041E0000AD00001BC510001BA5F0001BD510001BD
:1041F000BB5B0001C0810001D890BD33BC3300011E
:10420000BE2FE1D70001BF510001D8B405D0000195
:10421000C06DC11FD8B0C12BC0C0BAF0C1C0BBF0C7
:104220001200000E0001C26F000EC36F000EC46FBB
:10423000000EC56F0001BE510001BF110001C01189
:104240000001C111D8B442D0010E0001C66F08D0E0
:104250000001D890BE37BF37C037C1370001C62B29
:104260000001C1AFF5D70001D890C237C337C437BA
:10427000C5370001BE510001BA5D0001BF51000108
:10428000BB590001C0510001BC590001C1510001DE
:10429000BD59D8A012D00001BE510001BA5F000183
:1042A000BF510001BB5B0001C0510001BC5B0001BC
:1042B000C1510001BD5B0001C2810001D890C13332
:1042C000C033BF33BE330001C62FCDD7C2C0BAF052
:1042D000C3C0BBF0C4C0BCF0C5C0BDF01200000E2E
:1042E0000001BF6F000EBE6F38D0400E0001BE252A
:1042F000D96E030E0001BF21DA6EBBC0E1FFBCC066
:10430000E2FFE750EAEC8BF0DF6E400E0001BE25C5
:10431000D96E030E0001BF21DA6E800EDE18D8A41C
:104320000ED00001BE07D8A0BF07400E0001BE2579
:10433000D96E030E0001BF21DA6E000EDB8E000184
:10434000BB4BBC2B0001BE4BBF2B0001BF511AE180
:10435000060E0001BE5DD8B015D0BBC0D9FFBCC0F1
:10436000DAFFDF50D8B40ED0C0D7400E0001BE2512
:10437000D96E030E0001BF21DA6E000EDF6E000160
:10438000BE4BBF2B0001BF5106E1060E0001BE5D12
:10439000D8B01200EAD712000001BE51010D0F0E75
:1043A000F324F66EFD0EF420F76EF86A000EF82284
:1043B0000800F5CFC4F0000E0001C36F06D0000165
:1043C000BC510001BD5F0001C32B0001BC510001C5
:1043D000BD5DD8B0F4D70001BE510001BD03F3505C
:1043E000BD6F0001C3510001BD270001C451000190
:1043F000BF17BDC0C0F0C4C0C1F00001C02B03D0C6
:104400000001D890C1370001C02FFAD70001C15177
:10441000FF0A0001C26FBAC0D9FFBBC0DAFF0001BA
:10442000C251DF16BDC0C0F0BFC0C1F00001C02B3B
:1044300003D00001D890C1370001C02FFAD7BAC00D
:10444000D9FFBBC0DAFF0001C151DF121200000129
:10445000D26FCAC0BAF0CBC0BBF009ECAFF0BAC0A3
:10446000CAF0BBC0CBF0CCC0BAF0CDC0BBF009ECF9
:10447000AFF0BAC0CCF0BBC0CDF00001D25100010A
:10448000D8B429D0000E0001BB6F890EBA6FCBC023
:10449000CEF00001CF6BCEBFCF690001CE5100013D
:1044A000BC6FBD6B0001CA510001BE6FBF6BCDC0B8
:1044B000D0F00001D16BD0BFD1690001D051000113
:1044C000C06FC16B0001CC510001C26FC36B050E00
:1044D000FFECAAF01200890E2AECB3F00001CB51D8
:1044E0002AECB3F00001CA512AECB3F00001CD511F
:1044F0002AECB3F00001CC512AECB3F012008C0E80
:10450000F66E660EF76E010EF86E03EEEAF010EE30
:104510000CF00900F5CFEEFFE550E150FAE1F20EA4
:10452000F66E660EF76E010EF86E00EEF9F010EE04
:1045300007F00900F5CFEEFFE550E150FAE1BC0EBF
:10454000F66E660EF76E010EF86E00EE47F010EE96
:104550000AF00900F5CFEEFFE550E150FAE104EE74
:10456000AAF011EE2CF0EE6AE550E150FCE1E250C9
:10457000FAE104EE00F0AA0EEE6AE806FDE103EEB1
:1045800000F0EA0EEE6AE806FDE100EE60F05A0E79
:10459000EE6AE806FDE100EE29F01E0EEE6AE8067E
:1045A000FDE15190519200010AEF9DF00001DC6F96
:1045B000000E0001DE6F000EDD6F0001D8BF0DD0D0
:1045C0000001D85104E10001D705D8A006D0000EA3
:1045D0000001E06F010EDF6F03D00001D769D869D9
:1045E0000001DC510001D8B40CD0D9C0CAF0DAC047
:1045F000CBF0DFC0CCF0E0C0CDF0010E27ECA2F094
:104600001200D9C0CAF0DAC0CBF0DFC0CCF0E0C0F5
:10461000CDF0000E27ECA2F00AD00AECB3F00001B6
:1046200077510001DD27000178510001DE230001F0
:10463000D7510001DD5D0001DE51800A0001DB6F12
:104640000001D851800A0001DB59D8A0E6D7000E3E
:10465000A0ECAEF012000001C26F020E0001BF27F5
:10466000020E0001C127030E0001C227030E000144
:10467000C027000E0001BD6F2A0E90ECB1F0010EB4
:104680000001BD6F000E90ECB1F0010E0001BD6F96
:104690000001C25190ECB1F0010E0001BD6F000E9F
:1046A00090ECB1F0010E0001BD6F0001C05190EC23
:1046B000B1F0000E0001BD6F2B0E90ECB1F0010EB9
:1046C0000001BD6F000E90ECB1F0010E0001BD6F56
:1046D0000001BF5190ECB1F0010E0001BD6F000E62
:1046E00090ECB1F0010E0001BD6F0001C15190ECE2
:1046F000B1F0000E0001BD6F2C0E90ECB1F0120075
:10470000080E10240D6E000E11200E6E12C00FF058
:10471000F9ECB0F0146E3BD0010E131620EE02F04F
:104720001050D9261150DA22DECF01F0DDCF02F091
:1047300012C003F013C004F0C4ECADF01200010E7F
:104740001316010E131A20EE02F01050D926115044
:10475000DA22DECF01F0DDCF02F012C003F013C089
:1047600004F0C4ECADF01200010E131620EE04F0BC
:104770001050D9261150DA22DECF01F0DDCF02F041
:1047800012C003F013C004F0C4ECADF012001450DA
:10479000000AD8B41200010AD8B4BED7030AD8B4AC
:1047A000CED7010AD8A41200DFD774EC96F063ECE0
:1047B000B3F0010ECAECAFF00009D8B40CD033EC62
:1047C000A7F074EC90F034EC97F059ECB2F00009DB
:1047D000D8A4ABECAFF0080ECAECAFF00009D8B427
:1047E00013D0AF0E0001E76F000E0001E86F000E5E
:1047F0000001EA6F080EE96F52EC9EF059ECB2F03E
:104800000009D8A4ABECAFF0B50E0001BE6F000EEE
:104810000001BF6F000E0001C06FBFECA8F0B50E25
:104820000001BC6F000E0001BD6FBDECA7F0E2EC13
:10483000B1F023ECB3F00A0E4BECB2F0C3ECB1F0E4
:10484000000E0001BB6F140EBA6F34ECABF0120017
:104850000001BC6F38D0920E0001BA6F0F0E00013C
:10486000BB6F1200930E0001BA6F0F0E0001BB6FF9
:104870001200940E0001BA6F0F0E0001BB6F120000
:10488000950E0001BA6F0F0E0001BB6F1200960E5D
