:0614000055EF0AF0120096
:101408005182FACF17F0FBCF18F0E9CF19F0EACFE5
:101418001AF0E1CF1BF0E2CF1CF0D9CF1DF0DACFE4
:101428001EF0F3CF1FF0F4CF20F0F6CF21F0F7CF66
:1014380022F0F8CF23F0F5CF24F051C025F052C0A8
:1014480026F053C027F054C028F0F292F2B4F2AA62
:1014580002D000ECB1F028C054F027C053F026C0E9
:1014680052F025C051F024C0F5FF23C0F8FF22C078
:10147800F7FF21C0F6FF20C0F4FF1FC0F3FF1EC016
:10148800DAFF1DC0D9FF1CC0E2FF1BC0E1FF1AC074
:10149800EAFF19C0E9FF18C0FBFF17C0FAFF519215
:0614A80011007CEFA2F030
:10FC7E0000001180002C0100B1020035003600009A
:10FC8E00B202003500360000B30200350036000225
:10FC9E00003500360000B4000000C0A2000200844F
:10FCAE000000C1C50000C20D00000000C38D002A77
:10FCBE000000C48D00EE0000C50A000036C800002A
:10FCCE00E012001C001000180033002C0025002844
:10FCDE0000280027002F003C000000030003001046
:10FCEE00008000780000E112001C00100018002DAA
:10FCFE0000280023002800280026002F003B0000CB
:10FD0E0000030003001000003A0500002A00000264
:10FD1E000000008100002B000003000000A2000084
:10FD2E0029002C0200040008001000200040008072
:10FD3E0000000100010200010001000202000003A8
:10FD4E0003030001000A006400E80310270001030A
:10FD5E00070F1F3F7FFF0002010301041000000088
:10FD6E00000000005F00000007000700147F147FF2
:10FD7E0014242A7F2A12231308646236495522500E
:10FD8E000005030000001C2241000041221C000857
:10FD9E002A1C2A0808083E080800503000000808EF
:10FDAE00080808006060000020100804023E514957
:10FDBE00453E00427F400042615149462141454B3C
:10FDCE00311814127F1027454545393C4A494930B0
:10FDDE0001710905033649494936064949291E006C
:10FDEE003636000000563600000008142241141466
:10FDFE0014141441221408000201510906324979E3
:10FE0E00413E7E1111117E7F494949363E414141A5
:10FE1E00227F4141221C7F494949417F0909010145
:10FE2E003E414151327F0808087F00417F4100204A
:10FE3E0040413F017F081422417F404040407F02F5
:10FE4E0004027F7F0408107F3E4141413E7F090935
:10FE5E0009063E4151215E7F091929464649494905
:10FE6E003101017F01013F4040403F1F2040201FD4
:10FE7E007F2018207F631408146303047804036141
:10FE8E005149454300007F41410204081020414181
:10FE9E007F00000402010204404040404000010285
:10FEAE00040020545454787F484444383844444421
:10FEBE0020384444487F3854545418087E090102AF
:10FECE00081454543C7F0804047800447D400020FC
:10FEDE0040443D00007F10284400417F40007C04D8
:10FEEE001804787C0804047838444444387C14148C
:10FEFE001408081414187C7C08040408485454543C
:10FF0E0020043F4440203C4040207C1C2040201CCC
:10FF1E003C4030403C44281028440C5050503C4447
:10FF2E0064544C44000836410000007F000000413C
:10FF3E0036080008082A1C08081C2A080800FCFFBE
:10FF4E000F0000FFFFF0FF00FFFF00436C6F7365B3
:10FF5E0073742057616C6C3A25750A436C6F736528
:10FF6E00737420416E676C653A25750A4C6566742C
:10FF7E002042756D703A25750A526967687442752C
:10FF8E006D703A25750A00546F74616C2044697364
:10FF9E0074616E63653A25750A4C65667420427508
:10FFAE006D703A25750A52696768742042756D70D6
:10FFBE003A25750A002020202020202020202020F5
:10FFCE0020202020202020200A00506C65617365BF
:10FFDE002073656C656374206D6F64652E0A004432
:10FFEE00697374616E63653A2025640A00256300A7
:01FFFE000002
:020000040001F9
:1000000000018A51800B0001936F00018A518A25FB
:100010000001996F000189AF02D0000199810001B0
:1000200099510001D8B410D000019929D8A409D061
:10003000000E0001876F000E886F000E896F000EA2
:100040008A6F0001898F09D0000E0001876F000EB2
:10005000886F000E896F000E8A6F00018E51800B31
:100060000001931B00018E518E250001946F000149
:100070008DAF02D000019481000194510001D8B4E9
:1000800010D000019429D8A409D0000E00018B6F74
:10009000000E8C6F000E8D6F000E8E6F00018D8F25
:1000A00009D0000E00018B6F000E8C6F000E8D6F5B
:1000B000000E8E6F000194510001D8B405D00001EC
:1000C00099510001D8A40AD0000E0001876F000EDC
:1000D000886F000E896F000E8A6F120000018D512B
:1000E00000018703F3CF9EF0F4CF9FF000019E51F3
:1000F0000001956F966B976B986B00019F51000103
:100100009A6F9B6B9C6B9D6B00018C510001880367
:10011000F3CF9EF0F4CF9FF000019E510001952790
:10012000000E96239723982300019F5100019A27E0
:10013000000E9B239C239D2300018B51000189030A
:10014000F3CF9EF0F4CF9FF000019E510001952760
:10015000000E96239723982300019F5100019A27B0
:10016000000E9B239C239D2397C098F096C097F088
:1001700095C096F00001956B00018B51000188033A
:10018000F3CF9EF0F4CF9FF000019E510001952720
:1001900000019F5100019623000E00019723000EDD
:1001A0000001982300018C5100018703F3CF9EF0DA
:1001B000F4CF9FF000019E510001952700019F514F
:1001C00000019623000E00019723000E00019823E2
:1001D00097C098F096C097F095C096F00001956B87
:1001E00000018B5100018703F3CF9EF0F4CF9FF005
:1001F00000019E510001952700019F5100019623A7
:10020000000E00019723000E0001982300018D517C
:1002100000018803F3CF9EF0F4CF9FF000019E51C0
:1002200000019A2700019F5100019B23000E00014D
:100230009C23000E00019D2300018C5100018903C5
:10024000F3CF9EF0F4CF9FF000019E5100019A275A
:1002500000019F5100019B23000E00019C23000E12
:1002600000019D2300018D5100018903F3CF9EF011
:10027000F4CF9FF000019E5100018F6F00019F514C
:100280000001906F0001916B0001926B91C092F0A0
:1002900090C091F08FC090F000018F6B00018F51E2
:1002A00000019A270001905100019B230001915108
:1002B00000019C230001925100019D2395C08FF005
:1002C00096C090F097C091F098C092F0190E06D0A9
:1002D0000001D8909233913390338F33E82EF8D7C2
:1002E00000018F5100019A270001905100019B23CA
:1002F0000001915100019C230001925100019D23B6
:1003000097C098F096C097F095C096F00001956B55
:100310000001945199C08FF00001906B00018F276C
:10032000000E9023820E00018F2500019E6FFF0EAC
:100330000001902100019F6F15D00001D8909A37DD
:100340009B379C379D37000198AF02D000019A81FE
:100350000001D890953796379737983700019E0758
:10036000D8A09F0700019CAFE8D7000E0001946F52
:10037000000198AF24D0FF0E0001951500018F6F8A
:10038000FF0E000196150001906FFF0E00019715FA
:100390000001916F7F0E000198150001926F00011E
:1003A0008F51000190110001911100019211D8A408
:1003B00003D000019AA103D0010E0001946F000147
:1003C00094510001D8B423D0010E00019A27000EE9
:1003D0009B239C239D2300019DA119D09AC08FF0DF
:1003E0009BC090F09CC091F09DC092F000019235AE
:1003F0009233913390338F338FC09AF090C09BF03B
:1004000091C09CF092C09DF000019E4B9F2B00017B
:100410009FBF10D000019F5104E100019E29D8A088
:1004200009D0000E00019A6F000E9B6F800E9C6F2A
:100430007F0E2BD000019FBF07D000019F5111E11B
:1004400000019E05D8B00DD0000E00019A6F000E7D
:100450009B6F000E9C6F000E9D6F000E0001936F4E
:1004600015D09EC099F0FF0E00019A17FF0E9B1742
:100470007F0E9C17000E9D17000199A102D000016C
:100480009C8F0001D890993100019D6F000193511C
:1004900000019D139AC087F09BC088F09CC089F032
:1004A0009DC08AF01200FEECAFF0D7ECB2F0E0ECA9
:1004B000B2F00001E051D8A404D00001E151D8B459
:1004C00006D0000EBAECB2F0000E78ECAEF00001EF
:1004D000CDBF0BD00001CD5105E1540E0001CC5D24
:1004E000D8A003D0000E78ECAEF01EECAAF0000EFF
:1004F0000001C96F000EC86F030E0001FC6FE80E0B
:10050000FB6F000E0001C76F000EC66F000E0001EA
:10051000726F000E736FC80E746F430E756FC6C096
:1005200060F0C7C061F00001000E61BFFF0E626F96
:10053000636F010ECAEC91F060C06EF061C06FF0A5
:1005400062C070F063C071F086EC88F06EC087F016
:100550006FC088F070C089F071C08AF0000E000191
:100560008B6F000E8C6FB40E8D6F430E8E6F00EC90
:1005700080F087C000F388C001F389C002F38AC00D
:1005800003F3000E0001C56F000EC46F000E0001E2
:10059000FA6F080EF96F2BD10001C84BC92BF40E6E
:1005A0000001626F000E0001636FBAECA7F0F40E59
:1005B0000001A06F000E0001A16F77EC9DF0A0C0BC
:1005C000F2F3A1C0F3F3A2C0F4F3A3C0F5F3F2C3B6
:1005D00072F0F3C373F0F4C374F0F5C375F0000E5A
:1005E00000016E6F000E6F6F6C0E706F420E716FB8
:1005F00086EC88F06EC0B2F06FC0B3F070C0B4F09B
:1006000071C0B5F089EC9BF0B2C0C4F0B3C0C5F0C6
:10061000010E03ECAFF00009D8B40ED0C4C076F0E0
:10062000C5C077F02CECB1F064ECAFF031ECB2F077
:100630000009D8A483ECAFF00001FB510001C45DB8
:100640000001C551800A0001B86F0001FC51800A09
:100650000001B859D8B008D0C4C0FBF0C5C0FCF048
:10066000C8C0C6F0C9C0C7F0080E03ECAFF000095F
:10067000D8B41FD0C90E00017B6F030E00017C6F40
:10068000000E00017E6F320E7D6F17ECB1F0C90EC7
:100690000001636F030E0001646FFF0E0001666FBF
:1006A00065691BECB0F031ECB2F00009D8A483EC22
:1006B000AFF0000E0001FA6F0A0EF96F0001FABFE9
:1006C00063D00001FA5156E10001F905D8B052D0CB
:1006D0005BD0F40E0001626F000E0001636FBAEC94
:1006E000A7F0010E03ECAFF00009D8B40ED0C4C0DF
:1006F00076F0C5C077F02CECB1F064ECAFF031ECE3
:10070000B2F00009D8A483ECAFF0F40E0001A06FA2
:10071000000E0001A16F77EC9DF0A0C0F2F3A1C024
:10072000F3F3A2C0F4F3A3C0F5F3F2C372F0F3C382
:1007300073F0F4C374F0F5C375F0000E00016E6F32
:10074000000E6F6F6C0E706F420E716F86EC88F04A
:100750006EC0B2F06FC0B3F070C0B4F071C0B5F04D
:1007600089EC9BF0B2C0C4F0B3C0C5F00001F9073A
:10077000D8A0FA070001FABF07D00001FA51A9E199
:100780000001F905D8B0A5D7010E03ECAFF00009C0
:10079000D8B42DD0FB0E0001756FFF0E0001766FEF
:1007A000000E0001786F230E776FB1EC92F0590EB6
:1007B0000001756FFF0E0001766FFBC077F0FCC083
:1007C00078F0C6C079F0C7C07AF0E0C07BF00001D5
:1007D0007C6BE1C07DF000017E6BB1EC92F0C5EC6A
:1007E0008FF031ECB2F00009D8A483ECAFF0000137
:1007F000C9BFD2D6900E0001C85D010E0001C959D3
:10080000D8A0CAD6C6C060F0C7C061F00001000E13
:1008100061BFFF0E626F636F010ECAEC91F060C0A2
:1008200087F061C088F062C089F063C08AF0000E72
:1008300000018B6F000E8C6F400E8D6F3F0E8E6F20
:1008400000EC80F087C000F388C001F389C002F398
:100850008AC003F300C3B2F001C3B3F002C3B4F023
:1008600003C3B5F089EC9BF0B2C0C6F0B3C0C7F0CB
:10087000A60E0001C62500017D6FFF0E0001C721F5
:1008800000017E6F000E0001806FC80E7F6F000EAA
:10089000D3ECA2F009D0000E00017A6FC80E796F78
:1008A0005AECB2F0FEECAFF00001E051D8A40CD04D
:1008B0000001E151D8A408D00001DF51D8A404D030
:1008C0000001DE51D8B4E7D7000EBAECB2F0000E4A
:1008D00078ECAEF012000CD05C0E0001936F030EAA
:1008E00004D0670E0001936F030E0001946F08D0CF
:1008F00000019151000AD8B4EFD7010AD8B4F1D75A
:10090000000120EE02F09351D9269451DA2291C0D1
:10091000DFFFB1D0EA0E0001866F000E0001876F85
:10092000020E0001886F030E0001896F92EC93F0B4
:10093000EA0E0001866F000E0001876F030E0001B2
:10094000886F030E0001896F92EC93F0EA0E0001AC
:10095000866F000E0001876F050E0001886F030E81
:100960000001896F92EC93F0EA0E0001866F000E91
:100970000001876F040E0001886F000E0001896F6F
:1009800092EC93F0000120EE03F09351D92694519C
:10099000DA22C70EDE6E0F0EDD6E000120EE06F0CD
:1009A0009351D9269451DA22C60EDE6E0F0EDD6EFB
:1009B000000120EE09F09351D9269451DA22C90E94
:1009C00056D09A0E0001866F030E0001876F070E46
:1009D0000001886F030E0001896F92EC93F09A0E6C
:1009E0000001866F030E0001876F060E0001886FFD
:1009F000030E0001896F92EC93F09A0E0001866F4E
:100A0000030E0001876F040E0001886F030E0001C2
:100A1000896F92EC93F09A0E0001866F030E00012D
:100A2000876F050E0001886F000E0001896F92EC40
:100A300093F0000120EE03F09351D9269451DA226D
:100A40006D0EDE6E0F0EDD6E000120EE06F093518E
:100A5000D9269451DA226C0EDE6E0F0EDD6E000187
:100A600020EE09F09351D9269451DA226F0EDE6EF2
:100A70000F0EDD6E09D000019151000AD8B44AD79B
:100A8000010AD8A412009DD7000120EE06F0935170
:100A9000D9269451DA22DECF60F0DDCF61F0050E69
:100AA0000001626F000E0001636F01ECACF09CD09E
:100AB000000120EE06F09351D9269451DA22DECFC0
:100AC00060F0DDCF61F0040E0001626F000E0001E6
:100AD000636F01ECACF0000120EE03F09351D926D6
:100AE0009451DA22DECF60F0DDCF61F0060E000116
:100AF000626F000E0001636F01ECACF084D0000166
:100B000020EE06F09351D9269451DA22DECF60F020
:100B1000DDCF61F0040E0001626F000E0001636F13
:100B200001ECACF0000120EE03F09351D926945172
:100B3000DA22DECF60F0DDCF61F0060E0001626FD9
:100B4000010E0001636F01ECACF05DD0000120EEFE
:100B500006F09351D9269451DA22DECF60F0DDCF32
:100B600061F0040E0001626F010E0001636F01EC81
:100B7000ACF0000120EE03F09351D9269451DA2213
:100B8000DECF60F0DDCF61F0060E0001626F000E77
:100B90000001636F01ECACF036D0000120EE06F0EE
:100BA0009351D9269451DA22DECF60F0DDCF61F087
:100BB000040E0001626F010E0001636F01ECACF0E6
:100BC000000120EE03F09351D9269451DA22DECFB2
:100BD00060F0DDCF61F0060E0001626F010E0001D2
:100BE000636F01ECACF00FD000019251000AD8B451
:100BF0005FD7010AD8B483D7030AD8B4A7D7010AAC
:100C0000D8A41200CAD7000120EE06F09351D926CD
:100C10009451DA22DECF60F0DDCF61F0070E0001E3
:100C2000626F000E0001636F01ECACF0000120EE7A
:100C300006F09351D9269451DA22DECF60F0DDCF51
:100C400061F0060E0001626F000E0001636F01EC9F
:100C5000ACF08DC06DF08EC06EF08FC06FF090C0A4
:100C600070F0A9EC99F093C060F094C061F041EC91
:100C7000B1F004D09F860BD0A58E09D00001915110
:100C8000000AD8B4F7D7010AD8A41200F5D793C048
:100C900060F094C061F0A1ECB0F093C0D9FF94C0B3
:100CA000DAFF000EDF6E000120EE06F09351D92628
:100CB0009451DA22DECF6BF0DDCF6CF0000E000134
:100CC0006D6F030E00016E6F8AECB1F0000120EE33
:100CD00006F09351D9269451DA22DECF60F0DDCFB1
:100CE00061F0050E0001626F010E0001636F01ECFF
:100CF000ACF01200FEECAFF0D7ECB2F0E0ECB2F0EA
:100D00000001E051D8A404D00001E151D8B406D0CC
:100D1000000EBAECB2F0000E78ECAEF00001CDBFE0
:100D20000BD00001CD5105E1540E0001CC5DD8A0DF
:100D300003D0000E78ECAEF0010E03ECAFF000092A
:100D4000D8B429D0FB0E0001756FFF0E0001766F3D
:100D5000000E0001786F230E776FB1EC92F0950EC4
:100D60000001756FFF0E0001766FCEC077F0CFC027
:100D700078F0E0C079F000017A6BE1C07BF000010F
:100D80007C6BB1EC92F0C5EC8FF031ECB2F0000965
:100D9000D8A483ECAFF01EECAAF0000E0001C96FDE
:100DA000000EC86F030E0001FC6FE80EFB6F000E13
:100DB0000001C76F000EC66F000E0001C56F000E68
:100DC000C46F000E0001FA6F080EF96FF9D0000130
:100DD000C84BC92BF40E0001626F000E0001636F57
:100DE000BAECA7F0F40E0001A06F000E0001A16F95
:100DF00077EC9DF0A0C0F6F3A1C0F7F3A2C0F8F322
:100E0000A3C0F9F3F6C372F0F7C373F0F8C374F03C
:100E1000F9C375F0000E00016E6F000E6F6F6C0E5F
:100E2000706F420E716F86EC88F06EC0B2F06FC0CA
:100E3000B3F070C0B4F071C0B5F089EC9BF0B2C0F3
:100E4000C4F0B3C0C5F0010E03ECAFF00009D8B494
:100E50000ED0C4C076F0C5C077F02CECB1F064ECD5
:100E6000AFF031ECB2F00009D8A483ECAFF0000190
:100E7000FB510001C45D0001C551800A0301F26FFE
:100E80000001FC51800A0301F259D8B008D0C4C057
:100E9000FBF0C5C0FCF0C8C0C6F0C9C0C7F0080E62
:100EA00003ECAFF00009D8B420D0C90E00017B6F6D
:100EB000030E00017C6F000E00017E6F320E7D6F0D
:100EC00017ECB1F0C90E0001636F030E0001646FEF
:100ED000000E0001666F010E656F1BECB0F031EC87
:100EE000B2F00009D8A483ECAFF0000E0001FA6F55
:100EF0000A0EF96F0001FABF63D00001FA5156E102
:100F00000001F905D8B052D05BD0F40E0001626F39
:100F1000000E0001636FBAECA7F0010E03ECAFF016
:100F20000009D8B40ED0C4C076F0C5C077F02CEC60
:100F3000B1F064ECAFF031ECB2F00009D8A483EC6E
:100F4000AFF0F40E0001A06F000E0001A16F77EC6E
:100F50009DF0A0C0F6F3A1C0F7F3A2C0F8F3A3C0C0
:100F6000F9F3F6C372F0F7C373F0F8C374F0F9C382
:100F700075F0000E00016E6F000E6F6F6C0E706FDB
:100F8000420E716F86EC88F06EC0B2F06FC0B3F0A5
:100F900070C0B4F071C0B5F089EC9BF0B2C0C4F081
:100FA000B3C0C5F00001F907D8A0FA070001FABFE5
:100FB00007D00001FA51A9E10001F905D8B0A5D781
:100FC0000001C9BF04D7900E0001C85D010E0001E9
:100FD000C959D8A0FCD6080E03ECAFF00009D8B46C
:100FE0008AD0C90E00017B6F030E00017C6F000EDA
:100FF00000017E6F320E7D6F17ECB1F0C6C0F2F3C8
:10100000C7C0F3F30301F21FF31FF24BF32B900E53
:101010000301F2250301F46F010E0301F321030123
:10102000F56FC90E0001636F030E0001646FF4C316
:10103000F2F3F5C3F3F30301F21FF31FF24BF32BAB
:10104000F2C365F0F3C366F01BECB0F031ECB2F024
:101050000009D8B450D083ECAFF04DD0F40E0001AD
:10106000626F000E0001636FBAECA7F0010E03EC93
:10107000AFF00009D8B40ED0C4C076F0C5C077F088
:101080002CECB1F064ECAFF031ECB2F00009D8A474
:1010900083ECAFF0F40E0001A06F000E0001A16F11
:1010A00077EC9DF0A0C0F6F3A1C0F7F3A2C0F8F36F
:1010B000A3C0F9F3F6C372F0F7C373F0F8C374F08A
:1010C000F9C375F0000E00016E6F000E6F6F6C0EAD
:1010D000706F420E716F86EC88F06EC0B2F06FC018
:1010E000B3F070C0B4F071C0B5F089EC9BF0B2C041
:1010F000C4F0B3C0C5F00301CABF12000301CA5156
:10110000ADE10301C905D8A01200A8D700017151B3
:10111000800B00017A6F0001715171250001856F0C
:10112000000170AF02D000018581000185510001EE
:10113000D8B412D000018529D8A409D0000E00012E
:101140006E6F000E6F6F000E706F000E716F0001FA
:10115000708F000E000108D0000E00016E6F000EAF
:101160006F6F000E706F000E716F00017551800B74
:1011700000017A1B0001755175250001866F000181
:1011800074AF02D000018681000186510001D8B4FD
:1011900012D000018629D8A409D0000E0001726F78
:1011A000000E736F000E746F000E756F0001748F68
:1011B000000E000108D0000E0001726F000E736F68
:1011C000000E746F000E756F0001725100017311F3
:1011D0000001741100017511D8A417D0000E000190
:1011E0006E6F000E6F6F000E706F000E716F00015A
:1011F000800E70137F0E71136EC06EF06FC06FF0B3
:1012000070C070F071C071F01200000185510001D2
:10121000D8A412D0000E00016E6F000E6F6F000E8A
:10122000706F000E716F6EC06EF06FC06FF070C0A7
:1012300070F071C071F01200000186510001766FEC
:10124000776B0001761F771F764B772B0001855156
:101250000001786F796B0001765100017827000159
:101260007751000179237F0E0001782500017F6FFF
:10127000000E000179210001806F6EC07BF06FC00D
:101280007CF070C07DF071C07EF0000E00016E6FCA
:10129000000E6F6F000E706F000E716F000E000178
:1012A000816F000E826F000E836F000E846F000E40
:1012B0000001866F42D0000186510001D8B417D0DA
:1012C0000001D8907B377C377D377E370001D8907E
:1012D0006E376F3770377137000184AF02D000016D
:1012E0006E810001D89081378237833784370001BF
:1012F000725100017B5D0001735100017C590001B6
:10130000745100017D590001755100017E59D8A02A
:1013100012D00001848D0001725100017B5F000139
:10132000735100017C5B0001745100017D5B000181
:10133000755100017E5B0001862B190E0001866548
:10134000BAD700017B5100017C1100017D11000121
:101350007E11D8B418D00001818115D00001D89039
:101360006E376F3770377137000184AF02D00001DC
:101370006E810001D890813782378337843700012E
:101380007F07D8A08007000170AFE8D7000E0001EA
:10139000866F000184AF24D0FF0E0001811500018B
:1013A000766FFF0E000182150001776FFF0E0001BE
:1013B00083150001786F7F0E000184150001796F9D
:1013C00000017651000177110001781100017911B7
:1013D000D8A403D000016EA103D0010E0001866FD6
:1013E000000186510001D8B423D0010E00016E2700
:1013F000000E6F2370237123000171A119D06EC0FC
:1014000076F06FC077F070C078F071C079F00001AD
:101410007935793378337733763376C06EF077C0A9
:101420006FF078C070F079C071F000017F4B802BB5
:10143000000180BF14D00001805104E100017F2928
:10144000D8A00DD0000E0001806F7F69000E000152
:101450006E6F000E6F6F000E706F000E716F0001E7
:1014600080BF07D00001805115E100017F05D8B091
:1014700011D0000E0001806F000E7F6F000E000182
:101480006E6F000E6F6F000E706F000E716F000EAA
:1014900000017A6F7FC085F0000185A103D00001B3
:1014A000708F02D00001709F0001D890853100013B
:1014B000716F00017A51000171136EC06EF06FC040
:1014C0006FF070C070F071C071F01200080E000172
:1014D0006F2500016C6F000E0001702100016D6F1F
:1014E000000E00016E6FC1ECAFF00001866F0001CD
:1014F00086510001726F736B0E0ED8900001723727
:101500007337E82EFAD7000186510001746F756BAE
:101510000C0ED890000174377537E82EFAD7000109
:1015200086510001766F776B0A0ED89000017637EE
:101530007737E82EFAD7000186510001796F786B72
:101540000001865100017A6F7B6B060ED890000176
:101550007A377B37E82EFAD70001865100017C6F7D
:101560007D6B00017C3B7D3BF00E7D177C510F0BAA
:101570007D13F00E7C170001865100017E6F7F6B9A
:101580000001D8907E377F370001D8907E377F37B3
:10159000000186510001806F816B00017E510001C6
:1015A000801300017F510001811300017C51000173
:1015B000801300017D510001811300017A51000167
:1015C000801300017B51000181130001785100015B
:1015D000801300017951000181130001765100014F
:1015E0008013000177510001811300017451000143
:1015F0008013000175510001811300017251000137
:1016000080110001826F00017351000181110001FE
:10161000836F86C084F00001856B080E00016F2582
:1016200000016C6F000E0001702100016D6F010E52
:1016300000016E6FC1ECAFF00001726F736B0001BF
:10164000D890723773370001D89072377337000122
:101650007251000184130001735100018513080EBB
:1016600000016F2500016C6F000E00017021000168
:101670006D6F020E00016E6FC1ECAFF00001726F72
:10168000736B0001723B733BF00E731772510F0BBB
:101690007313F00E721700017251000184130001E0
:1016A000735100018513080E00016F2500016C6F56
:1016B000000E0001702100016D6F030E00016E6FBE
:1016C000C1ECAFF00001726F736B060ED890000191
:1016D00072377337E82EFAD7000172510001841374
:1016E0000001735100018513080E00016F250001F0
:1016F0006C6F000E0001702100016D6F040E00017F
:101700006E6FC1ECAFF00001726F00017251000109
:10171000746F736B000173510001841300017451E5
:1017200000018513080E00016F2500016C6F000E8B
:101730000001702100016D6F050E00016E6FC1EC9C
:10174000AFF00001726F736B0A0ED8900001723710
:101750007337E82EFAD7000172510001841300019B
:10176000735100018513080E00016F2500016C6F95
:10177000000E0001702100016D6F060E00016E6FFA
:10178000C1ECAFF00001726F736B0C0ED8900001CA
:1017900072377337E82EFAD70001725100018413B3
:1017A0000001735100018513080E00016F2500012F
:1017B0006C6F000E0001702100016D6F070E0001BB
:1017C0006E6FC1ECAFF00001726F736B0E0ED890AC
:1017D000000172377337E82EFAD700017251000109
:1017E000841300017351000185130001845100012D
:1017F000821948E10001855100018319D8A4120023
:1018000032D0000120EE02F06F51D9267051DA2259
:10181000DECF60F0DDCF61F071C062F007ECB3F0B5
:1018200012000001711F000120EE02F06F51D92655
:101830007051DA22DECF60F0DDCF61F071C062F06E
:1018400007ECB3F01200000120EE04F06F51D9262E
:101850007051DA22DECF60F0DDCF61F071C062F04E
:1018600007ECB3F0120000018651000AD8B4120050
:10187000010AD8B4C6D7030AD8B4D3D7010AD8A46A
:101880001200E1D712000001606F7ED03F0E1200FF
:10189000060E12005B0E12004F0E1200660E1200B2
:1018A0006D0E12007D0E1200070E12007F0E120048
:1018B0006F0E12005F0E12007C0E1200580E120006
:1018C0005E0E12007B0E1200710E12006F0E1200DF
:1018D000740E1200040E12000E0E12007A0E120088
:1018E000060E1200140E1200540E12005C0E1200AE
:1018F000730E1200670E1200500E12006D0E1200D1
:10190000780E12001C0E1200620E12002A0E120037
:10191000640E12006E0E12005B0E1200770E1200A3
:101920007F0E1200390E12003F0E1200790E1200C7
:10193000710E12003D0E1200760E1200060E1200FD
:101940001E0E1200570E1200380E1200760E1200F4
:10195000760E12003F0E1200730E12003F0E1200A0
:10196000770E12006D0E1200310E12003E0E1200A4
:101970003E0E12007E0E1200760E1200660E12004F
:101980005B0E1200800E1200000160512E0AD8B4C6
:10199000F9D71E0AD8B47AD7010AD8B479D7030A7E
:1019A000D8B478D7010AD8B477D7070AD8B476D78D
:1019B000010AD8B475D7030AD8B474D7010AD8B4C9
:1019C00073D70F0AD8B472D7010AD8B471D7780A7E
:1019D000D8B4A4D7030AD8B4A3D7010AD8B4A2D7DD
:1019E000070AD8B4A1D7010AD8B4A0D7030AD8B43B
:1019F0009FD7010AD8B49ED70F0AD8B49DD7010A41
:101A0000D8B49CD7030AD8B49BD7010AD8B49AD7C4
:101A1000070AD8B499D7010AD8B498D7030AD8B41A
:101A200097D7010AD8B496D71F0AD8B495D7010A18
:101A3000D8B494D7030AD8B493D7010AD8B492D7AC
:101A4000070AD8B491D7010AD8B490D7030AD8B4FA
:101A50008FD7010AD8B48ED70F0AD8B48DD7010A10
:101A6000D8B48CD7030AD8B48BD73B0AD8B422D7C2
:101A7000030AD8B421D7010AD8B420D7070AD8B4AA
:101A80001FD7010AD8B41ED7030AD8B41DD7010A3C
:101A9000D8B41CD70F0AD8B41BD7010AD8B41AD7A8
:101AA000030AD8B419D7010AD8B418D7070AD8B48A
:101AB00017D7010AD8B416D7030AD8B415D7010A24
:101AC000D8B414D71F0AD8B413D7010AD8B412D780
:101AD000030AD8B411D7010AD8B410D7070AD8B46A
:101AE0000FD7010AD8B40ED7030AD8B40DD7010A0C
:101AF000D8B40CD70F0AD8B40BD7010AD8B40AD778
:101B0000030AD8B409D7000E1200050E00019A6F1F
:101B1000C7D0000120EE02F09651D9269751DA2263
:101B2000DECF6BF0DDCF6CF098C06DF00F0E0001D2
:101B30006E6F8AECB1F0000120EE04F09651D926C8
:101B40009751DA22DECF6BF0DDCF6CF098C06DF0EC
:101B5000000E00016E6F8AECB1F0B0D096C08FF02D
:101B600097C090F098C091F0030E0001926FC3EC03
:101B7000ACF000019A6F00019A51D8A41200000144
:101B800020EE02F09651D9269751DA22DECF6BF083
:101B9000DDCF6CF098C06DF0000E00016E6F8AEC26
:101BA000B1F0000120EE04F09651D9269751DA22C7
:101BB000DECF6BF0DDCF6CF098C06DF0000E000151
:101BC0006E6F8AECB1F07AD096C08FF097C090F02B
:101BD00098C091F0030E0001926FC3ECACF00001CD
:101BE0009A6F00019A51D8A41200000120EE02F071
:101BF0009651D9269751DA22DECF6BF0DDCF6CF00B
:101C000098C06DF00F0E00016E6F8AECB1F000010C
:101C100020EE04F09651D9269751DA22DECF6BF0F0
:101C2000DDCF6CF098C06DF00F0E00016E6F8AEC86
:101C3000B1F044D096C08FF097C090F098C091F06A
:101C4000030E0001926FC3ECACF000019A6F00012B
:101C50009A51D8A41200000120EE02F09651D92624
:101C60009751DA22DECF6BF0DDCF6CF098C06DF0CB
:101C7000000E00016E6F8AECB1F0000120EE04F05E
:101C80009651D9269751DA22DECF6BF0DDCF6CF07A
:101C900098C06DF0000E00016E6F8AECB1F00ED0AE
:101CA00000019951000AD8B434D7010AD8B456D7E4
:101CB000030AD8B489D7010AD8B4BCD7080E0001EA
:101CC000962500016F6F000E000197210001706FD3
:101CD00000019851040DF3CF71F099C072F09BECA4
:101CE000AEF0080E0001962500016F6F000E000196
:101CF00097210001706F00019851040DF328000135
:101D0000716F99C072F09BECAEF0080E0001962541
:101D100000016F6F000E000197210001706F00013C
:101D20009851040DF350020F0001716F99C072F0C9
:101D30009BECAEF0080E0001962500016F6F000EBF
:101D4000000197210001706F00019851040DF350BC
:101D5000030F0001716F99C072F09BECAEF012009E
:101D6000050E00019F6F7AD0000120EE02F09A511B
:101D7000D9269B51DA22DECF9DF0DDCF9EF09DC0AB
:101D8000D9FF9EC0DAFFFF0E67D09AC096F09BC0C5
:101D900097F0010E0001986F0CECAEF000019F6F00
:101DA00000019F51D8A41200000120EE02F09A51C8
:101DB000D9269B51DA22DECF9DF0DDCF9EF09DC06B
:101DC000D9FF9EC0DAFF000EDF6E000120EE04F0A6
:101DD00036D09AC096F09BC097F0020E0001986F23
:101DE0000CECAEF000019F6F00019F51D8A41200CF
:101DF000000120EE02F09A51D9269B51DA22DECF63
:101E00009DF0DDCF9EF09DC0D9FF9EC0DAFFFF0E92
:101E1000DF6E000120EE04F0AAD79AC096F09BC0B6
:101E200097F0000E0001986F0CECAEF000019F6F70
:101E300000019F51D8A41200000120EE02F09A5137
:101E4000D9269B51DA22DECF9DF0DDCF9EF09DC0DA
:101E5000D9FF9EC0DAFF000EDF6E0ED000019C514C
:101E6000000AD8B481D7010AD8B48FD7030AD8B4EE
:101E7000B0D7010AD8B4D1D7080E00019A250001C5
:101E80006F6F000E00019B210001706F000E0001BA
:101E9000716F9CC072F09BECAEF0080E00019A25A9
:101EA00000016F6F000E00019B210001706F010E99
:101EB0000001716F9CC072F09BECAEF0080E000147
:101EC0009A2500016F6F000E00019B210001706FC9
:101ED000020E0001716F9CC072F09BECAEF0080E18
:101EE00000019A2500016F6F000E00019B21000187
:101EF000706F030E0001716F9CC072F09BECAEF02E
:101F0000080E00019A2500016F6F000E00019B2151
:101F10000001706F040E0001716F9CC072F09BECA9
:101F2000AEF0080E00019A2500016F6F000E00014F
:101F30009B210001706F050E0001716F9CC072F053
:101F40009BECAEF0080E00019A2500016F6F000EA9
:101F500000019B210001706F060E0001716F9CC093
:101F600072F09BECAEF0080E00019A2500016F6F35
:101F7000000E00019B210001706F070E0001716FC0
:101F80009CC072F09BECAEF012000001FF51D8B47F
:101F90001200E6C386F0E7C387F0E8C388F0E9C320
:101FA00089F00001E951D8B405D0E7C085F00F0EE3
:101FB0000001E76F000E00018B6FDFD000018B5135
:101FC000020D000EF324D96E040EF420DA6EDECF7B
:101FD000FDF0DDCFFEF0000E00018A6F130E000150
:101FE0008A6501D0BED000018B51140DC80E0001CE
:101FF000836F040E0001846FF35000018327F450B7
:102000000001842300018A51010DF3500001832552
:10201000D96EF45000018421DA6EDFAE9AD000014F
:102020008B51140DC80E0001836F040E0001846FE4
:10203000F35000018327F4500001842300018A51EA
:10204000010DF35000018325D96EF4500001842165
:10205000DA6E7F0EDF1600018B51140DC80E0001E1
:10206000836F040E0001846FF35000018327F45046
:102070000001842300018A51010DF35000018325E2
:10208000D96EF45000018421DA6EDF50D8B44AD002
:10209000DCC069F0DDC06AF086C06BF087C06CF010
:1020A00088C06DF089C06EF0EEC36FF0EFC370F0C2
:1020B000F0C371F0F1C372F070ECA9F000018B5124
:1020C000140DC80E0001836F040E0001846FF350DD
:1020D00000018327F4500001842300018A51010D7F
:1020E000F35000018325D96EF45000018421DA6E8B
:1020F000DF5024EC9FF065C072F066C073F086C0BC
:1021000074F087C075F088C076F089C077F0EEC3B0
:1021100078F0EFC379F0F0C37AF0F1C37BF01EECF6
:10212000A5F017D0000E00016A6F000E696F86C01F
:102130006BF087C06CF088C06DF089C06EF0EEC3A4
:102140006FF0EFC370F0F0C371F0F1C372F070EC98
:10215000A9F0060E00018627000E872300018A2BB6
:102160003DD7080E00018827000E8923000E0001CC
:10217000876F060E866F00018B2B00018B510001CB
:10218000E75DD8B01BD70001E951D8B41200000EAA
:102190000001E96F85C0E7F01200520E00019B6F4D
:1021A000030E00019C6F000E00019E6F020E9D6FDA
:1021B000AC0E00019F6F660E0001A06F010E0001C2
:1021C000A16FE40E0001A26F640E0001A36F010E67
:1021D0000001A46F040E0001A56F140E0001A66F8C
:1021E000000E0001A76FBAEC9EF0340E00019B6F49
:1021F000030E00019C6F000E00019E6F020E9D6F8A
:10220000AC0E00019F6F660E0001A06F010E000171
:10221000A16F440E0001A26F650E0001A36F010EB5
:102220000001A46F040E0001A56F140E0001A66F3B
:10223000000E0001A76FBAEC9EF02A0E00019B6F02
:10224000030E00019C6F000E00019E6F020E9D6F39
:10225000AC0E00019F6F660E0001A06F010E000121
:10226000A16F2C0E0001A26F650E0001A36F010E7D
:102270000001A46F040E0001A56F140E0001A66FEB
:10228000000E0001A76FBAEC9EF03E0E00019B6F9E
:10229000030E00019C6F000E00019E6F020E9D6FE9
:1022A000AC0E00019F6F660E0001A06F010E0001D1
:1022B000A16F140E0001A26F650E0001A36F010E45
:1022C0000001A46F040E0001A56F140E0001A66F9B
:1022D000000E0001A76FBAEC9EF0480E00019B6F44
:1022E000030E00019C6F000E00019E6F020E9D6F99
:1022F000AC0E00019F6F660E0001A06F010E000181
:10230000A16FFC0E0001A26F640E0001A36F010E0D
:102310000001A46F040E0001A56F140E0001A66F4A
:10232000000E0001A76FBAEC9EF0A00E00018D6FA9
:10233000860E8E6F010E8F6F000E906F000E0001E3
:10234000916F020E0001926F6BEC84F05C0E000145
:102350006F6F030E0001706FE4ECA9F0000E000136
:10236000A96F000EA86F0001A95113E1080E00012A
:10237000A85DD8B01200220E0001A825D96E030E68
:102380000001A921DA6E000EDF6E0001A84BA92B17
:10239000EAD712000001686F000168510001D8B44B
:1023A0001ED0000163AF1BD060C064F061C065F057
:1023B00062C066F063C067F00001641F651F661F9E
:1023C000671F642B000E65236623672364C06AF0D1
:1023D00065C06BF066C06CF067C06DF008D060C07F
:1023E0006AF061C06BF062C06CF063C06DF0000118
:1023F0006051000161110001621100016311D8A454
:102400000AD0000E0001606F000E616F000E626F57
:10241000000E636F1200960E0001696F08D0000174
:10242000692B0001D8906D336C336B336A33000E27
:1024300000016A150001646F000E00016B150001B8
:10244000656F000E00016C150001666FFE0E000145
:102450006D150001676F00016451000165110001F5
:10246000661100016711D8B410D0D9D70001692BCB
:10247000010E00016A27000E6B236C236D230001FF
:10248000D8906D336C336B336A33000E00016A15DC
:102490000001646F000E00016B150001656F000EF6
:1024A00000016C150001666FFF0E00016D15000143
:1024B000676F0001645100016511000166110001A0
:1024C0006711D8B409D0D2D7000169070001D890AC
:1024D0006A376B376C376D3700016CBF04D0020E62
:1024E00000016961F1D7000169B109D0FF0E000157
:1024F0006A17FF0E6B177F0E6C17FF0E6D1700012A
:10250000D890693369C064F00001656B666B676BD6
:1025100064C067F00001666B656B646B0001645119
:1025200000016A130001655100016B13000166513F
:1025300000016C130001675100016D130001685127
:102540000001D8B405D0000163AF02D000016D8F47
:102550006AC060F06BC061F06CC062F06DC063F087
:102560001200770E0001826F000E0001836FC9D048
:10257000250E00018619D8B405D000018651F2EC71
:10258000B2F0BFD0000E0001816F14D082C0D9FF1D
:1025900083C0DAFFDF500001866F020E0001822740
:1025A000000E832300018651F2ECB2F0AAD00001A4
:1025B000818D1ED075C0F6FF76C0F7FF0001754B08
:1025C000762B000EF86E0800F5CF86F000018651DC
:1025D000000AD8B41200630AD8B4D8D7070AD8B40E
:1025E00007D00D0AD8B404D01C0AD8B4E0D7DAD783
:1025F000000181BD19D082C0D9FF83C0DAFFDECFD0
:1026000084F0DDCF85F0020E00018227000E8323C7
:10261000000185AF16D0030E000181130001846D07
:10262000851FD8B0852B0DD082C0D9FF83C0DAFFBB
:10263000DECF84F0DDCF85F0020E00018227000E90
:102640008323010E0001866F050E00018619D8B4A0
:1026500019D000018651020D510EF324F66EFD0EC5
:10266000F420F76EF86A000EF8220900F550000118
:10267000845D0900F55000018559D8A003D0000100
:10268000862BE2D781C07FF0030E00017F17D8B4FC
:1026900003D02D0EF2ECB2F086C080F02CD00001F9
:1026A0008051020D510EF324F66EFD0EF420F76EEC
:1026B000F86A000EF8220900F5CF62F00A00F5CFA3
:1026C00063F084C060F085C061F0F9ECA8F060C0F0
:1026D00067F061C068F0000E00016A6F0A0E696F52
:1026E00064ECACF000016751300F0001866F00010F
:1026F0008651F2ECB2F00001800700018029D8A4D5
:10270000CED775C0F6FF76C0F7FF0001754B762B6C
:10271000000EF86E0800F5CF86F000018651D8B49F
:10272000120026D786C0D9FF87C0DAFFDECF8BF034
:10273000DDCF8CF0050E00018A6FB5D0000120EED0
:1027400002F08651D9268751DA22DECF60F0DDCF44
:1027500061F088C062F0010E0001636F01ECACF023
:10276000B0D08BC06FF08CC070F0010E0001716FA3
:1027700088C072F07EECA8F000018A6F00018A51D7
:10278000D8A41200000120EE02F08651D92687510C
:10279000DA22DECF60F0DDCF61F088C062F0000E9B
:1027A0000001636F01ECACF0000120EE04F08651F3
:1027B000D9268751DA22DECF60F0DDCF61F088C004
:1027C00062F0000E0001636F01ECACF07AD08BC0B8
:1027D0006FF08CC070F0020E0001716F88C072F053
:1027E0007EECA8F000018A6F00018A51D8A4120083
:1027F000000120EE02F08651D9268751DA22DECF81
:1028000060F0DDCF61F088C062F0010E0001636FFF
:1028100001ECACF0000120EE04F08651D92687517E
:10282000DA22DECF60F0DDCF61F088C062F0010E09
:102830000001636F01ECACF044D08BC06FF08CC032
:1028400070F0000E0001716F88C072F07EECA8F08D
:1028500000018A6F00018A51D8A41200000120EE05
:1028600002F08651D9268751DA22DECF60F0DDCF23
:1028700061F088C062F0000E0001636F01ECACF003
:10288000000120EE04F08651D9268751DA22DECFEE
:1028900060F0DDCF61F088C062F0000E0001636F70
:1028A00001ECACF00ED000018951000AD8B446D733
:1028B000010AD8B456D7030AD8B489D7010AD8B4C4
:1028C000BCD7080E0001862500016F6F000E0001C5
:1028D00087210001706F88C071F089C072F09BEC95
:1028E000AEF012000001736FB1D070ECA5F01200D1
:1028F00095ECACF01200A3ECA6F01200EEEC9FF009
:102900001200CEECABF01200ABECB1F0120073C0D1
:1029100070F07F0E000170170001E751140DC80E12
:102920000001716F040E0001726FF35000017127F6
:10293000F450000172230001E851010DF350000131
:102940007125D96EF45000017221DA6EDF507F0BD1
:1029500000017019D8B42ED0010E0001FF6F0001E4
:10296000E751140DC80E0001706F040E0001716F65
:10297000F35000017027F450000171230001E85169
:10298000010DF35000017025D96EF4500001712142
:10299000DA6E000173518009DF6E0001E751020D0C
:1029A000000EF324D96E040EF420DA6EFDC0DEFFB3
:1029B000FEC0DDFFCEECABF00009D8B4120073C04E
:1029C00070F07F0E000170170001E751140DC80E62
:1029D0000001716F040E0001726FF3500001712746
:1029E000F450000172230001E851010DF350000181
:1029F0007125D96EF45000017221DA6EDF507F0B21
:102A000000017019D8B41200010E0001FF6F00011F
:102A1000E751140DC80E0001706F040E0001716FB4
:102A2000F35000017027F450000171230001E851B8
:102A3000010DF35000017025D96EF4500001712191
:102A4000DA6E000173518009DF6E120000017351CC
:102A5000070AD8B456D70F0AD8B44AD7010AD8B44F
:102A60004DD7030AD8B441D7060AD8B444D7010ACF
:102A7000D8B43BD72D0AD8B44AD7030AD8B444D720
:102A800046D70001A25178ECA4F0A0C0D9FFA1C0A4
:102A9000DAFF000160C0DEFF000161C0DDFF000160
:102AA000A251CBECA4F0000120EE06F0A051D926F3
:102AB000A151DA22000160C0DEFF000161C0DDFF2C
:102AC0000001A251CBECA4F0000120EE04F0A051D3
:102AD000D926A151DA22000160C0DEFF000161C0E9
:102AE000DDFF0001A25125ECA4F0000120EE02F070
:102AF000A051D926A151DA22000160C0DEFF0001F9
:102B000061C0DDFF000120EE04F0A051D926A151E3
:102B1000DA22DECFA3F0DDCFA4F0A3C0D9FFA4C09A
:102B2000DAFF000EDF6E000120EE02F0A051D92680
:102B3000A151DA22DECFA3F0DDCFA4F0A3C0D9FFEC
:102B4000A4C0DAFFFF0EDF6EA0C09AF0A1C09BF018
:102B5000000E00019C6FB0EC8EF0000E0001A56F1E
:102B6000070E0001A56531D04BD0A0C086F0A1C0F2
:102B700087F0A5C088F0030E0001896F92EC93F0F6
:102B80003CD0A0C086F0A1C087F0A5C088F0020E9E
:102B90000001896F92EC93F030D0A0C086F0A1C004
:102BA00087F0A5C088F0010E0001896F92EC93F0C8
:102BB00024D0A0C086F0A1C087F0A5C088F0000E88
:102BC0000001896F92EC93F018D0A0C0D9FFA1C08A
:102BD000DAFFDECF6CF0DDCF6DF0A5C06EF0C1EC9A
:102BE000AFF0000AD8B4C1D7010AD8B4D6D7030AC7
:102BF000D8B4C7D7010AD8B4DCD70001A52BB0D709
:102C0000A0C06FF0A1C070F0000E0001716F66EC03
:102C10008AF012000001786F000E0001776F000E3D
:102C200000017B6F660E0001756F000E0001766F6C
:102C3000950E00ECB3F00001785100ECB3F0000EFB
:102C400000017C6F23D075C0D9FF76C0DAFFDF505A
:102C50000001796F020E00017527000E7623000136
:102C600079519BECABF00001772700017C51010DFD
:102C7000000EF324D96E020EF420DA6E79C0DFFF65
:102C80000001795100ECB3F000017C2B0001785178
:102C900000017C5DD8A0D7D7000E00017C6F0ED05C
:102CA00000017C51010D000EF324D96E010EF420B9
:102CB000DA6E43ECB3F0DF6E00017C2B000177513C
:102CC00000017C5DD8A0ECD7000E00017C6F5ED0C7
:102CD0007BC07AF021D000017A51010D000EF3245F
:102CE000D96E010EF420DA6EDF500001616F000131
:102CF0007B51000800017A250001626F00017C51C0
:102D0000010D000EF324D96E020EF420DA6EDF50AE
:102D10008FEC9CF000017A2B00017C51010D000E1C
:102D2000F324D96E020EF420DA6EDF509BECABF088
:102D30000001706F716B00017B5100017027000E64
:102D4000712300017A510001726F736B00017051A1
:102D50000001725D00017351800A0001746F00016F
:102D60007151800A00017459D8A0B5D700017C5177
:102D7000010D000EF324D96E020EF420DA6EDF503E
:102D80009BECABF000017B2700017C2B000178510C
:102D900000017C5DD8B012009BD7010E4B6E000E77
:102DA0000001BC6F000E0001BD6F000E0001BE6F80
:102DB000AE0E0001A06F030E0001A16F000E000116
:102DC000A26F41EC95F0A40E0001A06F030E00016C
:102DD000A16F010E0001A26F41EC95F0EA0E000117
:102DE000A06F000E0001A16F020E0001A26F41EC66
:102DF00095F09A0E0001A06F030E0001A16F030E63
:102E00000001A26F41EC95F0900E0001A06F030E3F
:102E10000001A16F040E0001A26F41EC95F0B80E05
:102E20000001A06F030E0001A16F050E0001A26F4B
:102E300041EC95F0860E0001A06F030E0001A16F1A
:102E4000060E0001A26F41EC95F0B80E0001866FEE
:102E5000030E0001876F050E0001886F000E000150
:102E6000896F92EC93F0A40E0001966F030E00019F
:102E7000976F000E0001986F000E0001996F85ECAE
:102E80008DF0B80E0001866F030E0001876F060EED
:102E90000001886F030E0001896F92EC93F0860E9B
:102EA00000019A6F030E00019B6F030E00019C6FDF
:102EB000B0EC8EF0860E00016F6F030E0001706F94
:102EC000040E0001716F000E0001726F8CEC9FF018
:102ED000B80E00016F6F030E0001706F060E000147
:102EE000716F010E0001726F8CEC9FF0000E33ECDD
:102EF000ACF0010E33ECACF0000E9E6E000EA16E35
:102F0000000EA46E9B8E9B8C000E0001616F640E00
:102F1000606F31ECABF0D08E120058ECAAF0000ECE
:102F20000001986F000E976F0001985106E1590E4D
:102F30000001975DD8B08BD001D089D0D890000126
:102F40009735F66E00019835F76E7F0EF626FC0E6B
:102F5000F722F86A000EF8220900800EF518090021
:102F6000F510D8A422D0000198511FE1580E00019D
:102F7000975DD8B01AD00001974B982BD8900001DC
:102F80009735F66E00019835F76E7F0EF626FC0E2B
:102F9000F722F86A000EF8220900F5CF60F00A0067
:102FA000F5CF61F031ECABF04BD0D8900001973504
:102FB000F66E00019835F76E7F0EF626FC0EF722AE
:102FC000F86A000EF8220900000EF55E0900010EF5
:102FD000F55AD8A020D0000E0001636FD8900001F0
:102FE0009735F66E00019835F76E7F0EF626FC0ECB
:102FF000F722F86A000EF8220900F5CF95F00900D3
:10300000F5CF96F096C095F00001966B00019551B2
:1030100068ECB1F015D0010E0001636FD89000018B
:103020009735F66E00019835F76E7F0EF626FC0E8A
:10303000F722F86A000EF8220800F55068ECB1F0AB
:103040000001974B982B0001985101E170D7000EB9
:103050000001616F640E606F31ECABF0000E000197
:10306000636F290E68ECB1F0010E0FECA6F0000EB4
:103070000001616F640E606F31ECABF0000E000177
:103080006A6F000E696F1CECADF01200000120EEBB
:1030900007F07B51D9267C51DA2201D80AD00500ED
:1030A000FA6EDE50FD6EDE50FE6EDE50FF6EFA50A0
:1030B00012000001836F7BC0D9FF7CC0DAFF0001E2
:1030C0008351DE18D8A421D0000120EE01F07B51FD
:1030D000D9267C51DA2200017D51DE5CD8B00AD0BD
:1030E000000120EE01F07B51D9267C51DA22000E3E
:1030F000DF6E1200000120EE01F07B51D9267C51D9
:10310000DA2200017D51DF5E1200000120EE01F0A5
:103110007B51D9267C51DA22DF5000017E6F7F6B14
:1031200000017D5100017E27000E7F23000120EE6B
:1031300001F07B51D9267C51DA22DF500001806FEB
:10314000816B00017E510001805D00018151800A88
:103150000001826F00017F51800A00018259D8B0BE
:103160001200000120EE01F07B51D9267C51DA22B9
:1031700000017D51DF26000120EE02F07B51D926AF
:103180007C51DA22000110EE01F07B51E1267C51E6
:10319000E222E7500001806F816BDE500001805D0C
:1031A000DE5000018159D8A012007BC0D9FF7CC03D
:1031B000DAFF83C0DFFF000120EE01F07B51D9264A
:1031C0007C51DA22000EDF6E000120EE04F07B510C
:1031D000D9267C51DA2201D812000500FA6EDE50A1
:1031E000FD6EDE50FE6EDE50FF6EFA500001835120
:1031F0001200800E0001736F8D0E746F5B0E756F81
:10320000000E766FD59E00016D5100016E11000118
:103210006F1100017011D8B41200D596D59CD59AC3
:10322000D59873C060F074C061F075C062F076C06C
:1032300063F06DC064F06EC065F06FC066F070C082
:1032400067F00EECA1F060C077F061C078F062C06A
:1032500079F063C07AF00CD00001E62B020E000179
:10326000E66501D02FD0070E0001E66501D01200FF
:1032700077C060F078C061F079C062F07AC063F026
:103280000001E651020D310EF324F66EFD0EF4201E
:10329000F76EF86A000EF8220900F5CF71F0090008
:1032A000F5CF72F071C064F072C065F00001666B1A
:1032B000676B0EECA1F000016351CEE100016205E5
:1032C000D8B0CAD70001E651020D310EF324F66ED4
:1032D000FD0EF420F76EF86A000EF8220800F5CF14
:1032E000E5F0FF0E000177250301106FFF0E0001CE
:1032F00078210301116FFF0E000179210301126F84
:10330000FF0E00017A210301136F10C360F011C397
:1033100061F012C362F013C363F00001E5510001D4
:10332000646F656B666B676B0EECA1F00001601F4C
:103330000001611F0001604B612BFF0E0001602541
:10334000296EFF0E000161212A6E22ECB3F0D58EAA
:103350001200000E0001766F6C0E776FDC0E786F36
:10336000020E796F0001D8906D376E376F37703766
:10337000020E0001716FD8900001793378337733F2
:1033800076330001712FF7D776C060F077C061F017
:1033900078C062F079C063F06DC064F06EC065F013
:1033A0006FC066F070C067F00EECA1F060C07AF0FC
:1033B00061C07BF062C07CF063C07DF010D0000E75
:1033C0000001726F000E736F000E746F000E756F48
:1033D0000001E42B020E0001E46501D026D07AC082
:1033E00060F07BC061F07CC062F07DC063F00001E2
:1033F000E451010D680EF324F66EFD0EF420F76E15
:10340000F86A000EF8220800F5500001646F656B41
:10341000666B676B0EECA1F0000163510001621155
:10342000CEE100016105D8B0CAD7CA500001E41945
:10343000FC0BE419CA6ECA8447ECB3F00001E451F6
:10344000010D680EF324F66EFD0EF420F76EF86A97
:10345000000EF8220800F5CFE3F0FF0E00017A25F8
:1034600003010C6FFF0E00017B2103010D6FFF0EA6
:1034700000017C2103010E6FFF0E00017D2103017D
:103480000F6F0CC360F00DC361F00EC362F00FC389
:1034900063F00001E3510001646F656B666B676B5D
:1034A0000EECA1F0000160510001E46FE4C0CBFF1D
:1034B0001200FEECAFF0D7ECB2F0E0ECB2F000019D
:1034C000D0510001CC270001D1510001CD230001D2
:1034D000E051D8A404D00001E151D8B406D0000EC8
:1034E000BAECB2F0000E78ECAEF00001CDBF0BD01C
:1034F0000001CD5105E15B0E0001CC5DD8A003D0E9
:10350000000E78ECAEF01EECAAF0010E03ECAFF06A
:103510000009D8B41200FB0E0001756FFF0E000108
:10352000766F000E0001786F230E776FB1EC92F08A
:10353000950E0001756FFF0E0001766FCEC077F01B
:10354000CFC078F0E0C079F000017A6BE1C07BF089
:1035500000017C6BB1EC92F0C5EC8FF0000E000125
:103560008D6F000E8C6F000E00017A6FC80E796FA0
:103570005AECB2F025D0D7ECB2F00001D2510001E4
:103580008C270001D35100018D23FB0E0001756FC4
:10359000FF0E0001766F000E0001786F230E776F2B
:1035A000B1EC92F0ED0E0001756FFF0E0001766F29
:1035B0008CC077F08DC078F0B1EC92F0C5EC8FF054
:1035C00000018DBFD8D7880E00018C5D130E00015D
:1035D0008D59D8A0D0D7000E78ECAEF031ECB2F017
:1035E0000009D8B4120083ECAFF0120051B20FEF13
:1035F0009CF0000120EE04F0D851D926D951DA22EE
:10360000DF5003ECAFF00009D8B47AD0D8C0D9FFAE
:10361000D9C0DAFFDE50DE10D8B46DD0D8C0D9FFE3
:10362000D9C0DAFF010EDBBE26D0010EDB5003E16C
:10363000DE04D8A020D0D8C0D9FFD9C0DAFFDE2858
:1036400004E17F0EDE18D8B407D0D8C0D9FFD9C0A6
:10365000DAFFDE06000EDD5A900E00016F6F030EDA
:103660000001706F000E0001716F010E0001726F9A
:103670008CEC9FF01FD0D8C0D9FFD9C0DAFFDE0490
:1036800004E1800EDE18D8B407D0D8C0D9FFD9C065
:10369000DAFFDE2A000EDD22900E00016F6F030EAE
:1036A0000001706F000E0001716F000E0001726F5B
:1036B0008CEC9FF0900E00016F6F030E0001706F95
:1036C000010E0001716F010E0001726F8CEC9FF012
:1036D000900E00016F6F030E0001706F010E00016C
:1036E000716F000E0001726F8CEC9FF031ECB2F044
:1036F00028ECB3F0120031ECB2F053ECB3F012004E
:10370000BFC060F0C0C061F0C1C062F00EECB3F0A9
:1037100012000001B435B5350001B76F0001B75193
:10372000D8A40AD0000E0001B26F000EB36F000ED5
:10373000B46F000EB56F1200B2C000F1B3C001F15A
:10374000B4C002F1B5C003F1200E06D00101D8903B
:103750000333023301330033E82EF8D7010100515F
:103760000001B66F0001B48FFF0E0001B217FF0E0B
:10377000B317FF0EB417000EB517960E0001B75F12
:103780000001B7AF1AD00001B751800A970FD8B027
:103790000AD0000E0001B26F000EB36F000EB46FBE
:1037A000000EB56F12000001D890B533B433B333B7
:1037B000B2330001B73FF7D71BD01F0E0001B7652A
:1037C00012D0000E0001B26F000EB36F000EB46F86
:1037D000000EB56F12000001D890B237B337B4377E
:1037E000B5370001B7070001B7510001D8A4F3D7DE
:1037F0000001B6510001D8B409D00001B51FB41FB3
:10380000B31FB26D000EB323B423B523B2C0B2F020
:10381000B3C0B3F0B4C0B4F0B5C0B5F0120000014D
:1038200020EE04F0D851D926D951DA22DF5053ECDA
:10383000B0F00009D8B46AD0D8C0D9FFD9C0DAFF37
:10384000DE50DE10D8B45DD0D8C0D9FFD9C0DAFFC1
:10385000010EDBBE22D0010EDB5003E1DE04D8A056
:103860001CD0D8C0D9FFD9C0DAFFDE2804E17F0E12
:10387000DE18D8B407D0D8C0D9FFD9C0DAFFDE0629
:10388000000EDD5A900E106E030E116E000E126EB9
:10389000010E136E7DECA3F01BD0D8C0D9FFD9C0A8
:1038A000DAFFDE0404E1800EDE18D8B407D0D8C0F9
:1038B000D9FFD9C0DAFFDE2A000EDD22900E106E8D
:1038C000030E116E000E126E000E136E7DECA3F04F
:1038D000900E106E030E116E010E126E010E136E1D
:1038E0007DECA3F0900E106E030E116E010E126EA1
:1038F000000E136E7DECA3F062ECB3F02EECB3F08F
:10390000120062ECB3F05FECB3F01200BFC001F044
:10391000C0C002F0C1C003F015ECB3F0120000010A
:10392000656F57D061C036F0EAECA6F0120061C0B6
:1039300035F0120061C034F0120061C033F01200A3
:1039400061C032F0120061C031F0120061C030F08D
:103950001200000162510001D8A405D061C008F333
:103960000301096B120061C00AF303010B6B030131
:1039700008510001646F636B03010A510001632564
:103980000001D26F03010B51000164210001D36FCC
:103990001200000162510001D8A405D061C004F3F7
:1039A0000301056B120061C006F30301076B0301FD
:1039B00004510001646F636B03010651000163252C
:1039C0000001D06F03010751000164210001D16F94
:1039D000120000016551070AD8B4A4D70F0AD8B461
:1039E000A6D7010AD8B4A6D7030AD8B4A6D7010A25
:1039F000D8B4A6D7070AD8B4A6D7010AD8B4A6D790
:103A00001E0AD8B4A6D7070AD8A41200C2D7D2EC8F
:103A1000A3F04FECA0F053D07AEC86F0FAD759EC33
:103A20009AF0F7D7CEECB2F0F4D753EC82F0F1D79E
:103A3000010E03ECAFF00009D8B4EBD7FB0E000188
:103A4000756FFF0E0001766F000E0001786F230E78
:103A5000776FB1EC92F0D80E0001756FFF0E000188
:103A6000766FB1EC92F0C30E0001756FFF0E00018E
:103A7000766FB1EC92F0C30E0001756FFF0E00017E
:103A8000766FB1EC92F0C30E0001756FFF0E00016E
:103A9000766FB1EC92F0C30E0001756FFF0E00015E
:103AA000766FB1EC92F0C5EC8FF01EECAAF031EC21
:103AB000B2F00009D8B4ADD783ECAFF0AAD7CAC032
:103AC000FAF3CBC0FBF30301FB51000AD8A4B0D733
:103AD0000301FA51010AD8B49FD7030AD8B49FD77B
:103AE000010AD8B49FD7070AD8B49FD7A1D7000E30
:103AF0000001A66F000EA76F800EA86F440EA96F7D
:103B0000330E0001AA6F330EAB6F530EAC6F400E35
:103B1000AD6F000120EE01F0A051D926A151DA22AB
:103B2000DECFA4F0DDCFA5F0A4C060F0A5C061F0A9
:103B30000001626B636B000ECAEC91F060C0AEF0E6
:103B400061C0AFF062C0B0F063C0B1F0AEC06EF063
:103B5000AFC06FF0B0C070F0B1C071F0A6C072F02D
:103B6000A7C073F0A8C074F0A9C075F086EC88F007
:103B70006EC0AEF06FC0AFF070C0B0F071C0B1F009
:103B8000AEC087F0AFC088F0B0C089F0B1C08AF095
:103B9000AAC08BF0ABC08CF0ACC08DF0ADC08EF085
:103BA00000EC80F087C0AEF088C0AFF089C0B0F004
:103BB0008AC0B1F0AEC0A0F0AFC0A1F0B0C0A2F01A
:103BC000B1C0A3F012006CC074F06DC075F0000EAF
:103BD0000001736F000E726F6EC070F06FC071F0F5
:103BE0000001745100017511D8A434D070C0D9FF00
:103BF00071C0DAFF300EDF6E000E0001736F010E30
:103C0000726F40D074C067F075C068F0000E00019C
:103C10006A6F0A0E696F64ECACF000016751300FF7
:103C200070C0D9FF71C0DAFFDF6E74C060F075C07C
:103C300061F0000E0001636F0A0E626FF9ECA8F0EC
:103C400060C074F061C075F00001724B732B00010D
:103C5000704B712B0001745100017511D8B408D05C
:103C60000001735105E1060E0001725DD8A0CAD7AC
:103C70006EC060F06FC061F072C062F073C063F03C
:103C8000C6ECAAF00001725100016E25D96E000148
:103C9000735100016F21DA6E000EDF6E12008DC0CD
:103CA000D9FF8EC0DAFF000EDE6E000EDD6E000161
:103CB00020EE02F08D51D9268E51DA22000EDE6EF2
:103CC000000EDD6E000120EE04F08D51D9268E51DC
:103CD000DA228FC0DEFF90C0DDFF900E0001866FFC
:103CE000030E0001876F000E0001886F030E0001B4
:103CF000896F92EC93F0900E0001866F030E000125
:103D0000876F010E0001886F030E0001896F92EC2E
:103D100093F0900E00016F6F030E0001706F000EA4
:103D20000001716F000E0001726F8CEC9FF0900E1D
:103D300000016F6F030E0001706F010E0001716FC3
:103D4000000E0001726F8CEC9FF0EC0E0001BF6F53
:103D5000350E0001C06F010E0001C16FE80E0001B9
:103D60006D6F030E6E6F000E6F6F000E706FF9ECCB
:103D700098F0120000019B5100019C11D8B4120070
:103D800000019F510001A0110001A111D8B412003F
:103D90000001A2510001A3110001A411D8B4120026
:103DA0000001A5510001A6110001A711D8B412000D
:103DB00000019D5100019E11D8A405D0000E000104
:103DC0009E6F010E9D6F9BC0D9FF9CC0DAFF000E55
:103DD000DF6E000120EE01F09B51D9269C51DA22C2
:103DE000000EDF6E000120EE02F09B51D9269C519F
:103DF000DA229DC0DEFF9EC0DDFF000120EE04F050
:103E00009B51D9269C51DA22A5C0DEFFA6C0DEFF59
:103E1000A7C0DEFF000120EE07F09B51D9269C5180
:103E2000DA22A2C0DEFFA3C0DEFFA4C0DEFF01D8FD
:103E300012000500FA6E00019F51FD6EA051FE6E4A
:103E4000A151FF6EFA50120000016B6F200E0001AD
:103E50006B5F00016B51050DF3CF69F0F4CF6AF091
:103E60006B0E0001692500016C6FFD0E00016A21D7
:103E700000016D6F000E0001706F040E000170658F
:103E800001D043D0000E0001716F060E0001716574
:103E900001D035D06CC060F06DC061F071C062F0CF
:103EA0006EECB0F00009D8A405D0DCC06EF0DDC027
:103EB0006FF004D0FDC06EF0FEC06FF000017151D4
:103EC0000A0D820E0001676F040E0001686FF35047
:103ED00000016727F4500001682300017051020DB2
:103EE000F35000016725D96EF45000016821DA6EA5
:103EF0006EC0DEFF6FC0DDFF0001712BC6D7000171
:103F00006C4B6D2B0001702BB8D7820E0001656FD2
:103F1000040E0001666F1200080E00016F250001FB
:103F20006C6F000E0001702100016D6F71C06EF0AA
:103F3000C1ECAFF00001736F42D0010E00017217A7
:103F4000000120EE02F06F51D9267051DA22DECF47
:103F500060F0DDCF61F071C062F072C063F001EC1F
:103F6000ACF01200010E00017217010E0001721B6D
:103F7000000120EE02F06F51D9267051DA22DECF17
:103F800060F0DDCF61F071C062F072C063F001ECEF
:103F9000ACF01200010E00017217000120EE04F0D7
:103FA0006F51D9267051DA22DECF60F0DDCF61F09B
:103FB00071C062F072C063F001ECACF0120000015D
:103FC0007351000AD8B41200010AD8B4B6D7030A54
:103FD000D8B4C8D7010AD8A41200DCD7000E00015B
:103FE0006E6FFA0E47240001606FFF0E482000013B
:103FF000616F000E0001636F060E626FAFECA0F000
:104000000001605100016F6F6FC060F00001616BD3
:10401000000E0001636F040E626FAFECA0F00001B0
:10402000605100016D6F000E00016E6F06D024EC30
:10403000AFF0CEECABF000016E2B00016D51040D22
:10404000F31EF41EF34AF42A00016F510001686F59
:10405000696BF35000016827F450000169230001E7
:10406000681F691F684B692B040E00016827000E4A
:10407000692300016E5100016A6F6B6B000168518A
:1040800000016A5D00016B51800A00016C6F000144
:104090006951800A00016C59D8B01200C8D71EECD3
:1040A000AAF0000E0001CB6F000ECA6F23EE45F0A0
:1040B00001D80AD00500FA6EDE50FD6EDE50FE6EAD
:1040C000DE50FF6EFA5012000009D8B405D0000E81
:1040D0000001CB6F010ECA6F23EE31F001D80AD078
:1040E0000500FA6EDE50FD6EDE50FE6EDE50FF6E95
:1040F000FA5012000009D8B405D0000E0001CB6FB1
:10410000020ECA6F23EE4FF001D80AD00500FA6EF6
:10411000DE50FD6EDE50FE6EDE50FF6EFA50120075
:104120000009D8B405D0000E0001CB6F030ECA6F92
:1041300023EE3BF001D80AD00500FA6EDE50FD6E8A
:10414000DE50FE6EDE50FF6EFA5012000009D8B449
:104150001200000E0001CB6F040ECA6F1200000E99
:104160000001656F000163AF08D00001626D631F3D
:10417000D8B0632B010E0001656F000161AF08D05C
:104180000001606D611FD8B0612B010E0001651B3D
:10419000000E0001676F000E666F000162510001A2
:1041A0006311D8B42CD0010E0001646F06D0000159
:1041B000D890623763370001642B000163AFF7D7F3
:1041C0000001D89066376737000162510001605DD9
:1041D0000001635100016159D8A00AD00001625169
:1041E0000001605F000163510001615B00016681B5
:1041F0000001D890633362330001642FE1D70001DE
:1042000065510001D8B405D00001666D671FD8B0B4
:10421000672B66C060F067C061F01200000E0001FD
:10422000686F000E696F000E6A6F000E6B6F000101
:104230006451000165110001661100016711D8B4D5
:1042400042D0010E00016C6F08D00001D890643795
:1042500065376637673700016C2B000167AFF5D70C
:104260000001D890683769376A376B3700016451AD
:104270000001605D00016551000161590001665156
:10428000000162590001675100016359D8A012D0A2
:10429000000164510001605F000165510001615B34
:1042A000000166510001625B000167510001635B20
:1042B000000168810001D890673366336533643349
:1042C00000016C2FCDD768C060F069C061F06AC092
:1042D00062F06BC063F01200000E0001656F000E0B
:1042E000646F38D0220E00016425D96E030E0001E0
:1042F0006521DA6E61C0E1FF62C0E2FFE75043EC86
:104300008CF0DF6E220E00016425D96E030E0001D1
:104310006521DA6E800EDE18D8A40ED00001640785
:10432000D8A06507220E00016425D96E030E000196
:104330006521DA6E000EDB8E0001614B622B0001FD
:10434000644B652B000165511AE1060E0001645DA6
:10435000D8B015D061C0D9FF62C0DAFFDF50D8B441
:104360000ED0C0D7220E00016425D96E030E0001C5
:104370006521DA6E000EDF6E0001644B652B0001D3
:10438000655106E1060E0001645DD8B01200EAD75F
:10439000120000016451010D5B0EF324F66EFD0E58
:1043A000F420F76EF86A000EF8220800F5CF6AF0E4
:1043B000000E0001696F06D0000162510001635FC9
:1043C0000001692B000162510001635DD8B0F4D790
:1043D0000001645100016303F350636F00016951F0
:1043E0000001632700016A510001651763C066F090
:1043F0006AC067F00001662B03D00001D8906737D0
:104400000001662FFAD700016751FF0A0001686FAB
:1044100060C0D9FF61C0DAFF00016851DF1663C0D8
:1044200066F065C067F00001662B03D00001D890EC
:1044300067370001662FFAD760C0D9FF61C0DAFF85
:1044400000016751DF1212000001786F70C060F048
:1044500071C061F0E1ECAEF060C070F061C071F06D
:1044600072C060F073C061F0E1ECAEF060C072F059
:1044700061C073F0000178510001D8B429D0000E5A
:104480000001616F890E606F71C074F00001756B7F
:1044900074BF7569000174510001626F636B0001A4
:1044A00070510001646F656B73C076F00001776B2B
:1044B00076BF7769000176510001666F676B000176
:1044C00072510001686F696B050EFCECAAF01200D6
:1044D000890E00ECB3F00001715100ECB3F0000163
:1044E000705100ECB3F00001735100ECB3F0000127
:1044F000725100ECB3F01200380EF66E660EF76ED5
:10450000010EF86E03EEE6F010EE0CF00900F5CFA8
:10451000EEFFE550E150FAE19E0EF66E660EF76E84
:10452000010EF86E00EEF9F010EE07F00900F5CF7D
:10453000EEFFE550E150FAE1680EF66E660EF76E9A
:10454000010EF86E00EE47F010EE0AF00900F5CF0C
:10455000EEFFE550E150FAE104EEC8F011EE2CF068
:10456000EE6AE550E150FCE1E250FAE104EE00F0C1
:10457000C80EEE6AE806FDE103EE00F0E60EEE6A14
:10458000E806FDE100EEB9F0400EEE6AE806FDE156
:1045900000EE29F01E0EEE6AE806FDE15190519200
:1045A000000107EF9DF00001826F000E0001846F93
:1045B000000E836F00017EBF0DD000017E5104E12B
:1045C00000017D05D8A006D0000E0001866F010E07
:1045D000856F03D000018569866900018251000161
:1045E000D8B40CD07FC070F080C071F085C072F07C
:1045F00086C073F0010E24ECA2F012007FC070F0B0
:1046000080C071F085C072F086C073F0000E24EC9B
:10461000A2F00AD0E0ECB2F00001D05100018327F3
:104620000001D1510001842300017D510001835D0F
:1046300000018451800A0001816F00017E51800ACF
:1046400000018159D8A0E6D7000E78ECAEF0120038
:104650000001686F020E00016527020E0001672746
:10466000030E00016827030E00016627000E0001FB
:10467000636F2A0E68ECB1F0010E0001636F000E4B
:1046800068ECB1F0010E0001636F0001685168EC45
:10469000B1F0010E0001636F000E68ECB1F0010E85
:1046A0000001636F0001665168ECB1F0000E00017B
:1046B000636F2B0E68ECB1F0010E0001636F000E0A
:1046C00068ECB1F0010E0001636F0001655168EC08
:1046D000B1F0010E0001636F000E68ECB1F0010E45
:1046E0000001636F0001675168ECB1F0000E00013A
:1046F000636F2C0E68ECB1F01200080E10240D6EE2
:10470000000E11200E6E12C00FF0D1ECB0F0146E3E
:104710003BD0010E131620EE02F01050D926115096
:10472000DA22DECF01F0DDCF02F012C003F013C0B9
:1047300004F0C1ECADF01200010E1316010E131AB5
:1047400020EE02F01050D9261150DA22DECF01F00F
:10475000DDCF02F012C003F013C004F0C1ECADF0E5
:104760001200010E131620EE04F01050D92611503D
:10477000DA22DECF01F0DDCF02F012C003F013C069
:1047800004F0C1ECADF012001450000AD8B41200CD
:10479000010AD8B4BED7030AD8B4CED7010AD8A428
:1047A0001200DFD7CDEC96F039ECB3F0010EA2EC9D
:1047B000AFF00009D8B40CD030ECA7F0CDEC90F0FD
:1047C0008DEC97F031ECB2F00009D8A483ECAFF097
:1047D000080EA2ECAFF00009D8B413D0C90E000146
:1047E0008D6F030E00018E6F000E0001906F080E9A
:1047F0008F6F4FEC9EF031ECB2F00009D8A483EC3F
:10480000AFF0F40E0001646F000E0001656F000E42
:104810000001666FBCECA8F0F40E0001626F000EA0
:104820000001636FBAECA7F0BAECB1F0F9ECB2F0AA
:104830000A0E23ECB2F09BECB1F0000E0001616FA8
:10484000140E606F31ECABF012000001626F38D0D3
:10485000920E0001606F0F0E0001616F1200930E47
:104860000001606F0F0E0001616F1200940E0001D5
:10487000606F0F0E0001616F1200950E0001606FF6
:104880000F0E0001616F1200960E0001606F0F0E97
:104890000001616F1200970E0001606F0F0E0001A2
:1048A000616F1200980E0001606F0F0E0001616FC2
:1048B0001200000E0001606F000E0001616F120017
:1048C00000016251000AD8B4C3D7010AD8B4C7D7CF
:1048D000030AD8B4CBD7010AD8B4CFD7070AD8B4C3
:1048E000D3D7010AD8B4D7D7030AD8B4DBD7E1D7D6
:1048F0000001626F38D0570E0001606FFF0E00019B
:10490000616F1200550E0001606FFF0E0001616FB4
:104910001200530E0001606FFF0E0001616F120064
:10492000510E0001606FFF0E0001616F12004F0E0B
:104930000001606FFF0E0001616F12004D0E00015B
:10494000606FFF0E0001616F12004B0E0001606F7F
:10495000FF0E0001616F1200000E0001606F000E7B
:104960000001616F120000016251000AD8B4C3D780
:10497000010AD8B4C7D7030AD8B4CBD7010AD8B430
:10498000CFD7070AD8B4D3D7010AD8B4D7D7030AE8
:10499000D8B4DBD7E1D70001626F38D0800E0001B8
:1049A000606F0F0E0001616F1200810E0001606FD9
:1049B0000F0E0001616F1200820E0001606F0F0E7A
:1049C0000001616F1200830E0001606F0F0E000185
:1049D000616F1200840E0001606F0F0E0001616FA5
:1049E0001200850E0001606F0F0E0001616F120052
:1049F000860E0001606F0F0E0001616F1200000E45
:104A00000001606F000E0001616F12000001625131
:104A1000000AD8B4C3D7010AD8B4C7D7030AD8B498
:104A2000CBD7010AD8B4CFD7070AD8B4D3D7010A55
:104A3000D8B4D7D7030AD8B4DBD7E1D7000E00012A
:104A4000826F00017451000178250001806F000120
:104A5000765100017A250001816F7AC060F07BC039
:104A600061F078C062F079C063F038ECB0F060C0FB
:104A70007EF061C07FF076C065F000018005000126
:104A8000666F000181050001676F0001745128EC19
:104A9000A3F0000E0001826F13D000018251020DBD
:104AA000F35000017225D96EF45000017321DA6EC3
:104AB000DECF65F0DDCF66F0C9ECB1F00001822BEE
:104AC0000001825100017C6F7D6B00017E5100016D
:104AD0007C5D00017F5100017D59D8B01200DDD707
:104AE0003ED00001E751140DC80E0001606F040EA6
:104AF0000001616FF35000016027F4500001612351
:104B00000001E851010DF35000016025D96EF45009
:104B100000016121DA6EDF50D8B41FD0010E000110
:104B2000FF6F0001E751140DC80E0001606F040E05
:104B30000001616FF35000016027F4500001612310
:104B40000001E851010DF35000016025D96EF450C9
:104B500000016121DA6E800EDF6E0001E82B130E7A
:104B60000001E865BED7000E0001E86F0001E72BE9
:104B7000080E4926000E4A22000E486E060E476EA9
:104B8000120060C0F6FF61C0F7FF000EF86E0F0E56
:104B9000F76403D00800F55005D0F6CFE9FFF7CF52
:104BA000EAFFEF500001686F00016451010D5B0ED8
:104BB000F324F66EFD0EF420F76EF86A000EF8226C
:104BC0000800F5CF66F0000E0001676F06D0000107
:104BD00062510001635F0001672B00016251000117
:104BE000635DD8B0F4D70001645100016303F35052
:104BF000636F000167510001632700016329000111
:104C0000656F03D00001D89068330001652FFAD793
:104C1000000166510001681700016851120000018F
:104C2000656F000E0001666F000E0001636F360EA7
:104C300068ECB1F000016551030B0001666F2CD0E8
:104C4000010E0001636FC80E68ECB1F0800E506E6B
:104C5000800E4F6E1200010E0001636FA80E68EC0B
:104C6000B1F0800E506E800E4F6E1200010E0001EA
:104C7000636F080E68ECB1F0800E506E800E4F6EC0
:104C80001200010E0001636F680E68ECB1F0800E37
:104C9000506E800E4F6E120000016651000AD8B4AB
:104CA000CFD7010AD8B4D7D7030AD8B4DFD7010ABF
:104CB000D8A41200E6D70001666F640EF66EFD0EF2
:104CC000F76E000EF86E0900F5CF62F00900F5CF1F
:104CD00063F00900F5CF64F00A00F5CF65F0110E1E
:104CE0000001676F030E0001661700016651010D98
:104CF000620EF324D96E000EF420DA6EDF5000014C
:104D0000606F67C061F00001602B03D00001D89094
:104D100061370001602FFAD7000161510001676F10
:104D2000000167390F0B0001676F000167510F0B1E
:104D30000001676F0301285100016719F00B671923
:104D40000301286F1200000E0001E86F000E000141
:104D5000E76F000E0001636F0E0E0001636501D066
:104D60002DD0000E0001626F130E0001626501D0AC
:104D700022D0010E0001FF6F00016351140DC80E17
:104D80000001606F040E0001616FF35000016027A5
:104D9000F4500001612300016251010DF350000144
:104DA0006025D96EF45000016121DA6E800EDF6E4D
:104DB0000001622BD9D70001632BCED7010E000171
:104DC000E96F000E486E060E476E000E4A6E060E24
:104DD000496E120036A002D0010E01D0000E000173
:104DE000E16F36C060F00001D8906033000160A12F
:104DF00002D0010E01D0000E0001E06F36C060F05D
:104E00000001D89060330001D8906033000160A1A8
:104E100002D0010E01D0000E0001DF6F36C060F03D
:104E20000001D89060330001D89060330001D89021
:104E30006033000160A102D0010E01D0000E00011C
:104E4000DE6F36C060F00001603B0F0E601700019E
:104E500060A103D0010E2F6E1200000E2F6E120003
:104E6000000E0001E86F000E0001E76F000E000168
:104E7000626F130E0001626501D01200000E000186
:104E8000636F0E0E0001636501D02CD000016351E9
:104E9000140DC80E0001606F040E0001616FF35025
:104EA00000016027F4500001612300016251010DEF
:104EB000F35000016025D96EF45000016121DA6ED3
:104EC000000EDF6E00016351020D000EF324D96E57
:104ED000040EF420DA6EFF0EDE6EFF0EDD6E0001B2
:104EE000632BCFD70001622BC4D70001606F000E87
:104EF0000001616F010E02D0000E0CD00001626F44
:104F00002DD0040E07D0010E05D0050E03D0020EE1
:104F100001D0060E0001616F000EF0D7020E0001F5
:104F2000606503D00001600719D0020E0001606FB8
:104F300015D000016051020AD8B4DED7060AD8B4F1
:104F4000E0D70C0AD8B4DFD7180AD8B4DED7300AB5
:104F5000D8B4DDD7600AD8B4DCD7E0D700016251FD
:104F60000001D8A4E6D7C15000016119F80B6119FE
:104F7000C16E1200C2B212004BECB3F062C0D9FF96
:104F800063C0DAFFDF503FECB2F059ECB3F0C282FD
:104F9000C2B2FED7C350C4CF64F00001656B64C0D9
:104FA00065F00001646B00016413000E65130001DD
:104FB00020EE01F06251D9266351DA2264C0DEFF8F
:104FC00065C0DDFF000120EE03F06251D926635178
:104FD000DA22DE50DE10D8B40CD0000120EE03F04F
:104FE0006251D9266351DA22DECF62F0DDCF63F061
:104FF000C3D74BECB3F01200000E0001C36F000EDC
:10500000C26F000E00017A6F640E796F5AECB2F035
:105010000AD0D7ECB2F00001D2510001C227000142
:10502000D3510001C3230001C3BFF3D7E80E000131
:10503000C25D030E0001C359D8A0EBD7000E78EC77
:10504000AEF0000E0001616F640E606F31ECABF0EA
:10505000000E00017E6F430E7D6F000E0001806F19
:10506000C80E7F6F000ED3ECA2F0000E0001616F3E
:10507000640E606F31ECABF012000001666F090E38
:1050800000016361120066C03FF0000E3D6E070E26
:105090003D6401D027D03FC064F0010E00016417C9
:1050A000060E0001656F0001D89064370001652F7E
:1050B000FAD7000164513E6E00016339E842F80BF3
:1050C0003D103E100001676FD8903F325C0E00012A
:1050D000606F030E0001616F67C062F090ECAAF090
:1050E0003D2AD5D75C0E0001606F030E0001616F91
:1050F000000E0001626F90ECAAF01200410EF66EF5
:10510000FD0EF76E000EF86E20EE75F00F0E090022
:10511000F5CFDEFFE806FBE26FC06CF070C06DF00B
:1051200072C06EF0C1ECAFF00001856F040E00019B
:10513000716120D0040E000185611CD00001715105
:10514000040D750E0001736F000E0001746FF350B3
:1051500000017327F4500001742300018551010DF3
:10516000F35000017325D96EF45000017421DA6EFA
:10517000DF501200050E120000016451000165119C
:10518000D8B4120064C0DAF065C0DBF064C0D9FFA7
:1051900065C0DAFF66C0DFFF000120EE03F0645156
:1051A000D9266551DA22000EDE6E000EDD6E00019A
:1051B00020EE01F06451D9266551DA22000EDE6E30
:1051C000000EDD6E000166513FECB2F0C29EC29C43
:1051D000C18EC18C0C0E30ECAEF0100E75ECA7F049
:1051E0000001665188ECB0F0010E3C6EC4ECB2F0E8
:1051F0001200000E0001666F000E656F0001625123
:1052000000016311D8B42CD0010E0001646F06D0E8
:105210000001D890623763370001642B000163AF4F
:10522000F7D70001D8906537663700016251000159
:10523000605D0001635100016159D8A00AD00001EE
:1052400062510001605F000163510001615B000178
:1052500065810001D890633362330001642FE1D788
:1052600065C060F066C061F0120001C0F6FF02C0C8
:10527000F7FF000EF86E0F0EF76403D00800F5502C
:1052800005D0F6CFE9FFF7CFEAFFEF50096E0550E2
:10529000010D5B0EF324F66EFD0EF420F76EF86A36
:1052A000000EF8220800F5CF07F0000E086E03D0BC
:1052B0000350045E082A0350045CD8B0F9D70550A7
:1052C0000402F350046E085004260428066E02D02F
:1052D000D8900932062EFCD7075009160950120043
:1052E000000E0001756F000E0001766F6DC065F055
:1052F00000016B5100016F250001736F0001730500
:105300000001666F00016D51000171250001746F8D
:10531000000174050001676F00016B5128ECA3F0D8
:1053200071C076F0000176510001D8B412006FC050
:1053300075F0000175510001D8B409D069C065F05D
:105340006AC066F0C9ECB1F000017507F2D7000140
:105350007607E8D7000120EE06F06F51D92670518C
:10536000DA22DECF60F0DDCF61F0050E0001626F62
:10537000000E0001636F01ECACF0000120EE06F0BE
:105380006F51D9267051DA22DECF6BF0DDCF6CF091
:10539000000E00016D6F000E00016E6F8AECB1F01F
:1053A000000120EE06F06F51D9267051DA22DECFCF
:1053B00060F0DDCF61F0050E0001626F010E0001AB
:1053C000636F01ECACF01200000120EE06F06F51AB
:1053D000D9267051DA22DECF60F0DDCF61F0050E04
:1053E0000001626F000E0001636F01ECACF0000180
:1053F00020EE06F06F51D9267051DA22DECF6BF025
:10540000DDCF6CF0000E00016D6F020E00016E6FBB
:105410008AECB1F0000120EE06F06F51D9267051F0
:10542000DA22DECF60F0DDCF61F0050E0001626FA1
:10543000010E0001636F01ECACF01200FC0E966EE1
:10544000520E00017B6F030E00017C6F010E000104
:105450007D6F46EC98F0340E00017B6F030E000167
:105460007C6F010E00017D6F46EC98F02A0E000162
:105470007B6F030E00017C6F010E00017D6F46EC17
:1054800098F03E0E00017B6F030E00017C6F010E51
:1054900000017D6F46EC98F0480E00017B6F030E13
:1054A00000017C6F010E00017D6F46EC98F0120048
:1054B000B80E0001866F030E0001876F070E000112
:1054C000886F030E0001896F92EC93F0B80E000113
:1054D000866F030E0001876F060E0001886F030EB2
:1054E0000001896F92EC93F099ECADF0C00E0001D1
:1054F0008D6FC60E8E6F2D0E8F6F000E906F010E8A
:105500000001916F010E0001926F6BEC84F0670E49
:1055100000016F6F030E0001706FAAECA9F012007A
:1055200026D0EEC0D9FFEFC0DAFF0001DF9462C0E1
:10553000C9FFC7A0FED7C9CF62F0EEC0D9FFEFC048
:10554000DAFF0001DF8412009EC3D9FF9FC3DAFF98
:105550000301DF9E62C06FFF6DA0FED76FCF62F0C8
:105560009EC3D9FF9FC3DAFF0301DF8E1200000143
:1055700020EE02F06051D9266151DA22DF50000A94
:10558000D8B4CFD7010AD8A41200DED700016251E7
:10559000000160250001656F000163510001612178
:1055A0000001666F1AD060C0D9FF61C0DAFFDF501A
:1055B0000001646F65C0D9FF66C0DAFF60C0E1FF1B
:1055C00061C0E2FFDFCFE7FF0001604B612B65C0E8
:1055D000D9FF66C0DAFF64C0DFFF00016507D8A00D
:1055E0006607000165510001605D00016651000120
:1055F0006159D8B01200D7D700016E6F600E00015C
:105600006C6F000E00016D6F000E00016F6F1FD0F8
:105610006CC0D9FF6DC0DAFF00016F5137C06AF06E
:1056200000016B6B00016A27000E6B231E0E000148
:105630006A25E16E040E00016B21E26EDFCFE7FF09
:10564000020E00016C27000E6D2300016F2B00017C
:105650006E5100016F5DD8A0DBD700016E51372677
:1056600012001FD0000E0001626F000E636F000E6B
:10567000646F000E656F000165510001641111E156
:10568000B00E0001625D040E00016359D8B009D06C
:1056900000F0010E00016227000E632364236523DE
