:0614000055EF0AF0120096
:101408005182FACF17F0FBCF18F0E9CF19F0EACFE5
:101418001AF0E1CF1BF0E2CF1CF0D9CF1DF0DACFE4
:101428001EF0F3CF1FF0F4CF20F0F6CF21F0F7CF66
:1014380022F0F8CF23F0F5CF24F051C025F052C0A8
:1014480026F053C027F054C028F0F292F2B4F2AA62
:1014580002D0FDECA2F028C054F027C053F026C0FB
:1014680052F025C051F024C0F5FF23C0F8FF22C078
:10147800F7FF21C0F6FF20C0F4FF1FC0F3FF1EC016
:10148800DAFF1DC0D9FF1CC0E2FF1BC0E1FF1AC074
:10149800EAFF19C0E9FF18C0FBFF17C0FAFF519215
:0614A8001100ADEF96F00B
:10FCE40000001180002C0100B10200350036000034
:10FCF400B202003500360000B302003500360002BF
:10FD0400003500360000B4000000C0A200020084E8
:10FD14000000C1C50000C20D00000000C38D002A10
:10FD24000000C48D00EE0000C50A000036C80000C3
:10FD3400E012001C001000180033002C00250028DD
:10FD440000280027002F003C0000000300030010DF
:10FD5400008000780000E112001C00100018002D43
:10FD640000280023002800280026002F003B000064
:10FD740000030003001000003A0500002A000002FE
:10FD84000000008100002B000003000000A200001E
:10FD940029002C020004000800100020004000800C
:10FDA4000000010001020001000100020200000342
:10FDB40003030001000A006400E8031027000103A4
:10FDC400070F1F3F7FFF0002010301041000000022
:10FDD400000000005F00000007000700147F147F8C
:10FDE40014242A7F2A1223130864623649552250A8
:10FDF4000005030000001C2241000041221C0008F1
:10FE04002A1C2A0808083E08080050300000080888
:10FE1400080808006060000020100804023E5149F0
:10FE2400453E00427F400042615149462141454BD5
:10FE3400311814127F1027454545393C4A49493049
:10FE440001710905033649494936064949291E0005
:10FE540036360000005636000000081422411414FF
:10FE6400141414412214080002015109063249797C
:10FE7400413E7E1111117E7F494949363E4141413F
:10FE8400227F4141221C7F494949417F09090101DF
:10FE94003E414151327F0808087F00417F410020E4
:10FEA40040413F017F081422417F404040407F028F
:10FEB40004027F7F0408107F3E4141413E7F0909CF
:10FEC40009063E4151215E7F09192946464949499F
:10FED4003101017F01013F4040403F1F2040201F6E
:10FEE4007F2018207F6314081463030478040361DB
:10FEF4005149454300007F4141020408102041411B
:10FF04007F0000040201020440404040400001021E
:10FF1400040020545454787F4844443838444444BA
:10FF240020384444487F3854545418087E09010248
:10FF3400081454543C7F0804047800447D40002095
:10FF440040443D00007F10284400417F40007C0471
:10FF54001804787C0804047838444444387C141425
:10FF64001408081414187C7C0804040848545454D5
:10FF740020043F4440203C4040207C1C2040201C66
:10FF84003C4030403C44281028440C5050503C44E1
:10FF940064544C44000836410000007F00000041D6
:10FFA40036080008082A1C08081C2A080800FCFF58
:10FFB4000F0000FFFFF0FF00FFFF00546F74616C3F
:10FFC4002044697374616E63653A25750A4C6566ED
:10FFD400742042756D703A25750A526967687420F9
:10FFE40042756D703A25750A0044697374616E63D5
:0BFFF400653A2025640A002563000028
:020000040001F9
:100000000CD0680E0001E86F030E04D0730E0001DF
:10001000E86F030E0001E96F08D00001E651000A05
:10002000D8B4EFD7010AD8B4F1D7000120EE02F01E
:10003000E851D926E951DA22E6C0DFFFB1D0A30E9C
:100040000001DB6F000E0001DC6F020E0001DD6FAE
:10005000030E0001DE6F3DEC8BF0A30E0001DB6FA1
:10006000000E0001DC6F030E0001DD6F030E0001C6
:10007000DE6F3DEC8BF0A30E0001DB6F000E000184
:10008000DC6F050E0001DD6F030E0001DE6F3DEC3D
:100090008BF0A30E0001DB6F000E0001DC6F040E7D
:1000A0000001DD6F000E0001DE6F3DEC8BF0000102
:1000B00020EE03F0E851D926E951DA22C70EDE6EB0
:1000C0000F0EDD6E000120EE06F0E851D926E95151
:1000D000DA22C60EDE6E0F0EDD6E000120EE09F094
:1000E000E851D926E951DA22C90E56D0990E0001FD
:1000F000DB6F000E0001DC6F070E0001DD6F030EE9
:100100000001DE6F3DEC8BF0990E0001DB6F000EFD
:100110000001DC6F060E0001DD6F030E0001DE6FD3
:100120003DEC8BF0990E0001DB6F000E0001DC6FDF
:10013000040E0001DD6F030E0001DE6F3DEC8BF05D
:10014000990E0001DB6F000E0001DC6F050E00014F
:10015000DD6F000E0001DE6F3DEC8BF0000120EE44
:1001600003F0E851D926E951DA226D0EDE6E0F0E4A
:10017000DD6E000120EE06F0E851D926E951DA22C1
:100180006C0EDE6E0F0EDD6E000120EE09F0E85100
:10019000D926E951DA226F0EDE6E0F0EDD6E09D020
:1001A0000001E651000AD8B44AD7010AD8A41200C7
:1001B0009DD7000120EE06F0E851D926E951DA2258
:1001C000DECFB5F0DDCFB6F0050E0001B76F000E43
:1001D0000001B86F77EC9EF09CD0000120EE06F095
:1001E000E851D926E951DA22DECFB5F0DDCFB6F0FD
:1001F000040E0001B76F000E0001B86F77EC9EF09F
:10020000000120EE03F0E851D926E951DA22DECFD1
:10021000B5F0DDCFB6F0060E0001B76F000E00019D
:10022000B86F77EC9EF084D0000120EE06F0E85124
:10023000D926E951DA22DECFB5F0DDCFB6F0040ED3
:100240000001B76F000E0001B86F77EC9EF000015F
:1002500020EE03F0E851D926E951DA22DECFB5F0DD
:10026000DDCFB6F0060E0001B76F010E0001B86FCA
:1002700077EC9EF05DD0000120EE06F0E851D92623
:10028000E951DA22DECFB5F0DDCFB6F0040E000181
:10029000B76F010E0001B86F77EC9EF0000120EE01
:1002A00003F0E851D926E951DA22DECFB5F0DDCFEF
:1002B000B6F0060E0001B76F000E0001B86F77ECC4
:1002C0009EF036D0000120EE06F0E851D926E95123
:1002D000DA22DECFB5F0DDCFB6F0040E0001B76F45
:1002E000010E0001B86F77EC9EF0000120EE03F0E4
:1002F000E851D926E951DA22DECFB5F0DDCFB6F0EC
:10030000060E0001B76F010E0001B86F77EC9EF08A
:100310000FD00001E751000AD8B45FD7010AD8B462
:1003200083D7030AD8B4A7D7010AD8A41200CAD722
:10033000000120EE06F0E851D926E951DA22DECF9D
:10034000B5F0DDCFB6F0070E0001B76F000E00016B
:10035000B86F77EC9EF0000120EE06F0E851D92648
:10036000E951DA22DECFB5F0DDCFB6F0060E00019E
:10037000B76F000E0001B86F77EC9EF0E2C0C2F0DC
:10038000E3C0C3F0E4C0C4F0E5C0C5F0A4EC90F055
:10039000E8C0B5F0E9C0B6F029ECA3F004D09F8620
:1003A0000BD0A58E09D00001E651000AD8B4F7D7CA
:1003B000010AD8A41200F5D7E8C0B5F0E9C0B6F03C
:1003C000B6ECA2F0E8C0D9FFE9C0DAFF000EDF6E9C
:1003D000000120EE06F0E851D926E951DA22DECFFD
:1003E000C0F0DDCFC1F0000E0001C26F030E0001AE
:1003F000C36F4EECA3F0000120EE06F0E851D926C1
:10040000E951DA22DECFB5F0DDCFB6F0050E0001FE
:10041000B76F010E0001B86F77EC9EF01200080E66
:100420000001C4250001C16F000E0001C5210001BB
:10043000C26F000E0001C36FF4ECA1F00001DB6F8E
:100440000001DB510001C76FC86B0E0ED890000190
:10045000C737C837E82EFAD70001DB510001C96F52
:10046000CA6B0C0ED8900001C937CA37E82EFAD7EC
:100470000001DB510001CB6FCC6B0A0ED89000015C
:10048000CB37CC37E82EFAD70001DB510001CE6F15
:10049000CD6B0001DB510001CF6FD06B060ED89001
:1004A0000001CF37D037E82EFAD70001DB51000129
:1004B000D16FD26B0001D13BD23BF00ED217D1519C
:1004C0000F0BD213F00ED1170001DB510001D36FD7
:1004D000D46B0001D890D337D4370001D890D337EC
:1004E000D4370001DB510001D56FD66B0001D35129
:1004F0000001D5130001D4510001D6130001D151E0
:100500000001D5130001D2510001D6130001CF51D3
:100510000001D5130001D0510001D6130001CD51C7
:100520000001D5130001CE510001D6130001CB51BB
:100530000001D5130001CC510001D6130001C951AF
:100540000001D5130001CA510001D6130001C751A3
:100550000001D5110001D76F0001C8510001D6116B
:100560000001D86FDBC0D9F00001DA6B080E000182
:10057000C4250001C16F000E0001C5210001C26F3A
:10058000010E0001C36FF4ECA1F00001C76FC86B4E
:100590000001D890C737C8370001D890C737C8378F
:1005A0000001C7510001D9130001C8510001DA133D
:1005B000080E0001C4250001C16F000E0001C52115
:1005C0000001C26F020E0001C36FF4ECA1F0000144
:1005D000C76FC86B0001C73BC83BF00EC817C751B7
:1005E0000F0BC813F00EC7170001C7510001D91334
:1005F0000001C8510001DA13080E0001C4250001F2
:10060000C16F000E0001C5210001C26F030E000181
:10061000C36FF4ECA1F00001C76FC86B060ED89051
:100620000001C737C837E82EFAD70001C7510001CB
:10063000D9130001C8510001DA13080E0001C425C6
:100640000001C16F000E0001C5210001C26F040E40
:100650000001C36FF4ECA1F00001C76F0001C751A6
:100660000001C96FC86B0001C8510001D913000116
:10067000C9510001DA13080E0001C4250001C16F41
:10068000000E0001C5210001C26F050E0001C36FFD
:10069000F4ECA1F00001C76FC86B0A0ED8900001FE
:1006A000C737C837E82EFAD70001C7510001D91360
:1006B0000001C8510001DA13080E0001C425000131
:1006C000C16F000E0001C5210001C26F060E0001BE
:1006D000C36FF4ECA1F00001C76FC86B0C0ED8908B
:1006E0000001C737C837E82EFAD70001C75100010B
:1006F000D9130001C8510001DA13080E0001C42506
:100700000001C16F000E0001C5210001C26F070E7C
:100710000001C36FF4ECA1F00001C76FC86B0E0EAF
:10072000D8900001C737C837E82EFAD70001C75163
:100730000001D9130001C8510001DA130001D95199
:100740000001D71948E10001DA510001D819D8A4F5
:10075000120032D0000120EE02F0C451D926C5515A
:10076000DA22DECFB5F0DDCFB6F0C6C0B7F0BBEC15
:10077000A4F012000001C61F000120EE02F0C451D7
:10078000D926C551DA22DECFB5F0DDCFB6F0C6C02E
:10079000B7F0BBECA4F01200000120EE04F0C4514D
:1007A000D926C551DA22DECFB5F0DDCFB6F0C6C00E
:1007B000B7F0BBECA4F012000001DB51000AD8B482
:1007C0001200010AD8B4C6D7030AD8B4D3D7010A95
:1007D000D8A41200E1D712000001B56F7ED03F0E01
:1007E0001200060E12005B0E12004F0E1200660E73
:1007F00012006D0E12007D0E1200070E12007F0E09
:1008000012006F0E12005F0E12007C0E1200580EC6
:1008100012005E0E12007B0E1200710E12006F0E9F
:100820001200740E1200040E12000E0E12007A0E48
:100830001200060E1200140E1200540E12005C0E6E
:100840001200730E1200670E1200500E12006D0E91
:100850001200780E12001C0E1200620E12002A0EF8
:100860001200640E12006E0E12005B0E1200770E64
:1008700012007F0E1200390E12003F0E1200790E88
:100880001200710E12003D0E1200760E1200060EBE
:1008900012001E0E1200570E1200380E1200760EB5
:1008A0001200760E12003F0E1200730E12003F0E61
:1008B0001200770E12006D0E1200310E12003E0E65
:1008C00012003E0E12007E0E1200760E1200660E10
:1008D00012005B0E1200800E12000001B5512E0AAC
:1008E000D8B4F9D71E0AD8B47AD7010AD8B479D7C0
:1008F000030AD8B478D7010AD8B477D7070AD8B48E
:1009000076D7010AD8B475D7030AD8B474D7010AC8
:10091000D8B473D70F0AD8B472D7010AD8B471D734
:10092000780AD8B4A4D7030AD8B4A3D7010AD8B494
:10093000A2D7070AD8B4A1D7010AD8B4A0D7030A0E
:10094000D8B49FD7010AD8B49ED70F0AD8B49DD780
:10095000010AD8B49CD7030AD8B49BD7010AD8B4EB
:100960009AD7070AD8B499D7010AD8B498D7030AF6
:10097000D8B497D7010AD8B496D71F0AD8B495D758
:10098000010AD8B494D7030AD8B493D7010AD8B4CB
:1009900092D7070AD8B491D7010AD8B490D7030ADE
:1009A000D8B48FD7010AD8B48ED70F0AD8B48DD750
:1009B000010AD8B48CD7030AD8B48BD73B0AD8B471
:1009C00022D7030AD8B421D7010AD8B420D7070AFE
:1009D000D8B41FD7010AD8B41ED7030AD8B41DD77C
:1009E000010AD8B41CD70F0AD8B41BD7010AD8B44F
:1009F0001AD7030AD8B419D7010AD8B418D7070AE6
:100A0000D8B417D7010AD8B416D7030AD8B415D763
:100A1000010AD8B414D71F0AD8B413D7010AD8B41E
:100A200012D7030AD8B411D7010AD8B410D7070ACD
:100A3000D8B40FD7010AD8B40ED7030AD8B40DD74B
:100A4000010AD8B40CD70F0AD8B40BD7010AD8B40E
:100A50000AD7030AD8B409D7000E1200050E000108
:100A6000EF6FC7D0000120EE02F0EB51D926EC5118
:100A7000DA22DECFC0F0DDCFC1F0EDC0C2F00F0E44
:100A80000001C36F4EECA3F0000120EE04F0EB5127
:100A9000D926EC51DA22DECFC0F0DDCFC1F0EDC0B7
:100AA000C2F0000E0001C36F4EECA3F0B0D0EBC05B
:100AB000E4F0ECC0E5F0EDC0E6F0030E0001E76FF6
:100AC00039EC9FF00001EF6F0001EF51D8A4120044
:100AD000000120EE02F0EB51D926EC51DA22DECFF4
:100AE000C0F0DDCFC1F0EDC0C2F0000E0001C36F59
:100AF0004EECA3F0000120EE04F0EB51D926EC51AE
:100B0000DA22DECFC0F0DDCFC1F0EDC0C2F0000EC2
:100B10000001C36F4EECA3F07AD0EBC0E4F0ECC060
:100B2000E5F0EDC0E6F0030E0001E76F39EC9FF051
:100B30000001EF6F0001EF51D8A41200000120EE78
:100B400002F0EB51D926EC51DA22DECFC0F0DDCF36
:100B5000C1F0EDC0C2F00F0E0001C36F4EECA3F068
:100B6000000120EE04F0EB51D926EC51DA22DECF61
:100B7000C0F0DDCFC1F0EDC0C2F00F0E0001C36FB9
:100B80004EECA3F044D0EBC0E4F0ECC0E5F0EDC0D7
:100B9000E6F0030E0001E76F39EC9FF00001EF6F04
:100BA0000001EF51D8A41200000120EE02F0EB5139
:100BB000D926EC51DA22DECFC0F0DDCFC1F0EDC096
:100BC000C2F0000E0001C36F4EECA3F0000120EE56
:100BD00004F0EB51D926EC51DA22DECFC0F0DDCFA4
:100BE000C1F0EDC0C2F0000E0001C36F4EECA3F0E7
:100BF0000ED00001EE51000AD8B434D7010AD8B49F
:100C000056D7030AD8B489D7010AD8B4BCD7080E7E
:100C10000001EB250001C46F000E0001EC21000172
:100C2000C56F0001ED51040DF3CFC6F0EEC0C7F063
:100C300010ECA1F0080E0001EB250001C46F000EBE
:100C40000001EC210001C56F0001ED51040DF328F6
:100C50000001C66FEEC0C7F010ECA1F0080E000155
:100C6000EB250001C46F000E0001EC210001C56FEF
:100C70000001ED51040DF350020F0001C66FEEC0EC
:100C8000C7F010ECA1F0080E0001EB250001C46FC5
:100C9000000E0001EC210001C56F0001ED51040DB3
:100CA000F350030F0001C66FEEC0C7F010ECA1F0C7
:100CB0001200050E0001F46F7AD0000120EE02F060
:100CC000EF51D926F051DA22DECFF2F0DDCFF3F08A
:100CD000F2C0D9FFF3C0DAFFFF0E67D0EFC0EBF030
:100CE000F0C0ECF0010E0001ED6F82ECA0F000010D
:100CF000F46F0001F451D8A41200000120EE02F0BC
:100D0000EF51D926F051DA22DECFF2F0DDCFF3F049
:100D1000F2C0D9FFF3C0DAFF000EDF6E000120EE53
:100D200004F036D0EFC0EBF0F0C0ECF0020E0001A2
:100D3000ED6F82ECA0F00001F46F0001F451D8A433
:100D40001200000120EE02F0EF51D926F051DA2214
:100D5000DECFF2F0DDCFF3F0F2C0D9FFF3C0DAFF5F
:100D6000FF0EDF6E000120EE04F0AAD7EFC0EBF01B
:100D7000F0C0ECF0000E0001ED6F82ECA0F000017D
:100D8000F46F0001F451D8A41200000120EE02F02B
:100D9000EF51D926F051DA22DECFF2F0DDCFF3F0B9
:100DA000F2C0D9FFF3C0DAFF000EDF6E0ED00001F3
:100DB000F151000AD8B481D7010AD8B48FD7030AF9
:100DC000D8B4B0D7010AD8B4D1D7080E0001EF25A6
:100DD0000001C46F000E0001F0210001C56F000E7C
:100DE0000001C66FF1C0C7F010ECA1F0080E0001C1
:100DF000EF250001C46F000E0001F0210001C56F56
:100E0000010E0001C66FF1C0C7F010ECA1F0080E92
:100E10000001EF250001C46F000E0001F021000168
:100E2000C56F020E0001C66FF1C0C7F010ECA1F053
:100E3000080E0001EF250001C46F000E0001F02133
:100E40000001C56F030E0001C66FF1C0C7F010ECC2
:100E5000A1F0080E0001EF250001C46F000E000193
:100E6000F0210001C56F040E0001C66FF1C0C7F08C
:100E700010ECA1F0080E0001EF250001C46F000E78
:100E80000001F0210001C56F050E0001C66FF1C021
:100E9000C7F010ECA1F0080E0001EF250001C46FAF
:100EA000000E0001F0210001C56F060E0001C66FA3
:100EB000F1C0C7F010ECA1F0080E0001EF25000111
:100EC000C46F000E0001F0210001C56F070E000184
:100ED000C66FF1C0C7F010ECA1F012000001FF5185
:100EE000D8B41200D5C3DBF0D6C3DCF0D7C3DDF035
:100EF000D8C3DEF000018E51D8B405D08CC0DAF032
:100F00000F0E00018C6F000E0001E06FDFD00001BA
:100F1000E051020D000EF324D96E030EF420DA6EB8
:100F2000DECFFDF0DDCFFEF0000E0001DF6F130E0F
:100F30000001DF6501D0BED00001E051140DAA0E02
:100F40000001D86F040E0001D96FF3500001D827BB
:100F5000F4500001D9230001DF51010DF3500001CD
:100F6000D825D96EF4500001D921DA6EDFAE9AD0BF
:100F70000001E051140DAA0E0001D86F040E00010B
:100F8000D96FF3500001D827F4500001D923000194
:100F9000DF51010DF3500001D825D96EF450000146
:100FA000D921DA6E7F0EDF160001E051140DAA0E72
:100FB0000001D86F040E0001D96FF3500001D8274B
:100FC000F4500001D9230001DF51010DF35000015D
:100FD000D825D96EF4500001D921DA6EDF50D8B48B
:100FE0004AD081C0BEF082C0BFF0DBC0C0F0DCC020
:100FF000C1F0DDC0C2F0DEC0C3F0F9C0C4F0FAC079
:10100000C5F0FBC0C6F0FCC0C7F062EC9CF000016C
:10101000E051140DAA0E0001D86F040E0001D96F23
:10102000F3500001D827F4500001D9230001DF510B
:10103000010DF3500001D825D96EF4500001D921DB
:10104000DA6EDF50B5EC93F0BAC0C7F0BBC0C8F0A1
:10105000DBC0C9F0DCC0CAF0DDC0CBF0DEC0CCF034
:10106000F9C0CDF0FAC0CEF0FBC0CFF0FCC0D0F09C
:10107000A7EC98F017D0000E0001BF6F000EBE6FF6
:10108000DBC0C0F0DCC0C1F0DDC0C2F0DEC0C3F028
:10109000F9C0C4F0FAC0C5F0FBC0C6F0FCC0C7F090
:1010A00062EC9CF0060E0001DB27000EDC23000141
:1010B000DF2B3DD7080E0001DD27000EDE23000EDA
:1010C0000001DC6F060EDB6F0001E02B0001E05138
:1010D00000018C5DD8B01BD700018E51D8B412002E
:1010E000000E00018E6FDAC08CF012005E0E01015E
:1010F000006F030E0101016F000E0101036F020E6C
:10110000026FF80E0101046F490E0101056F010E17
:101110000101066F720E0101076F480E0101086F91
:10112000010E0101096F040E01010A6F140E010185
:101130000B6F000E01010C6F4BEC93F0400E0101A0
:10114000006F030E0101016F000E0101036F020E1B
:10115000026FF80E0101046F490E0101056F010EC7
:101160000101066FD20E0101076F480E0101086FE1
:10117000010E0101096F040E01010A6F140E010135
:101180000B6F000E01010C6F4BEC93F0360E01015A
:10119000006F030E0101016F000E0101036F020ECB
:1011A000026FF80E0101046F490E0101056F010E77
:1011B0000101066FBA0E0101076F480E0101086FA9
:1011C000010E0101096F040E01010A6F140E0101E5
:1011D0000B6F000E01010C6F4BEC93F04A0E0101F6
:1011E000006F030E0101016F000E0101036F020E7B
:1011F000026FF80E0101046F490E0101056F010E27
:101200000101066FA20E0101076F480E0101086F70
:10121000010E0101096F040E01010A6F140E010194
:101220000B6F000E01010C6F4BEC93F0540E01019B
:10123000006F030E0101016F000E0101036F020E2A
:10124000026FF80E0101046F490E0101056F010ED6
:101250000101066F8A0E0101076F480E0101086F38
:10126000010E0101096F040E01010A6F140E010144
:101270000B6F000E01010C6F4BEC93F0A00E000100
:10128000E26F860EE36F010EE46F000EE56F000E55
:101290000001E66F020E0001E76F00EC80F0680EBF
:1012A0000001C46F030E0001C56F28EC9CF0000E16
:1012B0000001F16F000EF06F0001F15113E1080E13
:1012C0000001F05DD8B012002E0E0001F025D96E9D
:1012D000030E0001F121DA6E000EDF6E0001F04B0B
:1012E000F12BEAD7120078EC8EF0010ED5ECA1F0CC
:1012F0000009D8B40CD0BAEC9AF076EC88F038EC4F
:101300008FF006ECA4F00009D8A4B6ECA1F08FECA5
:10131000A3F0ADECA4F00A0EF8ECA3F070ECA3F08F
:10132000000E0001B66F140EB56F75EC9DF0000E47
:101330000001CF6F5A0ECE6F000E0001D16FC80EA4
:10134000D06F000E45EC9EF0000E0301DE6F000E24
:10135000DD6F000E0301E06F000EDF6F31ECA2F0D5
:101360008BECA4F094ECA4F0000175510301DF278D
:10137000000176510301E02300018751D8A404D075
:1013800000018851D8B406D0000E81ECA4F0000E04
:10139000CAECA0F00301E0BF0BD00301E05105E16E
:1013A0005B0E0301DF5DD8A003D0000ECAECA0F0F5
:1013B000EEEC9BF0010E55ECA1F00009D8B4CED7AD
:1013C000FB0E0001CA6FFF0E0001CB6F000E000183
:1013D000CD6F230ECC6F5CEC8AF0BF0E0001CA6F9C
:1013E000FF0E0001CB6FDDC3CCF0DEC3CDF087C0B4
:1013F000CEF00001CF6B88C0D0F00001D16B5CEC67
:101400008AF06EEC87F023EE51F001D80AD0050087
:10141000FA6EDE50FD6EDE50FE6EDE50FF6EFA504C
:1014200012000009D8B440D0000E0301E26F000E94
:10143000E16F000E0001CF6FC80ECE6F21ECA4F05B
:1014400025D08BECA4F0000177510301E1270001C6
:1014500078510301E223FB0E0001CA6FFF0E000169
:10146000CB6F000E0001CD6F230ECC6F5CEC8AF0C9
:10147000ED0E0001CA6FFF0E0001CB6FE1C3CCF08F
:10148000E2C3CDF05CEC8AF06EEC87F00301E2BFC2
:10149000D8D7880E0301E15D130E0301E259D8A0ED
:1014A000D0D7000ECAECA0F006ECA4F00009D8B426
:1014B00055D7B6ECA1F052D7CC0E0001D56F000E77
:1014C0000001D66FC9D0250E0001D919D8B405D0B6
:1014D0000001D951A6ECA4F0BFD0000E0001D46FDA
:1014E00014D0D5C0D9FFD6C0DAFFDF500001D96FC4
:1014F000020E0001D527000ED6230001D951A6EC1B
:10150000A4F0AAD00001D48D1ED0CAC0F6FFCBC073
:10151000F7FF0001CA4BCB2B000EF86E0800F5CF89
:10152000D9F00001D951000AD8B41200630AD8B426
:10153000D8D7070AD8B407D00D0AD8B404D01C0AEB
:10154000D8B4E0D7DAD70001D4BD19D0D5C0D9FFBF
:10155000D6C0DAFFDECFD7F0DDCFD8F0020E000123
:10156000D527000ED6230001D8AF16D0030E0001F8
:10157000D4130001D76DD81FD8B0D82B0DD0D5C04B
:10158000D9FFD6C0DAFFDECFD7F0DDCFD8F0020E1C
:101590000001D527000ED623010E0001D96F050EDC
:1015A0000001D919D8B419D00001D951020DB70ED4
:1015B000F324F66EFD0EF420F76EF86A000EF822A2
:1015C0000900F5500001D75D0900F5500001D85918
:1015D000D8A003D00001D92BE2D7D4C0D2F0030E9B
:1015E0000001D217D8B403D02D0EA6ECA4F0D9C0B8
:1015F000D3F02CD00001D351020DB70EF324F66EB8
:10160000FD0EF420F76EF86A000EF8220900F5CFFF
:10161000B7F00A00F5CFB8F0D7C0B5F0D8C0B6F033
:101620003DEC9BF0B5C0BCF0B6C0BDF0000E0001B3
:10163000BF6F0A0EBE6FDAEC9EF00001BC51300F96
:101640000001D96F0001D951A6ECA4F00001D30725
:101650000001D329D8A4CED7CAC0F6FFCBC0F7FF6C
:101660000001CA4BCB2B000EF86E0800F5CFD9F065
:101670000001D951D8B4120026D7DBC0D9FFDCC095
:10168000DAFFDECFE0F0DDCFE1F0050E0001DF6F25
:10169000B5D0000120EE02F0DB51D926DC51DA2270
:1016A000DECFB5F0DDCFB6F0DDC0B7F0010E000142
:1016B000B86F77EC9EF0B0D0E0C0C4F0E1C0C5F0E8
:1016C000010E0001C66FDDC0C7F0FFEC9AF000010B
:1016D000DF6F0001DF51D8A41200000120EE02F0FC
:1016E000DB51D926DC51DA22DECFB5F0DDCFB6F002
:1016F000DDC0B7F0000E0001B86F77EC9EF000017E
:1017000020EE04F0DB51D926DC51DA22DECFB5F031
:10171000DDCFB6F0DDC0B7F0000E0001B86F77EC9A
:101720009EF07AD0E0C0C4F0E1C0C5F0020E000126
:10173000C66FDDC0C7F0FFEC9AF00001DF6F00015B
:10174000DF51D8A41200000120EE02F0DB51D926AF
:10175000DC51DA22DECFB5F0DDCFB6F0DDC0B7F078
:10176000010E0001B86F77EC9EF0000120EE04F04E
:10177000DB51D926DC51DA22DECFB5F0DDCFB6F071
:10178000DDC0B7F0010E0001B86F77EC9EF044D0D9
:10179000E0C0C4F0E1C0C5F0000E0001C66FDDC0BE
:1017A000C7F0FFEC9AF00001DF6F0001DF51D8A411
:1017B0001200000120EE02F0DB51D926DC51DA22C2
:1017C000DECFB5F0DDCFB6F0DDC0B7F0000E000122
:1017D000B86F77EC9EF0000120EE04F0DB51D926C3
:1017E000DC51DA22DECFB5F0DDCFB6F0DDC0B7F0E8
:1017F000000E0001B86F77EC9EF00ED00001DE51B4
:10180000000AD8B446D7010AD8B456D7030AD8B4C8
:1018100089D7010AD8B4BCD7080E0001DB25000126
:10182000C46F000E0001DC210001C56FDDC0C6F0F1
:10183000DEC0C7F010ECA1F012000001C86FB1D0FB
:10184000F9EC98F012000BEC9FF0120073EC9AF098
:1018500012007FEC94F0120012EC9EF0120080EC6B
:10186000A3F01200C8C0C5F07F0E0001C51700012B
:101870008C51140DAA0E0001C66F040E0001C76F33
:10188000F3500001C627F4500001C72300018D5119
:10189000010DF3500001C625D96EF4500001C72197
:1018A000DA6EDF507F0B0001C519D8B42ED0010EBF
:1018B0000001FF6F00018C51140DAA0E0001C56FCD
:1018C000040E0001C66FF3500001C527F45000015B
:1018D000C62300018D51010DF3500001C525D96EBD
:1018E000F4500001C621DA6E0001C8518009DF6E94
:1018F00000018C51020D000EF324D96E030EF4206A
:10190000DA6EFDC0DEFFFEC0DDFF12EC9EF00009C6
:10191000D8B41200C8C0C5F07F0E0001C517000181
:101920008C51140DAA0E0001C66F040E0001C76F82
:10193000F3500001C627F4500001C72300018D5168
:10194000010DF3500001C625D96EF4500001C721E6
:10195000DA6EDF507F0B0001C519D8B41200010EFA
:101960000001FF6F00018C51140DAA0E0001C56F1C
:10197000040E0001C66FF3500001C527F4500001AA
:10198000C62300018D51010DF3500001C525D96E0C
:10199000F4500001C621DA6E0001C8518009DF6EE3
:1019A00012000001C851070AD8B456D70F0AD8B49C
:1019B0004AD7010AD8B44DD7030AD8B441D7060A8A
:1019C000D8B444D7010AD8B43BD72D0AD8B44AD7E3
:1019D000030AD8B444D746D70001F75101EC98F078
:1019E000F5C0D9FFF6C0DAFF0001B5C0DEFF000187
:1019F000B6C0DDFF0001F75154EC98F0000120EE75
:101A000006F0F551D926F651DA220001B5C0DEFF05
:101A10000001B6C0DDFF0001F75154EC98F0000161
:101A200020EE04F0F551D926F651DA220001B5C0B6
:101A3000DEFF0001B6C0DDFF0001F751AEEC97F00C
:101A4000000120EE02F0F551D926F651DA2200010C
:101A5000B5C0DEFF0001B6C0DDFF000120EE04F0DE
:101A6000F551D926F651DA22DECF00F1DDCF01F1B2
:101A700000C1D9FF01C1DAFF000EDF6E000120EEC8
:101A800002F0F551D926F651DA22DECF00F1DDCF92
:101A900001F100C1D9FF01C1DAFFFF0EDF6EF5C011
:101AA000EFF0F6C0F0F0000E0001F16F59EC86F097
:101AB000000E0001F86F070E0001F86531D04BD021
:101AC000F5C0DBF0F6C0DCF0F8C0DDF0030E00017D
:101AD000DE6F3DEC8BF03CD0F5C0DBF0F6C0DCF007
:101AE000F8C0DDF0020E0001DE6F3DEC8BF030D06F
:101AF000F5C0DBF0F6C0DCF0F8C0DDF0010E00014F
:101B0000DE6F3DEC8BF024D0F5C0DBF0F6C0DCF0EE
:101B1000F8C0DDF0000E0001DE6F3DEC8BF018D058
:101B2000F5C0D9FFF6C0DAFFDECFC1F0DDCFC2F0DD
:101B3000F8C0C3F0F4ECA1F0000AD8B4C1D7010A90
:101B4000D8B4D6D7030AD8B4C7D7010AD8B4DCD7DB
:101B50000001F82BB0D7F5C0C4F0F6C0C5F0000EF8
:101B60000001C66F0FEC82F012000001CD6F000E75
:101B70000001CC6F000E0001D06FBB0E0001CA6FD8
:101B8000000E0001CB6F950EB4ECA4F00001CD5116
:101B9000B4ECA4F0000E0001D16F23D0CAC0D9FF6D
:101BA000CBC0DAFFDF500001CE6F020E0001CA2762
:101BB000000ECB230001CE51DFEC9DF00001CC27BD
:101BC0000001D151010D000EF324D96E020EF42054
:101BD000DA6ECEC0DFFF0001CE51B4ECA4F00001FC
:101BE000D12B0001CD510001D15DD8A0D7D7000E77
:101BF0000001D16F0ED00001D151010D000EF32470
:101C0000D96E010EF420DA6EEAECA4F0DF6E00016A
:101C1000D12B0001CC510001D15DD8A0ECD7000E32
:101C20000001D16F5ED0D0C0CFF021D00001CF51E4
:101C3000010D000EF324D96E010EF420DA6EDF5090
:101C40000001B66F0001D05100080001CF2500014E
:101C5000B76F0001D151010D000EF324D96E020EB1
:101C6000F420DA6EDF5067EC92F00001CF2B000118
:101C7000D151010D000EF324D96E020EF420DA6E5C
:101C8000DF50DFEC9DF00001C56FC66B0001D05145
:101C90000001C527000EC6230001CF510001C76F08
:101CA000C86B0001C5510001C75D0001C851800A21
:101CB0000001C96F0001C651800A0001C959D8A0AE
:101CC000B5D70001D151010D000EF324D96E020EDB
:101CD000F420DA6EDF50DFEC9DF00001D027000128
:101CE000D12B0001CD510001D15DD8B012009BD79E
:101CF000010E4B6E000E00016F6F000E0001706F41
:101D0000000E0001716FA60E0001F56F030E0001B9
:101D1000F66F000E0001F76FECEC8CF09C0E0001EA
:101D2000F56F030E0001F66F010E0001F76FECEC8A
:101D30008CF0A30E0001F56F000E0001F66F020E8D
:101D40000001F76FECEC8CF0990E0001F56F000EBE
:101D50000001F66F030E0001F76FECEC8CF08F0EB4
:101D60000001F56F000E0001F66F040E0001F76F21
:101D7000ECEC8CF0B00E0001F56F030E0001F66F75
:101D8000050E0001F76FECEC8CF0920E0001F56F80
:101D9000030E0001F66F060E0001F76FECEC8CF0FD
:101DA000B00E0001DB6F030E0001DC6F050E0001B9
:101DB000DD6F000E0001DE6F3DEC8BF09C0E00012C
:101DC000EB6F030E0001EC6F000E0001ED6F000ED3
:101DD0000001EE6F2EEC85F0B00E0001DB6F030EFC
:101DE0000001DC6F060E0001DD6F030E0001DE6FE7
:101DF0003DEC8BF0920E0001EF6F030E0001F06FCF
:101E0000030E0001F16F59EC86F0920E0001C46FD1
:101E1000030E0001C56F040E0001C66F000E000125
:101E2000C76F1DEC94F0B00E0001C46F030E0001EB
:101E3000C56F060E0001C66F010E0001C76F1DECD5
:101E400094F0000EA9EC9EF0010EA9EC9EF0000E9D
:101E50009E6E000EA16E000EA46E9B8E9B8C000EDB
:101E60000001B66F640EB56F75EC9DF0D08E120058
:101E70009CEC9CF0000E0001ED6F000EEC6F000179
:101E8000ED5106E1590E0001EC5DD8B08BD001D0C8
:101E900089D0D8900001EC35F66E0001ED35F76E73
:101EA000E50EF626FC0EF722F86A000EF82209006D
:101EB000800EF5180900F510D8A422D00001ED51CC
:101EC0001FE1580E0001EC5DD8B01AD00001EC4BB8
:101ED000ED2BD8900001EC35F66E0001ED35F76E74
:101EE000E50EF626FC0EF722F86A000EF82209002D
:101EF000F5CFB5F00A00F5CFB6F075EC9DF04BD0FC
:101F0000D8900001EC35F66E0001ED35F76EE50E68
:101F1000F626FC0EF722F86A000EF8220900000EE1
:101F2000F55E0900010EF55AD8A020D0000E000180
:101F3000B86FD8900001EC35F66E0001ED35F76E04
:101F4000E50EF626FC0EF722F86A000EF8220900CC
:101F5000F5CFEAF00900F5CFEBF0EBC0EAF00001B5
:101F6000EB6B0001EA515FECA3F015D0010E00010C
:101F7000B86FD8900001EC35F66E0001ED35F76EC4
:101F8000E50EF626FC0EF722F86A000EF82208008D
:101F9000F5505FECA3F00001EC4BED2B0001ED518F
:101FA00001E170D7000E0001B66F640EB56F75ECDD
:101FB0009DF0000E0001B86F290E5FECA3F0010E3A
:101FC00098EC99F0000E0001B66F640EB56F75ECD9
:101FD0009DF0000E0001BF6F000EBE6F92EC9FF0EF
:101FE0001200000120EE07F0D051D926D151DA229B
:101FF00001D80AD00500FA6EDE50FD6EDE50FE6E8E
:10200000DE50FF6EFA5012000001D86FD0C0D9FF29
:10201000D1C0DAFF0001D851DE18D8A421D00001C8
:1020200020EE01F0D051D926D151DA220001D2514F
:10203000DE5CD8B00AD0000120EE01F0D051D926E4
:10204000D151DA22000EDF6E1200000120EE01F005
:10205000D051D926D151DA220001D251DF5E1200CF
:10206000000120EE01F0D051D926D151DA22DF5003
:102070000001D36FD46B0001D2510001D327000EB1
:10208000D423000120EE01F0D051D926D151DA221B
:10209000DF500001D56FD66B0001D3510001D55D33
:1020A0000001D651800A0001D76F0001D451800A87
:1020B0000001D759D8B01200000120EE01F0D05134
:1020C000D926D151DA220001D251DF26000120EEBB
:1020D00002F0D051D926D151DA22000110EE01F0E0
:1020E000D051E126D151E222E7500001D56FD66BE5
:1020F000DE500001D55DDE500001D659D8A0120097
:10210000D0C0D9FFD1C0DAFFD8C0DFFF000120EE78
:1021100001F0D051D926D151DA22000EDF6E000134
:1021200020EE04F0D051D926D151DA2201D8120084
:102130000500FA6EDE50FD6EDE50FE6EDE50FF6E64
:10214000FA500001D8511200000E0001CB6F6C0E46
:10215000CC6FDC0ECD6F020ECE6F0001D890C2376F
:10216000C337C437C537020E0001C66FD8900001CF
:10217000CE33CD33CC33CB330001C62FF7D7CBC012
:10218000B5F0CCC0B6F0CDC0B7F0CEC0B8F0C2C08C
:10219000B9F0C3C0BAF0C4C0BBF0C5C0BCF03FECDE
:1021A00095F0B5C0CFF0B6C0D0F0B7C0D1F0B8C090
:1021B000D2F010D0000E0001C76F000EC86F000EE5
:1021C000C96F000ECA6F00018B2B020E00018B65D8
:1021D00001D026D0CFC0B5F0D0C0B6F0D1C0B7F096
:1021E000D2C0B8F000018B51010DCE0EF324F66E73
:1021F000FD0EF420F76EF86A000EF8220800F55084
:102200000001B96FBA6BBB6BBC6B3FEC95F0000182
:10221000B8510001B711CEE10001B605D8B0CAD758
:10222000CA5000018B19FC0B8B19CA6ECA84EEECE4
:10223000A4F000018B51010DCE0EF324F66EFD0EBD
:10224000F420F76EF86A000EF8220800F5CF8AF045
:10225000FF0E0001CF2503011E6FFF0E0001D021EC
:1022600003011F6FFF0E0001D1210301206FFF0E3C
:102270000001D2210301216F1EC3B5F01FC3B6F0C8
:1022800020C3B7F021C3B8F000018A510001B96F33
:10229000BA6BBB6BBC6B3FEC95F00001B551000114
:1022A0008B6F8BC0CBFF120051B2E7EF91F00001B2
:1022B00020EE04F07D51D9267E51DA22DF5055EC14
:1022C000A1F00009D8B47AD07DC0D9FF7EC0DAFF72
:1022D000DE50DE10D8B46DD07DC0D9FF7EC0DAFFED
:1022E000010EDBBE26D0010EDB5003E1DE04D8A0D8
:1022F00020D07DC0D9FF7EC0DAFFDE2804E17F0E4A
:10230000DE18D8B407D07DC0D9FF7EC0DAFFDE0664
:10231000000EDD5A8F0E0001C46F000E0001C56F64
:10232000000E0001C66F010E0001C76F1DEC94F096
:102330001FD07DC0D9FF7EC0DAFFDE0404E1800E2D
:10234000DE18D8B407D07DC0D9FF7EC0DAFFDE2A00
:10235000000EDD228F0E0001C46F000E0001C56F5C
:10236000000E0001C66F000E0001C76F1DEC94F057
:102370008F0E0001C46F000E0001C56F010E000139
:10238000C66F010E0001C76F1DEC94F08F0E0001A7
:10239000C46F000E0001C56F010E0001C66F000E74
:1023A0000001C76F1DEC94F006ECA4F0D0ECA4F093
:1023B000120006ECA4F0F6ECA4F0120072C0B5F026
:1023C00073C0B6F074C0B7F0C2ECA4F01200000104
:1023D00020EE04F07D51D9267E51DA22DF5069ECDF
:1023E000A2F00009D8B46AD07DC0D9FF7EC0DAFF60
:1023F000DE50DE10D8B45DD07DC0D9FF7EC0DAFFDC
:10240000010EDBBE22D0010EDB5003E1DE04D8A0BA
:102410001CD07DC0D9FF7EC0DAFFDE2804E17F0E2C
:10242000DE18D8B407D07DC0D9FF7EC0DAFFDE0643
:10243000000EDD5A8F0E106E000E116E000E126E21
:10244000010E136E59EC97F01BD07DC0D9FF7EC0F2
:10245000DAFFDE0404E1800EDE18D8B407D07DC0B8
:10246000D9FF7EC0DAFFDE2A000EDD228F0E106E4D
:10247000000E116E000E126E000E136E59EC97F0E6
:102480008F0E106E000E116E010E126E010E136E85
:1024900059EC97F08F0E106E000E116E010E126E39
:1024A000000E136E59EC97F002ECA5F0D6ECA4F0F8
:1024B000120002ECA5F0FFECA4F0120072C001F0D3
:1024C00073C002F074C003F0C9ECA4F01200000164
:1024D000BA6F57D0B6C034F02CEC9AF01200B6C0E8
:1024E00033F01200B6C032F01200B6C031F0120064
:1024F000B6C030F01200B6C02FF01200B6C02EF0F9
:1025000012000001B7510001D8A405D0B6C064F094
:102510000001656B1200B6C066F00001676B000138
:1025200064510001B96FB86B000166510001B82514
:102530000001776F000167510001B9210001786F38
:1025400012000001B7510001D8A405D0B6C060F058
:102550000001616B1200B6C062F00001636B000104
:1025600060510001B96FB86B000162510001B825DC
:102570000001756F000163510001B9210001766F00
:1025800012000001BA51070AD8B4A4D70F0AD8B470
:10259000A6D7010AD8B4A6D7030AD8B4A6D7010A89
:1025A000D8B4A6D7070AD8B4A6D7010AD8B4A6D7F4
:1025B0001E0AD8B4A6D7070AD8A41200C2D7C1C031
:1025C000C9F0C2C0CAF0000E0001C86F000EC76F8C
:1025D000C3C0C5F0C4C0C6F00001C9510001CA1192
:1025E000D8A434D0C5C0D9FFC6C0DAFF300EDF6E24
:1025F000000E0001C86F010EC76F40D0C9C0BCF00B
:10260000CAC0BDF0000E0001BF6F0A0EBE6FDAEC4B
:102610009EF00001BC51300FC5C0D9FFC6C0DAFF23
:10262000DF6EC9C0B5F0CAC0B6F0000E0001B86FC9
:102630000A0EB76F3DEC9BF0B5C0C9F0B6C0CAF04A
:102640000001C74BC82B0001C54BC62B0001C95167
:102650000001CA11D8B408D00001C85105E1060E26
:102660000001C75DD8A0CAD7C3C0B5F0C4C0B6F0DA
:10267000C7C0B7F0C8C0B8F0D4EC9CF00001C75197
:102680000001C325D96E0001C8510001C421DA6ED2
:10269000000EDF6E12000101005101010111D8B4DA
:1026A0001200010104510101051101010611D8B404
:1026B0001200010107510101081101010911D8B4EB
:1026C000120001010A5101010B1101010C11D8B4D2
:1026D00012000101025101010311D8A405D0000E1E
:1026E0000101036F010E026F00C1D9FF01C1DAFFC2
:1026F000000EDF6E010120EE01F00051D9260151DC
:10270000DA22000EDF6E010120EE02F00051D92620
:102710000151DA2202C1DEFF03C1DDFF010120EE1B
:1027200004F00051D9260151DA220AC1DEFF0BC1A3
:10273000DEFF0CC1DEFF010120EE07F00051D926BB
:102740000151DA2207C1DEFF08C1DEFF09C1DEFF49
:1027500001D812000500FA6E01010451FD6E055109
:10276000FE6E0651FF6EFA5012000001C06F200E7F
:102770000001C05F0001C051050DF3CFBEF0F4CFE2
:10278000BFF0D10E0001BE250001C16FFD0E00019A
:10279000BF210001C26F000E0001C56F040E0001D1
:1027A000C56501D043D0000E0001C66F060E0001C2
:1027B000C66501D035D0C1C0B5F0C2C0B6F0C6C044
:1027C000B7F084ECA2F00009D8A405D081C0C3F012
:1027D00082C0C4F004D0FDC0C3F0FEC0C4F000014C
:1027E000C6510A0D640E0001BC6F040E0001BD6FDE
:1027F000F3500001BC27F4500001BD230001C55176
:10280000020DF3500001BC25D96EF4500001BD212A
:10281000DA6EC3C0DEFFC4C0DDFF0001C62BC6D721
:102820000001C14BC22B0001C52BB8D7640E0001BB
:10283000BA6F040E0001BB6F1200080E0001C42520
:102840000001C16F000E0001C5210001C26FC6C0AA
:10285000C3F0F4ECA1F00001C86F42D0010E0001FA
:10286000C717000120EE02F0C451D926C551DA2263
:10287000DECFB5F0DDCFB6F0C6C0B7F0C7C0B8F058
:1028800077EC9EF01200010E0001C717010E000147
:10289000C71B000120EE02F0C451D926C551DA222F
:1028A000DECFB5F0DDCFB6F0C6C0B7F0C7C0B8F028
:1028B00077EC9EF01200010E0001C717000120EE18
:1028C00004F0C451D926C551DA22DECFB5F0DDCFF0
:1028D000B6F0C6C0B7F0C7C0B8F077EC9EF01200F3
:1028E0000001C851000AD8B41200010AD8B4B6D702
:1028F000030AD8B4C8D7010AD8A41200DCD7000E46
:102900000001C36FFA0E47240001B56FFF0E482087
:102910000001B66F000E0001B86F060EB76FE0EC55
:1029200094F00001B5510001C46FC4C0B5F00001BE
:10293000B66B000E0001B86F040EB76FE0EC94F0B8
:102940000001B5510001C26F000E0001C36F06D037
:1029500076ECA1F012EC9EF00001C32B0001C251F5
:10296000040DF31EF41EF34AF42A0001C4510001C1
:10297000BD6FBE6BF3500001BD27F4500001BE23B4
:102980000001BD1FBE1FBD4BBE2B040E0001BD27A5
:10299000000EBE230001C3510001BF6FC06B0001D8
:1029A000BD510001BF5D0001C051800A0001C16F2F
:1029B0000001BE51800A0001C159D8B01200C8D729
:1029C000000E0001BA6F0001B8AF08D00001B76D6A
:1029D000B81FD8B0B82B010E0001BA6F0001B6AF16
:1029E00008D00001B56DB61FD8B0B62B010E00019E
:1029F000BA1B000E0001BC6F000EBB6F0001B75187
:102A00000001B811D8B42CD0010E0001B96F06D066
:102A10000001D890B737B8370001B92B0001B8AF23
:102A2000F7D70001D890BB37BC370001B751000180
:102A3000B55D0001B8510001B659D8A00AD0000117
:102A4000B7510001B55F0001B8510001B65B00014C
:102A5000BB810001D890B833B7330001B92FE1D75B
:102A60000001BA510001D8B405D00001BB6DBC1FF4
:102A7000D8B0BC2BBBC0B5F0BCC0B6F01200000E85
:102A80000001BD6F000EBE6F000EBF6F000EC06F65
:102A90000001B9510001BA110001BB110001BC11C4
:102AA000D8B442D0010E0001C16F08D00001D89007
:102AB000B937BA37BB37BC370001C12B0001BCAFF7
:102AC000F5D70001D890BD37BE37BF37C0370001FA
:102AD000B9510001B55D0001BA510001B6590001BC
:102AE000BB510001B7590001BC510001B859D8A031
:102AF00012D00001B9510001B55F0001BA510001C7
:102B0000B65B0001BB510001B75B0001BC51000185
:102B1000B85B0001BD810001D890BC33BB33BA3330
:102B2000B9330001C12FCDD7BDC0B5F0BEC0B6F0DE
:102B3000BFC0B7F0C0C0B8F01200000E0001BA6FFD
:102B4000000EB96F38D02E0E0001B925D96E030ED4
:102B50000001BA21DA6EB6C0E1FFB7C0E2FFE7506C
:102B6000ECEC83F0DF6E2E0E0001B925D96E030E5A
:102B70000001BA21DA6E800EDE18D8A40ED0000152
:102B8000B907D8A0BA072E0E0001B925D96E030ED9
:102B90000001BA21DA6E000EDB8E0001B64BB72BB6
:102BA0000001B94BBA2B0001BA511AE1060E00011F
:102BB000B95DD8B015D0B6C0D9FFB7C0DAFFDF50C5
:102BC000D8B40ED0C0D72E0E0001B925D96E030E91
:102BD0000001BA21DA6E000EDF6E0001B94BBA2B8C
:102BE0000001BA5106E1060E0001B95DD8B012002D
:102BF000EAD712000001B951010DC10EF324F66E9F
:102C0000FD0EF420F76EF86A000EF8220800F5CFEA
:102C1000BFF0000E0001BE6F06D00001B7510001E9
:102C2000B85F0001BE2B0001B7510001B85DD8B0FC
:102C3000F4D70001B9510001B803F350B86F000197
:102C4000BE510001B8270001BF510001BA17B8C03A
:102C5000BBF0BFC0BCF00001BB2B03D00001D8907B
:102C6000BC370001BB2FFAD70001BC51FF0A00019D
:102C7000BD6FB5C0D9FFB6C0DAFF0001BD51DF1688
:102C8000B8C0BBF0BAC0BCF00001BB2B03D0000140
:102C9000D890BC370001BB2FFAD7B5C0D9FFB6C05A
:102CA000DAFF0001BC51DF1212000001CD6FC5C078
:102CB000B5F0C6C0B6F033ECA1F0B5C0C5F0B6C0F3
:102CC000C6F0C7C0B5F0C8C0B6F033ECA1F0B5C0CF
:102CD000C7F0B6C0C8F00001CD510001D8B429D06A
:102CE000000E0001B66F890EB56FC6C0C9F00001B5
:102CF000CA6BC9BFCA690001C9510001B76FB86B7F
:102D00000001C5510001B96FBA6BC8C0CBF000011A
:102D1000CC6BCBBFCC690001CB510001BB6FBC6B4E
:102D20000001C7510001BD6FBE6B050E40EC9DF068
:102D30001200890EB4ECA4F00001C651B4ECA4F06A
:102D40000001C551B4ECA4F00001C851B4ECA4F0EA
:102D50000001C751B4ECA4F01200CC0EF66E490E7F
:102D6000F76E010EF86E03EED5F010EE08F00900D4
:102D7000F5CFEEFFE550E150FAE1E40EF66E490EB4
:102D8000F76E010EF86E00EEF9F010EE07F0090094
:102D9000F5CFEEFFE550E150FAE1B80EF66E490EC0
:102DA000F76E010EF86E00EE47F010EE0AF0090023
:102DB000F5CFEEFFE550E150FAE104EEAAF011EE96
:102DC0002CF0EE6AE550E150FCE1E250FAE104EE4D
:102DD00000F0AA0EEE6AE806FDE103EE00F0D50E63
:102DE000EE6AE806FDE100EE60F0550EEE6AE806D8
:102DF000FDE100EE29F01E0EEE6AE806FDE15190BD
:102E00005192000173EF89F00001BD6F020E0001C5
:102E1000BA27020E0001BC27030E0001BD27030ED6
:102E20000001BB27000E0001B86F2A0E5FECA3F073
:102E3000010E0001B86F000E5FECA3F0010E00015F
:102E4000B86F0001BD515FECA3F0010E0001B86F37
:102E5000000E5FECA3F0010E0001B86F0001BB5142
:102E60005FECA3F0000E0001B86F2B0E5FECA3F037
:102E7000010E0001B86F000E5FECA3F0010E00011F
:102E8000B86F0001BA515FECA3F0010E0001B86FFA
:102E9000000E5FECA3F0010E0001B86F0001BC5101
:102EA0005FECA3F0000E0001B86F2C0E5FECA3F0F6
:102EB0001200080E10240D6E000E11200E6E12C0AE
:102EC0000FF0CEECA2F0146E3BD0010E131620EEE4
:102ED00002F01050D9261150DA22DECF01F0DDCFFA
:102EE00002F012C003F013C004F037ECA0F012009F
:102EF000010E1316010E131A20EE02F01050D926FF
:102F00001150DA22DECF01F0DDCF02F012C003F063
:102F100013C004F037ECA0F01200010E131620EEDF
:102F200004F01050D9261150DA22DECF01F0DDCFA7
:102F300002F012C003F013C004F037ECA0F012004E
:102F40001450000AD8B41200010AD8B4BED7030A3C
:102F5000D8B4CED7010AD8A41200DFD70001B76FCA
:102F600038D0920E0001B56F0F0E0001B66F12003F
:102F7000930E0001B56F0F0E0001B66F1200940E94
:102F80000001B56F0F0E0001B66F1200950E000123
:102F9000B56F0F0E0001B66F1200960E0001B56FEF
:102FA0000F0E0001B66F1200970E0001B56F0F0EE5
:102FB0000001B66F1200980E0001B56F0F0E0001F0
:102FC000B66F1200000E0001B56F000E0001B66F63
:102FD00012000001B751000AD8B4C3D7010AD8B40F
:102FE000C7D7030AD8B4CBD7010AD8B4CFD7070ABA
:102FF000D8B4D3D7010AD8B4D7D7030AD8B4DBD70B
:10300000E1D70001B76F38D0BD0E0001B56FFF0EDC
:103010000001B66F1200BB0E0001B56FFF0E00017C
:10302000B66F1200B90E0001B56FFF0E0001B66F4A
:103030001200B70E0001B56FFF0E0001B66F12004F
:10304000B50E0001B56FFF0E0001B66F1200B30E92
:103050000001B56FFF0E0001B66F1200B10E000146
:10306000B56FFF0E0001B66F1200000E0001B56FC4
:10307000000E0001B66F12000001B751000AD8B46B
:10308000C3D7010AD8B4C7D7030AD8B4CBD7010A2B
:10309000D8B4CFD7070AD8B4D3D7010AD8B4D7D772
:1030A000030AD8B4DBD7E1D70001B76F38D0800E60
:1030B0000001B56F0F0E0001B66F1200810E000106
:1030C000B56F0F0E0001B66F1200820E0001B56FD2
:1030D0000F0E0001B66F1200830E0001B56F0F0EC8
:1030E0000001B66F1200840E0001B56F0F0E0001D3
:1030F000B66F1200850E0001B56F0F0E0001B66F9E
:103100001200860E0001B56F0F0E0001B66F12009F
:10311000000E0001B56F000E0001B66F1200000135
:10312000B751000AD8B4C3D7010AD8B4C7D7030A25
:10313000D8B4CBD7010AD8B4CFD7070AD8B4D3D7DD
:10314000010AD8B4D7D7030AD8B4DBD7E1D7000E29
:103150000001D76F0001C9510001CD250001D56FD5
:103160000001CB510001CF250001D66FCFC0B5F0D3
:10317000D0C0B6F0CDC0B7F0CEC0B8F04EECA2F0E3
:10318000B5C0D3F0B6C0D4F0CBC0BAF00001D505BD
:103190000001BB6F0001D6050001BC6F0001C951E1
:1031A00004EC97F0000E0001D76F13D00001D75147
:1031B000020DF3500001C725D96EF4500001C8215B
:1031C000DA6EDECFBAF0DDCFBBF0E9ECA3F00001A0
:1031D000D72B0001D7510001D16FD26B0001D35121
:1031E0000001D15D0001D4510001D259D8B01200C4
:1031F000DDD73ED000018C51140DAA0E0001B56F31
:10320000040E0001B66FF3500001B527F450000121
:10321000B62300018D51010DF3500001B525D96E83
:10322000F4500001B621DA6EDF50D8B41FD0010E81
:103230000001FF6F00018C51140DAA0E0001B56F43
:10324000040E0001B66FF3500001B527F4500001E1
:10325000B62300018D51010DF3500001B525D96E43
:10326000F4500001B621DA6E800EDF6E00018D2B66
:10327000130E00018D65BED7000E00018D6F000199
:103280008C2B080E4926000E4A22000E486E060EB0
:10329000476E1200B5C0F6FFB6C0F7FF000EF86E1D
:1032A0000F0EF76403D00800F55005D0F6CFE9FF04
:1032B000F7CFEAFFEF500001BD6F0001B951010DDA
:1032C000C10EF324F66EFD0EF420F76EF86A000EC0
:1032D000F8220800F5CFBBF0000E0001BC6F06D04D
:1032E0000001B7510001B85F0001BC2B0001B751CC
:1032F0000001B85DD8B0F4D70001B9510001B8039E
:10330000F350B86F0001BC510001B8270001B82983
:103310000001BA6F03D00001D890BD330001BA2F6D
:10332000FAD70001BB510001BD170001BD511200C9
:103330000001BA6F000E0001BB6F000E0001B86FF4
:10334000360E5FECA3F00001BA51030B0001BB6F16
:103350002CD0010E0001B86FC80E5FECA3F0800EF8
:10336000506E800E4F6E1200010E0001B86FA80E55
:103370005FECA3F0800E506E800E4F6E1200010EB7
:103380000001B86F080E5FECA3F0800E506E800E47
:103390004F6E1200010E0001B86F680E5FECA3F0D3
:1033A000800E506E800E4F6E12000001BB51000A5D
:1033B000D8B4CFD7010AD8B4D7D7030AD8B4DFD747
:1033C000010AD8A41200E6D70001BB6FCA0EF66E40
:1033D000FD0EF76E000EF86E0900F5CFB7F009008C
:1033E000F5CFB8F00900F5CFB9F00A00F5CFBAF083
:1033F000110E0001BC6F030E0001BB170001BB5191
:10340000010DB70EF324D96E000EF420DA6EDF50F2
:103410000001B56FBCC0B6F00001B52B03D00001B0
:10342000D890B6370001B52FFAD70001B651000188
:10343000BC6F0001BC390F0B0001BC6F0001BC5117
:103440000F0B0001BC6F030134510001BC19F00BDC
:10345000BC190301346F120034A002D0010E01D058
:10346000000E0001886F34C0B5F00001D890B5336C
:103470000001B5A102D0010E01D0000E0001876F3E
:1034800034C0B5F00001D890B5330001D890B53301
:103490000001B5A102D0010E01D0000E2D6E34C086
:1034A000B5F00001D890B5330001D890B5330001D4
:1034B000D890B5330001B5A102D0010E01D0000EA5
:1034C0000001866F34C0B5F00001B53B0F0EB51793
:1034D0000001B5A104D0010E0001856F1200000E9D
:1034E0000001856F1200000E00018D6F000E0001BB
:1034F0008C6F000E0001B86F0E0E0001B86501D090
:103500002DD0000E0001B76F130E0001B76501D07A
:1035100022D0010E0001FF6F0001B851140DAA0E58
:103520000001B56F040E0001B66FF3500001B5271E
:10353000F4500001B6230001B751010DF350000112
:10354000B525D96EF4500001B621DA6E800EDF6E1B
:103550000001B72BD9D70001B82BCED7010E00013F
:103560008E6F000E486E060E476E000E4A6E060EF7
:10357000496E1200000E00018D6F000E00018C6F6D
:10358000000E0001B76F130E0001B76501D01200E5
:10359000000E0001B86F0E0E0001B86501D02CD0EE
:1035A0000001B851140DAA0E0001B56F040E000100
:1035B000B66FF3500001B527F4500001B6230001A7
:1035C000B751010DF3500001B525D96EF45000013B
:1035D000B621DA6E000EDF6E0001B851020D000E4A
:1035E000F324D96E030EF420DA6EFF0EDE6EFF0EAA
:1035F000DD6E0001B82BCFD70001B72BC4D7A70EC3
:10360000F66EFD0EF76E000EF86E20EECAF00F0E8D
:103610000900F5CFDEFFE806FBE2C4C0C1F0C5C07B
:10362000C2F0C7C0C3F0F4ECA1F00001DA6F040EE1
:103630000001C66120D0040E0001DA611CD0000137
:10364000C651040DCA0E0001C86F000E0001C96FFB
:10365000F3500001C827F4500001C9230001DA51DA
:10366000010DF3500001C825D96EF4500001C921A5
:10367000DA6EDF501200050E1200000E0001BB6F63
:10368000000EBA6F0001B7510001B811D8B42CD0A8
:10369000010E0001B96F06D00001D890B737B837D6
:1036A0000001B92B0001B8AFF7D70001D890BA37A5
:1036B000BB370001B7510001B55D0001B8510001F1
:1036C000B659D8A00AD00001B7510001B55F00017A
:1036D000B8510001B65B0001BA810001D890B8333F
:1036E000B7330001B92FE1D7BAC0B5F0BBC0B6F00F
:1036F000120001C0F6FF02C0F7FF000EF86E0F0EB9
:10370000F76403D00800F55005D0F6CFE9FFF7CFF6
:10371000EAFFEF50096E0550010DC10EF324F66E5D
:10372000FD0EF420F76EF86A000EF8220800F5CFBF
:1037300007F0000E086E03D00350045E082A035001
:10374000045CD8B0F9D705500402F350046E085059
:1037500004260428066E02D0D8900932062EFCD723
:103760000750091609501200000120EE06F0C4515E
:10377000D926C551DA22DECFB5F0DDCFB6F0050E81
:103780000001B76F000E0001B86F77EC9EF00001EA
:1037900020EE06F0C451D926C551DA22DECFC0F0A2
:1037A000DDCFC1F0000E0001C26F000E0001C36F3B
:1037B0004EECA3F0000120EE06F0C451D926C5510D
:1037C000DA22DECFB5F0DDCFB6F0050E0001B76F1F
:1037D000010E0001B86F77EC9EF01200FC0E966EA1
:1037E0005E0E0001D06F030E0001D16F010E0001CB
:1037F000D26FF1EC8FF0400E0001D06F030E00018C
:10380000D16F010E0001D26FF1EC8FF0360E000186
:10381000D06F030E0001D16F010E0001D26FF1ECE9
:103820008FF04A0E0001D06F030E0001D16F010E20
:103830000001D26FF1EC8FF0540E0001D06F030E37
:103840000001D16F010E0001D26FF1EC8FF0120078
:10385000000120EE06F0C451D926C551DA22DECF90
:10386000B5F0DDCFB6F0050E0001B76F000E000118
:10387000B86F77EC9EF0000120EE06F0C451D92617
:10388000C551DA22DECFC0F0DDCFC1F0000E00015D
:10389000C26F020E0001C36F4EECA3F0000120EED8
:1038A00006F0C451D926C551DA22DECFB5F0DDCFFE
:1038B000B6F0050E0001B76F010E0001B86F77EC8E
:1038C0009EF01200000E0001CA6F000E0001CB6FC7
:1038D000C2C0BAF00001C0510001C4250001C86F88
:1038E0000001C8050001BB6F0001C2510001C625DF
:1038F0000001C96F0001C9050001BC6F0001C05182
:1039000004EC97F0C6C0CBF00001CB510001D8B455
:103910001200C4C0CAF00001CA510001D8B409D0D5
:10392000BEC0BAF0BFC0BBF0E9ECA3F00001CA070B
:10393000F2D70001CB07E8D7B00E0001DB6F030E12
:103940000001DC6F070E0001DD6F030E0001DE6F6A
:103950003DEC8BF0B00E0001DB6F030E0001DC6F5D
:10396000060E0001DD6F030E0001DE6F3DEC8BF0F3
:103970000FECA0F0C00E0001E26FC60EE36F2D0E3B
:10398000E46F000EE56F010E0001E66F010E00010D
:10399000E76F00EC80F0730E0001C46F030E0001AE
:1039A000C56FB4EC9BF012000001B7510001B525C2
:1039B0000001BA6F0001B8510001B6210001BB6FD0
:1039C0001AD0B5C0D9FFB6C0DAFFDF500001B96F19
:1039D000BAC0D9FFBBC0DAFFB5C0E1FFB6C0E2FF95
:1039E000DFCFE7FF0001B54BB62BBAC0D9FFBBC094
:1039F000DAFFB9C0DFFF0001BA07D8A0BB0700019A
:103A0000BA510001B55D0001BB510001B659D8B0F3
:103A10001200D7D726D0A7C0D9FFA8C0DAFF00016F
:103A2000DF94B7C0C9FFC7A0FED7C9CFB7F0A7C002
:103A3000D9FFA8C0DAFF0001DF8412009DC0D9FFC2
:103A40009EC0DAFF0001DF9EB7C06FFF6DA0FED7FA
:103A50006FCFB7F09DC0D9FF9EC0DAFF0001DF8EA7
:103A60001200000120EE02F0B551D926B651DA223B
:103A7000DF50000AD8B4CFD7010AD8A41200DED78D
:103A80000001C36FB50E0001C16F000E0001C26FCF
:103A9000000E0001C46F1FD0C1C0D9FFC2C0DAFF41
:103AA0000001C45135C0BFF00001C06B0001BF2749
:103AB000000EC023000E0001BF25E16E040E0001C0
:103AC000C021E26EDFCFE7FF020E0001C127000E2A
:103AD000C2230001C42B0001C3510001C45DD8A062
:103AE000DBD70001C351352612001FD0000E0001A4
:103AF000B76F000EB86F000EB96F000EBA6F0001FD
:103B0000BA510001B91111E1B00E0001B75D040E08
:103B10000001B859D8B009D000F0010E0001B72754
:103B2000000EB823B923BA23EAD70001B507D8A0FD
:103B3000B6070001B529DAE10001B629D8A4D6D725
:103B4000080E0001B76F800EB86F000EB96F000E3F
:103B5000BA6F1200050E0001E16FDBC0D9FFDCC0B7
:103B6000DAFFDECFE2F0DDCFE3F00001DD51020D40
:103B7000F3CFDFF00001DD51020DF3280001E06F0B
:103B8000E2C0C4F0E3C0C5F0DEC0C6F0DFC0C7F0DD
:103B9000FFEC9AF00001E16F0001E151D8A40CD0D4
:103BA000E2C0C4F0E3C0C5F0DEC0C6F0E0C0C7F0BC
:103BB000FFEC9AF00001E16F0001E15112000001F9
:103BC000B56F12D0010E1200010E1200010E12008C
:103BD000010E1200010E1200010E1200010E120061
:103BE000020E1200020E12000001B551070AD8B4ED
:103BF000E9D70F0AD8B4E8D7010AD8B4E7D7030A3F
:103C0000D8B4E6D7010AD8B4E5D7070AD8B4E4D7C0
:103C1000010AD8B4E3D71E0AD8B4E2D7070AD8A459
:103C20001200E0D700018D2B060E4726000E482219
:103C3000060E47240001B96F000E48200001BA6F3C
:103C40000001BABF09D00001BA5104E1800E0001A1
:103C5000B95DD8B0F9EC98F0080E49240001B96FAD
:103C6000000E4A200001BA6F0001BABF0CD000015B
:103C7000BA5105E1800E0001B95DD8A004D073EC03
:103C80009AF0010E1200000E12000001D26F000126
:103C9000CFBF0DD00001CF5104E10001CE05D8A067
:103CA00006D0000E0001CF6F010ECE6F03D00001D1
:103CB000CE69CF690001D2510001D8B40CD0D0C078
:103CC000C5F0D1C0C6F0CEC0C7F0CFC0C8F0010E5D
:103CD00055EC96F01200D0C0C5F0D1C0C6F0CEC0F1
:103CE000C7F0CFC0C8F0000E55EC96F01200010EE0
:103CF0000001B817B7C0B9F0010E0001BA6F00019A
:103D0000B92B03D00001D890BA370001B92FFAD7E8
:103D10000001BA51FF0A0001BB6FB5C0D9FFB6C0A0
:103D2000DAFF0001BB51DF16B7C0B9F0B8C0BAF076
:103D30000001B92B03D00001D890BA370001B92F88
:103D4000FAD7B5C0D9FFB6C0DAFF0001BA51DF1209
:103D500012000001E26F1ED0A30E0001DB6F000E07
:103D60000001DC6F000E0001DD6F030E0001DE6F4D
:103D70003DEC8BF017D0A30E0001DB6F000E0001AD
:103D8000DC6F010E0001DD6F030E0001DE6F3DEC04
:103D90008BF008D00001E251000AD8B4DDD7010A47
:103DA000D8B4E9D7000E0001C96F0001E251E7EC79
:103DB0009FF012000001BE510001BF11D8B426D0FF
:103DC000010E0001C06F06D00001D890BE37BF378A
:103DD0000001C02B0001BFAFF7D70001BE510001A9
:103DE000BC5D0001BF510001BD59D8A008D0000141
:103DF000BE510001BC5F0001BF510001BD5B00016D
:103E0000D890BF33BE330001C02FE7D7BCC0BCF091
:103E1000BDC0BDF0120000018D51D8B407D0FA0E1C
:103E20004726FF0E482200018D0720D000018C514B
:103E3000D8B40ED0000E486E720E476EF80E4926AA
:103E4000FF0E4A22130E00018D6F00018C070ED069
:103E5000000E486E060E476E000E4A6E060E496E44
:103E6000000E00018D6F000E00018C6F76ECA1F04A
:103E70001200050E0001EA6F0001E651020DF3CFBA
:103E8000E8F00001E651020DF3280001E96FE4C0FB
:103E9000DBF0E5C0DCF0E8C0DDF0E7C0DEF0AAEC66
:103EA0009DF00001EA6F0001EA51D8A40CD0E4C0F3
:103EB000DBF0E5C0DCF0E9C0DDF0E7C0DEF0AAEC45
:103EC0009DF00001EA6F0001EA5112000001C86F85
:103ED0000001C8510001D8B415D0000E0001B66F22
:103EE0008B0EB56FC5C0B7F00001B86BC6C0B9F096
:103EF0000001BA6BC7C0BBF00001BC6B040E40EC04
:103F00009DF012008B0EB4ECA4F00001C551B4EC8E
:103F1000A4F00001C651B4ECA4F00001C751B4EC08
:103F2000A4F01200000E0001C06F000E0001C16F6E
:103F3000000E0001BA6F50040001BB6F4F04000176
:103F4000BC6F000E04EC97F04FC0C1F00001C151EE
:103F50000001D8B4120050C0C0F00001C0510001EF
:103F6000D8B409D0BEC0BAF0BFC0BBF0E9ECA3F032
:103F70000001C007F2D70001C107E8D71CD0000E2E
:103F80000001B76F000EB86F000EB96F000EBA6F68
:103F90000001B7510001B8110001B9110001BA11B7
:103FA000D8A409D000F0010E0001B727000EB823F5
:103FB000B923BA23EDD70001B507D8A0B607000191
:103FC000B529DDE10001B629D8B41200D8D7000127
:103FD000CA6F1CD0A30E0001C46F000E0001C56F94
:103FE000000E0001C66FC9C0C7F01DEC94F01200AE
:103FF000A30E0001C46F000E0001C56F010E000189
:10400000C66FC9C0C7F01DEC94F012000001CA5180
:10401000000AD8B4DFD7010AD8A41200E9D7ADEC62
:10402000A3F0010EA6ECA0F0000E0001B66F800E0A
:10403000B56F75EC9DF0010EA6ECA0F09EECA3F020
:10404000000E0001B66F800EB56F75EC9DF0010E8D
:10405000A6ECA0F0ADECA3F0000E0001B66F800E50
:10406000B56F75EC9DF0010EA6ECA0F01200010EEC
:10407000041603C005F0010E066E052A02D0D89082
:104080000636052EFCD70650FF0A076E01C0D9FF81
:1040900002C0DAFF0750DF1603C005F004C006F0C7
:1040A000052A02D0D8900636052EFCD701C0D9FFCC
:1040B00002C0DAFF0650DF121200000120EE06F007
:1040C000B551D926B651DA22DECFB8F0DDCFB9F03E
:1040D000B8C0D9FFB9C0DAFFDF500001BA6F0001E4
:1040E000B751040DF3280001B86F03D00001D89038
:1040F000BA330001B82FFAD70F0E0001BA1700012A
:10410000BA511200050E0001EE6FEBC0E4F0ECC0F6
:10411000E5F0000E0001E66FEDC0E7F039EC9FF02E
:104120000001EE6F0001EE51D8A40DD0EBC0E4F019
:10413000ECC0E5F0010E0001E66FEDC0E7F039ECF0
:104140009FF00001EE6F0001EE5112000001CD6FF3
:1041500018D0A30E0001C96F000E0001CA6F000E37
:104160000001CB6F9EECA2F01200A30E0001C96FFC
:10417000000E0001CA6F010E0001CB6F9EECA2F091
:1041800012000001CD51000AD8B4E3D7010AD8A427
:104190001200EBD70001CE6F0001CE510001D8B460
:1041A0000ED0000E0001C66F000EC56F000E00019C
:1041B000C86F000EC76F010E55EC96F01200000E8E
:1041C0000001C66F000EC56F000E0001C86F000E23
:1041D000C76F000E55EC96F01200000120EE06F0BD
:1041E000B551D926B651DA22DECFB8F0DDCFB9F01D
:1041F000B8C0D9FFB9C0DAFFDF500001BA6F0001C3
:10420000B7290001B86F03D00001D890BA3300017C
:10421000B82FFAD7010E0001BA170001BA511200E7
:10422000030E0001C66514D0010E0001C425000173
:10423000C06F000E0001C5210001C16F0001C65111
:10424000FC0F0001C26FC7C0C3F03DECA3F0120029
:10425000C4C0C0F0C5C0C1F0C6C0C2F0C7C0C3F082
:104260003DECA3F012000001B6AF1AD00001B6BFBA
:1042700007D00001B6510AE10001B505D8B006D05B
:104280000001B56DB61FD8B0B62B04D0B5C0B5F0DF
:10429000B6C0B6F00001B51FB61F0001B54BB62B76
:1042A000B5C0B5F0B6C0B6F012000001BC6F8650C4
:1042B0000F0B0001BB6F4B50D8A402D0000E1200B0
:1042C000000E4B6E0001BC510001BB19D8B40CD0DC
:1042D000F00E86160001BC518612000E0001B66F6A
:1042E0000A0EB56FBEEC9FF0010E1200010E000128
:1042F000FF6F00018C51140DAA0E0001B56F040E62
:104300000001B66FF3500001B527F4500001B62349
:1043100000018D51010DF3500001B525D96EF45007
:104320000001B621DA6E800EDF6E120016D0000E8C
:10433000036E000E046E000E056E000E066E035036
:10434000041005100610D8A408D000F0010E0326B2
:10435000000E042205220622F2D70106D8A002068A
:104360000128E5E10228D8B41200E1D700016F511D
:104370000001701100017111D8B40DD001D80BD01B
:104380000500FA6E00016F51FD6E7051FE6E7151A5
:10439000FF6EFA501200000E00016F6F000E000158
:1043A000706F000E0001716F12000001BC6F86502B
:1043B0000F0B0001BB6F4B50D8B4FDD7000E4B6EF6
:1043C0000001BC510001BB19D8B40CD0F00E861608
:1043D0000001BC518612000E0001B66F0A0EB56FC7
:1043E000BEEC9FF0010E1200030E0001C36512D057
:1043F000010E0001C1250001BE6F000E0001C221A7
:104400000001BF6F0001C351FC0F0001C06FDAEC67
:10441000A3F01200C1C0BEF0C2C0BFF0C3C0C0F064
:10442000DAECA3F012000001CE6F0001CE510001C2
:10443000D8A413D00001892B0001895100017B27EA
:10444000000E7C237BC0CBF07CC0CCF014ECA3F03E
:1044500000018951030BE4EC99F0000EA6ECA0F0EA
:104460001200000E0001BC6F070EBB6F000E0001B2
:10447000BE6F090EBD6F000E0001C06F0A0EBF6F48
:10448000000E0001C26F0B0EC16F000E0001C46F61
:104490000C0EC36F050EB5EC8DF012000001B55186
:1044A0000001B703F3CFB9F0F4CFBAF00001B55172
:1044B0000001B803F3500001BA270001B651000112
:1044C000B703F3500001BA27B9C0B5F0BAC0B6F0CF
:1044D0001200086E86500F0B076E4B50D8A402D006
:1044E000000E1200000E4B6E08500718D8B40AD008
:1044F000F00E861608508612000E026E0A0E016E2D
:1045000096ECA1F0010E1200B5C0F6FFB6C0F7FFA1
:10451000000EF86E0800F5CFB9F00001B7290001D0
:10452000B86F03D00001D890B9330001B82FFAD783
:10453000010E0001B9170001B9511200C9C0B5F050
:10454000CAC0B6F0CBC0B7F0EDECA0F00001CC6F64
:10455000010E0001CC1BC9C0C4F0CAC0C5F0CBC05D
:10456000C6F0CCC0C7F01DEC94F01200000120EEA4
:1045700002F0B551D926B651DA22DF50D8A407D0BF
:10458000A7C0D9FFA8C0DAFF0001DF8412009DC0D8
:10459000D9FF9EC0DAFF0001DF8E1200030E0F6408
:1045A0000CD0010E0D240A6E000E0E200B6E0F5063
:1045B000FC0F0C6E14ECA4F012000DC00AF00EC03B
:1045C0000BF00FC00CF014ECA4F012000001CE6F41
:1045D000F9ECA4F00001CF6F0F0E0001CF1700011E
:1045E000CE3BF00ECE170001CE510001CF11E1EC11
:1045F000A4F0000EA6ECA0F01200FFECA4F0000165
:104600006C5100016D1100016E11D8B4120001D877
:1046100012000500FA6E00016C51FD6E6D51FE6EC8
:104620006E51FF6EFA501200CBC0C1F0CCC0C2F088
:104630002E0E0001C36F030E0001C46FDFEC92F079
:104640002E0E0001B66F030E0001B76F9DEC95F0C2
:10465000120004D09D961200A39E1200000120EECD
:1046600002F0B551D926B651DA22DF50000AD8B48B
:10467000F1D7010AD8A41200EFD7C0C0B5F0C1C06D
:10468000B6F0040E0001B76FC2C0B8F0020E000110
:10469000B96FC3C0BAF0FAEC95F01200C0C0B5F023
:1046A000C1C0B6F0020E0001B76FC2C0B8F0040E70
:1046B0000001B96FC3C0BAF0FAEC95F01200000126
:1046C000B96F0001B8519DECA4F0730E0001B56FF5
:1046D000030E0001B66FB9C0B7F00AEC9DF01200EE
:1046E0008C0EB4ECA4F0000EB4ECA4F0010EB4EC0B
:1046F000A4F03C0EB4ECA4F0040EB4ECA4F0120050
:10470000000E486E060E476E000E4A6E060E496E8B
:10471000000E00018D6F000E00018C6F1200949C42
:10472000948E240EAD6E980EAC6E7E9A7E987E921C
:104730007E90AD847E96330EB06E1200B00E0001F6
:10474000C46F030E0001C56F060E0001C66F010E97
:104750000001C76F1DEC94F01200B00E0001C46F91
:10476000030E0001C56F060E0001C66F000E0001AA
:10477000C76F1DEC94F01200990E0001EB6F000E54
:104780000001EC6F000E0001ED6F000E0001EE6FF6
:104790002EEC85F012009C0E0001DB6F030E000171
:1047A000DC6F040E0001DD6F000E0001DE6F3DECDA
:1047B0008BF01200BEC0B5F0BFC0B6F0040E000111
:1047C000B76FC0C0B8F0020E0001B96F4AEC99F0A3
:1047D0001200010E0001B86F0001BB515FECA3F0A5
:1047E000010E0001B86F0001BA515FECA3F0120096
:1047F0000001C96F000E0001C56FC9C0C6F0FF0EF1
:104800000001C76F000E66EC9FF01200010E4B6EA8
:1048100000016F510001701100017111D8B402D074
:10482000010E1200000E12000AC001F00BC002F0CF
:10483000040E036E0CC004F0020E056E79EC9BF0C2
:104840001200CEC0C5F0CFC0C6F07F0E0001C86F09
:10485000C769000E55EC96F01200990E0001B56F75
:10486000000E0001B66F000E0001B76F5DECA0F006
:1048700012008F0E0001B56F000E0001B66F000E22
:104880000001B76F5DECA0F012008F0E0001B56F54
:10489000000E0001B66F060E0001B76FEDECA0F040
:1048A00012008F0E0001B56F000E0001B66F070EEB
:1048B0000001B76FEDECA0F012008F0E0001B56F94
:1048C000000E0001B66F040E0001B76FEDECA0F012
:1048D00012008F0E0001B56F000E0001B66F050EBD
:1048E0000001B76FEDECA0F012009C0E0001B56F57
:1048F000030E0001B66F040E0001B76FEDECA0F0DF
:1049000012000001B66F8D0EB4ECA4F00001B65198
:10491000B4ECA4F01200000E0001BC6F130EBB6FCC
:10492000010EB5EC8DF01200000E0001BC6F140EEC
:10493000BB6F010EB5EC8DF012000001B56F0001E8
:10494000B5B102D0859E01D0858E12000001C96FDD
:104950000001C9511DEC8CF01200800EB4ECA4F0E3
:10496000840EB4ECA4F012000001B56FADA2FED726
:10497000B5C0AEFF1200B5C0D9FFB6C0DAFFB7C0F0
:10498000DFFF1200B5C06FF0B6C070F0B7C071F0B5
:10499000120001C06FF002C070F003C071F012008D
:1049A00029C0D6FF2AC0D7FFF28A120029C0D6FF3D
:1049B0002AC0D7FFF28A12000600060001416130CA
:1049C00080800001B56FB5C035F312000600060007
:1049D000800007009EAAFED7AF5012009E929D92C3
:0B49E0009F92120005000700FFFF017E
:1049EC00F29AF2941200030135511200FC0E966EED
:0E49FC001200F29AF2941200010E4B6E12009D
:06FFF800AAF705FFF8F175
:00000001FF
