:0614000055EF0AF0120096
:101408005182FACF17F0FBCF18F0E9CF19F0EACFE5
:101418001AF0E1CF1BF0E2CF1CF0D9CF1DF0DACFE4
:101428001EF0F3CF1FF0F4CF20F0F6CF21F0F7CF66
:1014380022F0F8CF23F0F5CF24F051C025F052C0A8
:1014480026F053C027F054C028F0F292F2B4F2AA62
:1014580002D0F0ECB0F028C054F027C053F026C0FA
:1014680052F025C051F024C0F5FF23C0F8FF22C078
:10147800F7FF21C0F6FF20C0F4FF1FC0F3FF1EC016
:10148800DAFF1DC0D9FF1CC0E2FF1BC0E1FF1AC074
:10149800EAFF19C0E9FF18C0FBFF17C0FAFF519215
:0614A800110047EFA2F065
:10FC320000001180002C0100B102003500360000E6
:10FC4200B202003500360000B30200350036000271
:10FC5200003500360000B4000000C0A2000200849B
:10FC62000000C1C50000C20D00000000C38D002AC3
:10FC72000000C48D00EE0000C50A000036C8000076
:10FC8200E012001C001000180033002C0025002890
:10FC920000280027002F003C000000030003001092
:10FCA200008000780000E112001C00100018002DF6
:10FCB20000280023002800280026002F003B000017
:10FCC20000030003001000003A0500002A000002B1
:10FCD2000000008100002B000003000000A20000D1
:10FCE20029002C02000400080010002000400080BF
:10FCF20000000100010200010001000202000003F5
:10FD020003030001000A006400E803102700010356
:10FD1200070F1F3F7FFF00020103010410000000D4
:10FD2200000000005F00000007000700147F147F3E
:10FD320014242A7F2A12231308646236495522505A
:10FD42000005030000001C2241000041221C0008A3
:10FD52002A1C2A0808083E0808005030000008083B
:10FD6200080808006060000020100804023E5149A3
:10FD7200453E00427F400042615149462141454B88
:10FD8200311814127F1027454545393C4A494930FC
:10FD920001710905033649494936064949291E00B8
:10FDA20036360000005636000000081422411414B2
:10FDB200141414412214080002015109063249792F
:10FDC200413E7E1111117E7F494949363E414141F2
:10FDD200227F4141221C7F494949417F0909010192
:10FDE2003E414151327F0808087F00417F41002097
:10FDF20040413F017F081422417F404040407F0242
:10FE020004027F7F0408107F3E4141413E7F090981
:10FE120009063E4151215E7F091929464649494951
:10FE22003101017F01013F4040403F1F2040201F20
:10FE32007F2018207F63140814630304780403618D
:10FE42005149454300007F414102040810204141CD
:10FE52007F000004020102044040404040000102D1
:10FE6200040020545454787F48444438384444446D
:10FE720020384444487F3854545418087E090102FB
:10FE8200081454543C7F0804047800447D40002048
:10FE920040443D00007F10284400417F40007C0424
:10FEA2001804787C0804047838444444387C1414D8
:10FEB2001408081414187C7C080404084854545488
:10FEC20020043F4440203C4040207C1C2040201C19
:10FED2003C4030403C44281028440C5050503C4494
:10FEE20064544C44000836410000007F0000004189
:10FEF20036080008082A1C08081C2A080800FCFF0B
:10FF02000F0000FFFFF0FF00FFFF00436C6F7365FF
:10FF120073742057616C6C3A25750A436C6F736574
:10FF2200737420416E676C653A25640A4C65667489
:10FF32002042756D703A25750A5269676874427578
:10FF42006D703A25750A416E676C65546F5475720F
:10FF52006E3A2025640A00436C6F736573742057F0
:10FF6200616C6C3A25750A436C6F7365737420413A
:10FF72006E676C653A25640A4C6566742042756D3D
:10FF8200703A25750A526967687442756D703A2530
:10FF9200750A00546F74616C2044697374616E63F6
:10FFA200653A25750A4C6566742042756D703A256E
:10FFB200750A52696768742042756D703A25750A30
:10FFC200002020202020202020202020202020204F
:10FFD200202020200A00506C656173652073656CD7
:10FFE200656374206D6F64652E0A004469737461E1
:0DFFF2006E63653A2025640A002563000057
:020000040001F9
:100000000001CB51800B0001D46F0001CB51CB25F7
:100010000001DA6F0001CAAF02D00001DA810001ED
:10002000DA510001D8B410D00001DA29D8A409D0DF
:10003000000E0001C86F000EC96F000ECA6F000EDF
:10004000CB6F0001CA8F09D0000E0001C86F000EEF
:10005000C96F000ECA6F000ECB6F0001CF51800B2D
:100060000001D41B0001CF51CF250001D56F000145
:10007000CEAF02D00001D5810001D5510001D8B426
:1000800010D00001D529D8A409D0000E0001CC6FF2
:10009000000ECD6F000ECE6F000ECF6F0001CE8F21
:1000A00009D0000E0001CC6F000ECD6F000ECE6F98
:1000B000000ECF6F0001D5510001D8B405D000016A
:1000C000DA510001D8A40AD0000E0001C86F000E5A
:1000D000C96F000ECA6F000ECB6F12000001CE5127
:1000E0000001C803F3CFDFF0F4CFE0F00001DF51EF
:1000F0000001D66FD76BD86BD96B0001E0510001BE
:10010000DB6FDC6BDD6BDE6B0001CD510001C903E1
:10011000F3CFDFF0F4CFE0F00001DF510001D6278C
:10012000000ED723D823D9230001E0510001DB279B
:10013000000EDC23DD23DE230001CC510001CA03C5
:10014000F3CFDFF0F4CFE0F00001DF510001D6275C
:10015000000ED723D823D9230001E0510001DB276B
:10016000000EDC23DD23DE23D8C0D9F0D7C0D8F0C1
:10017000D6C0D7F00001D66B0001CC510001C903F5
:10018000F3CFDFF0F4CFE0F00001DF510001D6271C
:100190000001E0510001D723000E0001D823000E1A
:1001A0000001D9230001CD510001C803F3CFDFF0D6
:1001B000F4CFE0F00001DF510001D6270001E0514B
:1001C0000001D723000E0001D823000E0001D9231F
:1001D000D8C0D9F0D7C0D8F0D6C0D7F00001D66BC0
:1001E0000001CC510001C803F3CFDFF0F4CFE0F001
:1001F0000001DF510001D6270001E0510001D723A3
:10020000000E0001D823000E0001D9230001CE51B9
:100210000001C903F3CFDFF0F4CFE0F00001DF51BC
:100220000001DB270001E0510001DC23000E00018A
:10023000DD23000E0001DE230001CD510001CA03C1
:10024000F3CFDFF0F4CFE0F00001DF510001DB2756
:100250000001E0510001DC23000E0001DD23000E4F
:100260000001DE230001CE510001CA03F3CFDFF00D
:10027000F4CFE0F00001DF510001D06F0001E05148
:100280000001D16F0001D26B0001D36BD2C0D3F05B
:10029000D1C0D2F0D0C0D1F00001D06B0001D0515C
:1002A0000001DB270001D1510001DC230001D25104
:1002B0000001DD230001D3510001DE23D6C0D0F0C0
:1002C000D7C0D1F0D8C0D2F0D9C0D3F0190E06D023
:1002D0000001D890D333D233D133D033E82EF8D7BE
:1002E0000001D0510001DB270001D1510001DC23C6
:1002F0000001D2510001DD230001D3510001DE23B2
:10030000D8C0D9F0D7C0D8F0D6C0D7F00001D66B8E
:100310000001D551DAC0D0F00001D16B0001D02727
:10032000000ED123820E0001D0250001DF6FFF0EE9
:100330000001D1210001E06F15D00001D890DB371A
:10034000DC37DD37DE370001D9AF02D00001DB81B9
:100350000001D890D637D737D837D9370001DF0713
:10036000D8A0E0070001DDAFE8D7000E0001D56F8F
:100370000001D9AF24D0FF0E0001D6150001D06FC7
:10038000FF0E0001D7150001D16FFF0E0001D81537
:100390000001D26F7F0E0001D9150001D36F00015B
:1003A000D0510001D1110001D2110001D311D8A404
:1003B00003D00001DBA103D0010E0001D56F0001C5
:1003C000D5510001D8B423D0010E0001DB27000E67
:1003D000DC23DD23DE230001DEA119D0DBC0D0F059
:1003E000DCC0D1F0DDC0D2F0DEC0D3F00001D335E7
:1003F000D333D233D133D033D0C0DBF0D1C0DCF033
:10040000D2C0DDF0D3C0DEF00001DF4BE02B0001F5
:10041000E0BF10D00001E05104E10001DF29D8A0C5
:1004200009D0000E0001DB6F000EDC6F800EDD6F67
:100430007F0E2BD00001E0BF07D00001E05111E199
:100440000001DF05D8B00DD0000E0001DB6F000EFB
:10045000DC6F000EDD6F000EDE6F000E0001D46F4A
:1004600015D0DFC0DAF0FF0E0001DB17FF0EDC173E
:100470007F0EDD17000EDE170001DAA102D00001A9
:10048000DD8F0001D890DA310001DE6F0001D45118
:100490000001DE13DBC0C8F0DCC0C9F0DDC0CAF06B
:1004A000DEC0CBF012000CD0760E0001ED6F030E13
:1004B00004D0810E0001ED6F030E0001EE6F08D035
:1004C0000001EB51000AD8B4EFD7010AD8B4F1D734
:1004D000000120EE02F0ED51D926EE51DA22EBC0F8
:1004E000DFFFB1D0A70E0001E06F000E0001E16F49
:1004F000020E0001E26F030E0001E36FB4EC92F014
:10050000A70E0001E06F000E0001E16F030E000175
:10051000E26F030E0001E36FB4EC92F0A70E00014E
:10052000E06F000E0001E16F050E0001E26F030EA7
:100530000001E36FB4EC92F0A70E0001E06F000E33
:100540000001E16F040E0001E26F000E0001E36F95
:10055000B4EC92F0000120EE03F0ED51D926EE51FB
:10056000DA22C70EDE6E0F0EDD6E000120EE06F001
:10057000ED51D926EE51DA22C60EDE6E0F0EDD6E7B
:10058000000120EE09F0ED51D926EE51DA22C90E14
:1005900056D09D0E0001E06F000E0001E16F070EC6
:1005A0000001E26F030E0001E36FB4EC92F09D0EC8
:1005B0000001E06F000E0001E16F060E0001E26F26
:1005C000030E0001E36FB4EC92F09D0E0001E06FAA
:1005D000000E0001E16F040E0001E26F030E000146
:1005E000E36FB4EC92F09D0E0001E06F000E00018D
:1005F000E16F050E0001E26F000E0001E36FB4EC45
:1006000092F0000120EE03F0ED51D926EE51DA22EE
:100610006D0EDE6E0F0EDD6E000120EE06F0ED5168
:10062000D926EE51DA226C0EDE6E0F0EDD6E000161
:1006300020EE09F0ED51D926EE51DA226F0EDE6E72
:100640000F0EDD6E09D00001EB51000AD8B44AD775
:10065000010AD8A412009DD7000120EE06F0ED514A
:10066000D926EE51DA22DECFBAF0DDCFBBF0050E8F
:100670000001BC6F000E0001BD6FCCECABF09CD054
:10068000000120EE06F0ED51D926EE51DA22DECF40
:10069000BAF0DDCFBBF0040E0001BC6F000E00010C
:1006A000BD6FCCECABF0000120EE03F0ED51D9268C
:1006B000EE51DA22DECFBAF0DDCFBBF0060E00013C
:1006C000BC6F000E0001BD6FCCECABF084D000011C
:1006D00020EE06F0ED51D926EE51DA22DECFBAF047
:1006E000DDCFBBF0040E0001BC6F000E0001BD6F3A
:1006F000CCECABF0000120EE03F0ED51D926EE5129
:10070000DA22DECFBAF0DDCFBBF0060E0001BC6FFF
:10071000010E0001BD6FCCECABF05DD0000120EE0E
:1007200006F0ED51D926EE51DA22DECFBAF0DDCF58
:10073000BBF0040E0001BC6F010E0001BD6FCCECDC
:10074000ABF0000120EE03F0ED51D926EE51DA2294
:10075000DECFBAF0DDCFBBF0060E0001BC6F000E9D
:100760000001BD6FCCECABF036D0000120EE06F0FE
:10077000ED51D926EE51DA22DECFBAF0DDCFBBF053
:10078000040E0001BC6F010E0001BD6FCCECABF09C
:10079000000120EE03F0ED51D926EE51DA22DECF32
:1007A000BAF0DDCFBBF0060E0001BC6F010E0001F8
:1007B000BD6FCCECABF00FD00001EC51000AD8B407
:1007C0005FD7010AD8B483D7030AD8B4A7D7010AE0
:1007D000D8A41200CAD7000120EE06F0ED51D926A8
:1007E000EE51DA22DECFBAF0DDCFBBF0070E00010A
:1007F000BC6F000E0001BD6FCCECABF0000120EE31
:1008000006F0ED51D926EE51DA22DECFBAF0DDCF77
:10081000BBF0060E0001BC6F000E0001BD6FCCECFA
:10082000ABF0E7C0C7F0E8C0C8F0E9C0C9F0EAC063
:10083000CAF09EEC99F0EDC0BAF0EEC0BBF031EC1E
:10084000B1F004D09F860BD0A58E09D00001EB51EA
:10085000000AD8B4F7D7010AD8A41200F5D7EDC022
:10086000BAF0EEC0BBF091ECB0F0EDC0D9FFEEC035
:10087000DAFF000EDF6E000120EE06F0ED51D92602
:10088000EE51DA22DECFC5F0DDCFC6F0000E00015A
:10089000C76F030E0001C86F7AECB1F0000120EEC3
:1008A00006F0ED51D926EE51DA22DECFBAF0DDCFD7
:1008B000BBF0050E0001BC6F010E0001BD6FCCEC5A
:1008C000ABF01200B2ECADF0010EF3ECAEF00009AB
:1008D000D8B429D0FB0E0001CF6FFF0E0001D06FFE
:1008E000000E0001D26F230ED16FD3EC91F0950E64
:1008F0000001CF6FFF0E0001D06F77C0D1F078C03C
:10090000D2F089C0D3F00001D46B8AC0D5F00001C9
:10091000D66BD3EC91F0E7EC8EF021ECB2F000094D
:10092000D8A473ECAFF0000E0001726F000E716F6F
:10093000030E0001FC6FE80EFB6F000E0001706FEC
:10094000000E6F6F000E00016E6F000E6D6F000ED7
:100950000001FA6F080EF96FF9D00001714B722B8C
:10096000B10E0001BC6F000E0001BD6F85ECA7F059
:10097000B10E0001E16F000E0001E26F42EC9DF04C
:10098000E1C0F8F3E2C0F9F3E3C0FAF3E4C0FBF32B
:10099000F8C3BEF0F9C3BFF0FAC3C0F0FBC3C1F0A7
:1009A000000E0001BA6F000EBB6F6C0EBC6F420EE2
:1009B000BD6F4CEC86F0BAC0F3F0BBC0F4F0BCC025
:1009C000F5F0BDC0F6F0E1EC9AF0F3C06DF0F4C0C4
:1009D0006EF0010EF3ECAEF00009D8B40ED06DC08D
:1009E000D0F06EC0D1F01CECB1F054ECAFF021ECC3
:1009F000B2F00009D8A473ECAFF00001FB51000184
:100A00006D5D00016E51800A0301F46F0001FC511D
:100A1000800A0301F459D8B008D06DC0FBF06EC055
:100A2000FCF071C06FF072C070F0080EF3ECAEF025
:100A30000009D8B420D0CF0E0001D56F030E0001FD
:100A4000D66F000E0001D86F320ED76F07ECB1F0F1
:100A5000CF0E0001BD6F030E0001BE6F000E00013E
:100A6000C06F010EBF6F0BECB0F021ECB2F00009CB
:100A7000D8A473ECAFF0000E0001FA6F0A0EF96F04
:100A80000001FABF63D00001FA5156E10001F905F7
:100A9000D8B052D05BD0B10E0001BC6F000E000187
:100AA000BD6F85ECA7F0010EF3ECAEF00009D8B4F1
:100AB0000ED06DC0D0F06EC0D1F01CECB1F054EC93
:100AC000AFF021ECB2F00009D8A473ECAFF0B10E96
:100AD0000001E16F000E0001E26F42EC9DF0E1C009
:100AE000F8F3E2C0F9F3E3C0FAF3E4C0FBF3F8C3B0
:100AF000BEF0F9C3BFF0FAC3C0F0FBC3C1F0000EF3
:100B00000001BA6F000EBB6F6C0EBC6F420EBD6F62
:100B10004CEC86F0BAC0F3F0BBC0F4F0BCC0F5F00A
:100B2000BDC0F6F0E1EC9AF0F3C06DF0F4C06EF0E9
:100B30000001F907D8A0FA070001FABF07D00001A9
:100B4000FA51A9E10001F905D8B0A5D7000172BF9B
:100B500004D7900E0001715D010E00017259D8A0FA
:100B6000FCD6080EF3ECAEF00009D8B48AD0CF0E54
:100B70000001D56F030E0001D66F000E0001D86F83
:100B8000320ED76F07ECB1F06FC0F4F370C0F5F31D
:100B90000301F41FF51FF44BF52B900E0301F42510
:100BA0000301F66F010E0301F5210301F76FCF0E6C
:100BB0000001BD6F030E0001BE6FF6C3F4F3F7C36F
:100BC000F5F30301F41FF51FF44BF52BF4C3BFF04D
:100BD000F5C3C0F00BECB0F021ECB2F00009D8B4D2
:100BE00050D073ECAFF04DD0B10E0001BC6F000ED1
:100BF0000001BD6F85ECA7F0010EF3ECAEF000092B
:100C0000D8B40ED06DC0D0F06EC0D1F01CECB1F0F5
:100C100054ECAFF021ECB2F00009D8A473ECAFF0C3
:100C2000B10E0001E16F000E0001E26F42EC9DF099
:100C3000E1C0F8F3E2C0F9F3E3C0FAF3E4C0FBF378
:100C4000F8C3BEF0F9C3BFF0FAC3C0F0FBC3C1F0F4
:100C5000000E0001BA6F000EBB6F6C0EBC6F420E2F
:100C6000BD6F4CEC86F0BAC0F3F0BBC0F4F0BCC072
:100C7000F5F0BDC0F6F0E1EC9AF0F3C06DF0F4C011
:100C80006EF00301D0BF12000301D051ADE10301AA
:100C9000CF05D8A01200A8D70001BD51800B0001DC
:100CA000C66F0001BD51BD250001D16F0001BCAF71
:100CB00002D00001D1810001D1510001D8B412D07D
:100CC0000001D129D8A409D0000E0001BA6F000E8E
:100CD000BB6F000EBC6F000EBD6F0001BC8F000E1D
:100CE000000108D0000E0001BA6F000EBB6F000EAD
:100CF000BC6F000EBD6F0001C151800B0001C61B0F
:100D00000001C151C1250001D26F0001C0AF02D066
:100D10000001D2810001D2510001D8B412D00001EB
:100D2000D229D8A409D0000E0001BE6F000EBF6FFB
:100D3000000EC06F000EC16F0001C08F000E0001D9
:100D400008D0000E0001BE6F000EBF6F000EC06F16
:100D5000000EC16F0001BE510001BF110001C011A2
:100D60000001C111D8A417D0000E0001BA6F000E07
:100D7000BB6F000EBC6F000EBD6F0001800EBC1378
:100D80007F0EBD13BAC0BAF0BBC0BBF0BCC0BCF094
:100D9000BDC0BDF012000001D1510001D8A412D095
:100DA000000E0001BA6F000EBB6F000EBC6F000E8C
:100DB000BD6FBAC0BAF0BBC0BBF0BCC0BCF0BDC018
:100DC000BDF012000001D2510001C26FC36B0001DF
:100DD000C21FC31FC24BC32B0001D1510001C46FFE
:100DE000C56B0001C2510001C4270001C3510001BD
:100DF000C5237F0E0001C4250001CB6F000E00014A
:100E0000C5210001CC6FBAC0C7F0BBC0C8F0BCC0E0
:100E1000C9F0BDC0CAF0000E0001BA6F000EBB6F72
:100E2000000EBC6F000EBD6F000E0001CD6F000EF6
:100E3000CE6F000ECF6F000ED06F000E0001D26F8C
:100E400042D00001D2510001D8B417D00001D8908F
:100E5000C737C837C937CA370001D890BA37BB3748
:100E6000BC37BD370001D0AF02D00001BA8100010C
:100E7000D890CD37CE37CF37D0370001BE510001E3
:100E8000C75D0001BF510001C8590001C0510001F8
:100E9000C9590001C1510001CA59D8A012D000019E
:100EA000D08D0001BE510001C75F0001BF5100019C
:100EB000C85B0001C0510001C95B0001C1510001C4
:100EC000CA5B0001D22B190E0001D265BAD700010E
:100ED000C7510001C8110001C9110001CA11D8B4DD
:100EE00018D00001CD8115D00001D890BA37BB379A
:100EF000BC37BD370001D0AF02D00001BA8100017C
:100F0000D890CD37CE37CF37D0370001CB07D8A018
:100F1000CC070001BCAFE8D7000E0001D26F000182
:100F2000D0AF24D0FF0E0001CD150001C26FFF0E1F
:100F30000001CE150001C36FFF0E0001CF150001A7
:100F4000C46F7F0E0001D0150001C56F0001C251B2
:100F50000001C3110001C4110001C511D8A403D0C0
:100F60000001BAA103D0010E0001D26F0001D251DD
:100F70000001D8B423D0010E0001BA27000EBB2314
:100F8000BC23BD230001BDA119D0BAC0C2F0BBC0B3
:100F9000C3F0BCC0C4F0BDC0C5F00001C535C53349
:100FA000C433C333C233C2C0BAF0C3C0BBF0C4C081
:100FB000BCF0C5C0BDF00001CB4BCC2B0001CCBFB9
:100FC00014D00001CC5104E10001CB29D8A00DD0F0
:100FD000000E0001CC6FCB69000E0001BA6F000E4D
:100FE000BB6F000EBC6F000EBD6F0001CCBF07D001
:100FF0000001CC5115E10001CB05D8B011D0000E95
:101000000001CC6F000ECB6F000E0001BA6F000E16
:10101000BB6F000EBC6F000EBD6F000E0001C66FEF
:10102000CBC0D1F00001D1A103D00001BC8F02D010
:101030000001BC9F0001D890D1310001BD6F0001BB
:10104000C6510001BD13BAC0BAF0BBC0BBF0BCC0F2
:10105000BCF0BDC0BDF01200080E0001C9250001A2
:10106000C66F000E0001CA210001C76F000E00010B
:10107000C86FB1ECAFF00001E06F0001E05100017A
:10108000CC6FCD6B0E0ED8900001CC37CD37E82E4B
:10109000FAD70001E0510001CE6FCF6B0C0ED89053
:1010A0000001CE37CF37E82EFAD70001E05100011A
:1010B000D06FD16B0A0ED8900001D037D137E82E0F
:1010C000FAD70001E0510001D36FD26B0001E0516B
:1010D0000001D46FD56B060ED8900001D437D537F8
:1010E000E82EFAD70001E0510001D66FD76B00015E
:1010F000D63BD73BF00ED717D6510F0BD713F00EB8
:10110000D6170001E0510001D86FD96B0001D890CB
:10111000D837D9370001D890D837D9370001E051F6
:101120000001DA6FDB6B0001D8510001DA13000116
:10113000D9510001DB130001D6510001DA1300017F
:10114000D7510001DB130001D4510001DA13000173
:10115000D5510001DB130001D2510001DA13000167
:10116000D3510001DB130001D0510001DA1300015B
:10117000D1510001DB130001CE510001DA1300014F
:10118000CF510001DB130001CC510001DA11000145
:10119000DC6F0001CD510001DB110001DD6FE0C00B
:1011A000DEF00001DF6B080E0001C9250001C66FEB
:1011B000000E0001CA210001C76F010E0001C86FB7
:1011C000B1ECAFF00001CC6FCD6B0001D890CC3703
:1011D000CD370001D890CC37CD370001CC5100017C
:1011E000DE130001CD510001DF13080E0001C925F7
:1011F0000001C66F000E0001CA210001C76F020E78
:101200000001C86FB1ECAFF00001CC6FCD6B0001F5
:10121000CC3BCD3BF00ECD17CC510F0BCD13F00EC8
:10122000CC170001CC510001DE130001CD510001AB
:10123000DF13080E0001C9250001C66F000E000172
:10124000CA210001C76F030E0001C86FB1ECAFF0F7
:101250000001CC6FCD6B060ED8900001CC37CD3796
:10126000E82EFAD70001CC510001DE130001CD5168
:101270000001DF13080E0001C9250001C66F000E32
:101280000001CA210001C76F040E0001C86FB1EC54
:10129000AFF00001CC6F0001CC510001CE6FCD6BDF
:1012A0000001CD510001DE130001CE510001DF131A
:1012B000080E0001C9250001C66F000E0001CA21F9
:1012C0000001C76F050E0001C86FB1ECAFF000015F
:1012D000CC6FCD6B0A0ED8900001CC37CD37E82EFD
:1012E000FAD70001CC510001DE130001CD510001FD
:1012F000DF13080E0001C9250001C66F000E0001B2
:10130000CA210001C76F060E0001C86FB1ECAFF033
:101310000001CC6FCD6B0C0ED8900001CC37CD37CF
:10132000E82EFAD70001CC510001DE130001CD51A7
:101330000001DF13080E0001C9250001C66F000E71
:101340000001CA210001C76F070E0001C86FB1EC90
:10135000AFF00001CC6FCD6B0E0ED8900001CC37F2
:10136000CD37E82EFAD70001CC510001DE13000181
:10137000CD510001DF130001DE510001DC1948E10D
:101380000001DF510001DD19D8A4120032D00001A4
:1013900020EE02F0C951D926CA51DA22DECFBAF0C6
:1013A000DDCFBBF0CBC0BCF0F9ECB2F01200000115
:1013B000CB1F000120EE02F0C951D926CA51DA2212
:1013C000DECFBAF0DDCFBBF0CBC0BCF0F9ECB2F0B1
:1013D0001200000120EE04F0C951D926CA51DA22C8
:1013E000DECFBAF0DDCFBBF0CBC0BCF0F9ECB2F091
:1013F00012000001E051000AD8B41200010AD8B46A
:10140000C6D7030AD8B4D3D7010AD8A41200E1D7AB
:10141000120000017107D8A07207B10E0001BC6F65
:10142000000E0001BD6F85ECA7F0B10E0001E16F69
:10143000000E0001E26F42EC9DF0E1C005F1E2C058
:1014400006F1E3C007F1E4C008F105C1BEF006C132
:10145000BFF007C1C0F008C1C1F0000E0001BA6FB3
:10146000000EBB6F6C0EBC6F420EBD6F4CEC86F075
:10147000BAC0F3F0BBC0F4F0BCC0F5F0BDC0F6F0EC
:10148000E1EC9AF0F3C06DF0F4C06EF0010EF3ECF5
:10149000AEF00009D8B40ED06DC0D0F06EC0D1F05F
:1014A0001CECB1F054ECAFF021ECB2F00009D8A480
:1014B00073ECAFF00001FB5100016D5D00016E5156
:1014C000800A0101046F0001FC51800A01010459E6
:1014D000D8B008D06DC0FBF06EC0FCF071C06FF0EA
:1014E00072C070F0080EF3ECAEF00009D8B41FD053
:1014F000CF0E0001D56F030E0001D66F000E000164
:10150000D86F320ED76F07ECB1F0CF0E0001BD6F70
:10151000030E0001BE6FFF0E0001C06FBF690BEC30
:10152000B0F021ECB2F00009D8A473ECAFF0000EDB
:101530000001FA6F0A0EF96F0001FABF63D00001D3
:10154000FA5156E10001F905D8B052D05BD0B10E86
:101550000001BC6F000E0001BD6F85ECA7F0010E0D
:10156000F3ECAEF00009D8B40ED06DC0D0F06EC070
:10157000D1F01CECB1F054ECAFF021ECB2F000096A
:10158000D8A473ECAFF0B10E0001E16F000E0001C2
:10159000E26F42EC9DF0E1C005F1E2C006F1E3C06C
:1015A00007F1E4C008F105C1BEF006C1BFF007C1F4
:1015B000C0F008C1C1F0000E0001BA6F000EBB6F91
:1015C0006C0EBC6F420EBD6F4CEC86F0BAC0F3F0EF
:1015D000BBC0F4F0BCC0F5F0BDC0F6F0E1EC9AF091
:1015E000F3C06DF0F4C06EF00001F907D8A0FA075F
:1015F0000001FABF07D00001FA51A9E10001F90585
:10160000D8B0A5D71F0E0001CC6F850ECD6F2B0E65
:10161000CE6F3F0ECF6F6FC0BAF070C0BBF000014D
:10162000000EBBBFFF0EBC6FBD6F010EECEC90F067
:10163000BAC0C8F0BBC0C9F0BCC0CAF0BDC0CBF0D6
:1016400000EC80F0C8C0F3F0C9C0F4F0CAC0F5F0F7
:10165000CBC0F6F0E1EC9AF0F3C06BF0F4C06CF0A4
:10166000010EF3ECAEF00009D8B41200FB0E00013D
:10167000CF6FFF0E0001D06F000E0001D26F230E5E
:10168000D16FD3EC91F0590E0001CF6FFF0E000126
:10169000D06FFBC0D1F0FCC0D2F06BC0D3F06CC0F7
:1016A000D4F089C0D5F00001D66B8AC0D7F0000114
:1016B000D86BD3EC91F0E7EC8EF021ECB2F000099E
:1016C000D8B4120073ECAFF012000001BA6F7ED0F4
:1016D0003F0E1200060E12005B0E12004F0E12009B
:1016E000660E12006D0E12007D0E1200070E120023
:1016F0007F0E12006F0E12005F0E12007C0E1200A1
:10170000580E12005E0E12007B0E1200710E1200B7
:101710006F0E1200740E1200040E12000E0E120054
:101720007A0E1200060E1200140E1200540E120051
:101730005C0E1200730E1200670E1200500E1200A3
:101740006D0E1200780E12001C0E1200620E1200B6
:101750002A0E1200640E12006E0E12005B0E1200B2
:10176000770E12007F0E1200390E12003F0E12008B
:10177000790E1200710E12003D0E1200760E12004C
:10178000060E12001E0E1200570E1200380E120026
:10179000760E1200760E12003F0E1200730E12002B
:1017A0003F0E1200770E12006D0E1200310E120065
:1017B0003E0E12003E0E12007E0E1200760E120039
:1017C000660E12005B0E1200800E12000001BA516C
:1017D0002E0AD8B4F9D71E0AD8B47AD7010AD8B4D9
:1017E00079D7030AD8B478D7010AD8B477D7070ACB
:1017F000D8B476D7010AD8B475D7030AD8B474D749
:10180000010AD8B473D70F0AD8B472D7010AD8B472
:1018100071D7780AD8B4A4D7030AD8B4A3D7010AD9
:10182000D8B4A2D7070AD8B4A1D7010AD8B4A0D790
:10183000030AD8B49FD7010AD8B49ED70F0AD8B4E8
:101840009DD7010AD8B49CD7030AD8B49BD7010A04
:10185000D8B49AD7070AD8B499D7010AD8B498D778
:10186000030AD8B497D7010AD8B496D71F0AD8B4B8
:1018700095D7010AD8B494D7030AD8B493D7010AEC
:10188000D8B492D7070AD8B491D7010AD8B490D760
:10189000030AD8B48FD7010AD8B48ED70F0AD8B4A8
:1018A0008DD7010AD8B48CD7030AD8B48BD73B0A9A
:1018B000D8B422D7030AD8B421D7010AD8B420D784
:1018C000070AD8B41FD7010AD8B41ED7030AD8B460
:1018D0001DD7010AD8B41CD70F0AD8B41BD7010AE8
:1018E000D8B41AD7030AD8B419D7010AD8B418D76C
:1018F000070AD8B417D7010AD8B416D7030AD8B440
:1019000015D7010AD8B414D71F0AD8B413D7010ABF
:10191000D8B412D7030AD8B411D7010AD8B410D753
:10192000070AD8B40FD7010AD8B40ED7030AD8B41F
:101930000DD7010AD8B40CD70F0AD8B40BD7010AB7
:10194000D8B40AD7030AD8B409D7000E1200050E7E
:101950000001F46FC7D0000120EE02F0F051D9264B
:10196000F151DA22DECFC5F0DDCFC6F0F2C0C7F00C
:101970000F0E0001C86F7AECB1F0000120EE04F008
:10198000F051D926F151DA22DECFC5F0DDCFC6F015
:10199000F2C0C7F0000E0001C86F7AECB1F0B0D011
:1019A000F0C0E9F0F1C0EAF0F2C0EBF0030E000184
:1019B000EC6F8EECACF00001F46F0001F451D8A490
:1019C0001200000120EE02F0F051D926F151DA2286
:1019D000DECFC5F0DDCFC6F0F2C0C7F0000E0001CB
:1019E000C86F7AECB1F0000120EE04F0F051D92676
:1019F000F151DA22DECFC5F0DDCFC6F0F2C0C7F07C
:101A0000000E0001C86F7AECB1F07AD0F0C0E9F0B6
:101A1000F1C0EAF0F2C0EBF0030E0001EC6F8EECC7
:101A2000ACF00001F46F0001F451D8A412000001E1
:101A300020EE02F0F051D926F151DA22DECFC5F0C6
:101A4000DDCFC6F0F2C0C7F00F0E0001C86F7AEC10
:101A5000B1F0000120EE04F0F051D926F151DA2264
:101A6000DECFC5F0DDCFC6F0F2C0C7F00F0E00012B
:101A7000C86F7AECB1F044D0F0C0E9F0F1C0EAF000
:101A8000F2C0EBF0030E0001EC6F8EECACF0000145
:101A9000F46F0001F451D8A41200000120EE02F00E
:101AA000F051D926F151DA22DECFC5F0DDCFC6F0F4
:101AB000F2C0C7F0000E0001C86F7AECB1F000016F
:101AC00020EE04F0F051D926F151DA22DECFC5F034
:101AD000DDCFC6F0F2C0C7F0000E0001C86F7AEC8F
:101AE000B1F00ED00001F351000AD8B434D7010A86
:101AF000D8B456D7030AD8B489D7010AD8B4BCD70A
:101B0000080E0001F0250001C96F000E0001F1214F
:101B10000001CA6F0001F251040DF3CFCBF0F3C006
:101B2000CCF08BECAEF0080E0001F0250001C96F7F
:101B3000000E0001F1210001CA6F0001F251040DF5
:101B4000F3280001CB6FF3C0CCF08BECAEF0080EA5
:101B50000001F0250001C96F000E0001F121000114
:101B6000CA6F0001F251040DF350020F0001CB6F58
:101B7000F3C0CCF08BECAEF0080E0001F0250001B4
:101B8000C96F000E0001F1210001CA6F0001F2517E
:101B9000040DF350030F0001CB6FF3C0CCF08BECBE
:101BA000AEF01200050E0101006F7AD0000120EEA8
:101BB00002F0F451D926F551DA22DECFF7F0DDCF6D
:101BC000F8F0F7C0D9FFF8C0DAFFFF0E67D0F4C015
:101BD000F0F0F5C0F1F0010E0001F26FFCECADF099
:101BE0000101006F01010051D8A41200000120EE94
:101BF00002F0F451D926F551DA22DECFF7F0DDCF2D
:101C0000F8F0F7C0D9FFF8C0DAFF000EDF6E000170
:101C100020EE04F036D0F4C0F0F0F5C0F1F0020E82
:101C20000001F26FFCECADF00101006F0101005109
:101C3000D8A41200000120EE02F0F451D926F5518B
:101C4000DA22DECFF7F0DDCFF8F0F7C0D9FFF8C029
:101C5000DAFFFF0EDF6E000120EE04F0AAD7F4C019
:101C6000F0F0F5C0F1F0000E0001F26FFCECADF009
:101C70000101006F01010051D8A41200000120EE03
:101C800002F0F451D926F551DA22DECFF7F0DDCF9C
:101C9000F8F0F7C0D9FFF8C0DAFF000EDF6E0ED003
:101CA0000001F651000AD8B481D7010AD8B48FD701
:101CB000030AD8B4B0D7010AD8B4D1D7080E0001AE
:101CC000F4250001C96F000E0001F5210001CA6F63
:101CD000000E0001CB6FF6C0CCF08BECAEF0080E1E
:101CE0000001F4250001C96F000E0001F52100017B
:101CF000CA6F010E0001CB6FF6C0CCF08BECAEF0DA
:101D0000080E0001F4250001C96F000E0001F52145
:101D10000001CA6F020E0001CB6FF6C0CCF08BEC55
:101D2000AEF0080E0001F4250001C96F000E00019D
:101D3000F5210001CA6F030E0001CB6FF6C0CCF095
:101D40008BECAEF0080E0001F4250001C96F000E07
:101D50000001F5210001CA6F040E0001CB6FF6C02F
:101D6000CCF08BECAEF0080E0001F4250001C96F39
:101D7000000E0001F5210001CA6F050E0001CB6FB6
:101D8000F6C0CCF08BECAEF0080E0001F42500019B
:101D9000C96F000E0001F5210001CA6F060E000197
:101DA000CB6FF6C0CCF08BECAEF0080E0001F42542
:101DB0000001C96F000E0001F5210001CA6F070E76
:101DC0000001CB6FF6C0CCF08BECAEF0120000013E
:101DD000FF51D8B41200E8C3E0F0E9C3E1F0EAC370
:101DE000E2F0EBC3E3F000019251D8B405D090C00B
:101DF000DFF00F0E0001906F000E0001E56FDFD0E5
:101E00000001E551020D000EF324D96E030EF420FB
:101E1000DA6EDECFFDF0DDCFFEF0000E0001E46FE4
:101E2000130E0001E46501D0BED00001E551140D90
:101E3000AA0E0001DD6F040E0001DE6FF3500001F9
:101E4000DD27F4500001DE230001E451010DF350C1
:101E50000001DD25D96EF4500001DE21DA6EDFAE1F
:101E60009AD00001E551140DAA0E0001DD6F040E99
:101E70000001DE6FF3500001DD27F4500001DE2386
:101E80000001E451010DF3500001DD25D96EF4503D
:101E90000001DE21DA6E7F0EDF160001E551140D20
:101EA000AA0E0001DD6F040E0001DE6FF350000189
:101EB000DD27F4500001DE230001E451010DF35051
:101EC0000001DD25D96EF4500001DE21DA6EDF500D
:101ED000D8B44AD085C0C3F086C0C4F0E0C0C5F015
:101EE000E1C0C6F0E2C0C7F0E3C0C8F0F0C3C9F07B
:101EF000F1C3CAF0F2C3CBF0F3C3CCF03BECA9F0D2
:101F00000001E551140DAA0E0001DD6F040E000161
:101F1000DE6FF3500001DD27F4500001DE230001E5
:101F2000E451010DF3500001DD25D96EF45000019C
:101F3000DE21DA6EDF50EFEC9EF0BFC0CCF0C0C007
:101F4000CDF0E0C0CEF0E1C0CFF0E2C0D0F0E3C011
:101F5000D1F0F0C3D2F0F1C3D3F0F2C3D4F0F3C3A5
:101F6000D5F0E9ECA4F017D0000E0001C46F000E0C
:101F7000C36FE0C0C5F0E1C0C6F0E2C0C7F0E3C087
:101F8000C8F0F0C3C9F0F1C3CAF0F2C3CBF0F3C399
:101F9000CCF03BECA9F0060E0001E027000EE12397
:101FA0000001E42B3DD7080E0001E227000EE323D9
:101FB000000E0001E16F060EE06F0001E52B00014D
:101FC000E5510001905DD8B01BD700019251D8B403
:101FD0001200000E0001926FDFC090F012006C0E34
:101FE0000101006F030E0101016F000E0101036F7B
:101FF000020E026F900E0101046F660E0101056F63
:10200000010E0101066FC40E0101076F640E01018C
:10201000086F010E0101096F040E01010A6F140E11
:1020200001010B6F000E01010C6F85EC9EF04E0E4E
:102030000101006F030E0101016F000E0101036F2A
:10204000020E026F900E0101046F660E0101056F12
:10205000010E0101066F240E0101076F650E0101DB
:10206000086F010E0101096F040E01010A6F140EC1
:1020700001010B6F000E01010C6F85EC9EF0440E08
:102080000101006F030E0101016F000E0101036FDA
:10209000020E026F900E0101046F660E0101056FC2
:1020A000010E0101066F0C0E0101076F650E0101A3
:1020B000086F010E0101096F040E01010A6F140E71
:1020C00001010B6F000E01010C6F85EC9EF0580EA4
:1020D0000101006F030E0101016F000E0101036F8A
:1020E000020E026F900E0101046F660E0101056F72
:1020F000010E0101066FF40E0101076F640E01016C
:10210000086F010E0101096F040E01010A6F140E20
:1021100001010B6F000E01010C6F85EC9EF0620E49
:102120000101006F030E0101016F000E0101036F39
:10213000020E026F900E0101046F660E0101056F21
:10214000010E0101066FDC0E0101076F640E010133
:10215000086F010E0101096F040E01010A6F140ED0
:1021600001010B6F000E01010C6F85EC9EF0A00EBB
:102170000001E76F860EE86F010EE96F000EEA6F4F
:10218000000E0001EB6F020E0001EC6F53EC82F0C9
:10219000760E0001C96F030E0001CA6FAFECA9F003
:1021A000000E0001F66F000EF56F0001F65113E10D
:1021B000080E0001F55DD8B012003C0E0001F525B7
:1021C000D96E030E0001F621DA6E000EDF6E0001FB
:1021D000F54BF62BEAD712000001C26F0001C25185
:1021E0000001D8B41ED00001BDAF1BD0BAC0BEF0F4
:1021F000BBC0BFF0BCC0C0F0BDC0C1F00001BE1F7D
:10220000BF1FC01FC11FBE2B000EBF23C023C12391
:10221000BEC0C4F0BFC0C5F0C0C0C6F0C1C0C7F0EA
:1022200008D0BAC0C4F0BBC0C5F0BCC0C6F0BDC0C9
:10223000C7F00001BA510001BB110001BC1100013F
:10224000BD11D8A40AD0000E0001BA6F000EBB6FFA
:10225000000EBC6F000EBD6F1200960E0001C36F22
:1022600008D00001C32B0001D890C733C633C53353
:10227000C433000E0001C4150001BE6F000E000142
:10228000C5150001BF6F000E0001C6150001C06F2B
:10229000FE0E0001C7150001C16F0001BE51000113
:1022A000BF110001C0110001C111D8B410D0D9D79D
:1022B0000001C32B010E0001C427000EC523C62355
:1022C000C7230001D890C733C633C533C433000ECB
:1022D0000001C4150001BE6F000E0001C51500010C
:1022E000BF6F000E0001C6150001C06FFF0E000198
:1022F000C7150001C16F0001BE510001BF110001EF
:10230000C0110001C111D8B409D0D2D70001C30750
:102310000001D890C437C537C637C7370001C6BFDC
:1023200004D0020E0001C361F1D70001C3B109D08E
:10233000FF0E0001C417FF0EC5177F0EC617FF0E54
:10234000C7170001D890C333C3C0BEF00001BF6BF4
:10235000C06BC16BBEC0C1F00001C06BBF6BBE6B78
:102360000001BE510001C4130001BF510001C5139B
:102370000001C0510001C6130001C1510001C71383
:102380000001C2510001D8B405D00001BDAF02D098
:102390000001C78FC4C0BAF0C5C0BBF0C6C0BCF056
:1023A000C7C0BDF01200D10E0001DE6F000E0001AB
:1023B000DF6FC9D0250E0001E219D8B405D00001A5
:1023C000E251E4ECB2F0BFD0000E0001DD6F14D09A
:1023D000DEC0D9FFDFC0DAFFDF500001E26F020E7E
:1023E0000001DE27000EDF230001E251E4ECB2F031
:1023F000AAD00001DD8D1ED0CFC0F6FFD0C0F7FF00
:102400000001CF4BD02B000EF86E0800F5CFE2F0A4
:102410000001E251000AD8B41200630AD8B4D8D738
:10242000070AD8B407D00D0AD8B404D01C0AD8B40F
:10243000E0D7DAD70001DDBD19D0DEC0D9FFDFC09B
:10244000DAFFDECFE0F0DDCFE1F0020E0001DE27A3
:10245000000EDF230001E1AF16D0030E0001DD13F3
:102460000001E06DE11FD8B0E12B0DD0DEC0D9FF37
:10247000DFC0DAFFDECFE0F0DDCFE1F0020E0001D9
:10248000DE27000EDF23010E0001E26F050E0001C2
:10249000E219D8B419D00001E251020D050EF3245F
:1024A000F66EFD0EF420F76EF86A000EF8220900B1
:1024B000F5500001E05D0900F5500001E159D8A098
:1024C00003D00001E22BE2D7DDC0DBF0030E0001F8
:1024D000DB17D8B403D02D0EE4ECB2F0E2C0DCF090
:1024E0002CD00001DC51020D050EF324F66EFD0E1A
:1024F000F420F76EF86A000EF8220900F5CFBCF060
:102500000A00F5CFBDF0E0C0BAF0E1C0BBF0C4EC0A
:10251000A8F0BAC0C1F0BBC0C2F0000E0001C46F89
:102520000A0EC36F2FECACF00001C151300F000157
:10253000E26F0001E251E4ECB2F00001DC070001BF
:10254000DC29D8A4CED7CFC0F6FFD0C0F7FF00015A
:10255000CF4BD02B000EF86E0800F5CFE2F0000153
:10256000E251D8B4120026D7E0C0D9FFE1C0DAFFAB
:10257000DECFE5F0DDCFE6F0050E0001E46FB5D06B
:10258000000120EE02F0E051D926E151DA22DECF3F
:10259000BAF0DDCFBBF0E2C0BCF0010E0001BD6FB0
:1025A000CCECABF0B0D0E5C0C9F0E6C0CAF0010E8B
:1025B0000001CB6FE2C0CCF049ECA8F00001E46F61
:1025C0000001E451D8A41200000120EE02F0E05115
:1025D000D926E151DA22DECFBAF0DDCFBBF0E2C07E
:1025E000BCF0000E0001BD6FCCECABF0000120EEA2
:1025F00004F0E051D926E151DA22DECFBAF0DDCF86
:10260000BBF0E2C0BCF0000E0001BD6FCCECABF043
:102610007AD0E5C0C9F0E6C0CAF0020E0001CB6F67
:10262000E2C0CCF049ECA8F00001E46F0001E451F5
:10263000D8A41200000120EE02F0E051D926E151A9
:10264000DA22DECFBAF0DDCFBBF0E2C0BCF0010E83
:102650000001BD6FCCECABF0000120EE04F0E051C6
:10266000D926E151DA22DECFBAF0DDCFBBF0E2C0ED
:10267000BCF0010E0001BD6FCCECABF044D0E5C066
:10268000C9F0E6C0CAF0000E0001CB6FE2C0CCF08A
:1026900049ECA8F00001E46F0001E451D8A4120055
:1026A000000120EE02F0E051D926E151DA22DECF1E
:1026B000BAF0DDCFBBF0E2C0BCF0000E0001BD6F90
:1026C000CCECABF0000120EE04F0E051D926E15152
:1026D000DA22DECFBAF0DDCFBBF0E2C0BCF0000EF4
:1026E0000001BD6FCCECABF00ED00001E351000A4D
:1026F000D8B446D7010AD8B456D7030AD8B489D774
:10270000010AD8B4BCD7080E0001E0250001C96F4A
:10271000000E0001E1210001CA6FE2C0CBF0E3C06E
:10272000CCF08BECAEF01200B2ECADF0010E00017B
:10273000726F910E716F030E0001FC6FE80EFB6F5C
:10274000000E0001706F000E6F6F030E00016C6FC2
:10275000E80E6B6F000E00016E6F000E6D6F000EC5
:102760000001FA6F080EF96F02D009EC8AF000013F
:1027700072BF07D000017251F8E100017105D8B0B5
:10278000F4D7BD0E00016B2500016B6FFF0E000139
:102790006C2100016C6F00016CAF27D06BC0F4F3AB
:1027A0006CC0F5F3D8900301F437F53700016B5195
:1027B0000301F42500016B6F00016C510301F52149
:1027C00000016C6F6BC0F4F36CC0F5F30301F41FF0
:1027D000F51FF44BF52B0E0E0301F42500016B6F72
:1027E000010E0301F52100016C6F6BC0F4F36CC0A6
:1027F000F5F30301F41FF51FF44BF52B0E0E030147
:10280000F4250001D76F010E0301F5210001D86FF7
:10281000000E0001DA6FC80ED96F000E9EECA2F018
:102820003FD0010EF3ECAEF00009D8B437D0FB0E68
:102830000001CF6FFF0E0001D06F000E0001D26FBC
:10284000230ED16FD3EC91F00D0E0001CF6FFF0E70
:102850000001D06FFBC0D1F0FCC0D2F06BC0D3F050
:102860006CC0D4F089C0D5F00001D66B8AC0D7F017
:102870000001D86BBD0E00016B250001D96FFF0E62
:1028800000016C210001DA6FD3EC91F0E7EC8EF0DF
:1028900021ECB2F00009D8A473ECAFF0EEECAFF08D
:1028A00000018951D8A40CD000018A51D8A408D0C5
:1028B00000018851D8A404D000018751D8B4B1D701
:1028C000000EB5ECB2F0000E68ECAEF012000001A4
:1028D000CD6FB1D03BECA5F0120060ECACF0120073
:1028E0006EECA6F01200B9EC9FF0120099ECABF080
:1028F00012009BECB1F01200CDC0CAF07F0E0001B7
:10290000CA1700019051140DAA0E0001CB6F040EDE
:102910000001CC6FF3500001CB27F4500001CC2311
:1029200000019151010DF3500001CB25D96EF450F7
:102930000001CC21DA6EDF507F0B0001CA19D8B438
:102940002ED0010E0001FF6F00019051140DAA0E50
:102950000001CA6F040E0001CB6FF3500001CA27BB
:10296000F4500001CB2300019151010DF3500001FF
:10297000CA25D96EF4500001CB21DA6E0001CD5189
:102980008009DF6E00019051020D000EF324D96E14
:10299000030EF420DA6EFDC0DEFFFEC0DDFF99EC11
:1029A000ABF00009D8B41200CDC0CAF07F0E000110
:1029B000CA1700019051140DAA0E0001CB6F040E2E
:1029C0000001CC6FF3500001CB27F4500001CC2361
:1029D00000019151010DF3500001CB25D96EF45047
:1029E0000001CC21DA6EDF507F0B0001CA19D8B488
:1029F0001200010E0001FF6F00019051140DAA0E8C
:102A00000001CA6F040E0001CB6FF3500001CA270A
:102A1000F4500001CB2300019151010DF35000014E
:102A2000CA25D96EF4500001CB21DA6E0001CD51D8
:102A30008009DF6E12000001CD51070AD8B456D7C5
:102A40000F0AD8B44AD7010AD8B44DD7030AD8B46C
:102A500041D7060AD8B444D7010AD8B43BD72D0AC7
:102A6000D8B44AD7030AD8B444D746D70101035192
:102A700043ECA4F001C1D9FF02C1DAFF0001BAC0E2
:102A8000DEFF0001BBC0DDFF0101035196ECA4F0A5
:102A9000010120EE06F00151D9260251DA2200018F
:102AA000BAC0DEFF0001BBC0DDFF0101035196EC9F
:102AB000A4F0010120EE04F00151D9260251DA22DE
:102AC0000001BAC0DEFF0001BBC0DDFF0101035100
:102AD000F0ECA3F0010120EE02F00151D9260251E1
:102AE000DA220001BAC0DEFF0001BBC0DDFF010138
:102AF00020EE04F00151D9260251DA22DECF04F192
:102B0000DDCF05F104C1D9FF05C1DAFF000EDF6E8C
:102B1000010120EE02F00151D9260251DA22DECF66
:102B200004F1DDCF05F104C1D9FF05C1DAFFFF0EC5
:102B3000DF6E01C1F4F002C1F5F0000E0001F66F86
:102B4000D2EC8DF0000E0101066F070E0101066543
:102B500031D04BD001C1E0F002C1E1F006C1E2F09A
:102B6000030E0001E36FB4EC92F03CD001C1E0F041
:102B700002C1E1F006C1E2F0020E0001E36FB4EC25
:102B800092F030D001C1E0F002C1E1F006C1E2F004
:102B9000010E0001E36FB4EC92F024D001C1E0F02B
:102BA00002C1E1F006C1E2F0000E0001E36FB4ECF7
:102BB00092F018D001C1D9FF02C1DAFFDECFC6F012
:102BC000DDCFC7F006C1C8F0B1ECAFF0000AD8B451
:102BD000C1D7010AD8B4D6D7030AD8B4C7D7010AD7
:102BE000D8B4DCD70101062BB0D701C1C9F002C1AE
:102BF000CAF0000E0001CB6F2CEC88F0120000012F
:102C0000D26F000E0001D16F000E0001D56FC00E13
:102C10000001CF6F000E0001D06F950EF2ECB2F004
:102C20000001D251F2ECB2F0000E0001D66F23D0B9
:102C3000CFC0D9FFD0C0DAFFDF500001D36F020E42
:102C40000001CF27000ED0230001D35166ECABF07A
:102C50000001D1270001D651010D000EF324D96ED9
:102C6000020EF420DA6ED3C0DFFF0001D351F2EC84
:102C7000B2F00001D62B0001D2510001D65DD8A0E0
:102C8000D7D7000E0001D66F0ED00001D651010D2E
:102C9000000EF324D96E010EF420DA6E35ECB3F099
:102CA000DF6E0001D62B0001D1510001D65DD8A006
:102CB000ECD7000E0001D66F5ED0D5C0D4F021D085
:102CC0000001D451010D000EF324D96E010EF42041
:102CD000DA6EDF500001BB6F0001D5510008000122
:102CE000D4250001BC6F0001D651010D000EF32464
:102CF000D96E020EF420DA6EDF50E7EC9BF0000193
:102D0000D42B0001D651010D000EF324D96E020E12
:102D1000F420DA6EDF5066ECABF00001CA6FCB6BCB
:102D20000001D5510001CA27000ECB230001D45168
:102D30000001CC6FCD6B0001CA510001CC5D0001D8
:102D4000CD51800A0001CE6F0001CB51800A0001F5
:102D5000CE59D8A0B5D70001D651010D000EF324ED
:102D6000D96E020EF420DA6EDF5066ECABF0000193
:102D7000D5270001D62B0001D2510001D65DD8B075
:102D800012009BD7010E4B6E000E0001636F000E08
:102D90000001646F000E0001656FB40E0101016F48
:102DA000030E0101026F000E0101036F36EC95F076
:102DB000AA0E0101016F030E0101026F010E010154
:102DC000036F36EC95F0A70E0101016F000E0101B3
:102DD000026F020E0101036F36EC95F09D0E0101AA
:102DE000016F000E0101026F030E0101036F36EC4B
:102DF00095F0930E0101016F000E0101026F040EA8
:102E00000101036F36EC95F0BE0E0101016F030E58
:102E10000101026F050E0101036F36EC95F0A00E63
:102E20000101016F030E0101026F060E0101036F24
:102E300036EC95F0BE0E0001E06F030E0001E16F6D
:102E4000050E0001E26F000E0001E36FB4EC92F09A
:102E5000AA0E0001F06F030E0001F16F000E0001D9
:102E6000F26F000E0001F36FA7EC8CF0BE0E0001B4
:102E7000E06F030E0001E16F060E0001E26F030E2A
:102E80000001E36FB4EC92F0A00E0001F46F030EAA
:102E90000001F56F030E0001F66FD2EC8DF0A00E6D
:102EA0000001C96F030E0001CA6F040E0001CB6F51
:102EB000000E0001CC6F57EC9FF0BE0E0001C96FF1
:102EC000030E0001CA6F060E0001CB6F010E000158
:102ED000CC6F57EC9FF0000EFEECABF0010EFEEC59
:102EE000ABF0000E9E6E000EA16E000EA46E9B8EC7
:102EF0009B8C000E0001BB6F640EBA6FFCECAAF055
:102F0000D08E120023ECAAF0000E0001F26F000E2A
:102F1000F16F0001F25106E1590E0001F15DD8B0E8
:102F20008BD001D089D0D8900001F135F66E000128
:102F3000F235F76E330EF626FC0EF722F86A000E15
:102F4000F8220900800EF5180900F510D8A422D047
:102F50000001F2511FE1580E0001F15DD8B01AD006
:102F60000001F14BF22BD8900001F135F66E000113
:102F7000F235F76E330EF626FC0EF722F86A000ED5
:102F8000F8220900F5CFBAF00A00F5CFBBF0FCEC4F
:102F9000AAF04BD0D8900001F135F66E0001F23561
:102FA000F76E330EF626FC0EF722F86A000EF822B2
:102FB0000900000EF55E0900010EF55AD8A020D0D8
:102FC000000E0001BD6FD8900001F135F66E0001D2
:102FD000F235F76E330EF626FC0EF722F86A000E75
:102FE000F8220900F5CFEFF00900F5CFF0F0F0C0BE
:102FF000EFF00001F06B0001EF5158ECB1F015D08B
:10300000010E0001BD6FD8900001F135F66E000190
:10301000F235F76E330EF626FC0EF722F86A000E34
:10302000F8220800F55058ECB1F00001F14BF22BFA
:103030000001F25101E170D7000E0001BB6F640E78
:10304000BA6FFCECAAF0000E0001BD6F290E58EC1F
:10305000B1F0010EDAECA5F0000E0001BB6F640EBA
:10306000BA6FFCECAAF0000E0001C46F000EC36F33
:10307000E7ECACF01200000120EE07F0D551D926A4
:10308000D651DA2201D80AD00500FA6EDE50FD6E64
:10309000DE50FE6EDE50FF6EFA5012000001DD6F52
:1030A000D5C0D9FFD6C0DAFF0001DD51DE18D8A4A3
:1030B00021D0000120EE01F0D551D926D651DA22D7
:1030C0000001D751DE5CD8B00AD0000120EE01F03B
:1030D000D551D926D651DA22000EDF6E120000013A
:1030E00020EE01F0D551D926D651DA220001D75170
:1030F000DF5E1200000120EE01F0D551D926D65135
:10310000DA22DF500001D86FD96B0001D7510001DE
:10311000D827000ED923000120EE01F0D551D92681
:10312000D651DA22DF500001DA6FDB6B0001D85193
:103130000001DA5D0001DB51800A0001DC6F000153
:10314000D951800A0001DC59D8B01200000120EEEC
:1031500001F0D551D926D651DA220001D751DF2608
:10316000000120EE02F0D551D926D651DA22000115
:1031700010EE01F0D551E126D651E222E7500001D0
:10318000DA6FDB6BDE500001DA5DDE500001DB59E7
:10319000D8A01200D5C0D9FFD6C0DAFFDDC0DFFF4E
:1031A000000120EE01F0D551D926D651DA22000EC9
:1031B000DF6E000120EE04F0D551D926D651DA2277
:1031C00001D812000500FA6EDE50FD6EDE50FE6E74
:1031D000DE50FF6EFA500001DD511200800E00013A
:1031E000CD6F8D0ECE6F5B0ECF6F000ED06FD59E64
:1031F0000001C7510001C8110001C9110001CA1125
:10320000D8B41200D596D59CD59AD598CDC0BAF031
:10321000CEC0BBF0CFC0BCF0D0C0BDF0C7C0BEF0C8
:10322000C8C0BFF0C9C0C0F0CAC0C1F0D9ECA0F09E
:10323000BAC0D1F0BBC0D2F0BCC0D3F0BDC0D4F096
:103240000CD000018F2B020E00018F6501D02FD012
:10325000070E00018F6501D01200D1C0BAF0D2C0B4
:10326000BBF0D3C0BCF0D4C0BDF000018F51020D43
:10327000E50EF324F66EFC0EF420F76EF86A000EED
:10328000F8220900F5CFCBF00900F5CFCCF0CBC088
:10329000BEF0CCC0BFF00001C06BC16BD9ECA0F098
:1032A0000001BD51CEE10001BC05D8B0CAD7000174
:1032B0008F51020DE50EF324F66EFC0EF420F76E2E
:1032C000F86A000EF8220800F5CF8EF0FF0E00011C
:1032D000D12503012A6FFF0E0001D22103012B6FBC
:1032E000FF0E0001D32103012C6FFF0E0001D4213A
:1032F00003012D6F2AC3BAF02BC3BBF02CC3BCF063
:103300002DC3BDF000018E510001BE6FBF6BC06BBD
:10331000C16BD9ECA0F00001BA1F0001BB1F000176
:10332000BA4BBB2BFF0E0001BA25296EFF0E000120
:10333000BB212A6E14ECB3F0D58E1200000E0001F2
:10334000D06F6C0ED16FDC0ED26F020ED36F000106
:10335000D890C737C837C937CA37020E0001CB6FBC
:10336000D8900001D333D233D133D0330001CB2FE7
:10337000F7D7D0C0BAF0D1C0BBF0D2C0BCF0D3C038
:10338000BDF0C7C0BEF0C8C0BFF0C9C0C0F0CAC061
:10339000C1F0D9ECA0F0BAC0D4F0BBC0D5F0BCC02D
:1033A000D6F0BDC0D7F010D0000E0001CC6F000EDB
:1033B000CD6F000ECE6F000ECF6F00018D2B020E71
:1033C00000018D6501D026D0D4C0BAF0D5C0BBF0C5
:1033D000D6C0BCF0D7C0BDF000018D51010D1C0E50
:1033E000F324F66EFD0EF420F76EF86A000EF82254
:1033F0000800F5500001BE6FBF6BC06BC16BD9EC0C
:10340000A0F00001BD510001BC11CEE10001BB05DF
:10341000D8B0CAD7CA5000018D19FC0B8D19CA6EDD
:10342000CA8439ECB3F000018D51010D1C0EF32458
:10343000F66EFD0EF420F76EF86A000EF822080012
:10344000F5CF8CF0FF0E0001D4250301266FFF0E8F
:103450000001D5210301276FFF0E0001D6210301D2
:10346000286FFF0E0001D7210301296F26C3BAF090
:1034700027C3BBF028C3BCF029C3BDF000018C51A9
:103480000001BE6FBF6BC06BC16BD9ECA0F0000137
:10349000BA5100018D6F8DC0CBFF120051B267EFA2
:1034A0009BF0000120EE04F08151D9268251DA22EE
:1034B000DF50F3ECAEF00009D8B47AD081C0D9FF68
:1034C00082C0DAFFDE50DE10D8B46DD081C0D9FFE3
:1034D00082C0DAFF010EDBBE26D0010EDB5003E115
:1034E000DE04D8A020D081C0D9FF82C0DAFFDE2858
:1034F00004E17F0EDE18D8B407D081C0D9FF82C0A6
:10350000DAFFDE06000EDD5A930E0001C96F000ED1
:103510000001CA6F000E0001CB6F010E0001CC6FDD
:1035200057EC9FF01FD081C0D9FF82C0DAFFDE04C4
:1035300004E1800EDE18D8B407D081C0D9FF82C064
:10354000DAFFDE2A000EDD22930E0001C96F000EA5
:103550000001CA6F000E0001CB6F000E0001CC6F9E
:1035600057EC9FF0930E0001C96F000E0001CA6F67
:10357000010E0001CB6F010E0001CC6F57EC9FF0E4
:10358000930E0001C96F000E0001CA6F010E000109
:10359000CB6F000E0001CC6F57EC9FF021ECB2F026
:1035A0001AECB3F0120021ECB2F045ECB3F01200CB
:1035B00066C0BAF067C0BBF068C0BCF000ECB3F006
:1035C00012000001F535F6350001F86F0001F851E1
:1035D000D8A40AD0000E0001F36F000EF46F000EA5
:1035E000F56F000EF66F1200F3C000F1F4C001F1A8
:1035F000F5C002F1F6C003F1200E06D00101D8900B
:103600000333023301330033E82EF8D701010051B0
:103610000001F76F0001F58FFF0E0001F317FF0E99
:10362000F417FF0EF517000EF617960E0001F85F5F
:103630000001F8AF1AD00001F851800A970FD8B0F6
:103640000AD0000E0001F36F000EF46F000EF56F4C
:10365000000EF66F12000001D890F633F533F43304
:10366000F3330001F83FF7D71BD01F0E0001F865B8
:1036700012D0000E0001F36F000EF46F000EF56F14
:10368000000EF66F12000001D890F337F437F537CB
:10369000F6370001F8070001F8510001D8A4F3D76C
:1036A0000001F7510001D8B409D00001F61FF51F41
:1036B000F41FF36D000EF423F523F623F3C0F3F0AB
:1036C000F4C0F4F0F5C0F5F0F6C0F6F01200000119
:1036D00020EE04F08151D9268251DA22DF5043ECEA
:1036E000B0F00009D8B46AD081C0D9FF82C0DAFF37
:1036F000DE50DE10D8B45DD081C0D9FF82C0DAFFC1
:10370000010EDBBE22D0010EDB5003E1DE04D8A0A7
:103710001CD081C0D9FF82C0DAFFDE2804E17F0E11
:10372000DE18D8B407D081C0D9FF82C0DAFFDE0628
:10373000000EDD5A930E106E000E116E000E126E0A
:10374000010E136E48ECA3F01BD081C0D9FF82C0DC
:10375000DAFFDE0404E1800EDE18D8B407D081C0A1
:10376000D9FF82C0DAFFDE2A000EDD22930E106E32
:10377000000E116E000E126E000E136E48ECA3F0D8
:10378000930E106E000E116E010E126E010E136E6E
:1037900048ECA3F0930E106E000E116E010E126E27
:1037A000000E136E48ECA3F054ECB3F020ECB3F031
:1037B000120054ECB3F051ECB3F0120066C001F00B
:1037C00067C002F068C003F007ECB3F0120000011C
:1037D000BF6F57D0BBC036F0B5ECA6F01200BBC02F
:1037E00035F01200BBC034F01200BBC033F0120041
:1037F000BBC032F01200BBC031F01200BBC030F0D1
:1038000012000001BC510001D8A405D0BBC022F3B6
:103810000301236B1200BBC024F30301256B0301DA
:1038200022510001BE6FBD6B030124510001BD2573
:1038300000017B6F030125510001BE2100017C6F57
:1038400012000001BC510001D8A405D0BBC01EF37A
:1038500003011F6B1200BBC020F30301216B0301A6
:103860001E510001BE6FBD6B030120510001BD253B
:103870000001796F030121510001BE2100017A6F1F
:1038800012000001BF51070AD8B4A4D70F0AD8B458
:10389000A6D7010AD8B4A6D7030AD8B4A6D7010A76
:1038A000D8B4A6D7070AD8B4A6D7010AD8B4A6D7E1
:1038B0001E0AD8B4A6D7070AD8A41200C2D7B2EC01
:1038C000ADF0010EF3ECAEF00009D8B41200FB0E1F
:1038D0000001CF6FFF0E0001D06F000E0001D26F0C
:1038E000230ED16FD3EC91F0950E0001CF6FFF0E38
:1038F0000001D06F77C0D1F078C0D2F089C0D3F08A
:103900000001D46B8AC0D5F00001D66BD3EC91F0E6
:10391000E7EC8EF0000E0001E76F000EE66F000E80
:103920000001D46FC80ED36F4AECB2F025D0C9ECB9
:10393000B2F000017B510001E62700017C5100013B
:10394000E723FB0E0001CF6FFF0E0001D06F000ECA
:103950000001D26F230ED16FD3EC91F0ED0E000178
:10396000CF6FFF0E0001D06FE6C0D1F0E7C0D2F0FC
:10397000D3EC91F0E7EC8EF00001E7BFD8D7880ECA
:103980000001E65D130E0001E759D8A0D0D7000E64
:1039900068ECAEF021ECB2F00009D8B4120073EC80
:1039A000AFF012009DECA3F01AECA0F053D062EC43
:1039B00084F0FAD75FEC9CF0F7D7AAECB2F0F4D71A
:1039C00094EC93F0F1D7010EF3ECAEF00009D8B40B
:1039D000EBD7FB0E0001CF6FFF0E0001D06F000E82
:1039E0000001D26F230ED16FD3EC91F0D80E0001FD
:1039F000CF6FFF0E0001D06FD3EC91F0C30E00012A
:103A0000CF6FFF0E0001D06FD3EC91F0C30E000119
:103A1000CF6FFF0E0001D06FD3EC91F0C30E000109
:103A2000CF6FFF0E0001D06FD3EC91F0C30E0001F9
:103A3000CF6FFF0E0001D06FD3EC91F0E7EC8EF06A
:103A4000E9ECA9F021ECB2F00009D8B4ADD773ECE1
:103A5000AFF0AAD773C0FCF374C0FDF30301FD51AE
:103A6000000AD8A4B0D70301FC51010AD8B49FD7EB
:103A7000030AD8B49FD7010AD8B49FD7070AD8B48D
:103A80009FD7A1D7000E0001E76F000EE86F800EF0
:103A9000E96F440EEA6F330E0001EB6F330EEC6FEB
:103AA000530EED6F400EEE6F000120EE01F0E1517C
:103AB000D926E251DA22DECFE5F0DDCFE6F0E5C02F
:103AC000BAF0E6C0BBF00001BC6BBD6B000EECECC5
:103AD00090F0BAC0EFF0BBC0F0F0BCC0F1F0BDC0D8
:103AE000F2F0EFC0BAF0F0C0BBF0F1C0BCF0F2C031
:103AF000BDF0E7C0BEF0E8C0BFF0E9C0C0F0EAC06A
:103B0000C1F04CEC86F0BAC0EFF0BBC0F0F0BCC026
:103B1000F1F0BDC0F2F0EFC0C8F0F0C0C9F0F1C0E4
:103B2000CAF0F2C0CBF0EBC0CCF0ECC0CDF0EDC0F1
:103B3000CEF0EEC0CFF000EC80F0C8C0EFF0C9C00E
:103B4000F0F0CAC0F1F0CBC0F2F0EFC0E1F0F0C08D
:103B5000E2F0F1C0E3F0F2C0E4F01200C6C0CEF033
:103B6000C7C0CFF0000E0001CD6F000ECC6FC8C0F3
:103B7000CAF0C9C0CBF00001CE510001CF11D8A4CA
:103B800034D0CAC0D9FFCBC0DAFF300EDF6E000ED2
:103B90000001CD6F010ECC6F40D0CEC0C1F0CFC0C0
:103BA000C2F0000E0001C46F0A0EC36F2FECACF020
:103BB0000001C151300FCAC0D9FFCBC0DAFFDF6EA0
:103BC000CEC0BAF0CFC0BBF0000E0001BD6F0A0E30
:103BD000BC6FC4ECA8F0BAC0CEF0BBC0CFF00001FF
:103BE000CC4BCD2B0001CA4BCB2B0001CE51000199
:103BF000CF11D8B408D00001CD5105E1060E000167
:103C0000CC5DD8A0CAD7C8C0BAF0C9C0BBF0CCC080
:103C1000BCF0CDC0BDF091ECAAF00001CC51000188
:103C2000C825D96E0001CD510001C921DA6E000E00
:103C3000DF6E1200E7C0D9FFE8C0DAFF000EDE6ECB
:103C4000000EDD6E000120EE02F0E751D926E851AA
:103C5000DA22000EDE6E000EDD6E000120EE04F0B2
:103C6000E751D926E851DA22E9C0DEFFEAC0DDFFDC
:103C7000930E0001E06F000E0001E16F000E0001E5
:103C8000E26F030E0001E36FB4EC92F0930E0001BB
:103C9000E06F000E0001E16F010E0001E26F030E04
:103CA0000001E36FB4EC92F0930E0001C96F000EB7
:103CB0000001CA6F000E0001CB6F000E0001CC6F37
:103CC00057EC9FF0930E0001C96F000E0001CA6F00
:103CD000010E0001CB6F000E0001CC6F57EC9FF07E
:103CE0009C0E0001666F340E0001676F010E00012B
:103CF000686FE80E0001C76F030EC86F000EC96F32
:103D0000000ECA6FEEEC98F01200010100510101A3
:103D10000111D8B412000101045101010511010182
:103D20000611D8B412000101075101010811010167
:103D30000911D8B4120001010A5101010B1101014E
:103D40000C11D8B412000101025101010311D8A4D1
:103D500005D0000E0101036F010E026F00C1D9FFF3
:103D600001C1DAFF000EDF6E010120EE01F000510B
:103D7000D9260151DA22000EDF6E010120EE02F099
:103D80000051D9260151DA2202C1DEFF03C1DDFF55
:103D9000010120EE04F00051D9260151DA220AC1B6
:103DA000DEFF0BC1DEFF0CC1DEFF010120EE07F0DC
:103DB0000051D9260151DA2207C1DEFF08C1DEFF1A
:103DC00009C1DEFF01D812000500FA6E010104519D
:103DD000FD6E0551FE6E0651FF6EFA501200000195
:103DE000C56F200E0001C55F0001C551050DF3CF61
:103DF000C3F0F4CFC4F01F0E0001C3250001C66F4D
:103E0000FD0E0001C4210001C76F000E0001CA6F42
:103E1000040E0001CA6501D043D0000E0001CB6F33
:103E2000060E0001CB6501D035D0C6C0BAF0C7C0C0
:103E3000BBF0CBC0BCF05EECB0F00009D8A405D05C
:103E400085C0C8F086C0C9F004D0FDC0C8F0FEC06F
:103E5000C9F00001CB510A0D640E0001C16F040EC0
:103E60000001C26FF3500001C127F4500001C223CA
:103E70000001CA51020DF3500001C125D96EF45062
:103E80000001C221DA6EC8C0DEFFC9C0DDFF00013B
:103E9000CB2BC6D70001C64BC72B0001CA2BB8D706
:103EA000640E0001BF6F040E0001C06F1200080E07
:103EB0000001C9250001C66F000E0001CA210001E2
:103EC000C76FCBC0C8F0B1ECAFF00001CD6F42D0EE
:103ED000010E0001CC17000120EE02F0C951D926D5
:103EE000CA51DA22DECFBAF0DDCFBBF0CBC0BCF0D6
:103EF000CCC0BDF0CCECABF01200010E0001CC1731
:103F0000010E0001CC1B000120EE02F0C951D926A0
:103F1000CA51DA22DECFBAF0DDCFBBF0CBC0BCF0A5
:103F2000CCC0BDF0CCECABF01200010E0001CC1700
:103F3000000120EE04F0C951D926CA51DA22DECFA1
:103F4000BAF0DDCFBBF0CBC0BCF0CCC0BDF0CCEC48
:103F5000ABF012000001CD51000AD8B41200010AE2
:103F6000D8B4B6D7030AD8B4C8D7010AD8A4120067
:103F7000DCD7000E0001C86FFA0E47240001BA6FAB
:103F8000FF0E48200001BB6F000E0001BD6F060E42
:103F9000BC6F7AECA0F00001BA510001C96FC9C032
:103FA000BAF00001BB6B000E0001BD6F040EBC6FC8
:103FB0007AECA0F00001BA510001C76F000E0001B9
:103FC000C86F06D014ECAFF099ECABF00001C82B31
:103FD0000001C751040DF31EF41EF34AF42A000138
:103FE000C9510001C26FC36BF3500001C227F450E6
:103FF0000001C3230001C21FC31FC24BC32B040E09
:104000000001C227000EC3230001C8510001C46F84
:10401000C56B0001C2510001C45D0001C551800A99
:104020000001C66F0001C351800A0001C659D8B013
:104030001200C8D7E9ECA9F0000E0001746F000E61
:10404000736F23EE5FF001D80AD00500FA6EDE50E0
:10405000FD6EDE50FE6EDE50FF6EFA50120000095B
:10406000D8B405D0000E0001746F010E736F23EEFB
:104070004BF001D80AD00500FA6EDE50FD6EDE501E
:10408000FE6EDE50FF6EFA5012000009D8B405D063
:10409000000E0001746F020E736F23EE69F001D8F9
:1040A0000AD00500FA6EDE50FD6EDE50FE6EDE5068
:1040B000FF6EFA5012000009D8B405D0000E0001BE
:1040C000746F030E736F23EE55F001D80AD005000C
:1040D000FA6EDE50FD6EDE50FE6EDE50FF6EFA5060
:1040E00012000009D8B41200000E0001746F040E13
:1040F000736F1200000E0001BF6F0001BDAF08D04A
:104100000001BC6DBD1FD8B0BD2B010E0001BF6FFB
:104110000001BBAF08D00001BA6DBB1FD8B0BB2BEC
:10412000010E0001BF1B000E0001C16F000EC06F29
:104130000001BC510001BD11D8B42CD0010E00010A
:10414000BE6F06D00001D890BC37BD370001BE2B32
:104150000001BDAFF7D70001D890C037C1370001CB
:10416000BC510001BA5D0001BD510001BB59D8A08E
:104170000AD00001BC510001BA5F0001BD5100012D
:10418000BB5B0001C0810001D890BD33BC3300018E
:10419000BE2FE1D70001BF510001D8B405D0000106
:1041A000C06DC11FD8B0C12BC0C0BAF0C1C0BBF038
:1041B0001200000E0001C26F000EC36F000EC46F2C
:1041C000000EC56F0001BE510001BF110001C011FA
:1041D0000001C111D8B442D0010E0001C66F08D051
:1041E0000001D890BE37BF37C037C1370001C62B9A
:1041F0000001C1AFF5D70001D890C237C337C4372B
:10420000C5370001BE510001BA5D0001BF51000178
:10421000BB590001C0510001BC590001C15100014E
:10422000BD59D8A012D00001BE510001BA5F0001F3
:10423000BF510001BB5B0001C0510001BC5B00012C
:10424000C1510001BD5B0001C2810001D890C133A2
:10425000C033BF33BE330001C62FCDD7C2C0BAF0C2
:10426000C3C0BBF0C4C0BCF0C5C0BDF01200000E9E
:104270000001BF6F000EBE6F38D03C0E0001BE259E
:10428000D96E030E0001BF21DA6EBBC0E1FFBCC0D6
:10429000E2FFE75065EC8BF0DF6E3C0E0001BE25BF
:1042A000D96E030E0001BF21DA6E800EDE18D8A48D
:1042B0000ED00001BE07D8A0BF073C0E0001BE25EE
:1042C000D96E030E0001BF21DA6E000EDB8E0001F5
:1042D000BB4BBC2B0001BE4BBF2B0001BF511AE1F1
:1042E000060E0001BE5DD8B015D0BBC0D9FFBCC062
:1042F000DAFFDF50D8B40ED0C0D73C0E0001BE2587
:10430000D96E030E0001BF21DA6E000EDF6E0001D0
:10431000BE4BBF2B0001BF5106E1060E0001BE5D82
:10432000D8B01200EAD712000001BE51010D0F0EE5
:10433000F324F66EFD0EF420F76EF86A000EF822F4
:104340000800F5CFC4F0000E0001C36F06D00001D5
:10435000BC510001BD5F0001C32B0001BC51000135
:10436000BD5DD8B0F4D70001BE510001BD03F350CC
:10437000BD6F0001C3510001BD270001C451000100
:10438000BF17BDC0C0F0C4C0C1F00001C02B03D036
:104390000001D890C1370001C02FFAD70001C151E8
:1043A000FF0A0001C26FBAC0D9FFBBC0DAFF00012B
:1043B000C251DF16BDC0C0F0BFC0C1F00001C02BAC
:1043C00003D00001D890C1370001C02FFAD7BAC07E
:1043D000D9FFBBC0DAFF0001C151DF12120000019A
:1043E000D26FCAC0BAF0CBC0BBF0D1ECAEF0BAC04D
:1043F000CAF0BBC0CBF0CCC0BAF0CDC0BBF0D1ECA2
:10440000AEF0BAC0CCF0BBC0CDF00001D25100017B
:10441000D8B429D0000E0001BB6F890EBA6FCBC093
:10442000CEF00001CF6BCEBFCF690001CE510001AD
:10443000BC6FBD6B0001CA510001BE6FBF6BCDC028
:10444000D0F00001D16BD0BFD1690001D051000183
:10445000C06FC16B0001CC510001C26FC36B050E70
:10446000C7ECAAF01200890EF2ECB2F00001CB51B9
:10447000F2ECB2F00001CA51F2ECB2F00001CD5101
:10448000F2ECB2F00001CC51F2ECB2F012001C0ED2
:10449000F66E660EF76E010EF86E03EEE8F010EEA3
:1044A0000CF00900F5CFEEFFE550E150FAE1820E85
:1044B000F66E660EF76E010EF86E00EEF9F010EE75
:1044C00007F00900F5CFEEFFE550E150FAE14C0EA0
:1044D000F66E660EF76E010EF86E00EE47F010EE07
:1044E0000AF00900F5CFEEFFE550E150FAE104EEE5
:1044F000AAF011EE2CF0EE6AE550E150FCE1E2503A
:10450000FAE104EE00F0AA0EEE6AE806FDE103EE21
:1045100000F0E80EEE6AE806FDE100EE60F05A0EEB
:10452000EE6AE806FDE100EE29F01E0EEE6AE806EE
:10453000FDE1519051920001D2EF9CF00001DC6F3F
:10454000000E0001DE6F000EDD6F0001D8BF0DD040
:104550000001D85104E10001D705D8A006D0000E13
:104560000001E06F010EDF6F03D00001DF69E06939
:104570000001DC510001D8B40CD0D9C0CAF0DAC0B7
:10458000CBF0DFC0CCF0E0C0CDF0010EEFECA1F03D
:104590001200D9C0CAF0DAC0CBF0DFC0CCF0E0C066
:1045A000CDF0000EEFECA1F00AD0D2ECB2F0000199
:1045B00079510001DD2700017A510001DE2300015D
:1045C000D7510001DD5D0001DE51800A0001DB6F83
:1045D0000001D851800A0001DB59D8A0E6D7000EAF
:1045E00068ECAEF012000001C26F020E0001BF279E
:1045F000020E0001C127030E0001C227030E0001B5
:10460000C027000E0001BD6F2A0E58ECB1F0010E5C
:104610000001BD6F000E58ECB1F0010E0001BD6F3E
:104620000001C25158ECB1F0010E0001BD6F000E47
:1046300058ECB1F0010E0001BD6F0001C05158EC03
:10464000B1F0000E0001BD6F2B0E58ECB1F0010E61
:104650000001BD6F000E58ECB1F0010E0001BD6FFE
:104660000001BF5158ECB1F0010E0001BD6F000E0A
:1046700058ECB1F0010E0001BD6F0001C15158ECC2
:10468000B1F0000E0001BD6F2C0E58ECB1F012001D
:10469000080E10240D6E000E11200E6E12C00FF0C9
:1046A000C1ECB0F0146E3BD0010E131620EE02F0F8
:1046B0001050D9261150DA22DECF01F0DDCF02F002
:1046C00012C003F013C004F08CECADF01200010E28
:1046D0001316010E131A20EE02F01050D9261150B5
:1046E000DA22DECF01F0DDCF02F012C003F013C0FA
:1046F00004F08CECADF01200010E131620EE04F065
:104700001050D9261150DA22DECF01F0DDCF02F0B1
:1047100012C003F013C004F08CECADF01200145082
:10472000000AD8B41200010AD8B4BED7030AD8B41C
:10473000CED7010AD8A41200DFD7C2EC96F02BEC3A
:10474000B3F0010E92ECAFF00009D8B40CD0FBEC42
:10475000A6F0EFEC8FF082EC97F021ECB2F00009BC
:10476000D8A473ECAFF0080E92ECAFF00009D8B407
:1047700013D0CF0E0001E76F030E0001E86F000EAB
:104780000001EA6F080EE96F1AEC9EF021ECB2F01E
:104790000009D8A473ECAFF0B10E0001BE6F000E9B
:1047A0000001BF6F000E0001C06F87ECA8F0B10ED2
:1047B0000001BC6F000E0001BD6F85ECA7F0AAECF4
:1047C000B1F0EBECB2F00A0E13ECB2F08BECB1F0FE
:1047D000000E0001BB6F140EBA6FFCECAAF01200C1
:1047E0000001BC6F38D0920E0001BA6F0F0E0001AD
:1047F000BB6F1200930E0001BA6F0F0E0001BB6F6A
:104800001200940E0001BA6F0F0E0001BB6F120070
:10481000950E0001BA6F0F0E0001BB6F1200960ECD
:104820000001BA6F0F0E0001BB6F1200970E00015E
:10483000BA6F0F0E0001BB6F1200980E0001BA6F25
:104840000F0E0001BB6F1200000E0001BA6F000EC8
:104850000001BB6F12000001BC51000AD8B4C3D7DD
:10486000010AD8B4C7D7030AD8B4CBD7010AD8B441
:10487000CFD7070AD8B4D3D7010AD8B4D7D7030AF9
:10488000D8B4DBD7E1D70001BC6F38D00B0E0001E4
:10489000BA6FFF0E0001BB6F1200090E0001BA6F64
:1048A000FF0E0001BB6F1200070E0001BA6FFF0E72
:1048B0000001BB6F1200050E0001BA6FFF0E000170
:1048C000BB6F1200030E0001BA6FFF0E0001BB6F39
:1048D0001200010E0001BA6FFF0E0001BB6F120043
:1048E000FF0E0001BA6FFE0E0001BB6F1200000E3A
:1048F0000001BA6F000E0001BB6F12000001BC5135
:10490000000AD8B4C3D7010AD8B4C7D7030AD8B4A9
:10491000CBD7010AD8B4CFD7070AD8B4D3D7010A66
:10492000D8B4D7D7030AD8B4DBD7E1D70001BC6F1E
:1049300038D0800E0001BA6F0F0E0001BB6F12005D
:10494000810E0001BA6F0F0E0001BB6F1200820EC4
:104950000001BA6F0F0E0001BB6F1200830E000141
:10496000BA6F0F0E0001BB6F1200840E0001BA6F08
:104970000F0E0001BB6F1200850E0001BA6F0F0E03
:104980000001BB6F1200860E0001BA6F0F0E00010E
:10499000BB6F1200000E0001BA6F000E0001BB6F6A
:1049A00012000001BC51000AD8B4C3D7010AD8B420
:1049B000C7D7030AD8B4CBD7010AD8B4CFD7070AD0
:1049C000D8B4D3D7010AD8B4D7D7030AD8B4DBD721
:1049D000E1D7000E0001DC6F0001CE510001D225AD
:1049E0000001DA6F0001D0510001D4250001DB6F16
:1049F000D4C0BAF0D5C0BBF0D2C0BCF0D3C0BDF0BB
:104A000028ECB0F0BAC0D8F0BBC0D9F0D0C0BFF02D
:104A10000001DA050001C06F0001DB050001C16F74
:104A20000001CE51F3ECA2F0000E0001DC6F13D0B8
:104A30000001DC51020DF3500001CC25D96EF45079
:104A40000001CD21DA6EDECFBFF0DDCFC0F0B9ECD2
:104A5000B1F00001DC2B0001DC510001D66FD76BF7
:104A60000001D8510001D65D0001D9510001D7598C
:104A7000D8B01200DDD73ED000019051140DAA0E1F
:104A80000001BA6F040E0001BB6FF3500001BA279A
:104A9000F4500001BB2300019151010DF3500001BE
:104AA000BA25D96EF4500001BB21DA6EDF50D8B4BC
:104AB0001FD0010E0001FF6F00019051140DAA0ECE
:104AC0000001BA6F040E0001BB6FF3500001BA275A
:104AD000F4500001BB2300019151010DF35000017E
:104AE000BA25D96EF4500001BB21DA6E800EDF6E5C
:104AF0000001912B130E00019165BED7000E00013D
:104B0000916F0001902B080E4926000E4A22000EDC
:104B1000486E060E476E1200BAC0F6FFBBC0F7FF24
:104B2000000EF86E0F0EF76403D00800F55005D0A4
:104B3000F6CFE9FFF7CFEAFFEF500001C26F0001A7
:104B4000BE51010D0F0EF324F66EFD0EF420F76E2C
:104B5000F86A000EF8220800F5CFC0F0000E000140
:104B6000C16F06D00001BC510001BD5F0001C12B27
:104B70000001BC510001BD5DD8B0F4D70001BE51A9
:104B80000001BD03F350BD6F0001C1510001BD27FD
:104B90000001BD290001BF6F03D00001D890C233CE
:104BA0000001BF2FFAD70001C0510001C217000158
:104BB000C25112000001BF6F000E0001C06F000E55
:104BC0000001BD6F360E58ECB1F00001BF51030B70
:104BD0000001C06F2CD0010E0001BD6FC80E58EC53
:104BE000B1F0800E506E800E4F6E1200010E00016B
:104BF000BD6FA80E58ECB1F0800E506E800E4F6E57
:104C00001200010E0001BD6F080E58ECB1F0800ECD
:104C1000506E800E4F6E1200010E0001BD6F680EC7
:104C200058ECB1F0800E506E800E4F6E12000001F5
:104C3000C051000AD8B4CFD7010AD8B4D7D7030AD5
:104C4000D8B4DFD7010AD8A41200E6D70001C06F9C
:104C5000180EF66EFD0EF76E000EF86E0900F5CF19
:104C6000BCF00900F5CFBDF00900F5CFBEF00A0099
:104C7000F5CFBFF0110E0001C16F030E0001C01788
:104C80000001C051010DBC0EF324D96E000EF420BA
:104C9000DA6EDF500001BA6FC1C0BBF00001BA2B61
:104CA00003D00001D890BB370001BA2FFAD700011A
:104CB000BB510001C16F0001C1390F0B0001C16F71
:104CC0000001C1510F0B0001C16F030142510001EE
:104CD000C119F00BC1190301426F1200000E00014F
:104CE000916F000E0001906F000E0001BD6F0E0E5F
:104CF0000001BD6501D02DD0000E0001BC6F130E68
:104D00000001BC6501D022D0010E0001FF6F00013F
:104D1000BD51140DAA0E0001BA6F040E0001BB6F45
:104D2000F3500001BA27F4500001BB230001BC512D
:104D3000010DF3500001BA25D96EF4500001BB21DA
:104D4000DA6E800EDF6E0001BC2BD9D70001BD2BBF
:104D5000CED7010E0001926F000E486E060E476E10
:104D6000000E4A6E060E496E120036A002D0010EE9
:104D700001D0000E00018A6F36C0BAF00001D89051
:104D8000BA330001BAA102D0010E01D0000E000119
:104D9000896F36C0BAF00001D890BA330001D890BC
:104DA000BA330001BAA102D0010E01D0000E0001F9
:104DB000886F36C0BAF00001D890BA330001D8909D
:104DC000BA330001D890BA330001BAA102D0010E63
:104DD00001D0000E0001876F36C0BAF00001BA3B67
:104DE0000F0EBA170001BAA103D0010E2F6E1200E8
:104DF000000E2F6E1200000E0001916F000E0001D8
:104E0000906F000E0001BC6F130E0001BC6501D055
:104E10001200000E0001BD6F0E0E0001BD6501D035
:104E20002CD00001BD51140DAA0E0001BA6F040E62
:104E30000001BB6FF3500001BA27F4500001BB23FF
:104E40000001BC51010DF3500001BA25D96EF45098
:104E50000001BB21DA6E000EDF6E0001BD51020DB4
:104E6000000EF324D96E030EF420DA6EFF0EDE6E10
:104E7000FF0EDD6E0001BD2BCFD70001BC2BC4D7C8
:104E80000001BA6F000E0001BB6F010E02D0000ED0
:104E90000CD00001BC6F2DD0040E07D0010E05D040
:104EA000050E03D0020E01D0060E0001BB6F000EEE
:104EB000F0D7020E0001BA6503D00001BA0719D07D
:104EC000020E0001BA6F15D00001BA51020AD8B41F
:104ED000DED7060AD8B4E0D70C0AD8B4DFD7180A50
:104EE000D8B4DED7300AD8B4DDD7600AD8B4DCD75E
:104EF000E0D70001BC510001D8A4E6D7C1500001A1
:104F0000BB19F80BBB19C16E1200C2B212003DEC06
:104F1000B3F0BCC0D9FFBDC0DAFFDF502FECB2F058
:104F20004BECB3F0C282C2B2FED7C350C4CFBEF0C6
:104F30000001BF6BBEC0BFF00001BE6B0001BE131D
:104F4000000EBF13000120EE01F0BC51D926BD5167
:104F5000DA22BEC0DEFFBFC0DDFF000120EE03F09D
:104F6000BC51D926BD51DA22DE50DE10D8B40CD0A7
:104F7000000120EE03F0BC51D926BD51DA22DECF6C
:104F8000BCF0DDCFBDF0C3D73DECB3F01200000E96
:104F900000016A6F000E696F000E0001D46F640E8D
:104FA000D36F4AECB2F00AD0C9ECB2F000017B51E9
:104FB0000001692700017C5100016A2300016ABFDA
:104FC000F3D7E80E0001695D030E00016A59D8A00D
:104FD000EBD7000E68ECAEF0000E0001BB6F640E64
:104FE000BA6FFCECAAF0000E0001D86F430ED76F29
:104FF000000E0001DA6FC80ED96F000E9EECA2F011
:10500000000E0001BB6F640EBA6FFCECAAF0120038
:105010000001C06F090E0001BD611200C0C03FF069
:10502000000E3D6E070E3D6401D027D03FC0BEF09C
:10503000010E0001BE17060E0001BF6F0001D890DF
:10504000BE370001BF2FFAD70001BE513E6E0001EE
:10505000BD39E842F80B3D103E100001C16FD890F9
:105060003F32760E0001BA6F030E0001BB6FC1C064
:10507000BCF05BECAAF03D2AD5D7760E0001BA6FE2
:10508000030E0001BB6F000E0001BC6F5BECAAF0C9
:105090001200F50EF66EFC0EF76E000EF86E20EEA6
:1050A000CFF00F0E0900F5CFDEFFE806FBE2C9C026
:1050B000C6F0CAC0C7F0CCC0C8F0B1ECAFF0000178
:1050C000DF6F040E0001CB6120D0040E0001DF6110
:1050D0001CD00001CB51040DCF0E0001CD6F000E8E
:1050E0000001CE6FF3500001CD27F4500001CE2314
:1050F0000001DF51010DF3500001CD25D96EF450B0
:105100000001CE21DA6EDF501200050E1200000100
:10511000BE510001BF11D8B41200BEC083F0BFC0A1
:1051200084F0BEC0D9FFBFC0DAFFC0C0DFFF0001FE
:1051300020EE03F0BE51D926BF51DA22000EDE6EFA
:10514000000EDD6E000120EE01F0BE51D926BF51E8
:10515000DA22000EDE6E000EDD6E0001C0512FEC73
:10516000B2F0C29EC29CC18EC18C0C0E20ECAEF07F
:10517000100E40ECA7F00001C05178ECB0F0010E29
:105180003C6EBFECB2F01200000E0001C06F000ECA
:10519000BF6F0001BC510001BD11D8B42CD0010E6D
:1051A0000001BE6F06D00001D890BC37BD370001AA
:1051B000BE2B0001BDAFF7D70001D890BF37C03775
:1051C0000001BC510001BA5D0001BD510001BB5995
:1051D000D8A00AD00001BC510001BA5F0001BD5146
:1051E0000001BB5B0001BF810001D890BD33BC331F
:1051F0000001BE2FE1D7BFC0BAF0C0C0BBF01200A3
:1052000001C0F6FF02C0F7FF000EF86E0F0EF76444
:1052100003D00800F55005D0F6CFE9FFF7CFEAFF3D
:10522000EF50096E0550010D0F0EF324F66EFD0EC2
:10523000F420F76EF86A000EF8220800F5CF07F0A8
:10524000000E086E03D00350045E082A0350045C6D
:10525000D8B0F9D705500402F350046E0850042664
:105260000428066E02D0D8900932062EFCD70750CB
:10527000091609501200000E0001CF6F000E000148
:10528000D06FC7C0BFF00001C5510001C9250001A2
:10529000CD6F0001CD050001C06F0001C7510001B5
:1052A000CB250001CE6F0001CE050001C16F0001CA
:1052B000C551F3ECA2F0CBC0D0F00001D0510001F9
:1052C000D8B41200C9C0CFF00001CF510001D8B44A
:1052D00009D0C3C0BFF0C4C0C0F0B9ECB1F0000148
:1052E000CF07F2D70001D007E8D7000120EE06F083
:1052F000C951D926CA51DA22DECFBAF0DDCFBBF0D0
:10530000050E0001BC6F000E0001BD6FCCECABF0D0
:10531000000120EE06F0C951D926CA51DA22DECFAB
:10532000C5F0DDCFC6F0000E0001C76F000E000112
:10533000C86F7AECB1F0000120EE06F0C951D92611
:10534000CA51DA22DECFBAF0DDCFBBF0050E000184
:10535000BC6F010E0001BD6FCCECABF01200000180
:1053600020EE06F0C951D926CA51DA22DECFBAF0B2
:10537000DDCFBBF0050E0001BC6F000E0001BD6F5C
:10538000CCECABF0000120EE06F0C951D926CA5191
:10539000DA22DECFC5F0DDCFC6F0000E0001C76F08
:1053A000020E0001C86F7AECB1F0000120EE06F0A9
:1053B000C951D926CA51DA22DECFBAF0DDCFBBF00F
:1053C000050E0001BC6F010E0001BD6FCCECABF00F
:1053D0001200FC0E966E6C0E0001D56F030E0001DC
:1053E000D66F010E0001D76F3BEC98F04E0E000116
:1053F000D56F030E0001D66F010E0001D76F3BEC95
:1054000098F0440E0001D56F030E0001D66F010E17
:105410000001D76F3BEC98F0580E0001D56F030EDA
:105420000001D66F010E0001D76F3BEC98F0620EC1
:105430000001D56F030E0001D66F010E0001D76F7A
:105440003BEC98F01200BE0E0001E06F030E00016D
:10545000E16F070E0001E26F030E0001E36FB4EC91
:1054600092F0BE0E0001E06F030E0001E16F060E28
:105470000001E26F030E0001E36FB4EC92F064EC04
:10548000ADF0C00E0001E76FC60EE86F2D0EE96F9C
:10549000000EEA6F010E0001EB6F010E0001EC6FD0
:1054A00053EC82F0810E0001C96F030E0001CA6F38
:1054B00075ECA9F0120026D0ABC0D9FFACC0DAFF62
:1054C0000001DF94BCC0C9FFC7A0FED7C9CFBCF0A4
:1054D000ABC0D9FFACC0DAFF0001DF841200A1C06D
:1054E000D9FFA2C0DAFF0001DF9EBCC06FFF6DA034
:1054F000FED76FCFBCF0A1C0D9FFA2C0DAFF000178
:10550000DF8E1200000120EE02F0BA51D926BB5105
:10551000DA22DF50000AD8B4CFD7010AD8A412008B
:10552000DED70001BC510001BA250001BF6F0001A8
:10553000BD510001BB210001C06F1AD0BAC0D9FF14
:10554000BBC0DAFFDF500001BE6FBFC0D9FFC0C0D3
:10555000DAFFBAC0E1FFBBC0E2FFDFCFE7FF000127
:10556000BA4BBB2BBFC0D9FFC0C0DAFFBEC0DFFF44
:105570000001BF07D8A0C0070001BF510001BA5DFC
:105580000001C0510001BB59D8B01200D7D70001AB
:10559000C86FBA0E0001C66F000E0001C76F000E83
:1055A0000001C96F1FD0C6C0D9FFC7C0DAFF000114
:1055B000C95137C0C4F00001C56B0001C427000EFB
:1055C000C523000E0001C425E16E040E0001C521B3
:1055D000E26EDFCFE7FF020E0001C627000EC723F1
:1055E0000001C92B0001C8510001C95DD8A0DBD75B
:1055F0000001C851372612001FD0000E0001BC6FF9
:10560000000EBD6F000EBE6F000EBF6F0001BF51D8
:105610000001BE1111E1B00E0001BC5D040E0001DD
:10562000BD59D8B009D000F0010E0001BC27000E12
:10563000BD23BE23BF23EAD70001BA07D8A0BB070A
:105640000001BA29DAE10001BB29D8A4D6D7080E97
:105650000001BC6F800EBD6F000EBE6F000EBF6FED
