:100000000DEF04F026EF00F004EF0AF0D1EC04F05D
:10001000FF0000F000F012000CEF0AF018EF00F003
:10003000F26AFC6A9BEC04F004009EEC09F0D8EC38
:1000400003F0F3EC03F05EEC08F0F6D701501F0B61
:10005000E80601E01200055001E01200060E021849
:1000600014E01AD0020E3D6E4A0E3FD8306A090ED7
:100070000AD0020E3D6E450402E1870E36D84504D3
:100080000AE1306A1D0E2F6E06D00450210AEAE004
:10009000030AEFE0010A42820138E832030BE80666
:1000A00014E01200020E3D6E440E206E24D0020EAB
:1000B0003D6E04C044F0020C020E3D6E430EF5D7B7
:1000C000020E3D6E03C043F0020C0250010AD8B488
:1000D0001200030AE7E0010AEFE00A0AD8B41200AE
:1000E000030AE5E0010AECE01200206E2050D8A4DB
:1000F000100E216E1200216A4292010E2F6E010C29
:100100004F6A140E506E516A296A2A6A4FC0F6FF70
:1001100050C0F7FF51C0F8FF42D80800F5CFDFFF0D
:100120004F2A000E50225122294A2A2A040E2A5C04
:10013000EDE30D0EE8CFB2F4600EE8CFB3F4000E9D
:10014000496E050E486E0AEC03F04F68170E506EAC
:10015000516A030E2A6E296851C0F8FF50C0F7FF9C
:100160004FC0F6FF1CD8DF50F56E0C0029C04EF0D2
:100170003F0E4E1607E1FEEC09F0040EA66EB50E1A
:1001800067EC04F04F06000E505A515A0A002950ED
:100190002A1001E112002906D8A02A06DDD7AC0EEC
:1001A0002924D96E040E2A20DA6E120003040BE112
:1001B00001501F0B08E1010E3D6E030E021802E113
:1001C000428001D042900350D8A4120001501F0B6E
:1001D000020AD8A4120005500F0BD8B4120028D878
:1001E000476A040E486E4726000E4822F350472601
:1001F000F450482223D847241D6EF45048201E6E28
:10020000030E021805E10FD8040EDF6E0CD81CD0C7
:1002100005AE04D008D8400EDF6E400C04D8080E9E
:10022000DF6E01D811D01DC0D9FF1EC0DAFF120049
:10023000010E3D6E05500F0B080D1200010E05AEAC
:10024000000E040DF3501200000EDB8E000C3D502A
:1002500010E193EC03F0196E3A0405E1010E32EC63
:1002600003F03A6A1200000E32EC03F0010E3A6E0F
:10027000010C01AE1BD0010E3E6E2F50075C3050BA
:10028000085804E207C02FF008C030F076EC01F007
:10029000480E196E010E32EC03F0000E32EC03F042
:1002A000240E04010A6F040E0B6F1CD0020E3E6E6A
:1002B000040E196E0750081002E1480E196E3A0438
:1002C00005E1010E32EC03F03A6A05D0000E32EC83
:1002D00003F0010E3A6E07500810D8A41200040172
:1002E000096B00D0480E086F088F480C080E326E5C
:1002F00030500DE1080E2F5C0AE22FC032F0405062
:1003000002E1010E03D0400402E1020E406E32C051
:1003100009F432502F5E000E305A240E1D6E040E6A
:100320001E6E42A21AD00BD01BD813EC01F00F0E98
:10033000F76403D00800F55001D019D81ED8325008
:10034000F3E112000DD813EC01F00F0EF76403D0A7
:100350000800F55001D00BD810D83250F3E112004C
:1003600020C0F6FF21C0F7FF000EF86E1200F6CF96
:10037000E1FFF7CFE2FFE7501200DF6E1D4A1E2AB1
:10038000204A212A320612000138E832030B18E015
:100390001200010E3D6E040E416E040C010E3D6E06
:1003A000450E206E7BEF00F02CD8496E49C020F03E
:1003B0007BEF00F026D8D96EDA6A03C0DFFF1200A7
:1003C000025002E179EF02F0010A02E1D6EF00F0FB
:1003D000020A02E1D6EF00F0060ADBE0030A02E1BE
:1003E00006EF02F0010AD8B412000F0AD7E0010AA2
:1003F00002E155EF03F0030AD7E0010ADBE0070A48
:100400001200010E3D6E0550460F1200800E0118BD
:1004100030E01200010E3D6EA40E75EC00F0120EDD
:1004200009D003502DE1010E3D6E380E75EC00F041
:10043000306A290E2F6E24D0010E3D6E0350010F3D
:10044000476E47C0F6FF100EF76E000EF86E0900FB
:10045000F5CF20F0100E216EB0EC01F00F0EF76416
:1004600003D00800F55002D0B7EC01F02F6E306ACF
:1004700007D00450010ACEE0030AD3E0010ADCE011
:1004800042821200366A27D03850486E000E48BEAD
:10049000FF0E496E4A6E4B6E4850155C0D6E49500A
:1004A00016580E6E4A5017580F6E4B501858106E53
:1004B0000FC0F8FF0EC0F7FF0DC0F6FF11D80D00FA
:1004C000362A0ED80C00362A240EA66EB50E67EC1E
:1004D00004F0FE0E38263850800A7F0FD5E2120055
:1004E000AC0E3624D96EDA6A040EDA22DF50F56ECD
:1004F0001200246B256B22D0010E3D6E42B0248386
:1005000024D0010E3D6E21D018EC01F0476A040E94
:10051000486E4726000E4822F3504726F4504822E2
:100520001EEC01F047241D6EF45048201E6E13ECA3
:1005300001F0DFA40AD0010E246F07D001501F0B79
:10054000DBE0010ADEE0030ADFE03D04D8A412008C
:10055000240E206E040E216E4292020E2F6E020CAB
:10056000400E486401D0486E4A6A0DD047504A2474
:10057000D96EDA6A6C0E4A24E16EE26A040EE22257
:10058000DFCFE7FF4A2A48504A5CF0E348C011F445
:10059000400E0401101710BD03D0496A492A01D04A
:1005A000496A493A49464946040110514918BF0B66
:1005B0004918106F1087108F12003F6A0CBF12008D
:1005C00048500D5D02E20DC448F03F6A0BD02C0E7E
:1005D0003F24D96EDA6A040EDA2247503F24F9EC40
:1005E00009F03F2A48503F5CF2E3400E0D6F0C17B4
:1005F0000CBD03D0496A492A01D0496A493A4946A3
:10060000494604010C514918BF0B49180C6F0C875F
:100610000C8F1200495006E1050E485C03E2496A5E
:10062000050E486E48504A6E49504B6E4C6A4D6AF2
:100630000A0ED8904A364B364C364D36E82EF9D74E
:100640004AC009F04BC00AF04CC00BF04DC00CF092
:100650000BC0F8FF0AC0F7FFF66A140EA66EB50EBF
:1006600067EF04F0476E080E1A6E1C0E1B6E040E28
:100670001C6E475006E1140E1B6E040E1C6E256A9C
:1006800002D0040E256E266E0BD819C0DEFF1AC0EC
:10069000DEFF1BC0DEFF1CC0DEFF02D8DF8E1200B3
:1006A00025C0D9FF26C0DAFF1200010E3D6E0F01F2
:1006B00016D8346A3450460FD96EDA6ADF6A342AA3
:1006C0003450F8E003C045F04550C9EC04F0035045
:1006D00003E1050E416E050C060E416E060C4D6BD6
:1006E0004E6B4F6B506B516B526B536B1200040E81
:1006F000411808E103C05EFF0F015E51050ED8B43A
:10070000030E416E3E04D8A4120076EC01F0020EF6
:10071000401802E108D8040C0401480E08BD080E78
:10072000086F088F1200040E0401086F088F040C74
:10073000030E416E0F015D6B626A7B0E5C6F5E6B38
:100740006FEC03F0160E4C6F658C03D06296FEECD6
:1007500009F062B6FBD7659C6598040E196E000E11
:1007600032EC03F0010E3A6E426A456A000EC9EFA0
:1007700004F081B818EC00F0060EF66E14D80D0ED9
:10078000F5180DE10900600EF51809E1F66A0BD8BD
:10079000F52803E10900F52802E000EF0AF018EC63
:1007A00000F000EF00F0140EF76EF86A0900140C68
:1007B0002306D8A0240623502410D8A412004E0EDD
:1007C000246E236A060E416002D08B80060C8BB02B
:1007D00003D0476A472A01D0476A8B504718FE0B5F
:1007E00047188B6E1200C0BC1200030ED36E6592C8
:1007F0006596F26A0ED808D0C0AC04D02D06D8A0F9
:100800002E0601D006D804002D502E10F5E1FF0071
:100810001200040E2E6E2D6A040C04EEACF014EEE1
:1008200000F0EE6AE550E150FCE1E250FAE100EE42
:1008300060F0820EEE6AE806FDE100EE01F0460E81
:10084000EE6AE806FDE10001B9EF03F00401086B70
:10085000406A00AF02D0006B3A6A04AF03D0046B69
:10086000010E3A6E3E6A3D6A2F6A306A6598C4ECA2
:1008700001F002EC00F027EF01F005D80AD8376A42
:100880000CD8386A12007E0E3B6E116AFC0E126E96
:10089000FC0C010E136E146A000C156816681768BC
:1008A000186812003F6A1E0E0F014D6F400E0401C2
:1008B0000D6F2C0E0E6F040E0F6F080E0C6F0C8F49
:1008C0006C0E126F040E136F400E106F400C476ECB
:1008D000F29EF3EC03F0B50E471804E0030ED36E5E
:1008E0000300FED7550EA76EAA0EA76EA682A6B26B
:1008F000FED7A69412005CCF35F0040E0F015C6F9A
:1009000062986582A198A088AAEC04F0A09835505E
:100910000F015C131200390402E1D1EC04F0656AA6
:10092000150E0F015F6F5C6B658698EC03F0010E8E
:10093000416E396A1200600ED36E9B8CDCEC04F0C1
:10094000BFEC04F0C16AC26A3DEC04F08B90949055
:10095000E7EF04F08B90D3CF31F00300A1B802D0C1
:10096000D0A6FBD731C0D3FF1200D9EC04F06592BA
:100970000F015C9501D0629462A41200FCD705D0EF
:10098000FEEC09F04706D8A0480647504810F8E1A9
:100990001200476E4704D8A4120052EC04F03DEF59
:1009A00004F06592656A48684768BFEC04F0416AE4
:1009B000120002D8BFEF04F0030E486E476A030C22
:1009C000390401E1120065A68BEC04F0120065B653
:0E09D000D1EC04F0396AE0EF04F012001200DE
:1010000000B6046134034D006900630072006F0094
:1010100063006800690070002000540065006300F0
:1010200068006E006F006C006F00670079002000A0
:1010300049006E0063002E000902290001010080B2
:10104000320904000002030000000921110100011F
:10105000221D000705810340000107050103400030
:101060000126034800490044002000550053004277
:1010700000200042006F006F0074006C006F006180
:10108000006400650072000600FF0901A10119015A
:101090002940150026FF0075089540810019012997
:1010A000409100C01201000200000008D8043C007A
:0B10B00001010102000104030904001B
:1010BC00060E4118D8B465B21200375001E017D1B2
:1010CC0004010CBF1200600E476E400E486EDDEC42
:1010DC0002F0010E376E276A286A2750A10FD96ECD
:1010EC00DA6A000EDF6E274A282A285005E1400EE6
:1010FC00275CD8B01200F1D71200020EA16F3A0E85
:10110C00A26F010EA36FA46FA56B140EA66FA76B35
:10111C00A86B000E1124A96FEC0E1220AA6FFF0E03
:10112C001320AB6FFF0E1420AC6F030EAD6FF80ED7
:10113C00AE6FAF69010EB06FB16B080EB26FB36BCF
:10114C00B46BB56BB669A50EDA6F040110BFA50CB4
:10115C00A10E476E400E486EB0EC02F0376A1200DA
:10116C00615106E17F0E3B6EF80E116E126802D0D3
:10117C0043EC04F049EC04F0F1D7286A050E276E15
:10118C000CD0FEEC09F027C048F028C049F00AEC5E
:10119C0003F09EEC09F0274A282A3B50526E536A02
:1011AC00522A000E53225250275C53502858D6E234
:1011BC00E8D715280EE116280CE117280AE11828A3
:1011CC0008E161C015F062C016F063C017F064C08E
:1011DC0018F015506119C2E116506219BFE1175091
:1011EC006319BCE118506419B9E1276A286A1AD04E
:1011FC006551A0082724D96EDA6AAC0E3824E16E4A
:10120C00E26A040EE222DFCFE7FF382A152A000E2D
:10121C001622172218223A0E381802E142EC02F07C
:10122C00274A282A00017CD899E2E2D742EC02F046
:10123C004DEC04F093D7070EA16F61C0A2F062C011
:10124C00A3F063C0A4F064C0A5F065C0A6F063C0B1
:10125C00F8FF62C0F7FF61C0F6FF276A286A0BD05F
:10126C00090000016551E1082724D96EDA6AF5CF2F
:10127C00DFFF274A282A54D8F3E3040110BF1200D9
:10128C0067D780EC00F06AD70C0EA16F010EA36F2C
:10129C00020EA26F160EF66ED3EC03F0F5CFA4F08F
:1012AC000A00F5CFA5F0060EA66F140EA76FA86B5B
:1012BC00A96B600EAB6F0D0EAA6FAC6B040EAD6F0D
:1012CC00000EAE6BAF6BB069B169B269B369B4694A
:1012DC00B569B669B769B86BB96BBA6BBB6BBC6BEC
:1012EC00BD6BBE6BBF6BC9D706EC00F037D70001E6
:1012FC006051020A01E101D7010A01E131D7070A65
:10130C0001E13BD7010A01E154D7030A8FE0010A3E
:10131C0092E00F0AE9E0010AB4E0050AB5E01ED735
:10132C006551526E536A5250275C53502858120024
:10133C00E0EC04F0415001E1120062B4B5EC04F0B1
:10134C0065B2120062B098EC03F062B87BEC04F06A
:10135C00030E416001D0030C3C6A62A6120064507B
:10136C0064CF4AF07C0E4A162AE164B203D02B6A91
:10137C00040E02D0040E2B6E2C6E62962BC0D9FF7D
:10138C002CC0DAFFDF30E8320F0B0D0A20E1336A94
:10139C0023D8DECF4AF0DDCF4BF04AC0D9FF4BC08B
:1013AC00DAFF3350010F1FD817D8DE2A000EDD22CA
:1013BC00332A070E3364ECD726EC04F008D0040E65
:1013CC00641804E1629677EC03F001D062963C2A33
:1013DC00030E3C64C2D7030C20EE02F02B50D9262E
:1013EC002C50DA221200E16EE26ADFCFE7FF120026
:0413FC0004001200D7
:1014000055EF0AF012000D605182FACF17F0FBCFB2
:1014100018F0E9CF19F0EACF1AF0E1CF1BF0E2CFD4
:101420001CF0D9CF1DF0DACF1EF0F3CF1FF0F4CFB0
:1014300020F0F6CF21F0F7CF22F0F8CF23F0F5CF50
:1014400024F051C025F052C026F053C027F054C0FC
:1014500028F0F292F2B4F2AA02D0AFECB0F028C0B9
:1014600054F027C053F026C052F025C051F024C0DC
:10147000F5FF23C0F8FF22C0F7FF21C0F6FF20C010
:10148000F4FF1FC0F3FF1EC0DAFF1DC0D9FF1CC050
:10149000E2FF1BC0E1FF1AC0EAFF19C0E9FF18C054
:0E14A000FBFF17C0FAFF5192110049EFA2F0B6
:10FC980000001180002C0100B10200350036000080
:10FCA800B202003500360000B3020035003600020B
:10FCB800003500360000B4000000C0A20002008435
:10FCC8000000C1C50000C20D00000000C38D002A5D
:10FCD8000000C48D00EE0000C50A000036C8000010
:10FCE800E012001C001000180033002C002500282A
:10FCF80000280027002F003C00000003000300102C
:10FD0800008000780000E112001C00100018002D8F
:10FD180000280023002800280026002F003B0000B0
:10FD280000030003001000003A0500002A0000024A
:10FD38000000008100002B000003000000A200006A
:10FD480029002C0200040008001000200040008058
:10FD5800000001000102000100010002020000038E
:10FD680003030001000A006400E8031027000103F0
:10FD7800070F1F3F7FFF000201030104100000006E
:10FD8800000000005F00000007000700147F147FD8
:10FD980014242A7F2A1223130864623649552250F4
:10FDA8000005030000001C2241000041221C00083D
:10FDB8002A1C2A0808083E080800503000000808D5
:10FDC800080808006060000020100804023E51493D
:10FDD800453E00427F400042615149462141454B22
:10FDE800311814127F1027454545393C4A49493096
:10FDF80001710905033649494936064949291E0052
:10FE0800363600000056360000000814224114144B
:10FE180014141441221408000201510906324979C8
:10FE2800413E7E1111117E7F494949363E4141418B
:10FE3800227F4141221C7F494949417F090901012B
:10FE48003E414151327F0808087F00417F41002030
:10FE580040413F017F081422417F404040407F02DB
:10FE680004027F7F0408107F3E4141413E7F09091B
:10FE780009063E4151215E7F0919294646494949EB
:10FE88003101017F01013F4040403F1F2040201FBA
:10FE98007F2018207F631408146303047804036127
:10FEA8005149454300007F41410204081020414167
:10FEB8007F0000040201020440404040400001026B
:10FEC800040020545454787F484444383844444407
:10FED80020384444487F3854545418087E09010295
:10FEE800081454543C7F0804047800447D400020E2
:10FEF80040443D00007F10284400417F40007C04BE
:10FF08001804787C0804047838444444387C141471
:10FF18001408081414187C7C080404084854545421
:10FF280020043F4440203C4040207C1C2040201CB2
:10FF38003C4030403C44281028440C5050503C442D
:10FF480064544C44000836410000007F0000004122
:10FF580036080008082A1C08081C2A080800FCFFA4
:10FF68000F0000FFFFF0FF00FFFF00546F74616C8B
:10FF78002044697374616E63653A25750A4C656639
:10FF8800742042756D703A25750A52696768742045
:10FF980042756D703A25750A00436C6F736573740A
:10FFA8002057616C6C3A25750A436C6F73657374DE
:10FFB80020416E676C653A25750A002020202020B4
:10FFC80020202020202020202020202020200A005F
:10FFD800506C656173652073656C656374206D6F23
:10FFE80064652E0A0044697374616E63653A20255E
:07FFF800640A00256300000C
:020000040001F9
:1000000000018A51800B0001936F00018A518A25FB
:100010000001996F000189AF02D0000199810001B0
:1000200099510001D8B410D000019929D8A409D061
:10003000000E0001876F000E886F000E896F000EA2
:100040008A6F0001898F09D0000E0001876F000EB2
:10005000886F000E896F000E8A6F00018E51800B31
:100060000001931B00018E518E250001946F000149
:100070008DAF02D000019481000194510001D8B4E9
:1000800010D000019429D8A409D0000E00018B6F74
:10009000000E8C6F000E8D6F000E8E6F00018D8F25
:1000A00009D0000E00018B6F000E8C6F000E8D6F5B
:1000B000000E8E6F000194510001D8B405D00001EC
:1000C00099510001D8A40AD0000E0001876F000EDC
:1000D000886F000E896F000E8A6F120000018D512B
:1000E00000018703F3CF9EF0F4CF9FF000019E51F3
:1000F0000001956F966B976B986B00019F51000103
:100100009A6F9B6B9C6B9D6B00018C510001880367
:10011000F3CF9EF0F4CF9FF000019E510001952790
:10012000000E96239723982300019F5100019A27E0
:10013000000E9B239C239D2300018B51000189030A
:10014000F3CF9EF0F4CF9FF000019E510001952760
:10015000000E96239723982300019F5100019A27B0
:10016000000E9B239C239D2397C098F096C097F088
:1001700095C096F00001956B00018B51000188033A
:10018000F3CF9EF0F4CF9FF000019E510001952720
:1001900000019F5100019623000E00019723000EDD
:1001A0000001982300018C5100018703F3CF9EF0DA
:1001B000F4CF9FF000019E510001952700019F514F
:1001C00000019623000E00019723000E00019823E2
:1001D00097C098F096C097F095C096F00001956B87
:1001E00000018B5100018703F3CF9EF0F4CF9FF005
:1001F00000019E510001952700019F5100019623A7
:10020000000E00019723000E0001982300018D517C
:1002100000018803F3CF9EF0F4CF9FF000019E51C0
:1002200000019A2700019F5100019B23000E00014D
:100230009C23000E00019D2300018C5100018903C5
:10024000F3CF9EF0F4CF9FF000019E5100019A275A
:1002500000019F5100019B23000E00019C23000E12
:1002600000019D2300018D5100018903F3CF9EF011
:10027000F4CF9FF000019E5100018F6F00019F514C
:100280000001906F0001916B0001926B91C092F0A0
:1002900090C091F08FC090F000018F6B00018F51E2
:1002A00000019A270001905100019B230001915108
:1002B00000019C230001925100019D2395C08FF005
:1002C00096C090F097C091F098C092F0190E06D0A9
:1002D0000001D8909233913390338F33E82EF8D7C2
:1002E00000018F5100019A270001905100019B23CA
:1002F0000001915100019C230001925100019D23B6
:1003000097C098F096C097F095C096F00001956B55
:100310000001945199C08FF00001906B00018F276C
:10032000000E9023820E00018F2500019E6FFF0EAC
:100330000001902100019F6F15D00001D8909A37DD
:100340009B379C379D37000198AF02D000019A81FE
:100350000001D890953796379737983700019E0758
:10036000D8A09F0700019CAFE8D7000E0001946F52
:10037000000198AF24D0FF0E0001951500018F6F8A
:10038000FF0E000196150001906FFF0E00019715FA
:100390000001916F7F0E000198150001926F00011E
:1003A0008F51000190110001911100019211D8A408
:1003B00003D000019AA103D0010E0001946F000147
:1003C00094510001D8B423D0010E00019A27000EE9
:1003D0009B239C239D2300019DA119D09AC08FF0DF
:1003E0009BC090F09CC091F09DC092F000019235AE
:1003F0009233913390338F338FC09AF090C09BF03B
:1004000091C09CF092C09DF000019E4B9F2B00017B
:100410009FBF10D000019F5104E100019E29D8A088
:1004200009D0000E00019A6F000E9B6F800E9C6F2A
:100430007F0E2BD000019FBF07D000019F5111E11B
:1004400000019E05D8B00DD0000E00019A6F000E7D
:100450009B6F000E9C6F000E9D6F000E0001936F4E
:1004600015D09EC099F0FF0E00019A17FF0E9B1742
:100470007F0E9C17000E9D17000199A102D000016C
:100480009C8F0001D890993100019D6F000193511C
:1004900000019D139AC087F09BC088F09CC089F032
:1004A0009DC08AF012000CD05A0E0001936F030E0B
:1004B00004D0650E0001936F030E0001946F08D005
:1004C00000019151000AD8B4EFD7010AD8B4F1D78E
:1004D000000120EE02F09351D9269451DA2291C006
:1004E000DFFFB1D0EA0E0001866F000E0001876FBA
:1004F000020E0001886F030E0001896F5FEC93F01C
:10050000EA0E0001866F000E0001876F030E0001E6
:10051000886F030E0001896F5FEC93F0EA0E000113
:10052000866F000E0001876F050E0001886F030EB5
:100530000001896F5FEC93F0EA0E0001866F000EF8
:100540000001876F040E0001886F000E0001896FA3
:100550005FEC93F0000120EE03F09351D926945103
:10056000DA22C70EDE6E0F0EDD6E000120EE06F001
:100570009351D9269451DA22C60EDE6E0F0EDD6E2F
:10058000000120EE09F09351D9269451DA22C90EC8
:1005900056D0980E0001866F030E0001876F070E7C
:1005A0000001886F030E0001896F5FEC93F0980ED5
:1005B0000001866F030E0001876F060E0001886F31
:1005C000030E0001896F5FEC93F0980E0001866FB7
:1005D000030E0001876F040E0001886F030E0001F7
:1005E000896F5FEC93F0980E0001866F030E000197
:1005F000876F050E0001886F000E0001896F5FECA8
:1006000093F0000120EE03F09351D9269451DA22A1
:100610006D0EDE6E0F0EDD6E000120EE06F09351C2
:10062000D9269451DA226C0EDE6E0F0EDD6E0001BB
:1006300020EE09F09351D9269451DA226F0EDE6E26
:100640000F0EDD6E09D000019151000AD8B44AD7CF
:10065000010AD8A412009DD7000120EE06F09351A4
:10066000D9269451DA22DECF60F0DDCF61F0050E9D
:100670000001626F000E0001636F8DECABF09CD047
:10068000000120EE06F09351D9269451DA22DECFF4
:1006900060F0DDCF61F0040E0001626F000E00011A
:1006A000636F8DECABF0000120EE03F09351D9267F
:1006B0009451DA22DECF60F0DDCF61F0060E00014A
:1006C000626F000E0001636F8DECABF084D000010F
:1006D00020EE06F09351D9269451DA22DECF60F055
:1006E000DDCF61F0040E0001626F000E0001636F48
:1006F0008DECABF0000120EE03F09351D92694511C
:10070000DA22DECF60F0DDCF61F0060E0001626F0D
:10071000010E0001636F8DECABF05DD0000120EEA7
:1007200006F09351D9269451DA22DECF60F0DDCF66
:1007300061F0040E0001626F010E0001636F8DEC29
:10074000ABF0000120EE03F09351D9269451DA2248
:10075000DECF60F0DDCF61F0060E0001626F000EAB
:100760000001636F8DECABF036D0000120EE06F097
:100770009351D9269451DA22DECF60F0DDCF61F0BB
:10078000040E0001626F010E0001636F8DECABF08F
:10079000000120EE03F09351D9269451DA22DECFE6
:1007A00060F0DDCF61F0060E0001626F010E000106
:1007B000636F8DECABF00FD000019251000AD8B4FA
:1007C0005FD7010AD8B483D7030AD8B4A7D7010AE0
:1007D000D8A41200CAD7000120EE06F09351D92602
:1007E0009451DA22DECF60F0DDCF61F0070E000118
:1007F000626F000E0001636F8DECABF0000120EE24
:1008000006F09351D9269451DA22DECF60F0DDCF85
:1008100061F0060E0001626F000E0001636F8DEC47
:10082000ABF08DC06DF08EC06EF08FC06FF090C0D9
:1008300070F076EC99F093C060F094C061F005EC34
:10084000B1F004D09F860BD0A58E09D00001915144
:10085000000AD8B4F7D7010AD8A41200F5D793C07C
:1008600060F094C061F050ECB0F093C0D9FF94C038
:10087000DAFF000EDF6E000120EE06F09351D9265C
:100880009451DA22DECF6BF0DDCF6CF0000E000168
:100890006D6F030E00016E6F4EECB1F0000120EEA3
:1008A00006F09351D9269451DA22DECF60F0DDCFE5
:1008B00061F0050E0001626F010E0001636F8DECA7
:1008C000ABF01200ADECAFF09FECB2F0A8ECB2F0E0
:1008D0000001E051D8A404D00001E151D8B406D001
:1008E000000E8BECB2F0000E27ECAEF00001CDBF95
:1008F0000BD00001CD5105E1540E0001CC5DD8A014
:1009000003D0000E27ECAEF0010EB2ECAEF0000901
:10091000D8B429D0FB0E0001756FFF0E0001766F71
:10092000000E0001786F230E776F7EEC92F0730E4D
:100930000001756FFF0E0001766FCEC077F0CFC05B
:1009400078F0E0C079F000017A6BE1C07BF0000143
:100950007C6B7EEC92F092EC8FF0F5ECB1F000093C
:10096000D8A432ECAFF0AAECA9F0000E0001C76FDA
:10097000000EC66F030E0001FC6FE80EFB6F000E49
:100980000001C56F000EC46F000E0001C36F000EA2
:10099000C26F000E0001FA6F080EF96FF9D0000166
:1009A000C64BC72BF40E0001626F000E0001636F8F
:1009B00087ECA7F0F40E0001A06F000E0001A16FFC
:1009C00044EC9DF0A0C0F4F3A1C0F5F3A2C0F6F38F
:1009D000A3C0F7F3F4C372F0F5C373F0F6C374F079
:1009E000F7C375F0000E00016E6F000E6F6F6C0E96
:1009F000706F420E716F53EC88F06EC0B2F06FC032
:100A0000B3F070C0B4F071C0B5F056EC9BF0B2C05A
:100A1000C2F0B3C0C3F0010EB2ECAEF00009D8B41E
:100A20000ED0C2C076F0C3C077F0F0ECB0F013EC9B
:100A3000AFF0F5ECB1F00009D8A432ECAFF0000152
:100A4000FB510001C25D0001C351800A0301F06F38
:100A50000001FC51800A0301F059D8B008D0C2C08F
:100A6000FBF0C3C0FCF0C6C0C4F0C7C0C5F0080EA0
:100A7000B2ECAEF00009D8B420D0C70E00017B6FF5
:100A8000030E00017C6F000E00017E6F320E7D6F41
:100A9000DBECB0F0C70E0001636F030E0001646F62
:100AA000000E0001666F010E656FCAECAFF0F5EC49
:100AB000B1F00009D8A432ECAFF0000E0001FA6FDB
:100AC0000A0EF96F0001FABF63D00001FA5156E136
:100AD0000001F905D8B052D05BD0F40E0001626F6E
:100AE000000E0001636F87ECA7F0010EB2ECAEF0D0
:100AF0000009D8B40ED0C2C076F0C3C077F0F0ECD5
:100B0000B0F013ECAFF0F5ECB1F00009D8A432EC82
:100B1000AFF0F40E0001A06F000E0001A16F44ECD5
:100B20009DF0A0C0F4F3A1C0F5F3A2C0F6F3A3C0FA
:100B3000F7F3F4C372F0F5C373F0F6C374F0F7C3C0
:100B400075F0000E00016E6F000E6F6F6C0E706F0F
:100B5000420E716F53EC88F06EC0B2F06FC0B3F00C
:100B600070C0B4F071C0B5F056EC9BF0B2C0C2F0EA
:100B7000B3C0C3F00001F907D8A0FA070001FABF1B
:100B800007D00001FA51A9E10001F905D8B0A5D7B5
:100B90000001C7BF04D7900E0001C65D010E000121
:100BA000C759D8A0FCD6080EB2ECAEF00009D8B4F4
:100BB0008AD0C70E00017B6F030E00017C6F000E10
:100BC00000017E6F320E7D6FDBECB0F0C4C0F0F33D
:100BD000C5C0F1F30301F01FF11FF04BF12B900E94
:100BE0000301F0250301F26F010E0301F12103015E
:100BF000F36FC70E0001636F030E0001646FF2C351
:100C0000F0F3F3C3F1F30301F01FF11FF04BF12BED
:100C1000F0C365F0F1C366F0CAECAFF0F5ECB1F0EB
:100C20000009D8B450D032ECAFF04DD0F40E000132
:100C3000626F000E0001636F87ECA7F0010EB2EC4B
:100C4000AEF00009D8B40ED0C2C076F0C3C077F0C1
:100C5000F0ECB0F013ECAFF0F5ECB1F00009D8A473
:100C600032ECAFF0F40E0001A06F000E0001A16F96
:100C700044EC9DF0A0C0F4F3A1C0F5F3A2C0F6F3DC
:100C8000A3C0F7F3F4C372F0F5C373F0F6C374F0C6
:100C9000F7C375F0000E00016E6F000E6F6F6C0EE3
:100CA000706F420E716F53EC88F06EC0B2F06FC07F
:100CB000B3F070C0B4F071C0B5F056EC9BF0B2C0A8
:100CC000C2F0B3C0C3F00301C8BF12000301C85192
:100CD000ADE10301C705D8A01200A8D7ADECAFF075
:100CE0009FECB2F0A8ECB2F00001E051D8A404D01F
:100CF0000001E151D8B406D0000E8BECB2F0000E2A
:100D000027ECAEF00001CDBF0BD00001CD5105E1C5
:100D1000540E0001CC5DD8A003D0000E27ECAEF03D
:100D2000010EB2ECAEF00009D8B429D0FB0E0001E0
:100D3000756FFF0E0001766F000E0001786F230EB5
:100D4000776F7EEC92F0A10E0001756FFF0E00012F
:100D5000766FFBC077F0FCC078F000C379F001C378
:100D60007AF002C37BF003C37CF07EEC92F092EC4D
:100D70008FF0F5ECB1F00009D8A432ECAFF0AAEC9A
:100D8000A9F0000E0001C76F000EC66F030E000130
:100D9000FC6FE80EFB6F000E0001C56F000EC46F04
:100DA000000E0001726F000E736FC80E746F430E59
:100DB000756FC4C060F0C5C061F00001000E61BF76
:100DC000FF0E626F636F010E97EC91F060C06EF0E2
:100DD00061C06FF062C070F063C071F053EC88F0D6
:100DE0006EC087F06FC088F070C089F071C08AF063
:100DF000000E00018B6F000E8C6FB40E8D6F430ED2
:100E00008E6F00EC80F087C000F388C001F389C0CA
:100E100002F38AC003F3000E0001C36F000EC26F1D
:100E2000000E0001FA6F080EF96FF8D00001C64BF2
:100E3000C72BF40E0001626F000E0001636F87EC98
:100E4000A7F0F40E0001A06F000E0001A16F44ECAA
:100E50009DF0A0C0F4F3A1C0F5F3A2C0F6F3A3C0C7
:100E6000F7F3F4C372F0F5C373F0F6C374F0F7C38D
:100E700075F0000E00016E6F000E6F6F6C0E706FDC
:100E8000420E716F53EC88F06EC0B2F06FC0B3F0D9
:100E900070C0B4F071C0B5F056EC9BF0B2C0C2F0B7
:100EA000B3C0C3F0010EB2ECAEF00009D8B40ED05E
:100EB000C2C076F0C3C077F0F0ECB0F013ECAFF046
:100EC000F5ECB1F00009D8A432ECAFF00001FB5111
:100ED0000001C25D0001C351800A0001B86F00012A
:100EE000FC51800A0001B859D8B008D0C2C0FBF04C
:100EF000C3C0FCF0C6C0C4F0C7C0C5F0080EB2EC59
:100F0000AEF00009D8B41FD0C70E00017B6F030EEE
:100F100000017C6F000E00017E6F320E7D6FDBECF6
:100F2000B0F0C70E0001636F030E0001646FFF0E87
:100F30000001666F6569CAECAFF0F5ECB1F000092D
:100F4000D8A432ECAFF0000E0001FA6F0A0EF96F70
:100F50000001FABF63D00001FA5156E10001F90522
:100F6000D8B052D05BD0F40E0001626F000E0001C9
:100F7000636F87ECA7F0010EB2ECAEF00009D8B4B5
:100F80000ED0C2C076F0C3C077F0F0ECB0F013EC36
:100F9000AFF0F5ECB1F00009D8A432ECAFF0F40EEC
:100FA0000001A06F000E0001A16F44EC9DF0A0C0F5
:100FB000F4F3A1C0F5F3A2C0F6F3A3C0F7F3F4C3B2
:100FC00072F0F5C373F0F6C374F0F7C375F0000E5A
:100FD00000016E6F000E6F6F6C0E706F420E716FBE
:100FE00053EC88F06EC0B2F06FC0B3F070C0B4F0D4
:100FF00071C0B5F056EC9BF0B2C0C2F0B3C0C3F004
:101000000001F907D8A0FA070001FABF07D00001D4
:10101000FA51A9E10001F905D8B0A5D70001C7BF71
:1010200005D7900E0001C65D010E0001C759D8A07A
:10103000FDD600C3B2F001C3B3F002C3B4F003C3E2
:10104000B5F056EC9BF0A60E0001B2250301F06F3F
:10105000FF0E0001B3210301F16F000E0301F36FD6
:10106000C80EF26FC6ECB0F007D0000E00017A6F28
:10107000050E796F2BECB2F00001E051D8A40CD032
:101080000001E151D8A408D00001DF51D8A404D058
:101090000001DE51D8B4E9D7000E8BECB2F0000E9F
:1010A00027ECAEF0120000017151800B00017A6F45
:1010B0000001715171250001856F000170AF02D0F0
:1010C00000018581000185510001D8B412D00001D2
:1010D0008529D8A409D0000E00016E6F000E6F6F35
:1010E000000E706F000E716F0001708F000E000116
:1010F00008D0000E00016E6F000E6F6F000E706F53
:10110000000E716F00017551800B00017A1B000108
:10111000755175250001866F000174AF02D0000182
:101120008681000186510001D8B412D000018629C1
:10113000D8A409D0000E0001726F000E736F000E6C
:10114000746F000E756F0001748F000E000108D0DF
:10115000000E0001726F000E736F000E746F000EB0
:10116000756F0001725100017311000174110001CB
:101170007511D8A417D0000E00016E6F000E6F6FAE
:10118000000E706F000E716F0001800E70137F0EE5
:1011900071136EC06EF06FC06FF070C070F071C0F0
:1011A00071F01200000185510001D8A412D0000E88
:1011B00000016E6F000E6F6F000E706F000E716F8A
:1011C0006EC06EF06FC06FF070C070F071C071F0E3
:1011D0001200000186510001766F776B0001761FC7
:1011E000771F764B772B000185510001786F796B63
:1011F0000001765100017827000177510001792321
:101200007F0E0001782500017F6F000E000179211B
:101210000001806F6EC07BF06FC07CF070C07DF00D
:1012200071C07EF0000E00016E6F000E6F6F000E39
:10123000706F000E716F000E0001816F000E826FE3
:10124000000E836F000E846F000E0001866F42D087
:10125000000186510001D8B417D00001D8907B3727
:101260007C377D377E370001D8906E376F37703707
:101270007137000184AF02D000016E810001D89067
:1012800081378237833784370001725100017B5DDB
:101290000001735100017C590001745100017D5916
:1012A0000001755100017E59D8A012D00001848D33
:1012B0000001725100017B5F0001735100017C5BF2
:1012C0000001745100017D5B0001755100017E5BDE
:1012D0000001862B190E00018665BAD700017B51EB
:1012E00000017C1100017D1100017E11D8B418D0DD
:1012F0000001818115D00001D8906E376F377037AB
:101300007137000184AF02D000016E810001D890D6
:10131000813782378337843700017F07D8A0800761
:10132000000170AFE8D7000E0001866F000184AFA6
:1013300024D0FF0E000181150001766FFF0E000121
:1013400082150001776FFF0E000183150001786F91
:101350007F0E000184150001796F000176510001B4
:1013600077110001781100017911D8A403D0000190
:101370006EA103D0010E0001866F000186510001AD
:10138000D8B423D0010E00016E27000E6F23702306
:101390007123000171A119D06EC076F06FC077F093
:1013A00070C078F071C079F0000179357933783305
:1013B0007733763376C06EF077C06FF078C070F018
:1013C00079C071F000017F4B802B000180BF14D0E9
:1013D0000001805104E100017F29D8A00DD0000E4A
:1013E0000001806F7F69000E00016E6F000E6F6F4D
:1013F000000E706F000E716F000180BF07D00001FA
:10140000805115E100017F05D8B011D0000E000118
:10141000806F000E7F6F000E00016E6F000E6F6F09
:10142000000E706F000E716F000E00017A6F7FC0AA
:1014300085F0000185A103D00001708F02D000016A
:10144000709F0001D89085310001716F00017A51C1
:10145000000171136EC06EF06FC06FF070C070F05D
:1014600071C071F01200080E00016F2500016C6F51
:10147000000E0001702100016D6F000E00016E6F03
:1014800070ECAFF00001866F000186510001726FB1
:10149000736B0E0ED890000172377337E82EFAD7AF
:1014A000000186510001746F756B0C0ED89000011D
:1014B00074377537E82EFAD7000186510001766F30
:1014C000776B0A0ED890000176377737E82EFAD777
:1014D000000186510001796F786B0001865100018F
:1014E0007A6F7B6B060ED89000017A377B37E82E37
:1014F000FAD70001865100017C6F7D6B00017C3BB7
:101500007D3BF00E7D177C510F0B7D13F00E7C1789
:101510000001865100017E6F7F6B0001D8907E37FD
:101520007F370001D8907E377F3700018651000158
:10153000806F816B00017E510001801300017F519B
:101540000001811300017C510001801300017D51D5
:101550000001811300017A510001801300017B51C9
:1015600000018113000178510001801300017951BD
:1015700000018113000176510001801300017751B1
:1015800000018113000174510001801300017551A5
:101590000001811300017251000180110001826F6E
:1015A00000017351000181110001836F86C084F036
:1015B0000001856B080E00016F2500016C6F000EA5
:1015C0000001702100016D6F010E00016E6F70EC63
:1015D000AFF00001726F736B0001D89072377337F0
:1015E0000001D890723773370001725100018413E3
:1015F0000001735100018513080E00016F250001E1
:101600006C6F000E0001702100016D6F020E000171
:101610006E6F70ECAFF00001726F736B0001723B84
:10162000733BF00E731772510F0B7313F00E72179A
:1016300000017251000184130001735100018513F0
:10164000080E00016F2500016C6F000E0001702173
:1016500000016D6F030E00016E6F70ECAFF00001C2
:10166000726F736B060ED890000172377337E82ED5
:10167000FAD7000172510001841300017351000177
:101680008513080E00016F2500016C6F000E00012C
:10169000702100016D6F040E00016E6F70ECAFF0F1
:1016A0000001726F000172510001746F736B0001D1
:1016B0007351000184130001745100018513080E59
:1016C00000016F2500016C6F000E00017021000108
:1016D0006D6F050E00016E6F70ECAFF00001726F60
:1016E000736B0A0ED890000172377337E82EFAD761
:1016F0000001725100018413000173510001851330
:10170000080E00016F2500016C6F000E00017021B2
:1017100000016D6F060E00016E6F70ECAFF00001FE
:10172000726F736B0C0ED890000172377337E82E0E
:10173000FAD70001725100018413000173510001B6
:101740008513080E00016F2500016C6F000E00016B
:10175000702100016D6F070E00016E6F70ECAFF02D
:101760000001726F736B0E0ED890000172377337E1
:10177000E82EFAD700017251000184130001735161
:1017800000018513000184510001821948E1000124
:10179000855100018319D8A4120032D0000120EE37
:1017A00002F06F51D9267051DA22DECF60F0DDCF22
:1017B00061F071C062F0CFECB2F012000001711F55
:1017C000000120EE02F06F51D9267051DA22DECFEF
:1017D00060F0DDCF61F071C062F0CFECB2F01200CA
:1017E000000120EE04F06F51D9267051DA22DECFCD
:1017F00060F0DDCF61F071C062F0CFECB2F01200AA
:1018000000018651000AD8B41200010AD8B4C6D724
:10181000030AD8B4D3D7010AD8A41200E1D7120022
:101820000001606F7ED03F0E1200060E12005B0EAC
:1018300012004F0E1200660E12006D0E12007D0E89
:101840001200070E12007F0E12006F0E12005F0EC4
:1018500012007C0E1200580E12005E0E12007B0E5B
:101860001200710E12006F0E1200740E1200040EA0
:1018700012000E0E12007A0E1200060E1200140E46
:101880001200540E12005C0E1200730E1200670E4E
:101890001200500E12006D0E1200780E12001C0E77
:1018A0001200620E12002A0E1200640E12006E0E5A
:1018B00012005B0E1200770E12007F0E1200390E1E
:1018C00012003F0E1200790E1200710E12003D0E32
:1018D0001200760E1200060E12001E0E1200570E97
:1018E0001200380E1200760E1200760E12003F0E15
:1018F0001200730E12003F0E1200770E12006D0ED2
:101900001200310E12003E0E12003E0E12007E0E2C
:101910001200760E1200660E12005B0E1200800E90
:101920001200000160512E0AD8B4F9D71E0AD8B4AB
:101930007AD7010AD8B479D7030AD8B478D7010A7C
:10194000D8B477D7070AD8B476D7010AD8B475D7F0
:10195000030AD8B474D7010AD8B473D70F0AD8B41D
:1019600072D7010AD8B471D7780AD8B4A4D7030AB9
:10197000D8B4A3D7010AD8B4A2D7070AD8B4A1D73C
:10198000010AD8B4A0D7030AD8B49FD7010AD8B4A3
:101990009ED70F0AD8B49DD7010AD8B49CD7030AA2
:1019A000D8B49BD7010AD8B49AD7070AD8B499D724
:1019B000010AD8B498D7030AD8B497D7010AD8B483
:1019C00096D71F0AD8B495D7010AD8B494D7030A7A
:1019D000D8B493D7010AD8B492D7070AD8B491D70C
:1019E000010AD8B490D7030AD8B48FD7010AD8B463
:1019F0008ED70F0AD8B48DD7010AD8B48CD7030A72
:101A0000D8B48BD73B0AD8B422D7030AD8B421D78D
:101A1000010AD8B420D7070AD8B41FD7010AD8B40E
:101A20001ED7030AD8B41DD7010AD8B41CD70F0A91
:101A3000D8B41BD7010AD8B41AD7030AD8B419D717
:101A4000010AD8B418D7070AD8B417D7010AD8B4EE
:101A500016D7030AD8B415D7010AD8B414D71F0A69
:101A6000D8B413D7010AD8B412D7030AD8B411D7FF
:101A7000010AD8B410D7070AD8B40FD7010AD8B4CE
:101A80000ED7030AD8B40DD7010AD8B40CD70F0A61
:101A9000D8B40BD7010AD8B40AD7030AD8B409D7E7
:101AA000000E1200050E00019A6FC7D0000120EE53
:101AB00002F09651D9269751DA22DECF6BF0DDCFB6
:101AC0006CF098C06DF00F0E00016E6F4EECB1F02F
:101AD000000120EE04F09651D9269751DA22DECF8C
:101AE0006BF0DDCF6CF098C06DF0000E00016E6FF2
:101AF0004EECB1F0B0D096C08FF097C090F098C087
:101B000091F0030E0001926F4FECACF000019A6F60
:101B100000019A51D8A41200000120EE02F0965163
:101B2000D9269751DA22DECF6BF0DDCF6CF098C06A
:101B30006DF0000E00016E6F4EECB1F0000120EE72
:101B400004F09651D9269751DA22DECF6BF0DDCF23
:101B50006CF098C06DF0000E00016E6F4EECB1F0AD
:101B60007AD096C08FF097C090F098C091F0030E95
:101B70000001926F4FECACF000019A6F00019A5196
:101B8000D8A41200000120EE02F09651D9269751F8
:101B9000DA22DECF6BF0DDCF6CF098C06DF00F0E67
:101BA00000016E6F4EECB1F0000120EE04F0965192
:101BB000D9269751DA22DECF6BF0DDCF6CF098C0DA
:101BC0006DF00F0E00016E6F4EECB1F044D096C078
:101BD0008FF097C090F098C091F0030E0001926FC3
:101BE0004FECACF000019A6F00019A51D8A412009A
:101BF000000120EE02F09651D9269751DA22DECF6D
:101C00006BF0DDCF6CF098C06DF0000E00016E6FD0
:101C10004EECB1F0000120EE04F09651D926975118
:101C2000DA22DECF6BF0DDCF6CF098C06DF0000EE5
:101C300000016E6F4EECB1F00ED000019951000A18
:101C4000D8B434D7010AD8B456D7030AD8B489D740
:101C5000010AD8B4BCD7080E0001962500016F6FA9
:101C6000000E000197210001706F00019851040DD2
:101C7000F3CF71F099C072F04AECAEF0080E00019B
:101C8000962500016F6F000E000197210001706F13
:101C900000019851040DF3280001716F99C072F092
:101CA0004AECAEF0080E0001962500016F6F000EA1
:101CB000000197210001706F00019851040DF3504D
:101CC000020F0001716F99C072F04AECAEF0080E7D
:101CD0000001962500016F6F000E000197210001A1
:101CE000706F00019851040DF350030F0001716FE4
:101CF00099C072F04AECAEF01200050E00019F6F21
:101D00007AD0000120EE02F09A51D9269B51DA22B6
:101D1000DECF9DF0DDCF9EF09DC0D9FF9EC0DAFFE3
:101D2000FF0E67D09AC096F09BC097F0010E00019D
:101D3000986F98ECADF000019F6F00019F51D8A4FF
:101D40001200000120EE02F09A51D9269B51DA22AE
:101D5000DECF9DF0DDCF9EF09DC0D9FF9EC0DAFFA3
:101D6000000EDF6E000120EE04F036D09AC096F02F
:101D70009BC097F0020E0001986F98ECADF0000147
:101D80009F6F00019F51D8A41200000120EE02F0C5
:101D90009A51D9269B51DA22DECF9DF0DDCF9EF0FD
:101DA0009DC0D9FF9EC0DAFFFF0EDF6E000120EE5E
:101DB00004F0AAD79AC096F09BC097F0000E0001DD
:101DC000986F98ECADF000019F6F00019F51D8A46F
:101DD0001200000120EE02F09A51D9269B51DA221E
:101DE000DECF9DF0DDCF9EF09DC0D9FF9EC0DAFF13
:101DF000000EDF6E0ED000019C51000AD8B481D7CE
:101E0000010AD8B48FD7030AD8B4B0D7010AD8B41E
:101E1000D1D7080E00019A2500016F6F000E000156
:101E20009B210001706F000E0001716F9CC072F069
:101E30004AECAEF0080E00019A2500016F6F000E0B
:101E400000019B210001706F010E0001716F9CC0A9
:101E500072F04AECAEF0080E00019A2500016F6F97
:101E6000000E00019B210001706F020E0001716FD6
:101E70009CC072F04AECAEF0080E00019A250001F9
:101E80006F6F000E00019B210001706F030E0001B7
:101E9000716F9CC072F04AECAEF0080E00019A25FA
:101EA00000016F6F000E00019B210001706F040E96
:101EB0000001716F9CC072F04AECAEF0080E000198
:101EC0009A2500016F6F000E00019B210001706FC9
:101ED000050E0001716F9CC072F04AECAEF0080E66
:101EE00000019A2500016F6F000E00019B21000187
:101EF000706F060E0001716F9CC072F04AECAEF07C
:101F0000080E00019A2500016F6F000E00019B2151
:101F10000001706F070E0001716F9CC072F04AECF7
:101F2000AEF012000001FF51D8B41200E4C386F0F5
:101F3000E5C387F0E6C388F0E7C389F00001E95103
:101F4000D8B405D0E7C085F00F0E0001E76F000E92
:101F500000018B6FDFD000018B51020D000EF324C6
:101F6000D96E040EF420DA6EDECFFDF0DDCFFEF088
:101F7000000E00018A6F130E00018A6501D0BED0E9
:101F800000018B51140DC80E0001836F040E000177
:101F9000846FF35000018327F45000018423000173
:101FA0008A51010DF35000018325D96EF4500001D0
:101FB0008421DA6EDFAE9AD000018B51140DC80E69
:101FC0000001836F040E0001846FF350000183272A
:101FD000F4500001842300018A51010DF3500001E7
:101FE0008325D96EF45000018421DA6E7F0EDF164E
:101FF00000018B51140DC80E0001836F040E000107
:10200000846FF35000018327F45000018423000102
:102010008A51010DF35000018325D96EF45000015F
:102020008421DA6EDF50D8B44AD0DCC069F0DDC05C
:102030006AF086C06BF087C06CF088C06DF089C014
:102040006EF0ECC36FF0EDC370F0EEC371F0EFC350
:1020500072F0FCECA8F000018B51140DC80E0001C9
:10206000836F040E0001846FF35000018327F45046
:102070000001842300018A51010DF35000018325E2
:10208000D96EF45000018421DA6EDF50F1EC9EF03D
:1020900065C072F066C073F086C074F087C075F0DA
:1020A00088C076F089C077F0ECC378F0EDC379F0A2
:1020B000EEC37AF0EFC37BF0EBECA4F017D0000E88
:1020C00000016A6F000E696F86C06BF087C06CF00C
:1020D00088C06DF089C06EF0ECC36FF0EDC370F096
:1020E000EEC371F0EFC372F0FCECA8F0060E000135
:1020F0008627000E872300018A2B3DD7080E00019A
:102100008827000E8923000E0001876F060E866F58
:1021100000018B2B00018B510001E75DD8B01BD76C
:102120000001E951D8B41200000E0001E96F85C02A
:10213000E7F01200500E00019B6F030E00019C6F30
:10214000000E00019E6F020E9D6F3C0E00019F6FFE
:10215000660E0001A06F010E0001A16F860E000146
:10216000A26F640E0001A36F010E0001A46F040EA4
:102170000001A56F140E0001A66F000E0001A76FED
:1021800087EC9EF0320E00019B6F030E00019C6FE6
:10219000000E00019E6F020E9D6F3C0E00019F6FAE
:1021A000660E0001A06F010E0001A16FE60E000196
:1021B000A26F640E0001A36F010E0001A46F040E54
:1021C0000001A56F140E0001A66F000E0001A76F9D
:1021D00087EC9EF0280E00019B6F030E00019C6FA0
:1021E000000E00019E6F020E9D6F3C0E00019F6F5E
:1021F000660E0001A06F010E0001A16FCE0E00015E
:10220000A26F640E0001A36F010E0001A46F040E03
:102210000001A56F140E0001A66F000E0001A76F4C
:1022200087EC9EF03C0E00019B6F030E00019C6F3B
:10223000000E00019E6F020E9D6F3C0E00019F6F0D
:10224000660E0001A06F010E0001A16FB60E000125
:10225000A26F640E0001A36F010E0001A46F040EB3
:102260000001A56F140E0001A66F000E0001A76FFC
:1022700087EC9EF0460E00019B6F030E00019C6FE1
:10228000000E00019E6F020E9D6F3C0E00019F6FBD
:10229000660E0001A06F010E0001A16F9E0E0001ED
:1022A000A26F640E0001A36F010E0001A46F040E63
:1022B0000001A56F140E0001A66F000E0001A76FAC
:1022C00087EC9EF0A00E00018D6F860E8E6F010EC2
:1022D0008F6F000E906F000E0001916F020E0001D3
:1022E000926F53EC82F05A0E00016F6F030E0001E3
:1022F000706F70ECA9F0000E0001A96F000EA86FBE
:102300000001A95113E1080E0001A85DD8B0120028
:10231000200E0001A825D96E030E0001A921DA6E56
:10232000000EDF6E0001A84BA92BEAD712000001B6
:10233000686F000168510001D8B41ED0000163AF7E
:102340001BD060C064F061C065F062C066F063C01D
:1023500067F00001641F651F661F671F642B000E76
:1023600065236623672364C06AF065C06BF066C0AE
:102370006CF067C06DF008D060C06AF061C06BF0AF
:1023800062C06CF063C06DF000016051000161112A
:102390000001621100016311D8A40AD0000E0001EF
:1023A000606F000E616F000E626F000E636F1200AF
:1023B000960E0001696F08D00001692B0001D890CA
:1023C0006D336C336B336A33000E00016A15000104
:1023D000646F000E00016B150001656F000E0001B7
:1023E0006C150001666FFE0E00016D150001676F30
:1023F00000016451000165110001661100016711BF
:10240000D8B410D0D9D70001692B010E00016A277A
:10241000000E6B236C236D230001D8906D336C3359
:102420006B336A33000E00016A150001646F000E01
:1024300000016B150001656F000E00016C150001B5
:10244000666FFF0E00016D150001676F000164519A
:10245000000165110001661100016711D8B409D0AF
:10246000D2D7000169070001D8906A376B376C3703
:102470006D3700016CBF04D0020E00016961F1D715
:10248000000169B109D0FF0E00016A17FF0E6B173A
:102490007F0E6C17FF0E6D170001D890693369C06D
:1024A00064F00001656B666B676B64C067F00001E8
:1024B000666B656B646B0001645100016A13000177
:1024C000655100016B130001665100016C1300019E
:1024D000675100016D13000168510001D8B405D0A7
:1024E000000163AF02D000016D8F6AC060F06BC065
:1024F00061F06CC062F06DC063F01200770E0001F5
:10250000806F000E0001816FC9D0250E0001841973
:10251000D8B405D000018451BAECB2F0BFD0000E9F
:1025200000017F6F14D080C0D9FF81C0DAFFDF5077
:102530000001846F020E00018027000E812300013C
:102540008451BAECB2F0AAD000017F8D1ED075C0C4
:10255000F6FF76C0F7FF0001754B762B000EF86E84
:102560000800F5CF84F000018451000AD8B41200AD
:10257000630AD8B4D8D7070AD8B407D00D0AD8B49C
:1025800004D01C0AD8B4E0D7DAD700017FBD19D037
:1025900080C0D9FF81C0DAFFDECF82F0DDCF83F0CB
:1025A000020E00018027000E8123000183AF16D0A8
:1025B000030E00017F130001826D831FD8B0832BAF
:1025C0000DD080C0D9FF81C0DAFFDECF82F0DDCF31
:1025D00083F0020E00018027000E8123010E00010E
:1025E000846F050E00018419D8B419D000018451FC
:1025F000020D6B0EF324F66EFD0EF420F76EF86AF2
:10260000000EF8220900F5500001825D0900F55026
:1026100000018359D8A003D00001842BE2D77FC0EA
:102620007DF0030E00017D17D8B403D02D0EBAEC57
:10263000B2F084C07EF02CD000017E51020D6B0EF2
:10264000F324F66EFD0EF420F76EF86A000EF82201
:102650000900F5CF62F00A00F5CF63F082C060F0A8
:1026600083C061F085ECA8F060C067F061C068F0DD
:10267000000E00016A6F0A0E696FF0ECABF000010A
:102680006751300F0001846F00018451BAECB2F041
:1026900000017E0700017E29D8A4CED775C0F6FFC1
:1026A00076C0F7FF0001754B762B000EF86E080020
:1026B000F5CF84F000018451D8B4120026D786C02B
:1026C000D9FF87C0DAFFDECF8BF0DDCF8CF0050EAF
:1026D00000018A6FB5D0000120EE02F08651D926A4
:1026E0008751DA22DECF60F0DDCF61F088C062F082
:1026F000010E0001636F8DECABF0B0D08BC06FF0BA
:102700008CC070F0010E0001716F88C072F00AEC8D
:10271000A8F000018A6F00018A51D8A412000001BC
:1027200020EE02F08651D9268751DA22DECF60F002
:10273000DDCF61F088C062F0000E0001636F8DECA8
:10274000ABF0000120EE04F08651D9268751DA2241
:10275000DECF60F0DDCF61F088C062F0000E0001D6
:10276000636F8DECABF07AD08BC06FF08CC070F0E3
:10277000020E0001716F88C072F00AECA8F000012F
:102780008A6F00018A51D8A41200000120EE02F0E5
:102790008651D9268751DA22DECF60F0DDCF61F095
:1027A00088C062F0010E0001636F8DECABF0000198
:1027B00020EE04F08651D9268751DA22DECF60F070
:1027C000DDCF61F088C062F0010E0001636F8DEC17
:1027D000ABF044D08BC06FF08CC070F0000E0001E5
:1027E000716F88C072F00AECA8F000018A6F0001D6
:1027F0008A51D8A41200000120EE02F08651D92699
:102800008751DA22DECF60F0DDCF61F088C062F060
:10281000000E0001636F8DECABF0000120EE04F0C0
:102820008651D9268751DA22DECF60F0DDCF61F004
:1028300088C062F0000E0001636F8DECABF00ED02B
:1028400000018951000AD8B446D7010AD8B456D736
:10285000030AD8B489D7010AD8B4BCD7080E00013E
:10286000862500016F6F000E000187210001706F47
:1028700088C071F089C072F04AECAEF0120000011D
:10288000736FB1D03DECA5F0120021ECACF012005A
:1028900070ECA6F01200BBEC9FF012005AECABF00B
:1028A00012006FECB1F0120073C070F07F0E0001E7
:1028B00070170001E751140DC80E0001716F040E6E
:1028C0000001726FF35000017127F4500001722370
:1028D0000001E851010DF35000017125D96EF4504B
:1028E00000017221DA6EDF507F0B00017019D8B43D
:1028F0002ED0010E0001FF6F0001E751140DC80E2C
:102900000001706F040E0001716FF3500001702719
:10291000F450000171230001E851010DF350000152
:102920007025D96EF45000017121DA6E00017351E7
:102930008009DF6E0001E751020D000EF324D96E0D
:10294000040EF420DA6EFDC0DEFFFEC0DDFF5AEC9F
:10295000ABF00009D8B4120073C070F07F0E000114
:1029600070170001E751140DC80E0001716F040EBD
:102970000001726FF35000017127F45000017223BF
:102980000001E851010DF35000017125D96EF4509A
:1029900000017221DA6EDF507F0B00017019D8B48C
:1029A0001200010E0001FF6F0001E751140DC80E67
:1029B0000001706F040E0001716FF3500001702769
:1029C000F450000171230001E851010DF3500001A2
:1029D0007025D96EF45000017121DA6E0001735137
:1029E0008009DF6E120000017351070AD8B456D770
:1029F0000F0AD8B44AD7010AD8B44DD7030AD8B4BD
:102A000041D7060AD8B444D7010AD8B43BD72D0A17
:102A1000D8B44AD7030AD8B444D746D70001A25144
:102A200045ECA4F0A0C0D9FFA1C0DAFF000160C04E
:102A3000DEFF000161C0DDFF0001A25198ECA4F0AF
:102A4000000120EE06F0A051D926A151DA220001A2
:102A500060C0DEFF000161C0DDFF0001A25198EC03
:102A6000A4F0000120EE04F0A051D926A151DA22F1
:102A7000000160C0DEFF000161C0DDFF0001A25166
:102A8000F2ECA3F0000120EE02F0A051D926A151F2
:102A9000DA22000160C0DEFF000161C0DDFF00013D
:102AA00020EE04F0A051D926A151DA22DECFA3F006
:102AB000DDCFA4F0A3C0D9FFA4C0DAFF000EDF6E03
:102AC000000120EE02F0A051D926A151DA22DECF7A
:102AD000A3F0DDCFA4F0A3C0D9FFA4C0DAFFFF0E9E
:102AE000DF6EA0C09AF0A1C09BF0000E00019C6FA9
:102AF0007DEC8EF0000E0001A56F070E0001A565AC
:102B000031D04BD0A0C086F0A1C087F0A5C088F01E
:102B1000030E0001896F5FEC93F03CD0A0C086F0FB
:102B2000A1C087F0A5C088F0020E0001896F5FEC9C
:102B300093F030D0A0C086F0A1C087F0A5C088F087
:102B4000010E0001896F5FEC93F024D0A0C086F0E5
:102B5000A1C087F0A5C088F0000E0001896F5FEC6E
:102B600093F018D0A0C0D9FFA1C0DAFFDECF6CF07F
:102B7000DDCF6DF0A5C06EF070ECAFF0000AD8B4F8
:102B8000C1D7010AD8B4D6D7030AD8B4C7D7010A27
:102B9000D8B4DCD70001A52BB0D7A0C06FF0A1C07E
:102BA00070F0000E0001716F33EC8AF0120000012A
:102BB000786F000E0001776F000E00017B6F660ECC
:102BC0000001756F000E0001766F950EC8ECB2F033
:102BD00000017851C8ECB2F0000E00017C6F23D0E8
:102BE00075C0D9FF76C0DAFFDF500001796F020EA1
:102BF00000017527000E76230001795127ECABF018
:102C00000001772700017C51010D000EF324D96EDD
:102C1000020EF420DA6E79C0DFFF00017951C8ECB2
:102C2000B2F000017C2B0001785100017C5DD8A03E
:102C3000D7D7000E00017C6F0ED000017C51010D32
:102C4000000EF324D96E010EF420DA6E0BECB3F013
:102C5000DF6E00017C2B0001775100017C5DD8A064
:102C6000ECD7000E00017C6F5ED07BC07AF021D0E3
:102C700000017A51010D000EF324D96E010EF420EB
:102C8000DA6EDF500001616F00017B510008000126
:102C90007A250001626F00017C51010D000EF324C2
:102CA000D96E020EF420DA6EDF505CEC9CF000016D
:102CB0007A2B00017C51010D000EF324D96E020E17
:102CC000F420DA6EDF5027ECABF00001706F716B0F
:102CD00000017B5100017027000E712300017A5121
:102CE0000001726F736B000170510001725D000191
:102CF0007351800A0001746F00017151800A000154
:102D00007459D8A0B5D700017C51010D000EF324F1
:102D1000D96E020EF420DA6EDF5027ECABF0000122
:102D20007B2700017C2B0001785100017C5DD8B02D
:102D300012009BD7010E4B6E000E0001BC6F000EFF
:102D40000001BD6F000E0001BE6FAC0E0001A06F50
:102D5000030E0001A16F000E0001A26F0EEC95F0B2
:102D6000A20E0001A06F030E0001A16F010E000171
:102D7000A26F0EEC95F0EA0E0001A06F000E0001AC
:102D8000A16F020E0001A26F0EEC95F0980E0001EB
:102D9000A06F030E0001A16F030E0001A26F0EECE5
:102DA00095F08E0E0001A06F030E0001A16F040EBE
:102DB0000001A26F0EEC95F0B60E0001A06F030E9D
:102DC0000001A16F050E0001A26F0EEC95F0840EBC
:102DD0000001A06F030E0001A16F060E0001A26F9B
:102DE0000EEC95F0B60E0001866F030E0001876FA2
:102DF000050E0001886F000E0001896F5FEC93F0F3
:102E0000A20E0001966F030E0001976F000E0001E5
:102E1000986F000E0001996F52EC8DF0B60E000114
:102E2000866F030E0001876F060E0001886F030E88
:102E30000001896F5FEC93F0840E00019A6F030E1E
:102E400000019B6F030E00019C6F7DEC8EF0840EE1
:102E500000016F6F030E0001706F040E0001716FAF
:102E6000000E0001726F59EC9FF0B60E00016F6FFB
:102E7000030E0001706F060E0001716F010E00015C
:102E8000726F59EC9FF0000EBFECABF0010EBFEC7F
:102E9000ABF0000E9E6E000EA16E000EA46E9B8E17
:102EA0009B8C000E0001616F640E606FBDECAAF098
:102EB000D08E1200E4ECA9F0000E0001986F000E15
:102EC000976F0001985106E1590E0001975DD8B047
:102ED0008BD001D089D0D89000019735F66E0001D3
:102EE0009835F76E990EF626FC0EF722F86A000E5A
:102EF000F8220900800EF5180900F510D8A422D098
:102F0000000198511FE1580E0001975DD8B01AD00A
:102F10000001974B982BD89000019735F66E000171
:102F20009835F76E990EF626FC0EF722F86A000E19
:102F3000F8220900F5CF60F00A00F5CF61F0BDEC92
:102F4000AAF04BD0D89000019735F66E0001983565
:102F5000F76E990EF626FC0EF722F86A000EF8229C
:102F60000900000EF55E0900010EF55AD8A020D028
:102F7000000E0001636FD89000019735F66E0001D6
:102F80009835F76E990EF626FC0EF722F86A000EB9
:102F9000F8220900F5CF95F00900F5CF96F096C01C
:102FA00095F00001966B000195512CECB1F015D015
:102FB000010E0001636FD89000019735F66E000195
:102FC0009835F76E990EF626FC0EF722F86A000E79
:102FD000F8220800F5502CECB1F00001974B982B2B
:102FE0000001985101E170D7000E0001616F640E7D
:102FF000606FBDECAAF0000E0001636F290E2CEC8F
:10300000B1F0010EDCECA5F0000E0001616F640E62
:10301000606FBDECAAF0000E00016A6F000E696FD0
:10302000A8ECACF01200000120EE07F07B51D9268D
:103030007C51DA2201D80AD00500FA6EDE50FD6E0E
:10304000DE50FE6EDE50FF6EFA5012000001836FFC
:103050007BC0D9FF7CC0DAFF00018351DE18D8A401
:1030600021D0000120EE01F07B51D9267C51DA22DB
:1030700000017D51DE5CD8B00AD0000120EE01F0E5
:103080007B51D9267C51DA22000EDF6E120000013E
:1030900020EE01F07B51D9267C51DA2200017D51CE
:1030A000DF5E1200000120EE01F07B51D9267C5139
:1030B000DA22DF5000017E6F7F6B00017D5100013D
:1030C0007E27000E7F23000120EE01F07B51D926E0
:1030D0007C51DA22DF500001806F816B00017E514C
:1030E0000001805D00018151800A0001826F0001B2
:1030F0007F51800A00018259D8B01200000120EEF1
:1031000001F07B51D9267C51DA2200017D51DF2666
:10311000000120EE02F07B51D9267C51DA22000119
:1031200010EE01F07B51E1267C51E222E7500001D4
:10313000806F816BDE500001805DDE50000181599F
:10314000D8A012007BC0D9FF7CC0DAFF83C0DFFFAC
:10315000000120EE01F07B51D9267C51DA22000ECD
:10316000DF6E000120EE04F07B51D9267C51DA227B
:1031700001D812000500FA6EDE50FD6EDE50FE6EC4
:10318000DE50FF6EFA50000183511200800E0001E4
:10319000736F8D0E746F5B0E756F000E766FD59E1C
:1031A00000016D5100016E1100016F1100017011DD
:1031B000D8B41200D596D59CD59AD59873C060F036
:1031C00074C061F075C062F076C063F06DC064F0E9
:1031D0006EC065F06FC066F070C067F0DBECA0F009
:1031E00060C077F061C078F062C079F063C07AF0B7
:1031F0000CD00001E62B020E0001E66501D02FD0B5
:10320000070E0001E66501D0120077C060F078C0BB
:1032100061F079C062F07AC063F00001E651020DFE
:103220004B0EF324F66EFD0EF420F76EF86A000ED6
:10323000F8220900F5CF71F00900F5CF72F071C0E6
:1032400064F072C065F00001666B676BDBECA0F0A8
:1032500000016351CEE100016205D8B0CAD7000178
:10326000E651020D4B0EF324F66EFD0EF420F76EC0
:10327000F86A000EF8220800F5CFE5F0FF0E000115
:1032800077250301106FFF0E000178210301116FF4
:10329000FF0E000179210301126FFF0E00017A2158
:1032A0000301136F10C360F011C361F012C362F029
:1032B00013C363F00001E5510001646F656B666B39
:1032C000676BDBECA0F00001601F0001611F0001D3
:1032D000604B612BFF0E00016025296EFF0E00017F
:1032E00061212A6EEAECB2F0D58E1200000E0001C8
:1032F000766F6C0E776FDC0E786F020E796F0001BF
:10330000D8906D376E376F377037020E0001716FCE
:10331000D890000179337833773376330001712FF9
:10332000F7D776C060F077C061F078C062F079C0FE
:1033300063F06DC064F06EC065F06FC066F070C081
:1033400067F0DBECA0F060C07AF061C07BF062C097
:103350007CF063C07DF010D0000E0001726F000E93
:10336000736F000E746F000E756F0001E42B020E78
:103370000001E46501D026D07AC060F07BC061F026
:103380007CC062F07DC063F00001E451010D820E4B
:10339000F324F66EFD0EF420F76EF86A000EF822A4
:1033A0000800F5500001646F656B666B676BDBECC2
:1033B000A0F00001635100016211CEE1000161053E
:1033C000D8B0CAD7CA500001E419FC0BE419CA6E80
:1033D000CA840FECB3F00001E451010D820EF32416
:1033E000F66EFD0EF420F76EF86A000EF822080063
:1033F000F5CFE3F0FF0E00017A2503010C6FFF0EFD
:1034000000017B2103010D6FFF0E00017C210301F0
:103410000E6FFF0E00017D2103010F6F0CC360F0E2
:103420000DC361F00EC362F00FC363F00001E351FE
:103430000001646F656B666B676BDBECA0F00001ED
:1034400060510001E46FE4C0CBFF1200ADECAFF0BF
:103450009FECB2F0A8ECB2F00001D0510001CC27F3
:103460000001D1510001CD230001E051D8A404D0C6
:103470000001E151D8B406D0000E8BECB2F0000E82
:1034800027ECAEF00001CDBF0BD00001CD5105E11E
:103490005B0E0001CC5DD8A003D0000E27ECAEF08F
:1034A000AAECA9F0010EB2ECAEF00009D8B41200FB
:1034B000FB0E0001756FFF0E0001766F000E00011C
:1034C000786F230E776F7EEC92F0730E0001756FAC
:1034D000FF0E0001766FCEC077F0CFC078F0E0C06D
:1034E00079F000017A6BE1C07BF000017C6B7EEC2F
:1034F00092F092EC8FF0000E00018D6F000E8C6F39
:10350000000E00017A6FC80E796F2BECB2F025D057
:103510009FECB2F00001D25100018C270001D35181
:1035200000018D23FB0E0001756FFF0E0001766F09
:10353000000E0001786F230E776F7EEC92F0ED0E97
:103540000001756FFF0E0001766F8CC077F08DC0A3
:1035500078F07EEC92F092EC8FF000018DBFD8D71E
:10356000880E00018C5D130E00018D59D8A0D0D7B4
:10357000000E27ECAEF0F5ECB1F00009D8B4120063
:1035800032ECAFF0120051B2DCEF9BF0000120EE04
:1035900004F0D851D926D951DA22DF50B2ECAEF07E
:1035A0000009D8B47AD0D8C0D9FFD9C0DAFFDE502C
:1035B000DE10D8B46DD0D8C0D9FFD9C0DAFF010E63
:1035C000DBBE26D0010EDB5003E1DE04D8A020D004
:1035D000D8C0D9FFD9C0DAFFDE2804E17F0EDE189B
:1035E000D8B407D0D8C0D9FFD9C0DAFFDE06000EA4
:1035F000DD5A8E0E00016F6F030E0001706F000E1A
:103600000001716F010E0001726F59EC9FF01FD025
:10361000D8C0D9FFD9C0DAFFDE0404E1800EDE187D
:10362000D8B407D0D8C0D9FFD9C0DAFFDE2A000E3F
:10363000DD228E0E00016F6F030E0001706F000E11
:103640000001716F000E0001726F59EC9FF08E0E39
:1036500000016F6F030E0001706F010E0001716FAA
:10366000010E0001726F59EC9FF08E0E00016F6F1A
:10367000030E0001706F010E0001716F000E00015A
:10368000726F59EC9FF0F5ECB1F0F0ECB2F0120073
:10369000F5ECB1F01BECB3F01200BFC060F0C0C09D
:1036A00061F0C1C062F0D6ECB2F012000001B43596
:1036B000B5350001B76F0001B751D8A40AD0000E8C
:1036C0000001B26F000EB36F000EB46F000EB56F45
:1036D0001200B2C000F1B3C001F1B4C002F1B5C034
:1036E00003F1200E06D00101D890033302330133D9
:1036F0000033E82EF8D7010100510001B66F000138
:10370000B48FFF0E0001B217FF0EB317FF0EB417F0
:10371000000EB517960E0001B75F0001B7AF1AD0C3
:103720000001B751800A970FD8B00AD0000E0001EF
:10373000B26F000EB36F000EB46F000EB56F1200C3
:103740000001D890B533B433B333B2330001B73F7F
:10375000F7D71BD01F0E0001B76512D0000E000175
:10376000B26F000EB36F000EB46F000EB56F120093
:103770000001D890B237B337B437B5370001B70777
:103780000001B7510001D8A4F3D70001B6510001E0
:10379000D8B409D00001B51FB41FB31FB26D000E1D
:1037A000B323B423B523B2C0B2F0B3C0B3F0B4C0F6
:1037B000B4F0B5C0B5F01200000120EE04F0D8510D
:1037C000D926D951DA22DF5002ECB0F00009D8B482
:1037D0006AD0D8C0D9FFD9C0DAFFDE50DE10D8B425
:1037E0005DD0D8C0D9FFD9C0DAFF010EDBBE22D030
:1037F000010EDB5003E1DE04D8A01CD0D8C0D9FFF5
:10380000D9C0DAFFDE2804E17F0EDE18D8B407D075
:10381000D8C0D9FFD9C0DAFFDE06000EDD5A8E0E01
:10382000106E030E116E000E126E010E136E4AEC36
:10383000A3F01BD0D8C0D9FFD9C0DAFFDE0404E161
:10384000800EDE18D8B407D0D8C0D9FFD9C0DAFFAF
:10385000DE2A000EDD228E0E106E030E116E000E9B
:10386000126E000E136E4AECA3F08E0E106E030E55
:10387000116E010E126E010E136E4AECA3F08E0E45
:10388000106E030E116E010E126E000E136E4AECD6
:10389000A3F02AECB3F0F6ECB2F012002AECB3F08D
:1038A00027ECB3F01200BFC001F0C0C002F0C1C0ED
:1038B00003F0DDECB2F012000001656F57D061C07B
:1038C00036F0B7ECA6F0120061C035F0120061C00E
:1038D00034F0120061C033F0120061C032F0120007
:1038E00061C031F0120061C030F01200000162517D
:1038F0000001D8A405D061C008F30301096B1200D0
:1039000061C00AF303010B6B030108510001646FEE
:10391000636B03010A51000163250001D26F0301AB
:103920000B51000164210001D36F120000016251AC
:103930000001D8A405D061C004F30301056B120097
:1039400061C006F30301076B030104510001646FBA
:10395000636B03010651000163250001D06F030171
:103960000751000164210001D16F1200000165516F
:10397000070AD8B4A4D70F0AD8B4A6D7010AD8B476
:10398000A6D7030AD8B4A6D7010AD8B4A6D7070A7F
:10399000D8B4A6D7010AD8B4A6D71E0AD8B4A6D7D9
:1039A000070AD8A41200C2D79FECA3F01CECA0F029
:1039B00053D062EC84F0FAD726EC9AF0F7D711ECEA
:1039C000B2F0F4D76EEC86F0F1D7010EB2ECAEF0A7
:1039D0000009D8B4EBD7FB0E0001756FFF0E000194
:1039E000766F000E0001786F230E776F7EEC92F0F9
:1039F000D80E0001756FFF0E0001766F7EEC92F01D
:103A0000C30E0001756FFF0E0001766F7EEC92F021
:103A1000C30E0001756FFF0E0001766F7EEC92F011
:103A2000C30E0001756FFF0E0001766F7EEC92F001
:103A3000C30E0001756FFF0E0001766F7EEC92F0F1
:103A400092EC8FF0AAECA9F0F5ECB1F00009D8B433
:103A5000ADD732ECAFF0AAD7C8C0F8F3C9C0F9F3BC
:103A60000301F951000AD8A4B0D70301F851010AA3
:103A7000D8B49FD7030AD8B49FD7010AD8B49FD728
:103A8000070AD8B49FD7A1D7000E0001A66F000E79
:103A9000A76F800EA86F440EA96F330E0001AA6FA6
:103AA000330EAB6F530EAC6F400EAD6F000120EEC6
:103AB00001F0A051D926A151DA22DECFA4F0DDCF4A
:103AC000A5F0A4C060F0A5C061F00001626B636B5B
:103AD000000E97EC91F060C0AEF061C0AFF062C034
:103AE000B0F063C0B1F0AEC06EF0AFC06FF0B0C068
:103AF00070F0B1C071F0A6C072F0A7C073F0A8C09A
:103B000074F0A9C075F053EC88F06EC0AEF06FC0D1
:103B1000AFF070C0B0F071C0B1F0AEC087F0AFC010
:103B200088F0B0C089F0B1C08AF0AAC08BF0ABC0F9
:103B30008CF0ACC08DF0ADC08EF000EC80F087C092
:103B4000AEF088C0AFF089C0B0F08AC0B1F0AEC0AE
:103B5000A0F0AFC0A1F0B0C0A2F0B1C0A3F01200BD
:103B60006CC074F06DC075F0000E0001736F000E34
:103B7000726F6EC070F06FC071F00001745100017F
:103B80007511D8A434D070C0D9FF71C0DAFF300EDF
:103B9000DF6E000E0001736F010E726F40D074C0B3
:103BA00067F075C068F0000E00016A6F0A0E696F59
:103BB000F0ECABF000016751300F70C0D9FF71C05D
:103BC000DAFFDF6E74C060F075C061F0000E0001B6
:103BD000636F0A0E626F85ECA8F060C074F061C07C
:103BE00075F00001724B732B0001704B712B0001BB
:103BF000745100017511D8B408D00001735105E16A
:103C0000060E0001725DD8A0CAD76EC060F06FC00A
:103C100061F072C062F073C063F052ECAAF0000170
:103C2000725100016E25D96E0001735100016F21A0
:103C3000DA6E000EDF6E12008DC0D9FF8EC0DAFF83
:103C4000000EDE6E000EDD6E000120EE02F08D51E2
:103C5000D9268E51DA22000EDE6E000EDD6E0001D6
:103C600020EE04F08D51D9268E51DA228FC0DEFF6E
:103C700090C0DDFF8E0E0001866F030E0001876F7E
:103C8000000E0001886F030E0001896F5FEC93F056
:103C90008E0E0001866F030E0001876F010E00017A
:103CA000886F030E0001896F5FEC93F08E0E0001A8
:103CB0006F6F030E0001706F000E0001716F000E38
:103CC0000001726F59EC9FF08E0E00016F6F030EB2
:103CD0000001706F010E0001716F000E0001726F24
:103CE00059EC9FF0860E0001BF6F350E0001C06FCA
:103CF000010E0001C16FE80E00016D6F030E6E6FC3
:103D0000000E6F6F000E706FC6EC98F0120000018D
:103D10009B5100019C11D8B4120000019F51000179
:103D2000A0110001A111D8B412000001A25100019C
:103D3000A3110001A411D8B412000001A551000183
:103D4000A6110001A711D8B4120000019D51000175
:103D50009E11D8A405D0000E00019E6F010E9D6F2C
:103D60009BC0D9FF9CC0DAFF000EDF6E000120EE81
:103D700001F09B51D9269C51DA22000EDF6E000122
:103D800020EE02F09B51D9269C51DA229DC0DEFF25
:103D90009EC0DDFF000120EE04F09B51D9269C510E
:103DA000DA22A5C0DEFFA6C0DEFFA7C0DEFF00014D
:103DB00020EE07F09B51D9269C51DA22A2C0DEFFEB
:103DC000A3C0DEFFA4C0DEFF01D812000500FA6E1A
:103DD00000019F51FD6EA051FE6EA151FF6EFA5081
:103DE000120000016B6F200E00016B5F00016B5130
:103DF000050DF3CF69F0F4CF6AF0850E0001692557
:103E000000016C6FFD0E00016A2100016D6F000E54
:103E10000001706F040E0001706501D043D0000EE8
:103E20000001716F060E0001716501D035D06CC0C4
:103E300060F06DC061F071C062F01DECB0F000097F
:103E4000D8A405D0DCC06EF0DDC06FF004D0FDC09A
:103E50006EF0FEC06FF0000171510A0D820E00017C
:103E6000676F040E0001686FF35000016727F4507C
:103E70000001682300017051020DF3500001672515
:103E8000D96EF45000016821DA6E6EC0DEFF6FC09B
:103E9000DDFF0001712BC6D700016C4B6D2B0001BB
:103EA000702BB8D7820E0001656F040E0001666F9B
:103EB0001200080E00016F2500016C6F000E00015A
:103EC000702100016D6F71C06EF070ECAFF00001F9
:103ED000736F42D0010E00017217000120EE02F054
:103EE0006F51D9267051DA22DECF60F0DDCF61F05C
:103EF00071C062F072C063F08DECABF01200010E85
:103F000000017217010E0001721B000120EE02F089
:103F10006F51D9267051DA22DECF60F0DDCF61F02B
:103F200071C062F072C063F08DECABF01200010E54
:103F300000017217000120EE04F06F51D926705174
:103F4000DA22DECF60F0DDCF61F071C062F072C0C6
:103F500063F08DECABF0120000017351000AD8B48D
:103F60001200010AD8B4B6D7030AD8B4C8D7010AD8
:103F7000D8A41200DCD7000E00016E6FFA0E4724A1
:103F80000001606FFF0E48200001616F000E00010C
:103F9000636F060E626F7CECA0F0000160510001BF
:103FA0006F6F6FC060F00001616B000E0001636F06
:103FB000040E626F7CECA0F00001605100016D6F97
:103FC000000E00016E6F06D0D3ECAEF05AECABF0F1
:103FD00000016E2B00016D51040DF31EF41EF34A17
:103FE000F42A00016F510001686F696BF350000102
:103FF0006827F450000169230001681F691F684B9E
:10400000692B040E00016827000E692300016E5120
:1040100000016A6F6B6B0001685100016A5D00016D
:104020006B51800A00016C6F00016951800A000128
:104030006C59D8B01200C8D7AAECA9F0000E000144
:10404000C96F000EC86F23EE43F001D80AD00500F7
:10405000FA6EDE50FD6EDE50FE6EDE50FF6EFA50E0
:1040600012000009D8B405D0000E0001C96F010E7E
:10407000C86F23EE2FF001D80AD00500FA6EDE508B
:10408000FD6EDE50FE6EDE50FF6EFA50120000092B
:10409000D8B405D0000E0001C96F020EC86F23EE20
:1040A0004DF001D80AD00500FA6EDE50FD6EDE50EC
:1040B000FE6EDE50FF6EFA5012000009D8B405D033
:1040C000000E0001C96F030EC86F23EE39F001D84E
:1040D0000AD00500FA6EDE50FD6EDE50FE6EDE5038
:1040E000FF6EFA5012000009D8B41200000E000151
:1040F000C96F040EC86F1200000E0001656F000149
:1041000063AF08D00001626D631FD8B0632B010E4E
:104110000001656F000161AF08D00001606D611F93
:10412000D8B0612B010E0001651B000E0001676F06
:10413000000E666F0001625100016311D8B42CD0EB
:10414000010E0001646F06D00001D890623763371A
:104150000001642B000163AFF7D70001D8906637E8
:104160006737000162510001605D00016351000189
:104170006159D8A00AD0000162510001605F0001BE
:1041800063510001615B000166810001D8906333D7
:1041900062330001642FE1D7000165510001D8B4FA
:1041A00005D00001666D671FD8B0672B66C060F050
:1041B00067C061F01200000E0001686F000E696FA9
:1041C000000E6A6F000E6B6F0001645100016511F3
:1041D0000001661100016711D8B442D0010E000140
:1041E0006C6F08D00001D890643765376637673741
:1041F00000016C2B000167AFF5D70001D89068373C
:1042000069376A376B37000164510001605D000156
:1042100065510001615900016651000162590001B8
:10422000675100016359D8A012D000016451000108
:10423000605F000165510001615B00016651000192
:10424000625B000167510001635B0001688100014E
:10425000D890673366336533643300016C2FCDD754
:1042600068C060F069C061F06AC062F06BC063F062
:104270001200000E0001656F000E646F38D0200E32
:1042800000016425D96E030E00016521DA6E61C05C
:10429000E1FF62C0E2FFE75010EC8CF0DF6E200E11
:1042A00000016425D96E030E00016521DA6E800ECF
:1042B000DE18D8A40ED000016407D8A06507200E30
:1042C00000016425D96E030E00016521DA6E000E2F
:1042D000DB8E0001614B622B0001644B652B0001FA
:1042E00065511AE1060E0001645DD8B015D061C0B9
:1042F000D9FF62C0DAFFDF50D8B40ED0C0D7200E8D
:1043000000016425D96E030E00016521DA6E000EEE
:10431000DF6E0001644B652B0001655106E1060E5E
:104320000001645DD8B01200EAD7120000016451A8
:10433000010D750EF324F66EFD0EF420F76EF86A8B
:10434000000EF8220800F5CF6AF0000E0001696F38
:1043500006D0000162510001635F0001692B00017A
:1043600062510001635DD8B0F4D7000164510001CF
:104370006303F350636F000169510001632700017B
:104380006A510001651763C066F06AC067F00001FA
:10439000662B03D00001D89067370001662FFAD74B
:1043A00000016751FF0A0001686F60C0D9FF61C05A
:1043B000DAFF00016851DF1663C066F065C067F080
:1043C0000001662B03D00001D89067370001662FEB
:1043D000FAD760C0D9FF61C0DAFF00016751DF1270
:1043E00012000001786F70C060F071C061F090EC55
:1043F000AEF060C070F061C071F072C060F073C068
:1044000061F090ECAEF060C072F061C073F000013A
:1044100078510001D8B429D0000E0001616F890ED7
:10442000606F71C074F00001756B74BF7569000135
:1044300074510001626F636B000170510001646F81
:10444000656B73C076F00001776B76BF776900010A
:1044500076510001666F676B000172510001686F51
:10446000696B050E88ECAAF01200890EC8ECB2F058
:1044700000017151C8ECB2F000017051C8ECB2F00B
:1044800000017351C8ECB2F000017251C8ECB2F0F7
:104490001200C80EF66E650EF76E010EF86E03EE92
:1044A000E4F010EE0CF00900F5CFEEFFE550E1501E
:1044B000FAE12E0EF66E660EF76E010EF86E00EE45
:1044C000F9F010EE07F00900F5CFEEFFE550E150EE
:1044D000FAE1F80EF66E650EF76E010EF86E00EE5C
:1044E00047F010EE0AF00900F5CFEEFFE550E1507D
:1044F000FAE104EEC8F011EE2CF0EE6AE550E1505E
:10450000FCE1E250FAE104EE00F0C80EEE6AE806C3
:10451000FDE103EE00F0E40EEE6AE806FDE100EED8
:10452000B9F0400EEE6AE806FDE100EE29F01E0E3D
:10453000EE6AE806FDE1519051920001D4EF9CF043
:104540000001826F000E0001846F000E836F000176
:104550007EBF0DD000017E5104E100017D05D8A091
:1045600006D0000E00017E6F010E7D6F03D00001AA
:104570007D697E69000182510001D8B40CD07FC0F2
:1045800070F080C071F07DC072F07EC073F0010EDB
:10459000F1ECA1F012007FC070F080C071F07DC01E
:1045A00072F07EC073F0000EF1ECA1F00AD0A8EC1E
:1045B000B2F00001D051000183270001D151000168
:1045C000842300017D510001835D00018451800A34
:1045D0000001816F00017E51800A00018159D8A03D
:1045E000E6D7000E27ECAEF012000001686F020E55
:1045F00000016527020E00016727030E00016827EE
:10460000030E00016627000E0001636F2A0E2CECDA
:10461000B1F0010E0001636F000E2CECB1F0010E41
:104620000001636F000168512CECB1F0010E000134
:10463000636F000E2CECB1F0010E0001636F0001FE
:1046400066512CECB1F0000E0001636F2B0E2CECC8
:10465000B1F0010E0001636F000E2CECB1F0010E01
:104660000001636F000165512CECB1F0010E0001F7
:10467000636F000E2CECB1F0010E0001636F0001BE
:1046800067512CECB1F0000E0001636F2C0E2CEC86
:10469000B1F01200080E10240D6E000E11200E6EE7
:1046A00012C00FF080ECB0F0146E3BD0010E131668
:1046B00020EE02F01050D9261150DA22DECF01F0A0
:1046C000DDCF02F012C003F013C004F04DECADF0EA
:1046D0001200010E1316010E131A20EE02F01050F4
:1046E000D9261150DA22DECF01F0DDCF02F012C060
:1046F00003F013C004F04DECADF01200010E1316E0
:1047000020EE04F01050D9261150DA22DECF01F04D
:10471000DDCF02F012C003F013C004F04DECADF099
:1047200012001450000AD8B41200010AD8B4BED73F
:10473000030AD8B4CED7010AD8A41200DFD79AEC66
:1047400096F001ECB3F0010E51ECAFF00009D8B4D3
:104750000CD0FDECA6F09AEC90F05AEC97F0F5EC4A
:10476000B1F00009D8A432ECAFF0080E51ECAFF074
:104770000009D8B413D0C70E00018D6F030E0001DD
:104780008E6F000E0001906F080E8F6F1CEC9EF074
:10479000F5ECB1F00009D8A432ECAFF0F40E000152
:1047A000646F000E0001656F000E0001666F48EC3B
:1047B000A8F0F40E0001626F000E0001636F87EC39
:1047C000A7F07EECB1F0C1ECB2F00A0EE7ECB1F06C
:1047D0005FECB1F0000E0001616F140E606FBDEC74
:1047E000AAF012000001626F38D0920E0001606FD3
:1047F0000F0E0001616F1200930E0001606F0F0E2B
:104800000001616F1200940E0001606F0F0E000135
:10481000616F1200950E0001606F0F0E0001616F55
:104820001200960E0001606F0F0E0001616F120002
:10483000970E0001606F0F0E0001616F1200980E5D
:104840000001606F0F0E0001616F1200000E000189
:10485000606F000E0001616F120000016251000ADA
:10486000D8B4C3D7010AD8B4C7D7030AD8B4CBD7B2
:10487000010AD8B4CFD7070AD8B4D3D7010AD8B41D
:10488000D7D7030AD8B4DBD7E1D70001626F38D09D
:10489000710E0001606FFF0E0001616F12006F0E5C
:1048A0000001606FFF0E0001616F12006D0E0001CC
:1048B000606FFF0E0001616F12006B0E0001606FF0
:1048C000FF0E0001616F1200690E0001606FFF0EA4
:1048D0000001616F1200670E0001606FFF0E0001A2
:1048E000616F1200650E0001606FFF0E0001616FC5
