:0614000055EF0AF0120096
:101408005182FACF17F0FBCF18F0E9CF19F0EACFE5
:101418001AF0E1CF1BF0E2CF1CF0D9CF1DF0DACFE4
:101428001EF0F3CF1FF0F4CF20F0F6CF21F0F7CF66
:1014380022F0F8CF23F0F5CF24F051C025F052C0A8
:1014480026F053C027F054C028F0F292F2B4F2AA62
:1014580002D01EECB0F028C054F027C053F026C0CC
:1014680052F025C051F024C0F5FF23C0F8FF22C078
:10147800F7FF21C0F6FF20C0F4FF1FC0F3FF1EC016
:10148800DAFF1DC0D9FF1CC0E2FF1BC0E1FF1AC074
:10149800EAFF19C0E9FF18C0FBFF17C0FAFF519215
:0614A800110009EFA2F0A3
:10FC960000001180002C0100B10200350036000082
:10FCA600B202003500360000B3020035003600020D
:10FCB600003500360000B4000000C0A20002008437
:10FCC6000000C1C50000C20D00000000C38D002A5F
:10FCD6000000C48D00EE0000C50A000036C8000012
:10FCE600E012001C001000180033002C002500282C
:10FCF60000280027002F003C00000003000300102E
:10FD0600008000780000E112001C00100018002D91
:10FD160000280023002800280026002F003B0000B2
:10FD260000030003001000003A0500002A0000024C
:10FD36000000008100002B000003000000A200006C
:10FD460029002C020004000800100020004000805A
:10FD56000000010001020001000100020200000390
:10FD660003030001000A006400E8031027000103F2
:10FD7600070F1F3F7FFF0002010301041000000070
:10FD8600000000005F00000007000700147F147FDA
:10FD960014242A7F2A1223130864623649552250F6
:10FDA6000005030000001C2241000041221C00083F
:10FDB6002A1C2A0808083E080800503000000808D7
:10FDC600080808006060000020100804023E51493F
:10FDD600453E00427F400042615149462141454B24
:10FDE600311814127F1027454545393C4A49493098
:10FDF60001710905033649494936064949291E0054
:10FE0600363600000056360000000814224114144D
:10FE160014141441221408000201510906324979CA
:10FE2600413E7E1111117E7F494949363E4141418D
:10FE3600227F4141221C7F494949417F090901012D
:10FE46003E414151327F0808087F00417F41002032
:10FE560040413F017F081422417F404040407F02DD
:10FE660004027F7F0408107F3E4141413E7F09091D
:10FE760009063E4151215E7F0919294646494949ED
:10FE86003101017F01013F4040403F1F2040201FBC
:10FE96007F2018207F631408146303047804036129
:10FEA6005149454300007F41410204081020414169
:10FEB6007F0000040201020440404040400001026D
:10FEC600040020545454787F484444383844444409
:10FED60020384444487F3854545418087E09010297
:10FEE600081454543C7F0804047800447D400020E4
:10FEF60040443D00007F10284400417F40007C04C0
:10FF06001804787C0804047838444444387C141473
:10FF16001408081414187C7C080404084854545423
:10FF260020043F4440203C4040207C1C2040201CB4
:10FF36003C4030403C44281028440C5050503C442F
:10FF460064544C44000836410000007F0000004124
:10FF560036080008082A1C08081C2A080800FCFFA6
:10FF66000F0000FFFFF0FF00FFFF00546F74616C8D
:10FF76002044697374616E63653A25750A4C65663B
:10FF8600742042756D703A25750A52696768742047
:10FF960042756D703A25750A436C6F7365737420EC
:10FFA60057616C6C3A25750A436C6F7365737420E0
:10FFB600416E676C653A25750A00546F74616C2052
:10FFC60044697374616E63653A25750A4C65667497
:10FFD6002042756D703A25750A5269676874204229
:10FFE600756D703A25750A0044697374616E6365B0
:0AFFF6003A2025640A00256300008C
:020000040001F9
:1000000000018A51800B0001936F00018A518A25FB
:100010000001996F000189AF02D0000199810001B0
:1000200099510001D8B410D000019929D8A409D061
:10003000000E0001876F000E886F000E896F000EA2
:100040008A6F0001898F09D0000E0001876F000EB2
:10005000886F000E896F000E8A6F00018E51800B31
:100060000001931B00018E518E250001946F000149
:100070008DAF02D000019481000194510001D8B4E9
:1000800010D000019429D8A409D0000E00018B6F74
:10009000000E8C6F000E8D6F000E8E6F00018D8F25
:1000A00009D0000E00018B6F000E8C6F000E8D6F5B
:1000B000000E8E6F000194510001D8B405D00001EC
:1000C00099510001D8A40AD0000E0001876F000EDC
:1000D000886F000E896F000E8A6F120000018D512B
:1000E00000018703F3CF9EF0F4CF9FF000019E51F3
:1000F0000001956F966B976B986B00019F51000103
:100100009A6F9B6B9C6B9D6B00018C510001880367
:10011000F3CF9EF0F4CF9FF000019E510001952790
:10012000000E96239723982300019F5100019A27E0
:10013000000E9B239C239D2300018B51000189030A
:10014000F3CF9EF0F4CF9FF000019E510001952760
:10015000000E96239723982300019F5100019A27B0
:10016000000E9B239C239D2397C098F096C097F088
:1001700095C096F00001956B00018B51000188033A
:10018000F3CF9EF0F4CF9FF000019E510001952720
:1001900000019F5100019623000E00019723000EDD
:1001A0000001982300018C5100018703F3CF9EF0DA
:1001B000F4CF9FF000019E510001952700019F514F
:1001C00000019623000E00019723000E00019823E2
:1001D00097C098F096C097F095C096F00001956B87
:1001E00000018B5100018703F3CF9EF0F4CF9FF005
:1001F00000019E510001952700019F5100019623A7
:10020000000E00019723000E0001982300018D517C
:1002100000018803F3CF9EF0F4CF9FF000019E51C0
:1002200000019A2700019F5100019B23000E00014D
:100230009C23000E00019D2300018C5100018903C5
:10024000F3CF9EF0F4CF9FF000019E5100019A275A
:1002500000019F5100019B23000E00019C23000E12
:1002600000019D2300018D5100018903F3CF9EF011
:10027000F4CF9FF000019E5100018F6F00019F514C
:100280000001906F0001916B0001926B91C092F0A0
:1002900090C091F08FC090F000018F6B00018F51E2
:1002A00000019A270001905100019B230001915108
:1002B00000019C230001925100019D2395C08FF005
:1002C00096C090F097C091F098C092F0190E06D0A9
:1002D0000001D8909233913390338F33E82EF8D7C2
:1002E00000018F5100019A270001905100019B23CA
:1002F0000001915100019C230001925100019D23B6
:1003000097C098F096C097F095C096F00001956B55
:100310000001945199C08FF00001906B00018F276C
:10032000000E9023820E00018F2500019E6FFF0EAC
:100330000001902100019F6F15D00001D8909A37DD
:100340009B379C379D37000198AF02D000019A81FE
:100350000001D890953796379737983700019E0758
:10036000D8A09F0700019CAFE8D7000E0001946F52
:10037000000198AF24D0FF0E0001951500018F6F8A
:10038000FF0E000196150001906FFF0E00019715FA
:100390000001916F7F0E000198150001926F00011E
:1003A0008F51000190110001911100019211D8A408
:1003B00003D000019AA103D0010E0001946F000147
:1003C00094510001D8B423D0010E00019A27000EE9
:1003D0009B239C239D2300019DA119D09AC08FF0DF
:1003E0009BC090F09CC091F09DC092F000019235AE
:1003F0009233913390338F338FC09AF090C09BF03B
:1004000091C09CF092C09DF000019E4B9F2B00017B
:100410009FBF10D000019F5104E100019E29D8A088
:1004200009D0000E00019A6F000E9B6F800E9C6F2A
:100430007F0E2BD000019FBF07D000019F5111E11B
:1004400000019E05D8B00DD0000E00019A6F000E7D
:100450009B6F000E9C6F000E9D6F000E0001936F4E
:1004600015D09EC099F0FF0E00019A17FF0E9B1742
:100470007F0E9C17000E9D17000199A102D000016C
:100480009C8F0001D890993100019D6F000193511C
:1004900000019D139AC087F09BC088F09CC089F032
:1004A0009DC08AF012000CD0620E0001936F030E03
:1004B00004D06D0E0001936F030E0001946F08D0FD
:1004C00000019151000AD8B4EFD7010AD8B4F1D78E
:1004D000000120EE02F09351D9269451DA2291C006
:1004E000DFFFB1D0EA0E0001866F000E0001876FBA
:1004F000020E0001886F030E0001896F32EC93F049
:10050000EA0E0001866F000E0001876F030E0001E6
:10051000886F030E0001896F32EC93F0EA0E000140
:10052000866F000E0001876F050E0001886F030EB5
:100530000001896F32EC93F0EA0E0001866F000E25
:100540000001876F040E0001886F000E0001896FA3
:1005500032EC93F0000120EE03F09351D926945130
:10056000DA22C70EDE6E0F0EDD6E000120EE06F001
:100570009351D9269451DA22C60EDE6E0F0EDD6E2F
:10058000000120EE09F09351D9269451DA22C90EC8
:1005900056D0A00E0001866F030E0001876F070E74
:1005A0000001886F030E0001896F32EC93F0A00EFA
:1005B0000001866F030E0001876F060E0001886F31
:1005C000030E0001896F32EC93F0A00E0001866FDC
:1005D000030E0001876F040E0001886F030E0001F7
:1005E000896F32EC93F0A00E0001866F030E0001BC
:1005F000876F050E0001886F000E0001896F32ECD5
:1006000093F0000120EE03F09351D9269451DA22A1
:100610006D0EDE6E0F0EDD6E000120EE06F09351C2
:10062000D9269451DA226C0EDE6E0F0EDD6E0001BB
:1006300020EE09F09351D9269451DA226F0EDE6E26
:100640000F0EDD6E09D000019151000AD8B44AD7CF
:10065000010AD8A412009DD7000120EE06F09351A4
:10066000D9269451DA22DECF60F0DDCF61F0050E9D
:100670000001626F000E0001636FF6ECAAF09CD0DF
:10068000000120EE06F09351D9269451DA22DECFF4
:1006900060F0DDCF61F0040E0001626F000E00011A
:1006A000636FF6ECAAF0000120EE03F09351D92617
:1006B0009451DA22DECF60F0DDCF61F0060E00014A
:1006C000626F000E0001636FF6ECAAF084D00001A7
:1006D00020EE06F09351D9269451DA22DECF60F055
:1006E000DDCF61F0040E0001626F000E0001636F48
:1006F000F6ECAAF0000120EE03F09351D9269451B4
:10070000DA22DECF60F0DDCF61F0060E0001626F0D
:10071000010E0001636FF6ECAAF05DD0000120EE3F
:1007200006F09351D9269451DA22DECF60F0DDCF66
:1007300061F0040E0001626F010E0001636FF6ECC0
:10074000AAF0000120EE03F09351D9269451DA2249
:10075000DECF60F0DDCF61F0060E0001626F000EAB
:100760000001636FF6ECAAF036D0000120EE06F02F
:100770009351D9269451DA22DECF60F0DDCF61F0BB
:10078000040E0001626F010E0001636FF6ECAAF027
:10079000000120EE03F09351D9269451DA22DECFE6
:1007A00060F0DDCF61F0060E0001626F010E000106
:1007B000636FF6ECAAF00FD000019251000AD8B492
:1007C0005FD7010AD8B483D7030AD8B4A7D7010AE0
:1007D000D8A41200CAD7000120EE06F09351D92602
:1007E0009451DA22DECF60F0DDCF61F0070E000118
:1007F000626F000E0001636FF6ECAAF0000120EEBC
:1008000006F09351D9269451DA22DECF60F0DDCF85
:1008100061F0060E0001626F000E0001636FF6ECDE
:10082000AAF08DC06DF08EC06EF08FC06FF090C0DA
:1008300070F049EC99F093C060F094C061F05FEC07
:10084000B0F004D09F860BD0A58E09D00001915145
:10085000000AD8B4F7D7010AD8A41200F5D793C07C
:1008600060F094C061F0D7ECAFF093C0D9FF94C0B2
:10087000DAFF000EDF6E000120EE06F09351D9265C
:100880009451DA22DECF6BF0DDCF6CF0000E000168
:100890006D6F030E00016E6FA8ECB0F0000120EE4A
:1008A00006F09351D9269451DA22DECF60F0DDCFE5
:1008B00061F0050E0001626F010E0001636FF6EC3E
:1008C000AAF012001CECAFF0ECECB1F0F5ECB1F0DA
:1008D0000001E051D8A404D00001E151D8B406D001
:1008E000000ED8ECB1F0000E96ECADF00001D1BFD7
:1008F0000BD00001D15105E1540E0001D05DD8A00C
:1009000003D0000E96ECADF0010E21ECAEF0000924
:10091000D8B429D0FC0E0001756FFF0E0001766F70
:10092000000E0001786F230E776F51EC92F0C00E2D
:100930000001756FFF0E0001766FD2C077F0D3C053
:1009400078F0E0C079F000017A6BE1C07BF0000143
:100950007C6B51EC92F065EC8FF04FECB1F000093C
:10096000D8A4A1ECAEF065ECA8F0000E0001C76FB2
:10097000000EC66F030E0001FC6FE80EFB6F000E49
:100980000001C56F000EC46F000E0001C36F000EA2
:10099000C26F000E0001FA6F080EF96FF9D0000166
:1009A000C64BC72BF40E0001626F000E0001636F8F
:1009B000F0ECA6F0F40E0001A06F000E0001A16F94
:1009C000D0EC9DF0A0C0FCF3A1C0FDF3A2C0FEF3EB
:1009D000A3C0FFF3FCC372F0FDC373F0FEC374F059
:1009E000FFC375F0000E00016E6F000E6F6F6C0E8E
:1009F000706F420E716F6EEC86F06EC0B2F06FC019
:100A0000B3F070C0B4F071C0B5F0E6EC9BF0B2C0CA
:100A1000C2F0B3C0C3F0010E21ECAEF00009D8B4AF
:100A20000ED0C2C076F0C3C077F04AECB0F082ECD2
:100A3000AEF04FECB1F00009D8A4A1ECAEF000018B
:100A4000FB510001C25D0001C351800A0301F86F30
:100A50000001FC51800A0301F859D8B008D0C2C087
:100A6000FBF0C3C0FCF0C6C0C4F0C7C0C5F0080EA0
:100A700021ECAEF00009D8B420D0CF0E00017B6F7E
:100A8000030E00017C6F000E00017E6F320E7D6F41
:100A900035ECB0F0CF0E0001636F030E0001646F00
:100AA000000E0001666F010E656F39ECAFF04FEC80
:100AB000B1F00009D8A4A1ECAEF0000E0001FA6F6D
:100AC0000A0EF96F0001FABF63D00001FA5156E136
:100AD0000001F905D8B052D05BD0F40E0001626F6E
:100AE000000E0001636FF0ECA6F0010E21ECAEF0F9
:100AF0000009D8B40ED0C2C076F0C3C077F04AEC7B
:100B0000B0F082ECAEF04FECB1F00009D8A4A1EC4B
:100B1000AEF0F40E0001A06F000E0001A16FD0EC4A
:100B20009DF0A0C0FCF3A1C0FDF3A2C0FEF3A3C0E2
:100B3000FFF3FCC372F0FDC373F0FEC374F0FFC398
:100B400075F0000E00016E6F000E6F6F6C0E706F0F
:100B5000420E716F6EEC86F06EC0B2F06FC0B3F0F3
:100B600070C0B4F071C0B5F0E6EC9BF0B2C0C2F05A
:100B7000B3C0C3F00001F907D8A0FA070001FABF1B
:100B800007D00001FA51A9E10001F905D8B0A5D7B5
:100B90000001C7BF04D7900E0001C65D010E000121
:100BA000C759D8A0FCD6080E21ECAEF00009D8B485
:100BB0008AD0CF0E00017B6F030E00017C6F000E08
:100BC00000017E6F320E7D6F35ECB0F0C4C0F8F3DB
:100BD000C5C0F9F30301F81FF91FF84BF92B900E6C
:100BE0000301F8250301FA6F010E0301F921030146
:100BF000FB6FCF0E0001636F030E0001646FFAC339
:100C0000F8F3FBC3F9F30301F81FF91FF84BF92BB5
:100C1000F8C365F0F9C366F039ECAFF04FECB1F012
:100C20000009D8B450D0A1ECAEF04DD0F40E0001C4
:100C3000626F000E0001636FF0ECA6F0010E21EC74
:100C4000AEF00009D8B40ED0C2C076F0C3C077F0C1
:100C50004AECB0F082ECAEF04FECB1F00009D8A451
:100C6000A1ECAEF0F40E0001A06F000E0001A16F28
:100C7000D0EC9DF0A0C0FCF3A1C0FDF3A2C0FEF338
:100C8000A3C0FFF3FCC372F0FDC373F0FEC374F0A6
:100C9000FFC375F0000E00016E6F000E6F6F6C0EDB
:100CA000706F420E716F6EEC86F06EC0B2F06FC066
:100CB000B3F070C0B4F071C0B5F0E6EC9BF0B2C018
:100CC000C2F0B3C0C3F00301D0BF12000301D05182
:100CD000ADE10301CF05D8A01200A8D700017151E2
:100CE000800B00017A6F0001715171250001856F41
:100CF000000170AF02D00001858100018551000123
:100D0000D8B412D000018529D8A409D0000E000162
:100D10006E6F000E6F6F000E706F000E716F00012E
:100D2000708F000E000108D0000E00016E6F000EE3
:100D30006F6F000E706F000E716F00017551800BA8
:100D400000017A1B0001755175250001866F0001B5
:100D500074AF02D000018681000186510001D8B431
:100D600012D000018629D8A409D0000E0001726FAC
:100D7000000E736F000E746F000E756F0001748F9C
:100D8000000E000108D0000E0001726F000E736F9C
:100D9000000E746F000E756F000172510001731127
:100DA0000001741100017511D8A417D0000E0001C4
:100DB0006E6F000E6F6F000E706F000E716F00018E
:100DC000800E70137F0E71136EC06EF06FC06FF0E7
:100DD00070C070F071C071F0120000018551000107
:100DE000D8A412D0000E00016E6F000E6F6F000EBF
:100DF000706F000E716F6EC06EF06FC06FF070C0DC
:100E000070F071C071F01200000186510001766F20
:100E1000776B0001761F771F764B772B000185518A
:100E20000001786F796B000176510001782700018D
:100E30007751000179237F0E0001782500017F6F33
:100E4000000E000179210001806F6EC07BF06FC041
:100E50007CF070C07DF071C07EF0000E00016E6FFE
:100E6000000E6F6F000E706F000E716F000E0001AC
:100E7000816F000E826F000E836F000E846F000E74
:100E80000001866F42D0000186510001D8B417D00E
:100E90000001D8907B377C377D377E370001D890B2
:100EA0006E376F3770377137000184AF02D00001A1
:100EB0006E810001D89081378237833784370001F3
:100EC000725100017B5D0001735100017C590001EA
:100ED000745100017D590001755100017E59D8A05F
:100EE00012D00001848D0001725100017B5F00016E
:100EF000735100017C5B0001745100017D5B0001B6
:100F0000755100017E5B0001862B190E000186657C
:100F1000BAD700017B5100017C1100017D11000155
:100F20007E11D8B418D00001818115D00001D8906D
:100F30006E376F3770377137000184AF02D0000110
:100F40006E810001D8908137823783378437000162
:100F50007F07D8A08007000170AFE8D7000E00011E
:100F6000866F000184AF24D0FF0E000181150001BF
:100F7000766FFF0E000182150001776FFF0E0001F2
:100F800083150001786F7F0E000184150001796FD1
:100F900000017651000177110001781100017911EB
:100FA000D8A403D000016EA103D0010E0001866F0A
:100FB000000186510001D8B423D0010E00016E2734
:100FC000000E6F2370237123000171A119D06EC030
:100FD00076F06FC077F070C078F071C079F00001E2
:100FE0007935793378337733763376C06EF077C0DE
:100FF0006FF078C070F079C071F000017F4B802BEA
:10100000000180BF14D00001805104E100017F295C
:10101000D8A00DD0000E0001806F7F69000E000186
:101020006E6F000E6F6F000E706F000E716F00011B
:1010300080BF07D00001805115E100017F05D8B0C5
:1010400011D0000E0001806F000E7F6F000E0001B6
:101050006E6F000E6F6F000E706F000E716F000EDE
:1010600000017A6F7FC085F0000185A103D00001E7
:10107000708F02D00001709F0001D890853100016F
:10108000716F00017A51000171136EC06EF06FC074
:101090006FF070C070F071C071F01200080E0001A6
:1010A0006F2500016C6F000E0001702100016D6F53
:1010B000000E00016E6FDFECAEF00001866F0001E4
:1010C00086510001726F736B0E0ED890000172375B
:1010D0007337E82EFAD7000186510001746F756BE3
:1010E0000C0ED890000174377537E82EFAD700013E
:1010F00086510001766F776B0A0ED8900001763723
:101100007737E82EFAD7000186510001796F786BA6
:101110000001865100017A6F7B6B060ED8900001AA
:101120007A377B37E82EFAD70001865100017C6FB1
:101130007D6B00017C3B7D3BF00E7D177C510F0BDE
:101140007D13F00E7C170001865100017E6F7F6BCE
:101150000001D8907E377F370001D8907E377F37E7
:10116000000186510001806F816B00017E510001FA
:10117000801300017F510001811300017C510001A7
:10118000801300017D510001811300017A5100019B
:10119000801300017B51000181130001785100018F
:1011A0008013000179510001811300017651000183
:1011B0008013000177510001811300017451000177
:1011C000801300017551000181130001725100016B
:1011D00080110001826F0001735100018111000133
:1011E000836F86C084F00001856B080E00016F25B7
:1011F00000016C6F000E0001702100016D6F010E87
:1012000000016E6FDFECAEF00001726F736B0001D6
:10121000D890723773370001D89072377337000156
:101220007251000184130001735100018513080EEF
:1012300000016F2500016C6F000E0001702100019C
:101240006D6F020E00016E6FDFECAEF00001726F89
:10125000736B0001723B733BF00E731772510F0BEF
:101260007313F00E72170001725100018413000114
:10127000735100018513080E00016F2500016C6F8A
:10128000000E0001702100016D6F030E00016E6FF2
:10129000DFECAEF00001726F736B060ED8900001A8
:1012A00072377337E82EFAD70001725100018413A8
:1012B0000001735100018513080E00016F25000124
:1012C0006C6F000E0001702100016D6F040E0001B3
:1012D0006E6FDFECAEF00001726F00017251000121
:1012E000746F736B0001735100018413000174511A
:1012F00000018513080E00016F2500016C6F000EC0
:101300000001702100016D6F050E00016E6FDFECB2
:10131000AEF00001726F736B0A0ED8900001723745
:101320007337E82EFAD700017251000184130001CF
:10133000735100018513080E00016F2500016C6FC9
:10134000000E0001702100016D6F060E00016E6F2E
:10135000DFECAEF00001726F736B0C0ED8900001E1
:1013600072377337E82EFAD70001725100018413E7
:101370000001735100018513080E00016F25000163
:101380006C6F000E0001702100016D6F070E0001EF
:101390006E6FDFECAEF00001726F736B0E0ED890C3
:1013A000000172377337E82EFAD70001725100013D
:1013B0008413000173510001851300018451000161
:1013C000821948E10001855100018319D8A4120057
:1013D00032D0000120EE02F06F51D9267051DA228E
:1013E000DECF60F0DDCF61F071C062F01CECB2F0D6
:1013F00012000001711F000120EE02F06F51D9268A
:101400007051DA22DECF60F0DDCF61F071C062F0A2
:101410001CECB2F01200000120EE04F06F51D9264E
:101420007051DA22DECF60F0DDCF61F071C062F082
:101430001CECB2F0120000018651000AD8B4120070
:10144000010AD8B4C6D7030AD8B4D3D7010AD8A49E
:101450001200E1D712001CECAFF0ECECB1F0F5ECAF
:10146000B1F00001E051D8A404D00001E151D8B49A
:1014700006D0000ED8ECB1F0000E96ECADF00001F5
:10148000D1BF0BD00001D15105E1540E0001D05D58
:10149000D8A003D0000E96ECADF0010E21ECAEF01A
:1014A0000009D8B435D0FC0E0001756FFF0E0001A5
:1014B000766F000E0001786F230E776F51EC92F07B
:1014C000710E0001756FFF0E0001766FD2C077F0CC
:1014D000D3C078F0E0C079F000017A6BE1C07BF016
:1014E00000017C6BFBC07DF0FCC07EF000C37FF090
:1014F00001C380F002C381F003C382F051EC92F08B
:1015000065EC8FF04FECB1F00009D8A4A1ECAEF07F
:1015100065ECA8F0000E0001C76F000EC66F030E49
:101520000001FC6FE80EFB6F000E0001C56F000E9E
:10153000C46F000E0001726F000E736FC80E746FDF
:10154000430E756FC4C060F0C5C061F00001000EAD
:1015500061BFFF0E626F636F010E6AEC91F060C0B5
:101560006EF061C06FF062C070F063C071F06EEC3D
:1015700086F06EC087F06FC088F070C089F071C0CF
:101580008AF0000E00018B6F000E8C6FB40E8D6F11
:10159000430E8E6F00EC80F087C000F388C001F32B
:1015A00089C002F38AC003F3000E0001C36F000E6E
:1015B000C26F000E0001FA6F080EF96FF8D000013B
:1015C000C64BC72BF40E0001626F000E0001636F63
:1015D000F0ECA6F0F40E0001A06F000E0001A16F68
:1015E000D0EC9DF0A0C0F8F3A1C0F9F3A2C0FAF3CB
:1015F000A3C0FBF3F8C372F0F9C373F0FAC374F03D
:10160000FBC375F0000E00016E6F000E6F6F6C0E65
:10161000706F420E716F6EEC86F06EC0B2F06FC0EC
:10162000B3F070C0B4F071C0B5F0E6EC9BF0B2C09E
:10163000C2F0B3C0C3F0010E21ECAEF00009D8B483
:101640000ED0C2C076F0C3C077F04AECB0F082ECA6
:10165000AEF04FECB1F00009D8A4A1ECAEF000015F
:10166000FB510001C25D0001C351800A0001B86F47
:101670000001FC51800A0001B859D8B008D0C2C09E
:10168000FBF0C3C0FCF0C6C0C4F0C7C0C5F0080E74
:1016900021ECAEF00009D8B41FD0CF0E00017B6F53
:1016A000030E00017C6F000E00017E6F320E7D6F15
:1016B00035ECB0F0CF0E0001636F030E0001646FD4
:1016C000FF0E0001666F656939ECAFF04FECB1F0C9
:1016D0000009D8A4A1ECAEF0000E0001FA6F0A0ECA
:1016E000F96F0001FABF63D00001FA5156E1000121
:1016F000F905D8B052D05BD0F40E0001626F000E35
:101700000001636FF0ECA6F0010E21ECAEF00009D1
:10171000D8B40ED0C2C076F0C3C077F04AECB0F0B7
:1017200082ECAEF04FECB1F00009D8A4A1ECAEF021
:10173000F40E0001A06F000E0001A16FD0EC9DF02F
:10174000A0C0F8F3A1C0F9F3A2C0FAF3A3C0FBF361
:10175000F8C372F0F9C373F0FAC374F0FBC375F009
:10176000000E00016E6F000E6F6F6C0E706F420EF8
:10177000716F6EEC86F06EC0B2F06FC0B3F070C0E7
:10178000B4F071C0B5F0E6EC9BF0B2C0C2F0B3C0EB
:10179000C3F00001F907D8A0FA070001FABF07D08B
:1017A0000001FA51A9E10001F905D8B0A5D700015F
:1017B000C7BF05D7900E0001C65D010E0001C759D5
:1017C000D8B01200FCD60001606F7ED03F0E120030
:1017D000060E12005B0E12004F0E1200660E120073
:1017E0006D0E12007D0E1200070E12007F0E120009
:1017F0006F0E12005F0E12007C0E1200580E1200C7
:101800005E0E12007B0E1200710E12006F0E12009F
:10181000740E1200040E12000E0E12007A0E120048
:10182000060E1200140E1200540E12005C0E12006E
:10183000730E1200670E1200500E12006D0E120091
:10184000780E12001C0E1200620E12002A0E1200F8
:10185000640E12006E0E12005B0E1200770E120064
:101860007F0E1200390E12003F0E1200790E120088
:10187000710E12003D0E1200760E1200060E1200BE
:101880001E0E1200570E1200380E1200760E1200B5
:10189000760E12003F0E1200730E12003F0E120061
:1018A000770E12006D0E1200310E12003E0E120065
:1018B0003E0E12007E0E1200760E1200660E120010
:1018C0005B0E1200800E1200000160512E0AD8B487
:1018D000F9D71E0AD8B47AD7010AD8B479D7030A3F
:1018E000D8B478D7010AD8B477D7070AD8B476D74E
:1018F000010AD8B475D7030AD8B474D7010AD8B48A
:1019000073D70F0AD8B472D7010AD8B471D7780A3E
:10191000D8B4A4D7030AD8B4A3D7010AD8B4A2D79D
:10192000070AD8B4A1D7010AD8B4A0D7030AD8B4FB
:101930009FD7010AD8B49ED70F0AD8B49DD7010A01
:10194000D8B49CD7030AD8B49BD7010AD8B49AD785
:10195000070AD8B499D7010AD8B498D7030AD8B4DB
:1019600097D7010AD8B496D71F0AD8B495D7010AD9
:10197000D8B494D7030AD8B493D7010AD8B492D76D
:10198000070AD8B491D7010AD8B490D7030AD8B4BB
:101990008FD7010AD8B48ED70F0AD8B48DD7010AD1
:1019A000D8B48CD7030AD8B48BD73B0AD8B422D783
:1019B000030AD8B421D7010AD8B420D7070AD8B46B
:1019C0001FD7010AD8B41ED7030AD8B41DD7010AFD
:1019D000D8B41CD70F0AD8B41BD7010AD8B41AD769
:1019E000030AD8B419D7010AD8B418D7070AD8B44B
:1019F00017D7010AD8B416D7030AD8B415D7010AE5
:101A0000D8B414D71F0AD8B413D7010AD8B412D740
:101A1000030AD8B411D7010AD8B410D7070AD8B42A
:101A20000FD7010AD8B40ED7030AD8B40DD7010ACC
:101A3000D8B40CD70F0AD8B40BD7010AD8B40AD738
:101A4000030AD8B409D7000E1200050E00019A6FE0
:101A5000C7D0000120EE02F09651D9269751DA2224
:101A6000DECF6BF0DDCF6CF098C06DF00F0E000193
:101A70006E6FA8ECB0F0000120EE04F09651D9266C
:101A80009751DA22DECF6BF0DDCF6CF098C06DF0AD
:101A9000000E00016E6FA8ECB0F0B0D096C08FF0D1
:101AA00097C090F098C091F0030E0001926FB8ECCF
:101AB000ABF000019A6F00019A51D8A41200000106
:101AC00020EE02F09651D9269751DA22DECF6BF044
:101AD000DDCF6CF098C06DF0000E00016E6FA8ECC9
:101AE000B0F0000120EE04F09651D9269751DA2289
:101AF000DECF6BF0DDCF6CF098C06DF0000E000112
:101B00006E6FA8ECB0F07AD096C08FF097C090F0CE
:101B100098C091F0030E0001926FB8ECABF0000199
:101B20009A6F00019A51D8A41200000120EE02F031
:101B30009651D9269751DA22DECF6BF0DDCF6CF0CB
:101B400098C06DF00F0E00016E6FA8ECB0F00001B0
:101B500020EE04F09651D9269751DA22DECF6BF0B1
:101B6000DDCF6CF098C06DF00F0E00016E6FA8EC29
:101B7000B0F044D096C08FF097C090F098C091F02C
:101B8000030E0001926FB8ECABF000019A6F0001F8
:101B90009A51D8A41200000120EE02F09651D926E5
:101BA0009751DA22DECF6BF0DDCF6CF098C06DF08C
:101BB000000E00016E6FA8ECB0F0000120EE04F002
:101BC0009651D9269751DA22DECF6BF0DDCF6CF03B
:101BD00098C06DF0000E00016E6FA8ECB0F00ED052
:101BE00000019951000AD8B434D7010AD8B456D7A5
:101BF000030AD8B489D7010AD8B4BCD7080E0001AB
:101C0000962500016F6F000E000197210001706F93
:101C100000019851040DF3CF71F099C072F0B9EC46
:101C2000ADF0080E0001962500016F6F000E000157
:101C300097210001706F00019851040DF3280001F5
:101C4000716F99C072F0B9ECADF0080E00019625E5
:101C500000016F6F000E000197210001706F0001FD
:101C60009851040DF350020F0001716F99C072F08A
:101C7000B9ECADF0080E0001962500016F6F000E63
:101C8000000197210001706F00019851040DF3507D
:101C9000030F0001716F99C072F0B9ECADF0120042
:101CA000050E00019F6F7AD0000120EE02F09A51DC
:101CB000D9269B51DA22DECF9DF0DDCF9EF09DC06C
:101CC000D9FF9EC0DAFFFF0E67D09AC096F09BC086
:101CD00097F0010E0001986F2AECADF000019F6FA4
:101CE00000019F51D8A41200000120EE02F09A5189
:101CF000D9269B51DA22DECF9DF0DDCF9EF09DC02C
:101D0000D9FF9EC0DAFF000EDF6E000120EE04F066
:101D100036D09AC096F09BC097F0020E0001986FE3
:101D20002AECADF000019F6F00019F51D8A4120072
:101D3000000120EE02F09A51D9269B51DA22DECF23
:101D40009DF0DDCF9EF09DC0D9FF9EC0DAFFFF0E53
:101D5000DF6E000120EE04F0AAD79AC096F09BC077
:101D600097F0000E0001986F2AECADF000019F6F14
:101D700000019F51D8A41200000120EE02F09A51F8
:101D8000D9269B51DA22DECF9DF0DDCF9EF09DC09B
:101D9000D9FF9EC0DAFF000EDF6E0ED000019C510D
:101DA000000AD8B481D7010AD8B48FD7030AD8B4AF
:101DB000B0D7010AD8B4D1D7080E00019A25000186
:101DC0006F6F000E00019B210001706F000E00017B
:101DD000716F9CC072F0B9ECADF0080E00019A254D
:101DE00000016F6F000E00019B210001706F010E5A
:101DF0000001716F9CC072F0B9ECADF0080E0001EB
:101E00009A2500016F6F000E00019B210001706F89
:101E1000020E0001716F9CC072F0B9ECADF0080EBB
:101E200000019A2500016F6F000E00019B21000147
:101E3000706F030E0001716F9CC072F0B9ECADF0D1
:101E4000080E00019A2500016F6F000E00019B2112
:101E50000001706F040E0001716F9CC072F0B9EC4C
:101E6000ADF0080E00019A2500016F6F000E000111
:101E70009B210001706F050E0001716F9CC072F014
:101E8000B9ECADF0080E00019A2500016F6F000E4D
:101E900000019B210001706F060E0001716F9CC054
:101EA00072F0B9ECADF0080E00019A2500016F6FD9
:101EB000000E00019B210001706F070E0001716F81
:101EC0009CC072F0B9ECADF012000001FF51D8B423
:101ED0001200ECC386F0EDC387F0EEC388F0EFC3C9
:101EE00089F00001E951D8B405D0E7C085F00F0EA4
:101EF0000001E76F000E00018B6FDFD000018B51F6
:101F0000020D000EF324D96E040EF420DA6EDECF3B
:101F1000FDF0DDCFFEF0000E00018A6F130E000110
:101F20008A6501D0BED000018B51140DCA0E00018C
:101F3000836F040E0001846FF35000018327F45077
:101F40000001842300018A51010DF3500001832513
:101F5000D96EF45000018421DA6EDFAE9AD0000110
:101F60008B51140DCA0E0001836F040E0001846FA3
:101F7000F35000018327F4500001842300018A51AB
:101F8000010DF35000018325D96EF4500001842126
:101F9000DA6E7F0EDF1600018B51140DCA0E0001A0
:101FA000836F040E0001846FF35000018327F45007
:101FB0000001842300018A51010DF35000018325A3
:101FC000D96EF45000018421DA6EDF50D8B44AD0C3
:101FD000DCC069F0DDC06AF086C06BF087C06CF0D1
:101FE00088C06DF089C06EF0F4C36FF0F5C370F077
:101FF000F6C371F0F7C372F09FECA8F000018B51AB
:10200000140DCA0E0001836F040E0001846FF3509B
:1020100000018327F4500001842300018A51010D3F
:10202000F35000018325D96EF45000018421DA6E4B
:10203000DF5011EC9FF065C072F066C073F086C08F
:1020400074F087C075F088C076F089C077F0F4C36B
:1020500078F0F5C379F0F6C37AF0F7C37BF056EC6D
:10206000A4F017D0000E00016A6F000E696F86C0E1
:102070006BF087C06CF088C06DF089C06EF0F4C35F
:102080006FF0F5C370F0F6C371F0F7C372F09FEC18
:10209000A8F0060E00018627000E872300018A2B78
:1020A0003DD7080E00018827000E8923000E00018D
:1020B000876F060E866F00018B2B00018B5100018C
:1020C000E75DD8B01BD70001E951D8B41200000E6B
:1020D0000001E96F85C0E7F01200580E00019B6F08
:1020E000030E00019C6F000E00019E6F020E9D6F9B
:1020F000DC0E00019F6F640E0001A06F010E000155
:10210000A16F200E0001A26F630E0001A36F010EEC
:102110000001A46FF40E0001A56F640E0001A66F0C
:10212000010E0001A76FA7EC9EF03A0E00019B6F15
:10213000030E00019C6F000E00019E6F020E9D6F4A
:10214000DC0E00019F6F640E0001A06F010E000104
:10215000A16F800E0001A26F630E0001A36F010E3C
:102160000001A46FF40E0001A56F640E0001A66FBC
:10217000010E0001A76FA7EC9EF0300E00019B6FCF
:10218000030E00019C6F000E00019E6F020E9D6FFA
:10219000DC0E00019F6F640E0001A06F010E0001B4
:1021A000A16F680E0001A26F630E0001A36F010E04
:1021B0000001A46FF40E0001A56F640E0001A66F6C
:1021C000010E0001A76FA7EC9EF0440E00019B6F6B
:1021D000030E00019C6F000E00019E6F020E9D6FAA
:1021E000DC0E00019F6F640E0001A06F010E000164
:1021F000A16F500E0001A26F630E0001A36F010ECC
:102200000001A46FF40E0001A56F640E0001A66F1B
:10221000010E0001A76FA7EC9EF04E0E00019B6F10
:10222000030E00019C6F000E00019E6F020E9D6F59
:10223000DC0E00019F6F640E0001A06F010E000113
:10224000A16F380E0001A26F630E0001A36F010E93
:102250000001A46FF40E0001A56F640E0001A66FCB
:10226000010E0001A76FA7EC9EF0A00E00018D6F7C
:10227000860E8E6F010E8F6F000E906F000E0001A4
:10228000916F020E0001926F53EC82F0620E00011A
:102290006F6F030E0001706F13ECA9F0000E0001C8
:1022A000A96F000EA86F0001A95113E1080E0001EB
:1022B000A85DD8B01200280E0001A825D96E030E23
:1022C0000001A921DA6E000EDF6E0001A84BA92BD8
:1022D000EAD712000001686F000168510001D8B40C
:1022E0001ED0000163AF1BD060C064F061C065F018
:1022F00062C066F063C067F00001641F651F661F5F
:10230000671F642B000E65236623672364C06AF091
:1023100065C06BF066C06CF067C06DF008D060C03F
:102320006AF061C06BF062C06CF063C06DF00001D8
:102330006051000161110001621100016311D8A414
:102340000AD0000E0001606F000E616F000E626F18
:10235000000E636F1200960E0001696F08D0000135
:10236000692B0001D8906D336C336B336A33000EE8
:1023700000016A150001646F000E00016B15000179
:10238000656F000E00016C150001666FFE0E000106
:102390006D150001676F00016451000165110001B6
:1023A000661100016711D8B410D0D9D70001692B8C
:1023B000010E00016A27000E6B236C236D230001C0
:1023C000D8906D336C336B336A33000E00016A159D
:1023D0000001646F000E00016B150001656F000EB7
:1023E00000016C150001666FFF0E00016D15000104
:1023F000676F000164510001651100016611000161
:102400006711D8B409D0D2D7000169070001D8906C
:102410006A376B376C376D3700016CBF04D0020E22
:1024200000016961F1D7000169B109D0FF0E000117
:102430006A17FF0E6B177F0E6C17FF0E6D170001EA
:10244000D890693369C064F00001656B666B676B97
:1024500064C067F00001666B656B646B00016451DA
:1024600000016A130001655100016B130001665100
:1024700000016C130001675100016D1300016851E8
:102480000001D8B405D0000163AF02D000016D8F08
:102490006AC060F06BC061F06CC062F06DC063F048
:1024A0001200770E0001866F000E0001876FC9D001
:1024B000250E00018A19D8B405D000018A5107EC15
:1024C000B2F0BFD0000E0001856F14D086C0D9FFD6
:1024D00087C0DAFFDF5000018A6F020E00018627F5
:1024E000000E872300018A5107ECB2F0AAD0000148
:1024F000858D1ED075C0F6FF76C0F7FF0001754BC5
:10250000762B000EF86E0800F5CF8AF000018A5194
:10251000000AD8B41200630AD8B4D8D7070AD8B4CE
:1025200007D00D0AD8B404D01C0AD8B4E0D7DAD743
:10253000000185BD19D086C0D9FF87C0DAFFDECF84
:1025400088F0DDCF89F0020E00018627000E872378
:10255000000189AF16D0030E000185130001886DBC
:10256000891FD8B0892B0DD086C0D9FF87C0DAFF6C
:10257000DECF88F0DDCF89F0020E00018627000E45
:102580008723010E00018A6F050E00018A19D8B455
:1025900019D000018A51020D690EF324F66EFD0E6A
:1025A000F420F76EF86A000EF8220900F5500001D9
:1025B000885D0900F55000018959D8A003D00001B9
:1025C0008A2BE2D785C083F0030E00018317D8B4AD
:1025D00003D02D0E07ECB2F08AC084F02CD000019D
:1025E0008451020D690EF324F66EFD0EF420F76E91
:1025F000F86A000EF8220900F5CF62F00A00F5CF64
:1026000063F088C060F089C061F0EEECA7F060C0B4
:1026100067F061C068F0000E00016A6F0A0E696F12
:1026200028ECABF000016751300F00018A6F000108
:102630008A5107ECB2F00001840700018429D8A474
:10264000CED775C0F6FF76C0F7FF0001754B762B2D
:10265000000EF86E0800F5CF8AF000018A51D8B458
:10266000120026D786C0D9FF87C0DAFFDECF8BF0F5
:10267000DDCF8CF0050E00018A6FB5D0000120EE91
:1026800002F08651D9268751DA22DECF60F0DDCF05
:1026900061F088C062F0010E0001636FF6ECAAF0F1
:1026A000B0D08BC06FF08CC070F0010E0001716F64
:1026B00088C072F073ECA7F000018A6F00018A51A4
:1026C000D8A41200000120EE02F08651D9268751CD
:1026D000DA22DECF60F0DDCF61F088C062F0000E5C
:1026E0000001636FF6ECAAF0000120EE04F08651C1
:1026F000D9268751DA22DECF60F0DDCF61F088C0C5
:1027000062F0000E0001636FF6ECAAF07AD08BC085
:102710006FF08CC070F0020E0001716F88C072F013
:1027200073ECA7F000018A6F00018A51D8A412004F
:10273000000120EE02F08651D9268751DA22DECF41
:1027400060F0DDCF61F088C062F0010E0001636FC0
:10275000F6ECAAF0000120EE04F08651D92687514C
:10276000DA22DECF60F0DDCF61F088C062F0010ECA
:102770000001636FF6ECAAF044D08BC06FF08CC000
:1027800070F0000E0001716F88C072F073ECA7F05A
:1027900000018A6F00018A51D8A41200000120EEC6
:1027A00002F08651D9268751DA22DECF60F0DDCFE4
:1027B00061F088C062F0000E0001636FF6ECAAF0D1
:1027C000000120EE04F08651D9268751DA22DECFAF
:1027D00060F0DDCF61F088C062F0000E0001636F31
:1027E000F6ECAAF00ED000018951000AD8B446D701
:1027F000010AD8B456D7030AD8B489D7010AD8B485
:10280000BCD7080E0001862500016F6F000E000185
:1028100087210001706F88C071F089C072F0B9EC37
:10282000ADF012000001736FB1D0A8ECA4F012005B
:102830008AECABF01200DBECA5F01200DBEC9FF0B1
:102840001200C3ECAAF01200C9ECB0F0120073C081
:1028500070F07F0E000170170001E751140DCA0ED1
:102860000001716F040E0001726FF35000017127B7
:10287000F450000172230001E851010DF3500001F2
:102880007125D96EF45000017221DA6EDF507F0B92
:1028900000017019D8B42ED0010E0001FF6F0001A5
:1028A000E751140DCA0E0001706F040E0001716F24
:1028B000F35000017027F450000171230001E8512A
:1028C000010DF35000017025D96EF4500001712103
:1028D000DA6E000173518009DF6E0001E751020DCD
:1028E000000EF324D96E040EF420DA6EFDC0DEFF74
:1028F000FEC0DDFFC3ECAAF00009D8B4120073C01B
:1029000070F07F0E000170170001E751140DCA0E20
:102910000001716F040E0001726FF3500001712706
:10292000F450000172230001E851010DF350000141
:102930007125D96EF45000017221DA6EDF507F0BE1
:1029400000017019D8B41200010E0001FF6F0001E0
:10295000E751140DCA0E0001706F040E0001716F73
:10296000F35000017027F450000171230001E85179
:10297000010DF35000017025D96EF4500001712152
:10298000DA6E000173518009DF6E1200000173518D
:10299000070AD8B456D70F0AD8B44AD7010AD8B410
:1029A0004DD7030AD8B441D7060AD8B444D7010A90
:1029B000D8B43BD72D0AD8B44AD7030AD8B444D7E1
:1029C00046D70001A251B0ECA3F0A0C0D9FFA1C02E
:1029D000DAFF000160C0DEFF000161C0DDFF000121
:1029E000A25103ECA4F0000120EE06F0A051D9267C
:1029F000A151DA22000160C0DEFF000161C0DDFFED
:102A00000001A25103ECA4F0000120EE04F0A0515B
:102A1000D926A151DA22000160C0DEFF000161C0A9
:102A2000DDFF0001A2515DECA3F0000120EE02F0F9
:102A3000A051D926A151DA22000160C0DEFF0001B9
:102A400061C0DDFF000120EE04F0A051D926A151A4
:102A5000DA22DECFA3F0DDCFA4F0A3C0D9FFA4C05B
:102A6000DAFF000EDF6E000120EE02F0A051D92641
:102A7000A151DA22DECFA3F0DDCFA4F0A3C0D9FFAD
:102A8000A4C0DAFFFF0EDF6EA0C09AF0A1C09BF0D9
:102A9000000E00019C6F50EC8EF0000E0001A56F3F
:102AA000070E0001A56531D04BD0A0C086F0A1C0B3
:102AB00087F0A5C088F0030E0001896F32EC93F017
:102AC0003CD0A0C086F0A1C087F0A5C088F0020E5F
:102AD0000001896F32EC93F030D0A0C086F0A1C025
:102AE00087F0A5C088F0010E0001896F32EC93F0E9
:102AF00024D0A0C086F0A1C087F0A5C088F0000E49
:102B00000001896F32EC93F018D0A0C0D9FFA1C0AA
:102B1000DAFFDECF6CF0DDCF6DF0A5C06EF0DFEC3C
:102B2000AEF0000AD8B4C1D7010AD8B4D6D7030A88
:102B3000D8B4C7D7010AD8B4DCD70001A52BB0D7C9
:102B4000A0C06FF0A1C070F0000E0001716F4EECDC
:102B500088F012000001786F000E0001776F000E00
:102B600000017B6F660E0001756F000E0001766F2D
:102B7000950E15ECB2F00001785115ECB2F0000E94
:102B800000017C6F23D075C0D9FF76C0DAFFDF501B
:102B90000001796F020E00017527000E76230001F7
:102BA000795190ECAAF00001772700017C51010DCA
:102BB000000EF324D96E020EF420DA6E79C0DFFF26
:102BC0000001795115ECB2F000017C2B0001785125
:102BD00000017C5DD8A0D7D7000E00017C6F0ED01D
:102BE00000017C51010D000EF324D96E010EF4207A
:102BF000DA6E58ECB2F0DF6E00017C2B00017751E9
:102C000000017C5DD8A0ECD7000E00017C6F5ED087
:102C10007BC07AF021D000017A51010D000EF3241F
:102C2000D96E010EF420DA6EDF500001616F0001F1
:102C30007B51000800017A250001626F00017C5180
:102C4000010D000EF324D96E020EF420DA6EDF506F
:102C5000ECEC9CF000017A2B00017C51010D000E80
:102C6000F324D96E020EF420DA6EDF5090ECAAF055
:102C70000001706F716B00017B5100017027000E25
:102C8000712300017A510001726F736B0001705162
:102C90000001725D00017351800A0001746F000130
:102CA0007151800A00017459D8A0B5D700017C5138
:102CB000010D000EF324D96E020EF420DA6EDF50FF
:102CC00090ECAAF000017B2700017C2B00017851D9
:102CD00000017C5DD8B012009BD7010E4B6E000E38
:102CE0000001BC6F000E0001BD6F000E0001BE6F41
:102CF000B40E0001A06F030E0001A16F000E0001D1
:102D0000A26FE1EC94F0AA0E0001A06F030E000187
:102D1000A16F010E0001A26FE1EC94F0EA0E000138
:102D2000A06F000E0001A16F020E0001A26FE1EC86
:102D300094F0A00E0001A06F030E0001A16F030E1E
:102D40000001A26FE1EC94F0960E0001A06F030E5B
:102D50000001A16F040E0001A26FE1EC94F0BE0E21
:102D60000001A06F030E0001A16F050E0001A26F0C
:102D7000E1EC94F08C0E0001A06F030E0001A16F36
:102D8000060E0001A26FE1EC94F0BE0E0001866F0A
:102D9000030E0001876F050E0001886F000E000111
:102DA000896F32EC93F0AA0E0001966F030E0001BA
:102DB000976F000E0001986F000E0001996F25ECCF
:102DC0008DF0BE0E0001866F030E0001876F060EA8
:102DD0000001886F030E0001896F32EC93F08C0EB6
:102DE00000019A6F030E00019B6F030E00019C6FA0
:102DF00050EC8EF08C0E00016F6F030E0001706FAF
:102E0000040E0001716F000E0001726F79EC9FF0EB
:102E1000BE0E00016F6F030E0001706F060E000101
:102E2000716F010E0001726F79EC9FF0000E59EC8A
:102E3000ABF0010E59ECABF0000E9E6E000EA16ED1
:102E4000000EA46E9B8E9B8C000E0001616F640EC1
:102E5000606F26ECAAF0D08E12004DECA9F0000EA7
:102E60000001986F000E976F0001985106E1590E0E
:102E70000001975DD8B08BD001D089D0D8900001E7
:102E80009735F66E00019835F76E970EF626FC0E14
:102E9000F722F86A000EF8220900800EF5180900E2
:102EA000F510D8A422D0000198511FE1580E00015E
:102EB000975DD8B01AD00001974B982BD89000019D
:102EC0009735F66E00019835F76E970EF626FC0ED4
:102ED000F722F86A000EF8220900F5CF60F00A0028
:102EE000F5CF61F026ECAAF04BD0D89000019735D1
:102EF000F66E00019835F76E970EF626FC0EF72257
:102F0000F86A000EF8220900000EF55E0900010EB5
:102F1000F55AD8A020D0000E0001636FD8900001B0
:102F20009735F66E00019835F76E970EF626FC0E73
:102F3000F722F86A000EF8220900F5CF95F0090093
:102F4000F5CF96F096C095F00001966B0001955173
:102F500086ECB0F015D0010E0001636FD89000012F
:102F60009735F66E00019835F76E970EF626FC0E33
:102F7000F722F86A000EF8220800F55086ECB0F04F
:102F80000001974B982B0001985101E170D7000E7A
:102F90000001616F640E606F26ECAAF0000E000164
:102FA000636F290E86ECB0F0010E47ECA5F0000E21
:102FB0000001616F640E606F26ECAAF0000E000144
:102FC0006A6F000E696F11ECACF01200000120EE88
:102FD00007F07B51D9267C51DA2201D80AD00500AE
:102FE000FA6EDE50FD6EDE50FE6EDE50FF6EFA5061
:102FF00012000001836F7BC0D9FF7CC0DAFF0001A3
:103000008351DE18D8A421D0000120EE01F07B51BD
:10301000D9267C51DA2200017D51DE5CD8B00AD07D
:10302000000120EE01F07B51D9267C51DA22000EFE
:10303000DF6E1200000120EE01F07B51D9267C5199
:10304000DA2200017D51DF5E1200000120EE01F066
:103050007B51D9267C51DA22DF5000017E6F7F6BD5
:1030600000017D5100017E27000E7F23000120EE2C
:1030700001F07B51D9267C51DA22DF500001806FAC
:10308000816B00017E510001805D00018151800A49
:103090000001826F00017F51800A00018259D8B07F
:1030A0001200000120EE01F07B51D9267C51DA227A
:1030B00000017D51DF26000120EE02F07B51D92670
:1030C0007C51DA22000110EE01F07B51E1267C51A7
:1030D000E222E7500001806F816BDE500001805DCD
:1030E000DE5000018159D8A012007BC0D9FF7CC0FE
:1030F000DAFF83C0DFFF000120EE01F07B51D9260B
:103100007C51DA22000EDF6E000120EE04F07B51CC
:10311000D9267C51DA2201D812000500FA6EDE5061
:10312000FD6EDE50FE6EDE50FF6EFA5000018351E0
:103130001200800E0001736F8D0E746F5B0E756F41
:10314000000E766FD59E00016D5100016E110001D9
:103150006F1100017011D8B41200D596D59CD59A84
:10316000D59873C060F074C061F075C062F076C02D
:1031700063F06DC064F06EC065F06FC066F070C043
:1031800067F09BECA0F060C077F061C078F062C09F
:1031900079F063C07AF00CD00001E62B020E00013A
:1031A000E66501D02FD0070E0001E66501D01200C0
:1031B00077C060F078C061F079C062F07AC063F0E7
:1031C0000001E651020D490EF324F66EFD0EF420C7
:1031D000F76EF86A000EF8220900F5CF71F00900C9
:1031E000F5CF72F071C064F072C065F00001666BDB
:1031F000676B9BECA0F000016351CEE1000162051A
:10320000D8B0CAD70001E651020D490EF324F66E7C
:10321000FD0EF420F76EF86A000EF8220800F5CFD4
:10322000E5F0FF0E000177250301106FFF0E00018E
:1032300078210301116FFF0E000179210301126F44
:10324000FF0E00017A210301136F10C360F011C358
:1032500061F012C362F013C363F00001E551000195
:10326000646F656B666B676B9BECA0F00001601F81
:103270000001611F0001604B612BFF0E0001602502
:10328000296EFF0E000161212A6E37ECB2F0D58E57
:103290001200000E0001766F6C0E776FDC0E786FF7
:1032A000020E796F0001D8906D376E376F37703727
:1032B000020E0001716FD8900001793378337733B3
:1032C00076330001712FF7D776C060F077C061F0D8
:1032D00078C062F079C063F06DC064F06EC065F0D4
:1032E0006FC066F070C067F09BECA0F060C07AF031
:1032F00061C07BF062C07CF063C07DF010D0000E36
:103300000001726F000E736F000E746F000E756F08
:103310000001E42B020E0001E46501D026D07AC042
:1033200060F07BC061F07CC062F07DC063F00001A2
:10333000E451010D800EF324F66EFD0EF420F76EBD
:10334000F86A000EF8220800F5500001646F656B02
:10335000666B676B9BECA0F000016351000162118A
:10336000CEE100016105D8B0CAD7CA500001E41906
:10337000FC0BE419CA6ECA845CECB2F00001E451A3
:10338000010D800EF324F66EFD0EF420F76EF86A40
:10339000000EF8220800F5CFE3F0FF0E00017A25B9
:1033A00003010C6FFF0E00017B2103010D6FFF0E67
:1033B00000017C2103010E6FFF0E00017D2103013E
:1033C0000F6F0CC360F00DC361F00EC362F00FC34A
:1033D00063F00001E3510001646F656B666B676B1E
:1033E0009BECA0F0000160510001E46FE4C0CBFF52
:1033F00012001CECAFF0ECECB1F0F5ECB1F0030115
:1034000024510001D027030125510001D1230001DF
:10341000E051D8A404D00001E151D8B406D0000E88
:10342000D8ECB1F0000E96ECADF00001D1BF0BD09E
:103430000001D15105E15B0E0001D05DD8A003D0A1
:10344000000E96ECADF065ECA8F0010E21ECAEF0AC
:103450000009D8B41200FC0E0001756FFF0E0001C8
:10346000766F000E0001786F230E776F51EC92F0AB
:10347000C00E0001756FFF0E0001766FD2C077F0AD
:10348000D3C078F0E0C079F000017A6BE1C07BF046
:1034900000017C6B51EC92F065EC8FF023EE4BF069
:1034A00001D80AD00500FA6EDE50FD6EDE50FE6EC9
:1034B000DE50FF6EFA5012000009D8B440D0000E62
:1034C00000018D6F000E8C6F000E00017A6FC80E28
:1034D000796F78ECB1F025D0ECECB1F00301265116
:1034E00000018C270301275100018D23FC0E0001F0
:1034F000756FFF0E0001766F000E0001786F230ECE
:10350000776F51EC92F0EE0E0001756FFF0E000127
:10351000766F8CC077F08DC078F051EC92F065EC4E
:103520008FF000018DBFD8D7880E00018C5D130E7F
:1035300000018D59D8A0D0D7000E96ECADF04FEC1D
:10354000B1F00009D8B41200A1ECAEF0120023EEE5
:103550004BF001D80AD00500FA6EDE50FD6EDE5049
:10356000FE6EDE50FF6EFA5012000001666F000121
:1035700066510001CE6FCF6B23EE37F001D80AD031
:103580000500FA6EDE50FD6EDE50FE6EDE50FF6E00
:10359000FA5012000001666F000166510001CC6F05
:1035A000CD6B23EE55F001D80AD00500FA6EDE503F
:1035B000FD6EDE50FE6EDE50FF6EFA50120000010E
:1035C000666F000166510001CA6FCB6B23EE41F0BC
:1035D00001D80AD00500FA6EDE50FD6EDE50FE6E98
:1035E000DE50FF6EFA5012000001666F0001665156
:1035F0000001C86FC96B0001CC510001CE2500014C
:10360000666F0001CD510001CF210001676F0001FD
:10361000CA51000166270001CB5100016723000158
:10362000C851000166270001C9510001672300014C
:10363000660500016711D8B406D0000E0301216FA2
:10364000000E206F12000001CE050001CF11D8A49A
:1036500006D0000E0301216F010E206F1200000141
:10366000CC050001CD11D8A406D0000E0301216FB6
:10367000020E206F12000001CA050001CB11D8A470
:1036800006D0000E0301216F030E206F120000010F
:10369000C8050001C911D8A41200000E0301216F52
:1036A000040E206F120051B26CEF9CF0000120EE6E
:1036B00004F0D851D926D951DA22DF5021ECAEF0EE
:1036C0000009D8B47AD0D8C0D9FFD9C0DAFFDE500B
:1036D000DE10D8B46DD0D8C0D9FFD9C0DAFF010E42
:1036E000DBBE26D0010EDB5003E1DE04D8A020D0E3
:1036F000D8C0D9FFD9C0DAFFDE2804E17F0EDE187A
:10370000D8B407D0D8C0D9FFD9C0DAFFDE06000E82
:10371000DD5A960E00016F6F030E0001706F000EF0
:103720000001716F010E0001726F79EC9FF01FD0E4
:10373000D8C0D9FFD9C0DAFFDE0404E1800EDE185C
:10374000D8B407D0D8C0D9FFD9C0DAFFDE2A000E1E
:10375000DD22960E00016F6F030E0001706F000EE8
:103760000001716F000E0001726F79EC9FF0960EF0
:1037700000016F6F030E0001706F010E0001716F89
:10378000010E0001726F79EC9FF0960E00016F6FD1
:10379000030E0001706F010E0001716F000E000139
:1037A000726F79EC9FF04FECB1F03DECB2F012008B
:1037B0004FECB1F06BECB2F01200BFC060F0C0C0D3
:1037C00061F0C1C062F023ECB2F012000001B43528
:1037D000B5350001B76F0001B751D8A40AD0000E6B
:1037E0000001B26F000EB36F000EB46F000EB56F24
:1037F0001200B2C000F1B3C001F1B4C002F1B5C013
:1038000003F1200E06D00101D890033302330133B7
:103810000033E82EF8D7010100510001B66F000116
:10382000B48FFF0E0001B217FF0EB317FF0EB417CF
:10383000000EB517960E0001B75F0001B7AF1AD0A2
:103840000001B751800A970FD8B00AD0000E0001CE
:10385000B26F000EB36F000EB46F000EB56F1200A2
:103860000001D890B533B433B333B2330001B73F5E
:10387000F7D71BD01F0E0001B76512D0000E000154
:10388000B26F000EB36F000EB46F000EB56F120072
:103890000001D890B237B337B437B5370001B70756
:1038A0000001B7510001D8A4F3D70001B6510001BF
:1038B000D8B409D00001B51FB41FB31FB26D000EFC
:1038C000B323B423B523B2C0B2F0B3C0B3F0B4C0D5
:1038D000B4F0B5C0B5F01200000120EE04F0D851EC
:1038E000D926D951DA22DF5071ECAFF00009D8B4F3
:1038F0006AD0D8C0D9FFD9C0DAFFDE50DE10D8B404
:103900005DD0D8C0D9FFD9C0DAFF010EDBBE22D00E
:10391000010EDB5003E1DE04D8A01CD0D8C0D9FFD3
:10392000D9C0DAFFDE2804E17F0EDE18D8B407D054
:10393000D8C0D9FFD9C0DAFFDE06000EDD5A960ED8
:10394000106E030E116E000E126E010E136EB5ECAA
:10395000A2F01BD0D8C0D9FFD9C0DAFFDE0404E141
:10396000800EDE18D8B407D0D8C0D9FFD9C0DAFF8E
:10397000DE2A000EDD22960E106E030E116E000E72
:10398000126E000E136EB5ECA2F0960E106E030EC2
:10399000116E010E126E010E136EB5ECA2F0960EB2
:1039A000106E030E116E010E126E000E136EB5EC4A
:1039B000A2F077ECB2F043ECB2F0120077ECB2F088
:1039C00074ECB2F01200BFC001F0C0C002F0C1C080
:1039D00003F02AECB2F012000001656F57D061C00D
:1039E00036F0ACECA6F0120061C035F0120061C0F8
:1039F00034F0120061C033F0120061C032F01200E6
:103A000061C031F0120061C030F01200000162515B
:103A10000001D8A405D061C008F30301096B1200AE
:103A200061C00AF303010B6B030108510001646FCD
:103A3000636B03010A51000163250301266F030133
:103A40000B51000164210301276F12000001625134
:103A50000001D8A405D061C004F30301056B120076
:103A600061C006F30301076B030104510001646F99
:103A7000636B03010651000163250301246F0301F9
:103A80000751000164210301256F120000016551F7
:103A9000070AD8B4A4D70F0AD8B4A6D7010AD8B455
:103AA000A6D7030AD8B4A6D7010AD8B4A6D7070A5E
:103AB000D8B4A6D7010AD8B4A6D71E0AD8B4A6D7B8
:103AC000070AD8A41200C2D76CC074F06DC075F09C
:103AD000000E0001736F000E726F6EC070F06FC049
:103AE00071F00001745100017511D8A434D070C078
:103AF000D9FF71C0DAFF300EDF6E000E0001736F68
:103B0000010E726F40D074C067F075C068F0000E8F
:103B100000016A6F0A0E696F28ECABF00001675173
:103B2000300F70C0D9FF71C0DAFFDF6E74C060F073
:103B300075C061F0000E0001636F0A0E626FEEEC5B
:103B4000A7F060C074F061C075F00001724B732B78
:103B50000001704B712B0001745100017511D8B434
:103B600008D00001735105E1060E0001725DD8A076
:103B7000CAD76EC060F06FC061F072C062F073C0EF
:103B800063F085ECA9F00001725100016E25D96E39
:103B90000001735100016F21DA6E000EDF6E12001A
:103BA000000E0001A66F000EA76F800EA86F440ED6
:103BB000A96F330E0001AA6F330EAB6F530EAC6FBB
:103BC000400EAD6F000120EE01F0A051D926A151A9
:103BD000DA22DECFA4F0DDCFA5F0A4C060F0A5C04E
:103BE00061F00001626B636B000E6AEC91F060C0E3
:103BF000AEF061C0AFF062C0B0F063C0B1F0AEC073
:103C00006EF0AFC06FF0B0C070F0B1C071F0A6C080
:103C100072F0A7C073F0A8C074F0A9C075F06EEC84
:103C200086F06EC0AEF06FC0AFF070C0B0F071C083
:103C3000B1F0AEC087F0AFC088F0B0C089F0B1C0BD
:103C40008AF0AAC08BF0ABC08CF0ACC08DF0ADC0D8
:103C50008EF000EC80F087C0AEF088C0AFF089C075
:103C6000B0F08AC0B1F0AEC0A0F0AFC0A1F0B0C05B
:103C7000A2F0B1C0A3F012008DC0D9FF8EC0DAFF50
:103C8000000EDE6E000EDD6E000120EE02F08D51A2
:103C9000D9268E51DA22000EDE6E000EDD6E000196
:103CA00020EE04F08D51D9268E51DA228FC0DEFF2E
:103CB00090C0DDFF960E0001866F030E0001876F36
:103CC000000E0001886F030E0001896F32EC93F043
:103CD000960E0001866F030E0001876F010E000132
:103CE000886F030E0001896F32EC93F0960E00018D
:103CF0006F6F030E0001706F000E0001716F000EF8
:103D00000001726F79EC9FF0960E00016F6F030E49
:103D10000001706F010E0001716F000E0001726FE3
:103D200079EC9FF0A60E0001BF6F360E0001C06F48
:103D3000010E0001C16FE80E00016D6F030E6E6F82
:103D4000000E6F6F000E706F99EC98F0120000017A
:103D50009B5100019C11D8B4120000019F51000139
:103D6000A0110001A111D8B412000001A25100015C
:103D7000A3110001A411D8B412000001A551000143
:103D8000A6110001A711D8B4120000019D51000135
:103D90009E11D8A405D0000E00019E6F010E9D6FEC
:103DA0009BC0D9FF9CC0DAFF000EDF6E000120EE41
:103DB00001F09B51D9269C51DA22000EDF6E0001E2
:103DC00020EE02F09B51D9269C51DA229DC0DEFFE5
:103DD0009EC0DDFF000120EE04F09B51D9269C51CE
:103DE000DA22A5C0DEFFA6C0DEFFA7C0DEFF00010D
:103DF00020EE07F09B51D9269C51DA22A2C0DEFFAB
:103E0000A3C0DEFFA4C0DEFF01D812000500FA6ED9
:103E100000019F51FD6EA051FE6EA151FF6EFA5040
:103E2000120000016B6F200E00016B5F00016B51EF
:103E3000050DF3CF69F0F4CF6AF0830E0001692518
:103E400000016C6FFD0E00016A2100016D6F000E14
:103E50000001706F040E0001706501D043D0000EA8
:103E60000001716F060E0001716501D035D06CC084
:103E700060F06DC061F071C062F08CECAFF00009D1
:103E8000D8A405D0DCC06EF0DDC06FF004D0FDC05A
:103E90006EF0FEC06FF0000171510A0D820E00013C
:103EA000676F040E0001686FF35000016727F4503C
:103EB0000001682300017051020DF35000016725D5
:103EC000D96EF45000016821DA6E6EC0DEFF6FC05B
:103ED000DDFF0001712BC6D700016C4B6D2B00017B
:103EE000702BB8D7820E0001656F040E0001666F5B
:103EF0001200080E00016F2500016C6F000E00011A
:103F0000702100016D6F71C06EF0DFECAEF000014A
:103F1000736F42D0010E00017217000120EE02F013
:103F20006F51D9267051DA22DECF60F0DDCF61F01B
:103F300071C062F072C063F0F6ECAAF01200010EDC
:103F400000017217010E0001721B000120EE02F049
:103F50006F51D9267051DA22DECF60F0DDCF61F0EB
:103F600071C062F072C063F0F6ECAAF01200010EAC
:103F700000017217000120EE04F06F51D926705134
:103F8000DA22DECF60F0DDCF61F071C062F072C086
:103F900063F0F6ECAAF0120000017351000AD8B4E5
:103FA0001200010AD8B4B6D7030AD8B4C8D7010A98
:103FB000D8A41200DCD7000E00016E6FFA0E472461
:103FC0000001606FFF0E48200001616F000E0001CC
:103FD000636F060E626F3CECA0F0000160510001BF
:103FE0006F6F6FC060F00001616B000E0001636FC6
:103FF000040E626F3CECA0F00001605100016D6F97
:10400000000E00016E6F06D042ECAEF0C3ECAAF0D9
:1040100000016E2B00016D51040DF31EF41EF34AD6
:10402000F42A00016F510001686F696BF3500001C1
:104030006827F450000169230001681F691F684B5D
:10404000692B040E00016827000E692300016E51E0
:1040500000016A6F6B6B0001685100016A5D00012D
:104060006B51800A00016C6F00016951800A0001E8
:104070006C59D8B01200C8D7000E0001656F00015E
:1040800063AF08D00001626D631FD8B0632B010ECF
:104090000001656F000161AF08D00001606D611F14
:1040A000D8B0612B010E0001651B000E0001676F87
:1040B000000E666F0001625100016311D8B42CD06C
:1040C000010E0001646F06D00001D890623763379B
:1040D0000001642B000163AFF7D70001D890663769
:1040E0006737000162510001605D0001635100010A
:1040F0006159D8A00AD0000162510001605F00013F
:1041000063510001615B000166810001D890633357
:1041100062330001642FE1D7000165510001D8B47A
:1041200005D00001666D671FD8B0672B66C060F0D0
:1041300067C061F01200000E0001686F000E696F29
:10414000000E6A6F000E6B6F000164510001651173
:104150000001661100016711D8B442D0010E0001C0
:104160006C6F08D00001D8906437653766376737C1
:1041700000016C2B000167AFF5D70001D8906837BC
:1041800069376A376B37000164510001605D0001D7
:104190006551000161590001665100016259000139
:1041A000675100016359D8A012D000016451000189
:1041B000605F000165510001615B00016651000113
:1041C000625B000167510001635B000168810001CF
:1041D000D890673366336533643300016C2FCDD7D5
:1041E00068C060F069C061F06AC062F06BC063F0E3
:1041F0001200000E0001656F000E646F38D0280EAB
:1042000000016425D96E030E00016521DA6E61C0DC
:10421000E1FF62C0E2FFE750E3EC8BF0DF6E280EB7
:1042200000016425D96E030E00016521DA6E800E4F
:10423000DE18D8A40ED000016407D8A06507280EA8
:1042400000016425D96E030E00016521DA6E000EAF
:10425000DB8E0001614B622B0001644B652B00017A
:1042600065511AE1060E0001645DD8B015D061C039
:10427000D9FF62C0DAFFDF50D8B40ED0C0D7280E05
:1042800000016425D96E030E00016521DA6E000E6F
:10429000DF6E0001644B652B0001655106E1060EDF
:1042A0000001645DD8B01200EAD712000001645129
:1042B000010D730EF324F66EFD0EF420F76EF86A0E
:1042C000000EF8220800F5CF6AF0000E0001696FB9
:1042D00006D0000162510001635F0001692B0001FB
:1042E00062510001635DD8B0F4D700016451000150
:1042F0006303F350636F00016951000163270001FC
:104300006A510001651763C066F06AC067F000017A
:10431000662B03D00001D89067370001662FFAD7CB
:1043200000016751FF0A0001686F60C0D9FF61C0DA
:10433000DAFF00016851DF1663C066F065C067F000
:104340000001662B03D00001D89067370001662F6B
:10435000FAD760C0D9FF61C0DAFF00016751DF12F0
:1043600012000001786F70C060F071C061F0FFEC66
:10437000ADF060C070F061C071F072C060F073C0E9
:1043800061F0FFECADF060C072F061C073F000014D
:1043900078510001D8B429D0000E0001616F890E58
:1043A000606F71C074F00001756B74BF75690001B6
:1043B00074510001626F636B000170510001646F02
:1043C000656B73C076F00001776B76BF776900018B
:1043D00076510001666F676B000172510001686FD2
:1043E000696B050EF1ECA9F01200890E15ECB2F024
:1043F0000001715115ECB2F00001705115ECB2F0F2
:104400000001735115ECB2F00001725115ECB2F0DD
:104410001200620EF66E640EF76E010EF86E03EE79
:10442000ECF010EE0CF00900F5CFEEFFE550E15096
:10443000FAE1C80EF66E640EF76E010EF86E00EE2D
:10444000F9F010EE07F00900F5CFEEFFE550E1506E
:10445000FAE1920EF66E640EF76E010EF86E00EE43
:1044600047F010EE0AF00900F5CFEEFFE550E150FD
:10447000FAE104EECAF011EE2CF0EE6AE550E150DC
:10448000FCE1E250FAE104EE00F0C80EEE6AE80644
:10449000FDE103EE00F0EC0EEE6AE806FDE100EE51
:1044A000B9F0400EEE6AE806FDE100EE29F01E0EBE
:1044B000EE6AE806FDE15190519200013DEFACF04B
:1044C0000001686F020E00016527020E00016727D8
:1044D000030E00016827030E00016627000E00018D
:1044E000636F2A0E86ECB0F0010E0001636F000EC0
:1044F00086ECB0F0010E0001636F0001685186EC9C
:10450000B0F0010E0001636F000E86ECB0F0010EFA
:104510000001636F0001665186ECB0F0000E0001EF
:10452000636F2B0E86ECB0F0010E0001636F000E7E
:1045300086ECB0F0010E0001636F0001655186EC5E
:10454000B0F0010E0001636F000E86ECB0F0010EBA
:104550000001636F0001675186ECB0F0000E0001AE
:10456000636F2C0E86ECB0F01200080E10240D6E56
:10457000000E11200E6E12C00FF0EFECAFF0146EB3
:104580003BD0010E131620EE02F01050D926115028
:10459000DA22DECF01F0DDCF02F012C003F013C04B
:1045A00004F0DFECACF01200010E1316010E131A2A
:1045B00020EE02F01050D9261150DA22DECF01F0A1
:1045C000DDCF02F012C003F013C004F0DFECACF05A
:1045D0001200010E131620EE04F01050D9261150CF
:1045E000DA22DECF01F0DDCF02F012C003F013C0FB
:1045F00004F0DFECACF012001450000AD8B4120042
:10460000010AD8B4BED7030AD8B4CED7010AD8A4B9
:104610001200DFD76DEC96F053ECB2F0010EC0EC57
:10462000AEF00009D8B40CD022ECA6F06DEC90F0FE
:104630002DEC97F04FECB1F00009D8A4A1ECAEF04E
:10464000080EC0ECAEF00009D8B413D0CF0E0001B4
:104650008D6F030E00018E6F000E0001906F080E2B
:104660008F6F3CEC9EF04FECB1F00009D8A4A1ECA8
:10467000AEF0F40E0001646F000E0001656F000ED5
:104680000001666FB1ECA7F0F40E0001626F000E3E
:104690000001636FF0ECA6F0D8ECB0F00EECB2F0D5
:1046A0000A0E41ECB1F0B9ECB0F0000E0001616F00
:1046B000140E606F26ECAAF012000001626F38D071
:1046C000920E0001606F0F0E0001616F1200930ED9
:1046D0000001606F0F0E0001616F1200940E000167
:1046E000606F0F0E0001616F1200950E0001606F88
:1046F0000F0E0001616F1200960E0001606F0F0E29
:104700000001616F1200970E0001606F0F0E000133
:10471000616F1200980E0001606F0F0E0001616F53
:104720001200000E0001606F000E0001616F1200A8
:1047300000016251000AD8B4C3D7010AD8B4C7D760
:10474000030AD8B4CBD7010AD8B4CFD7070AD8B454
:10475000D3D7010AD8B4D7D7030AD8B4DBD7E1D767
:104760000001626F38D06F0E0001606FFF0E000114
:10477000616F12006D0E0001606FFF0E0001616F2E
:1047800012006B0E0001606FFF0E0001616F1200DE
:10479000690E0001606FFF0E0001616F1200670E6D
:1047A0000001606FFF0E0001616F1200650E0001D5
:1047B000606FFF0E0001616F1200630E0001606FF9
:1047C000FF0E0001616F1200000E0001606F000E0D
:1047D0000001616F120000016251000AD8B4C3D712
:1047E000010AD8B4C7D7030AD8B4CBD7010AD8B4C2
:1047F000CFD7070AD8B4D3D7010AD8B4D7D7030A7A
:10480000D8B4DBD7E1D70001626F38D0800E000149
:10481000606F0F0E0001616F1200810E0001606F6A
:104820000F0E0001616F1200820E0001606F0F0E0B
:104830000001616F1200830E0001606F0F0E000116
:10484000616F1200840E0001606F0F0E0001616F36
:104850001200850E0001606F0F0E0001616F1200E3
:10486000860E0001606F0F0E0001616F1200000ED6
:104870000001606F000E0001616F120000016251C3
:10488000000AD8B4C3D7010AD8B4C7D7030AD8B42A
:10489000CBD7010AD8B4CFD7070AD8B4D3D7010AE7
:1048A000D8B4D7D7030AD8B4DBD7E1D7000E0001BC
:1048B000826F00017451000178250001806F0001B2
:1048C000765100017A250001816F7AC060F07BC0CB
:1048D00061F078C062F079C063F056ECAFF060C070
:1048E0007EF061C07FF076C065F0000180050001B8
:1048F000666F000181050001676F0001745160EC73
:10490000A2F0000E0001826F13D000018251020D4F
:10491000F35000017225D96EF45000017321DA6E54
:10492000DECF65F0DDCF66F0E7ECB0F00001822B62
:104930000001825100017C6F7D6B00017E510001FE
:104940007C5D00017F5100017D59D8B01200DDD798
:104950003ED00001E751140DCA0E0001606F040E35
:104960000001616FF35000016027F45000016123E2
:104970000001E851010DF35000016025D96EF4509B
:1049800000016121DA6EDF50D8B41FD0010E0001A2
:10499000FF6F0001E751140DCA0E0001606F040E95
:1049A0000001616FF35000016027F45000016123A2
:1049B0000001E851010DF35000016025D96EF4505B
:1049C00000016121DA6E800EDF6E0001E82B130E0C
:1049D0000001E865BED7000E0001E86F0001E72B7B
:1049E000080E4926000E4A22000E486E060E476E3B
:1049F000120060C0F6FF61C0F7FF000EF86E0F0EE8
:104A0000F76403D00800F55005D0F6CFE9FFF7CFE3
:104A1000EAFFEF500001686F00016451010D730E51
:104A2000F324F66EFD0EF420F76EF86A000EF822FD
:104A30000800F5CF66F0000E0001676F06D0000198
:104A400062510001635F0001672B000162510001A8
:104A5000635DD8B0F4D70001645100016303F350E3
:104A6000636F0001675100016327000163290001A2
:104A7000656F03D00001D89068330001652FFAD725
:104A80000001665100016817000168511200000121
:104A9000656F000E0001666F000E0001636F360E39
:104AA00086ECB0F000016551030B0001666F2CD05D
:104AB000010E0001636FC80E86ECB0F0800E506EE0
:104AC000800E4F6E1200010E0001636FA80E86EC7F
:104AD000B0F0800E506E800E4F6E1200010E00017D
:104AE000636F080E86ECB0F0800E506E800E4F6E35
:104AF0001200010E0001636F680E86ECB0F0800EAC
:104B0000506E800E4F6E120000016651000AD8B43C
:104B1000CFD7010AD8B4D7D7030AD8B4DFD7010A50
:104B2000D8A41200E6D70001666F7C0EF66EFD0E6B
:104B3000F76E000EF86E0900F5CF62F00900F5CFB0
:104B400063F00900F5CF64F00A00F5CF65F0110EAF
:104B50000001676F030E0001661700016651010D29
:104B6000620EF324D96E000EF420DA6EDF500001DD
:104B7000606F67C061F00001602B03D00001D89026
:104B800061370001602FFAD7000161510001676FA2
:104B9000000167390F0B0001676F000167510F0BB0
:104BA0000001676F03012E5100016719F00B6719AF
:104BB00003012E6F1200000E0001E86F000E0001CD
:104BC000E76F000E0001636F0E0E0001636501D0F8
:104BD0002DD0000E0001626F130E0001626501D03E
:104BE00022D0010E0001FF6F00016351140DCA0EA7
:104BF0000001606F040E0001616FF3500001602737
:104C0000F4500001612300016251010DF3500001D5
:104C10006025D96EF45000016121DA6E800EDF6EDE
:104C20000001622BD9D70001632BCED7010E000102
:104C3000E96F000E486E060E476E000E4A6E060EB5
:104C4000496E1200000E0001E86F000E0001E76FD0
:104C5000000E0001626F130E0001626501D01200A8
:104C6000000E0001636F0E0E0001636501D02CD0B1
:104C700000016351140DCA0E0001606F040E0001A3
:104C8000616FF35000016027F450000161230001BF
:104C90006251010DF35000016025D96EF4500001FE
:104CA0006121DA6E000EDF6E00016351020D000E0D
:104CB000F324D96E040EF420DA6EFF0EDE6EFF0EC2
:104CC000DD6E0001632BCFD70001622BC4D700013A
:104CD000606F000E0001616F010E02D0000E0CD05B
:104CE0000001626F2DD0040E07D0010E05D0050E15
:104CF00003D0020E01D0060E0001616F000EF0D746
:104D0000020E0001606503D00001600719D0020E99
:104D10000001606F15D000016051020AD8B4DED7DF
:104D2000060AD8B4E0D70C0AD8B4DFD7180AD8B42A
:104D3000DED7300AD8B4DDD7600AD8B4DCD7E0D7E4
:104D4000000162510001D8A4E6D7C15000016119E9
:104D5000F80B6119C16E120036A002D0010E01D00D
:104D6000000E0001E16F36C060F00001D8906033A2
:104D7000000160A102D0010E01D0000E0001E06F21
:104D800036C060F00001D89060330001D8906033E5
:104D9000000160A102D0010E01D0000E2F6E36C0BE
:104DA00060F00001D89060330001D89060330001BA
:104DB000D8906033000160A102D0010E01D0000E36
:104DC0002E6E36C060F00001603B0F0E60170001D0
:104DD00060A103D0010E2D6E1200000E2D6E120088
:104DE000C2B2120060ECB2F062C0D9FF63C0DAFF59
:104DF000DF505DECB1F071ECB2F0C282C2B2FED70E
:104E0000C350C4CF64F00001656B64C065F000015D
:104E1000646B00016413000E6513000120EE01F0C5
:104E20006251D9266351DA2264C0DEFF65C0DDFF1E
:104E3000000120EE03F06251D9266351DA22DE50E0
:104E4000DE10D8B40CD0000120EE03F06251D92658
:104E50006351DA22DECF62F0DDCF63F0C3D760ECBE
:104E6000B2F012000001666F090E000163611200CA
:104E700066C03FF0000E3D6E070E3D6401D027D0A6
:104E80003FC064F0010E00016417060E0001656F5B
:104E90000001D89064370001652FFAD700016451F2
:104EA0003E6E00016339E842F80B3D103E100001F0
:104EB000676FD8903F32620E0001606F030E0001F1
:104EC000616F67C062F0BBECA9F03D2AD5D7620ED6
:104ED0000001606F030E0001616F000E0001626F40
:104EE000BBECA9F01200590EF66EFD0EF76E000E27
:104EF000F86E20EE75F00F0E0900F5CFDEFFE80624
:104F0000FBE26FC06CF070C06DF072C06EF0DFEC51
:104F1000AEF00001856F040E0001716120D0040E17
:104F2000000185611CD000017151040D750E000156
:104F3000736F000E0001746FF35000017327F4507B
:104F40000001742300018551010DF3500001732508
:104F5000D96EF45000017421DA6EDF501200050E94
:104F600012000001645100016511D8B4120064C040
:104F7000DAF065C0DBF064C0D9FF65C0DAFF66C057
:104F8000DFFF000120EE03F06451D9266551DA22DB
:104F9000000EDE6E000EDD6E000120EE01F06451A9
:104FA000D9266551DA22000EDE6E000EDD6E00019C
:104FB00066515DECB1F0C29EC29CC18EC18C0C0EDC
:104FC00072ECADF0100E67ECA6F000016651A6EC95
:104FD000AFF0010E3C6EE2ECB1F01200000E0001E9
:104FE000666F000E656F0001625100016311D8B455
:104FF0002CD0010E0001646F06D00001D8906237FA
:1050000063370001642B000163AFF7D70001D8902C
:1050100065376637000162510001605D0001635130
:1050200000016159D8A00AD0000162510001605FFF
:10503000000163510001615B000165810001D890AE
:10504000633362330001642FE1D765C060F066C04E
:1050500061F0120001C0F6FF02C0F7FF000EF86E0B
:105060000F0EF76403D00800F55005D0F6CFE9FF26
:10507000F7CFEAFFEF50096E0550010D730EF324D0
:10508000F66EFD0EF420F76EF86A000EF8220800A6
:10509000F5CF07F0000E086E03D00350045E082A17
:1050A0000350045CD8B0F9D705500402F350046EE5
:1050B000085004260428066E02D0D8900932062E25
:1050C000FCD70750091609501200FC0E966E580EB8
:1050D00000017B6F030E00017C6F010E00017D6FEC
:1050E000E6EC97F03A0E00017B6F030E00017C6F37
:1050F000010E00017D6FE6EC97F0300E00017B6F32
:10510000030E00017C6F010E00017D6FE6EC97F04D
:10511000440E00017B6F030E00017C6F010E000145
:105120007D6FE6EC97F04E0E00017B6F030E0001E1
:105130007C6F010E00017D6FE6EC97F01200000E0F
:105140000001756F000E0001766F6DC065F0000103
:105150006B5100016F250001736F000173050001A1
:10516000666F00016D51000171250001746F00012F
:1051700074050001676F00016B5160ECA2F071C013
:1051800076F0000176510001D8B412006FC075F0BE
:10519000000175510001D8B409D069C065F06AC03A
:1051A00066F0E7ECB0F000017507F2D70001760772
:1051B000E8D7000120EE06F06F51D9267051DA22AF
:1051C000DECF60F0DDCF61F0050E0001626F000EF2
:1051D0000001636FF6ECAAF0000120EE06F06F51BB
:1051E000D9267051DA22DECF6BF0DDCF6CF0000EE5
:1051F00000016D6F000E00016E6FA8ECB0F00001B1
:1052000020EE06F06F51D9267051DA22DECF60F021
:10521000DDCF61F0050E0001626F010E0001636FCA
:10522000F6ECAAF01200000120EE06F06F51D9262C
:105230007051DA22DECF60F0DDCF61F0050E0001A3
:10524000626F000E0001636FF6ECAAF0000120EE21
:1052500006F06F51D9267051DA22DECF6BF0DDCF28
:105260006CF0000E00016D6F020E00016E6FA8EC75
:10527000B0F0000120EE06F06F51D9267051DA220D
:10528000DECF60F0DDCF61F0050E0001626F010E30
:105290000001636FF6ECAAF01200BE0E0001866FEB
:1052A000030E0001876F070E0001886F030E0001D7
:1052B000896F32EC93F0BE0E0001866F030E000181
:1052C000876F060E0001886F030E0001896F32ECB4
:1052D00093F0B7ECACF0C00E00018D6FC60E8E6F70
:1052E0002D0E8F6F000E906F010E0001916F010E59
:1052F0000001926F53EC82F06D0E00016F6F030E90
:105300000001706FD9ECA8F0120000016251000199
:1053100060250001656F00016351000161210001FA
:10532000666F1AD060C0D9FF61C0DAFFDF5000019C
:10533000646F65C0D9FF66C0DAFF60C0E1FF61C07D
:10534000E2FFDFCFE7FF0001604B612B65C0D9FFB3
:1053500066C0DAFF64C0DFFF00016507D8A06607FA
:10536000000165510001605D000166510001615955
:10537000D8B01200D7D726D0EEC0D9FFEFC0DAFFE1
:105380000001DF9462C0C9FFC7A0FED7C9CF62F099
:10539000EEC0D9FFEFC0DAFF0001DF841200A4C322
:1053A000D9FFA5C3DAFF0301DF9E62C06FFF6DA0C6
:1053B000FED76FCF62F0A4C3D9FFA5C3DAFF030104
:1053C000DF8E1200000120EE02F06051D9266151FB
:1053D000DA22DF50000AD8B4CFD7010AD8A41200CD
:1053E000DED700016E6F600E00016C6F000E0001D1
:1053F0006D6F000E00016F6F1FD06CC0D9FF6DC0C4
:10540000DAFF00016F5137C06AF000016B6B0001D9
:105410006A27000E6B231E0E00016A25E16E040E42
:1054200000016B21E26EDFCFE7FF020E00016C2767
:10543000000E6D2300016F2B00016E5100016F5DA6
:10544000D8A0DBD700016E51372612001FD0000E06
:105450000001626F000E636F000E646F000E656FD7
:10546000000165510001641111E1B00E0001625D9F
:10547000040E00016359D8B009D000F0010E0001FC
:105480006227000E632364236523EAD700016007C7
:10549000D8A0610700016029DAE100016129D8A4E0
:1054A000D6D7080E0001626F800E636F000E646F26
:1054B000000E656F1200050E00018C6F86C0D9FFCB
:1054C00087C0DAFFDECF8DF0DDCF8EF0000188518E
:1054D000020DF3CF8AF000018851020DF32800017C
:1054E0008B6F8DC06FF08EC070F089C071F08AC074
:1054F00072F073ECA7F000018C6F00018C51D8A4FE
:105500000CD08DC06FF08EC070F089C071F08BC070
:1055100072F073ECA7F000018C6F00018C51120047
:105520000001606F12D0010E1200010E1200010E78
:105530001200010E1200010E1200010E1200010EE7
:105540001200020E1200020E120000016051070A42
:10555000D8B4E9D70F0AD8B4E8D7010AD8B4E7D746
:10556000030AD8B4E6D7010AD8B4E5D7070AD8B4F5
:10557000E4D7010AD8B4E3D71E0AD8B4E2D7070AA1
:10558000D8A41200E0D70001E82B060E4726000E33
:105590004822060E47240001646F000E48200001D7
:1055A000656F000165BF09D00001655104E1800EFF
:1055B0000001645DD8B0A8ECA4F0080E49240001F5
:1055C000646F000E4A200001656F000165BF0CD0BA
:1055D0000001655105E1800E0001645DD8A004D092
:1055E000DBECA5F0010E1200000E1200010E00010E
:1055F000631762C064F0010E0001656F0001642B47
:1056000003D00001D89065370001642FFAD700015C
:105610006551FF0A0001666F60C0D9FF61C0DAFF03
:1056200000016651DF1662C064F063C065F00001DE
:10563000642B03D00001D89065370001642FFAD79E
:1056400060C0D9FF61C0DAFF00016551DF121200AE
:105650000001695100016A11D8B426D0010E000181
:105660006B6F06D00001D89069376A3700016B2B49
:1056700000016AAFF7D7000169510001675D0001C1
:105680006A5100016859D8A008D000016951000191
:10569000675F00016A510001685B0001D8906A33BE
:1056A000693300016B2FE7D767C067F068C068F007
:1056B000120000018D6F1ED0EA0E0001866F000EF1
