:100000000DEF04F026EF00F004EF0AF0D1EC04F05D
:10001000FF0000F000F012000CEF0AF018EF00F003
:10003000F26AFC6A9BEC04F004009EEC09F0D8EC38
:1000400003F0F3EC03F05EEC08F0F6D701501F0B61
:10005000E80601E01200055001E01200060E021849
:1000600014E01AD0020E3D6E4A0E3FD8306A090ED7
:100070000AD0020E3D6E450402E1870E36D84504D3
:100080000AE1306A1D0E2F6E06D00450210AEAE004
:10009000030AEFE0010A42820138E832030BE80666
:1000A00014E01200020E3D6E440E206E24D0020EAB
:1000B0003D6E04C044F0020C020E3D6E430EF5D7B7
:1000C000020E3D6E03C043F0020C0250010AD8B488
:1000D0001200030AE7E0010AEFE00A0AD8B41200AE
:1000E000030AE5E0010AECE01200206E2050D8A4DB
:1000F000100E216E1200216A4292010E2F6E010C29
:100100004F6A140E506E516A296A2A6A4FC0F6FF70
:1001100050C0F7FF51C0F8FF42D80800F5CFDFFF0D
:100120004F2A000E50225122294A2A2A040E2A5C04
:10013000EDE30D0EE8CFB2F4600EE8CFB3F4000E9D
:10014000496E050E486E0AEC03F04F68170E506EAC
:10015000516A030E2A6E296851C0F8FF50C0F7FF9C
:100160004FC0F6FF1CD8DF50F56E0C0029C04EF0D2
:100170003F0E4E1607E1FEEC09F0040EA66EB50E1A
:1001800067EC04F04F06000E505A515A0A002950ED
:100190002A1001E112002906D8A02A06DDD7AC0EEC
:1001A0002924D96E040E2A20DA6E120003040BE112
:1001B00001501F0B08E1010E3D6E030E021802E113
:1001C000428001D042900350D8A4120001501F0B6E
:1001D000020AD8A4120005500F0BD8B4120028D878
:1001E000476A040E486E4726000E4822F350472601
:1001F000F450482223D847241D6EF45048201E6E28
:10020000030E021805E10FD8040EDF6E0CD81CD0C7
:1002100005AE04D008D8400EDF6E400C04D8080E9E
:10022000DF6E01D811D01DC0D9FF1EC0DAFF120049
:10023000010E3D6E05500F0B080D1200010E05AEAC
:10024000000E040DF3501200000EDB8E000C3D502A
:1002500010E193EC03F0196E3A0405E1010E32EC63
:1002600003F03A6A1200000E32EC03F0010E3A6E0F
:10027000010C01AE1BD0010E3E6E2F50075C3050BA
:10028000085804E207C02FF008C030F076EC01F007
:10029000480E196E010E32EC03F0000E32EC03F042
:1002A000240E04010A6F040E0B6F1CD0020E3E6E6A
:1002B000040E196E0750081002E1480E196E3A0438
:1002C00005E1010E32EC03F03A6A05D0000E32EC83
:1002D00003F0010E3A6E07500810D8A41200040172
:1002E000096B00D0480E086F088F480C080E326E5C
:1002F00030500DE1080E2F5C0AE22FC032F0405062
:1003000002E1010E03D0400402E1020E406E32C051
:1003100009F432502F5E000E305A240E1D6E040E6A
:100320001E6E42A21AD00BD01BD813EC01F00F0E98
:10033000F76403D00800F55001D019D81ED8325008
:10034000F3E112000DD813EC01F00F0EF76403D0A7
:100350000800F55001D00BD810D83250F3E112004C
:1003600020C0F6FF21C0F7FF000EF86E1200F6CF96
:10037000E1FFF7CFE2FFE7501200DF6E1D4A1E2AB1
:10038000204A212A320612000138E832030B18E015
:100390001200010E3D6E040E416E040C010E3D6E06
:1003A000450E206E7BEF00F02CD8496E49C020F03E
:1003B0007BEF00F026D8D96EDA6A03C0DFFF1200A7
:1003C000025002E179EF02F0010A02E1D6EF00F0FB
:1003D000020A02E1D6EF00F0060ADBE0030A02E1BE
:1003E00006EF02F0010AD8B412000F0AD7E0010AA2
:1003F00002E155EF03F0030AD7E0010ADBE0070A48
:100400001200010E3D6E0550460F1200800E0118BD
:1004100030E01200010E3D6EA40E75EC00F0120EDD
:1004200009D003502DE1010E3D6E380E75EC00F041
:10043000306A290E2F6E24D0010E3D6E0350010F3D
:10044000476E47C0F6FF100EF76E000EF86E0900FB
:10045000F5CF20F0100E216EB0EC01F00F0EF76416
:1004600003D00800F55002D0B7EC01F02F6E306ACF
:1004700007D00450010ACEE0030AD3E0010ADCE011
:1004800042821200366A27D03850486E000E48BEAD
:10049000FF0E496E4A6E4B6E4850155C0D6E49500A
:1004A00016580E6E4A5017580F6E4B501858106E53
:1004B0000FC0F8FF0EC0F7FF0DC0F6FF11D80D00FA
:1004C000362A0ED80C00362A240EA66EB50E67EC1E
:1004D00004F0FE0E38263850800A7F0FD5E2120055
:1004E000AC0E3624D96EDA6A040EDA22DF50F56ECD
:1004F0001200246B256B22D0010E3D6E42B0248386
:1005000024D0010E3D6E21D018EC01F0476A040E94
:10051000486E4726000E4822F3504726F4504822E2
:100520001EEC01F047241D6EF45048201E6E13ECA3
:1005300001F0DFA40AD0010E246F07D001501F0B79
:10054000DBE0010ADEE0030ADFE03D04D8A412008C
:10055000240E206E040E216E4292020E2F6E020CAB
:10056000400E486401D0486E4A6A0DD047504A2474
:10057000D96EDA6A6C0E4A24E16EE26A040EE22257
:10058000DFCFE7FF4A2A48504A5CF0E348C011F445
:10059000400E0401101710BD03D0496A492A01D04A
:1005A000496A493A49464946040110514918BF0B66
:1005B0004918106F1087108F12003F6A0CBF12008D
:1005C00048500D5D02E20DC448F03F6A0BD02C0E7E
:1005D0003F24D96EDA6A040EDA2247503F24F9EC40
:1005E00009F03F2A48503F5CF2E3400E0D6F0C17B4
:1005F0000CBD03D0496A492A01D0496A493A4946A3
:10060000494604010C514918BF0B49180C6F0C875F
:100610000C8F1200495006E1050E485C03E2496A5E
:10062000050E486E48504A6E49504B6E4C6A4D6AF2
:100630000A0ED8904A364B364C364D36E82EF9D74E
:100640004AC009F04BC00AF04CC00BF04DC00CF092
:100650000BC0F8FF0AC0F7FFF66A140EA66EB50EBF
:1006600067EF04F0476E080E1A6E1C0E1B6E040E28
:100670001C6E475006E1140E1B6E040E1C6E256A9C
:1006800002D0040E256E266E0BD819C0DEFF1AC0EC
:10069000DEFF1BC0DEFF1CC0DEFF02D8DF8E1200B3
:1006A00025C0D9FF26C0DAFF1200010E3D6E0F01F2
:1006B00016D8346A3450460FD96EDA6ADF6A342AA3
:1006C0003450F8E003C045F04550C9EC04F0035045
:1006D00003E1050E416E050C060E416E060C4D6BD6
:1006E0004E6B4F6B506B516B526B536B1200040E81
:1006F000411808E103C05EFF0F015E51050ED8B43A
:10070000030E416E3E04D8A4120076EC01F0020EF6
:10071000401802E108D8040C0401480E08BD080E78
:10072000086F088F1200040E0401086F088F040C74
:10073000030E416E0F015D6B626A7B0E5C6F5E6B38
:100740006FEC03F0160E4C6F658C03D06296FEECD6
:1007500009F062B6FBD7659C6598040E196E000E11
:1007600032EC03F0010E3A6E426A456A000EC9EFA0
:1007700004F081B818EC00F0060EF66E14D80D0ED9
:10078000F5180DE10900600EF51809E1F66A0BD8BD
:10079000F52803E10900F52802E000EF0AF018EC63
:1007A00000F000EF00F0140EF76EF86A0900140C68
:1007B0002306D8A0240623502410D8A412004E0EDD
:1007C000246E236A060E416002D08B80060C8BB02B
:1007D00003D0476A472A01D0476A8B504718FE0B5F
:1007E00047188B6E1200C0BC1200030ED36E6592C8
:1007F0006596F26A0ED808D0C0AC04D02D06D8A0F9
:100800002E0601D006D804002D502E10F5E1FF0071
:100810001200040E2E6E2D6A040C04EEACF014EEE1
:1008200000F0EE6AE550E150FCE1E250FAE100EE42
:1008300060F0820EEE6AE806FDE100EE01F0460E81
:10084000EE6AE806FDE10001B9EF03F00401086B70
:10085000406A00AF02D0006B3A6A04AF03D0046B69
:10086000010E3A6E3E6A3D6A2F6A306A6598C4ECA2
:1008700001F002EC00F027EF01F005D80AD8376A42
:100880000CD8386A12007E0E3B6E116AFC0E126E96
:10089000FC0C010E136E146A000C156816681768BC
:1008A000186812003F6A1E0E0F014D6F400E0401C2
:1008B0000D6F2C0E0E6F040E0F6F080E0C6F0C8F49
:1008C0006C0E126F040E136F400E106F400C476ECB
:1008D000F29EF3EC03F0B50E471804E0030ED36E5E
:1008E0000300FED7550EA76EAA0EA76EA682A6B26B
:1008F000FED7A69412005CCF35F0040E0F015C6F9A
:1009000062986582A198A088AAEC04F0A09835505E
:100910000F015C131200390402E1D1EC04F0656AA6
:10092000150E0F015F6F5C6B658698EC03F0010E8E
:10093000416E396A1200600ED36E9B8CDCEC04F0C1
:10094000BFEC04F0C16AC26A3DEC04F08B90949055
:10095000E7EF04F08B90D3CF31F00300A1B802D0C1
:10096000D0A6FBD731C0D3FF1200D9EC04F06592BA
:100970000F015C9501D0629462A41200FCD705D0EF
:10098000FEEC09F04706D8A0480647504810F8E1A9
:100990001200476E4704D8A4120052EC04F03DEF59
:1009A00004F06592656A48684768BFEC04F0416AE4
:1009B000120002D8BFEF04F0030E486E476A030C22
:1009C000390401E1120065A68BEC04F0120065B653
:0E09D000D1EC04F0396AE0EF04F012001200DE
:1010000000B6046134034D006900630072006F0094
:1010100063006800690070002000540065006300F0
:1010200068006E006F006C006F00670079002000A0
:1010300049006E0063002E000902290001010080B2
:10104000320904000002030000000921110100011F
:10105000221D000705810340000107050103400030
:101060000126034800490044002000550053004277
:1010700000200042006F006F0074006C006F006180
:10108000006400650072000600FF0901A10119015A
:101090002940150026FF0075089540810019012997
:1010A000409100C01201000200000008D8043C007A
:0B10B00001010102000104030904001B
:1010BC00060E4118D8B465B21200375001E017D1B2
:1010CC0004010CBF1200600E476E400E486EDDEC42
:1010DC0002F0010E376E276A286A2750A10FD96ECD
:1010EC00DA6A000EDF6E274A282A285005E1400EE6
:1010FC00275CD8B01200F1D71200020EA16F3A0E85
:10110C00A26F010EA36FA46FA56B140EA66FA76B35
:10111C00A86B000E1124A96FEC0E1220AA6FFF0E03
:10112C001320AB6FFF0E1420AC6F030EAD6FF80ED7
:10113C00AE6FAF69010EB06FB16B080EB26FB36BCF
:10114C00B46BB56BB669A50EDA6F040110BFA50CB4
:10115C00A10E476E400E486EB0EC02F0376A1200DA
:10116C00615106E17F0E3B6EF80E116E126802D0D3
:10117C0043EC04F049EC04F0F1D7286A050E276E15
:10118C000CD0FEEC09F027C048F028C049F00AEC5E
:10119C0003F09EEC09F0274A282A3B50526E536A02
:1011AC00522A000E53225250275C53502858D6E234
:1011BC00E8D715280EE116280CE117280AE11828A3
:1011CC0008E161C015F062C016F063C017F064C08E
:1011DC0018F015506119C2E116506219BFE1175091
:1011EC006319BCE118506419B9E1276A286A1AD04E
:1011FC006551A0082724D96EDA6AAC0E3824E16E4A
:10120C00E26A040EE222DFCFE7FF382A152A000E2D
:10121C001622172218223A0E381802E142EC02F07C
:10122C00274A282A00017CD899E2E2D742EC02F046
:10123C004DEC04F093D7070EA16F61C0A2F062C011
:10124C00A3F063C0A4F064C0A5F065C0A6F063C0B1
:10125C00F8FF62C0F7FF61C0F6FF276A286A0BD05F
:10126C00090000016551E1082724D96EDA6AF5CF2F
:10127C00DFFF274A282A54D8F3E3040110BF1200D9
:10128C0067D780EC00F06AD70C0EA16F010EA36F2C
:10129C00020EA26F160EF66ED3EC03F0F5CFA4F08F
:1012AC000A00F5CFA5F0060EA66F140EA76FA86B5B
:1012BC00A96B600EAB6F0D0EAA6FAC6B040EAD6F0D
:1012CC00000EAE6BAF6BB069B169B269B369B4694A
:1012DC00B569B669B769B86BB96BBA6BBB6BBC6BEC
:1012EC00BD6BBE6BBF6BC9D706EC00F037D70001E6
:1012FC006051020A01E101D7010A01E131D7070A65
:10130C0001E13BD7010A01E154D7030A8FE0010A3E
:10131C0092E00F0AE9E0010AB4E0050AB5E01ED735
:10132C006551526E536A5250275C53502858120024
:10133C00E0EC04F0415001E1120062B4B5EC04F0B1
:10134C0065B2120062B098EC03F062B87BEC04F06A
:10135C00030E416001D0030C3C6A62A6120064507B
:10136C0064CF4AF07C0E4A162AE164B203D02B6A91
:10137C00040E02D0040E2B6E2C6E62962BC0D9FF7D
:10138C002CC0DAFFDF30E8320F0B0D0A20E1336A94
:10139C0023D8DECF4AF0DDCF4BF04AC0D9FF4BC08B
:1013AC00DAFF3350010F1FD817D8DE2A000EDD22CA
:1013BC00332A070E3364ECD726EC04F008D0040E65
:1013CC00641804E1629677EC03F001D062963C2A33
:1013DC00030E3C64C2D7030C20EE02F02B50D9262E
:1013EC002C50DA221200E16EE26ADFCFE7FF120026
:0413FC0004001200D7
:1014000055EF0AF012000D605182FACF17F0FBCFB2
:1014100018F0E9CF19F0EACF1AF0E1CF1BF0E2CFD4
:101420001CF0D9CF1DF0DACF1EF0F3CF1FF0F4CFB0
:1014300020F0F6CF21F0F7CF22F0F8CF23F0F5CF50
:1014400024F051C025F052C026F053C027F054C0FC
:1014500028F0F292F2B4F2AA02D07DECB0F028C0EB
:1014600054F027C053F026C052F025C051F024C0DC
:10147000F5FF23C0F8FF22C0F7FF21C0F6FF20C010
:10148000F4FF1FC0F3FF1EC0DAFF1DC0D9FF1CC050
:10149000E2FF1BC0E1FF1AC0EAFF19C0E9FF18C054
:0E14A000FBFF17C0FAFF51921100D4EFA1F02C
:10FC7E0000001180002C0100B1020035003600009A
:10FC8E00B202003500360000B30200350036000225
:10FC9E00003500360000B4000000C0A2000200844F
:10FCAE000000C1C50000C20D00000000C38D002A77
:10FCBE000000C48D00EE0000C50A000036C800002A
:10FCCE00E012001C001000180033002C0025002844
:10FCDE0000280027002F003C000000030003001046
:10FCEE00008000780000E112001C00100018002DAA
:10FCFE0000280023002800280026002F003B0000CB
:10FD0E0000030003001000003A0500002A00000264
:10FD1E000000008100002B000003000000A2000084
:10FD2E0029002C0200040008001000200040008072
:10FD3E0000000100010200010001000202000003A8
:10FD4E0003030001000A006400E80310270001030A
:10FD5E00070F1F3F7FFF0002010301041000000088
:10FD6E00000000005F00000007000700147F147FF2
:10FD7E0014242A7F2A12231308646236495522500E
:10FD8E000005030000001C2241000041221C000857
:10FD9E002A1C2A0808083E080800503000000808EF
:10FDAE00080808006060000020100804023E514957
:10FDBE00453E00427F400042615149462141454B3C
:10FDCE00311814127F1027454545393C4A494930B0
:10FDDE0001710905033649494936064949291E006C
:10FDEE003636000000563600000008142241141466
:10FDFE0014141441221408000201510906324979E3
:10FE0E00413E7E1111117E7F494949363E414141A5
:10FE1E00227F4141221C7F494949417F0909010145
:10FE2E003E414151327F0808087F00417F4100204A
:10FE3E0040413F017F081422417F404040407F02F5
:10FE4E0004027F7F0408107F3E4141413E7F090935
:10FE5E0009063E4151215E7F091929464649494905
:10FE6E003101017F01013F4040403F1F2040201FD4
:10FE7E007F2018207F631408146303047804036141
:10FE8E005149454300007F41410204081020414181
:10FE9E007F00000402010204404040404000010285
:10FEAE00040020545454787F484444383844444421
:10FEBE0020384444487F3854545418087E090102AF
:10FECE00081454543C7F0804047800447D400020FC
:10FEDE0040443D00007F10284400417F40007C04D8
:10FEEE001804787C0804047838444444387C14148C
:10FEFE001408081414187C7C08040408485454543C
:10FF0E0020043F4440203C4040207C1C2040201CCC
:10FF1E003C4030403C44281028440C5050503C4447
:10FF2E0064544C44000836410000007F000000413C
:10FF3E0036080008082A1C08081C2A080800FCFFBE
:10FF4E000F0000FFFFF0FF00FFFF00436C6F7365B3
:10FF5E0073742057616C6C3A25750A436C6F736528
:10FF6E00737420416E676C653A25630A4C6566743E
:10FF7E002042756D703A25750A526967687442752C
:10FF8E006D703A25750A00546F74616C2044697364
:10FF9E0074616E63653A25750A4C65667420427508
:10FFAE006D703A25750A52696768742042756D70D6
:10FFBE003A25750A002020202020202020202020F5
:10FFCE0020202020202020200A00506C65617365BF
:10FFDE002073656C656374206D6F64652E0A004432
:10FFEE00697374616E63653A2025640A00256300A7
:01FFFE000002
:020000040001F9
:100000000001CB51800B0001D46F0001CB51CB25F7
:100010000001DA6F0001CAAF02D00001DA810001ED
:10002000DA510001D8B410D00001DA29D8A409D0DF
:10003000000E0001C86F000EC96F000ECA6F000EDF
:10004000CB6F0001CA8F09D0000E0001C86F000EEF
:10005000C96F000ECA6F000ECB6F0001CF51800B2D
:100060000001D41B0001CF51CF250001D56F000145
:10007000CEAF02D00001D5810001D5510001D8B426
:1000800010D00001D529D8A409D0000E0001CC6FF2
:10009000000ECD6F000ECE6F000ECF6F0001CE8F21
:1000A00009D0000E0001CC6F000ECD6F000ECE6F98
:1000B000000ECF6F0001D5510001D8B405D000016A
:1000C000DA510001D8A40AD0000E0001C86F000E5A
:1000D000C96F000ECA6F000ECB6F12000001CE5127
:1000E0000001C803F3CFDFF0F4CFE0F00001DF51EF
:1000F0000001D66FD76BD86BD96B0001E0510001BE
:10010000DB6FDC6BDD6BDE6B0001CD510001C903E1
:10011000F3CFDFF0F4CFE0F00001DF510001D6278C
:10012000000ED723D823D9230001E0510001DB279B
:10013000000EDC23DD23DE230001CC510001CA03C5
:10014000F3CFDFF0F4CFE0F00001DF510001D6275C
:10015000000ED723D823D9230001E0510001DB276B
:10016000000EDC23DD23DE23D8C0D9F0D7C0D8F0C1
:10017000D6C0D7F00001D66B0001CC510001C903F5
:10018000F3CFDFF0F4CFE0F00001DF510001D6271C
:100190000001E0510001D723000E0001D823000E1A
:1001A0000001D9230001CD510001C803F3CFDFF0D6
:1001B000F4CFE0F00001DF510001D6270001E0514B
:1001C0000001D723000E0001D823000E0001D9231F
:1001D000D8C0D9F0D7C0D8F0D6C0D7F00001D66BC0
:1001E0000001CC510001C803F3CFDFF0F4CFE0F001
:1001F0000001DF510001D6270001E0510001D723A3
:10020000000E0001D823000E0001D9230001CE51B9
:100210000001C903F3CFDFF0F4CFE0F00001DF51BC
:100220000001DB270001E0510001DC23000E00018A
:10023000DD23000E0001DE230001CD510001CA03C1
:10024000F3CFDFF0F4CFE0F00001DF510001DB2756
:100250000001E0510001DC23000E0001DD23000E4F
:100260000001DE230001CE510001CA03F3CFDFF00D
:10027000F4CFE0F00001DF510001D06F0001E05148
:100280000001D16F0001D26B0001D36BD2C0D3F05B
:10029000D1C0D2F0D0C0D1F00001D06B0001D0515C
:1002A0000001DB270001D1510001DC230001D25104
:1002B0000001DD230001D3510001DE23D6C0D0F0C0
:1002C000D7C0D1F0D8C0D2F0D9C0D3F0190E06D023
:1002D0000001D890D333D233D133D033E82EF8D7BE
:1002E0000001D0510001DB270001D1510001DC23C6
:1002F0000001D2510001DD230001D3510001DE23B2
:10030000D8C0D9F0D7C0D8F0D6C0D7F00001D66B8E
:100310000001D551DAC0D0F00001D16B0001D02727
:10032000000ED123820E0001D0250001DF6FFF0EE9
:100330000001D1210001E06F15D00001D890DB371A
:10034000DC37DD37DE370001D9AF02D00001DB81B9
:100350000001D890D637D737D837D9370001DF0713
:10036000D8A0E0070001DDAFE8D7000E0001D56F8F
:100370000001D9AF24D0FF0E0001D6150001D06FC7
:10038000FF0E0001D7150001D16FFF0E0001D81537
:100390000001D26F7F0E0001D9150001D36F00015B
:1003A000D0510001D1110001D2110001D311D8A404
:1003B00003D00001DBA103D0010E0001D56F0001C5
:1003C000D5510001D8B423D0010E0001DB27000E67
:1003D000DC23DD23DE230001DEA119D0DBC0D0F059
:1003E000DCC0D1F0DDC0D2F0DEC0D3F00001D335E7
:1003F000D333D233D133D033D0C0DBF0D1C0DCF033
:10040000D2C0DDF0D3C0DEF00001DF4BE02B0001F5
:10041000E0BF10D00001E05104E10001DF29D8A0C5
:1004200009D0000E0001DB6F000EDC6F800EDD6F67
:100430007F0E2BD00001E0BF07D00001E05111E199
:100440000001DF05D8B00DD0000E0001DB6F000EFB
:10045000DC6F000EDD6F000EDE6F000E0001D46F4A
:1004600015D0DFC0DAF0FF0E0001DB17FF0EDC173E
:100470007F0EDD17000EDE170001DAA102D00001A9
:10048000DD8F0001D890DA310001DE6F0001D45118
:100490000001DE13DBC0C8F0DCC0C9F0DDC0CAF06B
:1004A000DEC0CBF012000CD0760E0001ED6F030E13
:1004B00004D0810E0001ED6F030E0001EE6F08D035
:1004C0000001EB51000AD8B4EFD7010AD8B4F1D734
:1004D000000120EE02F0ED51D926EE51DA22EBC0F8
:1004E000DFFFB1D0A70E0001E06F000E0001E16F49
:1004F000020E0001E26F030E0001E36FB4EC92F014
:10050000A70E0001E06F000E0001E16F030E000175
:10051000E26F030E0001E36FB4EC92F0A70E00014E
:10052000E06F000E0001E16F050E0001E26F030EA7
:100530000001E36FB4EC92F0A70E0001E06F000E33
:100540000001E16F040E0001E26F000E0001E36F95
:10055000B4EC92F0000120EE03F0ED51D926EE51FB
:10056000DA22C70EDE6E0F0EDD6E000120EE06F001
:10057000ED51D926EE51DA22C60EDE6E0F0EDD6E7B
:10058000000120EE09F0ED51D926EE51DA22C90E14
:1005900056D09D0E0001E06F000E0001E16F070EC6
:1005A0000001E26F030E0001E36FB4EC92F09D0EC8
:1005B0000001E06F000E0001E16F060E0001E26F26
:1005C000030E0001E36FB4EC92F09D0E0001E06FAA
:1005D000000E0001E16F040E0001E26F030E000146
:1005E000E36FB4EC92F09D0E0001E06F000E00018D
:1005F000E16F050E0001E26F000E0001E36FB4EC45
:1006000092F0000120EE03F0ED51D926EE51DA22EE
:100610006D0EDE6E0F0EDD6E000120EE06F0ED5168
:10062000D926EE51DA226C0EDE6E0F0EDD6E000161
:1006300020EE09F0ED51D926EE51DA226F0EDE6E72
:100640000F0EDD6E09D00001EB51000AD8B44AD775
:10065000010AD8A412009DD7000120EE06F0ED514A
:10066000D926EE51DA22DECFBAF0DDCFBBF0050E8F
:100670000001BC6F000E0001BD6F59ECABF09CD0C7
:10068000000120EE06F0ED51D926EE51DA22DECF40
:10069000BAF0DDCFBBF0040E0001BC6F000E00010C
:1006A000BD6F59ECABF0000120EE03F0ED51D926FF
:1006B000EE51DA22DECFBAF0DDCFBBF0060E00013C
:1006C000BC6F000E0001BD6F59ECABF084D000018F
:1006D00020EE06F0ED51D926EE51DA22DECFBAF047
:1006E000DDCFBBF0040E0001BC6F000E0001BD6F3A
:1006F00059ECABF0000120EE03F0ED51D926EE519C
:10070000DA22DECFBAF0DDCFBBF0060E0001BC6FFF
:10071000010E0001BD6F59ECABF05DD0000120EE81
:1007200006F0ED51D926EE51DA22DECFBAF0DDCF58
:10073000BBF0040E0001BC6F010E0001BD6F59EC4F
:10074000ABF0000120EE03F0ED51D926EE51DA2294
:10075000DECFBAF0DDCFBBF0060E0001BC6F000E9D
:100760000001BD6F59ECABF036D0000120EE06F071
:10077000ED51D926EE51DA22DECFBAF0DDCFBBF053
:10078000040E0001BC6F010E0001BD6F59ECABF00F
:10079000000120EE03F0ED51D926EE51DA22DECF32
:1007A000BAF0DDCFBBF0060E0001BC6F010E0001F8
:1007B000BD6F59ECABF00FD00001EC51000AD8B47A
:1007C0005FD7010AD8B483D7030AD8B4A7D7010AE0
:1007D000D8A41200CAD7000120EE06F0ED51D926A8
:1007E000EE51DA22DECFBAF0DDCFBBF0070E00010A
:1007F000BC6F000E0001BD6F59ECABF0000120EEA4
:1008000006F0ED51D926EE51DA22DECFBAF0DDCF77
:10081000BBF0060E0001BC6F000E0001BD6F59EC6D
:10082000ABF0E7C0C7F0E8C0C8F0E9C0C9F0EAC063
:10083000CAF0CBEC98F0EDC0BAF0EEC0BBF0BEEC65
:10084000B0F004D09F860BD0A58E09D00001EB51EB
:10085000000AD8B4F7D7010AD8A41200F5D7EDC022
:10086000BAF0EEC0BBF01EECB0F0EDC0D9FFEEC0A8
:10087000DAFF000EDF6E000120EE06F0ED51D92602
:10088000EE51DA22DECFC5F0DDCFC6F0000E00015A
:10089000C76F030E0001C86F07ECB1F0000120EE36
:1008A00006F0ED51D926EE51DA22DECFBAF0DDCFD7
:1008B000BBF0050E0001BC6F010E0001BD6F59ECCD
:1008C000ABF012003FECADF0010E80ECAEF0000991
:1008D000D8B429D0FB0E0001CF6FFF0E0001D06FFE
:1008E000000E0001D26F230ED16FD3EC91F0950E64
:1008F0000001CF6FFF0E0001D06F77C0D1F078C03C
:10090000D2F089C0D3F00001D46B8AC0D5F00001C9
:10091000D66BD3EC91F0E7EC8EF0AEECB1F00009C1
:10092000D8A400ECAFF0000E0001726F000E716FE2
:10093000030E0001FC6FE80EFB6F000E0001706FEC
:10094000000E6F6F000E00016E6F000E6D6F000ED7
:100950000001FA6F080EF96FF9D00001714B722B8C
:10096000B10E0001BC6F000E0001BD6F12ECA7F0CC
:10097000B10E0001E16F000E0001E26F6FEC9CF020
:10098000E1C0F8F3E2C0F9F3E3C0FAF3E4C0FBF32B
:10099000F8C3BEF0F9C3BFF0FAC3C0F0FBC3C1F0A7
:1009A000000E0001BA6F000EBB6F6C0EBC6F420EE2
:1009B000BD6F4CEC86F0BAC0F3F0BBC0F4F0BCC025
:1009C000F5F0BDC0F6F00EEC9AF0F3C06DF0F4C097
:1009D0006EF0010E80ECAEF00009D8B40ED06DC000
:1009E000D0F06EC0D1F0A9ECB0F0E1ECAEF0AEEC1E
:1009F000B1F00009D8A400ECAFF00001FB510001F8
:100A00006D5D00016E51800A0301F46F0001FC511D
:100A1000800A0301F459D8B008D06DC0FBF06EC055
:100A2000FCF071C06FF072C070F0080E80ECAEF098
:100A30000009D8B420D0CF0E0001D56F030E0001FD
:100A4000D66F000E0001D86F320ED76F94ECB0F065
:100A5000CF0E0001BD6F030E0001BE6F000E00013E
:100A6000C06F010EBF6F98ECAFF0AEECB1F00009B3
:100A7000D8A400ECAFF0000E0001FA6F0A0EF96F77
:100A80000001FABF63D00001FA5156E10001F905F7
:100A9000D8B052D05BD0B10E0001BC6F000E000187
:100AA000BD6F12ECA7F0010E80ECAEF00009D8B4D7
:100AB0000ED06DC0D0F06EC0D1F0A9ECB0F0E1EC7A
:100AC000AEF0AEECB1F00009D8A400ECAFF0B10E7E
:100AD0000001E16F000E0001E26F6FEC9CF0E1C0DD
:100AE000F8F3E2C0F9F3E3C0FAF3E4C0FBF3F8C3B0
:100AF000BEF0F9C3BFF0FAC3C0F0FBC3C1F0000EF3
:100B00000001BA6F000EBB6F6C0EBC6F420EBD6F62
:100B10004CEC86F0BAC0F3F0BBC0F4F0BCC0F5F00A
:100B2000BDC0F6F00EEC9AF0F3C06DF0F4C06EF0BC
:100B30000001F907D8A0FA070001FABF07D00001A9
:100B4000FA51A9E10001F905D8B0A5D7000172BF9B
:100B500004D7900E0001715D010E00017259D8A0FA
:100B6000FCD6080E80ECAEF00009D8B48AD0CF0EC7
:100B70000001D56F030E0001D66F000E0001D86F83
:100B8000320ED76F94ECB0F06FC0F4F370C0F5F391
:100B90000301F41FF51FF44BF52B900E0301F42510
:100BA0000301F66F010E0301F5210301F76FCF0E6C
:100BB0000001BD6F030E0001BE6FF6C3F4F3F7C36F
:100BC000F5F30301F41FF51FF44BF52BF4C3BFF04D
:100BD000F5C3C0F098ECAFF0AEECB1F00009D8B4BA
:100BE00050D000ECAFF04DD0B10E0001BC6F000E44
:100BF0000001BD6F12ECA7F0010E80ECAEF0000911
:100C0000D8B40ED06DC0D0F06EC0D1F0A9ECB0F069
:100C1000E1ECAEF0AEECB1F00009D8A400ECAFF01E
:100C2000B10E0001E16F000E0001E26F6FEC9CF06D
:100C3000E1C0F8F3E2C0F9F3E3C0FAF3E4C0FBF378
:100C4000F8C3BEF0F9C3BFF0FAC3C0F0FBC3C1F0F4
:100C5000000E0001BA6F000EBB6F6C0EBC6F420E2F
:100C6000BD6F4CEC86F0BAC0F3F0BBC0F4F0BCC072
:100C7000F5F0BDC0F6F00EEC9AF0F3C06DF0F4C0E4
:100C80006EF00301D0BF12000301D051ADE10301AA
:100C9000CF05D8A01200A8D70001BD51800B0001DC
:100CA000C66F0001BD51BD250001D16F0001BCAF71
:100CB00002D00001D1810001D1510001D8B412D07D
:100CC0000001D129D8A409D0000E0001BA6F000E8E
:100CD000BB6F000EBC6F000EBD6F0001BC8F000E1D
:100CE000000108D0000E0001BA6F000EBB6F000EAD
:100CF000BC6F000EBD6F0001C151800B0001C61B0F
:100D00000001C151C1250001D26F0001C0AF02D066
:100D10000001D2810001D2510001D8B412D00001EB
:100D2000D229D8A409D0000E0001BE6F000EBF6FFB
:100D3000000EC06F000EC16F0001C08F000E0001D9
:100D400008D0000E0001BE6F000EBF6F000EC06F16
:100D5000000EC16F0001BE510001BF110001C011A2
:100D60000001C111D8A417D0000E0001BA6F000E07
:100D7000BB6F000EBC6F000EBD6F0001800EBC1378
:100D80007F0EBD13BAC0BAF0BBC0BBF0BCC0BCF094
:100D9000BDC0BDF012000001D1510001D8A412D095
:100DA000000E0001BA6F000EBB6F000EBC6F000E8C
:100DB000BD6FBAC0BAF0BBC0BBF0BCC0BCF0BDC018
:100DC000BDF012000001D2510001C26FC36B0001DF
:100DD000C21FC31FC24BC32B0001D1510001C46FFE
:100DE000C56B0001C2510001C4270001C3510001BD
:100DF000C5237F0E0001C4250001CB6F000E00014A
:100E0000C5210001CC6FBAC0C7F0BBC0C8F0BCC0E0
:100E1000C9F0BDC0CAF0000E0001BA6F000EBB6F72
:100E2000000EBC6F000EBD6F000E0001CD6F000EF6
:100E3000CE6F000ECF6F000ED06F000E0001D26F8C
:100E400042D00001D2510001D8B417D00001D8908F
:100E5000C737C837C937CA370001D890BA37BB3748
:100E6000BC37BD370001D0AF02D00001BA8100010C
:100E7000D890CD37CE37CF37D0370001BE510001E3
:100E8000C75D0001BF510001C8590001C0510001F8
:100E9000C9590001C1510001CA59D8A012D000019E
:100EA000D08D0001BE510001C75F0001BF5100019C
:100EB000C85B0001C0510001C95B0001C1510001C4
:100EC000CA5B0001D22B190E0001D265BAD700010E
:100ED000C7510001C8110001C9110001CA11D8B4DD
:100EE00018D00001CD8115D00001D890BA37BB379A
:100EF000BC37BD370001D0AF02D00001BA8100017C
:100F0000D890CD37CE37CF37D0370001CB07D8A018
:100F1000CC070001BCAFE8D7000E0001D26F000182
:100F2000D0AF24D0FF0E0001CD150001C26FFF0E1F
:100F30000001CE150001C36FFF0E0001CF150001A7
:100F4000C46F7F0E0001D0150001C56F0001C251B2
:100F50000001C3110001C4110001C511D8A403D0C0
:100F60000001BAA103D0010E0001D26F0001D251DD
:100F70000001D8B423D0010E0001BA27000EBB2314
:100F8000BC23BD230001BDA119D0BAC0C2F0BBC0B3
:100F9000C3F0BCC0C4F0BDC0C5F00001C535C53349
:100FA000C433C333C233C2C0BAF0C3C0BBF0C4C081
:100FB000BCF0C5C0BDF00001CB4BCC2B0001CCBFB9
:100FC00014D00001CC5104E10001CB29D8A00DD0F0
:100FD000000E0001CC6FCB69000E0001BA6F000E4D
:100FE000BB6F000EBC6F000EBD6F0001CCBF07D001
:100FF0000001CC5115E10001CB05D8B011D0000E95
:101000000001CC6F000ECB6F000E0001BA6F000E16
:10101000BB6F000EBC6F000EBD6F000E0001C66FEF
:10102000CBC0D1F00001D1A103D00001BC8F02D010
:101030000001BC9F0001D890D1310001BD6F0001BB
:10104000C6510001BD13BAC0BAF0BBC0BBF0BCC0F2
:10105000BCF0BDC0BDF01200080E0001C9250001A2
:10106000C66F000E0001CA210001C76F000E00010B
:10107000C86F3EECAFF00001E06F0001E0510001ED
:10108000CC6FCD6B0E0ED8900001CC37CD37E82E4B
:10109000FAD70001E0510001CE6FCF6B0C0ED89053
:1010A0000001CE37CF37E82EFAD70001E05100011A
:1010B000D06FD16B0A0ED8900001D037D137E82E0F
:1010C000FAD70001E0510001D36FD26B0001E0516B
:1010D0000001D46FD56B060ED8900001D437D537F8
:1010E000E82EFAD70001E0510001D66FD76B00015E
:1010F000D63BD73BF00ED717D6510F0BD713F00EB8
:10110000D6170001E0510001D86FD96B0001D890CB
:10111000D837D9370001D890D837D9370001E051F6
:101120000001DA6FDB6B0001D8510001DA13000116
:10113000D9510001DB130001D6510001DA1300017F
:10114000D7510001DB130001D4510001DA13000173
:10115000D5510001DB130001D2510001DA13000167
:10116000D3510001DB130001D0510001DA1300015B
:10117000D1510001DB130001CE510001DA1300014F
:10118000CF510001DB130001CC510001DA11000145
:10119000DC6F0001CD510001DB110001DD6FE0C00B
:1011A000DEF00001DF6B080E0001C9250001C66FEB
:1011B000000E0001CA210001C76F010E0001C86FB7
:1011C0003EECAFF00001CC6FCD6B0001D890CC3776
:1011D000CD370001D890CC37CD370001CC5100017C
:1011E000DE130001CD510001DF13080E0001C925F7
:1011F0000001C66F000E0001CA210001C76F020E78
:101200000001C86F3EECAFF00001CC6FCD6B000168
:10121000CC3BCD3BF00ECD17CC510F0BCD13F00EC8
:10122000CC170001CC510001DE130001CD510001AB
:10123000DF13080E0001C9250001C66F000E000172
:10124000CA210001C76F030E0001C86F3EECAFF06A
:101250000001CC6FCD6B060ED8900001CC37CD3796
:10126000E82EFAD70001CC510001DE130001CD5168
:101270000001DF13080E0001C9250001C66F000E32
:101280000001CA210001C76F040E0001C86F3EECC7
:10129000AFF00001CC6F0001CC510001CE6FCD6BDF
:1012A0000001CD510001DE130001CE510001DF131A
:1012B000080E0001C9250001C66F000E0001CA21F9
:1012C0000001C76F050E0001C86F3EECAFF00001D2
:1012D000CC6FCD6B0A0ED8900001CC37CD37E82EFD
:1012E000FAD70001CC510001DE130001CD510001FD
:1012F000DF13080E0001C9250001C66F000E0001B2
:10130000CA210001C76F060E0001C86F3EECAFF0A6
:101310000001CC6FCD6B0C0ED8900001CC37CD37CF
:10132000E82EFAD70001CC510001DE130001CD51A7
:101330000001DF13080E0001C9250001C66F000E71
:101340000001CA210001C76F070E0001C86F3EEC03
:10135000AFF00001CC6FCD6B0E0ED8900001CC37F2
:10136000CD37E82EFAD70001CC510001DE13000181
:10137000CD510001DF130001DE510001DC1948E10D
:101380000001DF510001DD19D8A4120032D00001A4
:1013900020EE02F0C951D926CA51DA22DECFBAF0C6
:1013A000DDCFBBF0CBC0BCF086ECB2F01200000188
:1013B000CB1F000120EE02F0C951D926CA51DA2212
:1013C000DECFBAF0DDCFBBF0CBC0BCF086ECB2F024
:1013D0001200000120EE04F0C951D926CA51DA22C8
:1013E000DECFBAF0DDCFBBF0CBC0BCF086ECB2F004
:1013F00012000001E051000AD8B41200010AD8B46A
:10140000C6D7030AD8B4D3D7010AD8A41200E1D7AB
:10141000120000017107D8A07207B10E0001BC6F65
:10142000000E0001BD6F12ECA7F0B10E0001E16FDC
:10143000000E0001E26F6FEC9CF0E1C005F1E2C02C
:1014400006F1E3C007F1E4C008F105C1BEF006C132
:10145000BFF007C1C0F008C1C1F0000E0001BA6FB3
:10146000000EBB6F6C0EBC6F420EBD6F4CEC86F075
:10147000BAC0F3F0BBC0F4F0BCC0F5F0BDC0F6F0EC
:101480000EEC9AF0F3C06DF0F4C06EF0010E80EC3B
:10149000AEF00009D8B40ED06DC0D0F06EC0D1F05F
:1014A000A9ECB0F0E1ECAEF0AEECB1F00009D8A4DC
:1014B00000ECAFF00001FB5100016D5D00016E51C9
:1014C000800A0101046F0001FC51800A01010459E6
:1014D000D8B008D06DC0FBF06EC0FCF071C06FF0EA
:1014E00072C070F0080E80ECAEF00009D8B41FD0C6
:1014F000CF0E0001D56F030E0001D66F000E000164
:10150000D86F320ED76F94ECB0F0CF0E0001BD6FE4
:10151000030E0001BE6FFF0E0001C06FBF6998ECA3
:10152000AFF0AEECB1F00009D8A400ECAFF0000EC3
:101530000001FA6F0A0EF96F0001FABF63D00001D3
:10154000FA5156E10001F905D8B052D05BD0B10E86
:101550000001BC6F000E0001BD6F12ECA7F0010E80
:1015600080ECAEF00009D8B40ED06DC0D0F06EC0E3
:10157000D1F0A9ECB0F0E1ECAEF0AEECB1F00009C6
:10158000D8A400ECAFF0B10E0001E16F000E000135
:10159000E26F6FEC9CF0E1C005F1E2C006F1E3C040
:1015A00007F1E4C008F105C1BEF006C1BFF007C1F4
:1015B000C0F008C1C1F0000E0001BA6F000EBB6F91
:1015C0006C0EBC6F420EBD6F4CEC86F0BAC0F3F0EF
:1015D000BBC0F4F0BCC0F5F0BDC0F6F00EEC9AF064
:1015E000F3C06DF0F4C06EF00001F907D8A0FA075F
:1015F0000001FABF07D00001FA51A9E10001F90585
:10160000D8B0A5D71F0E0001CC6F850ECD6F2B0E65
:10161000CE6F3F0ECF6F6FC0BAF070C0BBF000014D
:10162000000EBBBFFF0EBC6FBD6F010EECEC90F067
:10163000BAC0C8F0BBC0C9F0BCC0CAF0BDC0CBF0D6
:1016400000EC80F0C8C0F3F0C9C0F4F0CAC0F5F0F7
:10165000CBC0F6F00EEC9AF0F3C06BF0F4C06CF077
:10166000010E80ECAEF00009D8B41200FB0E0001B0
:10167000CF6FFF0E0001D06F000E0001D26F230E5E
:10168000D16FD3EC91F0590E0001CF6FFF0E000126
:10169000D06FFBC0D1F0FCC0D2F06BC0D3F06CC0F7
:1016A000D4F089C0D5F00001D66B8AC0D7F0000114
:1016B000D86BD3EC91F0E7EC8EF0AEECB1F0000912
:1016C000D8B4120000ECAFF012000001BA6F7ED067
:1016D0003F0E1200060E12005B0E12004F0E12009B
:1016E000660E12006D0E12007D0E1200070E120023
:1016F0007F0E12006F0E12005F0E12007C0E1200A1
:10170000580E12005E0E12007B0E1200710E1200B7
:101710006F0E1200740E1200040E12000E0E120054
:101720007A0E1200060E1200140E1200540E120051
:101730005C0E1200730E1200670E1200500E1200A3
:101740006D0E1200780E12001C0E1200620E1200B6
:101750002A0E1200640E12006E0E12005B0E1200B2
:10176000770E12007F0E1200390E12003F0E12008B
:10177000790E1200710E12003D0E1200760E12004C
:10178000060E12001E0E1200570E1200380E120026
:10179000760E1200760E12003F0E1200730E12002B
:1017A0003F0E1200770E12006D0E1200310E120065
:1017B0003E0E12003E0E12007E0E1200760E120039
:1017C000660E12005B0E1200800E12000001BA516C
:1017D0002E0AD8B4F9D71E0AD8B47AD7010AD8B4D9
:1017E00079D7030AD8B478D7010AD8B477D7070ACB
:1017F000D8B476D7010AD8B475D7030AD8B474D749
:10180000010AD8B473D70F0AD8B472D7010AD8B472
:1018100071D7780AD8B4A4D7030AD8B4A3D7010AD9
:10182000D8B4A2D7070AD8B4A1D7010AD8B4A0D790
:10183000030AD8B49FD7010AD8B49ED70F0AD8B4E8
:101840009DD7010AD8B49CD7030AD8B49BD7010A04
:10185000D8B49AD7070AD8B499D7010AD8B498D778
:10186000030AD8B497D7010AD8B496D71F0AD8B4B8
:1018700095D7010AD8B494D7030AD8B493D7010AEC
:10188000D8B492D7070AD8B491D7010AD8B490D760
:10189000030AD8B48FD7010AD8B48ED70F0AD8B4A8
:1018A0008DD7010AD8B48CD7030AD8B48BD73B0A9A
:1018B000D8B422D7030AD8B421D7010AD8B420D784
:1018C000070AD8B41FD7010AD8B41ED7030AD8B460
:1018D0001DD7010AD8B41CD70F0AD8B41BD7010AE8
:1018E000D8B41AD7030AD8B419D7010AD8B418D76C
:1018F000070AD8B417D7010AD8B416D7030AD8B440
:1019000015D7010AD8B414D71F0AD8B413D7010ABF
:10191000D8B412D7030AD8B411D7010AD8B410D753
:10192000070AD8B40FD7010AD8B40ED7030AD8B41F
:101930000DD7010AD8B40CD70F0AD8B40BD7010AB7
:10194000D8B40AD7030AD8B409D7000E1200050E7E
:101950000001F46FC7D0000120EE02F0F051D9264B
:10196000F151DA22DECFC5F0DDCFC6F0F2C0C7F00C
:101970000F0E0001C86F07ECB1F0000120EE04F07B
:10198000F051D926F151DA22DECFC5F0DDCFC6F015
:10199000F2C0C7F0000E0001C86F07ECB1F0B0D084
:1019A000F0C0E9F0F1C0EAF0F2C0EBF0030E000184
:1019B000EC6F1BECACF00001F46F0001F451D8A403
:1019C0001200000120EE02F0F051D926F151DA2286
:1019D000DECFC5F0DDCFC6F0F2C0C7F0000E0001CB
:1019E000C86F07ECB1F0000120EE04F0F051D926E9
:1019F000F151DA22DECFC5F0DDCFC6F0F2C0C7F07C
:101A0000000E0001C86F07ECB1F07AD0F0C0E9F029
:101A1000F1C0EAF0F2C0EBF0030E0001EC6F1BEC3A
:101A2000ACF00001F46F0001F451D8A412000001E1
:101A300020EE02F0F051D926F151DA22DECFC5F0C6
:101A4000DDCFC6F0F2C0C7F00F0E0001C86F07EC83
:101A5000B1F0000120EE04F0F051D926F151DA2264
:101A6000DECFC5F0DDCFC6F0F2C0C7F00F0E00012B
:101A7000C86F07ECB1F044D0F0C0E9F0F1C0EAF073
:101A8000F2C0EBF0030E0001EC6F1BECACF00001B8
:101A9000F46F0001F451D8A41200000120EE02F00E
:101AA000F051D926F151DA22DECFC5F0DDCFC6F0F4
:101AB000F2C0C7F0000E0001C86F07ECB1F00001E2
:101AC00020EE04F0F051D926F151DA22DECFC5F034
:101AD000DDCFC6F0F2C0C7F0000E0001C86F07EC02
:101AE000B1F00ED00001F351000AD8B434D7010A86
:101AF000D8B456D7030AD8B489D7010AD8B4BCD70A
:101B0000080E0001F0250001C96F000E0001F1214F
:101B10000001CA6F0001F251040DF3CFCBF0F3C006
:101B2000CCF018ECAEF0080E0001F0250001C96FF2
:101B3000000E0001F1210001CA6F0001F251040DF5
:101B4000F3280001CB6FF3C0CCF018ECAEF0080E18
:101B50000001F0250001C96F000E0001F121000114
:101B6000CA6F0001F251040DF350020F0001CB6F58
:101B7000F3C0CCF018ECAEF0080E0001F025000127
:101B8000C96F000E0001F1210001CA6F0001F2517E
:101B9000040DF350030F0001CB6FF3C0CCF018EC31
:101BA000AEF01200050E0101006F7AD0000120EEA8
:101BB00002F0F451D926F551DA22DECFF7F0DDCF6D
:101BC000F8F0F7C0D9FFF8C0DAFFFF0E67D0F4C015
:101BD000F0F0F5C0F1F0010E0001F26F89ECADF00C
:101BE0000101006F01010051D8A41200000120EE94
:101BF00002F0F451D926F551DA22DECFF7F0DDCF2D
:101C0000F8F0F7C0D9FFF8C0DAFF000EDF6E000170
:101C100020EE04F036D0F4C0F0F0F5C0F1F0020E82
:101C20000001F26F89ECADF00101006F010100517C
:101C3000D8A41200000120EE02F0F451D926F5518B
:101C4000DA22DECFF7F0DDCFF8F0F7C0D9FFF8C029
:101C5000DAFFFF0EDF6E000120EE04F0AAD7F4C019
:101C6000F0F0F5C0F1F0000E0001F26F89ECADF07C
:101C70000101006F01010051D8A41200000120EE03
:101C800002F0F451D926F551DA22DECFF7F0DDCF9C
:101C9000F8F0F7C0D9FFF8C0DAFF000EDF6E0ED003
:101CA0000001F651000AD8B481D7010AD8B48FD701
:101CB000030AD8B4B0D7010AD8B4D1D7080E0001AE
:101CC000F4250001C96F000E0001F5210001CA6F63
:101CD000000E0001CB6FF6C0CCF018ECAEF0080E91
:101CE0000001F4250001C96F000E0001F52100017B
:101CF000CA6F010E0001CB6FF6C0CCF018ECAEF04D
:101D0000080E0001F4250001C96F000E0001F52145
:101D10000001CA6F020E0001CB6FF6C0CCF018ECC8
:101D2000AEF0080E0001F4250001C96F000E00019D
:101D3000F5210001CA6F030E0001CB6FF6C0CCF095
:101D400018ECAEF0080E0001F4250001C96F000E7A
:101D50000001F5210001CA6F040E0001CB6FF6C02F
:101D6000CCF018ECAEF0080E0001F4250001C96FAC
:101D7000000E0001F5210001CA6F050E0001CB6FB6
:101D8000F6C0CCF018ECAEF0080E0001F42500010E
:101D9000C96F000E0001F5210001CA6F060E000197
:101DA000CB6FF6C0CCF018ECAEF0080E0001F425B5
:101DB0000001C96F000E0001F5210001CA6F070E76
:101DC0000001CB6FF6C0CCF018ECAEF012000001B1
:101DD000FF51D8B41200E8C3E0F0E9C3E1F0EAC370
:101DE000E2F0EBC3E3F000019251D8B405D090C00B
:101DF000DFF00F0E0001906F000E0001E56FDFD0E5
:101E00000001E551020D000EF324D96E030EF420FB
:101E1000DA6EDECFFDF0DDCFFEF0000E0001E46FE4
:101E2000130E0001E46501D0BED00001E551140D90
:101E3000AA0E0001DD6F040E0001DE6FF3500001F9
:101E4000DD27F4500001DE230001E451010DF350C1
:101E50000001DD25D96EF4500001DE21DA6EDFAE1F
:101E60009AD00001E551140DAA0E0001DD6F040E99
:101E70000001DE6FF3500001DD27F4500001DE2386
:101E80000001E451010DF3500001DD25D96EF4503D
:101E90000001DE21DA6E7F0EDF160001E551140D20
:101EA000AA0E0001DD6F040E0001DE6FF350000189
:101EB000DD27F4500001DE230001E451010DF35051
:101EC0000001DD25D96EF4500001DE21DA6EDF500D
:101ED000D8B44AD085C0C3F086C0C4F0E0C0C5F015
:101EE000E1C0C6F0E2C0C7F0E3C0C8F0F0C3C9F07B
:101EF000F1C3CAF0F2C3CBF0F3C3CCF0C8ECA8F046
:101F00000001E551140DAA0E0001DD6F040E000161
:101F1000DE6FF3500001DD27F4500001DE230001E5
:101F2000E451010DF3500001DD25D96EF45000019C
:101F3000DE21DA6EDF501CEC9EF0BFC0CCF0C0C0DA
:101F4000CDF0E0C0CEF0E1C0CFF0E2C0D0F0E3C011
:101F5000D1F0F0C3D2F0F1C3D3F0F2C3D4F0F3C3A5
:101F6000D5F076ECA4F017D0000E0001C46F000E7F
:101F7000C36FE0C0C5F0E1C0C6F0E2C0C7F0E3C087
:101F8000C8F0F0C3C9F0F1C3CAF0F2C3CBF0F3C399
:101F9000CCF0C8ECA8F0060E0001E027000EE1230B
:101FA0000001E42B3DD7080E0001E227000EE323D9
:101FB000000E0001E16F060EE06F0001E52B00014D
:101FC000E5510001905DD8B01BD700019251D8B403
:101FD0001200000E0001926FDFC090F012006C0E34
:101FE0000101006F030E0101016F000E0101036F7B
:101FF000020E026FAA0E0101046F650E0101056F4A
:10200000010E0101066FDE0E0101076F630E010173
:10201000086F010E0101096F040E01010A6F140E11
:1020200001010B6F000E01010C6FB2EC9DF04E0E22
:102030000101006F030E0101016F000E0101036F2A
:10204000020E026FAA0E0101046F650E0101056FF9
:10205000010E0101066F3E0E0101076F640E0101C2
:10206000086F010E0101096F040E01010A6F140EC1
:1020700001010B6F000E01010C6FB2EC9DF0440EDC
:102080000101006F030E0101016F000E0101036FDA
:10209000020E026FAA0E0101046F650E0101056FA9
:1020A000010E0101066F260E0101076F640E01018A
:1020B000086F010E0101096F040E01010A6F140E71
:1020C00001010B6F000E01010C6FB2EC9DF0580E78
:1020D0000101006F030E0101016F000E0101036F8A
:1020E000020E026FAA0E0101046F650E0101056F59
:1020F000010E0101066F0E0E0101076F640E010152
:10210000086F010E0101096F040E01010A6F140E20
:1021100001010B6F000E01010C6FB2EC9DF0620E1D
:102120000101006F030E0101016F000E0101036F39
:10213000020E026FAA0E0101046F650E0101056F08
:10214000010E0101066FF60E0101076F630E01011A
:10215000086F010E0101096F040E01010A6F140ED0
:1021600001010B6F000E01010C6FB2EC9DF0A00E8F
:102170000001E76F860EE86F010EE96F000EEA6F4F
:10218000000E0001EB6F020E0001EC6F53EC82F0C9
:10219000760E0001C96F030E0001CA6F3CECA9F076
:1021A000000E0001F66F000EF56F0001F65113E10D
:1021B000080E0001F55DD8B012003C0E0001F525B7
:1021C000D96E030E0001F621DA6E000EDF6E0001FB
:1021D000F54BF62BEAD712000001C26F0001C25185
:1021E0000001D8B41ED00001BDAF1BD0BAC0BEF0F4
:1021F000BBC0BFF0BCC0C0F0BDC0C1F00001BE1F7D
:10220000BF1FC01FC11FBE2B000EBF23C023C12391
:10221000BEC0C4F0BFC0C5F0C0C0C6F0C1C0C7F0EA
:1022200008D0BAC0C4F0BBC0C5F0BCC0C6F0BDC0C9
:10223000C7F00001BA510001BB110001BC1100013F
:10224000BD11D8A40AD0000E0001BA6F000EBB6FFA
:10225000000EBC6F000EBD6F1200960E0001C36F22
:1022600008D00001C32B0001D890C733C633C53353
:10227000C433000E0001C4150001BE6F000E000142
:10228000C5150001BF6F000E0001C6150001C06F2B
:10229000FE0E0001C7150001C16F0001BE51000113
:1022A000BF110001C0110001C111D8B410D0D9D79D
:1022B0000001C32B010E0001C427000EC523C62355
:1022C000C7230001D890C733C633C533C433000ECB
:1022D0000001C4150001BE6F000E0001C51500010C
:1022E000BF6F000E0001C6150001C06FFF0E000198
:1022F000C7150001C16F0001BE510001BF110001EF
:10230000C0110001C111D8B409D0D2D70001C30750
:102310000001D890C437C537C637C7370001C6BFDC
:1023200004D0020E0001C361F1D70001C3B109D08E
:10233000FF0E0001C417FF0EC5177F0EC617FF0E54
:10234000C7170001D890C333C3C0BEF00001BF6BF4
:10235000C06BC16BBEC0C1F00001C06BBF6BBE6B78
:102360000001BE510001C4130001BF510001C5139B
:102370000001C0510001C6130001C1510001C71383
:102380000001C2510001D8B405D00001BDAF02D098
:102390000001C78FC4C0BAF0C5C0BBF0C6C0BCF056
:1023A000C7C0BDF01200D10E0001DC6F000E0001AD
:1023B000DD6FC9D0250E0001E019D8B405D00001A9
:1023C000E05171ECB2F0BFD0000E0001DB6F14D011
:1023D000DCC0D9FFDDC0DAFFDF500001E06F020E84
:1023E0000001DC27000EDD230001E05171ECB2F0AA
:1023F000AAD00001DB8D1ED0CFC0F6FFD0C0F7FF02
:102400000001CF4BD02B000EF86E0800F5CFE0F0A6
:102410000001E051000AD8B41200630AD8B4D8D73A
:10242000070AD8B407D00D0AD8B404D01C0AD8B40F
:10243000E0D7DAD70001DBBD19D0DCC0D9FFDDC0A1
:10244000DAFFDECFDEF0DDCFDFF0020E0001DC27A9
:10245000000EDD230001DFAF16D0030E0001DB13F9
:102460000001DE6DDF1FD8B0DF2B0DD0DCC0D9FF3F
:10247000DDC0DAFFDECFDEF0DDCFDFF0020E0001DF
:10248000DC27000EDD23010E0001E06F050E0001C8
:10249000E019D8B419D00001E051020D510EF32417
:1024A000F66EFD0EF420F76EF86A000EF8220900B1
:1024B000F5500001DE5D0900F5500001DF59D8A09C
:1024C00003D00001E02BE2D7DBC0D9F0030E0001FE
:1024D000D917D8B403D02D0E71ECB2F0E0C0DAF009
:1024E0002CD00001DA51020D510EF324F66EFD0ED0
:1024F000F420F76EF86A000EF8220900F5CFBCF060
:102500000A00F5CFBDF0DEC0BAF0DFC0BBF051EC81
:10251000A8F0BAC0C1F0BBC0C2F0000E0001C46F89
:102520000A0EC36FBCECABF00001C151300F0001CB
:10253000E06F0001E05171ECB2F00001DA07000138
:10254000DA29D8A4CED7CFC0F6FFD0C0F7FF00015C
:10255000CF4BD02B000EF86E0800F5CFE0F0000155
:10256000E051D8B4120026D7E0C0D9FFE1C0DAFFAD
:10257000DECFE5F0DDCFE6F0050E0001E46FB5D06B
:10258000000120EE02F0E051D926E151DA22DECF3F
:10259000BAF0DDCFBBF0E2C0BCF0010E0001BD6FB0
:1025A00059ECABF0B0D0E5C0C9F0E6C0CAF0010EFE
:1025B0000001CB6FE2C0CCF0D6ECA7F00001E46FD5
:1025C0000001E451D8A41200000120EE02F0E05115
:1025D000D926E151DA22DECFBAF0DDCFBBF0E2C07E
:1025E000BCF0000E0001BD6F59ECABF0000120EE15
:1025F00004F0E051D926E151DA22DECFBAF0DDCF86
:10260000BBF0E2C0BCF0000E0001BD6F59ECABF0B6
:102610007AD0E5C0C9F0E6C0CAF0020E0001CB6F67
:10262000E2C0CCF0D6ECA7F00001E46F0001E45169
:10263000D8A41200000120EE02F0E051D926E151A9
:10264000DA22DECFBAF0DDCFBBF0E2C0BCF0010E83
:102650000001BD6F59ECABF0000120EE04F0E05139
:10266000D926E151DA22DECFBAF0DDCFBBF0E2C0ED
:10267000BCF0010E0001BD6F59ECABF044D0E5C0D9
:10268000C9F0E6C0CAF0000E0001CB6FE2C0CCF08A
:10269000D6ECA7F00001E46F0001E451D8A41200C9
:1026A000000120EE02F0E051D926E151DA22DECF1E
:1026B000BAF0DDCFBBF0E2C0BCF0000E0001BD6F90
:1026C00059ECABF0000120EE04F0E051D926E151C5
:1026D000DA22DECFBAF0DDCFBBF0E2C0BCF0000EF4
:1026E0000001BD6F59ECABF00ED00001E351000AC0
:1026F000D8B446D7010AD8B456D7030AD8B489D774
:10270000010AD8B4BCD7080E0001E0250001C96F4A
:10271000000E0001E1210001CA6FE2C0CBF0E3C06E
:10272000CCF018ECAEF012000001CD6FB1D0C8ECC7
:10273000A4F01200EDECABF01200FBECA5F01200DF
:10274000E6EC9EF0120026ECABF0120028ECB1F0A3
:102750001200CDC0CAF07F0E0001CA1700019051CF
:10276000140DAA0E0001CB6F040E0001CC6FF350C4
:102770000001CB27F4500001CC2300019151010D41
:10278000F3500001CB25D96EF4500001CC21DA6E54
:10279000DF507F0B0001CA19D8B42ED0010E000102
:1027A000FF6F00019051140DAA0E0001CA6F040EB4
:1027B0000001CB6FF3500001CA27F4500001CB2376
:1027C00000019151010DF3500001CA25D96EF4505A
:1027D0000001CB21DA6E0001CD518009DF6E0001CE
:1027E0009051020D000EF324D96E030EF420DA6E20
:1027F000FDC0DEFFFEC0DDFF26ECABF00009D8B463
:102800001200CDC0CAF07F0E0001CA17000190511E
:10281000140DAA0E0001CB6F040E0001CC6FF35013
:102820000001CB27F4500001CC2300019151010D90
:10283000F3500001CB25D96EF4500001CC21DA6EA3
:10284000DF507F0B0001CA19D8B41200010E00013D
:10285000FF6F00019051140DAA0E0001CA6F040E03
:102860000001CB6FF3500001CA27F4500001CB23C5
:1028700000019151010DF3500001CA25D96EF450A9
:102880000001CB21DA6E0001CD518009DF6E12000C
:102890000001CD51070AD8B456D70F0AD8B44AD789
:1028A000010AD8B44DD7030AD8B441D7060AD8B420
:1028B00044D7010AD8B43BD72D0AD8B44AD7030A63
:1028C000D8B444D746D701010351D0ECA3F001C1DD
:1028D000D9FF02C1DAFF0001BAC0DEFF0001BBC0B0
:1028E000DDFF0101035123ECA4F0010120EE06F00D
:1028F0000151D9260251DA220001BAC0DEFF0001DF
:10290000BBC0DDFF0101035123ECA4F0010120EE67
:1029100004F00151D9260251DA220001BAC0DEFFCB
:102920000001BBC0DDFF010103517DECA3F00101FB
:1029300020EE02F00151D9260251DA220001BAC07C
:10294000DEFF0001BBC0DDFF010120EE04F00151FC
:10295000D9260251DA22DECF04F1DDCF05F104C120
:10296000D9FF05C1DAFF000EDF6E010120EE02F093
:102970000151D9260251DA22DECF04F1DDCF05F173
:1029800004C1D9FF05C1DAFFFF0EDF6E01C1F4F00B
:1029900002C1F5F0000E0001F66FD2EC8DF0000ED2
:1029A0000101066F070E0101066531D04BD001C150
:1029B000E0F002C1E1F006C1E2F0030E0001E36FB6
:1029C000B4EC92F03CD001C1E0F002C1E1F006C1EC
:1029D000E2F0020E0001E36FB4EC92F030D001C1DE
:1029E000E0F002C1E1F006C1E2F0010E0001E36F88
:1029F000B4EC92F024D001C1E0F002C1E1F006C1D4
:102A0000E2F0000E0001E36FB4EC92F018D001C1C7
:102A1000D9FF02C1DAFFDECFC6F0DDCFC7F006C1B5
:102A2000C8F03EECAFF0000AD8B4C1D7010AD8B460
:102A3000D6D7030AD8B4C7D7010AD8B4DCD7010166
:102A4000062BB0D701C1C9F002C1CAF0000E0001C7
:102A5000CB6F2CEC88F012000001D26F000E000149
:102A6000D16F000E0001D56FC00E0001CF6F000EB8
:102A70000001D06F950E7FECB2F00001D2517FECD7
:102A8000B2F0000E0001D66F23D0CFC0D9FFD0C066
:102A9000DAFFDF500001D36F020E0001CF27000ED6
:102AA000D0230001D351F3ECAAF00001D12700019B
:102AB000D651010D000EF324D96E020EF420DA6E09
:102AC000D3C0DFFF0001D3517FECB2F00001D62B61
:102AD0000001D2510001D65DD8A0D7D7000E000169
:102AE000D66F0ED00001D651010D000EF324D96E21
:102AF000010EF420DA6EC2ECB2F0DF6E0001D62BCC
:102B00000001D1510001D65DD8A0ECD7000E000124
:102B1000D66F5ED0D5C0D4F021D00001D451010DC4
:102B2000000EF324D96E010EF420DA6EDF5000019E
:102B3000BB6F0001D55100080001D4250001BC6F16
:102B40000001D651010D000EF324D96E020EF420BF
:102B5000DA6EDF5014EC9BF00001D42B0001D6514B
:102B6000010D000EF324D96E020EF420DA6EDF5050
:102B7000F3ECAAF00001CA6FCB6B0001D551000144
:102B8000CA27000ECB230001D4510001CC6FCD6BBE
:102B90000001CA510001CC5D0001CD51800A000145
:102BA000CE6F0001CB51800A0001CE59D8A0B5D715
:102BB0000001D651010D000EF324D96E020EF4204F
:102BC000DA6EDF50F3ECAAF00001D5270001D62B16
:102BD0000001D2510001D65DD8B012009BD7010E82
:102BE0004B6E000E0001636F000E0001646F000E5B
:102BF0000001656FB40E0101016F030E0101026F48
:102C0000000E0101036F63EC94F0AA0E0101016F45
:102C1000030E0101026F010E0101036F63EC94F0DA
:102C2000A70E0101016F000E0101026F020E0101EA
:102C3000036F63EC94F09D0E0101016F000E010122
:102C4000026F030E0101036F63EC94F0930E010118
:102C5000016F000E0101026F040E0101036F63ECAE
:102C600094F0BE0E0101016F030E0101026F050E0B
:102C70000101036F63EC94F0A00E0101016F030EDC
:102C80000101026F060E0101036F63EC94F0BE0EAA
:102C90000001E06F030E0001E16F050E0001E26F1D
:102CA000000E0001E36FB4EC92F0AA0E0001F06F89
:102CB000030E0001F16F000E0001F26F000E000123
:102CC000F36FA7EC8CF0BE0E0001E06F030E000165
:102CD000E16F060E0001E26F030E0001E36FB4EC3A
:102CE00092F0A00E0001F46F030E0001F56F030EC9
:102CF0000001F66FD2EC8DF0A00E0001C96F030E3B
:102D00000001CA6F040E0001CB6F000E0001CC6FF2
:102D100084EC9EF0BE0E0001C96F030E0001CA6F65
:102D2000060E0001CB6F010E0001CC6F84EC9EF00B
:102D3000000E8BECABF0010E8BECABF0000E9E6E38
:102D4000000EA16E000EA46E9B8E9B8C000E0001E7
:102D5000BB6F640EBA6F89ECAAF0D08E1200B0EC93
:102D6000A9F0000E0001F26F000EF16F0001F251A8
:102D700006E1590E0001F15DD8B08BD001D089D0A9
:102D8000D8900001F135F66E0001F235F76E7F0E36
:102D9000F626FC0EF722F86A000EF8220900800ED3
:102DA000F5180900F510D8A422D00001F2511FE156
:102DB000580E0001F15DD8B01AD00001F14BF22B92
:102DC000D8900001F135F66E0001F235F76E7F0EF6
:102DD000F626FC0EF722F86A000EF8220900F5CF5D
:102DE000BAF00A00F5CFBBF089ECAAF04BD0D8902E
:102DF0000001F135F66E0001F235F76E7F0EF62612
:102E0000FC0EF722F86A000EF8220900000EF55EAB
:102E10000900010EF55AD8A020D0000E0001BD6FA8
:102E2000D8900001F135F66E0001F235F76E7F0E95
:102E3000F626FC0EF722F86A000EF8220900F5CFFC
:102E4000EFF00900F5CFF0F0F0C0EFF00001F06B0B
:102E50000001EF51E5ECB0F015D0010E0001BD6F9F
:102E6000D8900001F135F66E0001F235F76E7F0E55
:102E7000F626FC0EF722F86A000EF8220800F5503C
:102E8000E5ECB0F00001F14BF22B0001F25101E151
:102E900070D7000E0001BB6F640EBA6F89ECAAF008
:102EA000000E0001BD6F290EE5ECB0F0010E67ECDD
:102EB000A5F0000E0001BB6F640EBA6F89ECAAF09A
:102EC000000E0001C46F000EC36F74ECACF0120072
:102ED000000120EE07F0D551D926D651DA2201D8CB
:102EE0000AD00500FA6EDE50FD6EDE50FE6EDE503A
:102EF000FF6EFA5012000001DD6FD5C0D9FFD6C0B9
:102F0000DAFF0001DD51DE18D8A421D0000120EE47
:102F100001F0D551D926D651DA220001D751DE5C15
:102F2000D8B00AD0000120EE01F0D551D926D651F3
:102F3000DA22000EDF6E1200000120EE01F0D55102
:102F4000D926D651DA220001D751DF5E12000001E6
:102F500020EE01F0D551D926D651DA22DF500001FA
:102F6000D86FD96B0001D7510001D827000ED923A3
:102F7000000120EE01F0D551D926D651DA22DF50DA
:102F80000001DA6FDB6B0001D8510001DA5D00014E
:102F9000DB51800A0001DC6F0001D951800A000179
:102FA000DC59D8B01200000120EE01F0D551D9262D
:102FB000D651DA220001D751DF26000120EE02F0BF
:102FC000D551D926D651DA22000110EE01F0D551A3
:102FD000E126D651E222E7500001DA6FDB6BDE50CA
:102FE0000001DA5DDE500001DB59D8A01200D5C027
:102FF000D9FFD6C0DAFFDDC0DFFF000120EE01F00F
:10300000D551D926D651DA22000EDF6E000120EE0E
:1030100004F0D551D926D651DA2201D81200050084
:10302000FA6EDE50FD6EDE50FE6EDE50FF6EFA5020
:103030000001DD511200800E0001CD6F8D0ECE6FAC
:103040005B0ECF6F000ED06FD59E0001C7510001FF
:10305000C8110001C9110001CA11D8B41200D596D7
:10306000D59CD59AD598CDC0BAF0CEC0BBF0CFC014
:10307000BCF0D0C0BDF0C7C0BEF0C8C0BFF0C9C072
:10308000C0F0CAC0C1F066ECA0F0BAC0D1F0BBC0BD
:10309000D2F0BCC0D3F0BDC0D4F00CD000018F2B57
:1030A000020E00018F6501D02FD0070E00018F6541
:1030B00001D01200D1C0BAF0D2C0BBF0D3C0BCF076
:1030C000D4C0BDF000018F51020D310EF324F66E15
:1030D000FD0EF420F76EF86A000EF8220900F5CF15
:1030E000CBF00900F5CFCCF0CBC0BEF0CCC0BFF028
:1030F0000001C06BC16B66ECA0F00001BD51CEE1D8
:103100000001BC05D8B0CAD700018F51020D310EA5
:10311000F324F66EFD0EF420F76EF86A000EF82226
:103120000800F5CF8EF0FF0E0001D12503012A6FB4
:10313000FF0E0001D22103012B6FFF0E0001D321EE
:1031400003012C6FFF0E0001D42103012D6F2AC350
:10315000BAF02BC3BBF02CC3BCF02DC3BDF00001F3
:103160008E510001BE6FBF6BC06BC16B66ECA0F0EF
:103170000001BA1F0001BB1F0001BA4BBB2BFF0EA1
:103180000001BA25296EFF0E0001BB212A6EA1ECB9
:10319000B2F0D58E1200000E0001D06F6C0ED16F10
:1031A000DC0ED26F020ED36F0001D890C737C8373C
:1031B000C937CA37020E0001CB6FD8900001D33354
:1031C000D233D133D0330001CB2FF7D7D0C0BAF0F0
:1031D000D1C0BBF0D2C0BCF0D3C0BDF0C7C0BEF000
:1031E000C8C0BFF0C9C0C0F0CAC0C1F066ECA0F052
:1031F000BAC0D4F0BBC0D5F0BCC0D6F0BDC0D7F0CB
:1032000010D0000E0001CC6F000ECD6F000ECE6FFF
:10321000000ECF6F00018D2B020E00018D6501D0D5
:1032200026D0D4C0BAF0D5C0BBF0D6C0BCF0D7C051
:10323000BDF000018D51010D680EF324F66EFD0EF8
:10324000F420F76EF86A000EF8220800F55000012D
:10325000BE6FBF6BC06BC16B66ECA0F00001BD51CF
:103260000001BC11CEE10001BB05D8B0CAD7CA50DD
:1032700000018D19FC0B8D19CA6ECA84C6ECB2F020
:1032800000018D51010D680EF324F66EFD0EF42041
:10329000F76EF86A000EF8220800F5CF8CF0FF0EEA
:1032A0000001D4250301266FFF0E0001D521030183
:1032B000276FFF0E0001D6210301286FFF0E0001CA
:1032C000D7210301296F26C3BAF027C3BBF028C357
:1032D000BCF029C3BDF000018C510001BE6FBF6B73
:1032E000C06BC16B66ECA0F00001BA5100018D6F9C
:1032F0008DC0CBFF120051B294EF9AF0000120EE86
:1033000004F08151D9268251DA22DF5080ECAEF0F0
:103310000009D8B47AD081C0D9FF82C0DAFFDE506C
:10332000DE10D8B46DD081C0D9FF82C0DAFF010EA3
:10333000DBBE26D0010EDB5003E1DE04D8A020D096
:1033400081C0D9FF82C0DAFFDE2804E17F0EDE18DB
:10335000D8B407D081C0D9FF82C0DAFFDE06000EE4
:10336000DD5A930E0001C96F000E0001CA6F000EF6
:103370000001CB6F010E0001CC6F84EC9EF01FD0DA
:1033800081C0D9FF82C0DAFFDE0404E1800EDE18BE
:10339000D8B407D081C0D9FF82C0DAFFDE2A000E80
:1033A000DD22930E0001C96F000E0001CA6F000EEE
:1033B0000001CB6F000E0001CC6F84EC9EF0930EE9
:1033C0000001C96F000E0001CA6F010E0001CB6F32
:1033D000010E0001CC6F84EC9EF0930E0001C96FCA
:1033E000000E0001CA6F010E0001CB6F000E00013C
:1033F000CC6F84EC9EF0AEECB1F0A7ECB2F0120012
:10340000AEECB1F0D2ECB2F0120066C0BAF067C018
:10341000BBF068C0BCF08DECB2F012000001F535D5
:10342000F6350001F86F0001F851D8A40AD0000E5B
:103430000001F36F000EF46F000EF56F000EF66FD3
:103440001200F3C000F1F4C001F1F5C002F1F6C0C2
:1034500003F1200E06D00101D8900333023301336B
:103460000033E82EF8D7010100510001F76F000189
:10347000F58FFF0E0001F317FF0EF417FF0EF5177F
:10348000000EF617960E0001F85F0001F8AF1AD093
:103490000001F851800A970FD8B00AD0000E000141
:1034A000F36F000EF46F000EF56F000EF66F120052
:1034B0000001D890F633F533F433F3330001F83FCD
:1034C000F7D71BD01F0E0001F86512D0000E0001C7
:1034D000F36F000EF46F000EF56F000EF66F120022
:1034E0000001D890F337F437F537F6370001F807C5
:1034F0000001F8510001D8A4F3D70001F7510001F1
:10350000D8B409D00001F61FF51FF41FF36D000EAB
:10351000F423F523F623F3C0F3F0F4C0F4F0F5C080
:10352000F5F0F6C0F6F01200000120EE04F0815133
:10353000D9268251DA22DF50D0ECAFF00009D8B49E
:103540006AD081C0D9FF82C0DAFFDE50DE10D8B465
:103550005DD081C0D9FF82C0DAFF010EDBBE22D070
:10356000010EDB5003E1DE04D8A01CD081C0D9FFDE
:1035700082C0DAFFDE2804E17F0EDE18D8B407D05F
:1035800081C0D9FF82C0DAFFDE06000EDD5A930E3D
:10359000106E000E116E000E126E010E136ED5EC41
:1035A000A2F01BD081C0D9FF82C0DAFFDE0404E1A3
:1035B000800EDE18D8B407D081C0D9FF82C0DAFFF0
:1035C000DE2A000EDD22930E106E000E116E000E2C
:1035D000126E000E136ED5ECA2F0930E106E000E5C
:1035E000116E010E126E010E136ED5ECA2F0930E49
:1035F000106E000E116E010E126E000E136ED5ECE1
:10360000A2F0E1ECB2F0ADECB2F01200E1ECB2F0FD
:10361000DEECB2F0120066C001F067C002F068C0D4
:1036200003F094ECB2F012000001BF6F57D0BBC0A2
:1036300036F042ECA6F01200BBC035F01200BBC061
:1036400034F01200BBC033F01200BBC032F01200E5
:10365000BBC031F01200BBC030F012000001BC5101
:103660000001D8A405D0BBC022F30301236B1200D4
:10367000BBC024F30301256B030122510001BE6F7F
:10368000BD6B030124510001BD2500017B6F0301C7
:1036900025510001BE2100017C6F12000001BC51C8
:1036A0000001D8A405D0BBC01EF303011F6B12009C
:1036B000BBC020F30301216B03011E510001BE6F4B
:1036C000BD6B030120510001BD250001796F03018D
:1036D00021510001BE2100017A6F12000001BF518B
:1036E000070AD8B4A4D70F0AD8B4A6D7010AD8B409
:1036F000A6D7030AD8B4A6D7010AD8B4A6D7070A12
:10370000D8B4A6D7010AD8B4A6D71E0AD8B4A6D76B
:10371000070AD8A41200C2D73FECADF0010E80EC2E
:10372000AEF00009D8B41200FB0E0001CF6FFF0EFF
:103730000001D06F000E0001D26F230ED16FD3ECC9
:1037400091F0950E0001CF6FFF0E0001D06F77C092
:10375000D1F078C0D2F089C0D3F00001D46B8AC018
:10376000D5F00001D66BD3EC91F0E7EC8EF0000EB3
:103770000001E76F000EE66F000E0001D46FC80E67
:10378000D36FD7ECB1F025D056ECB2F000017B51ED
:103790000001E62700017C510001E723FB0E000138
:1037A000CF6FFF0E0001D06F000E0001D26F230E0D
:1037B000D16FD3EC91F0ED0E0001CF6FFF0E000141
:1037C000D06FE6C0D1F0E7C0D2F0D3EC91F0E7ECD7
:1037D0008EF00001E7BFD8D7880E0001E65D130E1A
:1037E0000001E759D8A0D0D7000EF5ECADF0AEEC53
:1037F000B1F00009D8B4120000ECAFF012002AECCE
:10380000A3F0A7EC9FF053D062EC84F0FAD78CECD5
:103810009BF0F7D737ECB2F0F4D747EC9FF0F1D735
:10382000010E80ECAEF00009D8B4EBD7FB0E00011E
:10383000CF6FFF0E0001D06F000E0001D26F230E7C
:10384000D16FD3EC91F0D80E0001CF6FFF0E0001C5
:10385000D06FD3EC91F0C30E0001CF6FFF0E0001CB
:10386000D06FD3EC91F0C30E0001CF6FFF0E0001BB
:10387000D06FD3EC91F0C30E0001CF6FFF0E0001AB
:10388000D06FD3EC91F0C30E0001CF6FFF0E00019B
:10389000D06FD3EC91F0E7EC8EF076ECA9F0AEECC3
:1038A000B1F00009D8B4ADD700ECAFF0AAD773C01F
:1038B000FCF374C0FDF30301FD51000AD8A4B0D796
:1038C0000301FC51010AD8B49FD7030AD8B49FD78B
:1038D000010AD8B49FD7070AD8B49FD7A1D7000E42
:1038E0000001E76F000EE86F800EE96F440EEA6F8B
:1038F000330E0001EB6F330EEC6F530EED6F400E85
:10390000EE6F000120EE01F0E151D926E251DA22FA
:10391000DECFE5F0DDCFE6F0E5C0BAF0E6C0BBF003
:103920000001BC6BBD6B000EECEC90F0BAC0EFF088
:10393000BBC0F0F0BCC0F1F0BDC0F2F0EFC0BAF017
:10394000F0C0BBF0F1C0BCF0F2C0BDF0E7C0BEF00B
:10395000E8C0BFF0E9C0C0F0EAC0C1F04CEC86F0AE
:10396000BAC0EFF0BBC0F0F0BCC0F1F0BDC0F2F0E7
:10397000EFC0C8F0F0C0C9F0F1C0CAF0F2C0CBF09F
:10398000EBC0CCF0ECC0CDF0EDC0CEF0EEC0CFF08F
:1039900000EC80F0C8C0EFF0C9C0F0F0CAC0F1F090
:1039A000CBC0F2F0EFC0E1F0F0C0E2F0F1C0E3F024
:1039B000F2C0E4F01200C6C0CEF0C7C0CFF0000ED7
:1039C0000001CD6F000ECC6FC8C0CAF0C9C0CBF0EB
:1039D0000001CE510001CF11D8A434D0CAC0D9FF04
:1039E000CBC0DAFF300EDF6E000E0001CD6F010E8E
:1039F000CC6F40D0CEC0C1F0CFC0C2F0000E0001ED
:103A0000C46F0A0EC36FBCECABF00001C151300FA4
:103A1000CAC0D9FFCBC0DAFFDF6ECEC0BAF0CFC0CC
:103A2000BBF0000E0001BD6F0A0EBC6F51ECA8F098
:103A3000BAC0CEF0BBC0CFF00001CC4BCD2B000103
:103A4000CA4BCB2B0001CE510001CF11D8B408D006
:103A50000001CD5105E1060E0001CC5DD8A0CAD70A
:103A6000C8C0BAF0C9C0BBF0CCC0BCF0CDC0BDF07E
:103A70001EECAAF00001CC510001C825D96E00014E
:103A8000CD510001C921DA6E000EDF6E1200E7C0D1
:103A9000D9FFE8C0DAFF000EDE6E000EDD6E000119
:103AA00020EE02F0E751D926E851DA22000EDE6E50
:103AB000000EDD6E000120EE04F0E751D926E8513A
:103AC000DA22E9C0DEFFEAC0DDFF930E0001E06FFD
:103AD000000E0001E16F000E0001E26F030E000115
:103AE000E36FB4EC92F0930E0001E06F000E000162
:103AF000E16F010E0001E26F030E0001E36FB4EC11
:103B000092F0930E0001C96F000E0001CA6F000E03
:103B10000001CB6F000E0001CC6F84EC9EF0930E81
:103B20000001C96F000E0001CA6F010E0001CB6FCA
:103B3000000E0001CC6F84EC9EF0F60E0001666F63
:103B4000320E0001676F010E0001686FE80E000180
:103B5000C76F030EC86F000EC96F000ECA6F1BEC53
:103B600098F012000101005101010111D8B41200B6
:103B7000010104510101051101010611D8B412001F
:103B8000010107510101081101010911D8B4120006
:103B900001010A5101010B1101010C11D8B41200ED
:103BA0000101025101010311D8A405D0000E010149
:103BB000036F010E026F00C1D9FF01C1DAFF000ED1
:103BC000DF6E010120EE01F00051D9260151DA2209
:103BD000000EDF6E010120EE02F00051D9260151E6
:103BE000DA2202C1DEFF03C1DDFF010120EE04F095
:103BF0000051D9260151DA220AC1DEFF0BC1DEFFD6
:103C00000CC1DEFF010120EE07F00051D926015161
:103C1000DA2207C1DEFF08C1DEFF09C1DEFF01D8DD
:103C200012000500FA6E01010451FD6E0551FE6E91
:103C30000651FF6EFA5012000001C56F200E000100
:103C4000C55F0001C551050DF3CFC3F0F4CFC4F03B
:103C50006B0E0001C3250001C66FFD0E0001C421DB
:103C60000001C76F000E0001CA6F040E0001CA6593
:103C700001D043D0000E0001CB6F060E0001CB65D2
:103C800001D035D0C6C0BAF0C7C0BBF0CBC0BCF0C5
:103C9000EBECAFF00009D8A405D085C0C8F086C011
:103CA000C9F004D0FDC0C8F0FEC0C9F00001CB517E
:103CB0000A0D640E0001C16F040E0001C26FF350C3
:103CC0000001C127F4500001C2230001CA51020DB6
:103CD000F3500001C125D96EF4500001C221DA6E03
:103CE000C8C0DEFFC9C0DDFF0001CB2BC6D7000175
:103CF000C64BC72B0001CA2BB8D7640E0001BF6F9B
:103D0000040E0001C06F1200080E0001C925000159
:103D1000C66F000E0001CA210001C76FCBC0C8F0FA
:103D20003EECAFF00001CD6F42D0010E0001CC1788
:103D3000000120EE02F0C951D926CA51DA22DECFA5
:103D4000BAF0DDCFBBF0CBC0BCF0CCC0BDF059ECBD
:103D5000ABF01200010E0001CC17010E0001CC1BCC
:103D6000000120EE02F0C951D926CA51DA22DECF75
:103D7000BAF0DDCFBBF0CBC0BCF0CCC0BDF059EC8D
:103D8000ABF01200010E0001CC17000120EE04F090
:103D9000C951D926CA51DA22DECFBAF0DDCFBBF045
:103DA000CBC0BCF0CCC0BDF059ECABF012000001B0
:103DB000CD51000AD8B41200010AD8B4B6D7030A0C
:103DC000D8B4C8D7010AD8A41200DCD7000E00016D
:103DD000C86FFA0E47240001BA6FFF0E4820000199
:103DE000BB6F000E0001BD6F060EBC6F07ECA0F0AC
:103DF0000001BA510001C96FC9C0BAF00001BB6B24
:103E0000000E0001BD6F040EBC6F07ECA0F00001B6
:103E1000BA510001C76F000E0001C86F06D0A1ECB7
:103E2000AEF026ECABF00001C82B0001C751040D29
:103E3000F31EF41EF34AF42A0001C9510001C26FB7
:103E4000C36BF3500001C227F4500001C3230001EB
:103E5000C21FC31FC24BC32B040E0001C227000E9A
:103E6000C3230001C8510001C46FC56B0001C251DA
:103E70000001C45D0001C551800A0001C66F000148
:103E8000C351800A0001C659D8B01200C8D73FEC10
:103E9000ADF0010E0001726F910E716F030E000103
:103EA000FC6FE80EFB6F000E0001706F000E6F6F6D
:103EB000030E00016C6FE80E6B6F000E00016E6F59
:103EC000000E6D6F000E0001FA6F080EF96F02D040
:103ED00009EC8AF0000172BF07D000017251F8E1CD
:103EE00000017105D8B0F4D7BD0E00016B250001AB
:103EF000D76FFF0E00016C210001D86F000E00018A
:103F0000DA6FC80ED96F000E2BECA2F009D0000EAC
:103F10000001D46FC80ED36FD7ECB1F07BECAFF0DB
:103F200000018951D8A40CD000018A51D8A408D02E
:103F300000018851D8A404D000018751D8B4E7D734
:103F4000000E42ECB2F0000EF5ECADF0120076EC93
:103F5000A9F0000E0001746F000E736F23EE5FF086
:103F600001D80AD00500FA6EDE50FD6EDE50FE6EFE
:103F7000DE50FF6EFA5012000009D8B405D0000ED2
:103F80000001746F010E736F23EE4BF001D80AD05D
:103F90000500FA6EDE50FD6EDE50FE6EDE50FF6EE6
:103FA000FA5012000009D8B405D0000E0001746F59
:103FB000020E736F23EE69F001D80AD00500FA6E85
:103FC000DE50FD6EDE50FE6EDE50FF6EFA501200C7
:103FD0000009D8B405D0000E0001746F030E736F92
:103FE00023EE55F001D80AD00500FA6EDE50FD6EC2
:103FF000DE50FE6EDE50FF6EFA5012000009D8B49B
:104000001200000E0001746F040E736F1200000E98
:104010000001BF6F0001BDAF08D00001BC6DBD1F26
:10402000D8B0BD2B010E0001BF6F0001BBAF08D09F
:104030000001BA6DBB1FD8B0BB2B010E0001BF1B26
:10404000000E0001C16F000EC06F0001BC510001E5
:10405000BD11D8B42CD0010E0001BE6F06D00001F6
:10406000D890BC37BD370001BE2B0001BDAFF7D7DC
:104070000001D890C037C1370001BC510001BA5DC2
:104080000001BD510001BB59D8A00AD00001BC51AC
:104090000001BA5F0001BD510001BB5B0001C0819E
:1040A0000001D890BD33BC330001BE2FE1D7000121
:1040B000BF510001D8B405D00001C06DC11FD8B0F8
:1040C000C12BC0C0BAF0C1C0BBF01200000E00018D
:1040D000C26F000EC36F000EC46F000EC56F0001EB
:1040E000BE510001BF110001C0110001C111D8B4BF
:1040F00042D0010E0001C66F08D00001D890BE3733
:10410000BF37C037C1370001C62B0001C1AFF5D79B
:104110000001D890C237C337C437C5370001BE513C
:104120000001BA5D0001BF510001BB590001C0513F
:104130000001BC590001C1510001BD59D8A012D0E5
:104140000001BE510001BA5F0001BF510001BB5B1D
:104150000001C0510001BC5B0001C1510001BD5B09
:104160000001C2810001D890C133C033BF33BE33D8
:104170000001C62FCDD7C2C0BAF0C3C0BBF0C4C0C7
:10418000BCF0C5C0BDF01200000E0001BF6F000EF4
:10419000BE6F38D03C0E0001BE25D96E030E000163
:1041A000BF21DA6EBBC0E1FFBCC0E2FFE75065ECA7
:1041B0008BF0DF6E3C0E0001BE25D96E030E0001B0
:1041C000BF21DA6E800EDE18D8A40ED00001BE0723
:1041D000D8A0BF073C0E0001BE25D96E030E00011A
:1041E000BF21DA6E000EDB8E0001BB4BBC2B000141
:1041F000BE4BBF2B0001BF511AE1060E0001BE5D90
:10420000D8B015D0BBC0D9FFBCC0DAFFDF50D8B4DE
:104210000ED0C0D73C0E0001BE25D96E030E0001A2
:10422000BF21DA6E000EDF6E0001BE4BBF2B000116
:10423000BF5106E1060E0001BE5DD8B01200EAD7FC
:1042400012000001BE51010D5B0EF324F66EFD0E4F
:10425000F420F76EF86A000EF8220800F5CFC4F0DB
:10426000000E0001C36F06D00001BC510001BD5F0C
:104270000001C32B0001BC510001BD5DD8B0F4D7D3
:104280000001BE510001BD03F350BD6F0001C351D9
:104290000001BD270001C4510001BF17BDC0C0F01F
:1042A000C4C0C1F00001C02B03D00001D890C137B9
:1042B0000001C02FFAD70001C151FF0A0001C26FEF
:1042C000BAC0D9FFBBC0DAFF0001C251DF16BDC0C2
:1042D000C0F0BFC0C1F00001C02B03D00001D890D6
:1042E000C1370001C02FFAD7BAC0D9FFBBC0DAFF6F
:1042F0000001C151DF1212000001D26FCAC0BAF032
:10430000CBC0BBF05EECAEF0BAC0CAF0BBC0CBF025
:10431000CCC0BAF0CDC0BBF05EECAEF0BAC0CCF011
:10432000BBC0CDF00001D2510001D8B429D0000E9D
:104330000001BB6F890EBA6FCBC0CEF00001CF6B0E
:10434000CEBFCF690001CE510001BC6FBD6B000133
:10435000CA510001BE6FBF6BCDC0D0F00001D16B60
:10436000D0BFD1690001D0510001C06FC16B000105
:10437000CC510001C26FC36B050E54ECAAF01200C1
:10438000890E7FECB2F00001CB517FECB2F000015E
:10439000CA517FECB2F00001CD517FECB2F00001C8
:1043A000CC517FECB2F01200360EF66E650EF76E51
:1043B000010EF86E03EEE8F010EE0CF00900F5CFF8
:1043C000EEFFE550E150FAE19C0EF66E650EF76ED9
:1043D000010EF86E00EEF9F010EE07F00900F5CFCF
:1043E000EEFFE550E150FAE1660EF66E650EF76EEF
:1043F000010EF86E00EE47F010EE0AF00900F5CF5E
:10440000EEFFE550E150FAE104EEAAF011EE2CF0D7
:10441000EE6AE550E150FCE1E250FAE104EE00F012
:10442000AA0EEE6AE806FDE103EE00F0E80EEE6A81
:10443000E806FDE100EE60F05A0EEE6AE806FDE1E6
:1044400000EE29F01E0EEE6AE806FDE15190519251
:104450000001FFEF9BF00001DC6F000E0001DE6F3A
:10446000000EDD6F0001D8BF0DD00001D85104E16E
:104470000001D705D8A006D0000E0001E06F010EA4
:10448000DF6F03D00001DF69E0690001DC5100014A
:10449000D8B40CD0D9C0CAF0DAC0CBF0DFC0CCF0B1
:1044A000E0C0CDF0010E7CECA1F01200D9C0CAF042
:1044B000DAC0CBF0DFC0CCF0E0C0CDF0000E7CEC79
:1044C000A1F00AD05FECB2F0000179510001DD27C4
:1044D00000017A510001DE230001D7510001DD5DAA
:1044E0000001DE51800A0001DB6F0001D851800A13
:1044F0000001DB59D8A0E6D7000EF5ECADF01200B4
:104500000001C26F020E0001BF27020E0001C12789
:10451000030E0001C227030E0001C027000E000198
:10452000BD6F2A0EE5ECB0F0010E0001BD6F000E6C
:10453000E5ECB0F0010E0001BD6F0001C251E5ECE9
:10454000B0F0010E0001BD6F000EE5ECB0F0010E01
:104550000001BD6F0001C051E5ECB0F0000E00019C
:10456000BD6F2B0EE5ECB0F0010E0001BD6F000E2B
:10457000E5ECB0F0010E0001BD6F0001BF51E5ECAC
:10458000B0F0010E0001BD6F000EE5ECB0F0010EC1
:104590000001BD6F0001C151E5ECB0F0000E00015B
:1045A000BD6F2C0EE5ECB0F01200080E10240D6E5D
:1045B000000E11200E6E12C00FF04EECB0F0146E13
:1045C0003BD0010E131620EE02F01050D9261150E8
:1045D000DA22DECF01F0DDCF02F012C003F013C00B
:1045E00004F019ECADF01200010E1316010E131AAF
:1045F00020EE02F01050D9261150DA22DECF01F061
:10460000DDCF02F012C003F013C004F019ECADF0DE
:104610001200010E131620EE04F01050D92611508E
:10462000DA22DECF01F0DDCF02F012C003F013C0BA
:1046300004F019ECADF012001450000AD8B41200C6
:10464000010AD8B4BED7030AD8B4CED7010AD8A479
:104650001200DFD7EFEC95F0B8ECB2F0010E1FECD2
:10466000AFF00009D8B40CD088ECA6F0EFEC8FF0D6
:10467000AFEC96F0AEECB1F00009D8A400ECAFF0CE
:10468000080E1FECAFF00009D8B413D0CF0E000114
:10469000E76F030E0001E86F000E0001EA6F080EDD
:1046A000E96F47EC9DF0AEECB1F00009D8A400EC46
:1046B000AFF0B10E0001BE6F000E0001BF6F000E23
:1046C0000001C06F14ECA8F0B10E0001BC6F000E29
:1046D0000001BD6F12ECA7F037ECB1F078ECB2F04E
:1046E0000A0EA0ECB1F018ECB1F0000E0001BB6FA7
:1046F000140EBA6F89ECAAF012000001BC6F38D01A
:10470000920E0001BA6F0F0E0001BB6F1200930EE4
:104710000001BA6F0F0E0001BB6F1200940E000172
:10472000BA6F0F0E0001BB6F1200950E0001BA6F39
:104730000F0E0001BB6F1200960E0001BA6F0F0E34
:104740000001BB6F1200970E0001BA6F0F0E00013F
:10475000BB6F1200980E0001BA6F0F0E0001BB6F05
:104760001200000E0001BA6F000E0001BB6F1200B4
:104770000001BC51000AD8B4C3D7010AD8B4C7D7C6
:10478000030AD8B4CBD7010AD8B4CFD7070AD8B414
:10479000D3D7010AD8B4D7D7030AD8B4DBD7E1D727
:1047A0000001BC6F38D0570E0001BA6FFF0E000138
:1047B000BB6F1200550E0001BA6FFF0E0001BB6FF8
:1047C0001200530E0001BA6FFF0E0001BB6F120002
:1047D000510E0001BA6FFF0E0001BB6F12004F0EA9
:1047E0000001BA6FFF0E0001BB6F12004D0E0001F9
:1047F000BA6FFF0E0001BB6F12004B0E0001BA6FC3
:10480000FF0E0001BB6F1200000E0001BA6F000E18
:104810000001BB6F12000001BC51000AD8B4C3D71D
:10482000010AD8B4C7D7030AD8B4CBD7010AD8B481
:10483000CFD7070AD8B4D3D7010AD8B4D7D7030A39
:10484000D8B4DBD7E1D70001BC6F38D0800E0001AF
:10485000BA6F0F0E0001BB6F1200810E0001BA6F1C
:104860000F0E0001BB6F1200820E0001BA6F0F0E17
:104870000001BB6F1200830E0001BA6F0F0E000122
:10488000BB6F1200840E0001BA6F0F0E0001BB6FE8
:104890001200850E0001BA6F0F0E0001BB6F1200EF
:1048A000860E0001BA6F0F0E0001BB6F1200000EE2
:1048B0000001BA6F000E0001BB6F12000001BC5175
:1048C000000AD8B4C3D7010AD8B4C7D7030AD8B4EA
