:100000000DEF04F026EF00F004EF0AF0D1EC04F05D
:10001000FF0000F000F012000CEF0AF018EF00F003
:10003000F26AFC6A9BEC04F004009EEC09F0D8EC38
:1000400003F0F3EC03F05EEC08F0F6D701501F0B61
:10005000E80601E01200055001E01200060E021849
:1000600014E01AD0020E3D6E4A0E3FD8306A090ED7
:100070000AD0020E3D6E450402E1870E36D84504D3
:100080000AE1306A1D0E2F6E06D00450210AEAE004
:10009000030AEFE0010A42820138E832030BE80666
:1000A00014E01200020E3D6E440E206E24D0020EAB
:1000B0003D6E04C044F0020C020E3D6E430EF5D7B7
:1000C000020E3D6E03C043F0020C0250010AD8B488
:1000D0001200030AE7E0010AEFE00A0AD8B41200AE
:1000E000030AE5E0010AECE01200206E2050D8A4DB
:1000F000100E216E1200216A4292010E2F6E010C29
:100100004F6A140E506E516A296A2A6A4FC0F6FF70
:1001100050C0F7FF51C0F8FF42D80800F5CFDFFF0D
:100120004F2A000E50225122294A2A2A040E2A5C04
:10013000EDE30D0EE8CFB2F4600EE8CFB3F4000E9D
:10014000496E050E486E0AEC03F04F68170E506EAC
:10015000516A030E2A6E296851C0F8FF50C0F7FF9C
:100160004FC0F6FF1CD8DF50F56E0C0029C04EF0D2
:100170003F0E4E1607E1FEEC09F0040EA66EB50E1A
:1001800067EC04F04F06000E505A515A0A002950ED
:100190002A1001E112002906D8A02A06DDD7AC0EEC
:1001A0002924D96E040E2A20DA6E120003040BE112
:1001B00001501F0B08E1010E3D6E030E021802E113
:1001C000428001D042900350D8A4120001501F0B6E
:1001D000020AD8A4120005500F0BD8B4120028D878
:1001E000476A040E486E4726000E4822F350472601
:1001F000F450482223D847241D6EF45048201E6E28
:10020000030E021805E10FD8040EDF6E0CD81CD0C7
:1002100005AE04D008D8400EDF6E400C04D8080E9E
:10022000DF6E01D811D01DC0D9FF1EC0DAFF120049
:10023000010E3D6E05500F0B080D1200010E05AEAC
:10024000000E040DF3501200000EDB8E000C3D502A
:1002500010E193EC03F0196E3A0405E1010E32EC63
:1002600003F03A6A1200000E32EC03F0010E3A6E0F
:10027000010C01AE1BD0010E3E6E2F50075C3050BA
:10028000085804E207C02FF008C030F076EC01F007
:10029000480E196E010E32EC03F0000E32EC03F042
:1002A000240E04010A6F040E0B6F1CD0020E3E6E6A
:1002B000040E196E0750081002E1480E196E3A0438
:1002C00005E1010E32EC03F03A6A05D0000E32EC83
:1002D00003F0010E3A6E07500810D8A41200040172
:1002E000096B00D0480E086F088F480C080E326E5C
:1002F00030500DE1080E2F5C0AE22FC032F0405062
:1003000002E1010E03D0400402E1020E406E32C051
:1003100009F432502F5E000E305A240E1D6E040E6A
:100320001E6E42A21AD00BD01BD813EC01F00F0E98
:10033000F76403D00800F55001D019D81ED8325008
:10034000F3E112000DD813EC01F00F0EF76403D0A7
:100350000800F55001D00BD810D83250F3E112004C
:1003600020C0F6FF21C0F7FF000EF86E1200F6CF96
:10037000E1FFF7CFE2FFE7501200DF6E1D4A1E2AB1
:10038000204A212A320612000138E832030B18E015
:100390001200010E3D6E040E416E040C010E3D6E06
:1003A000450E206E7BEF00F02CD8496E49C020F03E
:1003B0007BEF00F026D8D96EDA6A03C0DFFF1200A7
:1003C000025002E179EF02F0010A02E1D6EF00F0FB
:1003D000020A02E1D6EF00F0060ADBE0030A02E1BE
:1003E00006EF02F0010AD8B412000F0AD7E0010AA2
:1003F00002E155EF03F0030AD7E0010ADBE0070A48
:100400001200010E3D6E0550460F1200800E0118BD
:1004100030E01200010E3D6EA40E75EC00F0120EDD
:1004200009D003502DE1010E3D6E380E75EC00F041
:10043000306A290E2F6E24D0010E3D6E0350010F3D
:10044000476E47C0F6FF100EF76E000EF86E0900FB
:10045000F5CF20F0100E216EB0EC01F00F0EF76416
:1004600003D00800F55002D0B7EC01F02F6E306ACF
:1004700007D00450010ACEE0030AD3E0010ADCE011
:1004800042821200366A27D03850486E000E48BEAD
:10049000FF0E496E4A6E4B6E4850155C0D6E49500A
:1004A00016580E6E4A5017580F6E4B501858106E53
:1004B0000FC0F8FF0EC0F7FF0DC0F6FF11D80D00FA
:1004C000362A0ED80C00362A240EA66EB50E67EC1E
:1004D00004F0FE0E38263850800A7F0FD5E2120055
:1004E000AC0E3624D96EDA6A040EDA22DF50F56ECD
:1004F0001200246B256B22D0010E3D6E42B0248386
:1005000024D0010E3D6E21D018EC01F0476A040E94
:10051000486E4726000E4822F3504726F4504822E2
:100520001EEC01F047241D6EF45048201E6E13ECA3
:1005300001F0DFA40AD0010E246F07D001501F0B79
:10054000DBE0010ADEE0030ADFE03D04D8A412008C
:10055000240E206E040E216E4292020E2F6E020CAB
:10056000400E486401D0486E4A6A0DD047504A2474
:10057000D96EDA6A6C0E4A24E16EE26A040EE22257
:10058000DFCFE7FF4A2A48504A5CF0E348C011F445
:10059000400E0401101710BD03D0496A492A01D04A
:1005A000496A493A49464946040110514918BF0B66
:1005B0004918106F1087108F12003F6A0CBF12008D
:1005C00048500D5D02E20DC448F03F6A0BD02C0E7E
:1005D0003F24D96EDA6A040EDA2247503F24F9EC40
:1005E00009F03F2A48503F5CF2E3400E0D6F0C17B4
:1005F0000CBD03D0496A492A01D0496A493A4946A3
:10060000494604010C514918BF0B49180C6F0C875F
:100610000C8F1200495006E1050E485C03E2496A5E
:10062000050E486E48504A6E49504B6E4C6A4D6AF2
:100630000A0ED8904A364B364C364D36E82EF9D74E
:100640004AC009F04BC00AF04CC00BF04DC00CF092
:100650000BC0F8FF0AC0F7FFF66A140EA66EB50EBF
:1006600067EF04F0476E080E1A6E1C0E1B6E040E28
:100670001C6E475006E1140E1B6E040E1C6E256A9C
:1006800002D0040E256E266E0BD819C0DEFF1AC0EC
:10069000DEFF1BC0DEFF1CC0DEFF02D8DF8E1200B3
:1006A00025C0D9FF26C0DAFF1200010E3D6E0F01F2
:1006B00016D8346A3450460FD96EDA6ADF6A342AA3
:1006C0003450F8E003C045F04550C9EC04F0035045
:1006D00003E1050E416E050C060E416E060C4D6BD6
:1006E0004E6B4F6B506B516B526B536B1200040E81
:1006F000411808E103C05EFF0F015E51050ED8B43A
:10070000030E416E3E04D8A4120076EC01F0020EF6
:10071000401802E108D8040C0401480E08BD080E78
:10072000086F088F1200040E0401086F088F040C74
:10073000030E416E0F015D6B626A7B0E5C6F5E6B38
:100740006FEC03F0160E4C6F658C03D06296FEECD6
:1007500009F062B6FBD7659C6598040E196E000E11
:1007600032EC03F0010E3A6E426A456A000EC9EFA0
:1007700004F081B818EC00F0060EF66E14D80D0ED9
:10078000F5180DE10900600EF51809E1F66A0BD8BD
:10079000F52803E10900F52802E000EF0AF018EC63
:1007A00000F000EF00F0140EF76EF86A0900140C68
:1007B0002306D8A0240623502410D8A412004E0EDD
:1007C000246E236A060E416002D08B80060C8BB02B
:1007D00003D0476A472A01D0476A8B504718FE0B5F
:1007E00047188B6E1200C0BC1200030ED36E6592C8
:1007F0006596F26A0ED808D0C0AC04D02D06D8A0F9
:100800002E0601D006D804002D502E10F5E1FF0071
:100810001200040E2E6E2D6A040C04EEACF014EEE1
:1008200000F0EE6AE550E150FCE1E250FAE100EE42
:1008300060F0820EEE6AE806FDE100EE01F0460E81
:10084000EE6AE806FDE10001B9EF03F00401086B70
:10085000406A00AF02D0006B3A6A04AF03D0046B69
:10086000010E3A6E3E6A3D6A2F6A306A6598C4ECA2
:1008700001F002EC00F027EF01F005D80AD8376A42
:100880000CD8386A12007E0E3B6E116AFC0E126E96
:10089000FC0C010E136E146A000C156816681768BC
:1008A000186812003F6A1E0E0F014D6F400E0401C2
:1008B0000D6F2C0E0E6F040E0F6F080E0C6F0C8F49
:1008C0006C0E126F040E136F400E106F400C476ECB
:1008D000F29EF3EC03F0B50E471804E0030ED36E5E
:1008E0000300FED7550EA76EAA0EA76EA682A6B26B
:1008F000FED7A69412005CCF35F0040E0F015C6F9A
:1009000062986582A198A088AAEC04F0A09835505E
:100910000F015C131200390402E1D1EC04F0656AA6
:10092000150E0F015F6F5C6B658698EC03F0010E8E
:10093000416E396A1200600ED36E9B8CDCEC04F0C1
:10094000BFEC04F0C16AC26A3DEC04F08B90949055
:10095000E7EF04F08B90D3CF31F00300A1B802D0C1
:10096000D0A6FBD731C0D3FF1200D9EC04F06592BA
:100970000F015C9501D0629462A41200FCD705D0EF
:10098000FEEC09F04706D8A0480647504810F8E1A9
:100990001200476E4704D8A4120052EC04F03DEF59
:1009A00004F06592656A48684768BFEC04F0416AE4
:1009B000120002D8BFEF04F0030E486E476A030C22
:1009C000390401E1120065A68BEC04F0120065B653
:0E09D000D1EC04F0396AE0EF04F012001200DE
:1010000000B6046134034D006900630072006F0094
:1010100063006800690070002000540065006300F0
:1010200068006E006F006C006F00670079002000A0
:1010300049006E0063002E000902290001010080B2
:10104000320904000002030000000921110100011F
:10105000221D000705810340000107050103400030
:101060000126034800490044002000550053004277
:1010700000200042006F006F0074006C006F006180
:10108000006400650072000600FF0901A10119015A
:101090002940150026FF0075089540810019012997
:1010A000409100C01201000200000008D8043C007A
:0B10B00001010102000104030904001B
:1010BC00060E4118D8B465B21200375001E017D1B2
:1010CC0004010CBF1200600E476E400E486EDDEC42
:1010DC0002F0010E376E276A286A2750A10FD96ECD
:1010EC00DA6A000EDF6E274A282A285005E1400EE6
:1010FC00275CD8B01200F1D71200020EA16F3A0E85
:10110C00A26F010EA36FA46FA56B140EA66FA76B35
:10111C00A86B000E1124A96FEC0E1220AA6FFF0E03
:10112C001320AB6FFF0E1420AC6F030EAD6FF80ED7
:10113C00AE6FAF69010EB06FB16B080EB26FB36BCF
:10114C00B46BB56BB669A50EDA6F040110BFA50CB4
:10115C00A10E476E400E486EB0EC02F0376A1200DA
:10116C00615106E17F0E3B6EF80E116E126802D0D3
:10117C0043EC04F049EC04F0F1D7286A050E276E15
:10118C000CD0FEEC09F027C048F028C049F00AEC5E
:10119C0003F09EEC09F0274A282A3B50526E536A02
:1011AC00522A000E53225250275C53502858D6E234
:1011BC00E8D715280EE116280CE117280AE11828A3
:1011CC0008E161C015F062C016F063C017F064C08E
:1011DC0018F015506119C2E116506219BFE1175091
:1011EC006319BCE118506419B9E1276A286A1AD04E
:1011FC006551A0082724D96EDA6AAC0E3824E16E4A
:10120C00E26A040EE222DFCFE7FF382A152A000E2D
:10121C001622172218223A0E381802E142EC02F07C
:10122C00274A282A00017CD899E2E2D742EC02F046
:10123C004DEC04F093D7070EA16F61C0A2F062C011
:10124C00A3F063C0A4F064C0A5F065C0A6F063C0B1
:10125C00F8FF62C0F7FF61C0F6FF276A286A0BD05F
:10126C00090000016551E1082724D96EDA6AF5CF2F
:10127C00DFFF274A282A54D8F3E3040110BF1200D9
:10128C0067D780EC00F06AD70C0EA16F010EA36F2C
:10129C00020EA26F160EF66ED3EC03F0F5CFA4F08F
:1012AC000A00F5CFA5F0060EA66F140EA76FA86B5B
:1012BC00A96B600EAB6F0D0EAA6FAC6B040EAD6F0D
:1012CC00000EAE6BAF6BB069B169B269B369B4694A
:1012DC00B569B669B769B86BB96BBA6BBB6BBC6BEC
:1012EC00BD6BBE6BBF6BC9D706EC00F037D70001E6
:1012FC006051020A01E101D7010A01E131D7070A65
:10130C0001E13BD7010A01E154D7030A8FE0010A3E
:10131C0092E00F0AE9E0010AB4E0050AB5E01ED735
:10132C006551526E536A5250275C53502858120024
:10133C00E0EC04F0415001E1120062B4B5EC04F0B1
:10134C0065B2120062B098EC03F062B87BEC04F06A
:10135C00030E416001D0030C3C6A62A6120064507B
:10136C0064CF4AF07C0E4A162AE164B203D02B6A91
:10137C00040E02D0040E2B6E2C6E62962BC0D9FF7D
:10138C002CC0DAFFDF30E8320F0B0D0A20E1336A94
:10139C0023D8DECF4AF0DDCF4BF04AC0D9FF4BC08B
:1013AC00DAFF3350010F1FD817D8DE2A000EDD22CA
:1013BC00332A070E3364ECD726EC04F008D0040E65
:1013CC00641804E1629677EC03F001D062963C2A33
:1013DC00030E3C64C2D7030C20EE02F02B50D9262E
:1013EC002C50DA221200E16EE26ADFCFE7FF120026
:0413FC0004001200D7
:1014000055EF0AF012000D605182FACF17F0FBCFB2
:1014100018F0E9CF19F0EACF1AF0E1CF1BF0E2CFD4
:101420001CF0D9CF1DF0DACF1EF0F3CF1FF0F4CFB0
:1014300020F0F6CF21F0F7CF22F0F8CF23F0F5CF50
:1014400024F051C025F052C026F053C027F054C0FC
:1014500028F0F292F2B4F2AA02D06CECB4F028C0F8
:1014600054F027C053F026C052F025C051F024C0DC
:10147000F5FF23C0F8FF22C0F7FF21C0F6FF20C010
:10148000F4FF1FC0F3FF1EC0DAFF1DC0D9FF1CC050
:10149000E2FF1BC0E1FF1AC0EAFF19C0E9FF18C054
:0E14A000FBFF17C0FAFF51921100ECEFA5F010
:10FC320000001180002C0100B102003500360000E6
:10FC4200B202003500360000B30200350036000271
:10FC5200003500360000B4000000C0A2000200849B
:10FC62000000C1C50000C20D00000000C38D002AC3
:10FC72000000C48D00EE0000C50A000036C8000076
:10FC8200E012001C001000180033002C0025002890
:10FC920000280027002F003C000000030003001092
:10FCA200008000780000E112001C00100018002DF6
:10FCB20000280023002800280026002F003B000017
:10FCC20000030003001000003A0500002A000002B1
:10FCD2000000008100002B000003000000A20000D1
:10FCE20029002C02000400080010002000400080BF
:10FCF20000000100010200010001000202000003F5
:10FD020003030001000A006400E803102700010356
:10FD1200070F1F3F7FFF00020103010410000000D4
:10FD2200000000005F00000007000700147F147F3E
:10FD320014242A7F2A12231308646236495522505A
:10FD42000005030000001C2241000041221C0008A3
:10FD52002A1C2A0808083E0808005030000008083B
:10FD6200080808006060000020100804023E5149A3
:10FD7200453E00427F400042615149462141454B88
:10FD8200311814127F1027454545393C4A494930FC
:10FD920001710905033649494936064949291E00B8
:10FDA20036360000005636000000081422411414B2
:10FDB200141414412214080002015109063249792F
:10FDC200413E7E1111117E7F494949363E414141F2
:10FDD200227F4141221C7F494949417F0909010192
:10FDE2003E414151327F0808087F00417F41002097
:10FDF20040413F017F081422417F404040407F0242
:10FE020004027F7F0408107F3E4141413E7F090981
:10FE120009063E4151215E7F091929464649494951
:10FE22003101017F01013F4040403F1F2040201F20
:10FE32007F2018207F63140814630304780403618D
:10FE42005149454300007F414102040810204141CD
:10FE52007F000004020102044040404040000102D1
:10FE6200040020545454787F48444438384444446D
:10FE720020384444487F3854545418087E090102FB
:10FE8200081454543C7F0804047800447D40002048
:10FE920040443D00007F10284400417F40007C0424
:10FEA2001804787C0804047838444444387C1414D8
:10FEB2001408081414187C7C080404084854545488
:10FEC20020043F4440203C4040207C1C2040201C19
:10FED2003C4030403C44281028440C5050503C4494
:10FEE20064544C44000836410000007F0000004189
:10FEF20036080008082A1C08081C2A080800FCFF0B
:10FF02000F0000FFFFF0FF00FFFF00436C6F7365FF
:10FF120073742057616C6C3A25750A436C6F736574
:10FF2200737420416E676C653A25640A4C65667489
:10FF32002042756D703A25750A5269676874427578
:10FF42006D703A25750A416E676C65546F5475720F
:10FF52006E3A2025640A00436C6F736573742057F0
:10FF6200616C6C3A25750A436C6F7365737420413A
:10FF72006E676C653A25640A4C6566742042756D3D
:10FF8200703A25750A526967687442756D703A2530
:10FF9200750A00546F74616C2044697374616E63F6
:10FFA200653A25750A4C6566742042756D703A256E
:10FFB200750A52696768742042756D703A25750A30
:10FFC200002020202020202020202020202020204F
:10FFD200202020200A00506C656173652073656CD7
:10FFE200656374206D6F64652E0A004469737461E1
:0DFFF2006E63653A2025640A002563000057
:020000040001F9
:10000000000E0001836F010E0001726F900E716F80
:10001000030E0001FC6FE80EFB6F000E0001706F15
:10002000000E6F6F030E00016C6FE80E6B6F000E19
:1000300000016E6F000E6D6F000E0001FA6F080E6A
:10004000F96F000E03013B6F000E3A6F5AD10001A9
:100050007107D8A07207B40E0001BB6F000E00013B
:10006000BC6F24ECABF0B40E0001E06F000E000199
:10007000E16F7EECA0F0E0C0FCF3E1C0FDF3E2C074
:10008000FEF3E3C0FFF3FCC3BDF0FDC3BEF0FEC34F
:10009000BFF0FFC3C0F0000E0001B96F000EBA6FD1
:1000A0006C0EBB6F420EBC6FA6EC8AF0B9C0F2F0CA
:1000B000BAC0F3F0BBC0F4F0BCC0F5F018EC9EF091
:1000C000F2C06DF0F3C06EF0010E51ECB2F0000919
:1000D000D8B40ED06DC0CFF06EC0D0F098ECB4F0B4
:1000E000B2ECB2F09DECB5F00009D8A4D1ECB2F0BE
:1000F0000001FB5100016D5D00016E51800A03019A
:10010000FA6F0001FC51800A0301FA59D8B036D0C9
:100110006DC0FBF06EC0FCF071C06FF072C070F08B
:10012000CD0E0001CB6FCC0ECC6F2C0ECD6F3F0EE1
:10013000CE6F6FC0B9F070C0BAF00001000EBABF48
:10014000FF0EBB6FBC6F010EEAEC93F0B9C0C7F0B5
:10015000BAC0C8F0BBC0C9F0BCC0CAF05AEC84F049
:10016000C7C0F2F0C8C0F3F0C9C0F4F0CAC0F5F0DF
:1001700018EC9EF0F2C06BF0F3C06CF0080E51EC7E
:10018000B2F00009D8B41FD0AE0E0001D46F000E3B
:100190000001D56F000E0001D76F640ED66F83EC9F
:1001A000B4F0AE0E0001BC6F000E0001BD6FFF0E7B
:1001B0000001BF6FBE6987ECB3F09DECB5F000099C
:1001C000D8A4D1ECB2F0000E0001FA6F0A0EF96F5C
:1001D0000001FABF63D00001FA5156E10001F905B0
:1001E000D8B052D05BD0B40E0001BB6F000E00013E
:1001F000BC6F24ECABF0010E51ECB2F00009D8B4A6
:100200000ED06DC0CFF06EC0D0F098ECB4F0B2EC70
:10021000B2F09DECB5F00009D8A4D1ECB2F0B40E68
:100220000001E06F000E0001E16F7EECA0F0E0C085
:10023000FCF3E1C0FDF3E2C0FEF3E3C0FFF3FCC357
:10024000BDF0FDC3BEF0FEC3BFF0FFC3C0F0000EA3
:100250000001B96F000EBA6F6C0EBB6F420EBC6F1F
:10026000A6EC8AF0B9C0F2F0BAC0F3F0BBC0F4F06B
:10027000BCC0F5F018EC9EF0F2C06DF0F3C06EF06B
:100280000001F907D8A0FA070001FABF07D0000162
:10029000FA51A9E10001F905D8B0A5D7010E51EC3A
:1002A000B2F00009D8B42DD0FB0E0001CE6FFF0EC6
:1002B0000001CF6F000E0001D16F230ED06FD1EC83
:1002C00094F0590E0001CE6FFF0E0001CF6FFBC0FE
:1002D000D0F0FCC0D1F06BC0D2F06CC0D3F086C0BF
:1002E000D4F00001D56B87C0D6F00001D76BD1ECFC
:1002F00094F0E5EC91F09DECB5F00009D8A4D1ECB8
:10030000B2F0000172BF07D00001725103E1000199
:100310007105D8B09CD6AE0E0001D46F000E00015E
:10032000D56F010E0001D76F900ED66F83ECB4F03D
:10033000AE0E0001BC6F000E0001BD6F010E00018A
:10034000BF6F900EBE6F87ECB3F0430E00016B25BC
:1003500000016B6F000E00016C2100016C6F000149
:100360006CBF12D00F0E00016B5D010E00016C59C5
:10037000D8A00AD0F20E00016B2500016B6FFE0EB3
:1003800000016C2100016C6F6BC0FAF36CC0FBF3D1
:100390000301FA1FFB1FFA4BFB2B0E0E0301FA257C
:1003A00000016B6F010E0301FB2100016C6F000166
:1003B0006CBF08D000016C5112E1870E00016B5D2B
:1003C000D8B00DD06BC0D6F06CC0D7F0000E0001D5
:1003D000D96FC80ED86F000E92EC9DF01BD06BC089
:1003E000FAF36CC0FBF30301FA1FFB1FFA4BFB2B64
:1003F0000E0E0301FA250001D66F010E0301FB2149
:100400000001D76FFF0E0001D96F380ED86F000EB4
:1004100092EC9DF0000E0001BA6FC80EB96F5AEC55
:10042000AEF028D2010E0001726F900E716F030EB4
:100430000001FC6FE80EFB6F000E0001706F000EF4
:100440006F6F030E00016C6FE80E6B6F000E000102
:100450006E6F000E6D6F000E0001FA6F080EF96FDF
:10046000000E03013B6F000E3A6F5AD10001710775
:10047000D8A07207B40E0001BB6F000E0001BC6F64
:1004800024ECABF0B40E0001E06F000E0001E16F50
:100490007EECA0F0E0C0FCF3E1C0FDF3E2C0FEF3AF
:1004A000E3C0FFF3FCC3BDF0FDC3BEF0FEC3BFF06D
:1004B000FFC3C0F0000E0001B96F000EBA6F6C0EE2
:1004C000BB6F420EBC6FA6EC8AF0B9C0F2F0BAC0A6
:1004D000F3F0BBC0F4F0BCC0F5F018EC9EF0F2C035
:1004E0006DF0F3C06EF0010E51ECB2F00009D8B41B
:1004F0000ED06DC0CFF06EC0D0F098ECB4F0B2EC7E
:10050000B2F09DECB5F00009D8A4D1ECB2F0000136
:10051000FB5100016D5D00016E51800A0301FA6F0D
:100520000001FC51800A0301FA59D8B036D06DC0E1
:10053000FBF06EC0FCF071C06FF072C070F0CD0EB9
:100540000001CB6FCC0ECC6F2C0ECD6F3F0ECE6F5B
:100550006FC0B9F070C0BAF00001000EBABFFF0E54
:10056000BB6FBC6F010EEAEC93F0B9C0C7F0BAC024
:10057000C8F0BBC0C9F0BCC0CAF05AEC84F0C7C018
:10058000F2F0C8C0F3F0C9C0F4F0CAC0F5F018EC3E
:100590009EF0F2C06BF0F3C06CF0080E51ECB2F0BC
:1005A0000009D8B41FD0AE0E0001D46F000E0001B8
:1005B000D56F000E0001D76F640ED66F83ECB4F0D8
:1005C000AE0E0001BC6F000E0001BD6FFF0E0001FA
:1005D000BF6FBE6987ECB3F09DECB5F00009D8A4FD
:1005E000D1ECB2F0000E0001FA6F0A0EF96F0001B3
:1005F000FABF63D00001FA5156E10001F905D8B005
:1006000052D05BD0B40E0001BB6F000E0001BC6F76
:1006100024ECABF0010E51ECB2F00009D8B40ED0CE
:100620006DC0CFF06EC0D0F098ECB4F0B2ECB2F088
:100630009DECB5F00009D8A4D1ECB2F0B40E0001E5
:10064000E06F000E0001E16F7EECA0F0E0C0FCF373
:10065000E1C0FDF3E2C0FEF3E3C0FFF3FCC3BDF075
:10066000FDC3BEF0FEC3BFF0FFC3C0F0000E00012B
:10067000B96F000EBA6F6C0EBB6F420EBC6FA6EC6A
:100680008AF0B9C0F2F0BAC0F3F0BBC0F4F0BCC05D
:10069000F5F018EC9EF0F2C06DF0F3C06EF00001C2
:1006A000F907D8A0FA070001FABF07D00001FA51F4
:1006B000A9E10001F905D8B0A5D7010E51ECB2F0BF
:1006C0000009D8B42DD0FB0E0001CE6FFF0E000143
:1006D000CF6F000E0001D16F230ED06FD1EC94F0DC
:1006E000590E0001CE6FFF0E0001CF6FFBC0D0F09E
:1006F000FCC0D1F06BC0D2F06CC0D3F086C0D4F097
:100700000001D56B87C0D6F00001D76BD1EC94F017
:10071000E5EC91F09DECB5F00009D8A4D1ECB2F075
:10072000000172BF07D00001725103E100017105A1
:10073000D8B09CD6AE0E0001D46F000E0001D56F6C
:10074000010E0001D76F900ED66F83ECB4F0AE0EA1
:100750000001BC6F000E0001BD6F010E0001BF6FF4
:10076000900EBE6F87ECB3F000016CBF17D0000194
:100770006C5105E1C40E00016B5DD8A00FD00001E3
:100780006CBF08D000016C5109E1D20E00016B5D15
:10079000D8B004D0010E0001836F65D0430E000174
:1007A0006B2500016B6F000E00016C2100016C6F66
:1007B00000016CBF12D00F0E00016B5D010E000135
:1007C0006C59D8A00AD0F20E00016B2500016B6FA6
:1007D000FE0E00016C2100016C6F6BC0FAF36CC05F
:1007E000FBF30301FA1FFB1FFA4BFB2B0E0E030159
:1007F000FA2500016B6F010E0301FB2100016C6FF4
:1008000000016CBF08D000016C5112E1870E00019D
:100810006B5DD8B00DD06BC0D6F06CC0D7F0000EB9
:100820000001D96FC80ED86F000E92EC9DF01BD05E
:100830006BC0FAF36CC0FBF30301FA1FFB1FFA4B0A
:10084000FB2B0E0E0301FA250001D66F010E0301EA
:10085000FB210001D76FFF0E0001D96F380ED86F52
:10086000000E92EC9DF0000E0001BA6FC80EB96F39
:100870005AECAEF0000183510001D8B4D3D5AE0ECE
:100880000001D46F000E0001D56F010E0001D76F7B
:10089000900ED66F83ECB4F0AE0E0001BC6F000E6C
:1008A0000001BD6FFF0E0001BF6F9C0EBE6F87EC95
:1008B000B3F012000001CA51800B0001D36F000198
:1008C000CA51CA250001D96F0001C9AF02D0000189
:1008D000D9810001D9510001D8B410D00001D92923
:1008E000D8A409D0000E0001C76F000EC86F000E1B
:1008F000C96F000ECA6F0001C98F09D0000E000138
:10090000C76F000EC86F000EC96F000ECA6F0001DE
:10091000CE51800B0001D31B0001CE51CE2500012A
:10092000D46F0001CDAF02D00001D4810001D451B9
:100930000001D8B410D00001D429D8A409D0000EE9
:100940000001CB6F000ECC6F000ECD6F000ECE6F8E
:100950000001CD8F09D0000E0001CB6F000ECC6FCF
:10096000000ECD6F000ECE6F0001D4510001D8B43F
:1009700005D00001D9510001D8A40AD0000E000111
:10098000C76F000EC86F000EC96F000ECA6F12004D
:100990000001CD510001C703F3CFDEF0F4CFDFF04B
:1009A0000001DE510001D56FD66BD76BD86B00010B
:1009B000DF510001DA6FDB6BDC6BDD6B0001CC51CA
:1009C0000001C803F3CFDEF0F4CFDFF00001DE5109
:1009D0000001D527000ED623D723D8230001DF51ED
:1009E0000001DA27000EDB23DC23DD230001CB51DD
:1009F0000001C903F3CFDEF0F4CFDFF00001DE51D8
:100A00000001D527000ED623D723D8230001DF51BC
:100A10000001DA27000EDB23DC23DD23D7C0D8F06A
:100A2000D6C0D7F0D5C0D6F00001D56B0001CB51B0
:100A30000001C803F3CFDEF0F4CFDFF00001DE5198
:100A40000001D5270001DF510001D623000E00016F
:100A5000D723000E0001D8230001CC510001C703A9
:100A6000F3CFDEF0F4CFDFF00001DE510001D52737
:100A70000001DF510001D623000E0001D723000E34
:100A80000001D823D7C0D8F0D6C0D7F0D5C0D6F053
:100A90000001D56B0001CB510001C703F3CFDEF09D
:100AA000F4CFDFF00001DE510001D5270001DF5156
:100AB0000001D623000E0001D723000E0001D82329
:100AC0000001CD510001C803F3CFDEF0F4CFDFF019
:100AD0000001DE510001DA270001DF510001DB23B4
:100AE000000E0001DC23000E0001DD230001CC51CB
:100AF0000001C903F3CFDEF0F4CFDFF00001DE51D7
:100B00000001DA270001DF510001DB23000E0001A4
:100B1000DC23000E0001DD230001CD510001C903DB
:100B2000F3CFDEF0F4CFDFF00001DE510001CF6F34
:100B30000001DF510001D06F0001D16B0001D26BC9
:100B4000D1C0D2F0D0C0D1F0CFC0D0F00001CF6B77
:100B50000001CF510001DA270001D0510001DB2351
:100B60000001D1510001DC230001D2510001DD233D
:100B7000D5C0CFF0D6C0D0F0D7C0D1F0D8C0D2F019
:100B8000190E06D00001D890D233D133D033CF33F1
:100B9000E82EF8D70001CF510001DA270001D0512B
:100BA0000001DB230001D1510001DC230001D251FF
:100BB0000001DD23D7C0D8F0D6C0D7F0D5C0D6F01D
:100BC0000001D56B0001D451D9C0CFF00001D06B2A
:100BD0000001CF27000ED023820E0001CF25000197
:100BE000DE6FFF0E0001D0210001DF6F15D0000184
:100BF000D890DA37DB37DC37DD370001D8AF02D0E9
:100C00000001DA810001D890D537D637D737D837E9
:100C10000001DE07D8A0DF070001DCAFE8D7000E37
:100C20000001D46F0001D8AF24D0FF0E0001D5150C
:100C30000001CF6FFF0E0001D6150001D06FFF0E2F
:100C40000001D7150001D16F7F0E0001D8150001FA
:100C5000D26F0001CF510001D0110001D11100016C
:100C6000D211D8A403D00001DAA103D0010E0001F3
:100C7000D46F0001D4510001D8B423D0010E00017B
:100C8000DA27000EDB23DC23DD230001DDA119D0F0
:100C9000DAC0CFF0DBC0D0F0DCC0D1F0DDC0D2F0E4
:100CA0000001D235D233D133D033CF33CFC0DAF0D5
:100CB000D0C0DBF0D1C0DCF0D2C0DDF00001DE4BF3
:100CC000DF2B0001DFBF10D00001DF5104E1000184
:100CD000DE29D8A009D0000E0001DA6F000EDB6F0C
:100CE000800EDC6F7F0E2BD00001DFBF07D000012C
:100CF000DF5111E10001DE05D8B00DD0000E00017A
:100D0000DA6F000EDB6F000EDC6F000EDD6F000E81
:100D10000001D36F15D0DEC0D9F0FF0E0001DA1745
:100D2000FF0EDB177F0EDC17000EDD170001D9A1C7
:100D300002D00001DC8F0001D890D9310001DD6FB5
:100D40000001D3510001DD13DAC0C7F0DBC0C8F0E9
:100D5000DCC0C9F0DDC0CAF012000CD07C0E00016E
:100D6000EC6F030E04D0870E0001EC6F030E000140
:100D7000ED6F08D00001EA51000AD8B4EFD7010A9C
:100D8000D8B4F1D7000120EE02F0EC51D926ED5194
:100D9000DA22EAC0DFFFB1D0A40E0001DF6F000E3F
:100DA0000001E06F020E0001E16F030E0001E26F2F
:100DB000B2EC95F0A40E0001DF6F000E0001E06FB1
:100DC000030E0001E16F030E0001E26FB2EC95F03B
:100DD000A40E0001DF6F000E0001E06F050E0001A0
:100DE000E16F030E0001E26FB2EC95F0A40E00017A
:100DF000DF6F000E0001E06F040E0001E16F000ED6
:100E00000001E26FB2EC95F0000120EE03F0EC512E
:100E1000D926ED51DA22C70EDE6E0F0EDD6E00010F
:100E200020EE06F0EC51D926ED51DA22C60EDE6E28
:100E30000F0EDD6E000120EE09F0EC51D926ED51C8
:100E4000DA22C90E56D09A0E0001DF6F000E0001A3
:100E5000E06F070E0001E16F030E0001E26FB2ECDC
:100E600095F09A0E0001DF6F000E0001E06F060E94
:100E70000001E16F030E0001E26FB2EC95F09A0EF3
:100E80000001DF6F000E0001E06F040E0001E16F52
:100E9000030E0001E26FB2EC95F09A0E0001DF6FD5
:100EA000000E0001E06F050E0001E16F000E000171
:100EB000E26FB2EC95F0000120EE03F0EC51D92680
:100EC000ED51DA226D0EDE6E0F0EDD6E000120EEAA
:100ED00006F0EC51D926ED51DA226C0EDE6E0F0EC3
:100EE000DD6E000120EE09F0EC51D926ED51DA2239
:100EF0006F0EDE6E0F0EDD6E09D00001EA51000AA2
:100F0000D8B44AD7010AD8A412009DD7000120EE18
:100F100006F0EC51D926ED51DA22DECFB9F0DDCF63
:100F2000BAF0050E0001BB6F000E0001BC6F2AEC89
:100F3000AFF09CD0000120EE06F0EC51D926ED5127
:100F4000DA22DECFB9F0DDCFBAF0040E0001BB6FBC
:100F5000000E0001BC6F2AECAFF0000120EE03F0A0
:100F6000EC51D926ED51DA22DECFB9F0DDCFBAF05F
:100F7000060E0001BB6F000E0001BC6F2AECAFF043
:100F800084D0000120EE06F0EC51D926ED51DA2292
:100F9000DECFB9F0DDCFBAF0040E0001BB6F000E5A
:100FA0000001BC6F2AECAFF0000120EE03F0EC5121
:100FB000D926ED51DA22DECFB9F0DDCFBAF0060E38
:100FC0000001BB6F010E0001BC6F2AECAFF05DD0D9
:100FD000000120EE06F0EC51D926ED51DA22DECFE9
:100FE000B9F0DDCFBAF0040E0001BB6F010E0001B5
:100FF000BC6F2AECAFF0000120EE03F0EC51D926D3
:10100000ED51DA22DECFB9F0DDCFBAF0060E0001E5
:10101000BB6F000E0001BC6F2AECAFF036D00001B0
:1010200020EE06F0EC51D926ED51DA22DECFB9F0F0
:10103000DDCFBAF0040E0001BB6F010E0001BC6FE2
:101040002AECAFF0000120EE03F0EC51D926ED516F
:10105000DA22DECFB9F0DDCFBAF0060E0001BB6FA9
:10106000010E0001BC6F2AECAFF00FD00001EB5174
:10107000000AD8B45FD7010AD8B483D7030AD8B41A
:10108000A7D7010AD8A41200CAD7000120EE06F0A3
:10109000EC51D926ED51DA22DECFB9F0DDCFBAF02E
:1010A000070E0001BB6F000E0001BC6F2AECAFF011
:1010B000000120EE06F0EC51D926ED51DA22DECF08
:1010C000B9F0DDCFBAF0060E0001BB6F000E0001D3
:1010D000BC6F2AECAFF0E6C0C6F0E7C0C7F0E8C0CE
:1010E000C8F0E9C0C9F0C9EC9BF0ECC0B9F0EDC0A4
:1010F000BAF0ADECB4F004D09F860BD0A58E09D029
:101100000001EA51000AD8B4F7D7010AD8A41200A6
:10111000F5D7ECC0B9F0EDC0BAF00DECB4F0ECC00E
:10112000D9FFEDC0DAFF000EDF6E000120EE06F001
:10113000EC51D926ED51DA22DECFC4F0DDCFC5F077
:10114000000E0001C66F030E0001C76FF6ECB4F08D
:10115000000120EE06F0EC51D926ED51DA22DECF67
:10116000B9F0DDCFBAF0050E0001BB6F010E000132
:10117000BC6F2AECAFF0120010ECB1F0010E51EC94
:10118000B2F00009D8B429D0FB0E0001CE6FFF0EDB
:101190000001CF6F000E0001D16F230ED06FD1EC94
:1011A00094F0950E0001CE6FFF0E0001CF6F73C05B
:1011B000D0F074C0D1F086C0D2F00001D36B87C0EC
:1011C000D4F00001D56BD1EC94F0E5EC91F09DECFE
:1011D000B5F00009D8A4D1ECB2F0000E0001726F96
:1011E000000E716F030E0001FC6FE80EFB6F000E26
:1011F0000001706F000E6F6F000E00016E6F000E29
:101200006D6F000E0001FA6F080EF96FF9D0000142
:10121000714B722BB40E0001BB6F000E0001BC6F4E
:1012200024ECABF0B40E0001E06F000E0001E16FA2
:101230007EECA0F0E0C0ACF4E1C0ADF4E2C0AEF4EE
:10124000E3C0AFF4ACC4BDF0ADC4BEF0AEC4BFF0FB
:10125000AFC4C0F0000E0001B96F000EBA6F6C0E83
:10126000BB6F420EBC6FA6EC8AF0B9C0F2F0BAC0F8
:10127000F3F0BBC0F4F0BCC0F5F018EC9EF0F2C087
:101280006DF0F3C06EF0010E51ECB2F00009D8B46D
:101290000ED06DC0CFF06EC0D0F098ECB4F0B2ECD0
:1012A000B2F09DECB5F00009D8A4D1ECB2F0000189
:1012B000FB5100016D5D00016E51800A0301FA6F60
:1012C0000001FC51800A0301FA59D8B008D06DC062
:1012D000FBF06EC0FCF071C06FF072C070F0080ED1
:1012E00051ECB2F00009D8B420D0AE0E0001D46F9A
:1012F000000E0001D56F000E0001D76F320ED66FC1
:1013000083ECB4F0AE0E0001BC6F000E0001BD6FA7
:10131000000E0001BF6F010EBE6F87ECB3F09DECB5
:10132000B5F00009D8A4D1ECB2F0000E0001FA6FBC
:101330000A0EF96F0001FABF63D00001FA5156E1BD
:101340000001F905D8B052D05BD0B40E0001BB6FDC
:10135000000E0001BC6F24ECABF0010E51ECB2F0BA
:101360000009D8B40ED06DC0CFF06EC0D0F098ECAC
:10137000B4F0B2ECB2F09DECB5F00009D8A4D1EC19
:10138000B2F0B40E0001E06F000E0001E16F7EECE0
:10139000A0F0E0C0ACF4E1C0ADF4E2C0AEF4E3C054
:1013A000AFF4ACC4BDF0ADC4BEF0AEC4BFF0AFC4CA
:1013B000C0F0000E0001B96F000EBA6F6C0EBB6F6B
:1013C000420EBC6FA6EC8AF0B9C0F2F0BAC0F3F0DE
:1013D000BBC0F4F0BCC0F5F018EC9EF0F2C06DF0AC
:1013E000F3C06EF00001F907D8A0FA070001FABFB8
:1013F00007D00001FA51A9E10001F905D8B0A5D73D
:10140000000172BF04D7900E0001715D010E000152
:101410007259D8A0FCD6080E51ECB2F00009D8B42D
:101420008AD0AE0E0001D46F000E0001D56F000E01
:101430000001D76F320ED66F83ECB4F06FC0FAF3B1
:1014400070C0FBF30301FA1FFB1FFA4BFB2B900E3E
:101450000301FA250401AA6F010E0301FB21040117
:10146000AB6FAE0E0001BC6F000E0001BD6FAAC4D1
:10147000FAF3ABC4FBF30301FA1FFB1FFA4BFB2B80
:10148000FAC3BEF0FBC3BFF087ECB3F09DECB5F040
:101490000009D8B450D0D1ECB2F04DD0B40E000158
:1014A000BB6F000E0001BC6F24ECABF0010E51ECE1
:1014B000B2F00009D8B40ED06DC0CFF06EC0D0F03D
:1014C00098ECB4F0B2ECB2F09DECB5F00009D8A401
:1014D000D1ECB2F0B40E0001E06F000E0001E16F3C
:1014E0007EECA0F0E0C0ACF4E1C0ADF4E2C0AEF43C
:1014F000E3C0AFF4ACC4BDF0ADC4BEF0AEC4BFF049
:10150000AFC4C0F0000E0001B96F000EBA6F6C0ED0
:10151000BB6F420EBC6FA6EC8AF0B9C0F2F0BAC045
:10152000F3F0BBC0F4F0BCC0F5F018EC9EF0F2C0D4
:101530006DF0F3C06EF00001AFBF12000001AF51BB
:10154000ADE10001AE05D8A01200A8D70001BC5142
:10155000800B0001C56F0001BC51BC250001D06F9C
:101560000001BBAF02D00001D0810001D0510001C9
:10157000D8B412D00001D029D8A409D0000E00019F
:10158000B96F000EBA6F000EBB6F000EBC6F00018A
:10159000BB8F000E000108D0000E0001B96F000ED5
:1015A000BA6F000EBB6F000EBC6F0001C051800B04
:1015B0000001C51B0001C051C0250001D16F000111
:1015C000BFAF02D00001D1810001D1510001D8B4D8
:1015D00012D00001D129D8A409D0000E0001BD6F9E
:1015E000000EBE6F000EBF6F000EC06F0001BF8FF8
:1015F000000E000108D0000E0001BD6F000EBE6F8E
:10160000000EBF6F000EC06F0001BD510001BE1182
:101610000001BF110001C011D8A417D0000E0001B5
:10162000B96F000EBA6F000EBB6F000EBC6F0001E9
:10163000800EBB137F0EBC13B9C0B9F0BAC0BAF0AC
:10164000BBC0BBF0BCC0BCF012000001D051000117
:10165000D8A412D0000E0001B96F000EBA6F000EB0
:10166000BB6F000EBC6FB9C0B9F0BAC0BAF0BBC056
:10167000BBF0BCC0BCF012000001D1510001C16F31
:10168000C26B0001C11FC21FC14BC22B0001D05150
:101690000001C36FC46B0001C1510001C3270001E9
:1016A000C2510001C4237F0E0001C3250001CA6F8F
:1016B000000E0001C4210001CB6FB9C0C6F0BAC052
:1016C000C7F0BBC0C8F0BCC0C9F0000E0001B96FC4
:1016D000000EBA6F000EBB6F000EBC6F000E000153
:1016E000CC6F000ECD6F000ECE6F000ECF6F000ED0
:1016F0000001D16F42D00001D1510001D8B417D000
:101700000001D890C637C737C837C9370001D8900D
:10171000B937BA37BB37BC370001CFAF02D00001B1
:10172000B9810001D890CC37CD37CE37CF37000103
:10173000BD510001C65D0001BE510001C759000145
:10174000BF510001C8590001C0510001C959D8A0BA
:1017500012D00001CF8D0001BD510001C65F000114
:10176000BE510001C75B0001BF510001C85B000111
:10177000C0510001C95B0001D12B190E0001D165D8
:10178000BAD70001C6510001C7110001C8110001FC
:10179000C911D8B418D00001CC8115D00001D8905F
:1017A000B937BA37BB37BC370001CFAF02D0000121
:1017B000B9810001D890CC37CD37CE37CF37000173
:1017C000CA07D8A0CB070001BBAFE8D7000E0001C5
:1017D000D16F0001CFAF24D0FF0E0001CC15000166
:1017E000C16FFF0E0001CD150001C26FFF0E000199
:1017F000CE150001C36F7F0E0001CF150001C46F2D
:101800000001C1510001C2110001C3110001C41146
:10181000D8A403D00001B9A103D0010E0001D16FFB
:101820000001D1510001D8B423D0010E0001B92725
:10183000000EBA23BB23BC230001BCA119D0B9C040
:10184000C1F0BAC0C2F0BBC0C3F0BCC0C4F000015C
:10185000C435C433C333C233C133C1C0B9F0C2C00D
:10186000BAF0C3C0BBF0C4C0BCF00001CA4BCB2B64
:101870000001CBBF14D00001CB5104E10001CA2903
:10188000D8A00DD0000E0001CB6FCA69000E000178
:10189000B96F000EBA6F000EBB6F000EBC6F000177
:1018A000CBBF07D00001CB5115E10001CA05D8B06C
:1018B00011D0000E0001CB6F000ECA6F000E0001A8
:1018C000B96F000EBA6F000EBB6F000EBC6F000E3A
:1018D0000001C56FCAC0D0F00001D0A103D0000143
:1018E000BB8F02D00001BB9F0001D890D031000116
:1018F000BC6F0001C5510001BC13B9C0B9F0BAC03A
:10190000BAF0BBC0BBF0BCC0BCF01200080E0001B6
:10191000C8250001C56F000E0001C9210001C66F76
:10192000000E0001C76F0FECB3F00001DF6F000184
:10193000DF510001CB6FCC6B0E0ED8900001CB377E
:10194000CC37E82EFAD70001DF510001CD6FCE6B06
:101950000C0ED8900001CD37CE37E82EFAD7000113
:10196000DF510001CF6FD06B0A0ED8900001CF3746
:10197000D037E82EFAD70001DF510001D26FD16BCA
:101980000001DF510001D36FD46B060ED890000127
:10199000D337D437E82EFAD70001DF510001D56FD5
:1019A000D66B0001D53BD63BF00ED617D5510F0BA9
:1019B000D613F00ED5170001DF510001D76FD86B99
:1019C0000001D890D737D8370001D890D737D8370B
:1019D0000001DF510001D96FDA6B0001D75100011E
:1019E000D9130001D8510001DA130001D5510001CB
:1019F000D9130001D6510001DA130001D3510001BF
:101A0000D9130001D4510001DA130001D1510001B2
:101A1000D9130001D2510001DA130001CF510001A6
:101A2000D9130001D0510001DA130001CD5100019A
:101A3000D9130001CE510001DA130001CB5100018E
:101A4000D9110001DB6F0001CC510001DA11000156
:101A5000DC6FDFC0DDF00001DE6B080E0001C82581
:101A60000001C56F000E0001C9210001C66F010E03
:101A70000001C76F0FECB3F00001CB6FCC6B00011E
:101A8000D890CB37CC370001D890CB37CC3700017A
:101A9000CB510001DD130001CC510001DE13080E13
:101AA0000001C8250001C56F000E0001C921000119
:101AB000C66F020E0001C76F0FECB3F00001CB6FD1
:101AC000CC6B0001CB3BCC3BF00ECC17CB510F0BBA
:101AD000CC13F00ECB170001CB510001DD13000138
:101AE000CC510001DE13080E0001C8250001C56FAE
:101AF000000E0001C9210001C66F030E0001C76F6F
:101B00000FECB3F00001CB6FCC6B060ED890000148
:101B1000CB37CC37E82EFAD70001CB510001DD13CB
:101B20000001CC510001DE13080E0001C8250001A0
:101B3000C56F000E0001C9210001C66F040E00012F
:101B4000C76F0FECB3F00001CB6F0001CB51000168
:101B5000CD6FCC6B0001CC510001DD130001CD51E4
:101B60000001DE13080E0001C8250001C56F000E3C
:101B70000001C9210001C66F050E0001C76F0FECFF
:101B8000B3F00001CB6FCC6B0A0ED8900001CB37BD
:101B9000CC37E82EFAD70001CB510001DD1300014C
:101BA000CC510001DE13080E0001C8250001C56FED
:101BB000000E0001C9210001C66F060E0001C76FAB
:101BC0000FECB3F00001CB6FCC6B0C0ED890000182
:101BD000CB37CC37E82EFAD70001CB510001DD130B
:101BE0000001CC510001DE13080E0001C8250001E0
:101BF000C56F000E0001C9210001C66F070E00016C
:101C0000C76F0FECB3F00001CB6FCC6B0E0ED8900A
:101C10000001CB37CC37E82EFAD70001CB510001B9
:101C2000DD130001CC510001DE130001DD51000184
:101C3000DB1948E10001DE510001DC19D8A41200D3
:101C400032D0000120EE02F0C851D926C951DA2263
:101C5000DECFB9F0DDCFBAF0CAC0BBF071ECB6F0A0
:101C600012000001CA1F000120EE02F0C851D9265F
:101C7000C951DA22DECFB9F0DDCFBAF0CAC0BBF06D
:101C800071ECB6F01200000120EE04F0C851D92624
:101C9000C951DA22DECFB9F0DDCFBAF0CAC0BBF04D
:101CA00071ECB6F012000001DF51000AD8B4120046
:101CB000010AD8B4C6D7030AD8B4D3D7010AD8A426
:101CC0001200E1D712000001B96F7ED03F0E120062
:101CD000060E12005B0E12004F0E1200660E12006E
:101CE0006D0E12007D0E1200070E12007F0E120004
:101CF0006F0E12005F0E12007C0E1200580E1200C2
:101D00005E0E12007B0E1200710E12006F0E12009A
:101D1000740E1200040E12000E0E12007A0E120043
:101D2000060E1200140E1200540E12005C0E120069
:101D3000730E1200670E1200500E12006D0E12008C
:101D4000780E12001C0E1200620E12002A0E1200F3
:101D5000640E12006E0E12005B0E1200770E12005F
:101D60007F0E1200390E12003F0E1200790E120083
:101D7000710E12003D0E1200760E1200060E1200B9
:101D80001E0E1200570E1200380E1200760E1200B0
:101D9000760E12003F0E1200730E12003F0E12005C
:101DA000770E12006D0E1200310E12003E0E120060
:101DB0003E0E12007E0E1200760E1200660E12000B
:101DC0005B0E1200800E12000001B9512E0AD8B429
:101DD000F9D71E0AD8B47AD7010AD8B479D7030A3A
:101DE000D8B478D7010AD8B477D7070AD8B476D749
:101DF000010AD8B475D7030AD8B474D7010AD8B485
:101E000073D70F0AD8B472D7010AD8B471D7780A39
:101E1000D8B4A4D7030AD8B4A3D7010AD8B4A2D798
:101E2000070AD8B4A1D7010AD8B4A0D7030AD8B4F6
:101E30009FD7010AD8B49ED70F0AD8B49DD7010AFC
:101E4000D8B49CD7030AD8B49BD7010AD8B49AD780
:101E5000070AD8B499D7010AD8B498D7030AD8B4D6
:101E600097D7010AD8B496D71F0AD8B495D7010AD4
:101E7000D8B494D7030AD8B493D7010AD8B492D768
:101E8000070AD8B491D7010AD8B490D7030AD8B4B6
:101E90008FD7010AD8B48ED70F0AD8B48DD7010ACC
:101EA000D8B48CD7030AD8B48BD73B0AD8B422D77E
:101EB000030AD8B421D7010AD8B420D7070AD8B466
:101EC0001FD7010AD8B41ED7030AD8B41DD7010AF8
:101ED000D8B41CD70F0AD8B41BD7010AD8B41AD764
:101EE000030AD8B419D7010AD8B418D7070AD8B446
:101EF00017D7010AD8B416D7030AD8B415D7010AE0
:101F0000D8B414D71F0AD8B413D7010AD8B412D73B
:101F1000030AD8B411D7010AD8B410D7070AD8B425
:101F20000FD7010AD8B40ED7030AD8B40DD7010AC7
:101F3000D8B40CD70F0AD8B40BD7010AD8B40AD733
:101F4000030AD8B409D7000E1200050E0001F36F82
:101F5000C7D0000120EE02F0EF51D926F051DA226D
:101F6000DECFC4F0DDCFC5F0F1C0C6F00F0E00012A
:101F7000C76FF6ECB4F0000120EE04F0EF51D92663
:101F8000F051DA22DECFC4F0DDCFC5F0F1C0C6F0EB
:101F9000000E0001C76FF6ECB4F0B0D0EFC0E8F06F
:101FA000F0C0E9F0F1C0EAF0030E0001EB6FECECD9
:101FB000AFF00001F36F0001F351D8A4120000014B
:101FC00020EE02F0EF51D926F051DA22DECFC4F034
:101FD000DDCFC5F0F1C0C6F0000E0001C76FF6EC12
:101FE000B4F0000120EE04F0EF51D926F051DA22CE
:101FF000DECFC4F0DDCFC5F0F1C0C6F0000E0001A9
:10200000C76FF6ECB4F07AD0EFC0E8F0F0C0E9F0BA
:10201000F1C0EAF0030E0001EB6FECECAFF0000151
:10202000F36F0001F351D8A41200000120EE02F07A
:10203000EF51D926F051DA22DECFC4F0DDCFC5F062
:10204000F1C0C6F00F0E0001C76FF6ECB4F000014E
:1020500020EE04F0EF51D926F051DA22DECFC4F0A1
:10206000DDCFC5F0F1C0C6F00F0E0001C76FF6EC72
:10207000B4F044D0EFC0E8F0F0C0E9F0F1C0EAF00D
:10208000030E0001EB6FECECAFF00001F36F000109
:10209000F351D8A41200000120EE02F0EF51D9262E
:1020A000F051DA22DECFC4F0DDCFC5F0F1C0C6F0CA
:1020B000000E0001C76FF6ECB4F0000120EE04F052
:1020C000EF51D926F051DA22DECFC4F0DDCFC5F0D2
:1020D000F1C0C6F0000E0001C76FF6ECB4F00ED0F0
:1020E0000001F251000AD8B434D7010AD8B456D747
:1020F000030AD8B489D7010AD8B4BCD7080E0001A6
:10210000EF250001C86F000E0001F0210001C96F2A
:102110000001F151040DF3CFCAF0F2C0CBF0E9ECAD
:10212000B1F0080E0001EF250001C86F000E00019C
:10213000F0210001C96F0001F151040DF3280001E5
:10214000CA6FF2C0CBF0E9ECB1F0080E0001EF2548
:102150000001C86F000E0001F0210001C96F0001ED
:10216000F151040DF350020F0001CA6FF2C0CBF021
:10217000E9ECB1F0080E0001EF250001C86F000E78
:102180000001F0210001C96F0001F151040DF3506D
:10219000030F0001CA6FF2C0CBF0E9ECB1F01200FE
:1021A000050E0001F86F7AD0000120EE02F0F35125
:1021B000D926F451DA22DECFF6F0DDCFF7F0F6C003
:1021C000D9FFF7C0DAFFFF0E67D0F3C0EFF0F4C01D
:1021D000F0F0010E0001F16F5AECB1F00001F86F60
:1021E0000001F851D8A41200000120EE02F0F351D2
:1021F000D926F451DA22DECFF6F0DDCFF7F0F6C0C3
:10220000D9FFF7C0DAFF000EDF6E000120EE04F008
:1022100036D0F3C0EFF0F4C0F0F0020E0001F16F21
:102220005AECB1F00001F86F0001F851D8A4120087
:10223000000120EE02F0F351D926F451DA22DECF6C
:10224000F6F0DDCFF7F0F6C0D9FFF7C0DAFFFF0EEA
:10225000DF6E000120EE04F0AAD7F3C0EFF0F4C067
:10226000F0F0000E0001F16F5AECB1F00001F86FD0
:102270000001F851D8A41200000120EE02F0F35141
:10228000D926F451DA22DECFF6F0DDCFF7F0F6C032
:10229000D9FFF7C0DAFF000EDF6E0ED00001F55156
:1022A000000AD8B481D7010AD8B48FD7030AD8B4AA
:1022B000B0D7010AD8B4D1D7080E0001F325000128
:1022C000C86F000E0001F4210001C96F000E00016B
:1022D000CA6FF5C0CBF0E9ECB1F0080E0001F325B0
:1022E0000001C86F000E0001F4210001C96F010E4A
:1022F0000001CA6FF5C0CBF0E9ECB1F0080E0001A7
:10230000F3250001C86F000E0001F4210001C96F20
:10231000020E0001CA6FF5C0CBF0E9ECB1F0080E77
:102320000001F3250001C86F000E0001F421000137
:10233000C96F030E0001CA6FF5C0CBF0E9ECB1F034
:10234000080E0001F3250001C86F000E0001F42102
:102350000001C96F040E0001CA6FF5C0CBF0E9ECB3
:10236000B1F0080E0001F3250001C86F000E000156
:10237000F4210001C96F050E0001CA6FF5C0CBF052
:10238000E9ECB1F0080E0001F3250001C86F000E62
:102390000001F4210001C96F060E0001CA6FF5C0EB
:1023A000CBF0E9ECB1F0080E0001F3250001C86F95
:1023B000000E0001F4210001C96F070E0001CA6F71
:1023C000F5C0CBF0E9ECB1F012000001FF51D8B438
:1023D0001200ECC3DFF0EDC3E0F0EEC3E1F0EFC3B9
:1023E000E2F000018F51D8B405D08DC0DEF00F0EA1
:1023F00000018D6F000E0001E46FDFD00001E45199
:10240000020D000EF324D96E030EF420DA6EDECF37
:10241000FDF0DDCFFEF0000E0001E36F130E0001B2
:10242000E36501D0BED00001E451140DB20E0001ED
:10243000DC6F040E0001DD6FF3500001DC27F45067
:102440000001DD230001E351010DF3500001DC2503
:10245000D96EF4500001DD21DA6EDFAE9AD00001B2
:10246000E451140DB20E0001DC6F040E0001DD6FAB
:10247000F3500001DC27F4500001DD230001E3519B
:10248000010DF3500001DC25D96EF4500001DD216F
:10249000DA6E7F0EDF160001E451140DB20E00015A
:1024A000DC6F040E0001DD6FF3500001DC27F450F7
:1024B0000001DD230001E351010DF3500001DC2593
:1024C000D96EF4500001DD21DA6EDF50D8B44AD065
:1024D00081C0C2F082C0C3F0DFC0C4F0E0C0C5F06C
:1024E000E1C0C6F0E2C0C7F0F4C3C8F0F5C3C9F05C
:1024F000F6C3CAF0F7C3CBF099ECACF00001E4519D
:10250000140DB20E0001DC6F040E0001DD6FF350FC
:102510000001DC27F4500001DD230001E351010D2F
:10252000F3500001DC25D96EF4500001DD21DA6E94
:10253000DF5094ECA2F0BEC0CBF0BFC0CCF0DFC047
:10254000CDF0E0C0CEF0E1C0CFF0E2C0D0F0F4C3F7
:10255000D1F0F5C3D2F0F6C3D3F0F7C3D4F039EC21
:10256000A8F017D0000E0001C36F000EC26FDFC0CD
:10257000C4F0E0C0C5F0E1C0C6F0E2C0C7F0F4C3EB
:10258000C8F0F5C3C9F0F6C3CAF0F7C3CBF099ECB5
:10259000ACF0060E0001DF27000EE0230001E32B64
:1025A0003DD7080E0001E127000EE223000E0001D6
:1025B000E06F060EDF6F0001E42B0001E451000123
:1025C0008D5DD8B01BD700018F51D8B41200000E1A
:1025D00000018F6FDEC08DF01200720E0101006FDE
:1025E000030E0101016F000E0101036F020E026F65
:1025F000740E0101046F6D0E0101056F010E0101E2
:10260000066FBC0E0101076F6B0E0101086F010E12
:102610000101096F040E01010A6F140E01010B6F15
:10262000000E01010C6FC1ECA1F0540E0101006F0E
:10263000030E0101016F000E0101036F020E026F14
:10264000740E0101046F6D0E0101056F010E010191
:10265000066F1C0E0101076F6C0E0101086F010E61
:102660000101096F040E01010A6F140E01010B6FC5
:10267000000E01010C6FC1ECA1F04A0E0101006FC8
:10268000030E0101016F000E0101036F020E026FC4
:10269000740E0101046F6D0E0101056F010E010141
:1026A000066F040E0101076F6C0E0101086F010E29
:1026B0000101096F040E01010A6F140E01010B6F75
:1026C000000E01010C6FC1ECA1F05E0E0101006F64
:1026D000030E0101016F000E0101036F020E026F74
:1026E000740E0101046F6D0E0101056F010E0101F1
:1026F000066FEC0E0101076F6B0E0101086F010EF2
:102700000101096F040E01010A6F140E01010B6F24
:10271000000E01010C6FC1ECA1F0680E0101006F09
:10272000030E0101016F000E0101036F020E026F23
:10273000740E0101046F6D0E0101056F010E0101A0
:10274000066FD40E0101076F6B0E0101086F010EB9
:102750000101096F040E01010A6F140E01010B6FD4
:10276000000E01010C6FC1ECA1F0A00E0001E66F9C
:10277000860EE76F010EE86F000EE96F000E000194
:10278000EA6F020E0001EB6FADEC86F07C0E0001EB
:10279000C86F030E0001C96F0DECADF0000E000113
:1027A000F56F000EF46F0001F55113E1080E000102
:1027B000F45DD8B01200420E0001F425D96E030E6C
:1027C0000001F521DA6E000EDF6E0001F44BF52BEF
:1027D000EAD712000001C16F0001C1510001D8B455
:1027E0001ED00001BCAF1BD0B9C0BDF0BAC0BEF056
:1027F000BBC0BFF0BCC0C0F00001BD1FBE1FBF1FEB
:10280000C01FBD2B000EBE23BF23C023BDC0C3F01D
:10281000BEC0C4F0BFC0C5F0C0C0C6F008D0B9C0CB
:10282000C3F0BAC0C4F0BBC0C5F0BCC0C6F0000164
:10283000B9510001BA110001BB110001BC11D8A4AB
:102840000AD0000E0001B96F000EBA6F000EBB6F08
:10285000000EBC6F1200960E0001C26F08D000017E
:10286000C22B0001D890C633C533C433C333000E26
:102870000001C3150001BD6F000E0001C415000169
:10288000BE6F000E0001C5150001BF6FFE0E0001F6
:10289000C6150001C06F0001BD510001BE1100014D
:1028A000BF110001C011D8B410D0D9D70001C22B7C
:1028B000010E0001C327000EC423C523C623000157
:1028C000D890C633C533C433C333000E0001C315DB
:1028D0000001BD6F000E0001C4150001BE6F000EA7
:1028E0000001C5150001BF6FFF0E0001C6150001F4
:1028F000C06F0001BD510001BE110001BF110001F8
:10290000C011D8B409D0D2D70001C2070001D890B5
:10291000C337C437C537C6370001C5BF04D0020E60
:102920000001C261F1D70001C2B109D0FF0E000160
:10293000C317FF0EC4177F0EC517FF0EC617000181
:10294000D890C233C2C0BDF00001BE6BBF6BC06B7C
:10295000BDC0C0F00001BF6BBE6BBD6B0001BD51BF
:102960000001C3130001BE510001C4130001BF5197
:102970000001C5130001C0510001C6130001C1517F
:102980000001D8B405D00001BCAF02D00001C68F51
:10299000C3C0B9F0C4C0BAF0C5C0BBF0C6C0BCF07B
:1029A0001200D00E0001DD6F000E0001DE6FC9D0F5
:1029B000250E0001E119D8B405D00001E1515CEC0D
:1029C000B6F0BFD0000E0001DC6F14D0DDC0D9FF1F
:1029D000DEC0DAFFDF500001E16F020E0001DD27EB
:1029E000000EDE230001E1515CECB6F0AAD000013C
:1029F000DC8D1ED0CEC0F6FFCFC0F7FF0001CE4B5E
:102A0000CF2B000EF86E0800F5CFE1F00001E15188
:102A1000000AD8B41200630AD8B4D8D7070AD8B4C9
:102A200007D00D0AD8B404D01C0AD8B4E0D7DAD73E
:102A30000001DCBD19D0DDC0D9FFDEC0DAFFDECF7A
:102A4000DFF0DDCFE0F0020E0001DD27000EDE2317
:102A50000001E0AF16D0030E0001DC130001DF6DB2
:102A6000E01FD8B0E02B0DD0DDC0D9FFDEC0DAFF0B
:102A7000DECFDFF0DDCFE0F0020E0001DD27000E3B
:102A8000DE23010E0001E16F050E0001E119D8B44B
:102A900019D00001E151020D050EF324F66EFD0E72
:102AA000F420F76EF86A000EF8220900F5500001D4
:102AB000DF5D0900F5500001E059D8A003D0000106
:102AC000E12BE2D7DCC0DAF0030E0001DA17D8B44C
:102AD00003D02D0E5CECB6F0E1C0DBF02CD0000191
:102AE000DB51020D050EF324F66EFD0EF420F76E99
:102AF000F86A000EF8220900F5CFBBF00A00F5CF06
:102B0000BCF0DFC0B9F0E0C0BAF022ECACF0B9C064
:102B1000C0F0BAC0C1F0000E0001C36F0A0EC26F50
:102B20008DECAFF00001C051300F0001E16F0001EA
:102B3000E1515CECB6F00001DB070001DB29D8A411
:102B4000CED7CEC0F6FFCFC0F7FF0001CE4BCF2BC4
:102B5000000EF86E0800F5CFE1F00001E151D8B4A5
:102B6000120026D7DFC0D9FFE0C0DAFFDECFE4F0E5
:102B7000DDCFE5F0050E0001E36FB5D0000120EEDA
:102B800002F0DF51D926E051DA22DECFB9F0DDCFF5
:102B9000BAF0E1C0BBF0010E0001BC6F2AECAFF04F
:102BA000B0D0E4C0C8F0E5C0C9F0010E0001CA6FA2
:102BB000E1C0CBF0A7ECABF00001E36F0001E35103
:102BC000D8A41200000120EE02F0DF51D926E05116
:102BD000DA22DECFB9F0DDCFBAF0E1C0BBF0000EF3
:102BE0000001BC6F2AECAFF0000120EE04F0DF51D1
:102BF000D926E051DA22DECFB9F0DDCFBAF0E1C05C
:102C0000BBF0000E0001BC6F2AECAFF07AD0E4C03C
:102C1000C8F0E5C0C9F0020E0001CA6FE1C0CBF0F8
:102C2000A7ECABF00001E36F0001E351D8A4120060
:102C3000000120EE02F0DF51D926E051DA22DECF8A
:102C4000B9F0DDCFBAF0E1C0BBF0010E0001BC6FFE
:102C50002AECAFF0000120EE04F0DF51D926E0515C
:102C6000DA22DECFB9F0DDCFBAF0E1C0BBF0010E61
:102C70000001BC6F2AECAFF044D0E4C0C8F0E5C05E
:102C8000C9F0000E0001CA6FE1C0CBF0A7ECABF0B9
:102C90000001E36F0001E351D8A41200000120EE0F
:102CA00002F0DF51D926E051DA22DECFB9F0DDCFD4
:102CB000BAF0E1C0BBF0000E0001BC6F2AECAFF02F
:102CC000000120EE04F0DF51D926E051DA22DECFF8
:102CD000B9F0DDCFBAF0E1C0BBF0000E0001BC6F6F
:102CE0002AECAFF00ED00001E251000AD8B446D76A
:102CF000010AD8B456D7030AD8B489D7010AD8B480
:102D0000BCD7080E0001DF250001C86F000E0001CE
:102D1000E0210001C96FE1C0CAF0E2C0CBF0E9ECEC
:102D2000B1F012000001CC6FB1D08BECA8F0120012
:102D3000BEECAFF012000DECAAF012005EECA3F0B6
:102D40001200F7ECAEF0120017ECB5F01200CCC098
:102D5000C9F07F0E0001C91700018D51140DB20E8C
:102D60000001CA6F040E0001CB6FF3500001CA27A7
:102D7000F4500001CB2300018E51010DF3500001EE
:102D8000CA25D96EF4500001CB21DA6EDF507F0BDB
:102D90000001C919D8B42ED0010E0001FF6F000147
:102DA0008D51140DB20E0001C96F040E0001CA6FDF
:102DB000F3500001C927F4500001CA2300018E51CD
:102DC000010DF3500001C925D96EF4500001CA214C
:102DD000DA6E0001CC518009DF6E00018D51020DC9
:102DE000000EF324D96E030EF420DA6EFDC0DEFF70
:102DF000FEC0DDFFF7ECAEF00009D8B41200CCC085
:102E0000C9F07F0E0001C91700018D51140DB20EDB
:102E10000001CA6F040E0001CB6FF3500001CA27F6
:102E2000F4500001CB2300018E51010DF35000013D
:102E3000CA25D96EF4500001CB21DA6EDF507F0B2A
:102E40000001C919D8B41200010E0001FF6F000182
:102E50008D51140DB20E0001C96F040E0001CA6F2E
:102E6000F3500001C927F4500001CA2300018E511C
:102E7000010DF3500001C925D96EF4500001CA219B
:102E8000DA6E0001CC518009DF6E12000001CC51D6
:102E9000070AD8B456D70F0AD8B44AD7010AD8B40B
:102EA0004DD7030AD8B441D7060AD8B444D7010A8B
:102EB000D8B43BD72D0AD8B44AD7030AD8B444D7DC
:102EC00046D70101025193ECA7F000C1D9FF01C11F
:102ED000DAFF0001B9C0DEFF0001BAC0DDFF010169
:102EE0000251E6ECA7F0010120EE06F00051D926D0
:102EF0000151DA220001B9C0DEFF0001BAC0DDFFD6
:102F000001010251E6ECA7F0010120EE04F00051AE
:102F1000D9260151DA220001B9C0DEFF0001BAC092
:102F2000DDFF0101025140ECA7F0010120EE02F0AB
:102F30000051D9260151DA220001B9C0DEFF00019B
:102F4000BAC0DDFF010120EE04F00051D926015185
:102F5000DA22DECF03F1DDCF04F103C1D9FF04C1D2
:102F6000DAFF000EDF6E010120EE02F00051D926DB
:102F70000151DA22DECF03F1DDCF04F103C1D9FF25
:102F800004C1DAFFFF0EDF6E00C1F3F001C1F4F0FF
:102F9000000E0001F56FD0EC90F0000E0101056FFE
:102FA000070E0101056531D04BD000C1DFF001C132
:102FB000E0F005C1E1F0030E0001E26FB2EC95F024
:102FC0003CD000C1DFF001C1E0F005C1E1F0020E2C
:102FD0000001E26FB2EC95F030D000C1DFF001C12A
:102FE000E0F005C1E1F0010E0001E26FB2EC95F0F6
:102FF00024D000C1DFF001C1E0F005C1E1F0000E16
:103000000001E26FB2EC95F018D000C1D9FF01C108
:10301000DAFFDECFC5F0DDCFC6F005C1C7F00FEC9B
:10302000B3F0000AD8B4C1D7010AD8B4D6D7030A7E
:10303000D8B4C7D7010AD8B4DCD70101052BB0D763
:1030400000C1C8F001C1C9F0000E0001CA6F86ECD2
:103050008CF012000001D16F000E0001D06F000E45
:103060000001D46FBF0E0001CE6F000E0001CF6FC4
:10307000950E6AECB6F00001D1516AECB6F0000E84
:103080000001D56F23D0CEC0D9FFCFC0DAFFDF500B
:103090000001D26F020E0001CE27000ECF230001E7
:1030A000D251C4ECAEF00001D0270001D551010D82
:1030B000000EF324D96E020EF420DA6ED2C0DFFFC8
:1030C0000001D2516AECB6F00001D52B0001D151BC
:1030D0000001D55DD8A0D7D7000E0001D56F0ED066
:1030E0000001D551010D000EF324D96E010EF4201C
:1030F000DA6EA7ECB6F0DF6E0001D52B0001D051DF
:103100000001D55DD8A0ECD7000E0001D56F5ED0D0
:10311000D4C0D3F021D00001D351010D000EF3240F
:10312000D96E010EF420DA6EDF500001BA6F000193
:10313000D45100080001D3250001BB6F0001D55117
:10314000010D000EF324D96E020EF420DA6EDF506A
:103150001EEC9FF00001D32B0001D551010D000E94
:10316000F324D96E020EF420DA6EDF50C4ECAEF018
:103170000001C96FCA6B0001D4510001C927000EBC
:10318000CA230001D3510001CB6FCC6B0001C951A0
:103190000001CB5D0001CC51800A0001CD6F000120
:1031A000CA51800A0001CD59D8A0B5D70001D55128
:1031B000010D000EF324D96E020EF420DA6EDF50FA
:1031C000C4ECAEF00001D4270001D52B0001D15191
:1031D0000001D55DD8B012009BD7010E4B6E000EDA
:1031E0000001636F000E0001646F000E0001656F47
:1031F000BA0E0101006F030E0101016F000E010103
:10320000026F61EC97F0B00E0101006F030E010137
:10321000016F010E0101026F61EC97F0A40E010134
:10322000006F000E0101016F020E0101026F61ECDF
:1032300097F09A0E0101006F000E0101016F030E5D
:103240000101026F61EC97F0900E0101006F000E1A
:103250000101016F040E0101026F61EC97F0C40ED1
:103260000101006F030E0101016F050E0101026FE4
:1032700061EC97F0A60E0101006F030E0101016FD2
:10328000060E0101026F61EC97F0C40E0001DF6FC2
:10329000030E0001E06F050E0001E16F000E00015A
:1032A000E26FB2EC95F0B00E0001EF6F030E00017B
:1032B000F06F000E0001F16F000E0001F26FA5EC3F
:1032C0008FF0C40E0001DF6F030E0001E06F060EE9
:1032D0000001E16F030E0001E26FB2EC95F0A60E63
:1032E0000001F36F030E0001F46F030E0001F56F90
:1032F000D0EC90F0A60E0001C86F030E0001C96F5C
:10330000040E0001CA6F000E0001CB6FFCECA2F0AE
:10331000C40E0001C86F030E0001C96F060E000144
:10332000CA6F010E0001CB6FFCECA2F0000E5CEC4A
:10333000AFF0010E5CECAFF0000E9E6E000EA16EC1
:10334000000EA46E9B8E9B8C000E0001BA6F640E63
:10335000B96F5AECAEF0D08E120081ECADF0000ED9
:103360000001F16F000EF06F0001F15106E1590EFE
:103370000001F05DD8B08BD001D089D0D890000189
:10338000F035F66E0001F135F76E330EF626FC0EC1
:10339000F722F86A000EF8220900800EF5180900DD
:1033A000F510D8A422D00001F1511FE1580E000100
:1033B000F05DD8B01AD00001F04BF12BD89000018D
:1033C000F035F66E0001F135F76E330EF626FC0E81
:1033D000F722F86A000EF8220900F5CFB9F00A00CA
:1033E000F5CFBAF05AECAEF04BD0D8900001F035E2
:1033F000F66E0001F135F76E330EF626FC0EF7225D
:10340000F86A000EF8220900000EF55E0900010EB0
:10341000F55AD8A020D0000E0001BC6FD890000152
:10342000F035F66E0001F135F76E330EF626FC0E20
:10343000F722F86A000EF8220900F5CFEEF0090035
:10344000F5CFEFF0EFC0EEF00001EF6B0001EE51B1
:10345000D4ECB4F015D0010E0001BC6FD89000017F
:10346000F035F66E0001F135F76E330EF626FC0EE0
:10347000F722F86A000EF8220800F550D4ECB4F0F8
:103480000001F04BF12B0001F15101E170D7000E6A
:103490000001BA6F640EB96F5AECAEF0000E000175
:1034A000BC6F290ED4ECB4F0010E79ECA9F0000E3B
:1034B0000001BA6F640EB96F5AECAEF0000E000155
:1034C000C36F000EC26F45ECB0F01200000120EE99
:1034D00007F0D451D926D551DA2201D80AD00500F7
:1034E000FA6EDE50FD6EDE50FE6EDE50FF6EFA505C
:1034F00012000001DC6FD4C0D9FFD5C0DAFF000193
:10350000DC51DE18D8A421D0000120EE01F0D45106
:10351000D926D551DA220001D651DE5CD8B00AD0C6
:10352000000120EE01F0D451D926D551DA22000E47
:10353000DF6E1200000120EE01F0D451D926D551E2
:10354000DA220001D651DF5E1200000120EE01F008
:10355000D451D926D551DA22DF500001D76FD86B6C
:103560000001D6510001D727000ED823000120EE1C
:1035700001F0D451D926D551DA22DF500001D96F9C
:10358000DA6B0001D7510001D95D0001DA51800AE0
:103590000001DB6F0001D851800A0001DB59D8B06F
:1035A0001200000120EE01F0D451D926D551DA22C3
:1035B0000001D651DF26000120EE02F0D451D926B9
:1035C000D551DA22000110EE01F0D451E126D55197
:1035D000E222E7500001D96FDA6BDE500001D95DBD
:1035E000DE500001DA59D8A01200D4C0D9FFD5C0EE
:1035F000DAFFDCC0DFFF000120EE01F0D451D92654
:10360000D551DA22000EDF6E000120EE04F0D45115
:10361000D926D551DA2201D812000500FA6EDE5003
:10362000FD6EDE50FE6EDE50FF6EFA500001DC5182
:103630001200800E0001CC6F8D0ECD6F5B0ECE6F31
:10364000000ECF6FD59E0001C6510001C7110001C9
:10365000C8110001C911D8B41200D596D59CD59ACD
:10366000D598CCC0B9F0CDC0BAF0CEC0BBF0CFC0B9
:10367000BCF0C6C0BDF0C7C0BEF0C8C0BFF0C9C076
:10368000C0F07EECA4F0B9C0D0F0BAC0D1F0BBC09D
:10369000D2F0BCC0D3F00CD000018C2B020E000184
:1036A0008C6501D02FD0070E00018C6501D012006F
:1036B000D0C0B9F0D1C0BAF0D2C0BBF0D3C0BCF01A
:1036C00000018C51020DE50EF324F66EFC0EF42081
:1036D000F76EF86A000EF8220900F5CFCAF009006B
:1036E000F5CFCBF0CAC0BDF0CBC0BEF00001BF6BC0
:1036F000C06B7EECA4F00001BC51CEE10001BB0523
:10370000D8B0CAD700018C51020DE50EF324F66E35
:10371000FC0EF420F76EF86A000EF8220800F5CFD0
:103720008BF0FF0E0001D02503012A6FFF0E000170
:10373000D12103012B6FFF0E0001D22103012C6F59
:10374000FF0E0001D32103012D6F2AC3B9F02BC353
:10375000BAF02CC3BBF02DC3BCF000018B510001AB
:10376000BD6FBE6BBF6BC06B7EECA4F00001B91FD8
:103770000001BA1F0001B94BBA2BFF0E0001B92599
:10378000296EFF0E0001BA212A6E86ECB6F0D58EA6
:103790001200000E0001CF6F6C0ED06FDC0ED16FE7
:1037A000020ED26F0001D890C637C737C837C93765
:1037B000020E0001CA6FD8900001D233D133D0334A
:1037C000CF330001CA2FF7D7CFC0B9F0D0C0BAF0BD
:1037D000D1C0BBF0D2C0BCF0C6C0BDF0C7C0BEF007
:1037E000C8C0BFF0C9C0C0F07EECA4F0B9C0D3F02F
:1037F000BAC0D4F0BBC0D5F0BCC0D6F010D0000E1B
:103800000001CB6F000ECC6F000ECD6F000ECE6F9F
:1038100000018A2B020E00018A6501D026D0D3C098
:10382000B9F0D4C0BAF0D5C0BBF0D6C0BCF000012E
:103830008A51010D1C0EF324F66EFD0EF420F76E76
:10384000F86A000EF8220800F5500001BD6FBE6B4B
:10385000BF6BC06B7EECA4F00001BC510001BB113A
:10386000CEE10001BA05D8B0CAD7CA5000018A1902
:10387000FC0B8A19CA6ECA84ABECB6F000018A51FF
:10388000010D1C0EF324F66EFD0EF420F76EF86A9F
:10389000000EF8220800F5CF89F0FF0E0001D325B5
:1038A0000301266FFF0E0001D4210301276FFF0ED5
:1038B0000001D5210301286FFF0E0001D62103016D
:1038C000296F26C3B9F027C3BAF028C3BBF029C3B8
:1038D000BCF0000189510001BD6FBE6BBF6BC06BB6
:1038E0007EECA4F00001B95100018A6F8AC0CBFFC1
:1038F000120051B29EEF9EF0000120EE04F07D51C7
:10390000D9267E51DA22DF5051ECB2F00009D8B44A
:103910007AD07DC0D9FF7EC0DAFFDE50DE10D8B489
:103920006DD07DC0D9FF7EC0DAFF010EDBBE26D090
:10393000010EDB5003E1DE04D8A020D07DC0D9FF0A
:103940007EC0DAFFDE2804E17F0EDE18D8B407D08F
:103950007DC0D9FF7EC0DAFFDE06000EDD5A900E74
:103960000001C86F000E0001C96F000E0001CA6F90
:10397000010E0001CB6FFCECA2F01FD07DC0D9FF7F
:103980007EC0DAFFDE0404E1800EDE18D8B407D072
:103990007DC0D9FF7EC0DAFFDE2A000EDD22900E48
:1039A0000001C86F000E0001C96F000E0001CA6F50
:1039B000000E0001CB6FFCECA2F0900E0001C86F6E
:1039C000000E0001C96F010E0001CA6F010E000157
:1039D000CB6FFCECA2F0900E0001C86F000E00014E
:1039E000C96F010E0001CA6F000E0001CB6FFCEC25
:1039F000A2F09DECB5F08CECB6F012009DECB5F0A9
:103A0000B7ECB6F0120066C0B9F067C0BAF068C093
:103A1000BBF078ECB6F0120010ECB1F000EC80F0E6
:103A2000000E0001BA6F640EB96F5AECAEF0000ED2
:103A30000001D36FC80ED26FC6ECB5F0000E0001C6
:103A40006A6F000E696F0CD03AECB6F00001775146
:103A5000000169270001785100016A236AECB3F084
:103A600000016ABF08D02C0E0001695D010E000143
:103A70006A59D8B010D000018651D8A40CD00001EA
:103A80008751D8A408D000018551D8A404D00001E2
:103A90008451D8B4D9D7000EC6ECB1F0010E51EC68
:103AA000B2F00009D8B437D0FB0E0001CE6FFF0E84
:103AB0000001CF6F000E0001D16F230ED06FD1EC4B
:103AC00094F00D0E0001CE6FFF0E0001CF6FFBC012
:103AD000D0F0FCC0D1F06BC0D2F06CC0D3F086C087
:103AE000D4F00001D56B87C0D6F00001D76BBD0EB6
:103AF00000016B250001D86FFF0E00016C21000151
:103B0000D96FD1EC94F0E5EC91F09DECB5F00009A3
:103B1000D8A4D1ECB2F0000E26ECB6F0000EC6EC44
:103B2000B1F012000001DC6F000E0001E06F000E2A
:103B3000DF6F0001D7BF0DD00001D75104E10001B4
:103B4000D605D8A006D0000E0001DE6F010EDD6F95
:103B500003D00001D669D7690001DC510001D8B457
:103B60000CD0D8C0C9F0D9C0CAF0DDC0CBF0DEC0DF
:103B7000CCF0010E94ECA5F01200D8C0C9F0D9C069
:103B8000CAF0DDC0CBF0DEC0CCF0000E94ECA5F0A6
:103B90000001D9BF22D00001D9510FE10001D805A1
:103BA000D8B00BD01AD043ECB6F00001755100012B
:103BB000DF27000176510001E0230001D65100010A
:103BC000DF5D0001E051800A0001DA6F0001D7518A
:103BD000800A0001DA59D8A0E6D70001D9BF14D075
:103BE00023D043ECB6F075C0DAF076C0DBF000010C
:103BF000DA1FDB1FDA4BDB2B0001DA510001DF2774
:103C00000001DB510001E0230001D6510001DF5D1E
:103C10000001E051800A0001DA6F0001D751800AEB
:103C20000001DA59D8A0DDD7000EC6ECB1F01200C1
:103C30000001F435F5350001F76F0001F751D8A404
:103C40000AD0000E0001F26F000EF36F000EF46F49
:103C5000000EF56F1200F2C000F1F3C001F1F4C0E4
:103C600002F1F5C003F1200E06D00101D890033314
:103C7000023301330033E82EF8D70101005100016F
:103C8000F66F0001F48FFF0E0001F217FF0EF3171D
:103C9000FF0EF417000EF517960E0001F75F0001F6
:103CA000F7AF1AD00001F751800A970FD8B00AD0A9
:103CB000000E0001F26F000EF36F000EF46F000EA5
:103CC000F56F12000001D890F533F433F333F2337B
:103CD0000001F73FF7D71BD01F0E0001F76512D088
:103CE000000E0001F26F000EF36F000EF46F000E75
:103CF000F56F12000001D890F237F337F437F5373B
:103D00000001F7070001F7510001D8A4F3D7000123
:103D1000F6510001D8B409D00001F51FF41FF31FBC
:103D2000F26D000EF323F423F523F2C0F2F0F3C09A
:103D3000F3F0F4C0F4F0F5C0F5F01200000120EE4D
:103D400004F07D51D9267E51DA22DF50BFECB3F06A
:103D50000009D8B46AD07DC0D9FF7EC0DAFFDE503A
:103D6000DE10D8B45DD07DC0D9FF7EC0DAFF010E71
:103D7000DBBE22D0010EDB5003E1DE04D8A01CD054
:103D80007DC0D9FF7EC0DAFFDE2804E17F0EDE1899
:103D9000D8B407D07DC0D9FF7EC0DAFFDE06000EA2
:103DA000DD5A900E106E000E116E000E126E010E96
:103DB000136E98ECA6F01BD07DC0D9FF7EC0DAFF51
:103DC000DE0404E1800EDE18D8B407D07DC0D9FF30
:103DD0007EC0DAFFDE2A000EDD22900E106E000E8D
:103DE000116E000E126E000E136E98ECA6F0900E7F
:103DF000106E000E116E010E126E010E136E98EC15
:103E0000A6F0900E106E000E116E010E126E000ED6
:103E1000136E98ECA6F0C6ECB6F092ECB6F0120079
:103E2000C6ECB6F0C3ECB6F0120066C001F067C095
:103E300002F068C003F07FECB6F012000001BE6F24
:103E400057D0BAC036F054ECAAF01200BAC035F020
:103E50001200BAC034F01200BAC033F01200BAC077
:103E600032F01200BAC031F01200BAC030F01200C5
:103E70000001BB510001D8A405D0BAC022F3030150
:103E8000236B1200BAC024F30301256B03012251F6
:103E90000001BD6FBC6B030124510001BC25000172
:103EA000776F030125510001BD210001786F1200D9
:103EB0000001BB510001D8A405D0BAC01EF3030114
:103EC0001F6B1200BAC020F30301216B03011E51C6
:103ED0000001BD6FBC6B030120510001BC25000136
:103EE000756F030121510001BD210001766F1200A1
:103EF0000001BE51070AD8B4A4D70F0AD8B4A6D778
:103F0000010AD8B4A6D7030AD8B4A6D7010AD8B4F0
:103F1000A6D7070AD8B4A6D7010AD8B4A6D71E0ACE
:103F2000D8B4A6D7070AD8A41200C2D710ECB1F0B3
:103F3000010E51ECB2F00009D8B41200FB0E0001E2
:103F4000CE6FFF0E0001CF6F000E0001D16F230E68
:103F5000D06FD1EC94F0950E0001CE6FFF0E0001F2
:103F6000CF6F73C0D0F074C0D1F086C0D2F0000122
:103F7000D36B87C0D4F00001D56BD1EC94F0E5ECA5
:103F800091F0000E00016A6F000E696F000E0001D3
:103F9000D36FC80ED26FC6ECB5F027D03AECB6F0AE
:103FA00000017751000169270001785100016A235F
:103FB000FB0E0001CE6FFF0E0001CF6F000E00015F
:103FC000D16F230ED06FD1EC94F0ED0E0001CE6FC7
:103FD000FF0E0001CF6F69C0D0F06AC0D1F0D1EC04
:103FE00094F0E5EC91F0DCECA8F000016ABFD6D7C4
:103FF000880E0001695D130E00016A59D8A0CED762
:10400000000EC6ECB1F09DECB5F00009D8B412007A
:10401000D1ECB2F01200EDECA6F0BFECA3F053D05F
:10402000BCEC88F068D096EC9FF065D02EECB3F035
:1040300062D00CEC9DF05FD0010E51ECB2F00009A3
:10404000D8B459D0FB0E0001CE6FFF0E0001CF6F28
:10405000000E0001D16F230ED06FD1EC94F0D80E7A
:104060000001CE6FFF0E0001CF6FD1EC94F0C30EB4
:104070000001CE6FFF0E0001CF6FD1EC94F0C30EA4
:104080000001CE6FFF0E0001CF6FD1EC94F0C30E94
:104090000001CE6FFF0E0001CF6FD1EC94F0C30E84
:1040A0000001CE6FFF0E0001CF6FD1EC94F0E5EC74
:1040B00091F047ECADF09DECB5F00009D8B41BD001
:1040C000D1ECB2F018D03CC3B0F43DC3B1F404015C
:1040D000B151000AD8A4B0D70401B051010AD8B434
:1040E0009FD7030AD8B49FD7010AD8B49FD7070A2D
:1040F000D8B49FD7A1D7DCECA8F08FD7000E000171
:10410000E66F000EE76F800EE86F440EE96F330E26
:104110000001EA6F330EEB6F530EEC6F400EED6F44
:10412000000120EE01F0E051D926E151DA22DECF84
:10413000E4F0DDCFE5F0E4C0B9F0E5C0BAF000018D
:10414000BB6BBC6B000EEAEC93F0B9C0EEF0BAC0EA
:10415000EFF0BBC0F0F0BCC0F1F0EEC0B9F0EFC0C2
:10416000BAF0F0C0BBF0F1C0BCF0E6C0BDF0E7C0F3
:10417000BEF0E8C0BFF0E9C0C0F0A6EC8AF0B9C05C
:10418000EEF0BAC0EFF0BBC0F0F0BCC0F1F0EEC092
:10419000C7F0EFC0C8F0F0C0C9F0F1C0CAF0EAC083
:1041A000CBF0EBC0CCF0ECC0CDF0EDC0CEF05AECD3
:1041B00084F0C7C0EEF0C8C0EFF0C9C0F0F0CAC0CC
:1041C000F1F0EEC0E0F0EFC0E1F0F0C0E2F0F1C0DD
:1041D000E3F01200C5C0CDF0C6C0CEF0000E000165
:1041E000CC6F000ECB6FC7C0C9F0C8C0CAF00001C9
:1041F000CD510001CE11D8A434D0C9C0D9FFCAC056
:10420000DAFF300EDF6E000E0001CC6F010ECB6FB7
:1042100040D0CDC0C0F0CEC0C1F0000E0001C36FD1
:104220000A0EC26F8DECAFF00001C051300FC9C053
:10423000D9FFCAC0DAFFDF6ECDC0B9F0CEC0BAF088
:10424000000E0001BC6F0A0EBB6F22ECACF0B9C0CF
:10425000CDF0BAC0CEF00001CB4BCC2B0001C94B46
:10426000CA2B0001CD510001CE11D8B408D00001F5
:10427000CC5105E1060E0001CB5DD8A0CAD7C7C05E
:10428000B9F0C8C0BAF0CBC0BBF0CCC0BCF0EFEC0A
:10429000ADF00001CB510001C725D96E0001CC5112
:1042A0000001C821DA6E000EDF6E1200E6C0D9FFF1
:1042B000E7C0DAFF000EDE6E000EDD6E000120EEBC
:1042C00002F0E651D926E751DA22000EDE6E000E2A
:1042D000DD6E000120EE04F0E651D926E751DA2226
:1042E000E8C0DEFFE9C0DDFF900E0001DF6F000EC9
:1042F0000001E06F000E0001E16F030E0001E26FAC
:10430000B2EC95F0900E0001DF6F000E0001E06F3F
:10431000010E0001E16F030E0001E26FB2EC95F0B7
:10432000900E0001C86F000E0001C96F000E000161
:10433000CA6F000E0001CB6FFCECA2F0900E0001E2
:10434000C86F000E0001C96F010E0001CA6F000E98
:104350000001CB6FFCECA2F0F20E0001666F380E8C
:104360000001676F010E0001686FE80E0001C66F63
:10437000030EC76F000EC86F000EC96F19EC9BF0DB
:1043800012000101005101010111D8B41200010114
:1043900004510101051101010611D8B412000101F7
:1043A00007510101081101010911D8B412000101DE
:1043B0000A5101010B1101010C11D8B412000101C5
:1043C000025101010311D8A405D0000E0101036FB1
:1043D000010E026F00C1D9FF01C1DAFF000EDF6ECE
:1043E000010120EE01F00051D9260151DA22000E20
:1043F000DF6E010120EE02F00051D9260151DA22D0
:1044000002C1DEFF03C1DDFF010120EE04F0005117
:10441000D9260151DA220AC1DEFF0BC1DEFF0CC131
:10442000DEFF010120EE07F00051D9260151DA220A
:1044300007C1DEFF08C1DEFF09C1DEFF01D812009F
:104440000500FA6E01010451FD6E0551FE6E065124
:10445000FF6EFA501200000E0001D36F640ED26F8F
:10446000C6ECB5F027D03AECB6F000017751000168
:1044700069270001785100016A23FB0E0001CE6F0D
:10448000FF0E0001CF6F000E0001D16F230ED06F21
:10449000D1EC94F0ED0E0001CE6FFF0E0001CF6F56
:1044A00069C0D0F06AC0D1F0D1EC94F0E5EC91F0A5
:1044B000DCECA8F0F8C3B9F0F9C3BAF0030E0001C0
:1044C000BC6FE80EBB6FA4ECB3F00001B951000162
:1044D000695D00016A51800A0001F86F0001BA515C
:1044E000800A0001F859D8A0BED7000EC6ECB1F082
:1044F000000E0001BA6F640EB96F5AECAEF0000EF8
:104500000001D76F430ED66F000E0001D96FC80EA1
:10451000D86F000E92EC9DF0000E0001BA6F640E91
:10452000B96F5AECAEF012000001C46F200E00010A
:10453000C45F0001C451050DF3CFC2F0F4CFC3F046
:104540001F0E0001C2250001C56FFD0E0001C32131
:104550000001C66F000E0001C96F040E0001C9659D
:1045600001D043D0000E0001CA6F060E0001CA65DB
:1045700001D035D0C5C0B9F0C6C0BAF0CAC0BBF0D2
:10458000DAECB3F00009D8A405D081C0C7F082C02E
:10459000C8F004D0FDC0C7F0FEC0C8F00001CA5189
:1045A0000A0D640E0001C06F040E0001C16FF350CC
:1045B0000001C027F4500001C1230001C951020DC0
:1045C000F3500001C025D96EF4500001C121DA6E0C
:1045D000C7C0DEFFC8C0DDFF0001CA2BC6D700017F
:1045E000C54BC62B0001C92BB8D7640E0001BE6FA6
:1045F000040E0001BF6F1200080E0001C825000163
:10460000C56F000E0001C9210001C66FCAC0C7F006
:104610000FECB3F00001CC6F42D0010E0001CB17BC
:10462000000120EE02F0C851D926C951DA22DECFAE
:10463000B9F0DDCFBAF0CAC0BBF0CBC0BCF02AECF9
:10464000AFF01200010E0001CB17010E0001CB1BD1
:10465000000120EE02F0C851D926C951DA22DECF7E
:10466000B9F0DDCFBAF0CAC0BBF0CBC0BCF02AECC9
:10467000AFF01200010E0001CB17000120EE04F094
:10468000C851D926C951DA22DECFB9F0DDCFBAF050
:10469000CAC0BBF0CBC0BCF02AECAFF012000001E6
:1046A000CC51000AD8B41200010AD8B4B6D7030A14
:1046B000D8B4C8D7010AD8A41200DCD7000E000174
:1046C000C76FFA0E47240001B96FFF0E48200001A2
:1046D000BA6F000E0001BC6F060EBB6F1FECA4F09A
:1046E0000001B9510001C86FC8C0B9F00001BA6B30
:1046F000000E0001BC6F040EBB6F1FECA4F00001A4
:10470000B9510001C66F000E0001C76F06D072ECF0
:10471000B2F0F7ECAEF00001C72B0001C651040D5A
:10472000F31EF41EF34AF42A0001C8510001C16FC0
:10473000C26BF3500001C127F4500001C2230001F5
:10474000C11FC21FC14BC22B040E0001C127000EA6
:10475000C2230001C7510001C36FC46B0001C151E6
:104760000001C35D0001C451800A0001C56F000152
:10477000C251800A0001C559D8B01200C8D747EC11
:10478000ADF0000E03013D6F000E3C6F23EE65F0AF
:1047900001D80AD00500FA6EDE50FD6EDE50FE6EC6
:1047A000DE50FF6EFA5012000009D8B405D0000E9A
:1047B00003013D6F010E3C6F23EE51F001D80AD08A
:1047C0000500FA6EDE50FD6EDE50FE6EDE50FF6EAE
:1047D000FA5012000009D8B405D0000E03013D6F55
:1047E000020E3C6F23EE6FF001D80AD00500FA6E7E
:1047F000DE50FD6EDE50FE6EDE50FF6EFA5012008F
:104800000009D8B405D0000E03013D6F030E3C6FC4
:1048100023EE5BF001D80AD00500FA6EDE50FD6E83
:10482000DE50FE6EDE50FF6EFA5012000009D8B462
:104830001200000E03013D6F040E3C6F1200000ECB
:104840000001BE6F0001BCAF08D00001BB6DBC1FF2
:10485000D8B0BC2B010E0001BE6F0001BAAF08D06A
:104860000001B96DBA1FD8B0BA2B010E0001BE1BF2
:10487000000E0001C06F000EBF6F0001BB510001B0
:10488000BC11D8B42CD0010E0001BD6F06D00001C0
